{
  "_format": "hh-sol-artifact-1",
  "contractName": "NonfungibleTokenPositionDescriptor",
  "sourceName": "contracts/periphery/NonfungibleTokenPositionDescriptor.sol",
  "abi": [
    {
      "inputs": [
        {
          "internalType": "address",
          "name": "_WETH9",
          "type": "address"
        },
        {
          "internalType": "bytes32",
          "name": "_nativeCurrencyLabelBytes",
          "type": "bytes32"
        }
      ],
      "stateMutability": "nonpayable",
      "type": "constructor"
    },
    {
      "inputs": [],
      "name": "WETH9",
      "outputs": [
        {
          "internalType": "address",
          "name": "",
          "type": "address"
        }
      ],
      "stateMutability": "view",
      "type": "function"
    },
    {
      "inputs": [
        {
          "internalType": "address",
          "name": "token0",
          "type": "address"
        },
        {
          "internalType": "address",
          "name": "token1",
          "type": "address"
        },
        {
          "internalType": "uint256",
          "name": "chainId",
          "type": "uint256"
        }
      ],
      "name": "flipRatio",
      "outputs": [
        {
          "internalType": "bool",
          "name": "",
          "type": "bool"
        }
      ],
      "stateMutability": "view",
      "type": "function"
    },
    {
      "inputs": [],
      "name": "nativeCurrencyLabel",
      "outputs": [
        {
          "internalType": "string",
          "name": "",
          "type": "string"
        }
      ],
      "stateMutability": "view",
      "type": "function"
    },
    {
      "inputs": [],
      "name": "nativeCurrencyLabelBytes",
      "outputs": [
        {
          "internalType": "bytes32",
          "name": "",
          "type": "bytes32"
        }
      ],
      "stateMutability": "view",
      "type": "function"
    },
    {
      "inputs": [
        {
          "internalType": "address",
          "name": "token",
          "type": "address"
        },
        {
          "internalType": "uint256",
          "name": "chainId",
          "type": "uint256"
        }
      ],
      "name": "tokenRatioPriority",
      "outputs": [
        {
          "internalType": "int256",
          "name": "",
          "type": "int256"
        }
      ],
      "stateMutability": "view",
      "type": "function"
    },
    {
      "inputs": [
        {
          "internalType": "contract INonfungiblePositionManager",
          "name": "positionManager",
          "type": "address"
        },
        {
          "internalType": "uint256",
          "name": "tokenId",
          "type": "uint256"
        }
      ],
      "name": "tokenURI",
      "outputs": [
        {
          "internalType": "string",
          "name": "",
          "type": "string"
        }
      ],
      "stateMutability": "view",
      "type": "function"
    }
  ],
  "bytecode": "0x60c060405234801561001057600080fd5b506040516106ce3803806106ce83398101604081905261002f9161004a565b60609190911b6001600160601b03191660805260a052610082565b6000806040838503121561005c578182fd5b82516001600160a01b0381168114610072578283fd5b6020939093015192949293505050565b60805160601c60a0516106176100b7600039806103435280610377528061042b525080610107528061014c52506106176000f3fe608060405234801561001057600080fd5b50600436106100725760003560e01c8063a18246e211610050578063a18246e2146100d5578063b7af3cdc146100dd578063e9dc6375146100f257610072565b80634aa4a4fc146100775780637e5af771146100955780639d7b0ea8146100b5575b600080fd5b61007f610105565b60405161008c9190610516565b60405180910390f35b6100a86100a33660046104ab565b610129565b60405161008c9190610537565b6100c86100c33660046104eb565b610148565b60405161008c9190610542565b6100c8610341565b6100e5610365565b60405161008c919061054b565b6100e56101003660046104eb565b6104a3565b7f000000000000000000000000000000000000000000000000000000000000000081565b60006101358383610148565b61013f8584610148565b13949350505050565b60007f000000000000000000000000000000000000000000000000000000000000000073ffffffffffffffffffffffffffffffffffffffff168373ffffffffffffffffffffffffffffffffffffffff1614156101c557507fffffffffffffffffffffffffffffffffffffffffffffffffffffffffffffff9c61033b565b81600114156103375773ffffffffffffffffffffffffffffffffffffffff831673a0b86991c6218b36c1d19d4a2e9eb0ce3606eb481415610209575061012c61033b565b73ffffffffffffffffffffffffffffffffffffffff831673dac17f958d2ee523a2206206994597c13d831ec71415610243575060c861033b565b73ffffffffffffffffffffffffffffffffffffffff8316736b175474e89094c44da98b954eedeac495271d0f141561027d5750606461033b565b73ffffffffffffffffffffffffffffffffffffffff8316738daebade922df735c38c80c7ebd708af50815faa14156102d657507fffffffffffffffffffffffffffffffffffffffffffffffffffffffffffffff3861033b565b73ffffffffffffffffffffffffffffffffffffffff8316732260fac5e5542a773aa44fbcfedf7c193bc2c599141561032f57507ffffffffffffffffffffffffffffffffffffffffffffffffffffffffffffffed461033b565b50600061033b565b5060005b92915050565b7f000000000000000000000000000000000000000000000000000000000000000081565b606060005b6020811080156103ca57507f000000000000000000000000000000000000000000000000000000000000000081602081106103a157fe5b1a60f81b7fff000000000000000000000000000000000000000000000000000000000000001615155b156103d75760010161036a565b60008167ffffffffffffffff811180156103f057600080fd5b506040519080825280601f01601f19166020018201604052801561041b576020820181803683370190505b50905060005b8281101561049c577f0000000000000000000000000000000000000000000000000000000000000000816020811061045557fe5b1a60f81b82828151811061046557fe5b60200101907effffffffffffffffffffffffffffffffffffffffffffffffffffffffffffff1916908160001a905350600101610421565b5091505090565b606092915050565b6000806000606084860312156104bf578283fd5b83356104ca816105bc565b925060208401356104da816105bc565b929592945050506040919091013590565b600080604083850312156104fd578182fd5b8235610508816105bc565b946020939093013593505050565b73ffffffffffffffffffffffffffffffffffffffff91909116815260200190565b901515815260200190565b90815260200190565b6000602080835283518082850152825b818110156105775785810183015185820160400152820161055b565b818111156105885783604083870101525b50601f017fffffffffffffffffffffffffffffffffffffffffffffffffffffffffffffffe016929092016040019392505050565b73ffffffffffffffffffffffffffffffffffffffff811681146105de57600080fd5b5056fea264697066735822122088540a608b2047c6a3eeff788e80c8b84767b01327ebadf0fafbc253c3224dbd64736f6c63430007060033",
  "linkReferences": {},
  "deployedLinkReferences": {}
}