{
  "_format": "hh-sol-artifact-1",
  "contractName": "MasterChef",
  "sourceName": "contracts/pancekeswap-fork/masterchef.sol",
  "abi": [
    {
      "inputs": [
        {
          "internalType": "contract CakeToken",
          "name": "_cake",
          "type": "address"
        },
        {
          "internalType": "contract SyrupBar",
          "name": "_syrup",
          "type": "address"
        },
        {
          "internalType": "address",
          "name": "_devaddr",
          "type": "address"
        },
        {
          "internalType": "uint256",
          "name": "_cakePerBlock",
          "type": "uint256"
        },
        {
          "internalType": "uint256",
          "name": "_startBlock",
          "type": "uint256"
        }
      ],
      "stateMutability": "nonpayable",
      "type": "constructor"
    },
    {
      "anonymous": false,
      "inputs": [
        {
          "indexed": true,
          "internalType": "address",
          "name": "user",
          "type": "address"
        },
        {
          "indexed": true,
          "internalType": "uint256",
          "name": "pid",
          "type": "uint256"
        },
        {
          "indexed": false,
          "internalType": "uint256",
          "name": "amount",
          "type": "uint256"
        }
      ],
      "name": "Deposit",
      "type": "event"
    },
    {
      "anonymous": false,
      "inputs": [
        {
          "indexed": true,
          "internalType": "address",
          "name": "user",
          "type": "address"
        },
        {
          "indexed": true,
          "internalType": "uint256",
          "name": "pid",
          "type": "uint256"
        },
        {
          "indexed": false,
          "internalType": "uint256",
          "name": "amount",
          "type": "uint256"
        }
      ],
      "name": "EmergencyWithdraw",
      "type": "event"
    },
    {
      "anonymous": false,
      "inputs": [
        {
          "indexed": true,
          "internalType": "address",
          "name": "previousOwner",
          "type": "address"
        },
        {
          "indexed": true,
          "internalType": "address",
          "name": "newOwner",
          "type": "address"
        }
      ],
      "name": "OwnershipTransferred",
      "type": "event"
    },
    {
      "anonymous": false,
      "inputs": [
        {
          "indexed": true,
          "internalType": "address",
          "name": "user",
          "type": "address"
        },
        {
          "indexed": true,
          "internalType": "uint256",
          "name": "pid",
          "type": "uint256"
        },
        {
          "indexed": false,
          "internalType": "uint256",
          "name": "amount",
          "type": "uint256"
        }
      ],
      "name": "Withdraw",
      "type": "event"
    },
    {
      "inputs": [],
      "name": "BONUS_MULTIPLIER",
      "outputs": [
        {
          "internalType": "uint256",
          "name": "",
          "type": "uint256"
        }
      ],
      "stateMutability": "view",
      "type": "function"
    },
    {
      "inputs": [
        {
          "internalType": "uint256",
          "name": "_allocPoint",
          "type": "uint256"
        },
        {
          "internalType": "contract IERC20",
          "name": "_lpToken",
          "type": "address"
        },
        {
          "internalType": "bool",
          "name": "_withUpdate",
          "type": "bool"
        }
      ],
      "name": "add",
      "outputs": [],
      "stateMutability": "nonpayable",
      "type": "function"
    },
    {
      "inputs": [],
      "name": "cake",
      "outputs": [
        {
          "internalType": "contract CakeToken",
          "name": "",
          "type": "address"
        }
      ],
      "stateMutability": "view",
      "type": "function"
    },
    {
      "inputs": [],
      "name": "cakePerBlock",
      "outputs": [
        {
          "internalType": "uint256",
          "name": "",
          "type": "uint256"
        }
      ],
      "stateMutability": "view",
      "type": "function"
    },
    {
      "inputs": [
        {
          "internalType": "uint256",
          "name": "_pid",
          "type": "uint256"
        },
        {
          "internalType": "uint256",
          "name": "_amount",
          "type": "uint256"
        }
      ],
      "name": "deposit",
      "outputs": [],
      "stateMutability": "nonpayable",
      "type": "function"
    },
    {
      "inputs": [
        {
          "internalType": "address",
          "name": "_devaddr",
          "type": "address"
        }
      ],
      "name": "dev",
      "outputs": [],
      "stateMutability": "nonpayable",
      "type": "function"
    },
    {
      "inputs": [],
      "name": "devaddr",
      "outputs": [
        {
          "internalType": "address",
          "name": "",
          "type": "address"
        }
      ],
      "stateMutability": "view",
      "type": "function"
    },
    {
      "inputs": [
        {
          "internalType": "uint256",
          "name": "_pid",
          "type": "uint256"
        }
      ],
      "name": "emergencyWithdraw",
      "outputs": [],
      "stateMutability": "nonpayable",
      "type": "function"
    },
    {
      "inputs": [
        {
          "internalType": "uint256",
          "name": "_amount",
          "type": "uint256"
        }
      ],
      "name": "enterStaking",
      "outputs": [],
      "stateMutability": "nonpayable",
      "type": "function"
    },
    {
      "inputs": [
        {
          "internalType": "uint256",
          "name": "_from",
          "type": "uint256"
        },
        {
          "internalType": "uint256",
          "name": "_to",
          "type": "uint256"
        }
      ],
      "name": "getMultiplier",
      "outputs": [
        {
          "internalType": "uint256",
          "name": "",
          "type": "uint256"
        }
      ],
      "stateMutability": "view",
      "type": "function"
    },
    {
      "inputs": [
        {
          "internalType": "uint256",
          "name": "_amount",
          "type": "uint256"
        }
      ],
      "name": "leaveStaking",
      "outputs": [],
      "stateMutability": "nonpayable",
      "type": "function"
    },
    {
      "inputs": [],
      "name": "massUpdatePools",
      "outputs": [],
      "stateMutability": "nonpayable",
      "type": "function"
    },
    {
      "inputs": [
        {
          "internalType": "uint256",
          "name": "_pid",
          "type": "uint256"
        }
      ],
      "name": "migrate",
      "outputs": [],
      "stateMutability": "nonpayable",
      "type": "function"
    },
    {
      "inputs": [],
      "name": "migrator",
      "outputs": [
        {
          "internalType": "contract IMigratorChef",
          "name": "",
          "type": "address"
        }
      ],
      "stateMutability": "view",
      "type": "function"
    },
    {
      "inputs": [],
      "name": "owner",
      "outputs": [
        {
          "internalType": "address",
          "name": "",
          "type": "address"
        }
      ],
      "stateMutability": "view",
      "type": "function"
    },
    {
      "inputs": [
        {
          "internalType": "uint256",
          "name": "_pid",
          "type": "uint256"
        },
        {
          "internalType": "address",
          "name": "_user",
          "type": "address"
        }
      ],
      "name": "pendingCake",
      "outputs": [
        {
          "internalType": "uint256",
          "name": "",
          "type": "uint256"
        }
      ],
      "stateMutability": "view",
      "type": "function"
    },
    {
      "inputs": [
        {
          "internalType": "uint256",
          "name": "",
          "type": "uint256"
        }
      ],
      "name": "poolInfo",
      "outputs": [
        {
          "internalType": "contract IERC20",
          "name": "lpToken",
          "type": "address"
        },
        {
          "internalType": "uint256",
          "name": "allocPoint",
          "type": "uint256"
        },
        {
          "internalType": "uint256",
          "name": "lastRewardBlock",
          "type": "uint256"
        },
        {
          "internalType": "uint256",
          "name": "accCakePerShare",
          "type": "uint256"
        }
      ],
      "stateMutability": "view",
      "type": "function"
    },
    {
      "inputs": [],
      "name": "poolLength",
      "outputs": [
        {
          "internalType": "uint256",
          "name": "",
          "type": "uint256"
        }
      ],
      "stateMutability": "view",
      "type": "function"
    },
    {
      "inputs": [],
      "name": "renounceOwnership",
      "outputs": [],
      "stateMutability": "nonpayable",
      "type": "function"
    },
    {
      "inputs": [
        {
          "internalType": "uint256",
          "name": "_pid",
          "type": "uint256"
        },
        {
          "internalType": "uint256",
          "name": "_allocPoint",
          "type": "uint256"
        },
        {
          "internalType": "bool",
          "name": "_withUpdate",
          "type": "bool"
        }
      ],
      "name": "set",
      "outputs": [],
      "stateMutability": "nonpayable",
      "type": "function"
    },
    {
      "inputs": [
        {
          "internalType": "contract IMigratorChef",
          "name": "_migrator",
          "type": "address"
        }
      ],
      "name": "setMigrator",
      "outputs": [],
      "stateMutability": "nonpayable",
      "type": "function"
    },
    {
      "inputs": [],
      "name": "startBlock",
      "outputs": [
        {
          "internalType": "uint256",
          "name": "",
          "type": "uint256"
        }
      ],
      "stateMutability": "view",
      "type": "function"
    },
    {
      "inputs": [],
      "name": "syrup",
      "outputs": [
        {
          "internalType": "contract SyrupBar",
          "name": "",
          "type": "address"
        }
      ],
      "stateMutability": "view",
      "type": "function"
    },
    {
      "inputs": [],
      "name": "totalAllocPoint",
      "outputs": [
        {
          "internalType": "uint256",
          "name": "",
          "type": "uint256"
        }
      ],
      "stateMutability": "view",
      "type": "function"
    },
    {
      "inputs": [
        {
          "internalType": "address",
          "name": "newOwner",
          "type": "address"
        }
      ],
      "name": "transferOwnership",
      "outputs": [],
      "stateMutability": "nonpayable",
      "type": "function"
    },
    {
      "inputs": [
        {
          "internalType": "uint256",
          "name": "multiplierNumber",
          "type": "uint256"
        }
      ],
      "name": "updateMultiplier",
      "outputs": [],
      "stateMutability": "nonpayable",
      "type": "function"
    },
    {
      "inputs": [
        {
          "internalType": "uint256",
          "name": "_pid",
          "type": "uint256"
        }
      ],
      "name": "updatePool",
      "outputs": [],
      "stateMutability": "nonpayable",
      "type": "function"
    },
    {
      "inputs": [
        {
          "internalType": "uint256",
          "name": "",
          "type": "uint256"
        },
        {
          "internalType": "address",
          "name": "",
          "type": "address"
        }
      ],
      "name": "userInfo",
      "outputs": [
        {
          "internalType": "uint256",
          "name": "amount",
          "type": "uint256"
        },
        {
          "internalType": "uint256",
          "name": "rewardDebt",
          "type": "uint256"
        }
      ],
      "stateMutability": "view",
      "type": "function"
    },
    {
      "inputs": [
        {
          "internalType": "uint256",
          "name": "_pid",
          "type": "uint256"
        },
        {
          "internalType": "uint256",
          "name": "_amount",
          "type": "uint256"
        }
      ],
      "name": "withdraw",
      "outputs": [],
      "stateMutability": "nonpayable",
      "type": "function"
    }
  ],
  "bytecode": "0x6080604052600160055560006009553480156200001b57600080fd5b5060405162002ad338038062002ad38339810160408190526200003e91620001d7565b620000526200004c62000183565b62000187565b600180546001600160a01b03199081166001600160a01b03978816908117835560028054831697891697909717909655600380548216958816959095179094556004928355600a829055604080516080810182529586526103e86020870181815291870193845260006060880181815260078054958601815590915296517fa66cc928b5edb82af9bd49922954155ab7b0942694bea4ce44661d9a8736c688939095029283018054909616949097169390931790935590517fa66cc928b5edb82af9bd49922954155ab7b0942694bea4ce44661d9a8736c689830155517fa66cc928b5edb82af9bd49922954155ab7b0942694bea4ce44661d9a8736c68a82015590517fa66cc928b5edb82af9bd49922954155ab7b0942694bea4ce44661d9a8736c68b9091015560095562000254565b3390565b600080546001600160a01b038381166001600160a01b0319831681178455604051919092169283917f8be0079c531659141344cd1fd0a4f28419497f9722a3daafe3b4186f6b6457e09190a35050565b600080600080600060a08688031215620001ef578081fd5b8551620001fc816200023b565b60208701519095506200020f816200023b565b604087015190945062000222816200023b565b6060870151608090970151959894975095949392505050565b6001600160a01b03811681146200025157600080fd5b50565b61286f80620002646000396000f3fe608060405234801561001057600080fd5b50600436106101cf5760003560e01c80635ffe6146116101045780638d88a90e116100a2578063d49e77cd11610071578063d49e77cd14610384578063dce174841461038c578063e2bbb15814610394578063f2fde38b146103a7576101cf565b80638d88a90e146103355780638da5cb5b146103485780638dbb1e3a1461035057806393f1a40b14610363576101cf565b8063715018a6116100de578063715018a6146103085780637cd07e471461031057806386a952c4146103255780638aa285501461032d576101cf565b80635ffe6146146102da578063630b5ba1146102ed57806364482f79146102f5576101cf565b806323cf311811610171578063454b06081161014b578063454b06081461029957806348cd4cb1146102ac57806351eb05a6146102b45780635312ea8e146102c7576101cf565b806323cf31181461026057806341441d3b14610273578063441a3e7014610286576101cf565b80631175a1dd116101ad5780631175a1dd1461020f5780631526fe271461022257806317caf6f1146102455780631eaaa0451461024d576101cf565b80630755e0b6146101d4578063081e3eda146101f25780631058d281146101fa575b600080fd5b6101dc6103ba565b6040516101e991906126b9565b60405180910390f35b6101dc6103c0565b61020d610208366004612162565b6103c6565b005b6101dc61021d366004612192565b610614565b610235610230366004612162565b6107d7565b6040516101e9949392919061230b565b6101dc610828565b61020d61025b3660046121c1565b61082e565b61020d61026e36600461210e565b610989565b61020d610281366004612162565b6109d8565b61020d610294366004612202565b610bdd565b61020d6102a7366004612162565b610d96565b6101dc6110cd565b61020d6102c2366004612162565b6110d3565b61020d6102d5366004612162565b611373565b61020d6102e8366004612162565b61144c565b61020d611459565b61020d610303366004612223565b611484565b61020d61156b565b61031861157f565b6040516101e9919061226c565b61031861159b565b6101dc6115b7565b61020d61034336600461210e565b6115bd565b610318611655565b6101dc61035e366004612202565b611671565b610376610371366004612192565b61168c565b6040516101e99291906126c2565b6103186116b0565b6103186116cc565b61020d6103a2366004612202565b6116e8565b61020d6103b536600461210e565b6118d8565b60045481565b60075490565b60006007600081548110610403577f4e487b7100000000000000000000000000000000000000000000000000000000600052603260045260246000fd5b600091825260208083203384527f5eff886ea0ce6ca488a3d6e336d6c0f75f46d19b42c06ce5ee98e42c96d256c79091526040909220805460049092029092019250831115610487576040517f08c379a000000000000000000000000000000000000000000000000000000000815260040161047e90612523565b60405180910390fd5b61049160006110d3565b60006104cb82600101546104c564e8d4a510006104bf8760030154876000015461193690919063ffffffff16565b90611942565b9061194e565b905080156104dd576104dd338261195a565b83156105145781546104ef908561194e565b825582546105149073ffffffffffffffffffffffffffffffffffffffff1633866119e8565b6003830154825461052f9164e8d4a51000916104bf91611936565b60018301556002546040517f9dc29fac00000000000000000000000000000000000000000000000000000000815273ffffffffffffffffffffffffffffffffffffffff90911690639dc29fac9061058c90339088906004016122e5565b600060405180830381600087803b1580156105a657600080fd5b505af11580156105ba573d6000803e3d6000fd5b5050505060003373ffffffffffffffffffffffffffffffffffffffff167ff279e6a1f5e320cca91135676d9cb6e44ca8a08c0b88342bcdb1144f6511b5688660405161060691906126b9565b60405180910390a350505050565b60008060078481548110610651577f4e487b7100000000000000000000000000000000000000000000000000000000600052603260045260246000fd5b6000918252602080832087845260088252604080852073ffffffffffffffffffffffffffffffffffffffff8981168752935280852060049485029092016003810154815492517f70a0823100000000000000000000000000000000000000000000000000000000815291975092959294929391909116916370a08231916106da9130910161226c565b60206040518083038186803b1580156106f257600080fd5b505afa158015610706573d6000803e3d6000fd5b505050506040513d601f19601f8201168201806040525081019061072a919061217a565b905083600201544311801561073e57508015155b156107a4576000610753856002015443611671565b905060006107806009546104bf886001015461077a6004548761193690919063ffffffff16565b90611936565b905061079f610798846104bf8464e8d4a51000611936565b8590611a8e565b935050505b6107cc83600101546104c564e8d4a510006104bf86886000015461193690919063ffffffff16565b979650505050505050565b600781815481106107e757600080fd5b6000918252602090912060049091020180546001820154600283015460039093015473ffffffffffffffffffffffffffffffffffffffff9092169350919084565b60095481565b610836611a9a565b801561084457610844611459565b6000600a54431161085757600a54610859565b435b6009549091506108699085611a8e565b6009556040805160808101825273ffffffffffffffffffffffffffffffffffffffff85811682526020820187815292820184815260006060840181815260078054600181018255925293517fa66cc928b5edb82af9bd49922954155ab7b0942694bea4ce44661d9a8736c688600490920291820180547fffffffffffffffffffffffff000000000000000000000000000000000000000016919094161790925592517fa66cc928b5edb82af9bd49922954155ab7b0942694bea4ce44661d9a8736c68982015591517fa66cc928b5edb82af9bd49922954155ab7b0942694bea4ce44661d9a8736c68a830155517fa66cc928b5edb82af9bd49922954155ab7b0942694bea4ce44661d9a8736c68b90910155610983611b0d565b50505050565b610991611a9a565b600680547fffffffffffffffffffffffff00000000000000000000000000000000000000001673ffffffffffffffffffffffffffffffffffffffff92909216919091179055565b60006007600081548110610a15577f4e487b7100000000000000000000000000000000000000000000000000000000600052603260045260246000fd5b600091825260208083203384527f5eff886ea0ce6ca488a3d6e336d6c0f75f46d19b42c06ce5ee98e42c96d256c790915260408320600490920201925090610a5c906110d3565b805415610aa5576000610a9182600101546104c564e8d4a510006104bf8760030154876000015461193690919063ffffffff16565b90508015610aa357610aa3338261195a565b505b8215610ade578154610acf9073ffffffffffffffffffffffffffffffffffffffff16333086611c61565b8054610adb9084611a8e565b81555b60038201548154610af99164e8d4a51000916104bf91611936565b60018201556002546040517f40c10f1900000000000000000000000000000000000000000000000000000000815273ffffffffffffffffffffffffffffffffffffffff909116906340c10f1990610b5690339087906004016122e5565b600060405180830381600087803b158015610b7057600080fd5b505af1158015610b84573d6000803e3d6000fd5b5050505060003373ffffffffffffffffffffffffffffffffffffffff167f90890809c654f11d6e72a28fa60149770a0d11ec6c92319d6ceb2bb0a4ea1a1585604051610bd091906126b9565b60405180910390a3505050565b81610c14576040517f08c379a000000000000000000000000000000000000000000000000000000000815260040161047e9061255a565b600060078381548110610c50577f4e487b7100000000000000000000000000000000000000000000000000000000600052603260045260246000fd5b600091825260208083208684526008825260408085203386529092529220805460049092029092019250831115610cb3576040517f08c379a000000000000000000000000000000000000000000000000000000000815260040161047e90612523565b610cbc846110d3565b6000610cea82600101546104c564e8d4a510006104bf8760030154876000015461193690919063ffffffff16565b90508015610cfc57610cfc338261195a565b8315610d33578154610d0e908561194e565b82558254610d339073ffffffffffffffffffffffffffffffffffffffff1633866119e8565b60038301548254610d4e9164e8d4a51000916104bf91611936565b6001830155604051859033907ff279e6a1f5e320cca91135676d9cb6e44ca8a08c0b88342bcdb1144f6511b56890610d879088906126b9565b60405180910390a35050505050565b60065473ffffffffffffffffffffffffffffffffffffffff16610de5576040517f08c379a000000000000000000000000000000000000000000000000000000000815260040161047e90612682565b600060078281548110610e21577f4e487b7100000000000000000000000000000000000000000000000000000000600052603260045260246000fd5b60009182526020822060049182020180546040517f70a0823100000000000000000000000000000000000000000000000000000000815291945073ffffffffffffffffffffffffffffffffffffffff16929183916370a0823191610e879130910161226c565b60206040518083038186803b158015610e9f57600080fd5b505afa158015610eb3573d6000803e3d6000fd5b505050506040513d601f19601f82011682018060405250810190610ed7919061217a565b600654909150610f019073ffffffffffffffffffffffffffffffffffffffff848116911683611c82565b6006546040517fce5494bb00000000000000000000000000000000000000000000000000000000815260009173ffffffffffffffffffffffffffffffffffffffff169063ce5494bb90610f5890869060040161226c565b602060405180830381600087803b158015610f7257600080fd5b505af1158015610f86573d6000803e3d6000fd5b505050506040513d601f19601f82011682018060405250810190610faa9190612146565b6040517f70a0823100000000000000000000000000000000000000000000000000000000815290915073ffffffffffffffffffffffffffffffffffffffff8216906370a0823190610fff90309060040161226c565b60206040518083038186803b15801561101757600080fd5b505afa15801561102b573d6000803e3d6000fd5b505050506040513d601f19601f8201168201806040525081019061104f919061217a565b8214611087576040517f08c379a000000000000000000000000000000000000000000000000000000000815260040161047e906125ee565b83547fffffffffffffffffffffffff00000000000000000000000000000000000000001673ffffffffffffffffffffffffffffffffffffffff9190911617909255505050565b600a5481565b60006007828154811061110f577f4e487b7100000000000000000000000000000000000000000000000000000000600052603260045260246000fd5b90600052602060002090600402019050806002015443116111305750611370565b80546040517f70a0823100000000000000000000000000000000000000000000000000000000815260009173ffffffffffffffffffffffffffffffffffffffff16906370a082319061118690309060040161226c565b60206040518083038186803b15801561119e57600080fd5b505afa1580156111b2573d6000803e3d6000fd5b505050506040513d601f19601f820116820180604052508101906111d6919061217a565b9050806111ea575043600290910155611370565b60006111fa836002015443611671565b905060006112216009546104bf866001015461077a6004548761193690919063ffffffff16565b60015460035491925073ffffffffffffffffffffffffffffffffffffffff908116916340c10f19911661125584600a611942565b6040518363ffffffff1660e01b81526004016112729291906122e5565b600060405180830381600087803b15801561128c57600080fd5b505af11580156112a0573d6000803e3d6000fd5b50506001546002546040517f40c10f1900000000000000000000000000000000000000000000000000000000815273ffffffffffffffffffffffffffffffffffffffff92831694506340c10f199350611301929091169085906004016122e5565b600060405180830381600087803b15801561131b57600080fd5b505af115801561132f573d6000803e3d6000fd5b5050505061135d611352846104bf64e8d4a510008561193690919063ffffffff16565b600386015490611a8e565b6003850155505043600290920191909155505b50565b6000600782815481106113af577f4e487b7100000000000000000000000000000000000000000000000000000000600052603260045260246000fd5b600091825260208083208584526008825260408085203380875293529093208054600490930290930180549094506114019273ffffffffffffffffffffffffffffffffffffffff9190911691906119e8565b8054604051849133917fbb757047c2b5f3974fe26b7c10f732e7bce710b0952a71082702781e62ae059591611435916126b9565b60405180910390a360008082556001909101555050565b611454611a9a565b600555565b60075460005b8181101561148057611470816110d3565b611479816127a1565b905061145f565b5050565b61148c611a9a565b801561149a5761149a611459565b6000600784815481106114d6577f4e487b7100000000000000000000000000000000000000000000000000000000600052603260045260246000fd5b90600052602060002090600402016001015490508260078581548110611525577f4e487b7100000000000000000000000000000000000000000000000000000000600052603260045260246000fd5b906000526020600020906004020160010181905550828114610983576115608361155a8360095461194e90919063ffffffff16565b90611a8e565b600955610983611b0d565b611573611a9a565b61157d6000611d85565b565b60065473ffffffffffffffffffffffffffffffffffffffff1681565b60025473ffffffffffffffffffffffffffffffffffffffff1681565b60055481565b60035473ffffffffffffffffffffffffffffffffffffffff16331461160e576040517f08c379a000000000000000000000000000000000000000000000000000000000815260040161047e90612480565b600380547fffffffffffffffffffffffff00000000000000000000000000000000000000001673ffffffffffffffffffffffffffffffffffffffff92909216919091179055565b60005473ffffffffffffffffffffffffffffffffffffffff1690565b6005546000906116859061077a848661194e565b9392505050565b60086020908152600092835260408084209091529082529020805460019091015482565b60035473ffffffffffffffffffffffffffffffffffffffff1681565b60015473ffffffffffffffffffffffffffffffffffffffff1681565b6116f26003611dfa565b81611729576040517f08c379a000000000000000000000000000000000000000000000000000000000815260040161047e90612449565b6117336003611dfa565b60006007838154811061176f577f4e487b7100000000000000000000000000000000000000000000000000000000600052603260045260246000fd5b600091825260208083208684526008825260408085203386529092529220600490910290910191506117a16003611dfa565b6117aa846110d3565b6117b46003611dfa565b805415611811576117c56005611dfa565b60006117f382600101546104c564e8d4a510006104bf8760030154876000015461193690919063ffffffff16565b9050801561180557611805338261195a565b61180f6005611dfa565b505b821561185d576118216006611dfa565b81546118459073ffffffffffffffffffffffffffffffffffffffff16333086611c61565b80546118519084611a8e565b815561185d6006611dfa565b6118676003611dfa565b600382015481546118829164e8d4a51000916104bf91611936565b60018201556118916003611dfa565b833373ffffffffffffffffffffffffffffffffffffffff167f90890809c654f11d6e72a28fa60149770a0d11ec6c92319d6ceb2bb0a4ea1a158560405161060691906126b9565b6118e0611a9a565b73ffffffffffffffffffffffffffffffffffffffff811661192d576040517f08c379a000000000000000000000000000000000000000000000000000000000815260040161047e9061238f565b61137081611d85565b60006116858284612721565b600061168582846126e8565b6000611685828461275e565b6002546040517fa2e6ddcc00000000000000000000000000000000000000000000000000000000815273ffffffffffffffffffffffffffffffffffffffff9091169063a2e6ddcc906119b290859085906004016122e5565b600060405180830381600087803b1580156119cc57600080fd5b505af11580156119e0573d6000803e3d6000fd5b505050505050565b611a898363a9059cbb60e01b8484604051602401611a079291906122e5565b604080517fffffffffffffffffffffffffffffffffffffffffffffffffffffffffffffffe08184030181529190526020810180517bffffffffffffffffffffffffffffffffffffffffffffffffffffffff167fffffffff0000000000000000000000000000000000000000000000000000000090931692909217909152611e89565b505050565b600061168582846126d0565b611aa2611f3f565b73ffffffffffffffffffffffffffffffffffffffff16611ac0611655565b73ffffffffffffffffffffffffffffffffffffffff161461157d576040517f08c379a000000000000000000000000000000000000000000000000000000000815260040161047e906124b7565b600754600060015b82811015611b8d57611b7b60078281548110611b5a577f4e487b7100000000000000000000000000000000000000000000000000000000600052603260045260246000fd5b90600052602060002090600402016001015483611a8e90919063ffffffff16565b9150611b86816127a1565b9050611b15565b50801561148057611b9f816003611942565b9050611c068161155a6007600081548110611be3577f4e487b7100000000000000000000000000000000000000000000000000000000600052603260045260246000fd5b90600052602060002090600402016001015460095461194e90919063ffffffff16565b600981905550806007600081548110611c48577f4e487b7100000000000000000000000000000000000000000000000000000000600052603260045260246000fd5b9060005260206000209060040201600101819055505050565b610983846323b872dd60e01b858585604051602401611a07939291906122b4565b801580611d3057506040517fdd62ed3e00000000000000000000000000000000000000000000000000000000815273ffffffffffffffffffffffffffffffffffffffff84169063dd62ed3e90611cde903090869060040161228d565b60206040518083038186803b158015611cf657600080fd5b505afa158015611d0a573d6000803e3d6000fd5b505050506040513d601f19601f82011682018060405250810190611d2e919061217a565b155b611d66576040517f08c379a000000000000000000000000000000000000000000000000000000000815260040161047e90612625565b611a898363095ea7b360e01b8484604051602401611a079291906122e5565b6000805473ffffffffffffffffffffffffffffffffffffffff8381167fffffffffffffffffffffffff0000000000000000000000000000000000000000831681178455604051919092169283917f8be0079c531659141344cd1fd0a4f28419497f9722a3daafe3b4186f6b6457e09190a35050565b61137081604051602401611e0e91906126b9565b604080517fffffffffffffffffffffffffffffffffffffffffffffffffffffffffffffffe08184030181529190526020810180517bffffffffffffffffffffffffffffffffffffffffffffffffffffffff167ff82c50f100000000000000000000000000000000000000000000000000000000179052611f43565b6000611eeb826040518060400160405280602081526020017f5361666545524332303a206c6f772d6c6576656c2063616c6c206661696c65648152508573ffffffffffffffffffffffffffffffffffffffff16611f649092919063ffffffff16565b805190915015611a895780806020019051810190611f09919061212a565b611a89576040517f08c379a000000000000000000000000000000000000000000000000000000000815260040161047e90612591565b3390565b80516a636f6e736f6c652e6c6f67602083016000808483855afa5050505050565b6060611f738484600085611f7b565b949350505050565b606082471015611fb7576040517f08c379a000000000000000000000000000000000000000000000000000000000815260040161047e906123ec565b6000808673ffffffffffffffffffffffffffffffffffffffff168587604051611fe09190612250565b60006040518083038185875af1925050503d806000811461201d576040519150601f19603f3d011682016040523d82523d6000602084013e612022565b606091505b50915091506107cc878383876060831561208257825161207b576120458561208c565b61207b576040517f08c379a000000000000000000000000000000000000000000000000000000000815260040161047e906124ec565b5081611f73565b611f7383836120ca565b6000808273ffffffffffffffffffffffffffffffffffffffff16803b806020016040519081016040528181526000908060200190933c511192915050565b8151156120da5781518083602001fd5b806040517f08c379a000000000000000000000000000000000000000000000000000000000815260040161047e919061233e565b60006020828403121561211f578081fd5b813561168581612809565b60006020828403121561213b578081fd5b81516116858161282b565b600060208284031215612157578081fd5b815161168581612809565b600060208284031215612173578081fd5b5035919050565b60006020828403121561218b578081fd5b5051919050565b600080604083850312156121a4578081fd5b8235915060208301356121b681612809565b809150509250929050565b6000806000606084860312156121d5578081fd5b8335925060208401356121e781612809565b915060408401356121f78161282b565b809150509250925092565b60008060408385031215612214578182fd5b50508035926020909101359150565b600080600060608486031215612237578283fd5b833592506020840135915060408401356121f78161282b565b60008251612262818460208701612775565b9190910192915050565b73ffffffffffffffffffffffffffffffffffffffff91909116815260200190565b73ffffffffffffffffffffffffffffffffffffffff92831681529116602082015260400190565b73ffffffffffffffffffffffffffffffffffffffff9384168152919092166020820152604081019190915260600190565b73ffffffffffffffffffffffffffffffffffffffff929092168252602082015260400190565b73ffffffffffffffffffffffffffffffffffffffff94909416845260208401929092526040830152606082015260800190565b600060208252825180602084015261235d816040850160208701612775565b601f017fffffffffffffffffffffffffffffffffffffffffffffffffffffffffffffffe0169190910160400192915050565b60208082526026908201527f4f776e61626c653a206e6577206f776e657220697320746865207a65726f206160408201527f6464726573730000000000000000000000000000000000000000000000000000606082015260800190565b60208082526026908201527f416464726573733a20696e73756666696369656e742062616c616e636520666f60408201527f722063616c6c0000000000000000000000000000000000000000000000000000606082015260800190565b60208082526017908201527f6465706f7369742043414b45206279207374616b696e67000000000000000000604082015260600190565b60208082526009908201527f6465763a207775743f0000000000000000000000000000000000000000000000604082015260600190565b6020808252818101527f4f776e61626c653a2063616c6c6572206973206e6f7420746865206f776e6572604082015260600190565b6020808252601d908201527f416464726573733a2063616c6c20746f206e6f6e2d636f6e7472616374000000604082015260600190565b60208082526012908201527f77697468647261773a206e6f7420676f6f640000000000000000000000000000604082015260600190565b6020808252601a908201527f77697468647261772043414b4520627920756e7374616b696e67000000000000604082015260600190565b6020808252602a908201527f5361666545524332303a204552433230206f7065726174696f6e20646964206e60408201527f6f74207375636365656400000000000000000000000000000000000000000000606082015260800190565b6020808252600c908201527f6d6967726174653a206261640000000000000000000000000000000000000000604082015260600190565b60208082526036908201527f5361666545524332303a20617070726f76652066726f6d206e6f6e2d7a65726f60408201527f20746f206e6f6e2d7a65726f20616c6c6f77616e636500000000000000000000606082015260800190565b60208082526014908201527f6d6967726174653a206e6f206d69677261746f72000000000000000000000000604082015260600190565b90815260200190565b918252602082015260400190565b600082198211156126e3576126e36127da565b500190565b60008261271c577f4e487b710000000000000000000000000000000000000000000000000000000081526012600452602481fd5b500490565b6000817fffffffffffffffffffffffffffffffffffffffffffffffffffffffffffffffff0483118215151615612759576127596127da565b500290565b600082821015612770576127706127da565b500390565b60005b83811015612790578181015183820152602001612778565b838111156109835750506000910152565b60007fffffffffffffffffffffffffffffffffffffffffffffffffffffffffffffffff8214156127d3576127d36127da565b5060010190565b7f4e487b7100000000000000000000000000000000000000000000000000000000600052601160045260246000fd5b73ffffffffffffffffffffffffffffffffffffffff8116811461137057600080fd5b801515811461137057600080fdfea26469706673582212208170fa8afae25efadfa7a4707be7800ca1226044b6286e8a76a55f85a4c9337e64736f6c63430008000033",
  "linkReferences": {},
  "deployedLinkReferences": {}
}