{
  "_format": "hh-sol-artifact-1",
  "contractName": "MasterChef",
  "sourceName": "contracts/pancekeswap-fork/masterchef.sol",
  "abi": [
    {
      "inputs": [
        {
          "internalType": "contract CakeToken",
          "name": "_cake",
          "type": "address"
        },
        {
          "internalType": "contract SyrupBar",
          "name": "_syrup",
          "type": "address"
        },
        {
          "internalType": "address",
          "name": "_devaddr",
          "type": "address"
        },
        {
          "internalType": "uint256",
          "name": "_cakePerBlock",
          "type": "uint256"
        },
        {
          "internalType": "uint256",
          "name": "_startBlock",
          "type": "uint256"
        }
      ],
      "stateMutability": "nonpayable",
      "type": "constructor"
    },
    {
      "anonymous": false,
      "inputs": [
        {
          "indexed": true,
          "internalType": "address",
          "name": "user",
          "type": "address"
        },
        {
          "indexed": true,
          "internalType": "uint256",
          "name": "pid",
          "type": "uint256"
        },
        {
          "indexed": false,
          "internalType": "uint256",
          "name": "amount",
          "type": "uint256"
        }
      ],
      "name": "Deposit",
      "type": "event"
    },
    {
      "anonymous": false,
      "inputs": [
        {
          "indexed": true,
          "internalType": "address",
          "name": "user",
          "type": "address"
        },
        {
          "indexed": true,
          "internalType": "uint256",
          "name": "pid",
          "type": "uint256"
        },
        {
          "indexed": false,
          "internalType": "uint256",
          "name": "amount",
          "type": "uint256"
        }
      ],
      "name": "EmergencyWithdraw",
      "type": "event"
    },
    {
      "anonymous": false,
      "inputs": [
        {
          "indexed": true,
          "internalType": "address",
          "name": "previousOwner",
          "type": "address"
        },
        {
          "indexed": true,
          "internalType": "address",
          "name": "newOwner",
          "type": "address"
        }
      ],
      "name": "OwnershipTransferred",
      "type": "event"
    },
    {
      "anonymous": false,
      "inputs": [
        {
          "indexed": true,
          "internalType": "address",
          "name": "user",
          "type": "address"
        },
        {
          "indexed": true,
          "internalType": "uint256",
          "name": "pid",
          "type": "uint256"
        },
        {
          "indexed": false,
          "internalType": "uint256",
          "name": "amount",
          "type": "uint256"
        }
      ],
      "name": "Withdraw",
      "type": "event"
    },
    {
      "inputs": [],
      "name": "BONUS_MULTIPLIER",
      "outputs": [
        {
          "internalType": "uint256",
          "name": "",
          "type": "uint256"
        }
      ],
      "stateMutability": "view",
      "type": "function"
    },
    {
      "inputs": [
        {
          "internalType": "uint256",
          "name": "_allocPoint",
          "type": "uint256"
        },
        {
          "internalType": "contract IERC20",
          "name": "_lpToken",
          "type": "address"
        },
        {
          "internalType": "bool",
          "name": "_withUpdate",
          "type": "bool"
        }
      ],
      "name": "add",
      "outputs": [],
      "stateMutability": "nonpayable",
      "type": "function"
    },
    {
      "inputs": [],
      "name": "cake",
      "outputs": [
        {
          "internalType": "contract CakeToken",
          "name": "",
          "type": "address"
        }
      ],
      "stateMutability": "view",
      "type": "function"
    },
    {
      "inputs": [],
      "name": "cakePerBlock",
      "outputs": [
        {
          "internalType": "uint256",
          "name": "",
          "type": "uint256"
        }
      ],
      "stateMutability": "view",
      "type": "function"
    },
    {
      "inputs": [
        {
          "internalType": "uint256",
          "name": "_pid",
          "type": "uint256"
        },
        {
          "internalType": "uint256",
          "name": "_amount",
          "type": "uint256"
        }
      ],
      "name": "deposit",
      "outputs": [],
      "stateMutability": "nonpayable",
      "type": "function"
    },
    {
      "inputs": [
        {
          "internalType": "address",
          "name": "_devaddr",
          "type": "address"
        }
      ],
      "name": "dev",
      "outputs": [],
      "stateMutability": "nonpayable",
      "type": "function"
    },
    {
      "inputs": [],
      "name": "devaddr",
      "outputs": [
        {
          "internalType": "address",
          "name": "",
          "type": "address"
        }
      ],
      "stateMutability": "view",
      "type": "function"
    },
    {
      "inputs": [
        {
          "internalType": "uint256",
          "name": "_pid",
          "type": "uint256"
        }
      ],
      "name": "emergencyWithdraw",
      "outputs": [],
      "stateMutability": "nonpayable",
      "type": "function"
    },
    {
      "inputs": [
        {
          "internalType": "uint256",
          "name": "_amount",
          "type": "uint256"
        }
      ],
      "name": "enterStaking",
      "outputs": [],
      "stateMutability": "nonpayable",
      "type": "function"
    },
    {
      "inputs": [
        {
          "internalType": "uint256",
          "name": "_from",
          "type": "uint256"
        },
        {
          "internalType": "uint256",
          "name": "_to",
          "type": "uint256"
        }
      ],
      "name": "getMultiplier",
      "outputs": [
        {
          "internalType": "uint256",
          "name": "",
          "type": "uint256"
        }
      ],
      "stateMutability": "view",
      "type": "function"
    },
    {
      "inputs": [
        {
          "internalType": "uint256",
          "name": "_amount",
          "type": "uint256"
        }
      ],
      "name": "leaveStaking",
      "outputs": [],
      "stateMutability": "nonpayable",
      "type": "function"
    },
    {
      "inputs": [],
      "name": "massUpdatePools",
      "outputs": [],
      "stateMutability": "nonpayable",
      "type": "function"
    },
    {
      "inputs": [
        {
          "internalType": "uint256",
          "name": "_pid",
          "type": "uint256"
        }
      ],
      "name": "migrate",
      "outputs": [],
      "stateMutability": "nonpayable",
      "type": "function"
    },
    {
      "inputs": [],
      "name": "migrator",
      "outputs": [
        {
          "internalType": "contract IMigratorChef",
          "name": "",
          "type": "address"
        }
      ],
      "stateMutability": "view",
      "type": "function"
    },
    {
      "inputs": [],
      "name": "owner",
      "outputs": [
        {
          "internalType": "address",
          "name": "",
          "type": "address"
        }
      ],
      "stateMutability": "view",
      "type": "function"
    },
    {
      "inputs": [
        {
          "internalType": "uint256",
          "name": "_pid",
          "type": "uint256"
        },
        {
          "internalType": "address",
          "name": "_user",
          "type": "address"
        }
      ],
      "name": "pendingCake",
      "outputs": [
        {
          "internalType": "uint256",
          "name": "",
          "type": "uint256"
        }
      ],
      "stateMutability": "view",
      "type": "function"
    },
    {
      "inputs": [
        {
          "internalType": "uint256",
          "name": "",
          "type": "uint256"
        }
      ],
      "name": "poolInfo",
      "outputs": [
        {
          "internalType": "contract IERC20",
          "name": "lpToken",
          "type": "address"
        },
        {
          "internalType": "uint256",
          "name": "allocPoint",
          "type": "uint256"
        },
        {
          "internalType": "uint256",
          "name": "lastRewardBlock",
          "type": "uint256"
        },
        {
          "internalType": "uint256",
          "name": "accCakePerShare",
          "type": "uint256"
        }
      ],
      "stateMutability": "view",
      "type": "function"
    },
    {
      "inputs": [],
      "name": "poolLength",
      "outputs": [
        {
          "internalType": "uint256",
          "name": "",
          "type": "uint256"
        }
      ],
      "stateMutability": "view",
      "type": "function"
    },
    {
      "inputs": [],
      "name": "renounceOwnership",
      "outputs": [],
      "stateMutability": "nonpayable",
      "type": "function"
    },
    {
      "inputs": [
        {
          "internalType": "uint256",
          "name": "_pid",
          "type": "uint256"
        },
        {
          "internalType": "uint256",
          "name": "_allocPoint",
          "type": "uint256"
        },
        {
          "internalType": "bool",
          "name": "_withUpdate",
          "type": "bool"
        }
      ],
      "name": "set",
      "outputs": [],
      "stateMutability": "nonpayable",
      "type": "function"
    },
    {
      "inputs": [
        {
          "internalType": "contract IMigratorChef",
          "name": "_migrator",
          "type": "address"
        }
      ],
      "name": "setMigrator",
      "outputs": [],
      "stateMutability": "nonpayable",
      "type": "function"
    },
    {
      "inputs": [],
      "name": "startBlock",
      "outputs": [
        {
          "internalType": "uint256",
          "name": "",
          "type": "uint256"
        }
      ],
      "stateMutability": "view",
      "type": "function"
    },
    {
      "inputs": [],
      "name": "syrup",
      "outputs": [
        {
          "internalType": "contract SyrupBar",
          "name": "",
          "type": "address"
        }
      ],
      "stateMutability": "view",
      "type": "function"
    },
    {
      "inputs": [],
      "name": "totalAllocPoint",
      "outputs": [
        {
          "internalType": "uint256",
          "name": "",
          "type": "uint256"
        }
      ],
      "stateMutability": "view",
      "type": "function"
    },
    {
      "inputs": [
        {
          "internalType": "address",
          "name": "newOwner",
          "type": "address"
        }
      ],
      "name": "transferOwnership",
      "outputs": [],
      "stateMutability": "nonpayable",
      "type": "function"
    },
    {
      "inputs": [
        {
          "internalType": "uint256",
          "name": "multiplierNumber",
          "type": "uint256"
        }
      ],
      "name": "updateMultiplier",
      "outputs": [],
      "stateMutability": "nonpayable",
      "type": "function"
    },
    {
      "inputs": [
        {
          "internalType": "uint256",
          "name": "_pid",
          "type": "uint256"
        }
      ],
      "name": "updatePool",
      "outputs": [],
      "stateMutability": "nonpayable",
      "type": "function"
    },
    {
      "inputs": [
        {
          "internalType": "uint256",
          "name": "",
          "type": "uint256"
        },
        {
          "internalType": "address",
          "name": "",
          "type": "address"
        }
      ],
      "name": "userInfo",
      "outputs": [
        {
          "internalType": "uint256",
          "name": "amount",
          "type": "uint256"
        },
        {
          "internalType": "uint256",
          "name": "rewardDebt",
          "type": "uint256"
        }
      ],
      "stateMutability": "view",
      "type": "function"
    },
    {
      "inputs": [
        {
          "internalType": "uint256",
          "name": "_pid",
          "type": "uint256"
        },
        {
          "internalType": "uint256",
          "name": "_amount",
          "type": "uint256"
        }
      ],
      "name": "withdraw",
      "outputs": [],
      "stateMutability": "nonpayable",
      "type": "function"
    }
  ],
  "bytecode": "0x6080604052600160055560006009553480156200001b57600080fd5b5060405162003bea38038062003bea83398181016040528101906200004191906200033c565b62000061620000556200021460201b60201c565b6200021c60201b60201c565b84600160006101000a81548173ffffffffffffffffffffffffffffffffffffffff021916908373ffffffffffffffffffffffffffffffffffffffff16021790555083600260006101000a81548173ffffffffffffffffffffffffffffffffffffffff021916908373ffffffffffffffffffffffffffffffffffffffff16021790555082600360006101000a81548173ffffffffffffffffffffffffffffffffffffffff021916908373ffffffffffffffffffffffffffffffffffffffff1602179055508160048190555080600a81905550600760405180608001604052808773ffffffffffffffffffffffffffffffffffffffff1681526020016103e88152602001600a5481526020016000815250908060018154018082558091505060019003906000526020600020906004020160009091909190915060008201518160000160006101000a81548173ffffffffffffffffffffffffffffffffffffffff021916908373ffffffffffffffffffffffffffffffffffffffff16021790555060208201518160010155604082015181600201556060820151816003015550506103e860098190555050505050506200048c565b600033905090565b60008060009054906101000a900473ffffffffffffffffffffffffffffffffffffffff169050816000806101000a81548173ffffffffffffffffffffffffffffffffffffffff021916908373ffffffffffffffffffffffffffffffffffffffff1602179055508173ffffffffffffffffffffffffffffffffffffffff168173ffffffffffffffffffffffffffffffffffffffff167f8be0079c531659141344cd1fd0a4f28419497f9722a3daafe3b4186f6b6457e060405160405180910390a35050565b600081519050620002f18162000424565b92915050565b60008151905062000308816200043e565b92915050565b6000815190506200031f8162000458565b92915050565b600081519050620003368162000472565b92915050565b600080600080600060a086880312156200035557600080fd5b60006200036588828901620002f7565b955050602062000378888289016200030e565b94505060406200038b88828901620002e0565b93505060606200039e8882890162000325565b9250506080620003b18882890162000325565b9150509295509295909350565b6000620003cb82620003fa565b9050919050565b6000620003df82620003be565b9050919050565b6000620003f382620003be565b9050919050565b600073ffffffffffffffffffffffffffffffffffffffff82169050919050565b6000819050919050565b6200042f81620003be565b81146200043b57600080fd5b50565b6200044981620003d2565b81146200045557600080fd5b50565b6200046381620003e6565b81146200046f57600080fd5b50565b6200047d816200041a565b81146200048957600080fd5b50565b61374e806200049c6000396000f3fe608060405234801561001057600080fd5b50600436106101cf5760003560e01c80635ffe6146116101045780638d88a90e116100a2578063d49e77cd11610071578063d49e77cd146104d0578063dce17484146104ee578063e2bbb1581461050c578063f2fde38b14610528576101cf565b80638d88a90e146104355780638da5cb5b146104515780638dbb1e3a1461046f57806393f1a40b1461049f576101cf565b8063715018a6116100de578063715018a6146103d15780637cd07e47146103db57806386a952c4146103f95780638aa2855014610417576101cf565b80635ffe61461461038f578063630b5ba1146103ab57806364482f79146103b5576101cf565b806323cf311811610171578063454b06081161014b578063454b06081461031d57806348cd4cb11461033957806351eb05a6146103575780635312ea8e14610373576101cf565b806323cf3118146102c957806341441d3b146102e5578063441a3e7014610301576101cf565b80631175a1dd116101ad5780631175a1dd1461022c5780631526fe271461025c57806317caf6f11461028f5780631eaaa045146102ad576101cf565b80630755e0b6146101d4578063081e3eda146101f25780631058d28114610210575b600080fd5b6101dc610544565b6040516101e99190613333565b60405180910390f35b6101fa61054a565b6040516102079190613333565b60405180910390f35b61022a60048036038101906102259190612a61565b610557565b005b61024660048036038101906102419190612ab3565b610840565b6040516102539190613333565b60405180910390f35b61027660048036038101906102719190612a61565b610a9a565b6040516102869493929190613116565b60405180910390f35b610297610afa565b6040516102a49190613333565b60405180910390f35b6102c760048036038101906102c29190612aef565b610b00565b005b6102e360048036038101906102de9190612a38565b610c21565b005b6102ff60048036038101906102fa9190612a61565b610c6d565b005b61031b60048036038101906103169190612b3e565b610f1f565b005b61033760048036038101906103329190612a61565b6111bb565b005b610341611561565b60405161034e9190613333565b60405180910390f35b610371600480360381019061036c9190612a61565b611567565b005b61038d60048036038101906103889190612a61565b6118b1565b005b6103a960048036038101906103a49190612a61565b611a10565b005b6103b3611a22565b005b6103cf60048036038101906103ca9190612b7a565b611a55565b005b6103d9611b4f565b005b6103e3611b63565b6040516103f0919061315b565b60405180910390f35b610401611b89565b60405161040e9190613176565b60405180910390f35b61041f611baf565b60405161042c9190613333565b60405180910390f35b61044f600480360381019061044a91906129bd565b611bb5565b005b610459611c89565b604051610466919061303c565b60405180910390f35b61048960048036038101906104849190612b3e565b611cb2565b6040516104969190613333565b60405180910390f35b6104b960048036038101906104b49190612ab3565b611ce3565b6040516104c792919061334e565b60405180910390f35b6104d8611d14565b6040516104e5919061303c565b60405180910390f35b6104f6611d3a565b60405161050391906130e0565b60405180910390f35b61052660048036038101906105219190612b3e565b611d60565b005b610542600480360381019061053d91906129bd565b611fc5565b005b60045481565b6000600780549050905090565b60006007600081548110610594577f4e487b7100000000000000000000000000000000000000000000000000000000600052603260045260246000fd5b9060005260206000209060040201905060006008600080815260200190815260200160002060003373ffffffffffffffffffffffffffffffffffffffff1673ffffffffffffffffffffffffffffffffffffffff1681526020019081526020016000209050828160000154101561063f576040517f08c379a000000000000000000000000000000000000000000000000000000000815260040161063690613273565b60405180910390fd5b6106496000611567565b6000610693826001015461068564e8d4a510006106778760030154876000015461204990919063ffffffff16565b61205f90919063ffffffff16565b61207590919063ffffffff16565b905060008111156106a9576106a8338261208b565b5b6000841115610721576106c984836000015461207590919063ffffffff16565b826000018190555061072033858560000160009054906101000a900473ffffffffffffffffffffffffffffffffffffffff1673ffffffffffffffffffffffffffffffffffffffff1661211e9092919063ffffffff16565b5b61075364e8d4a510006107458560030154856000015461204990919063ffffffff16565b61205f90919063ffffffff16565b8260010181905550600260009054906101000a900473ffffffffffffffffffffffffffffffffffffffff1673ffffffffffffffffffffffffffffffffffffffff16639dc29fac33866040518363ffffffff1660e01b81526004016107b89291906130b7565b600060405180830381600087803b1580156107d257600080fd5b505af11580156107e6573d6000803e3d6000fd5b5050505060003373ffffffffffffffffffffffffffffffffffffffff167ff279e6a1f5e320cca91135676d9cb6e44ca8a08c0b88342bcdb1144f6511b568866040516108329190613333565b60405180910390a350505050565b6000806007848154811061087d577f4e487b7100000000000000000000000000000000000000000000000000000000600052603260045260246000fd5b9060005260206000209060040201905060006008600086815260200190815260200160002060008573ffffffffffffffffffffffffffffffffffffffff1673ffffffffffffffffffffffffffffffffffffffff168152602001908152602001600020905060008260030154905060008360000160009054906101000a900473ffffffffffffffffffffffffffffffffffffffff1673ffffffffffffffffffffffffffffffffffffffff166370a08231306040518263ffffffff1660e01b8152600401610949919061303c565b60206040518083038186803b15801561096157600080fd5b505afa158015610975573d6000803e3d6000fd5b505050506040513d601f19601f820116820180604052508101906109999190612a8a565b90508360020154431180156109af575060008114155b15610a4a5760006109c4856002015443611cb2565b90506000610a076009546109f988600101546109eb6004548761204990919063ffffffff16565b61204990919063ffffffff16565b61205f90919063ffffffff16565b9050610a45610a3684610a2864e8d4a510008561204990919063ffffffff16565b61205f90919063ffffffff16565b856121a490919063ffffffff16565b935050505b610a8e8360010154610a8064e8d4a51000610a7286886000015461204990919063ffffffff16565b61205f90919063ffffffff16565b61207590919063ffffffff16565b94505050505092915050565b60078181548110610aaa57600080fd5b90600052602060002090600402016000915090508060000160009054906101000a900473ffffffffffffffffffffffffffffffffffffffff16908060010154908060020154908060030154905084565b60095481565b610b086121ba565b8015610b1757610b16611a22565b5b6000600a544311610b2a57600a54610b2c565b435b9050610b43846009546121a490919063ffffffff16565b600981905550600760405180608001604052808573ffffffffffffffffffffffffffffffffffffffff1681526020018681526020018381526020016000815250908060018154018082558091505060019003906000526020600020906004020160009091909190915060008201518160000160006101000a81548173ffffffffffffffffffffffffffffffffffffffff021916908373ffffffffffffffffffffffffffffffffffffffff1602179055506020820151816001015560408201518160020155606082015181600301555050610c1b612238565b50505050565b610c296121ba565b80600660006101000a81548173ffffffffffffffffffffffffffffffffffffffff021916908373ffffffffffffffffffffffffffffffffffffffff16021790555050565b60006007600081548110610caa577f4e487b7100000000000000000000000000000000000000000000000000000000600052603260045260246000fd5b9060005260206000209060040201905060006008600080815260200190815260200160002060003373ffffffffffffffffffffffffffffffffffffffff1673ffffffffffffffffffffffffffffffffffffffff1681526020019081526020016000209050610d186000611567565b600081600001541115610d87576000610d6f8260010154610d6164e8d4a51000610d538760030154876000015461204990919063ffffffff16565b61205f90919063ffffffff16565b61207590919063ffffffff16565b90506000811115610d8557610d84338261208b565b5b505b6000831115610e0157610de13330858560000160009054906101000a900473ffffffffffffffffffffffffffffffffffffffff1673ffffffffffffffffffffffffffffffffffffffff166123b1909392919063ffffffff16565b610df88382600001546121a490919063ffffffff16565b81600001819055505b610e3364e8d4a51000610e258460030154846000015461204990919063ffffffff16565b61205f90919063ffffffff16565b8160010181905550600260009054906101000a900473ffffffffffffffffffffffffffffffffffffffff1673ffffffffffffffffffffffffffffffffffffffff166340c10f1933856040518363ffffffff1660e01b8152600401610e989291906130b7565b600060405180830381600087803b158015610eb257600080fd5b505af1158015610ec6573d6000803e3d6000fd5b5050505060003373ffffffffffffffffffffffffffffffffffffffff167f90890809c654f11d6e72a28fa60149770a0d11ec6c92319d6ceb2bb0a4ea1a1585604051610f129190613333565b60405180910390a3505050565b6000821415610f63576040517f08c379a0000000000000000000000000000000000000000000000000000000008152600401610f5a90613293565b60405180910390fd5b600060078381548110610f9f577f4e487b7100000000000000000000000000000000000000000000000000000000600052603260045260246000fd5b9060005260206000209060040201905060006008600085815260200190815260200160002060003373ffffffffffffffffffffffffffffffffffffffff1673ffffffffffffffffffffffffffffffffffffffff1681526020019081526020016000209050828160000154101561104a576040517f08c379a000000000000000000000000000000000000000000000000000000000815260040161104190613273565b60405180910390fd5b61105384611567565b600061109d826001015461108f64e8d4a510006110818760030154876000015461204990919063ffffffff16565b61205f90919063ffffffff16565b61207590919063ffffffff16565b905060008111156110b3576110b2338261208b565b5b600084111561112b576110d384836000015461207590919063ffffffff16565b826000018190555061112a33858560000160009054906101000a900473ffffffffffffffffffffffffffffffffffffffff1673ffffffffffffffffffffffffffffffffffffffff1661211e9092919063ffffffff16565b5b61115d64e8d4a5100061114f8560030154856000015461204990919063ffffffff16565b61205f90919063ffffffff16565b8260010181905550843373ffffffffffffffffffffffffffffffffffffffff167ff279e6a1f5e320cca91135676d9cb6e44ca8a08c0b88342bcdb1144f6511b568866040516111ac9190613333565b60405180910390a35050505050565b600073ffffffffffffffffffffffffffffffffffffffff16600660009054906101000a900473ffffffffffffffffffffffffffffffffffffffff1673ffffffffffffffffffffffffffffffffffffffff16141561124d576040517f08c379a000000000000000000000000000000000000000000000000000000000815260040161124490613313565b60405180910390fd5b600060078281548110611289577f4e487b7100000000000000000000000000000000000000000000000000000000600052603260045260246000fd5b9060005260206000209060040201905060008160000160009054906101000a900473ffffffffffffffffffffffffffffffffffffffff16905060008173ffffffffffffffffffffffffffffffffffffffff166370a08231306040518263ffffffff1660e01b81526004016112fd919061303c565b60206040518083038186803b15801561131557600080fd5b505afa158015611329573d6000803e3d6000fd5b505050506040513d601f19601f8201168201806040525081019061134d9190612a8a565b905061139c600660009054906101000a900473ffffffffffffffffffffffffffffffffffffffff16828473ffffffffffffffffffffffffffffffffffffffff1661243a9092919063ffffffff16565b6000600660009054906101000a900473ffffffffffffffffffffffffffffffffffffffff1673ffffffffffffffffffffffffffffffffffffffff1663ce5494bb846040518263ffffffff1660e01b81526004016113f991906130fb565b602060405180830381600087803b15801561141357600080fd5b505af1158015611427573d6000803e3d6000fd5b505050506040513d601f19601f8201168201806040525081019061144b9190612a0f565b90508073ffffffffffffffffffffffffffffffffffffffff166370a08231306040518263ffffffff1660e01b8152600401611486919061303c565b60206040518083038186803b15801561149e57600080fd5b505afa1580156114b2573d6000803e3d6000fd5b505050506040513d601f19601f820116820180604052508101906114d69190612a8a565b8214611517576040517f08c379a000000000000000000000000000000000000000000000000000000000815260040161150e906132d3565b60405180910390fd5b808460000160006101000a81548173ffffffffffffffffffffffffffffffffffffffff021916908373ffffffffffffffffffffffffffffffffffffffff1602179055505050505050565b600a5481565b6000600782815481106115a3577f4e487b7100000000000000000000000000000000000000000000000000000000600052603260045260246000fd5b90600052602060002090600402019050806002015443116115c457506118ae565b60008160000160009054906101000a900473ffffffffffffffffffffffffffffffffffffffff1673ffffffffffffffffffffffffffffffffffffffff166370a08231306040518263ffffffff1660e01b8152600401611623919061303c565b60206040518083038186803b15801561163b57600080fd5b505afa15801561164f573d6000803e3d6000fd5b505050506040513d601f19601f820116820180604052508101906116739190612a8a565b9050600081141561168e5743826002018190555050506118ae565b600061169e836002015443611cb2565b905060006116e16009546116d386600101546116c56004548761204990919063ffffffff16565b61204990919063ffffffff16565b61205f90919063ffffffff16565b9050600160009054906101000a900473ffffffffffffffffffffffffffffffffffffffff1673ffffffffffffffffffffffffffffffffffffffff166340c10f19600360009054906101000a900473ffffffffffffffffffffffffffffffffffffffff16611758600a8561205f90919063ffffffff16565b6040518363ffffffff1660e01b81526004016117759291906130b7565b600060405180830381600087803b15801561178f57600080fd5b505af11580156117a3573d6000803e3d6000fd5b50505050600160009054906101000a900473ffffffffffffffffffffffffffffffffffffffff1673ffffffffffffffffffffffffffffffffffffffff166340c10f19600260009054906101000a900473ffffffffffffffffffffffffffffffffffffffff16836040518363ffffffff1660e01b81526004016118269291906130b7565b600060405180830381600087803b15801561184057600080fd5b505af1158015611854573d6000803e3d6000fd5b505050506118986118858461187764e8d4a510008561204990919063ffffffff16565b61205f90919063ffffffff16565b85600301546121a490919063ffffffff16565b8460030181905550438460020181905550505050505b50565b6000600782815481106118ed577f4e487b7100000000000000000000000000000000000000000000000000000000600052603260045260246000fd5b9060005260206000209060040201905060006008600084815260200190815260200160002060003373ffffffffffffffffffffffffffffffffffffffff1673ffffffffffffffffffffffffffffffffffffffff16815260200190815260200160002090506119a43382600001548460000160009054906101000a900473ffffffffffffffffffffffffffffffffffffffff1673ffffffffffffffffffffffffffffffffffffffff1661211e9092919063ffffffff16565b823373ffffffffffffffffffffffffffffffffffffffff167fbb757047c2b5f3974fe26b7c10f732e7bce710b0952a71082702781e62ae059583600001546040516119ef9190613333565b60405180910390a36000816000018190555060008160010181905550505050565b611a186121ba565b8060058190555050565b6000600780549050905060005b81811015611a5157611a4081611567565b80611a4a906135ed565b9050611a2f565b5050565b611a5d6121ba565b8015611a6c57611a6b611a22565b5b600060078481548110611aa8577f4e487b7100000000000000000000000000000000000000000000000000000000600052603260045260246000fd5b90600052602060002090600402016001015490508260078581548110611af7577f4e487b7100000000000000000000000000000000000000000000000000000000600052603260045260246000fd5b906000526020600020906004020160010181905550828114611b4957611b3a83611b2c8360095461207590919063ffffffff16565b6121a490919063ffffffff16565b600981905550611b48612238565b5b50505050565b611b576121ba565b611b616000612598565b565b600660009054906101000a900473ffffffffffffffffffffffffffffffffffffffff1681565b600260009054906101000a900473ffffffffffffffffffffffffffffffffffffffff1681565b60055481565b600360009054906101000a900473ffffffffffffffffffffffffffffffffffffffff1673ffffffffffffffffffffffffffffffffffffffff163373ffffffffffffffffffffffffffffffffffffffff1614611c45576040517f08c379a0000000000000000000000000000000000000000000000000000000008152600401611c3c90613213565b60405180910390fd5b80600360006101000a81548173ffffffffffffffffffffffffffffffffffffffff021916908373ffffffffffffffffffffffffffffffffffffffff16021790555050565b60008060009054906101000a900473ffffffffffffffffffffffffffffffffffffffff16905090565b6000611cdb600554611ccd858561207590919063ffffffff16565b61204990919063ffffffff16565b905092915050565b6008602052816000526040600020602052806000526040600020600091509150508060000154908060010154905082565b600360009054906101000a900473ffffffffffffffffffffffffffffffffffffffff1681565b600160009054906101000a900473ffffffffffffffffffffffffffffffffffffffff1681565b6000821415611da4576040517f08c379a0000000000000000000000000000000000000000000000000000000008152600401611d9b906131f3565b60405180910390fd5b600060078381548110611de0577f4e487b7100000000000000000000000000000000000000000000000000000000600052603260045260246000fd5b9060005260206000209060040201905060006008600085815260200190815260200160002060003373ffffffffffffffffffffffffffffffffffffffff1673ffffffffffffffffffffffffffffffffffffffff1681526020019081526020016000209050611e4d84611567565b600081600001541115611ebc576000611ea48260010154611e9664e8d4a51000611e888760030154876000015461204990919063ffffffff16565b61205f90919063ffffffff16565b61207590919063ffffffff16565b90506000811115611eba57611eb9338261208b565b5b505b6000831115611f3657611f163330858560000160009054906101000a900473ffffffffffffffffffffffffffffffffffffffff1673ffffffffffffffffffffffffffffffffffffffff166123b1909392919063ffffffff16565b611f2d8382600001546121a490919063ffffffff16565b81600001819055505b611f6864e8d4a51000611f5a8460030154846000015461204990919063ffffffff16565b61205f90919063ffffffff16565b8160010181905550833373ffffffffffffffffffffffffffffffffffffffff167f90890809c654f11d6e72a28fa60149770a0d11ec6c92319d6ceb2bb0a4ea1a1585604051611fb79190613333565b60405180910390a350505050565b611fcd6121ba565b600073ffffffffffffffffffffffffffffffffffffffff168173ffffffffffffffffffffffffffffffffffffffff16141561203d576040517f08c379a0000000000000000000000000000000000000000000000000000000008152600401612034906131b3565b60405180910390fd5b61204681612598565b50565b600081836120579190613430565b905092915050565b6000818361206d91906133ff565b905092915050565b60008183612083919061348a565b905092915050565b600260009054906101000a900473ffffffffffffffffffffffffffffffffffffffff1673ffffffffffffffffffffffffffffffffffffffff1663a2e6ddcc83836040518363ffffffff1660e01b81526004016120e89291906130b7565b600060405180830381600087803b15801561210257600080fd5b505af1158015612116573d6000803e3d6000fd5b505050505050565b61219f8363a9059cbb60e01b848460405160240161213d9291906130b7565b604051602081830303815290604052907bffffffffffffffffffffffffffffffffffffffffffffffffffffffff19166020820180517bffffffffffffffffffffffffffffffffffffffffffffffffffffffff838183161783525050505061265c565b505050565b600081836121b291906133a9565b905092915050565b6121c2612723565b73ffffffffffffffffffffffffffffffffffffffff166121e0611c89565b73ffffffffffffffffffffffffffffffffffffffff1614612236576040517f08c379a000000000000000000000000000000000000000000000000000000000815260040161222d90613233565b60405180910390fd5b565b60006007805490509050600080600190505b828110156122c3576122b06007828154811061228f577f4e487b7100000000000000000000000000000000000000000000000000000000600052603260045260246000fd5b906000526020600020906004020160010154836121a490919063ffffffff16565b9150806122bc906135ed565b905061224a565b50600081146123ad576122e060038261205f90919063ffffffff16565b9050612355816123476007600081548110612324577f4e487b7100000000000000000000000000000000000000000000000000000000600052603260045260246000fd5b90600052602060002090600402016001015460095461207590919063ffffffff16565b6121a490919063ffffffff16565b600981905550806007600081548110612397577f4e487b7100000000000000000000000000000000000000000000000000000000600052603260045260246000fd5b9060005260206000209060040201600101819055505b5050565b612434846323b872dd60e01b8585856040516024016123d293929190613080565b604051602081830303815290604052907bffffffffffffffffffffffffffffffffffffffffffffffffffffffff19166020820180517bffffffffffffffffffffffffffffffffffffffffffffffffffffffff838183161783525050505061265c565b50505050565b60008114806124d3575060008373ffffffffffffffffffffffffffffffffffffffff1663dd62ed3e30856040518363ffffffff1660e01b8152600401612481929190613057565b60206040518083038186803b15801561249957600080fd5b505afa1580156124ad573d6000803e3d6000fd5b505050506040513d601f19601f820116820180604052508101906124d19190612a8a565b145b612512576040517f08c379a0000000000000000000000000000000000000000000000000000000008152600401612509906132f3565b60405180910390fd5b6125938363095ea7b360e01b84846040516024016125319291906130b7565b604051602081830303815290604052907bffffffffffffffffffffffffffffffffffffffffffffffffffffffff19166020820180517bffffffffffffffffffffffffffffffffffffffffffffffffffffffff838183161783525050505061265c565b505050565b60008060009054906101000a900473ffffffffffffffffffffffffffffffffffffffff169050816000806101000a81548173ffffffffffffffffffffffffffffffffffffffff021916908373ffffffffffffffffffffffffffffffffffffffff1602179055508173ffffffffffffffffffffffffffffffffffffffff168173ffffffffffffffffffffffffffffffffffffffff167f8be0079c531659141344cd1fd0a4f28419497f9722a3daafe3b4186f6b6457e060405160405180910390a35050565b60006126be826040518060400160405280602081526020017f5361666545524332303a206c6f772d6c6576656c2063616c6c206661696c65648152508573ffffffffffffffffffffffffffffffffffffffff1661272b9092919063ffffffff16565b905060008151111561271e57808060200190518101906126de91906129e6565b61271d576040517f08c379a0000000000000000000000000000000000000000000000000000000008152600401612714906132b3565b60405180910390fd5b5b505050565b600033905090565b606061273a8484600085612743565b90509392505050565b606082471015612788576040517f08c379a000000000000000000000000000000000000000000000000000000000815260040161277f906131d3565b60405180910390fd5b6000808673ffffffffffffffffffffffffffffffffffffffff1685876040516127b19190613025565b60006040518083038185875af1925050503d80600081146127ee576040519150601f19603f3d011682016040523d82523d6000602084013e6127f3565b606091505b509150915061280487838387612810565b92505050949350505050565b606083156128735760008351141561286b5761282b85612886565b61286a576040517f08c379a000000000000000000000000000000000000000000000000000000000815260040161286190613253565b60405180910390fd5b5b82905061287e565b61287d83836128c5565b5b949350505050565b6000808273ffffffffffffffffffffffffffffffffffffffff16803b806020016040519081016040528181526000908060200190933c51119050919050565b6000825111156128d85781518083602001fd5b806040517f08c379a000000000000000000000000000000000000000000000000000000000815260040161290c9190613191565b60405180910390fd5b600081359050612924816136a5565b92915050565b600081359050612939816136bc565b92915050565b60008151905061294e816136bc565b92915050565b600081359050612963816136d3565b92915050565b600081519050612978816136d3565b92915050565b60008135905061298d816136ea565b92915050565b6000813590506129a281613701565b92915050565b6000815190506129b781613701565b92915050565b6000602082840312156129cf57600080fd5b60006129dd84828501612915565b91505092915050565b6000602082840312156129f857600080fd5b6000612a068482850161293f565b91505092915050565b600060208284031215612a2157600080fd5b6000612a2f84828501612969565b91505092915050565b600060208284031215612a4a57600080fd5b6000612a588482850161297e565b91505092915050565b600060208284031215612a7357600080fd5b6000612a8184828501612993565b91505092915050565b600060208284031215612a9c57600080fd5b6000612aaa848285016129a8565b91505092915050565b60008060408385031215612ac657600080fd5b6000612ad485828601612993565b9250506020612ae585828601612915565b9150509250929050565b600080600060608486031215612b0457600080fd5b6000612b1286828701612993565b9350506020612b2386828701612954565b9250506040612b348682870161292a565b9150509250925092565b60008060408385031215612b5157600080fd5b6000612b5f85828601612993565b9250506020612b7085828601612993565b9150509250929050565b600080600060608486031215612b8f57600080fd5b6000612b9d86828701612993565b9350506020612bae86828701612993565b9250506040612bbf8682870161292a565b9150509250925092565b612bd2816134be565b82525050565b6000612be382613377565b612bed818561338d565b9350612bfd8185602086016135ba565b80840191505092915050565b612c128161352a565b82525050565b612c218161354e565b82525050565b612c3081613572565b82525050565b612c3f81613596565b82525050565b6000612c5082613382565b612c5a8185613398565b9350612c6a8185602086016135ba565b612c7381613694565b840191505092915050565b6000612c8b602683613398565b91507f4f776e61626c653a206e6577206f776e657220697320746865207a65726f206160008301527f64647265737300000000000000000000000000000000000000000000000000006020830152604082019050919050565b6000612cf1602683613398565b91507f416464726573733a20696e73756666696369656e742062616c616e636520666f60008301527f722063616c6c00000000000000000000000000000000000000000000000000006020830152604082019050919050565b6000612d57601783613398565b91507f6465706f7369742043414b45206279207374616b696e670000000000000000006000830152602082019050919050565b6000612d97600983613398565b91507f6465763a207775743f00000000000000000000000000000000000000000000006000830152602082019050919050565b6000612dd7602083613398565b91507f4f776e61626c653a2063616c6c6572206973206e6f7420746865206f776e65726000830152602082019050919050565b6000612e17601d83613398565b91507f416464726573733a2063616c6c20746f206e6f6e2d636f6e74726163740000006000830152602082019050919050565b6000612e57601283613398565b91507f77697468647261773a206e6f7420676f6f6400000000000000000000000000006000830152602082019050919050565b6000612e97601a83613398565b91507f77697468647261772043414b4520627920756e7374616b696e670000000000006000830152602082019050919050565b6000612ed7602a83613398565b91507f5361666545524332303a204552433230206f7065726174696f6e20646964206e60008301527f6f742073756363656564000000000000000000000000000000000000000000006020830152604082019050919050565b6000612f3d600c83613398565b91507f6d6967726174653a2062616400000000000000000000000000000000000000006000830152602082019050919050565b6000612f7d603683613398565b91507f5361666545524332303a20617070726f76652066726f6d206e6f6e2d7a65726f60008301527f20746f206e6f6e2d7a65726f20616c6c6f77616e6365000000000000000000006020830152604082019050919050565b6000612fe3601483613398565b91507f6d6967726174653a206e6f206d69677261746f720000000000000000000000006000830152602082019050919050565b61301f81613520565b82525050565b60006130318284612bd8565b915081905092915050565b60006020820190506130516000830184612bc9565b92915050565b600060408201905061306c6000830185612bc9565b6130796020830184612bc9565b9392505050565b60006060820190506130956000830186612bc9565b6130a26020830185612bc9565b6130af6040830184613016565b949350505050565b60006040820190506130cc6000830185612bc9565b6130d96020830184613016565b9392505050565b60006020820190506130f56000830184612c09565b92915050565b60006020820190506131106000830184612c18565b92915050565b600060808201905061312b6000830187612c18565b6131386020830186613016565b6131456040830185613016565b6131526060830184613016565b95945050505050565b60006020820190506131706000830184612c27565b92915050565b600060208201905061318b6000830184612c36565b92915050565b600060208201905081810360008301526131ab8184612c45565b905092915050565b600060208201905081810360008301526131cc81612c7e565b9050919050565b600060208201905081810360008301526131ec81612ce4565b9050919050565b6000602082019050818103600083015261320c81612d4a565b9050919050565b6000602082019050818103600083015261322c81612d8a565b9050919050565b6000602082019050818103600083015261324c81612dca565b9050919050565b6000602082019050818103600083015261326c81612e0a565b9050919050565b6000602082019050818103600083015261328c81612e4a565b9050919050565b600060208201905081810360008301526132ac81612e8a565b9050919050565b600060208201905081810360008301526132cc81612eca565b9050919050565b600060208201905081810360008301526132ec81612f30565b9050919050565b6000602082019050818103600083015261330c81612f70565b9050919050565b6000602082019050818103600083015261332c81612fd6565b9050919050565b60006020820190506133486000830184613016565b92915050565b60006040820190506133636000830185613016565b6133706020830184613016565b9392505050565b600081519050919050565b600081519050919050565b600081905092915050565b600082825260208201905092915050565b60006133b482613520565b91506133bf83613520565b9250827fffffffffffffffffffffffffffffffffffffffffffffffffffffffffffffffff038211156133f4576133f3613636565b5b828201905092915050565b600061340a82613520565b915061341583613520565b92508261342557613424613665565b5b828204905092915050565b600061343b82613520565b915061344683613520565b9250817fffffffffffffffffffffffffffffffffffffffffffffffffffffffffffffffff048311821515161561347f5761347e613636565b5b828202905092915050565b600061349582613520565b91506134a083613520565b9250828210156134b3576134b2613636565b5b828203905092915050565b60006134c982613500565b9050919050565b60008115159050919050565b60006134e7826134be565b9050919050565b60006134f9826134be565b9050919050565b600073ffffffffffffffffffffffffffffffffffffffff82169050919050565b6000819050919050565b60006135358261353c565b9050919050565b600061354782613500565b9050919050565b600061355982613560565b9050919050565b600061356b82613500565b9050919050565b600061357d82613584565b9050919050565b600061358f82613500565b9050919050565b60006135a1826135a8565b9050919050565b60006135b382613500565b9050919050565b60005b838110156135d85780820151818401526020810190506135bd565b838111156135e7576000848401525b50505050565b60006135f882613520565b91507fffffffffffffffffffffffffffffffffffffffffffffffffffffffffffffffff82141561362b5761362a613636565b5b600182019050919050565b7f4e487b7100000000000000000000000000000000000000000000000000000000600052601160045260246000fd5b7f4e487b7100000000000000000000000000000000000000000000000000000000600052601260045260246000fd5b6000601f19601f8301169050919050565b6136ae816134be565b81146136b957600080fd5b50565b6136c5816134d0565b81146136d057600080fd5b50565b6136dc816134dc565b81146136e757600080fd5b50565b6136f3816134ee565b81146136fe57600080fd5b50565b61370a81613520565b811461371557600080fd5b5056fea26469706673582212207649e3c1e2b00fff33359d26fe0b4fd1f00e27fe116a3652cde7a13581c2a61464736f6c63430008000033",
  "linkReferences": {},
  "deployedLinkReferences": {}
}