{
  "_format": "hh-sol-artifact-1",
  "contractName": "TickLens",
  "sourceName": "contracts/periphery/lens/TickLens.sol",
  "abi": [
    {
      "inputs": [
        {
          "internalType": "address",
          "name": "pool",
          "type": "address"
        },
        {
          "internalType": "int16",
          "name": "tickBitmapIndex",
          "type": "int16"
        }
      ],
      "name": "getPopulatedTicksInWord",
      "outputs": [
        {
          "components": [
            {
              "internalType": "int24",
              "name": "tick",
              "type": "int24"
            },
            {
              "internalType": "int128",
              "name": "liquidityNet",
              "type": "int128"
            },
            {
              "internalType": "uint128",
              "name": "liquidityGross",
              "type": "uint128"
            }
          ],
          "internalType": "struct ITickLens.PopulatedTick[]",
          "name": "populatedTicks",
          "type": "tuple[]"
        }
      ],
      "stateMutability": "view",
      "type": "function"
    }
  ],
  "bytecode": "0x608060405234801561001057600080fd5b5061059c806100206000396000f3fe608060405234801561001057600080fd5b506004361061002b5760003560e01c8063351fb47814610030575b600080fd5b61004361003e366004610386565b610059565b60405161005091906104b4565b60405180910390f35b606060008373ffffffffffffffffffffffffffffffffffffffff16635339c296846040518263ffffffff1660e01b81526004016100969190610525565b60206040518083038186803b1580156100ae57600080fd5b505afa1580156100c2573d6000803e3d6000fd5b505050506040513d601f19601f820116820180604052508101906100e6919061049c565b90506000805b610100811015610110576001811b831615610108576001909101905b6001016100ec565b5060008573ffffffffffffffffffffffffffffffffffffffff1663d0c93a7c6040518163ffffffff1660e01b815260040160206040518083038186803b15801561015957600080fd5b505afa15801561016d573d6000803e3d6000fd5b505050506040513d601f19601f8201168201806040525081019061019191906103c4565b90508167ffffffffffffffff811180156101aa57600080fd5b506040519080825280602002602001820160405280156101e457816020015b6101d1610332565b8152602001906001900390816101c95790505b50935060005b6101008162ffffff16101561032857600162ffffff82161b841615610320576040517ff30dba93000000000000000000000000000000000000000000000000000000008152600187900b60020b60081b8201830290600090819073ffffffffffffffffffffffffffffffffffffffff8b169063f30dba9390610270908690600401610533565b6101006040518083038186803b15801561028957600080fd5b505afa15801561029d573d6000803e3d6000fd5b505050506040513d601f19601f820116820180604052508101906102c191906103ec565b5050505050509150915060405180606001604052808460020b815260200182600f0b8152602001836fffffffffffffffffffffffffffffffff168152508887600190039750878151811061031157fe5b60200260200101819052505050505b6001016101ea565b5050505092915050565b604080516060810182526000808252602082018190529181019190915290565b8051801515811461036257600080fd5b919050565b805161036281610541565b805163ffffffff8116811461036257600080fd5b60008060408385031215610398578182fd5b82356103a381610541565b91506020830135600181900b81146103b9578182fd5b809150509250929050565b6000602082840312156103d5578081fd5b81518060020b81146103e5578182fd5b9392505050565b600080600080600080600080610100898b031215610408578384fd5b88516fffffffffffffffffffffffffffffffff81168114610427578485fd5b80985050602089015180600f0b811461043e578485fd5b80975050604089015195506060890151945060808901518060060b8114610463578485fd5b935061047160a08a01610367565b925061047f60c08a01610372565b915061048d60e08a01610352565b90509295985092959890939650565b6000602082840312156104ad578081fd5b5051919050565b602080825282518282018190526000919060409081850190868401855b82811015610518578151805160020b855286810151600f0b878601528501516fffffffffffffffffffffffffffffffff1685850152606090930192908501906001016104d1565b5091979650505050505050565b60019190910b815260200190565b60029190910b815260200190565b73ffffffffffffffffffffffffffffffffffffffff8116811461056357600080fd5b5056fea2646970667358221220797c1b9d28c6c6a73bd04f0c3d6bce26d7341d51f1c5f83237579268cef4b68664736f6c63430007060033",
  "linkReferences": {},
  "deployedLinkReferences": {}
}