{
  "_format": "hh-sol-artifact-1",
  "contractName": "CakeToken",
  "sourceName": "contracts/pancekeswap-fork/utils/CakeToken.sol",
  "abi": [
    {
      "anonymous": false,
      "inputs": [
        {
          "indexed": true,
          "internalType": "address",
          "name": "owner",
          "type": "address"
        },
        {
          "indexed": true,
          "internalType": "address",
          "name": "spender",
          "type": "address"
        },
        {
          "indexed": false,
          "internalType": "uint256",
          "name": "value",
          "type": "uint256"
        }
      ],
      "name": "Approval",
      "type": "event"
    },
    {
      "anonymous": false,
      "inputs": [
        {
          "indexed": true,
          "internalType": "address",
          "name": "delegator",
          "type": "address"
        },
        {
          "indexed": true,
          "internalType": "address",
          "name": "fromDelegate",
          "type": "address"
        },
        {
          "indexed": true,
          "internalType": "address",
          "name": "toDelegate",
          "type": "address"
        }
      ],
      "name": "DelegateChanged",
      "type": "event"
    },
    {
      "anonymous": false,
      "inputs": [
        {
          "indexed": true,
          "internalType": "address",
          "name": "delegate",
          "type": "address"
        },
        {
          "indexed": false,
          "internalType": "uint256",
          "name": "previousBalance",
          "type": "uint256"
        },
        {
          "indexed": false,
          "internalType": "uint256",
          "name": "newBalance",
          "type": "uint256"
        }
      ],
      "name": "DelegateVotesChanged",
      "type": "event"
    },
    {
      "anonymous": false,
      "inputs": [
        {
          "indexed": true,
          "internalType": "address",
          "name": "previousOwner",
          "type": "address"
        },
        {
          "indexed": true,
          "internalType": "address",
          "name": "newOwner",
          "type": "address"
        }
      ],
      "name": "OwnershipTransferred",
      "type": "event"
    },
    {
      "anonymous": false,
      "inputs": [
        {
          "indexed": true,
          "internalType": "address",
          "name": "from",
          "type": "address"
        },
        {
          "indexed": true,
          "internalType": "address",
          "name": "to",
          "type": "address"
        },
        {
          "indexed": false,
          "internalType": "uint256",
          "name": "value",
          "type": "uint256"
        }
      ],
      "name": "Transfer",
      "type": "event"
    },
    {
      "inputs": [],
      "name": "DELEGATION_TYPEHASH",
      "outputs": [
        {
          "internalType": "bytes32",
          "name": "",
          "type": "bytes32"
        }
      ],
      "stateMutability": "view",
      "type": "function"
    },
    {
      "inputs": [],
      "name": "DOMAIN_TYPEHASH",
      "outputs": [
        {
          "internalType": "bytes32",
          "name": "",
          "type": "bytes32"
        }
      ],
      "stateMutability": "view",
      "type": "function"
    },
    {
      "inputs": [
        {
          "internalType": "address",
          "name": "owner",
          "type": "address"
        },
        {
          "internalType": "address",
          "name": "spender",
          "type": "address"
        }
      ],
      "name": "allowance",
      "outputs": [
        {
          "internalType": "uint256",
          "name": "",
          "type": "uint256"
        }
      ],
      "stateMutability": "view",
      "type": "function"
    },
    {
      "inputs": [
        {
          "internalType": "address",
          "name": "spender",
          "type": "address"
        },
        {
          "internalType": "uint256",
          "name": "amount",
          "type": "uint256"
        }
      ],
      "name": "approve",
      "outputs": [
        {
          "internalType": "bool",
          "name": "",
          "type": "bool"
        }
      ],
      "stateMutability": "nonpayable",
      "type": "function"
    },
    {
      "inputs": [
        {
          "internalType": "address",
          "name": "account",
          "type": "address"
        }
      ],
      "name": "balanceOf",
      "outputs": [
        {
          "internalType": "uint256",
          "name": "",
          "type": "uint256"
        }
      ],
      "stateMutability": "view",
      "type": "function"
    },
    {
      "inputs": [
        {
          "internalType": "address",
          "name": "",
          "type": "address"
        },
        {
          "internalType": "uint32",
          "name": "",
          "type": "uint32"
        }
      ],
      "name": "checkpoints",
      "outputs": [
        {
          "internalType": "uint32",
          "name": "fromBlock",
          "type": "uint32"
        },
        {
          "internalType": "uint256",
          "name": "votes",
          "type": "uint256"
        }
      ],
      "stateMutability": "view",
      "type": "function"
    },
    {
      "inputs": [],
      "name": "decimals",
      "outputs": [
        {
          "internalType": "uint8",
          "name": "",
          "type": "uint8"
        }
      ],
      "stateMutability": "view",
      "type": "function"
    },
    {
      "inputs": [
        {
          "internalType": "address",
          "name": "spender",
          "type": "address"
        },
        {
          "internalType": "uint256",
          "name": "subtractedValue",
          "type": "uint256"
        }
      ],
      "name": "decreaseAllowance",
      "outputs": [
        {
          "internalType": "bool",
          "name": "",
          "type": "bool"
        }
      ],
      "stateMutability": "nonpayable",
      "type": "function"
    },
    {
      "inputs": [
        {
          "internalType": "address",
          "name": "delegatee",
          "type": "address"
        }
      ],
      "name": "delegate",
      "outputs": [],
      "stateMutability": "nonpayable",
      "type": "function"
    },
    {
      "inputs": [
        {
          "internalType": "address",
          "name": "delegatee",
          "type": "address"
        },
        {
          "internalType": "uint256",
          "name": "nonce",
          "type": "uint256"
        },
        {
          "internalType": "uint256",
          "name": "expiry",
          "type": "uint256"
        },
        {
          "internalType": "uint8",
          "name": "v",
          "type": "uint8"
        },
        {
          "internalType": "bytes32",
          "name": "r",
          "type": "bytes32"
        },
        {
          "internalType": "bytes32",
          "name": "s",
          "type": "bytes32"
        }
      ],
      "name": "delegateBySig",
      "outputs": [],
      "stateMutability": "nonpayable",
      "type": "function"
    },
    {
      "inputs": [
        {
          "internalType": "address",
          "name": "delegator",
          "type": "address"
        }
      ],
      "name": "delegates",
      "outputs": [
        {
          "internalType": "address",
          "name": "",
          "type": "address"
        }
      ],
      "stateMutability": "view",
      "type": "function"
    },
    {
      "inputs": [
        {
          "internalType": "address",
          "name": "account",
          "type": "address"
        }
      ],
      "name": "getCurrentVotes",
      "outputs": [
        {
          "internalType": "uint256",
          "name": "",
          "type": "uint256"
        }
      ],
      "stateMutability": "view",
      "type": "function"
    },
    {
      "inputs": [
        {
          "internalType": "address",
          "name": "account",
          "type": "address"
        },
        {
          "internalType": "uint256",
          "name": "blockNumber",
          "type": "uint256"
        }
      ],
      "name": "getPriorVotes",
      "outputs": [
        {
          "internalType": "uint256",
          "name": "",
          "type": "uint256"
        }
      ],
      "stateMutability": "view",
      "type": "function"
    },
    {
      "inputs": [
        {
          "internalType": "uint256",
          "name": "amount",
          "type": "uint256"
        }
      ],
      "name": "getTokens",
      "outputs": [],
      "stateMutability": "nonpayable",
      "type": "function"
    },
    {
      "inputs": [
        {
          "internalType": "address",
          "name": "spender",
          "type": "address"
        },
        {
          "internalType": "uint256",
          "name": "addedValue",
          "type": "uint256"
        }
      ],
      "name": "increaseAllowance",
      "outputs": [
        {
          "internalType": "bool",
          "name": "",
          "type": "bool"
        }
      ],
      "stateMutability": "nonpayable",
      "type": "function"
    },
    {
      "inputs": [
        {
          "internalType": "address",
          "name": "_to",
          "type": "address"
        },
        {
          "internalType": "uint256",
          "name": "_amount",
          "type": "uint256"
        }
      ],
      "name": "mint",
      "outputs": [],
      "stateMutability": "nonpayable",
      "type": "function"
    },
    {
      "inputs": [],
      "name": "name",
      "outputs": [
        {
          "internalType": "string",
          "name": "",
          "type": "string"
        }
      ],
      "stateMutability": "view",
      "type": "function"
    },
    {
      "inputs": [
        {
          "internalType": "address",
          "name": "",
          "type": "address"
        }
      ],
      "name": "nonces",
      "outputs": [
        {
          "internalType": "uint256",
          "name": "",
          "type": "uint256"
        }
      ],
      "stateMutability": "view",
      "type": "function"
    },
    {
      "inputs": [
        {
          "internalType": "address",
          "name": "",
          "type": "address"
        }
      ],
      "name": "numCheckpoints",
      "outputs": [
        {
          "internalType": "uint32",
          "name": "",
          "type": "uint32"
        }
      ],
      "stateMutability": "view",
      "type": "function"
    },
    {
      "inputs": [],
      "name": "owner",
      "outputs": [
        {
          "internalType": "address",
          "name": "",
          "type": "address"
        }
      ],
      "stateMutability": "view",
      "type": "function"
    },
    {
      "inputs": [],
      "name": "renounceOwnership",
      "outputs": [],
      "stateMutability": "nonpayable",
      "type": "function"
    },
    {
      "inputs": [],
      "name": "symbol",
      "outputs": [
        {
          "internalType": "string",
          "name": "",
          "type": "string"
        }
      ],
      "stateMutability": "view",
      "type": "function"
    },
    {
      "inputs": [],
      "name": "totalSupply",
      "outputs": [
        {
          "internalType": "uint256",
          "name": "",
          "type": "uint256"
        }
      ],
      "stateMutability": "view",
      "type": "function"
    },
    {
      "inputs": [
        {
          "internalType": "address",
          "name": "to",
          "type": "address"
        },
        {
          "internalType": "uint256",
          "name": "amount",
          "type": "uint256"
        }
      ],
      "name": "transfer",
      "outputs": [
        {
          "internalType": "bool",
          "name": "",
          "type": "bool"
        }
      ],
      "stateMutability": "nonpayable",
      "type": "function"
    },
    {
      "inputs": [
        {
          "internalType": "address",
          "name": "from",
          "type": "address"
        },
        {
          "internalType": "address",
          "name": "to",
          "type": "address"
        },
        {
          "internalType": "uint256",
          "name": "amount",
          "type": "uint256"
        }
      ],
      "name": "transferFrom",
      "outputs": [
        {
          "internalType": "bool",
          "name": "",
          "type": "bool"
        }
      ],
      "stateMutability": "nonpayable",
      "type": "function"
    },
    {
      "inputs": [
        {
          "internalType": "address",
          "name": "newOwner",
          "type": "address"
        }
      ],
      "name": "transferOwnership",
      "outputs": [],
      "stateMutability": "nonpayable",
      "type": "function"
    }
  ],
  "bytecode": "0x60806040523480156200001157600080fd5b506040518060400160405280601181526020017f50616e63616b655377617020546f6b656e0000000000000000000000000000008152506040518060400160405280600481526020017f43616b6500000000000000000000000000000000000000000000000000000000815250816003908051906020019062000096929190620001a6565b508060049080519060200190620000af929190620001a6565b505050620000d2620000c6620000d860201b60201c565b620000e060201b60201c565b620002bb565b600033905090565b6000600560009054906101000a900473ffffffffffffffffffffffffffffffffffffffff16905081600560006101000a81548173ffffffffffffffffffffffffffffffffffffffff021916908373ffffffffffffffffffffffffffffffffffffffff1602179055508173ffffffffffffffffffffffffffffffffffffffff168173ffffffffffffffffffffffffffffffffffffffff167f8be0079c531659141344cd1fd0a4f28419497f9722a3daafe3b4186f6b6457e060405160405180910390a35050565b828054620001b49062000256565b90600052602060002090601f016020900481019282620001d8576000855562000224565b82601f10620001f357805160ff191683800117855562000224565b8280016001018555821562000224579182015b828111156200022357825182559160200191906001019062000206565b5b50905062000233919062000237565b5090565b5b808211156200025257600081600090555060010162000238565b5090565b600060028204905060018216806200026f57607f821691505b602082108114156200028657620002856200028c565b5b50919050565b7f4e487b7100000000000000000000000000000000000000000000000000000000600052602260045260246000fd5b61313d80620002cb6000396000f3fe608060405234801561001057600080fd5b50600436106101ae5760003560e01c8063782d6fe1116100ee578063b4b5ea5711610097578063dd62ed3e11610071578063dd62ed3e146104f1578063e7a324dc14610521578063f1127ed81461053f578063f2fde38b14610570576101ae565b8063b4b5ea5714610489578063c3cda520146104b9578063d3c9cc26146104d5576101ae565b806395d89b41116100c857806395d89b411461040b578063a457c2d714610429578063a9059cbb14610459576101ae565b8063782d6fe11461038d5780637ecebe00146103bd5780638da5cb5b146103ed576101ae565b8063395093511161015b5780635c19a95c116101355780635c19a95c146103075780636fcfff451461032357806370a0823114610353578063715018a614610383576101ae565b8063395093511461028b57806340c10f19146102bb578063587cde1e146102d7576101ae565b806320606b701161018c57806320606b701461021f57806323b872dd1461023d578063313ce5671461026d576101ae565b806306fdde03146101b3578063095ea7b3146101d157806318160ddd14610201575b600080fd5b6101bb61058c565b6040516101c89190612ac6565b60405180910390f35b6101eb60048036038101906101e69190612239565b61061e565b6040516101f891906129c1565b60405180910390f35b610209610641565b6040516102169190612ca8565b60405180910390f35b61022761064b565b60405161023491906129dc565b60405180910390f35b610257600480360381019061025291906121ea565b61066f565b60405161026491906129c1565b60405180910390f35b61027561069e565b6040516102829190612d30565b60405180910390f35b6102a560048036038101906102a09190612239565b6106a7565b6040516102b291906129c1565b60405180910390f35b6102d560048036038101906102d09190612239565b6106de565b005b6102f160048036038101906102ec9190612185565b610757565b6040516102fe91906129a6565b60405180910390f35b610321600480360381019061031c9190612185565b6107c0565b005b61033d60048036038101906103389190612185565b6107cd565b60405161034a9190612cec565b60405180910390f35b61036d60048036038101906103689190612185565b6107f0565b60405161037a9190612ca8565b60405180910390f35b61038b610838565b005b6103a760048036038101906103a29190612239565b61084c565b6040516103b49190612ca8565b60405180910390f35b6103d760048036038101906103d29190612185565b610c23565b6040516103e49190612ca8565b60405180910390f35b6103f5610c3b565b60405161040291906129a6565b60405180910390f35b610413610c65565b6040516104209190612ac6565b60405180910390f35b610443600480360381019061043e9190612239565b610cf7565b60405161045091906129c1565b60405180910390f35b610473600480360381019061046e9190612239565b610d6e565b60405161048091906129c1565b60405180910390f35b6104a3600480360381019061049e9190612185565b610d91565b6040516104b09190612ca8565b60405180910390f35b6104d360048036038101906104ce9190612275565b610e70565b005b6104ef60048036038101906104ea919061233a565b611105565b005b61050b600480360381019061050691906121ae565b611112565b6040516105189190612ca8565b60405180910390f35b610529611199565b60405161053691906129dc565b60405180910390f35b610559600480360381019061055491906122fe565b6111bd565b604051610567929190612d07565b60405180910390f35b61058a60048036038101906105859190612185565b6111fe565b005b60606003805461059b90612f3d565b80601f01602080910402602001604051908101604052809291908181526020018280546105c790612f3d565b80156106145780601f106105e957610100808354040283529160200191610614565b820191906000526020600020905b8154815290600101906020018083116105f757829003601f168201915b5050505050905090565b600080610629611282565b905061063681858561128a565b600191505092915050565b6000600254905090565b7f8cad95687ba82c2ce50e74f7b754645e5117c3a5bec8151c0726d5857980a86681565b60008061067a611282565b9050610687858285611455565b6106928585856114e1565b60019150509392505050565b60006012905090565b6000806106b2611282565b90506106d38185856106c48589611112565b6106ce9190612d72565b61128a565b600191505092915050565b6106e88282611759565b6107536000600660008573ffffffffffffffffffffffffffffffffffffffff1673ffffffffffffffffffffffffffffffffffffffff16815260200190815260200160002060009054906101000a900473ffffffffffffffffffffffffffffffffffffffff16836118b0565b5050565b6000600660008373ffffffffffffffffffffffffffffffffffffffff1673ffffffffffffffffffffffffffffffffffffffff16815260200190815260200160002060009054906101000a900473ffffffffffffffffffffffffffffffffffffffff169050919050565b6107ca3382611b51565b50565b60086020528060005260406000206000915054906101000a900463ffffffff1681565b60008060008373ffffffffffffffffffffffffffffffffffffffff1673ffffffffffffffffffffffffffffffffffffffff168152602001908152602001600020549050919050565b610840611cc2565b61084a6000611d40565b565b6000438210610890576040517f08c379a000000000000000000000000000000000000000000000000000000000815260040161088790612be8565b60405180910390fd5b6000600860008573ffffffffffffffffffffffffffffffffffffffff1673ffffffffffffffffffffffffffffffffffffffff16815260200190815260200160002060009054906101000a900463ffffffff16905060008163ffffffff1614156108fd576000915050610c1d565b82600760008673ffffffffffffffffffffffffffffffffffffffff1673ffffffffffffffffffffffffffffffffffffffff168152602001908152602001600020600060018461094c9190612e67565b63ffffffff1663ffffffff16815260200190815260200160002060000160009054906101000a900463ffffffff1663ffffffff16116109f957600760008573ffffffffffffffffffffffffffffffffffffffff1673ffffffffffffffffffffffffffffffffffffffff16815260200190815260200160002060006001836109d39190612e67565b63ffffffff1663ffffffff16815260200190815260200160002060010154915050610c1d565b82600760008673ffffffffffffffffffffffffffffffffffffffff1673ffffffffffffffffffffffffffffffffffffffff16815260200190815260200160002060008063ffffffff16815260200190815260200160002060000160009054906101000a900463ffffffff1663ffffffff161115610a7a576000915050610c1d565b600080600183610a8a9190612e67565b90505b8163ffffffff168163ffffffff161115610bb757600060028383610ab19190612e67565b610abb9190612e02565b82610ac69190612e67565b90506000600760008973ffffffffffffffffffffffffffffffffffffffff1673ffffffffffffffffffffffffffffffffffffffff16815260200190815260200160002060008363ffffffff1663ffffffff1681526020019081526020016000206040518060400160405290816000820160009054906101000a900463ffffffff1663ffffffff1663ffffffff168152602001600182015481525050905086816000015163ffffffff161415610b8657806020015195505050505050610c1d565b86816000015163ffffffff161015610ba057819350610bb0565b600182610bad9190612e67565b92505b5050610a8d565b600760008773ffffffffffffffffffffffffffffffffffffffff1673ffffffffffffffffffffffffffffffffffffffff16815260200190815260200160002060008363ffffffff1663ffffffff1681526020019081526020016000206001015493505050505b92915050565b60096020528060005260406000206000915090505481565b6000600560009054906101000a900473ffffffffffffffffffffffffffffffffffffffff16905090565b606060048054610c7490612f3d565b80601f0160208091040260200160405190810160405280929190818152602001828054610ca090612f3d565b8015610ced5780601f10610cc257610100808354040283529160200191610ced565b820191906000526020600020905b815481529060010190602001808311610cd057829003601f168201915b5050505050905090565b600080610d02611282565b90506000610d108286611112565b905083811015610d55576040517f08c379a0000000000000000000000000000000000000000000000000000000008152600401610d4c90612c68565b60405180910390fd5b610d62828686840361128a565b60019250505092915050565b600080610d79611282565b9050610d868185856114e1565b600191505092915050565b600080600860008473ffffffffffffffffffffffffffffffffffffffff1673ffffffffffffffffffffffffffffffffffffffff16815260200190815260200160002060009054906101000a900463ffffffff16905060008163ffffffff1611610dfb576000610e68565b600760008473ffffffffffffffffffffffffffffffffffffffff1673ffffffffffffffffffffffffffffffffffffffff1681526020019081526020016000206000600183610e499190612e67565b63ffffffff1663ffffffff168152602001908152602001600020600101545b915050919050565b60007f8cad95687ba82c2ce50e74f7b754645e5117c3a5bec8151c0726d5857980a866610e9b61058c565b80519060200120610eaa611e06565b30604051602001610ebe9493929190612a3c565b60405160208183030381529060405280519060200120905060007fe48329057bfd03d55e49b547132e39cffd9c1820ad7b9d4c5307691425d15adf888888604051602001610f0f94939291906129f7565b60405160208183030381529060405280519060200120905060008282604051602001610f3c92919061296f565b604051602081830303815290604052805190602001209050600060018288888860405160008152602001604052604051610f799493929190612a81565b6020604051602081039080840390855afa158015610f9b573d6000803e3d6000fd5b505050602060405103519050600073ffffffffffffffffffffffffffffffffffffffff168173ffffffffffffffffffffffffffffffffffffffff161415611017576040517f08c379a000000000000000000000000000000000000000000000000000000000815260040161100e90612ba8565b60405180910390fd5b600960008273ffffffffffffffffffffffffffffffffffffffff1673ffffffffffffffffffffffffffffffffffffffff168152602001908152602001600020600081548092919061106790612f6f565b9190505589146110ac576040517f08c379a00000000000000000000000000000000000000000000000000000000081526004016110a390612c08565b60405180910390fd5b874211156110ef576040517f08c379a00000000000000000000000000000000000000000000000000000000081526004016110e690612b48565b60405180910390fd5b6110f9818b611b51565b50505050505050505050565b61110f3382611759565b50565b6000600160008473ffffffffffffffffffffffffffffffffffffffff1673ffffffffffffffffffffffffffffffffffffffff16815260200190815260200160002060008373ffffffffffffffffffffffffffffffffffffffff1673ffffffffffffffffffffffffffffffffffffffff16815260200190815260200160002054905092915050565b7fe48329057bfd03d55e49b547132e39cffd9c1820ad7b9d4c5307691425d15adf81565b6007602052816000526040600020602052806000526040600020600091509150508060000160009054906101000a900463ffffffff16908060010154905082565b611206611cc2565b600073ffffffffffffffffffffffffffffffffffffffff168173ffffffffffffffffffffffffffffffffffffffff161415611276576040517f08c379a000000000000000000000000000000000000000000000000000000000815260040161126d90612b08565b60405180910390fd5b61127f81611d40565b50565b600033905090565b600073ffffffffffffffffffffffffffffffffffffffff168373ffffffffffffffffffffffffffffffffffffffff1614156112fa576040517f08c379a00000000000000000000000000000000000000000000000000000000081526004016112f190612c48565b60405180910390fd5b600073ffffffffffffffffffffffffffffffffffffffff168273ffffffffffffffffffffffffffffffffffffffff16141561136a576040517f08c379a000000000000000000000000000000000000000000000000000000000815260040161136190612b28565b60405180910390fd5b80600160008573ffffffffffffffffffffffffffffffffffffffff1673ffffffffffffffffffffffffffffffffffffffff16815260200190815260200160002060008473ffffffffffffffffffffffffffffffffffffffff1673ffffffffffffffffffffffffffffffffffffffff168152602001908152602001600020819055508173ffffffffffffffffffffffffffffffffffffffff168373ffffffffffffffffffffffffffffffffffffffff167f8c5be1e5ebec7d5bd14f71427d1e84f3dd0314c0f7b2291e5b200ac8c7c3b925836040516114489190612ca8565b60405180910390a3505050565b60006114618484611112565b90507fffffffffffffffffffffffffffffffffffffffffffffffffffffffffffffffff81146114db57818110156114cd576040517f08c379a00000000000000000000000000000000000000000000000000000000081526004016114c490612b68565b60405180910390fd5b6114da848484840361128a565b5b50505050565b600073ffffffffffffffffffffffffffffffffffffffff168373ffffffffffffffffffffffffffffffffffffffff161415611551576040517f08c379a000000000000000000000000000000000000000000000000000000000815260040161154890612c28565b60405180910390fd5b600073ffffffffffffffffffffffffffffffffffffffff168273ffffffffffffffffffffffffffffffffffffffff1614156115c1576040517f08c379a00000000000000000000000000000000000000000000000000000000081526004016115b890612ae8565b60405180910390fd5b6115cc838383611e13565b60008060008573ffffffffffffffffffffffffffffffffffffffff1673ffffffffffffffffffffffffffffffffffffffff16815260200190815260200160002054905081811015611652576040517f08c379a000000000000000000000000000000000000000000000000000000000815260040161164990612b88565b60405180910390fd5b8181036000808673ffffffffffffffffffffffffffffffffffffffff1673ffffffffffffffffffffffffffffffffffffffff16815260200190815260200160002081905550816000808573ffffffffffffffffffffffffffffffffffffffff1673ffffffffffffffffffffffffffffffffffffffff168152602001908152602001600020600082825401925050819055508273ffffffffffffffffffffffffffffffffffffffff168473ffffffffffffffffffffffffffffffffffffffff167fddf252ad1be2c89b69c2b068fc378daa952ba7f163c4a11628f55a4df523b3ef846040516117409190612ca8565b60405180910390a3611753848484611e18565b50505050565b600073ffffffffffffffffffffffffffffffffffffffff168273ffffffffffffffffffffffffffffffffffffffff1614156117c9576040517f08c379a00000000000000000000000000000000000000000000000000000000081526004016117c090612c88565b60405180910390fd5b6117d560008383611e13565b80600260008282546117e79190612d72565b92505081905550806000808473ffffffffffffffffffffffffffffffffffffffff1673ffffffffffffffffffffffffffffffffffffffff168152602001908152602001600020600082825401925050819055508173ffffffffffffffffffffffffffffffffffffffff16600073ffffffffffffffffffffffffffffffffffffffff167fddf252ad1be2c89b69c2b068fc378daa952ba7f163c4a11628f55a4df523b3ef836040516118989190612ca8565b60405180910390a36118ac60008383611e18565b5050565b8173ffffffffffffffffffffffffffffffffffffffff168373ffffffffffffffffffffffffffffffffffffffff16141580156118ec5750600081115b15611b4c57600073ffffffffffffffffffffffffffffffffffffffff168373ffffffffffffffffffffffffffffffffffffffff1614611a1e576000600860008573ffffffffffffffffffffffffffffffffffffffff1673ffffffffffffffffffffffffffffffffffffffff16815260200190815260200160002060009054906101000a900463ffffffff1690506000808263ffffffff161161198f5760006119fc565b600760008673ffffffffffffffffffffffffffffffffffffffff1673ffffffffffffffffffffffffffffffffffffffff16815260200190815260200160002060006001846119dd9190612e67565b63ffffffff1663ffffffff168152602001908152602001600020600101545b905060008382611a0c9190612e33565b9050611a1a86848484611e1d565b5050505b600073ffffffffffffffffffffffffffffffffffffffff168273ffffffffffffffffffffffffffffffffffffffff1614611b4b576000600860008473ffffffffffffffffffffffffffffffffffffffff1673ffffffffffffffffffffffffffffffffffffffff16815260200190815260200160002060009054906101000a900463ffffffff1690506000808263ffffffff1611611abc576000611b29565b600760008573ffffffffffffffffffffffffffffffffffffffff1673ffffffffffffffffffffffffffffffffffffffff1681526020019081526020016000206000600184611b0a9190612e67565b63ffffffff1663ffffffff168152602001908152602001600020600101545b905060008382611b399190612d72565b9050611b4785848484611e1d565b5050505b5b505050565b6000600660008473ffffffffffffffffffffffffffffffffffffffff1673ffffffffffffffffffffffffffffffffffffffff16815260200190815260200160002060009054906101000a900473ffffffffffffffffffffffffffffffffffffffff1690506000611bc0846107f0565b905082600660008673ffffffffffffffffffffffffffffffffffffffff1673ffffffffffffffffffffffffffffffffffffffff16815260200190815260200160002060006101000a81548173ffffffffffffffffffffffffffffffffffffffff021916908373ffffffffffffffffffffffffffffffffffffffff1602179055508273ffffffffffffffffffffffffffffffffffffffff168273ffffffffffffffffffffffffffffffffffffffff168573ffffffffffffffffffffffffffffffffffffffff167f3134e8a2e6d97e929a7e54011ea5485d7d196dd5f0ba4d4ef95803e8e3fc257f60405160405180910390a4611cbc8284836118b0565b50505050565b611cca611282565b73ffffffffffffffffffffffffffffffffffffffff16611ce8610c3b565b73ffffffffffffffffffffffffffffffffffffffff1614611d3e576040517f08c379a0000000000000000000000000000000000000000000000000000000008152600401611d3590612bc8565b60405180910390fd5b565b6000600560009054906101000a900473ffffffffffffffffffffffffffffffffffffffff16905081600560006101000a81548173ffffffffffffffffffffffffffffffffffffffff021916908373ffffffffffffffffffffffffffffffffffffffff1602179055508173ffffffffffffffffffffffffffffffffffffffff168173ffffffffffffffffffffffffffffffffffffffff167f8be0079c531659141344cd1fd0a4f28419497f9722a3daafe3b4186f6b6457e060405160405180910390a35050565b6000804690508091505090565b505050565b505050565b6000611e41436040518060600160405280603481526020016130d4603491396120c6565b905060008463ffffffff16118015611edf57508063ffffffff16600760008773ffffffffffffffffffffffffffffffffffffffff1673ffffffffffffffffffffffffffffffffffffffff1681526020019081526020016000206000600187611ea99190612e67565b63ffffffff1663ffffffff16815260200190815260200160002060000160009054906101000a900463ffffffff1663ffffffff16145b15611f595781600760008773ffffffffffffffffffffffffffffffffffffffff1673ffffffffffffffffffffffffffffffffffffffff1681526020019081526020016000206000600187611f339190612e67565b63ffffffff1663ffffffff1681526020019081526020016000206001018190555061206f565b60405180604001604052808263ffffffff16815260200183815250600760008773ffffffffffffffffffffffffffffffffffffffff1673ffffffffffffffffffffffffffffffffffffffff16815260200190815260200160002060008663ffffffff1663ffffffff16815260200190815260200160002060008201518160000160006101000a81548163ffffffff021916908363ffffffff160217905550602082015181600101559050506001846120119190612dc8565b600860008773ffffffffffffffffffffffffffffffffffffffff1673ffffffffffffffffffffffffffffffffffffffff16815260200190815260200160002060006101000a81548163ffffffff021916908363ffffffff1602179055505b8473ffffffffffffffffffffffffffffffffffffffff167fdec2bacdd2f05b59de34da9b523dff8be42e5e38e818c82fdb0bae774387a72484846040516120b7929190612cc3565b60405180910390a25050505050565b600064010000000083108290612112576040517f08c379a00000000000000000000000000000000000000000000000000000000081526004016121099190612ac6565b60405180910390fd5b5082905092915050565b60008135905061212b81613060565b92915050565b60008135905061214081613077565b92915050565b6000813590506121558161308e565b92915050565b60008135905061216a816130a5565b92915050565b60008135905061217f816130bc565b92915050565b60006020828403121561219757600080fd5b60006121a58482850161211c565b91505092915050565b600080604083850312156121c157600080fd5b60006121cf8582860161211c565b92505060206121e08582860161211c565b9150509250929050565b6000806000606084860312156121ff57600080fd5b600061220d8682870161211c565b935050602061221e8682870161211c565b925050604061222f86828701612146565b9150509250925092565b6000806040838503121561224c57600080fd5b600061225a8582860161211c565b925050602061226b85828601612146565b9150509250929050565b60008060008060008060c0878903121561228e57600080fd5b600061229c89828a0161211c565b96505060206122ad89828a01612146565b95505060406122be89828a01612146565b94505060606122cf89828a01612170565b93505060806122e089828a01612131565b92505060a06122f189828a01612131565b9150509295509295509295565b6000806040838503121561231157600080fd5b600061231f8582860161211c565b92505060206123308582860161215b565b9150509250929050565b60006020828403121561234c57600080fd5b600061235a84828501612146565b91505092915050565b61236c81612e9b565b82525050565b61237b81612ead565b82525050565b61238a81612eb9565b82525050565b6123a161239c82612eb9565b612fb8565b82525050565b60006123b282612d4b565b6123bc8185612d56565b93506123cc818560208601612f0a565b6123d58161304f565b840191505092915050565b60006123ed602383612d56565b91507f45524332303a207472616e7366657220746f20746865207a65726f206164647260008301527f65737300000000000000000000000000000000000000000000000000000000006020830152604082019050919050565b6000612453602683612d56565b91507f4f776e61626c653a206e6577206f776e657220697320746865207a65726f206160008301527f64647265737300000000000000000000000000000000000000000000000000006020830152604082019050919050565b60006124b9602283612d56565b91507f45524332303a20617070726f766520746f20746865207a65726f20616464726560008301527f73730000000000000000000000000000000000000000000000000000000000006020830152604082019050919050565b600061251f602683612d56565b91507f43414b453a3a64656c656761746542795369673a207369676e6174757265206560008301527f78706972656400000000000000000000000000000000000000000000000000006020830152604082019050919050565b6000612585600283612d67565b91507f19010000000000000000000000000000000000000000000000000000000000006000830152600282019050919050565b60006125c5601d83612d56565b91507f45524332303a20696e73756666696369656e7420616c6c6f77616e63650000006000830152602082019050919050565b6000612605602683612d56565b91507f45524332303a207472616e7366657220616d6f756e742065786365656473206260008301527f616c616e636500000000000000000000000000000000000000000000000000006020830152604082019050919050565b600061266b602683612d56565b91507f43414b453a3a64656c656761746542795369673a20696e76616c69642073696760008301527f6e617475726500000000000000000000000000000000000000000000000000006020830152604082019050919050565b60006126d1602083612d56565b91507f4f776e61626c653a2063616c6c6572206973206e6f7420746865206f776e65726000830152602082019050919050565b6000612711602783612d56565b91507f43414b453a3a6765745072696f72566f7465733a206e6f74207965742064657460008301527f65726d696e6564000000000000000000000000000000000000000000000000006020830152604082019050919050565b6000612777602283612d56565b91507f43414b453a3a64656c656761746542795369673a20696e76616c6964206e6f6e60008301527f63650000000000000000000000000000000000000000000000000000000000006020830152604082019050919050565b60006127dd602583612d56565b91507f45524332303a207472616e736665722066726f6d20746865207a65726f20616460008301527f64726573730000000000000000000000000000000000000000000000000000006020830152604082019050919050565b6000612843602483612d56565b91507f45524332303a20617070726f76652066726f6d20746865207a65726f2061646460008301527f72657373000000000000000000000000000000000000000000000000000000006020830152604082019050919050565b60006128a9602583612d56565b91507f45524332303a2064656372656173656420616c6c6f77616e63652062656c6f7760008301527f207a65726f0000000000000000000000000000000000000000000000000000006020830152604082019050919050565b600061290f601f83612d56565b91507f45524332303a206d696e7420746f20746865207a65726f2061646472657373006000830152602082019050919050565b61294b81612ee3565b82525050565b61295a81612eed565b82525050565b61296981612efd565b82525050565b600061297a82612578565b91506129868285612390565b6020820191506129968284612390565b6020820191508190509392505050565b60006020820190506129bb6000830184612363565b92915050565b60006020820190506129d66000830184612372565b92915050565b60006020820190506129f16000830184612381565b92915050565b6000608082019050612a0c6000830187612381565b612a196020830186612363565b612a266040830185612942565b612a336060830184612942565b95945050505050565b6000608082019050612a516000830187612381565b612a5e6020830186612381565b612a6b6040830185612942565b612a786060830184612363565b95945050505050565b6000608082019050612a966000830187612381565b612aa36020830186612960565b612ab06040830185612381565b612abd6060830184612381565b95945050505050565b60006020820190508181036000830152612ae081846123a7565b905092915050565b60006020820190508181036000830152612b01816123e0565b9050919050565b60006020820190508181036000830152612b2181612446565b9050919050565b60006020820190508181036000830152612b41816124ac565b9050919050565b60006020820190508181036000830152612b6181612512565b9050919050565b60006020820190508181036000830152612b81816125b8565b9050919050565b60006020820190508181036000830152612ba1816125f8565b9050919050565b60006020820190508181036000830152612bc18161265e565b9050919050565b60006020820190508181036000830152612be1816126c4565b9050919050565b60006020820190508181036000830152612c0181612704565b9050919050565b60006020820190508181036000830152612c218161276a565b9050919050565b60006020820190508181036000830152612c41816127d0565b9050919050565b60006020820190508181036000830152612c6181612836565b9050919050565b60006020820190508181036000830152612c818161289c565b9050919050565b60006020820190508181036000830152612ca181612902565b9050919050565b6000602082019050612cbd6000830184612942565b92915050565b6000604082019050612cd86000830185612942565b612ce56020830184612942565b9392505050565b6000602082019050612d016000830184612951565b92915050565b6000604082019050612d1c6000830185612951565b612d296020830184612942565b9392505050565b6000602082019050612d456000830184612960565b92915050565b600081519050919050565b600082825260208201905092915050565b600081905092915050565b6000612d7d82612ee3565b9150612d8883612ee3565b9250827fffffffffffffffffffffffffffffffffffffffffffffffffffffffffffffffff03821115612dbd57612dbc612fc2565b5b828201905092915050565b6000612dd382612eed565b9150612dde83612eed565b92508263ffffffff03821115612df757612df6612fc2565b5b828201905092915050565b6000612e0d82612eed565b9150612e1883612eed565b925082612e2857612e27612ff1565b5b828204905092915050565b6000612e3e82612ee3565b9150612e4983612ee3565b925082821015612e5c57612e5b612fc2565b5b828203905092915050565b6000612e7282612eed565b9150612e7d83612eed565b925082821015612e9057612e8f612fc2565b5b828203905092915050565b6000612ea682612ec3565b9050919050565b60008115159050919050565b6000819050919050565b600073ffffffffffffffffffffffffffffffffffffffff82169050919050565b6000819050919050565b600063ffffffff82169050919050565b600060ff82169050919050565b60005b83811015612f28578082015181840152602081019050612f0d565b83811115612f37576000848401525b50505050565b60006002820490506001821680612f5557607f821691505b60208210811415612f6957612f68613020565b5b50919050565b6000612f7a82612ee3565b91507fffffffffffffffffffffffffffffffffffffffffffffffffffffffffffffffff821415612fad57612fac612fc2565b5b600182019050919050565b6000819050919050565b7f4e487b7100000000000000000000000000000000000000000000000000000000600052601160045260246000fd5b7f4e487b7100000000000000000000000000000000000000000000000000000000600052601260045260246000fd5b7f4e487b7100000000000000000000000000000000000000000000000000000000600052602260045260246000fd5b6000601f19601f8301169050919050565b61306981612e9b565b811461307457600080fd5b50565b61308081612eb9565b811461308b57600080fd5b50565b61309781612ee3565b81146130a257600080fd5b50565b6130ae81612eed565b81146130b957600080fd5b50565b6130c581612efd565b81146130d057600080fd5b5056fe43414b453a3a5f7772697465436865636b706f696e743a20626c6f636b206e756d62657220657863656564732033322062697473a2646970667358221220282546b12be9c059c9665e533792cc24dce455e6d4e93b03a8d7a423eb0bb3ab64736f6c63430008000033",
  "linkReferences": {},
  "deployedLinkReferences": {}
}