{
  "_format": "hh-sol-artifact-1",
  "contractName": "CakeToken",
  "sourceName": "contracts/pancekeswap-fork/utils/CakeToken.sol",
  "abi": [
    {
      "anonymous": false,
      "inputs": [
        {
          "indexed": true,
          "internalType": "address",
          "name": "owner",
          "type": "address"
        },
        {
          "indexed": true,
          "internalType": "address",
          "name": "spender",
          "type": "address"
        },
        {
          "indexed": false,
          "internalType": "uint256",
          "name": "value",
          "type": "uint256"
        }
      ],
      "name": "Approval",
      "type": "event"
    },
    {
      "anonymous": false,
      "inputs": [
        {
          "indexed": true,
          "internalType": "address",
          "name": "delegator",
          "type": "address"
        },
        {
          "indexed": true,
          "internalType": "address",
          "name": "fromDelegate",
          "type": "address"
        },
        {
          "indexed": true,
          "internalType": "address",
          "name": "toDelegate",
          "type": "address"
        }
      ],
      "name": "DelegateChanged",
      "type": "event"
    },
    {
      "anonymous": false,
      "inputs": [
        {
          "indexed": true,
          "internalType": "address",
          "name": "delegate",
          "type": "address"
        },
        {
          "indexed": false,
          "internalType": "uint256",
          "name": "previousBalance",
          "type": "uint256"
        },
        {
          "indexed": false,
          "internalType": "uint256",
          "name": "newBalance",
          "type": "uint256"
        }
      ],
      "name": "DelegateVotesChanged",
      "type": "event"
    },
    {
      "anonymous": false,
      "inputs": [
        {
          "indexed": true,
          "internalType": "address",
          "name": "previousOwner",
          "type": "address"
        },
        {
          "indexed": true,
          "internalType": "address",
          "name": "newOwner",
          "type": "address"
        }
      ],
      "name": "OwnershipTransferred",
      "type": "event"
    },
    {
      "anonymous": false,
      "inputs": [
        {
          "indexed": true,
          "internalType": "address",
          "name": "from",
          "type": "address"
        },
        {
          "indexed": true,
          "internalType": "address",
          "name": "to",
          "type": "address"
        },
        {
          "indexed": false,
          "internalType": "uint256",
          "name": "value",
          "type": "uint256"
        }
      ],
      "name": "Transfer",
      "type": "event"
    },
    {
      "inputs": [],
      "name": "DELEGATION_TYPEHASH",
      "outputs": [
        {
          "internalType": "bytes32",
          "name": "",
          "type": "bytes32"
        }
      ],
      "stateMutability": "view",
      "type": "function"
    },
    {
      "inputs": [],
      "name": "DOMAIN_TYPEHASH",
      "outputs": [
        {
          "internalType": "bytes32",
          "name": "",
          "type": "bytes32"
        }
      ],
      "stateMutability": "view",
      "type": "function"
    },
    {
      "inputs": [
        {
          "internalType": "address",
          "name": "owner",
          "type": "address"
        },
        {
          "internalType": "address",
          "name": "spender",
          "type": "address"
        }
      ],
      "name": "allowance",
      "outputs": [
        {
          "internalType": "uint256",
          "name": "",
          "type": "uint256"
        }
      ],
      "stateMutability": "view",
      "type": "function"
    },
    {
      "inputs": [
        {
          "internalType": "address",
          "name": "spender",
          "type": "address"
        },
        {
          "internalType": "uint256",
          "name": "amount",
          "type": "uint256"
        }
      ],
      "name": "approve",
      "outputs": [
        {
          "internalType": "bool",
          "name": "",
          "type": "bool"
        }
      ],
      "stateMutability": "nonpayable",
      "type": "function"
    },
    {
      "inputs": [
        {
          "internalType": "address",
          "name": "account",
          "type": "address"
        }
      ],
      "name": "balanceOf",
      "outputs": [
        {
          "internalType": "uint256",
          "name": "",
          "type": "uint256"
        }
      ],
      "stateMutability": "view",
      "type": "function"
    },
    {
      "inputs": [
        {
          "internalType": "address",
          "name": "",
          "type": "address"
        },
        {
          "internalType": "uint32",
          "name": "",
          "type": "uint32"
        }
      ],
      "name": "checkpoints",
      "outputs": [
        {
          "internalType": "uint32",
          "name": "fromBlock",
          "type": "uint32"
        },
        {
          "internalType": "uint256",
          "name": "votes",
          "type": "uint256"
        }
      ],
      "stateMutability": "view",
      "type": "function"
    },
    {
      "inputs": [],
      "name": "decimals",
      "outputs": [
        {
          "internalType": "uint8",
          "name": "",
          "type": "uint8"
        }
      ],
      "stateMutability": "view",
      "type": "function"
    },
    {
      "inputs": [
        {
          "internalType": "address",
          "name": "spender",
          "type": "address"
        },
        {
          "internalType": "uint256",
          "name": "subtractedValue",
          "type": "uint256"
        }
      ],
      "name": "decreaseAllowance",
      "outputs": [
        {
          "internalType": "bool",
          "name": "",
          "type": "bool"
        }
      ],
      "stateMutability": "nonpayable",
      "type": "function"
    },
    {
      "inputs": [
        {
          "internalType": "address",
          "name": "delegatee",
          "type": "address"
        }
      ],
      "name": "delegate",
      "outputs": [],
      "stateMutability": "nonpayable",
      "type": "function"
    },
    {
      "inputs": [
        {
          "internalType": "address",
          "name": "delegatee",
          "type": "address"
        },
        {
          "internalType": "uint256",
          "name": "nonce",
          "type": "uint256"
        },
        {
          "internalType": "uint256",
          "name": "expiry",
          "type": "uint256"
        },
        {
          "internalType": "uint8",
          "name": "v",
          "type": "uint8"
        },
        {
          "internalType": "bytes32",
          "name": "r",
          "type": "bytes32"
        },
        {
          "internalType": "bytes32",
          "name": "s",
          "type": "bytes32"
        }
      ],
      "name": "delegateBySig",
      "outputs": [],
      "stateMutability": "nonpayable",
      "type": "function"
    },
    {
      "inputs": [
        {
          "internalType": "address",
          "name": "delegator",
          "type": "address"
        }
      ],
      "name": "delegates",
      "outputs": [
        {
          "internalType": "address",
          "name": "",
          "type": "address"
        }
      ],
      "stateMutability": "view",
      "type": "function"
    },
    {
      "inputs": [
        {
          "internalType": "address",
          "name": "account",
          "type": "address"
        }
      ],
      "name": "getCurrentVotes",
      "outputs": [
        {
          "internalType": "uint256",
          "name": "",
          "type": "uint256"
        }
      ],
      "stateMutability": "view",
      "type": "function"
    },
    {
      "inputs": [
        {
          "internalType": "address",
          "name": "account",
          "type": "address"
        },
        {
          "internalType": "uint256",
          "name": "blockNumber",
          "type": "uint256"
        }
      ],
      "name": "getPriorVotes",
      "outputs": [
        {
          "internalType": "uint256",
          "name": "",
          "type": "uint256"
        }
      ],
      "stateMutability": "view",
      "type": "function"
    },
    {
      "inputs": [
        {
          "internalType": "uint256",
          "name": "amount",
          "type": "uint256"
        }
      ],
      "name": "getTokens",
      "outputs": [],
      "stateMutability": "nonpayable",
      "type": "function"
    },
    {
      "inputs": [
        {
          "internalType": "address",
          "name": "spender",
          "type": "address"
        },
        {
          "internalType": "uint256",
          "name": "addedValue",
          "type": "uint256"
        }
      ],
      "name": "increaseAllowance",
      "outputs": [
        {
          "internalType": "bool",
          "name": "",
          "type": "bool"
        }
      ],
      "stateMutability": "nonpayable",
      "type": "function"
    },
    {
      "inputs": [
        {
          "internalType": "address",
          "name": "_to",
          "type": "address"
        },
        {
          "internalType": "uint256",
          "name": "_amount",
          "type": "uint256"
        }
      ],
      "name": "mint",
      "outputs": [],
      "stateMutability": "nonpayable",
      "type": "function"
    },
    {
      "inputs": [],
      "name": "name",
      "outputs": [
        {
          "internalType": "string",
          "name": "",
          "type": "string"
        }
      ],
      "stateMutability": "view",
      "type": "function"
    },
    {
      "inputs": [
        {
          "internalType": "address",
          "name": "",
          "type": "address"
        }
      ],
      "name": "nonces",
      "outputs": [
        {
          "internalType": "uint256",
          "name": "",
          "type": "uint256"
        }
      ],
      "stateMutability": "view",
      "type": "function"
    },
    {
      "inputs": [
        {
          "internalType": "address",
          "name": "",
          "type": "address"
        }
      ],
      "name": "numCheckpoints",
      "outputs": [
        {
          "internalType": "uint32",
          "name": "",
          "type": "uint32"
        }
      ],
      "stateMutability": "view",
      "type": "function"
    },
    {
      "inputs": [],
      "name": "owner",
      "outputs": [
        {
          "internalType": "address",
          "name": "",
          "type": "address"
        }
      ],
      "stateMutability": "view",
      "type": "function"
    },
    {
      "inputs": [],
      "name": "renounceOwnership",
      "outputs": [],
      "stateMutability": "nonpayable",
      "type": "function"
    },
    {
      "inputs": [],
      "name": "symbol",
      "outputs": [
        {
          "internalType": "string",
          "name": "",
          "type": "string"
        }
      ],
      "stateMutability": "view",
      "type": "function"
    },
    {
      "inputs": [],
      "name": "totalSupply",
      "outputs": [
        {
          "internalType": "uint256",
          "name": "",
          "type": "uint256"
        }
      ],
      "stateMutability": "view",
      "type": "function"
    },
    {
      "inputs": [
        {
          "internalType": "address",
          "name": "to",
          "type": "address"
        },
        {
          "internalType": "uint256",
          "name": "amount",
          "type": "uint256"
        }
      ],
      "name": "transfer",
      "outputs": [
        {
          "internalType": "bool",
          "name": "",
          "type": "bool"
        }
      ],
      "stateMutability": "nonpayable",
      "type": "function"
    },
    {
      "inputs": [
        {
          "internalType": "address",
          "name": "from",
          "type": "address"
        },
        {
          "internalType": "address",
          "name": "to",
          "type": "address"
        },
        {
          "internalType": "uint256",
          "name": "amount",
          "type": "uint256"
        }
      ],
      "name": "transferFrom",
      "outputs": [
        {
          "internalType": "bool",
          "name": "",
          "type": "bool"
        }
      ],
      "stateMutability": "nonpayable",
      "type": "function"
    },
    {
      "inputs": [
        {
          "internalType": "address",
          "name": "newOwner",
          "type": "address"
        }
      ],
      "name": "transferOwnership",
      "outputs": [],
      "stateMutability": "nonpayable",
      "type": "function"
    }
  ],
  "bytecode": "0x60806040523480156200001157600080fd5b5060408051808201825260118152702830b731b0b5b2a9bbb0b8102a37b5b2b760791b60208083019182528351808501909452600484526343616b6560e01b9084015281519192916200006791600391620000f6565b5080516200007d906004906020840190620000f6565b5050506200009a62000094620000a060201b60201c565b620000a4565b620001d9565b3390565b600580546001600160a01b038381166001600160a01b0319831681179093556040519116919082907f8be0079c531659141344cd1fd0a4f28419497f9722a3daafe3b4186f6b6457e090600090a35050565b82805462000104906200019c565b90600052602060002090601f01602090048101928262000128576000855562000173565b82601f106200014357805160ff191683800117855562000173565b8280016001018555821562000173579182015b828111156200017357825182559160200191906001019062000156565b506200018192915062000185565b5090565b5b8082111562000181576000815560010162000186565b600281046001821680620001b157607f821691505b60208210811415620001d357634e487b7160e01b600052602260045260246000fd5b50919050565b611b9080620001e96000396000f3fe608060405234801561001057600080fd5b50600436106101ae5760003560e01c8063782d6fe1116100ee578063b4b5ea5711610097578063dd62ed3e11610071578063dd62ed3e14610361578063e7a324dc14610374578063f1127ed81461037c578063f2fde38b1461039d576101ae565b8063b4b5ea5714610328578063c3cda5201461033b578063d3c9cc261461034e576101ae565b806395d89b41116100c857806395d89b41146102fa578063a457c2d714610302578063a9059cbb14610315576101ae565b8063782d6fe1146102cc5780637ecebe00146102df5780638da5cb5b146102f2576101ae565b8063395093511161015b5780635c19a95c116101355780635c19a95c1461027e5780636fcfff451461029157806370a08231146102b1578063715018a6146102c4576101ae565b8063395093511461023657806340c10f1914610249578063587cde1e1461025e576101ae565b806320606b701161018c57806320606b701461020657806323b872dd1461020e578063313ce56714610221576101ae565b806306fdde03146101b3578063095ea7b3146101d157806318160ddd146101f1575b600080fd5b6101bb6103b0565b6040516101c891906114d7565b60405180910390f35b6101e46101df366004611336565b610442565b6040516101c8919061145d565b6101f9610466565b6040516101c89190611468565b6101f961046c565b6101e461021c3660046112fb565b610490565b6102296104be565b6040516101c89190611a01565b6101e4610244366004611336565b6104c3565b61025c610257366004611336565b6104ef565b005b61027161026c3660046112af565b610522565b6040516101c89190611449565b61025c61028c3660046112af565b610543565b6102a461029f3660046112af565b610550565b6040516101c891906119da565b6101f96102bf3660046112af565b610568565b61025c610583565b6101f96102da366004611336565b610597565b6101f96102ed3660046112af565b6107c5565b6102716107d7565b6101bb6107e6565b6101e4610310366004611336565b6107f5565b6101e4610323366004611336565b61083d565b6101f96103363660046112af565b610855565b61025c61034936600461135f565b6108ca565b61025c61035c3660046113fb565b610aa5565b6101f961036f3660046112c9565b610aaf565b6101f9610ada565b61038f61038a3660046113bd565b610afe565b6040516101c89291906119eb565b61025c6103ab3660046112af565b610b2b565b6060600380546103bf90611aba565b80601f01602080910402602001604051908101604052809291908181526020018280546103eb90611aba565b80156104385780601f1061040d57610100808354040283529160200191610438565b820191906000526020600020905b81548152906001019060200180831161041b57829003601f168201915b5050505050905090565b60008061044d610b62565b905061045a818585610b66565b60019150505b92915050565b60025490565b7f8cad95687ba82c2ce50e74f7b754645e5117c3a5bec8151c0726d5857980a86681565b60008061049b610b62565b90506104a8858285610c1a565b6104b3858585610c64565b506001949350505050565b601290565b6000806104ce610b62565b905061045a8185856104e08589610aaf565b6104ea9190611a0f565b610b66565b6104f98282610d65565b6001600160a01b0380831660009081526006602052604081205461051e921683610e0f565b5050565b6001600160a01b03808216600090815260066020526040902054165b919050565b61054d3382610f73565b50565b60086020526000908152604090205463ffffffff1681565b6001600160a01b031660009081526020819052604090205490565b61058b61101a565b6105956000611059565b565b60004382106105c15760405162461bcd60e51b81526004016105b8906117c4565b60405180910390fd5b6001600160a01b03831660009081526008602052604090205463ffffffff16806105ef576000915050610460565b6001600160a01b03841660009081526007602052604081208491610614600185611a95565b63ffffffff9081168252602082019290925260400160002054161161067d576001600160a01b038416600090815260076020526040812090610657600184611a95565b63ffffffff1663ffffffff16815260200190815260200160002060010154915050610460565b6001600160a01b038416600090815260076020908152604080832083805290915290205463ffffffff168310156106b8576000915050610460565b6000806106c6600184611a95565b90505b8163ffffffff168163ffffffff16111561078e57600060026106eb8484611a95565b6106f59190611a4f565b6106ff9083611a95565b6001600160a01b038816600090815260076020908152604080832063ffffffff8086168552908352928190208151808301909252805490931680825260019093015491810191909152919250871415610762576020015194506104609350505050565b805163ffffffff1687111561077957819350610787565b610784600183611a95565b92505b50506106c9565b506001600160a01b038516600090815260076020908152604080832063ffffffff9094168352929052206001015491505092915050565b60096020526000908152604090205481565b6005546001600160a01b031690565b6060600480546103bf90611aba565b600080610800610b62565b9050600061080e8286610aaf565b9050838110156108305760405162461bcd60e51b81526004016105b890611938565b6104b38286868403610b66565b600080610848610b62565b905061045a818585610c64565b6001600160a01b03811660009081526008602052604081205463ffffffff16806108805760006108c3565b6001600160a01b0383166000908152600760205260408120906108a4600184611a95565b63ffffffff1663ffffffff168152602001908152602001600020600101545b9392505050565b60007f8cad95687ba82c2ce50e74f7b754645e5117c3a5bec8151c0726d5857980a8666108f56103b0565b805190602001206109046110c3565b306040516020016109189493929190611495565b60405160208183030381529060405280519060200120905060007fe48329057bfd03d55e49b547132e39cffd9c1820ad7b9d4c5307691425d15adf8888886040516020016109699493929190611471565b60405160208183030381529060405280519060200120905060008282604051602001610996929190611413565b6040516020818303038152906040528051906020012090506000600182888888604051600081526020016040526040516109d394939291906114b9565b6020604051602081039080840390855afa1580156109f5573d6000803e3d6000fd5b5050604051601f1901519150506001600160a01b038116610a285760405162461bcd60e51b81526004016105b890611732565b6001600160a01b0381166000908152600960205260408120805491610a4c83611af5565b919050558914610a6e5760405162461bcd60e51b81526004016105b890611821565b87421115610a8e5760405162461bcd60e51b81526004016105b890611641565b610a98818b610f73565b505050505b505050505050565b61054d3382610d65565b6001600160a01b03918216600090815260016020908152604080832093909416825291909152205490565b7fe48329057bfd03d55e49b547132e39cffd9c1820ad7b9d4c5307691425d15adf81565b60076020908152600092835260408084209091529082529020805460019091015463ffffffff9091169082565b610b3361101a565b6001600160a01b038116610b595760405162461bcd60e51b81526004016105b890611587565b61054d81611059565b3390565b6001600160a01b038316610b8c5760405162461bcd60e51b81526004016105b8906118db565b6001600160a01b038216610bb25760405162461bcd60e51b81526004016105b8906115e4565b6001600160a01b0380841660008181526001602090815260408083209487168084529490915290819020849055517f8c5be1e5ebec7d5bd14f71427d1e84f3dd0314c0f7b2291e5b200ac8c7c3b92590610c0d908590611468565b60405180910390a3505050565b6000610c268484610aaf565b90506000198114610c5e5781811015610c515760405162461bcd60e51b81526004016105b89061169e565b610c5e8484848403610b66565b50505050565b6001600160a01b038316610c8a5760405162461bcd60e51b81526004016105b89061187e565b6001600160a01b038216610cb05760405162461bcd60e51b81526004016105b89061152a565b610cbb838383610f6e565b6001600160a01b03831660009081526020819052604090205481811015610cf45760405162461bcd60e51b81526004016105b8906116d5565b6001600160a01b0380851660008181526020819052604080822086860390559286168082529083902080548601905591517fddf252ad1be2c89b69c2b068fc378daa952ba7f163c4a11628f55a4df523b3ef90610d52908690611468565b60405180910390a3610c5e848484610f6e565b6001600160a01b038216610d8b5760405162461bcd60e51b81526004016105b890611995565b610d9760008383610f6e565b8060026000828254610da99190611a0f565b90915550506001600160a01b038216600081815260208190526040808220805485019055517fddf252ad1be2c89b69c2b068fc378daa952ba7f163c4a11628f55a4df523b3ef90610dfb908590611468565b60405180910390a361051e60008383610f6e565b816001600160a01b0316836001600160a01b031614158015610e315750600081115b15610f6e576001600160a01b03831615610ed4576001600160a01b03831660009081526008602052604081205463ffffffff169081610e71576000610eb4565b6001600160a01b038516600090815260076020526040812090610e95600185611a95565b63ffffffff1663ffffffff168152602001908152602001600020600101545b90506000610ec28483611a7e565b9050610ed0868484846110c7565b5050505b6001600160a01b03821615610f6e576001600160a01b03821660009081526008602052604081205463ffffffff169081610f0f576000610f52565b6001600160a01b038416600090815260076020526040812090610f33600185611a95565b63ffffffff1663ffffffff168152602001908152602001600020600101545b90506000610f608483611a0f565b9050610a9d858484846110c7565b505050565b6001600160a01b0380831660009081526006602052604081205490911690610f9a84610568565b6001600160a01b0385811660008181526006602052604080822080547fffffffffffffffffffffffff000000000000000000000000000000000000000016898616908117909155905194955093928616927f3134e8a2e6d97e929a7e54011ea5485d7d196dd5f0ba4d4ef95803e8e3fc257f9190a4610c5e828483610e0f565b611022610b62565b6001600160a01b03166110336107d7565b6001600160a01b0316146105955760405162461bcd60e51b81526004016105b89061178f565b600580546001600160a01b038381167fffffffffffffffffffffffff0000000000000000000000000000000000000000831681179093556040519116919082907f8be0079c531659141344cd1fd0a4f28419497f9722a3daafe3b4186f6b6457e090600090a35050565b4690565b60006110eb43604051806060016040528060348152602001611b2760349139611268565b905060008463ffffffff1611801561114557506001600160a01b038516600090815260076020526040812063ffffffff831691611129600188611a95565b63ffffffff908116825260208201929092526040016000205416145b1561118e576001600160a01b0385166000908152600760205260408120839161116f600188611a95565b63ffffffff16815260208101919091526040016000206001015561121e565b60408051808201825263ffffffff838116825260208083018681526001600160a01b038a166000908152600783528581208a851682529092529390209151825463ffffffff1916911617815590516001918201556111ed908590611a27565b6001600160a01b0386166000908152600860205260409020805463ffffffff191663ffffffff929092169190911790555b846001600160a01b03167fdec2bacdd2f05b59de34da9b523dff8be42e5e38e818c82fdb0bae774387a72484846040516112599291906119cc565b60405180910390a25050505050565b60008164010000000084106112905760405162461bcd60e51b81526004016105b891906114d7565b509192915050565b80356001600160a01b038116811461053e57600080fd5b6000602082840312156112c0578081fd5b6108c382611298565b600080604083850312156112db578081fd5b6112e483611298565b91506112f260208401611298565b90509250929050565b60008060006060848603121561130f578081fd5b61131884611298565b925061132660208501611298565b9150604084013590509250925092565b60008060408385031215611348578182fd5b61135183611298565b946020939093013593505050565b60008060008060008060c08789031215611377578182fd5b61138087611298565b95506020870135945060408701359350606087013560ff811681146113a3578283fd5b9598949750929560808101359460a0909101359350915050565b600080604083850312156113cf578182fd5b6113d883611298565b9150602083013563ffffffff811681146113f0578182fd5b809150509250929050565b60006020828403121561140c578081fd5b5035919050565b7f190100000000000000000000000000000000000000000000000000000000000081526002810192909252602282015260420190565b6001600160a01b0391909116815260200190565b901515815260200190565b90815260200190565b9384526001600160a01b039290921660208401526040830152606082015260800190565b938452602084019290925260408301526001600160a01b0316606082015260800190565b93845260ff9290921660208401526040830152606082015260800190565b6000602080835283518082850152825b81811015611503578581018301518582016040015282016114e7565b818111156115145783604083870101525b50601f01601f1916929092016040019392505050565b60208082526023908201527f45524332303a207472616e7366657220746f20746865207a65726f206164647260408201527f6573730000000000000000000000000000000000000000000000000000000000606082015260800190565b60208082526026908201527f4f776e61626c653a206e6577206f776e657220697320746865207a65726f206160408201527f6464726573730000000000000000000000000000000000000000000000000000606082015260800190565b60208082526022908201527f45524332303a20617070726f766520746f20746865207a65726f20616464726560408201527f7373000000000000000000000000000000000000000000000000000000000000606082015260800190565b60208082526026908201527f43414b453a3a64656c656761746542795369673a207369676e6174757265206560408201527f7870697265640000000000000000000000000000000000000000000000000000606082015260800190565b6020808252601d908201527f45524332303a20696e73756666696369656e7420616c6c6f77616e6365000000604082015260600190565b60208082526026908201527f45524332303a207472616e7366657220616d6f756e742065786365656473206260408201527f616c616e63650000000000000000000000000000000000000000000000000000606082015260800190565b60208082526026908201527f43414b453a3a64656c656761746542795369673a20696e76616c69642073696760408201527f6e61747572650000000000000000000000000000000000000000000000000000606082015260800190565b6020808252818101527f4f776e61626c653a2063616c6c6572206973206e6f7420746865206f776e6572604082015260600190565b60208082526027908201527f43414b453a3a6765745072696f72566f7465733a206e6f74207965742064657460408201527f65726d696e656400000000000000000000000000000000000000000000000000606082015260800190565b60208082526022908201527f43414b453a3a64656c656761746542795369673a20696e76616c6964206e6f6e60408201527f6365000000000000000000000000000000000000000000000000000000000000606082015260800190565b60208082526025908201527f45524332303a207472616e736665722066726f6d20746865207a65726f20616460408201527f6472657373000000000000000000000000000000000000000000000000000000606082015260800190565b60208082526024908201527f45524332303a20617070726f76652066726f6d20746865207a65726f2061646460408201527f7265737300000000000000000000000000000000000000000000000000000000606082015260800190565b60208082526025908201527f45524332303a2064656372656173656420616c6c6f77616e63652062656c6f7760408201527f207a65726f000000000000000000000000000000000000000000000000000000606082015260800190565b6020808252601f908201527f45524332303a206d696e7420746f20746865207a65726f206164647265737300604082015260600190565b918252602082015260400190565b63ffffffff91909116815260200190565b63ffffffff929092168252602082015260400190565b60ff91909116815260200190565b60008219821115611a2257611a22611b10565b500190565b600063ffffffff808316818516808303821115611a4657611a46611b10565b01949350505050565b600063ffffffff80841680611a7257634e487b7160e01b83526012600452602483fd5b92169190910492915050565b600082821015611a9057611a90611b10565b500390565b600063ffffffff83811690831681811015611ab257611ab2611b10565b039392505050565b600281046001821680611ace57607f821691505b60208210811415611aef57634e487b7160e01b600052602260045260246000fd5b50919050565b6000600019821415611b0957611b09611b10565b5060010190565b634e487b7160e01b600052601160045260246000fdfe43414b453a3a5f7772697465436865636b706f696e743a20626c6f636b206e756d62657220657863656564732033322062697473a26469706673582212204a3730099e4e2b7b6c4d2422f607eae994654995e7e8ecca5523e1c91aee0c9664736f6c63430008000033",
  "linkReferences": {},
  "deployedLinkReferences": {}
}