{
  "_format": "hh-sol-artifact-1",
  "contractName": "FrogLottery",
  "sourceName": "contracts/FrogLottery.sol",
  "abi": [
    {
      "inputs": [
        {
          "internalType": "address",
          "name": "_token0",
          "type": "address"
        },
        {
          "internalType": "address",
          "name": "_token1",
          "type": "address"
        },
        {
          "internalType": "address",
          "name": "_frogReferalAddress",
          "type": "address"
        },
        {
          "internalType": "bool",
          "name": "_isEthLottery",
          "type": "bool"
        },
        {
          "internalType": "address",
          "name": "_beneficiary",
          "type": "address"
        },
        {
          "internalType": "uint256",
          "name": "_pancakePID",
          "type": "uint256"
        }
      ],
      "stateMutability": "nonpayable",
      "type": "constructor"
    },
    {
      "anonymous": false,
      "inputs": [
        {
          "indexed": true,
          "internalType": "address",
          "name": "_oldBeneficiary",
          "type": "address"
        },
        {
          "indexed": true,
          "internalType": "address",
          "name": "_newBeneficiary",
          "type": "address"
        }
      ],
      "name": "BeneficiaryChanged",
      "type": "event"
    },
    {
      "anonymous": false,
      "inputs": [
        {
          "indexed": true,
          "internalType": "address",
          "name": "_participant",
          "type": "address"
        },
        {
          "indexed": false,
          "internalType": "uint256",
          "name": "_amount",
          "type": "uint256"
        },
        {
          "indexed": false,
          "internalType": "uint256",
          "name": "_oldBalance",
          "type": "uint256"
        }
      ],
      "name": "Deposit",
      "type": "event"
    },
    {
      "anonymous": false,
      "inputs": [
        {
          "indexed": true,
          "internalType": "uint256",
          "name": "_drawNumber",
          "type": "uint256"
        },
        {
          "indexed": false,
          "internalType": "uint256",
          "name": "_fundTotal",
          "type": "uint256"
        },
        {
          "indexed": false,
          "internalType": "uint256",
          "name": "_rewardTotal",
          "type": "uint256"
        },
        {
          "indexed": false,
          "internalType": "uint256",
          "name": "_feeTotal",
          "type": "uint256"
        }
      ],
      "name": "Draw",
      "type": "event"
    },
    {
      "anonymous": false,
      "inputs": [
        {
          "indexed": true,
          "internalType": "uint256",
          "name": "_oldFeePercent",
          "type": "uint256"
        },
        {
          "indexed": true,
          "internalType": "uint256",
          "name": "_newFeePercent",
          "type": "uint256"
        }
      ],
      "name": "FeePercentChanged",
      "type": "event"
    },
    {
      "anonymous": false,
      "inputs": [
        {
          "indexed": true,
          "internalType": "address",
          "name": "_newParticipant",
          "type": "address"
        }
      ],
      "name": "NewParticipant",
      "type": "event"
    },
    {
      "anonymous": false,
      "inputs": [
        {
          "indexed": true,
          "internalType": "address",
          "name": "previousOwner",
          "type": "address"
        },
        {
          "indexed": true,
          "internalType": "address",
          "name": "newOwner",
          "type": "address"
        }
      ],
      "name": "OwnershipTransferred",
      "type": "event"
    },
    {
      "anonymous": false,
      "inputs": [
        {
          "indexed": true,
          "internalType": "uint256",
          "name": "_drawNumber",
          "type": "uint256"
        },
        {
          "indexed": true,
          "internalType": "address",
          "name": "_winner",
          "type": "address"
        },
        {
          "indexed": false,
          "internalType": "uint256",
          "name": "_amount",
          "type": "uint256"
        }
      ],
      "name": "Victory",
      "type": "event"
    },
    {
      "anonymous": false,
      "inputs": [
        {
          "indexed": true,
          "internalType": "address",
          "name": "_participant",
          "type": "address"
        },
        {
          "indexed": false,
          "internalType": "uint256",
          "name": "_amount",
          "type": "uint256"
        },
        {
          "indexed": false,
          "internalType": "uint256",
          "name": "_oldBalance",
          "type": "uint256"
        }
      ],
      "name": "Withdraw",
      "type": "event"
    },
    {
      "inputs": [
        {
          "internalType": "address",
          "name": "",
          "type": "address"
        }
      ],
      "name": "alreadyParticipant",
      "outputs": [
        {
          "internalType": "bool",
          "name": "",
          "type": "bool"
        }
      ],
      "stateMutability": "view",
      "type": "function"
    },
    {
      "inputs": [
        {
          "internalType": "address",
          "name": "",
          "type": "address"
        }
      ],
      "name": "balanceOf",
      "outputs": [
        {
          "internalType": "uint256",
          "name": "",
          "type": "uint256"
        }
      ],
      "stateMutability": "view",
      "type": "function"
    },
    {
      "inputs": [],
      "name": "beneficiary",
      "outputs": [
        {
          "internalType": "address",
          "name": "",
          "type": "address"
        }
      ],
      "stateMutability": "view",
      "type": "function"
    },
    {
      "inputs": [],
      "name": "claimReward",
      "outputs": [],
      "stateMutability": "nonpayable",
      "type": "function"
    },
    {
      "inputs": [
        {
          "internalType": "uint256",
          "name": "amountToken0",
          "type": "uint256"
        },
        {
          "internalType": "uint256",
          "name": "amountToken1",
          "type": "uint256"
        }
      ],
      "name": "deposit",
      "outputs": [
        {
          "internalType": "bool",
          "name": "success",
          "type": "bool"
        }
      ],
      "stateMutability": "payable",
      "type": "function"
    },
    {
      "inputs": [
        {
          "internalType": "address",
          "name": "",
          "type": "address"
        }
      ],
      "name": "depositOf",
      "outputs": [
        {
          "internalType": "uint256",
          "name": "",
          "type": "uint256"
        }
      ],
      "stateMutability": "view",
      "type": "function"
    },
    {
      "inputs": [],
      "name": "draw",
      "outputs": [],
      "stateMutability": "nonpayable",
      "type": "function"
    },
    {
      "inputs": [],
      "name": "drawNumber",
      "outputs": [
        {
          "internalType": "uint256",
          "name": "",
          "type": "uint256"
        }
      ],
      "stateMutability": "view",
      "type": "function"
    },
    {
      "inputs": [],
      "name": "farmTotal",
      "outputs": [
        {
          "internalType": "uint256",
          "name": "",
          "type": "uint256"
        }
      ],
      "stateMutability": "view",
      "type": "function"
    },
    {
      "inputs": [
        {
          "internalType": "uint256",
          "name": "_amount",
          "type": "uint256"
        },
        {
          "internalType": "address",
          "name": "_tokenIn",
          "type": "address"
        },
        {
          "internalType": "address",
          "name": "_tokenOut",
          "type": "address"
        }
      ],
      "name": "getPSRate",
      "outputs": [
        {
          "internalType": "uint256",
          "name": "",
          "type": "uint256"
        }
      ],
      "stateMutability": "view",
      "type": "function"
    },
    {
      "inputs": [],
      "name": "getParticipants",
      "outputs": [
        {
          "internalType": "address[]",
          "name": "result",
          "type": "address[]"
        },
        {
          "internalType": "uint256",
          "name": "counter",
          "type": "uint256"
        }
      ],
      "stateMutability": "view",
      "type": "function"
    },
    {
      "inputs": [
        {
          "internalType": "address",
          "name": "_participant",
          "type": "address"
        }
      ],
      "name": "isParticipant",
      "outputs": [
        {
          "internalType": "bool",
          "name": "",
          "type": "bool"
        }
      ],
      "stateMutability": "view",
      "type": "function"
    },
    {
      "inputs": [],
      "name": "lpDecimals",
      "outputs": [
        {
          "internalType": "uint256",
          "name": "",
          "type": "uint256"
        }
      ],
      "stateMutability": "view",
      "type": "function"
    },
    {
      "inputs": [],
      "name": "maxUsd",
      "outputs": [
        {
          "internalType": "uint256",
          "name": "",
          "type": "uint256"
        }
      ],
      "stateMutability": "view",
      "type": "function"
    },
    {
      "inputs": [],
      "name": "minUsd",
      "outputs": [
        {
          "internalType": "uint256",
          "name": "",
          "type": "uint256"
        }
      ],
      "stateMutability": "view",
      "type": "function"
    },
    {
      "inputs": [],
      "name": "owner",
      "outputs": [
        {
          "internalType": "address",
          "name": "",
          "type": "address"
        }
      ],
      "stateMutability": "view",
      "type": "function"
    },
    {
      "inputs": [
        {
          "internalType": "uint256",
          "name": "",
          "type": "uint256"
        }
      ],
      "name": "participants",
      "outputs": [
        {
          "internalType": "address",
          "name": "",
          "type": "address"
        }
      ],
      "stateMutability": "view",
      "type": "function"
    },
    {
      "inputs": [],
      "name": "rateLPTokens",
      "outputs": [
        {
          "internalType": "uint256",
          "name": "lpToken0",
          "type": "uint256"
        },
        {
          "internalType": "uint256",
          "name": "lpToken1",
          "type": "uint256"
        }
      ],
      "stateMutability": "view",
      "type": "function"
    },
    {
      "inputs": [],
      "name": "renounceOwnership",
      "outputs": [],
      "stateMutability": "nonpayable",
      "type": "function"
    },
    {
      "inputs": [
        {
          "internalType": "address",
          "name": "",
          "type": "address"
        }
      ],
      "name": "rewardOf",
      "outputs": [
        {
          "internalType": "uint256",
          "name": "",
          "type": "uint256"
        }
      ],
      "stateMutability": "view",
      "type": "function"
    },
    {
      "inputs": [
        {
          "internalType": "address",
          "name": "_token0",
          "type": "address"
        },
        {
          "internalType": "address",
          "name": "_token1",
          "type": "address"
        },
        {
          "internalType": "address",
          "name": "usd",
          "type": "address"
        },
        {
          "internalType": "address",
          "name": "router",
          "type": "address"
        },
        {
          "internalType": "address",
          "name": "masterChef",
          "type": "address"
        },
        {
          "internalType": "address",
          "name": "pair",
          "type": "address"
        }
      ],
      "name": "setAll",
      "outputs": [],
      "stateMutability": "nonpayable",
      "type": "function"
    },
    {
      "inputs": [
        {
          "internalType": "address",
          "name": "_newBeneficiary",
          "type": "address"
        }
      ],
      "name": "setBeneficiary",
      "outputs": [],
      "stateMutability": "nonpayable",
      "type": "function"
    },
    {
      "inputs": [
        {
          "internalType": "uint256",
          "name": "_newFeePercent",
          "type": "uint256"
        }
      ],
      "name": "setFeePercent",
      "outputs": [],
      "stateMutability": "nonpayable",
      "type": "function"
    },
    {
      "inputs": [
        {
          "internalType": "address",
          "name": "_address",
          "type": "address"
        }
      ],
      "name": "setFrogReferalAddress",
      "outputs": [],
      "stateMutability": "nonpayable",
      "type": "function"
    },
    {
      "inputs": [
        {
          "internalType": "uint256",
          "name": "_maxUsd",
          "type": "uint256"
        }
      ],
      "name": "setMaxUsd",
      "outputs": [],
      "stateMutability": "nonpayable",
      "type": "function"
    },
    {
      "inputs": [
        {
          "internalType": "uint256",
          "name": "_minUsd",
          "type": "uint256"
        }
      ],
      "name": "setMinUsd",
      "outputs": [],
      "stateMutability": "nonpayable",
      "type": "function"
    },
    {
      "inputs": [
        {
          "internalType": "address",
          "name": "_address",
          "type": "address"
        }
      ],
      "name": "setPancakeMCAddress",
      "outputs": [],
      "stateMutability": "nonpayable",
      "type": "function"
    },
    {
      "inputs": [
        {
          "internalType": "address",
          "name": "_address",
          "type": "address"
        }
      ],
      "name": "setPancakePairAddress",
      "outputs": [],
      "stateMutability": "nonpayable",
      "type": "function"
    },
    {
      "inputs": [
        {
          "internalType": "address",
          "name": "_address",
          "type": "address"
        }
      ],
      "name": "setPancakeRouterAddress",
      "outputs": [],
      "stateMutability": "nonpayable",
      "type": "function"
    },
    {
      "inputs": [
        {
          "internalType": "address",
          "name": "_cakeContractAddress",
          "type": "address"
        }
      ],
      "name": "setToken0ContractAddress",
      "outputs": [],
      "stateMutability": "nonpayable",
      "type": "function"
    },
    {
      "inputs": [
        {
          "internalType": "address",
          "name": "_address",
          "type": "address"
        }
      ],
      "name": "setToken1ContractAddress",
      "outputs": [],
      "stateMutability": "nonpayable",
      "type": "function"
    },
    {
      "inputs": [
        {
          "internalType": "address",
          "name": "_address",
          "type": "address"
        }
      ],
      "name": "setUsdContractAddress",
      "outputs": [],
      "stateMutability": "nonpayable",
      "type": "function"
    },
    {
      "inputs": [],
      "name": "token0",
      "outputs": [
        {
          "internalType": "address",
          "name": "",
          "type": "address"
        }
      ],
      "stateMutability": "view",
      "type": "function"
    },
    {
      "inputs": [],
      "name": "token1",
      "outputs": [
        {
          "internalType": "address",
          "name": "",
          "type": "address"
        }
      ],
      "stateMutability": "view",
      "type": "function"
    },
    {
      "inputs": [
        {
          "internalType": "address",
          "name": "newOwner",
          "type": "address"
        }
      ],
      "name": "transferOwnership",
      "outputs": [],
      "stateMutability": "nonpayable",
      "type": "function"
    },
    {
      "inputs": [
        {
          "internalType": "uint256",
          "name": "_amount",
          "type": "uint256"
        }
      ],
      "name": "withdraw",
      "outputs": [
        {
          "internalType": "bool",
          "name": "success",
          "type": "bool"
        }
      ],
      "stateMutability": "nonpayable",
      "type": "function"
    },
    {
      "inputs": [
        {
          "internalType": "address",
          "name": "",
          "type": "address"
        }
      ],
      "name": "withdrawOf",
      "outputs": [
        {
          "internalType": "uint256",
          "name": "",
          "type": "uint256"
        }
      ],
      "stateMutability": "view",
      "type": "function"
    },
    {
      "stateMutability": "payable",
      "type": "receive"
    }
  ],
  "bytecode": "0x608060405260006001556127106002556402540be4006018553480156200002557600080fd5b5060405162006f6338038062006f6383398181016040528101906200004b919062000ad6565b6200006b6200005f620001d160201b60201c565b620001d960201b60201c565b81600b60006101000a81548173ffffffffffffffffffffffffffffffffffffffff021916908373ffffffffffffffffffffffffffffffffffffffff160217905550610bb860158190555060155460148190555067016345785d8a000060128190555068056bc75e2d6310000060138190555080600a8190555082601760006101000a81548160ff0219169083151502179055506200010f866200029d60201b60201c565b6200012085620003ba60201b60201c565b620001457355d398326f99059ff775485246999027b3197955620004d760201b60201c565b6200016a7310ed43c718714eb63d5aa57b78b54704e256024e620005f460201b60201c565b6200018f73a5f8c5dbd5f286960b9d90548680ae5ebff076526200071160201b60201c565b620001b4730ed7e52944161450477ee417de9cd3a859b14fd06200082e60201b60201c565b620001c5846200094b60201b60201c565b50505050505062000cad565b600033905090565b60008060009054906101000a900473ffffffffffffffffffffffffffffffffffffffff169050816000806101000a81548173ffffffffffffffffffffffffffffffffffffffff021916908373ffffffffffffffffffffffffffffffffffffffff1602179055508173ffffffffffffffffffffffffffffffffffffffff168173ffffffffffffffffffffffffffffffffffffffff167f8be0079c531659141344cd1fd0a4f28419497f9722a3daafe3b4186f6b6457e060405160405180910390a35050565b620002ad62000a6860201b60201c565b73ffffffffffffffffffffffffffffffffffffffff163373ffffffffffffffffffffffffffffffffffffffff161480620003345750600b60009054906101000a900473ffffffffffffffffffffffffffffffffffffffff1673ffffffffffffffffffffffffffffffffffffffff163373ffffffffffffffffffffffffffffffffffffffff16145b62000376576040517f08c379a00000000000000000000000000000000000000000000000000000000081526004016200036d9062000b93565b60405180910390fd5b80600360006101000a81548173ffffffffffffffffffffffffffffffffffffffff021916908373ffffffffffffffffffffffffffffffffffffffff16021790555050565b620003ca62000a6860201b60201c565b73ffffffffffffffffffffffffffffffffffffffff163373ffffffffffffffffffffffffffffffffffffffff161480620004515750600b60009054906101000a900473ffffffffffffffffffffffffffffffffffffffff1673ffffffffffffffffffffffffffffffffffffffff163373ffffffffffffffffffffffffffffffffffffffff16145b62000493576040517f08c379a00000000000000000000000000000000000000000000000000000000081526004016200048a9062000b93565b60405180910390fd5b80600460006101000a81548173ffffffffffffffffffffffffffffffffffffffff021916908373ffffffffffffffffffffffffffffffffffffffff16021790555050565b620004e762000a6860201b60201c565b73ffffffffffffffffffffffffffffffffffffffff163373ffffffffffffffffffffffffffffffffffffffff1614806200056e5750600b60009054906101000a900473ffffffffffffffffffffffffffffffffffffffff1673ffffffffffffffffffffffffffffffffffffffff163373ffffffffffffffffffffffffffffffffffffffff16145b620005b0576040517f08c379a0000000000000000000000000000000000000000000000000000000008152600401620005a79062000b93565b60405180910390fd5b80600560006101000a81548173ffffffffffffffffffffffffffffffffffffffff021916908373ffffffffffffffffffffffffffffffffffffffff16021790555050565b6200060462000a6860201b60201c565b73ffffffffffffffffffffffffffffffffffffffff163373ffffffffffffffffffffffffffffffffffffffff1614806200068b5750600b60009054906101000a900473ffffffffffffffffffffffffffffffffffffffff1673ffffffffffffffffffffffffffffffffffffffff163373ffffffffffffffffffffffffffffffffffffffff16145b620006cd576040517f08c379a0000000000000000000000000000000000000000000000000000000008152600401620006c49062000b93565b60405180910390fd5b80600660006101000a81548173ffffffffffffffffffffffffffffffffffffffff021916908373ffffffffffffffffffffffffffffffffffffffff16021790555050565b6200072162000a6860201b60201c565b73ffffffffffffffffffffffffffffffffffffffff163373ffffffffffffffffffffffffffffffffffffffff161480620007a85750600b60009054906101000a900473ffffffffffffffffffffffffffffffffffffffff1673ffffffffffffffffffffffffffffffffffffffff163373ffffffffffffffffffffffffffffffffffffffff16145b620007ea576040517f08c379a0000000000000000000000000000000000000000000000000000000008152600401620007e19062000b93565b60405180910390fd5b80600760006101000a81548173ffffffffffffffffffffffffffffffffffffffff021916908373ffffffffffffffffffffffffffffffffffffffff16021790555050565b6200083e62000a6860201b60201c565b73ffffffffffffffffffffffffffffffffffffffff163373ffffffffffffffffffffffffffffffffffffffff161480620008c55750600b60009054906101000a900473ffffffffffffffffffffffffffffffffffffffff1673ffffffffffffffffffffffffffffffffffffffff163373ffffffffffffffffffffffffffffffffffffffff16145b62000907576040517f08c379a0000000000000000000000000000000000000000000000000000000008152600401620008fe9062000b93565b60405180910390fd5b80600860006101000a81548173ffffffffffffffffffffffffffffffffffffffff021916908373ffffffffffffffffffffffffffffffffffffffff16021790555050565b6200095b62000a6860201b60201c565b73ffffffffffffffffffffffffffffffffffffffff163373ffffffffffffffffffffffffffffffffffffffff161480620009e25750600b60009054906101000a900473ffffffffffffffffffffffffffffffffffffffff1673ffffffffffffffffffffffffffffffffffffffff163373ffffffffffffffffffffffffffffffffffffffff16145b62000a24576040517f08c379a000000000000000000000000000000000000000000000000000000000815260040162000a1b9062000b93565b60405180910390fd5b80600960006101000a81548173ffffffffffffffffffffffffffffffffffffffff021916908373ffffffffffffffffffffffffffffffffffffffff16021790555050565b60008060009054906101000a900473ffffffffffffffffffffffffffffffffffffffff16905090565b60008151905062000aa28162000c5f565b92915050565b60008151905062000ab98162000c79565b92915050565b60008151905062000ad08162000c93565b92915050565b60008060008060008060c0878903121562000af057600080fd5b600062000b0089828a0162000a91565b965050602062000b1389828a0162000a91565b955050604062000b2689828a0162000a91565b945050606062000b3989828a0162000aa8565b935050608062000b4c89828a0162000a91565b92505060a062000b5f89828a0162000abf565b9150509295509295509295565b600062000b7b60228362000bb5565b915062000b888262000c10565b604082019050919050565b6000602082019050818103600083015262000bae8162000b6c565b9050919050565b600082825260208201905092915050565b600062000bd38262000be6565b9050919050565b60008115159050919050565b600073ffffffffffffffffffffffffffffffffffffffff82169050919050565b6000819050919050565b7f43616c6c6572206973206e6f742062656e6566696369617279206f72206f776e60008201527f6572000000000000000000000000000000000000000000000000000000000000602082015250565b62000c6a8162000bc6565b811462000c7657600080fd5b50565b62000c848162000bda565b811462000c9057600080fd5b50565b62000c9e8162000c06565b811462000caa57600080fd5b50565b6162a68062000cbd6000396000f3fe60806040526004361061021e5760003560e01c8063715018a611610123578063cb0a14eb116100ab578063e2bbb1581161006f578063e2bbb158146107cc578063eedbc056146107fc578063f2fde38b14610825578063f914958b1461084e578063fd0b2fec1461088b57610225565b8063cb0a14eb146106e7578063d21220a714610710578063d736f8a61461073b578063d80ffb2014610764578063dde7cd511461078f57610225565b80638da5cb5b116100f25780638da5cb5b14610602578063929066f51461062d578063b88a802f1461066a578063bf4f000414610681578063c0cb7c6a146106aa57610225565b8063715018a61461056e5780637a6620d1146105855780637ce3489b146105ae578063851ed85e146105d757610225565b806323e3fbd5116101a657806338af3eed1161017557806338af3eed14610486578063457aa181146104b157806351b80e41146104da5780635aa68ac01461050557806370a082311461053157610225565b806323e3fbd5146103a3578063295f39b1146103e05780632e1a7d4d1461040c57806335c1d3491461044957610225565b80631c3b3902116101ed5780631c3b3902146102c05780631d62ebd9146102e95780631d6ca518146103265780631dc211941461034f57806323ce7fb81461037a57610225565b80630dfe16811461022a5780630eecae2114610255578063158f3fe81461026c5780631c31f7101461029757610225565b3661022557005b600080fd5b34801561023657600080fd5b5061023f6108b4565b60405161024c91906155fa565b60405180910390f35b34801561026157600080fd5b5061026a6108da565b005b34801561027857600080fd5b50610281611029565b60405161028e9190615a57565b60405180910390f35b3480156102a357600080fd5b506102be60048036038101906102b99190614fc8565b61102f565b005b3480156102cc57600080fd5b506102e760048036038101906102e29190614fc8565b6111bc565b005b3480156102f557600080fd5b50610310600480360381019061030b9190614fc8565b6112cd565b60405161031d9190615a57565b60405180910390f35b34801561033257600080fd5b5061034d60048036038101906103489190615133565b6112e5565b005b34801561035b57600080fd5b506103646113bc565b6040516103719190615a57565b60405180910390f35b34801561038657600080fd5b506103a1600480360381019061039c9190614fc8565b6113c1565b005b3480156103af57600080fd5b506103ca60048036038101906103c59190614fc8565b6114d2565b6040516103d79190615a57565b60405180910390f35b3480156103ec57600080fd5b506103f56114ea565b604051610403929190615aa2565b60405180910390f35b34801561041857600080fd5b50610433600480360381019061042e9190615133565b611696565b604051610440919061581c565b60405180910390f35b34801561045557600080fd5b50610470600480360381019061046b9190615133565b611a56565b60405161047d91906155fa565b60405180910390f35b34801561049257600080fd5b5061049b611a95565b6040516104a891906155fa565b60405180910390f35b3480156104bd57600080fd5b506104d860048036038101906104d39190615133565b611abb565b005b3480156104e657600080fd5b506104ef611b92565b6040516104fc9190615a57565b60405180910390f35b34801561051157600080fd5b5061051a611b98565b6040516105289291906157ec565b60405180910390f35b34801561053d57600080fd5b5061055860048036038101906105539190614fc8565b611dd1565b6040516105659190615a57565b60405180910390f35b34801561057a57600080fd5b50610583611de9565b005b34801561059157600080fd5b506105ac60048036038101906105a79190614fc8565b611dfd565b005b3480156105ba57600080fd5b506105d560048036038101906105d09190615133565b611f0e565b005b3480156105e357600080fd5b506105ec61205a565b6040516105f99190615a57565b60405180910390f35b34801561060e57600080fd5b50610617612060565b60405161062491906155fa565b60405180910390f35b34801561063957600080fd5b50610654600480360381019061064f9190614fc8565b612089565b604051610661919061581c565b60405180910390f35b34801561067657600080fd5b5061067f6120df565b005b34801561068d57600080fd5b506106a860048036038101906106a39190614fc8565b612459565b005b3480156106b657600080fd5b506106d160048036038101906106cc9190614fc8565b61256a565b6040516106de9190615a57565b60405180910390f35b3480156106f357600080fd5b5061070e60048036038101906107099190614fc8565b612582565b005b34801561071c57600080fd5b50610725612693565b60405161073291906155fa565b60405180910390f35b34801561074757600080fd5b50610762600480360381019061075d9190614ff1565b6126b9565b005b34801561077057600080fd5b50610779612914565b6040516107869190615a57565b60405180910390f35b34801561079b57600080fd5b506107b660048036038101906107b19190614fc8565b61291a565b6040516107c3919061581c565b60405180910390f35b6107e660048036038101906107e191906151d4565b61293a565b6040516107f3919061581c565b60405180910390f35b34801561080857600080fd5b50610823600480360381019061081e9190614fc8565b612d63565b005b34801561083157600080fd5b5061084c60048036038101906108479190614fc8565b612e74565b005b34801561085a57600080fd5b5061087560048036038101906108709190615185565b612ef8565b6040516108829190615a57565b60405180910390f35b34801561089757600080fd5b506108b260048036038101906108ad9190614fc8565b6131cd565b005b600360009054906101000a900473ffffffffffffffffffffffffffffffffffffffff1681565b6000601654600360009054906101000a900473ffffffffffffffffffffffffffffffffffffffff1673ffffffffffffffffffffffffffffffffffffffff166370a08231306040518263ffffffff1660e01b815260040161093a91906155fa565b60206040518083038186803b15801561095257600080fd5b505afa158015610966573d6000803e3d6000fd5b505050506040513d601f19601f8201168201806040525081019061098a919061515c565b6109949190615c7e565b9050600060108054905067ffffffffffffffff8111156109dd577f4e487b7100000000000000000000000000000000000000000000000000000000600052604160045260246000fd5b604051908082528060200260200182016040528015610a0b5781602001602082028036833780820191505090505b509050600060606000806000610a1f611b98565b80965081975050506000851115611017578692506000612710601454612710610a489190615c7e565b89610a539190615c24565b610a5d9190615bf3565b905060006001609688610a709190615bf3565b610a7a9190615b9d565b90508067ffffffffffffffff811115610abc577f4e487b7100000000000000000000000000000000000000000000000000000000600052604160045260246000fd5b604051908082528060200260200182016040528015610aea5781602001602082028036833780820191505090505b509550610af787826132de565b955060005b81811015610bea576000878281518110610b3f577f4e487b7100000000000000000000000000000000000000000000000000000000600052603260045260246000fd5b60200260200101519050600d60008b8381518110610b86577f4e487b7100000000000000000000000000000000000000000000000000000000600052603260045260246000fd5b602002602001015173ffffffffffffffffffffffffffffffffffffffff1673ffffffffffffffffffffffffffffffffffffffff1681526020019081526020016000205486610bd49190615b9d565b9550508080610be290615d7f565b915050610afc565b5060016000815480929190610bfe90615d7f565b919050555060005b81811015610e0c57600089888381518110610c4a577f4e487b7100000000000000000000000000000000000000000000000000000000600052603260045260246000fd5b602002602001015181518110610c89577f4e487b7100000000000000000000000000000000000000000000000000000000600052603260045260246000fd5b602002602001015190506000866064600d60008573ffffffffffffffffffffffffffffffffffffffff1673ffffffffffffffffffffffffffffffffffffffff16815260200190815260200160002054610ce29190615c24565b610cec9190615bf3565b9050600060648287610cfe9190615c24565b610d089190615bf3565b90506000610d17848f856134bb565b905081600f60008673ffffffffffffffffffffffffffffffffffffffff1673ffffffffffffffffffffffffffffffffffffffff1681526020019081526020016000206000828254610d689190615b9d565b925050819055508160166000828254610d819190615b9d565b925050819055508373ffffffffffffffffffffffffffffffffffffffff166001547f9515c6f2bffb313099bcee0fbec701e0d75b3e20ca6032804286cb49bb4af2b484604051610dd19190615a57565b60405180910390a3818a610de59190615c7e565b99508088610df39190615b9d565b9750505050508080610e0490615d7f565b915050610c06565b506001547f7499611827a1dc9f9fc8242a819e0ba432979cec101754acb79aa4f8d85ad5a58a878c610e3e9190615c7e565b88604051610e4e93929190615acb565b60405180910390a2600360009054906101000a900473ffffffffffffffffffffffffffffffffffffffff1673ffffffffffffffffffffffffffffffffffffffff1663a9059cbb600960009054906101000a900473ffffffffffffffffffffffffffffffffffffffff16856040518363ffffffff1660e01b8152600401610ed5929190615762565b602060405180830381600087803b158015610eef57600080fd5b505af1158015610f03573d6000803e3d6000fd5b505050506040513d601f19601f82011682018060405250810190610f2791906150bb565b508285610f349190615c7e565b9450600360009054906101000a900473ffffffffffffffffffffffffffffffffffffffff1673ffffffffffffffffffffffffffffffffffffffff1663a9059cbb600b60009054906101000a900473ffffffffffffffffffffffffffffffffffffffff16876040518363ffffffff1660e01b8152600401610fb5929190615762565b602060405180830381600087803b158015610fcf57600080fd5b505af1158015610fe3573d6000803e3d6000fd5b505050506040513d601f19601f8201168201806040525081019061100791906150bb565b506110106134c4565b5050611020565b61101f6134c4565b5b50505050505050565b60135481565b611037612060565b73ffffffffffffffffffffffffffffffffffffffff163373ffffffffffffffffffffffffffffffffffffffff1614806110bd5750600b60009054906101000a900473ffffffffffffffffffffffffffffffffffffffff1673ffffffffffffffffffffffffffffffffffffffff163373ffffffffffffffffffffffffffffffffffffffff16145b6110fc576040517f08c379a00000000000000000000000000000000000000000000000000000000081526004016110f3906158f7565b60405180910390fd5b8073ffffffffffffffffffffffffffffffffffffffff16600b60009054906101000a900473ffffffffffffffffffffffffffffffffffffffff1673ffffffffffffffffffffffffffffffffffffffff167f768099735d1c322a05a5b9d7b76d99682a1833d3f7055e5ede25e0f2eeaa8c6d60405160405180910390a380600b60006101000a81548173ffffffffffffffffffffffffffffffffffffffff021916908373ffffffffffffffffffffffffffffffffffffffff16021790555050565b6111c4612060565b73ffffffffffffffffffffffffffffffffffffffff163373ffffffffffffffffffffffffffffffffffffffff16148061124a5750600b60009054906101000a900473ffffffffffffffffffffffffffffffffffffffff1673ffffffffffffffffffffffffffffffffffffffff163373ffffffffffffffffffffffffffffffffffffffff16145b611289576040517f08c379a0000000000000000000000000000000000000000000000000000000008152600401611280906158f7565b60405180910390fd5b80600960006101000a81548173ffffffffffffffffffffffffffffffffffffffff021916908373ffffffffffffffffffffffffffffffffffffffff16021790555050565b600f6020528060005260406000206000915090505481565b6112ed612060565b73ffffffffffffffffffffffffffffffffffffffff163373ffffffffffffffffffffffffffffffffffffffff1614806113735750600b60009054906101000a900473ffffffffffffffffffffffffffffffffffffffff1673ffffffffffffffffffffffffffffffffffffffff163373ffffffffffffffffffffffffffffffffffffffff16145b6113b2576040517f08c379a00000000000000000000000000000000000000000000000000000000081526004016113a9906158f7565b60405180910390fd5b8060138190555050565b600090565b6113c9612060565b73ffffffffffffffffffffffffffffffffffffffff163373ffffffffffffffffffffffffffffffffffffffff16148061144f5750600b60009054906101000a900473ffffffffffffffffffffffffffffffffffffffff1673ffffffffffffffffffffffffffffffffffffffff163373ffffffffffffffffffffffffffffffffffffffff16145b61148e576040517f08c379a0000000000000000000000000000000000000000000000000000000008152600401611485906158f7565b60405180910390fd5b80600760006101000a81548173ffffffffffffffffffffffffffffffffffffffff021916908373ffffffffffffffffffffffffffffffffffffffff16021790555050565b600c6020528060005260406000206000915090505481565b600080600080600860009054906101000a900473ffffffffffffffffffffffffffffffffffffffff1673ffffffffffffffffffffffffffffffffffffffff16630902f1ac6040518163ffffffff1660e01b815260040160606040518083038186803b15801561155857600080fd5b505afa15801561156c573d6000803e3d6000fd5b505050506040513d601f19601f8201168201806040525081019061159091906150e4565b50915091506000600860009054906101000a900473ffffffffffffffffffffffffffffffffffffffff1673ffffffffffffffffffffffffffffffffffffffff166318160ddd6040518163ffffffff1660e01b815260040160206040518083038186803b1580156115ff57600080fd5b505afa158015611613573d6000803e3d6000fd5b505050506040513d601f19601f82011682018060405250810190611637919061515c565b905080600254846dffffffffffffffffffffffffffff166116589190615c24565b6116629190615bf3565b945080600254836dffffffffffffffffffffffffffff166116839190615c24565b61168d9190615bf3565b93505050509091565b600081600e60003373ffffffffffffffffffffffffffffffffffffffff1673ffffffffffffffffffffffffffffffffffffffff16815260200190815260200160002054600c60003373ffffffffffffffffffffffffffffffffffffffff1673ffffffffffffffffffffffffffffffffffffffff16815260200190815260200160002054600d60003373ffffffffffffffffffffffffffffffffffffffff1673ffffffffffffffffffffffffffffffffffffffff168152602001908152602001600020546117639190615b9d565b61176d9190615c7e565b10156117ae576040517f08c379a00000000000000000000000000000000000000000000000000000000081526004016117a590615917565b60405180910390fd5b6000806117b96114ea565b91509150600060025461181183600460009054906101000a900473ffffffffffffffffffffffffffffffffffffffff16600560009054906101000a900473ffffffffffffffffffffffffffffffffffffffff16612ef8565b61186085600360009054906101000a900473ffffffffffffffffffffffffffffffffffffffff16600560009054906101000a900473ffffffffffffffffffffffffffffffffffffffff16612ef8565b61186a9190615b9d565b86600e60003373ffffffffffffffffffffffffffffffffffffffff1673ffffffffffffffffffffffffffffffffffffffff16815260200190815260200160002054600c60003373ffffffffffffffffffffffffffffffffffffffff1673ffffffffffffffffffffffffffffffffffffffff16815260200190815260200160002054600d60003373ffffffffffffffffffffffffffffffffffffffff1673ffffffffffffffffffffffffffffffffffffffff168152602001908152602001600020546119359190615b9d565b61193f9190615c7e565b6119499190615c7e565b6119539190615c24565b61195d9190615bf3565b9050600081148061197057506012548110155b6119af576040517f08c379a00000000000000000000000000000000000000000000000000000000081526004016119a6906159b7565b60405180910390fd5b6013548111156119f4576040517f08c379a00000000000000000000000000000000000000000000000000000000081526004016119eb90615977565b60405180910390fd5b84600e60003373ffffffffffffffffffffffffffffffffffffffff1673ffffffffffffffffffffffffffffffffffffffff1681526020019081526020016000206000828254611a439190615b9d565b9250508190555060019350505050919050565b60108181548110611a6657600080fd5b906000526020600020016000915054906101000a900473ffffffffffffffffffffffffffffffffffffffff1681565b600b60009054906101000a900473ffffffffffffffffffffffffffffffffffffffff1681565b611ac3612060565b73ffffffffffffffffffffffffffffffffffffffff163373ffffffffffffffffffffffffffffffffffffffff161480611b495750600b60009054906101000a900473ffffffffffffffffffffffffffffffffffffffff1673ffffffffffffffffffffffffffffffffffffffff163373ffffffffffffffffffffffffffffffffffffffff16145b611b88576040517f08c379a0000000000000000000000000000000000000000000000000000000008152600401611b7f906158f7565b60405180910390fd5b8060128190555050565b60125481565b6060600060108054905067ffffffffffffffff811115611be1577f4e487b7100000000000000000000000000000000000000000000000000000000600052604160045260246000fd5b604051908082528060200260200182016040528015611c0f5781602001602082028036833780820191505090505b5091506000905060005b601080549050811015611dcc576000600d600060108481548110611c66577f4e487b7100000000000000000000000000000000000000000000000000000000600052603260045260246000fd5b9060005260206000200160009054906101000a900473ffffffffffffffffffffffffffffffffffffffff1673ffffffffffffffffffffffffffffffffffffffff1673ffffffffffffffffffffffffffffffffffffffff168152602001908152602001600020541115611db95760108181548110611d0c577f4e487b7100000000000000000000000000000000000000000000000000000000600052603260045260246000fd5b9060005260206000200160009054906101000a900473ffffffffffffffffffffffffffffffffffffffff16838381518110611d70577f4e487b7100000000000000000000000000000000000000000000000000000000600052603260045260246000fd5b602002602001019073ffffffffffffffffffffffffffffffffffffffff16908173ffffffffffffffffffffffffffffffffffffffff16815250508180611db590615d7f565b9250505b8080611dc490615d7f565b915050611c19565b509091565b600d6020528060005260406000206000915090505481565b611df16140d7565b611dfb6000614155565b565b611e05612060565b73ffffffffffffffffffffffffffffffffffffffff163373ffffffffffffffffffffffffffffffffffffffff161480611e8b5750600b60009054906101000a900473ffffffffffffffffffffffffffffffffffffffff1673ffffffffffffffffffffffffffffffffffffffff163373ffffffffffffffffffffffffffffffffffffffff16145b611eca576040517f08c379a0000000000000000000000000000000000000000000000000000000008152600401611ec1906158f7565b60405180910390fd5b80600360006101000a81548173ffffffffffffffffffffffffffffffffffffffff021916908373ffffffffffffffffffffffffffffffffffffffff16021790555050565b611f16612060565b73ffffffffffffffffffffffffffffffffffffffff163373ffffffffffffffffffffffffffffffffffffffff161480611f9c5750600b60009054906101000a900473ffffffffffffffffffffffffffffffffffffffff1673ffffffffffffffffffffffffffffffffffffffff163373ffffffffffffffffffffffffffffffffffffffff16145b611fdb576040517f08c379a0000000000000000000000000000000000000000000000000000000008152600401611fd2906158f7565b60405180910390fd5b601554811115612020576040517f08c379a000000000000000000000000000000000000000000000000000000000815260040161201790615877565b60405180910390fd5b806014547f44cb215a0ee4011e0802aea4220545b8f823c5041bb303a4ae1219f99f91e65b60405160405180910390a38060148190555050565b60025481565b60008060009054906101000a900473ffffffffffffffffffffffffffffffffffffffff16905090565b6000601160008373ffffffffffffffffffffffffffffffffffffffff1673ffffffffffffffffffffffffffffffffffffffff16815260200190815260200160002060009054906101000a900460ff169050919050565b6000600f60003373ffffffffffffffffffffffffffffffffffffffff1673ffffffffffffffffffffffffffffffffffffffff1681526020019081526020016000205411612161576040517f08c379a000000000000000000000000000000000000000000000000000000000815260040161215890615957565b60405180910390fd5b600f60003373ffffffffffffffffffffffffffffffffffffffff1673ffffffffffffffffffffffffffffffffffffffff16815260200190815260200160002054600360009054906101000a900473ffffffffffffffffffffffffffffffffffffffff1673ffffffffffffffffffffffffffffffffffffffff166370a08231306040518263ffffffff1660e01b81526004016121fc91906155fa565b60206040518083038186803b15801561221457600080fd5b505afa158015612228573d6000803e3d6000fd5b505050506040513d601f19601f8201168201806040525081019061224c919061515c565b101561228d576040517f08c379a000000000000000000000000000000000000000000000000000000000815260040161228490615837565b60405180910390fd5b600360009054906101000a900473ffffffffffffffffffffffffffffffffffffffff1673ffffffffffffffffffffffffffffffffffffffff1663a9059cbb33600f60003373ffffffffffffffffffffffffffffffffffffffff1673ffffffffffffffffffffffffffffffffffffffff168152602001908152602001600020546040518363ffffffff1660e01b8152600401612329929190615762565b602060405180830381600087803b15801561234357600080fd5b505af1158015612357573d6000803e3d6000fd5b505050506040513d601f19601f8201168201806040525081019061237b91906150bb565b6123ba576040517f08c379a00000000000000000000000000000000000000000000000000000000081526004016123b190615a17565b60405180910390fd5b600f60003373ffffffffffffffffffffffffffffffffffffffff1673ffffffffffffffffffffffffffffffffffffffff168152602001908152602001600020546016600082825461240b9190615c7e565b925050819055506000600f60003373ffffffffffffffffffffffffffffffffffffffff1673ffffffffffffffffffffffffffffffffffffffff16815260200190815260200160002081905550565b612461612060565b73ffffffffffffffffffffffffffffffffffffffff163373ffffffffffffffffffffffffffffffffffffffff1614806124e75750600b60009054906101000a900473ffffffffffffffffffffffffffffffffffffffff1673ffffffffffffffffffffffffffffffffffffffff163373ffffffffffffffffffffffffffffffffffffffff16145b612526576040517f08c379a000000000000000000000000000000000000000000000000000000000815260040161251d906158f7565b60405180910390fd5b80600560006101000a81548173ffffffffffffffffffffffffffffffffffffffff021916908373ffffffffffffffffffffffffffffffffffffffff16021790555050565b600e6020528060005260406000206000915090505481565b61258a612060565b73ffffffffffffffffffffffffffffffffffffffff163373ffffffffffffffffffffffffffffffffffffffff1614806126105750600b60009054906101000a900473ffffffffffffffffffffffffffffffffffffffff1673ffffffffffffffffffffffffffffffffffffffff163373ffffffffffffffffffffffffffffffffffffffff16145b61264f576040517f08c379a0000000000000000000000000000000000000000000000000000000008152600401612646906158f7565b60405180910390fd5b80600460006101000a81548173ffffffffffffffffffffffffffffffffffffffff021916908373ffffffffffffffffffffffffffffffffffffffff16021790555050565b600460009054906101000a900473ffffffffffffffffffffffffffffffffffffffff1681565b6126c1612060565b73ffffffffffffffffffffffffffffffffffffffff163373ffffffffffffffffffffffffffffffffffffffff1614806127475750600b60009054906101000a900473ffffffffffffffffffffffffffffffffffffffff1673ffffffffffffffffffffffffffffffffffffffff163373ffffffffffffffffffffffffffffffffffffffff16145b612786576040517f08c379a000000000000000000000000000000000000000000000000000000000815260040161277d906158f7565b60405180910390fd5b85600360006101000a81548173ffffffffffffffffffffffffffffffffffffffff021916908373ffffffffffffffffffffffffffffffffffffffff16021790555084600460006101000a81548173ffffffffffffffffffffffffffffffffffffffff021916908373ffffffffffffffffffffffffffffffffffffffff16021790555082600660006101000a81548173ffffffffffffffffffffffffffffffffffffffff021916908373ffffffffffffffffffffffffffffffffffffffff16021790555081600760006101000a81548173ffffffffffffffffffffffffffffffffffffffff021916908373ffffffffffffffffffffffffffffffffffffffff16021790555080600860006101000a81548173ffffffffffffffffffffffffffffffffffffffff021916908373ffffffffffffffffffffffffffffffffffffffff16021790555083600560006101000a81548173ffffffffffffffffffffffffffffffffffffffff021916908373ffffffffffffffffffffffffffffffffffffffff160217905550505050505050565b60015481565b60116020528060005260406000206000915054906101000a900460ff1681565b6000601760009054906101000a900460ff161561299857348214612993576040517f08c379a000000000000000000000000000000000000000000000000000000000815260040161298a906158b7565b60405180910390fd5b612b75565b81600460009054906101000a900473ffffffffffffffffffffffffffffffffffffffff1673ffffffffffffffffffffffffffffffffffffffff166370a08231336040518263ffffffff1660e01b81526004016129f491906155fa565b60206040518083038186803b158015612a0c57600080fd5b505afa158015612a20573d6000803e3d6000fd5b505050506040513d601f19601f82011682018060405250810190612a44919061515c565b1015612a85576040517f08c379a0000000000000000000000000000000000000000000000000000000008152600401612a7c906159d7565b60405180910390fd5b81600460009054906101000a900473ffffffffffffffffffffffffffffffffffffffff1673ffffffffffffffffffffffffffffffffffffffff1663dd62ed3e33306040518363ffffffff1660e01b8152600401612ae3929190615615565b60206040518083038186803b158015612afb57600080fd5b505afa158015612b0f573d6000803e3d6000fd5b505050506040513d601f19601f82011682018060405250810190612b33919061515c565b1015612b74576040517f08c379a0000000000000000000000000000000000000000000000000000000008152600401612b6b90615857565b60405180910390fd5b5b82600360009054906101000a900473ffffffffffffffffffffffffffffffffffffffff1673ffffffffffffffffffffffffffffffffffffffff166370a08231336040518263ffffffff1660e01b8152600401612bd191906155fa565b60206040518083038186803b158015612be957600080fd5b505afa158015612bfd573d6000803e3d6000fd5b505050506040513d601f19601f82011682018060405250810190612c21919061515c565b1015612c62576040517f08c379a0000000000000000000000000000000000000000000000000000000008152600401612c59906158d7565b60405180910390fd5b82600360009054906101000a900473ffffffffffffffffffffffffffffffffffffffff1673ffffffffffffffffffffffffffffffffffffffff1663dd62ed3e33306040518363ffffffff1660e01b8152600401612cc0929190615615565b60206040518083038186803b158015612cd857600080fd5b505afa158015612cec573d6000803e3d6000fd5b505050506040513d601f19601f82011682018060405250810190612d10919061515c565b1015612d51576040517f08c379a0000000000000000000000000000000000000000000000000000000008152600401612d4890615997565b60405180910390fd5b612d5b8383614219565b905092915050565b612d6b612060565b73ffffffffffffffffffffffffffffffffffffffff163373ffffffffffffffffffffffffffffffffffffffff161480612df15750600b60009054906101000a900473ffffffffffffffffffffffffffffffffffffffff1673ffffffffffffffffffffffffffffffffffffffff163373ffffffffffffffffffffffffffffffffffffffff16145b612e30576040517f08c379a0000000000000000000000000000000000000000000000000000000008152600401612e27906158f7565b60405180910390fd5b80600660006101000a81548173ffffffffffffffffffffffffffffffffffffffff021916908373ffffffffffffffffffffffffffffffffffffffff16021790555050565b612e7c6140d7565b600073ffffffffffffffffffffffffffffffffffffffff168173ffffffffffffffffffffffffffffffffffffffff161415612eec576040517f08c379a0000000000000000000000000000000000000000000000000000000008152600401612ee390615897565b60405180910390fd5b612ef581614155565b50565b60006060600267ffffffffffffffff811115612f3d577f4e487b7100000000000000000000000000000000000000000000000000000000600052604160045260246000fd5b604051908082528060200260200182016040528015612f6b5781602001602082028036833780820191505090505b5090508381600081518110612fa9577f4e487b7100000000000000000000000000000000000000000000000000000000600052603260045260246000fd5b602002602001019073ffffffffffffffffffffffffffffffffffffffff16908173ffffffffffffffffffffffffffffffffffffffff1681525050828160018151811061301e577f4e487b7100000000000000000000000000000000000000000000000000000000600052603260045260246000fd5b602002602001019073ffffffffffffffffffffffffffffffffffffffff16908173ffffffffffffffffffffffffffffffffffffffff16815250506060600267ffffffffffffffff81111561309b577f4e487b7100000000000000000000000000000000000000000000000000000000600052604160045260246000fd5b6040519080825280602002602001820160405280156130c95781602001602082028036833780820191505090505b509050600660009054906101000a900473ffffffffffffffffffffffffffffffffffffffff1673ffffffffffffffffffffffffffffffffffffffff1663d06ca61f87846040518363ffffffff1660e01b8152600401613129929190615a72565b60006040518083038186803b15801561314157600080fd5b505afa158015613155573d6000803e3d6000fd5b505050506040513d6000823e3d601f19601f8201168201806040525081019061317e919061507a565b9050806001815181106131ba577f4e487b7100000000000000000000000000000000000000000000000000000000600052603260045260246000fd5b6020026020010151925050509392505050565b6131d5612060565b73ffffffffffffffffffffffffffffffffffffffff163373ffffffffffffffffffffffffffffffffffffffff16148061325b5750600b60009054906101000a900473ffffffffffffffffffffffffffffffffffffffff1673ffffffffffffffffffffffffffffffffffffffff163373ffffffffffffffffffffffffffffffffffffffff16145b61329a576040517f08c379a0000000000000000000000000000000000000000000000000000000008152600401613291906158f7565b60405180910390fd5b80600860006101000a81548173ffffffffffffffffffffffffffffffffffffffff021916908373ffffffffffffffffffffffffffffffffffffffff16021790555050565b606060008267ffffffffffffffff811115613322577f4e487b7100000000000000000000000000000000000000000000000000000000600052604160045260246000fd5b6040519080825280602002602001820160405280156133505781602001602082028036833780820191505090505b5091505b82811015613443576000600161336986614e5a565b6133739190615b9d565b90506000805b858110156133e157828582815181106133bb577f4e487b7100000000000000000000000000000000000000000000000000000000600052603260045260246000fd5b602002602001015114156133ce57600191505b80806133d990615d7f565b915050613379565b508061343c5781848481518110613421577f4e487b7100000000000000000000000000000000000000000000000000000000600052603260045260246000fd5b602002602001018181525050828061343890615d7f565b9350505b5050613354565b60005b838110156134b357828181518110613487577f4e487b7100000000000000000000000000000000000000000000000000000000600052603260045260246000fd5b60200260200101805180919061349c90615d24565b8152505080806134ab90615d7f565b915050613446565b505092915050565b60009392505050565b60005b6010805490508110156140d457600060108281548110613510577f4e487b7100000000000000000000000000000000000000000000000000000000600052603260045260246000fd5b9060005260206000200160009054906101000a900473ffffffffffffffffffffffffffffffffffffffff1690506000600c60008373ffffffffffffffffffffffffffffffffffffffff1673ffffffffffffffffffffffffffffffffffffffff16815260200190815260200160002054111561366057600c60008273ffffffffffffffffffffffffffffffffffffffff1673ffffffffffffffffffffffffffffffffffffffff16815260200190815260200160002054600d60008373ffffffffffffffffffffffffffffffffffffffff1673ffffffffffffffffffffffffffffffffffffffff16815260200190815260200160002060008282546136139190615b9d565b925050819055506000600c60008373ffffffffffffffffffffffffffffffffffffffff1673ffffffffffffffffffffffffffffffffffffffff168152602001908152602001600020819055505b6000600e60008373ffffffffffffffffffffffffffffffffffffffff1673ffffffffffffffffffffffffffffffffffffffff1681526020019081526020016000205411801561372d5750600d60008273ffffffffffffffffffffffffffffffffffffffff1673ffffffffffffffffffffffffffffffffffffffff16815260200190815260200160002054600e60008373ffffffffffffffffffffffffffffffffffffffff1673ffffffffffffffffffffffffffffffffffffffff1681526020019081526020016000205411155b156140c057600e60008273ffffffffffffffffffffffffffffffffffffffff1673ffffffffffffffffffffffffffffffffffffffff16815260200190815260200160002054600d60008373ffffffffffffffffffffffffffffffffffffffff1673ffffffffffffffffffffffffffffffffffffffff16815260200190815260200160002060008282546137c09190615c7e565b92505081905550600760009054906101000a900473ffffffffffffffffffffffffffffffffffffffff1673ffffffffffffffffffffffffffffffffffffffff1663441a3e70600a54600e60008573ffffffffffffffffffffffffffffffffffffffff1673ffffffffffffffffffffffffffffffffffffffff168152602001908152602001600020546040518363ffffffff1660e01b8152600401613865929190615aa2565b600060405180830381600087803b15801561387f57600080fd5b505af1158015613893573d6000803e3d6000fd5b50505050600860009054906101000a900473ffffffffffffffffffffffffffffffffffffffff1673ffffffffffffffffffffffffffffffffffffffff1663095ea7b3600660009054906101000a900473ffffffffffffffffffffffffffffffffffffffff16600e60008573ffffffffffffffffffffffffffffffffffffffff1673ffffffffffffffffffffffffffffffffffffffff168152602001908152602001600020546040518363ffffffff1660e01b8152600401613955929190615762565b602060405180830381600087803b15801561396f57600080fd5b505af1158015613983573d6000803e3d6000fd5b505050506040513d601f19601f820116820180604052508101906139a791906150bb565b506000806139b36114ea565b91509150601760009054906101000a900460ff1615613ce457600080600660009054906101000a900473ffffffffffffffffffffffffffffffffffffffff1673ffffffffffffffffffffffffffffffffffffffff166302751cec600360009054906101000a900473ffffffffffffffffffffffffffffffffffffffff16600e60008973ffffffffffffffffffffffffffffffffffffffff1673ffffffffffffffffffffffffffffffffffffffff168152602001908152602001600020546002546126ac612710600e60008d73ffffffffffffffffffffffffffffffffffffffff1673ffffffffffffffffffffffffffffffffffffffff168152602001908152602001600020548b613ac49190615c24565b613ace9190615bf3565b613ad89190615c24565b613ae29190615bf3565b6002546126ac612710600e60008e73ffffffffffffffffffffffffffffffffffffffff1673ffffffffffffffffffffffffffffffffffffffff168152602001908152602001600020548b613b369190615c24565b613b409190615bf3565b613b4a9190615c24565b613b549190615bf3565b306104b042613b639190615b9d565b6040518763ffffffff1660e01b8152600401613b849695949392919061578b565b6040805180830381600087803b158015613b9d57600080fd5b505af1158015613bb1573d6000803e3d6000fd5b505050506040513d601f19601f82011682018060405250810190613bd59190615210565b91509150600360009054906101000a900473ffffffffffffffffffffffffffffffffffffffff1673ffffffffffffffffffffffffffffffffffffffff1663a9059cbb86846040518363ffffffff1660e01b8152600401613c36929190615762565b602060405180830381600087803b158015613c5057600080fd5b505af1158015613c64573d6000803e3d6000fd5b505050506040513d601f19601f82011682018060405250810190613c8891906150bb565b508473ffffffffffffffffffffffffffffffffffffffff166108fc60185483613cb19190615bf3565b9081150290604051600060405180830381858888f19350505050158015613cdc573d6000803e3d6000fd5b505050614078565b600080600660009054906101000a900473ffffffffffffffffffffffffffffffffffffffff1673ffffffffffffffffffffffffffffffffffffffff1663baa2abde600360009054906101000a900473ffffffffffffffffffffffffffffffffffffffff16600460009054906101000a900473ffffffffffffffffffffffffffffffffffffffff16600e60008a73ffffffffffffffffffffffffffffffffffffffff1673ffffffffffffffffffffffffffffffffffffffff168152602001908152602001600020546002546126ac612710600e60008e73ffffffffffffffffffffffffffffffffffffffff1673ffffffffffffffffffffffffffffffffffffffff168152602001908152602001600020548c613dff9190615c24565b613e099190615bf3565b613e139190615c24565b613e1d9190615bf3565b6002546126ac612710600e60008f73ffffffffffffffffffffffffffffffffffffffff1673ffffffffffffffffffffffffffffffffffffffff168152602001908152602001600020548c613e719190615c24565b613e7b9190615bf3565b613e859190615c24565b613e8f9190615bf3565b306104b042613e9e9190615b9d565b6040518863ffffffff1660e01b8152600401613ec09796959493929190615675565b6040805180830381600087803b158015613ed957600080fd5b505af1158015613eed573d6000803e3d6000fd5b505050506040513d601f19601f82011682018060405250810190613f119190615210565b91509150600360009054906101000a900473ffffffffffffffffffffffffffffffffffffffff1673ffffffffffffffffffffffffffffffffffffffff1663a9059cbb86846040518363ffffffff1660e01b8152600401613f72929190615762565b602060405180830381600087803b158015613f8c57600080fd5b505af1158015613fa0573d6000803e3d6000fd5b505050506040513d601f19601f82011682018060405250810190613fc491906150bb565b50600460009054906101000a900473ffffffffffffffffffffffffffffffffffffffff1673ffffffffffffffffffffffffffffffffffffffff1663a9059cbb86836040518363ffffffff1660e01b8152600401614022929190615762565b602060405180830381600087803b15801561403c57600080fd5b505af1158015614050573d6000803e3d6000fd5b505050506040513d601f19601f8201168201806040525081019061407491906150bb565b5050505b6000600e60008573ffffffffffffffffffffffffffffffffffffffff1673ffffffffffffffffffffffffffffffffffffffff1681526020019081526020016000208190555050505b5080806140cc90615d7f565b9150506134c7565b50565b6140df614e6c565b73ffffffffffffffffffffffffffffffffffffffff166140fd612060565b73ffffffffffffffffffffffffffffffffffffffff1614614153576040517f08c379a000000000000000000000000000000000000000000000000000000000815260040161414a90615937565b60405180910390fd5b565b60008060009054906101000a900473ffffffffffffffffffffffffffffffffffffffff169050816000806101000a81548173ffffffffffffffffffffffffffffffffffffffff021916908373ffffffffffffffffffffffffffffffffffffffff1602179055508173ffffffffffffffffffffffffffffffffffffffff168173ffffffffffffffffffffffffffffffffffffffff167f8be0079c531659141344cd1fd0a4f28419497f9722a3daafe3b4186f6b6457e060405160405180910390a35050565b6000600960009054906101000a900473ffffffffffffffffffffffffffffffffffffffff1673ffffffffffffffffffffffffffffffffffffffff1663929066f5336040518263ffffffff1660e01b815260040161427691906155fa565b60206040518083038186803b15801561428e57600080fd5b505afa1580156142a2573d6000803e3d6000fd5b505050506040513d601f19601f820116820180604052508101906142c691906150bb565b614305576040517f08c379a00000000000000000000000000000000000000000000000000000000081526004016142fc906159f7565b60405180910390fd5b6000806143106114ea565b91509150600060025461436883600460009054906101000a900473ffffffffffffffffffffffffffffffffffffffff16600560009054906101000a900473ffffffffffffffffffffffffffffffffffffffff16612ef8565b6143b785600360009054906101000a900473ffffffffffffffffffffffffffffffffffffffff16600560009054906101000a900473ffffffffffffffffffffffffffffffffffffffff16612ef8565b6143c19190615b9d565b600e60003373ffffffffffffffffffffffffffffffffffffffff1673ffffffffffffffffffffffffffffffffffffffff16815260200190815260200160002054600c60003373ffffffffffffffffffffffffffffffffffffffff1673ffffffffffffffffffffffffffffffffffffffff16815260200190815260200160002054600d60003373ffffffffffffffffffffffffffffffffffffffff1673ffffffffffffffffffffffffffffffffffffffff1681526020019081526020016000205461448b9190615b9d565b6144959190615c7e565b61449f9190615c24565b6144a99190615bf3565b905060006144fc86600460009054906101000a900473ffffffffffffffffffffffffffffffffffffffff16600560009054906101000a900473ffffffffffffffffffffffffffffffffffffffff16612ef8565b61454b88600360009054906101000a900473ffffffffffffffffffffffffffffffffffffffff16600560009054906101000a900473ffffffffffffffffffffffffffffffffffffffff16612ef8565b6145559190615b9d565b905060125481836145669190615b9d565b10156145a7576040517f08c379a000000000000000000000000000000000000000000000000000000000815260040161459e906159b7565b60405180910390fd5b60135481836145b69190615b9d565b11156145f7576040517f08c379a00000000000000000000000000000000000000000000000000000000081526004016145ee90615977565b60405180910390fd5b6000600360009054906101000a900473ffffffffffffffffffffffffffffffffffffffff1673ffffffffffffffffffffffffffffffffffffffff166323b872dd33308b6040518463ffffffff1660e01b81526004016146589392919061563e565b602060405180830381600087803b15801561467257600080fd5b505af1158015614686573d6000803e3d6000fd5b505050506040513d601f19601f820116820180604052508101906146aa91906150bb565b9050806146ec576040517f08c379a00000000000000000000000000000000000000000000000000000000081526004016146e390615a37565b60405180910390fd5b6000600360009054906101000a900473ffffffffffffffffffffffffffffffffffffffff1673ffffffffffffffffffffffffffffffffffffffff1663095ea7b3600660009054906101000a900473ffffffffffffffffffffffffffffffffffffffff168b6040518363ffffffff1660e01b815260040161476d929190615762565b602060405180830381600087803b15801561478757600080fd5b505af115801561479b573d6000803e3d6000fd5b505050506040513d601f19601f820116820180604052508101906147bf91906150bb565b50601760009054906101000a900460ff16156148fe57600660009054906101000a900473ffffffffffffffffffffffffffffffffffffffff1673ffffffffffffffffffffffffffffffffffffffff1663f305d71989600360009054906101000a900473ffffffffffffffffffffffffffffffffffffffff168c6126ac6127108f6148499190615bf3565b6148539190615c24565b6126ac6127108f6148649190615bf3565b61486e9190615c24565b306104b04261487d9190615b9d565b6040518863ffffffff1660e01b815260040161489e9695949392919061578b565b6060604051808303818588803b1580156148b757600080fd5b505af11580156148cb573d6000803e3d6000fd5b50505050506040513d601f19601f820116820180604052508101906148f0919061524c565b909150905080915050614c16565b600460009054906101000a900473ffffffffffffffffffffffffffffffffffffffff1673ffffffffffffffffffffffffffffffffffffffff166323b872dd33308b6040518463ffffffff1660e01b815260040161495d9392919061563e565b602060405180830381600087803b15801561497757600080fd5b505af115801561498b573d6000803e3d6000fd5b505050506040513d601f19601f820116820180604052508101906149af91906150bb565b6149ee576040517f08c379a00000000000000000000000000000000000000000000000000000000081526004016149e590615a37565b60405180910390fd5b600460009054906101000a900473ffffffffffffffffffffffffffffffffffffffff1673ffffffffffffffffffffffffffffffffffffffff1663095ea7b3600660009054906101000a900473ffffffffffffffffffffffffffffffffffffffff168a6040518363ffffffff1660e01b8152600401614a6d929190615762565b602060405180830381600087803b158015614a8757600080fd5b505af1158015614a9b573d6000803e3d6000fd5b505050506040513d601f19601f82011682018060405250810190614abf91906150bb565b5060006126ac6127108b614ad39190615bf3565b614add9190615c24565b905060006126ac6127108b614af29190615bf3565b614afc9190615c24565b9050600660009054906101000a900473ffffffffffffffffffffffffffffffffffffffff1673ffffffffffffffffffffffffffffffffffffffff1663e8e33700600360009054906101000a900473ffffffffffffffffffffffffffffffffffffffff16600460009054906101000a900473ffffffffffffffffffffffffffffffffffffffff168e8e8787306104b042614b959190615b9d565b6040518963ffffffff1660e01b8152600401614bb89897969594939291906156e4565b606060405180830381600087803b158015614bd257600080fd5b505af1158015614be6573d6000803e3d6000fd5b505050506040513d601f19601f82011682018060405250810190614c0a919061524c565b90915090508093505050505b600860009054906101000a900473ffffffffffffffffffffffffffffffffffffffff1673ffffffffffffffffffffffffffffffffffffffff1663095ea7b3600760009054906101000a900473ffffffffffffffffffffffffffffffffffffffff16836040518363ffffffff1660e01b8152600401614c95929190615762565b602060405180830381600087803b158015614caf57600080fd5b505af1158015614cc3573d6000803e3d6000fd5b505050506040513d601f19601f82011682018060405250810190614ce791906150bb565b5080600c60003373ffffffffffffffffffffffffffffffffffffffff1673ffffffffffffffffffffffffffffffffffffffff1681526020019081526020016000206000828254614d379190615b9d565b92505081905550614d4733612089565b614e4a576001601160003373ffffffffffffffffffffffffffffffffffffffff1673ffffffffffffffffffffffffffffffffffffffff16815260200190815260200160002060006101000a81548160ff0219169083151502179055506010339080600181540180825580915050600190039060005260206000200160009091909190916101000a81548173ffffffffffffffffffffffffffffffffffffffff021916908373ffffffffffffffffffffffffffffffffffffffff1602179055503373ffffffffffffffffffffffffffffffffffffffff167f79229b212fa3ea547fb5e5b66090cf250d442b12a51854a030f3b796d528134e60405160405180910390a25b6001965050505050505092915050565b6000614e6582614e74565b9050919050565b600033905090565b6000814233604051602001614e8a9291906155ce565b6040516020818303038152906040528051906020012060001c614ead9190615df6565b9050919050565b6000614ec7614ec284615b27565b615b02565b90508083825260208201905082856020860282011115614ee657600080fd5b60005b85811015614f165781614efc8882614f9e565b845260208401935060208301925050600181019050614ee9565b5050509392505050565b600081359050614f2f816161fd565b92915050565b600082601f830112614f4657600080fd5b8151614f56848260208601614eb4565b91505092915050565b600081519050614f6e81616214565b92915050565b600081519050614f838161622b565b92915050565b600081359050614f9881616242565b92915050565b600081519050614fad81616242565b92915050565b600081519050614fc281616259565b92915050565b600060208284031215614fda57600080fd5b6000614fe884828501614f20565b91505092915050565b60008060008060008060c0878903121561500a57600080fd5b600061501889828a01614f20565b965050602061502989828a01614f20565b955050604061503a89828a01614f20565b945050606061504b89828a01614f20565b935050608061505c89828a01614f20565b92505060a061506d89828a01614f20565b9150509295509295509295565b60006020828403121561508c57600080fd5b600082015167ffffffffffffffff8111156150a657600080fd5b6150b284828501614f35565b91505092915050565b6000602082840312156150cd57600080fd5b60006150db84828501614f5f565b91505092915050565b6000806000606084860312156150f957600080fd5b600061510786828701614f74565b935050602061511886828701614f74565b925050604061512986828701614fb3565b9150509250925092565b60006020828403121561514557600080fd5b600061515384828501614f89565b91505092915050565b60006020828403121561516e57600080fd5b600061517c84828501614f9e565b91505092915050565b60008060006060848603121561519a57600080fd5b60006151a886828701614f89565b93505060206151b986828701614f20565b92505060406151ca86828701614f20565b9150509250925092565b600080604083850312156151e757600080fd5b60006151f585828601614f89565b925050602061520685828601614f89565b9150509250929050565b6000806040838503121561522357600080fd5b600061523185828601614f9e565b925050602061524285828601614f9e565b9150509250929050565b60008060006060848603121561526157600080fd5b600061526f86828701614f9e565b935050602061528086828701614f9e565b925050604061529186828701614f9e565b9150509250925092565b60006152a783836152b3565b60208301905092915050565b6152bc81615cb2565b82525050565b6152cb81615cb2565b82525050565b6152e26152dd82615cb2565b615dc8565b82525050565b60006152f382615b63565b6152fd8185615b7b565b935061530883615b53565b8060005b83811015615339578151615320888261529b565b975061532b83615b6e565b92505060018101905061530c565b5085935050505092915050565b61534f81615cc4565b82525050565b6000615362601c83615b8c565b915061536d82615ed2565b602082019050919050565b6000615385601c83615b8c565b915061539082615efb565b602082019050919050565b60006153a8602e83615b8c565b91506153b382615f24565b604082019050919050565b60006153cb602683615b8c565b91506153d682615f73565b604082019050919050565b60006153ee601d83615b8c565b91506153f982615fc2565b602082019050919050565b6000615411601283615b8c565b915061541c82615feb565b602082019050919050565b6000615434602283615b8c565b915061543f82616014565b604082019050919050565b6000615457601583615b8c565b915061546282616063565b602082019050919050565b600061547a602083615b8c565b91506154858261608c565b602082019050919050565b600061549d600f83615b8c565b91506154a8826160b5565b602082019050919050565b60006154c0601f83615b8c565b91506154cb826160de565b602082019050919050565b60006154e3601c83615b8c565b91506154ee82616107565b602082019050919050565b6000615506601e83615b8c565b915061551182616130565b602082019050919050565b6000615529601283615b8c565b915061553482616159565b602082019050919050565b600061554c601183615b8c565b915061555782616182565b602082019050919050565b600061556f600e83615b8c565b915061557a826161ab565b602082019050919050565b6000615592601283615b8c565b915061559d826161d4565b602082019050919050565b6155b181615d0a565b82525050565b6155c86155c382615d0a565b615dec565b82525050565b60006155da82856155b7565b6020820191506155ea82846152d1565b6014820191508190509392505050565b600060208201905061560f60008301846152c2565b92915050565b600060408201905061562a60008301856152c2565b61563760208301846152c2565b9392505050565b600060608201905061565360008301866152c2565b61566060208301856152c2565b61566d60408301846155a8565b949350505050565b600060e08201905061568a600083018a6152c2565b61569760208301896152c2565b6156a460408301886155a8565b6156b160608301876155a8565b6156be60808301866155a8565b6156cb60a08301856152c2565b6156d860c08301846155a8565b98975050505050505050565b6000610100820190506156fa600083018b6152c2565b615707602083018a6152c2565b61571460408301896155a8565b61572160608301886155a8565b61572e60808301876155a8565b61573b60a08301866155a8565b61574860c08301856152c2565b61575560e08301846155a8565b9998505050505050505050565b600060408201905061577760008301856152c2565b61578460208301846155a8565b9392505050565b600060c0820190506157a060008301896152c2565b6157ad60208301886155a8565b6157ba60408301876155a8565b6157c760608301866155a8565b6157d460808301856152c2565b6157e160a08301846155a8565b979650505050505050565b6000604082019050818103600083015261580681856152e8565b905061581560208301846155a8565b9392505050565b60006020820190506158316000830184615346565b92915050565b6000602082019050818103600083015261585081615355565b9050919050565b6000602082019050818103600083015261587081615378565b9050919050565b600060208201905081810360008301526158908161539b565b9050919050565b600060208201905081810360008301526158b0816153be565b9050919050565b600060208201905081810360008301526158d0816153e1565b9050919050565b600060208201905081810360008301526158f081615404565b9050919050565b6000602082019050818103600083015261591081615427565b9050919050565b600060208201905081810360008301526159308161544a565b9050919050565b600060208201905081810360008301526159508161546d565b9050919050565b6000602082019050818103600083015261597081615490565b9050919050565b60006020820190508181036000830152615990816154b3565b9050919050565b600060208201905081810360008301526159b0816154d6565b9050919050565b600060208201905081810360008301526159d0816154f9565b9050919050565b600060208201905081810360008301526159f08161551c565b9050919050565b60006020820190508181036000830152615a108161553f565b9050919050565b60006020820190508181036000830152615a3081615562565b9050919050565b60006020820190508181036000830152615a5081615585565b9050919050565b6000602082019050615a6c60008301846155a8565b92915050565b6000604082019050615a8760008301856155a8565b8181036020830152615a9981846152e8565b90509392505050565b6000604082019050615ab760008301856155a8565b615ac460208301846155a8565b9392505050565b6000606082019050615ae060008301866155a8565b615aed60208301856155a8565b615afa60408301846155a8565b949350505050565b6000615b0c615b1d565b9050615b188282615d4e565b919050565b6000604051905090565b600067ffffffffffffffff821115615b4257615b41615e85565b5b602082029050602081019050919050565b6000819050602082019050919050565b600081519050919050565b6000602082019050919050565b600082825260208201905092915050565b600082825260208201905092915050565b6000615ba882615d0a565b9150615bb383615d0a565b9250827fffffffffffffffffffffffffffffffffffffffffffffffffffffffffffffffff03821115615be857615be7615e27565b5b828201905092915050565b6000615bfe82615d0a565b9150615c0983615d0a565b925082615c1957615c18615e56565b5b828204905092915050565b6000615c2f82615d0a565b9150615c3a83615d0a565b9250817fffffffffffffffffffffffffffffffffffffffffffffffffffffffffffffffff0483118215151615615c7357615c72615e27565b5b828202905092915050565b6000615c8982615d0a565b9150615c9483615d0a565b925082821015615ca757615ca6615e27565b5b828203905092915050565b6000615cbd82615cea565b9050919050565b60008115159050919050565b60006dffffffffffffffffffffffffffff82169050919050565b600073ffffffffffffffffffffffffffffffffffffffff82169050919050565b6000819050919050565b600063ffffffff82169050919050565b6000615d2f82615d0a565b91506000821415615d4357615d42615e27565b5b600182039050919050565b615d5782615eb4565b810181811067ffffffffffffffff82111715615d7657615d75615e85565b5b80604052505050565b6000615d8a82615d0a565b91507fffffffffffffffffffffffffffffffffffffffffffffffffffffffffffffffff821415615dbd57615dbc615e27565b5b600182019050919050565b6000615dd382615dda565b9050919050565b6000615de582615ec5565b9050919050565b6000819050919050565b6000615e0182615d0a565b9150615e0c83615d0a565b925082615e1c57615e1b615e56565b5b828206905092915050565b7f4e487b7100000000000000000000000000000000000000000000000000000000600052601160045260246000fd5b7f4e487b7100000000000000000000000000000000000000000000000000000000600052601260045260246000fd5b7f4e487b7100000000000000000000000000000000000000000000000000000000600052604160045260246000fd5b6000601f19601f8301169050919050565b60008160601b9050919050565b7f4e6f7420656e6f756768742043414b4520666f72206120636c61696d00000000600082015250565b7f4e6f7420656e6f7567687420616c6c6f77616e636520546f6b656e3100000000600082015250565b7f66656550657263656e742063616e206e6f74206265206772656174207468616e60008201527f206d617846656550657263656e74000000000000000000000000000000000000602082015250565b7f4f776e61626c653a206e6577206f776e657220697320746865207a65726f206160008201527f6464726573730000000000000000000000000000000000000000000000000000602082015250565b7f6d73672e76616c756520616e6420616d6f756e74206d69736d61746368000000600082015250565b7f4e6f7420656e6f7567687420546f6b656e300000000000000000000000000000600082015250565b7f43616c6c6572206973206e6f742062656e6566696369617279206f72206f776e60008201527f6572000000000000000000000000000000000000000000000000000000000000602082015250565b7f4e6f7420656e6f75676874206c69717569646974790000000000000000000000600082015250565b7f4f776e61626c653a2063616c6c6572206973206e6f7420746865206f776e6572600082015250565b7f52657761726420697320656d7074790000000000000000000000000000000000600082015250565b7f546f74616c2062616c616e6365206772656174207468616e206d617855534400600082015250565b7f4e6f7420656e6f7567687420616c6c6f77616e636520546f6b656e3000000000600082015250565b7f546f74616c2062616c616e6365206c657373207468616e206d696e5553440000600082015250565b7f4e6f7420656e6f7567687420546f6b656e310000000000000000000000000000600082015250565b7f4e6f742061205061727469636970616e74000000000000000000000000000000600082015250565b7f5472616e73666572206661696c64000000000000000000000000000000000000600082015250565b7f7472616e73666572206973206661696c65640000000000000000000000000000600082015250565b61620681615cb2565b811461621157600080fd5b50565b61621d81615cc4565b811461622857600080fd5b50565b61623481615cd0565b811461623f57600080fd5b50565b61624b81615d0a565b811461625657600080fd5b50565b61626281615d14565b811461626d57600080fd5b5056fea2646970667358221220a55a3134b61c0f903db2d0175ba56cccb3bac39254697cfa33b9cf04574ee55e64736f6c63430008010033",
  "linkReferences": {},
  "deployedLinkReferences": {}
}