{
  "_format": "hh-sol-artifact-1",
  "contractName": "FrogLottery",
  "sourceName": "contracts/FrogLottery.sol",
  "abi": [
    {
      "inputs": [
        {
          "internalType": "address",
          "name": "_token0",
          "type": "address"
        },
        {
          "internalType": "address",
          "name": "_token1",
          "type": "address"
        },
        {
          "internalType": "address",
          "name": "_frogReferalAddress",
          "type": "address"
        },
        {
          "internalType": "bool",
          "name": "_isEthLottery",
          "type": "bool"
        },
        {
          "internalType": "address",
          "name": "_beneficiary",
          "type": "address"
        }
      ],
      "stateMutability": "nonpayable",
      "type": "constructor"
    },
    {
      "anonymous": false,
      "inputs": [
        {
          "indexed": true,
          "internalType": "address",
          "name": "_oldBeneficiary",
          "type": "address"
        },
        {
          "indexed": true,
          "internalType": "address",
          "name": "_newBeneficiary",
          "type": "address"
        }
      ],
      "name": "BeneficiaryChanged",
      "type": "event"
    },
    {
      "anonymous": false,
      "inputs": [
        {
          "indexed": true,
          "internalType": "address",
          "name": "_participant",
          "type": "address"
        },
        {
          "indexed": false,
          "internalType": "uint256",
          "name": "_amount",
          "type": "uint256"
        },
        {
          "indexed": false,
          "internalType": "uint256",
          "name": "_oldBalance",
          "type": "uint256"
        }
      ],
      "name": "Deposit",
      "type": "event"
    },
    {
      "anonymous": false,
      "inputs": [
        {
          "indexed": true,
          "internalType": "uint256",
          "name": "_drawNumber",
          "type": "uint256"
        },
        {
          "indexed": false,
          "internalType": "uint256",
          "name": "_fundTotal",
          "type": "uint256"
        },
        {
          "indexed": false,
          "internalType": "uint256",
          "name": "_rewardTotal",
          "type": "uint256"
        },
        {
          "indexed": false,
          "internalType": "uint256",
          "name": "_feeTotal",
          "type": "uint256"
        }
      ],
      "name": "Draw",
      "type": "event"
    },
    {
      "anonymous": false,
      "inputs": [
        {
          "indexed": true,
          "internalType": "uint256",
          "name": "_oldFeePercent",
          "type": "uint256"
        },
        {
          "indexed": true,
          "internalType": "uint256",
          "name": "_newFeePercent",
          "type": "uint256"
        }
      ],
      "name": "FeePercentChanged",
      "type": "event"
    },
    {
      "anonymous": false,
      "inputs": [
        {
          "indexed": true,
          "internalType": "address",
          "name": "_newParticipant",
          "type": "address"
        }
      ],
      "name": "NewParticipant",
      "type": "event"
    },
    {
      "anonymous": false,
      "inputs": [
        {
          "indexed": true,
          "internalType": "address",
          "name": "previousOwner",
          "type": "address"
        },
        {
          "indexed": true,
          "internalType": "address",
          "name": "newOwner",
          "type": "address"
        }
      ],
      "name": "OwnershipTransferred",
      "type": "event"
    },
    {
      "anonymous": false,
      "inputs": [
        {
          "indexed": true,
          "internalType": "uint256",
          "name": "_drawNumber",
          "type": "uint256"
        },
        {
          "indexed": true,
          "internalType": "address",
          "name": "_winner",
          "type": "address"
        },
        {
          "indexed": false,
          "internalType": "uint256",
          "name": "_amount",
          "type": "uint256"
        }
      ],
      "name": "Victory",
      "type": "event"
    },
    {
      "anonymous": false,
      "inputs": [
        {
          "indexed": true,
          "internalType": "address",
          "name": "_participant",
          "type": "address"
        },
        {
          "indexed": false,
          "internalType": "uint256",
          "name": "_amount",
          "type": "uint256"
        },
        {
          "indexed": false,
          "internalType": "uint256",
          "name": "_oldBalance",
          "type": "uint256"
        }
      ],
      "name": "Withdraw",
      "type": "event"
    },
    {
      "inputs": [
        {
          "internalType": "address",
          "name": "",
          "type": "address"
        }
      ],
      "name": "alreadyParticipant",
      "outputs": [
        {
          "internalType": "bool",
          "name": "",
          "type": "bool"
        }
      ],
      "stateMutability": "view",
      "type": "function"
    },
    {
      "inputs": [
        {
          "internalType": "address",
          "name": "",
          "type": "address"
        }
      ],
      "name": "balanceOf",
      "outputs": [
        {
          "internalType": "uint256",
          "name": "",
          "type": "uint256"
        }
      ],
      "stateMutability": "view",
      "type": "function"
    },
    {
      "inputs": [],
      "name": "beneficiary",
      "outputs": [
        {
          "internalType": "address",
          "name": "",
          "type": "address"
        }
      ],
      "stateMutability": "view",
      "type": "function"
    },
    {
      "inputs": [],
      "name": "claimReward",
      "outputs": [],
      "stateMutability": "nonpayable",
      "type": "function"
    },
    {
      "inputs": [
        {
          "internalType": "uint256",
          "name": "amountToken0",
          "type": "uint256"
        },
        {
          "internalType": "uint256",
          "name": "amountToken1",
          "type": "uint256"
        }
      ],
      "name": "deposit",
      "outputs": [
        {
          "internalType": "bool",
          "name": "success",
          "type": "bool"
        }
      ],
      "stateMutability": "payable",
      "type": "function"
    },
    {
      "inputs": [
        {
          "internalType": "address",
          "name": "",
          "type": "address"
        }
      ],
      "name": "depositOf",
      "outputs": [
        {
          "internalType": "uint256",
          "name": "",
          "type": "uint256"
        }
      ],
      "stateMutability": "view",
      "type": "function"
    },
    {
      "inputs": [],
      "name": "draw",
      "outputs": [],
      "stateMutability": "nonpayable",
      "type": "function"
    },
    {
      "inputs": [],
      "name": "drawNumber",
      "outputs": [
        {
          "internalType": "uint256",
          "name": "",
          "type": "uint256"
        }
      ],
      "stateMutability": "view",
      "type": "function"
    },
    {
      "inputs": [],
      "name": "farmTotal",
      "outputs": [
        {
          "internalType": "uint256",
          "name": "",
          "type": "uint256"
        }
      ],
      "stateMutability": "view",
      "type": "function"
    },
    {
      "inputs": [
        {
          "internalType": "uint256",
          "name": "_amount",
          "type": "uint256"
        },
        {
          "internalType": "address",
          "name": "_tokenIn",
          "type": "address"
        },
        {
          "internalType": "address",
          "name": "_tokenOut",
          "type": "address"
        }
      ],
      "name": "getPSRate",
      "outputs": [
        {
          "internalType": "uint256",
          "name": "",
          "type": "uint256"
        }
      ],
      "stateMutability": "view",
      "type": "function"
    },
    {
      "inputs": [],
      "name": "getParticipants",
      "outputs": [
        {
          "internalType": "address[]",
          "name": "result",
          "type": "address[]"
        },
        {
          "internalType": "uint256",
          "name": "counter",
          "type": "uint256"
        }
      ],
      "stateMutability": "view",
      "type": "function"
    },
    {
      "inputs": [
        {
          "internalType": "address",
          "name": "_participant",
          "type": "address"
        }
      ],
      "name": "isParticipant",
      "outputs": [
        {
          "internalType": "bool",
          "name": "",
          "type": "bool"
        }
      ],
      "stateMutability": "view",
      "type": "function"
    },
    {
      "inputs": [],
      "name": "lpDecimals",
      "outputs": [
        {
          "internalType": "uint256",
          "name": "",
          "type": "uint256"
        }
      ],
      "stateMutability": "view",
      "type": "function"
    },
    {
      "inputs": [],
      "name": "maxUsdt",
      "outputs": [
        {
          "internalType": "uint256",
          "name": "",
          "type": "uint256"
        }
      ],
      "stateMutability": "view",
      "type": "function"
    },
    {
      "inputs": [],
      "name": "minUsdt",
      "outputs": [
        {
          "internalType": "uint256",
          "name": "",
          "type": "uint256"
        }
      ],
      "stateMutability": "view",
      "type": "function"
    },
    {
      "inputs": [],
      "name": "owner",
      "outputs": [
        {
          "internalType": "address",
          "name": "",
          "type": "address"
        }
      ],
      "stateMutability": "view",
      "type": "function"
    },
    {
      "inputs": [
        {
          "internalType": "uint256",
          "name": "",
          "type": "uint256"
        }
      ],
      "name": "participants",
      "outputs": [
        {
          "internalType": "address",
          "name": "",
          "type": "address"
        }
      ],
      "stateMutability": "view",
      "type": "function"
    },
    {
      "inputs": [],
      "name": "rateLPTokens",
      "outputs": [
        {
          "internalType": "uint256",
          "name": "lpToken0",
          "type": "uint256"
        },
        {
          "internalType": "uint256",
          "name": "lpToken1",
          "type": "uint256"
        }
      ],
      "stateMutability": "view",
      "type": "function"
    },
    {
      "inputs": [],
      "name": "removeWithdraw",
      "outputs": [],
      "stateMutability": "nonpayable",
      "type": "function"
    },
    {
      "inputs": [],
      "name": "renounceOwnership",
      "outputs": [],
      "stateMutability": "nonpayable",
      "type": "function"
    },
    {
      "inputs": [
        {
          "internalType": "address",
          "name": "",
          "type": "address"
        }
      ],
      "name": "rewardOf",
      "outputs": [
        {
          "internalType": "uint256",
          "name": "",
          "type": "uint256"
        }
      ],
      "stateMutability": "view",
      "type": "function"
    },
    {
      "inputs": [
        {
          "internalType": "address",
          "name": "_token0",
          "type": "address"
        },
        {
          "internalType": "address",
          "name": "_token1",
          "type": "address"
        },
        {
          "internalType": "address",
          "name": "usdt",
          "type": "address"
        },
        {
          "internalType": "address",
          "name": "router",
          "type": "address"
        },
        {
          "internalType": "address",
          "name": "masterChef",
          "type": "address"
        },
        {
          "internalType": "address",
          "name": "pair",
          "type": "address"
        }
      ],
      "name": "setAll",
      "outputs": [],
      "stateMutability": "nonpayable",
      "type": "function"
    },
    {
      "inputs": [
        {
          "internalType": "address",
          "name": "_newBeneficiary",
          "type": "address"
        }
      ],
      "name": "setBeneficiary",
      "outputs": [],
      "stateMutability": "nonpayable",
      "type": "function"
    },
    {
      "inputs": [
        {
          "internalType": "uint256",
          "name": "_newFeePercent",
          "type": "uint256"
        }
      ],
      "name": "setFeePercent",
      "outputs": [],
      "stateMutability": "nonpayable",
      "type": "function"
    },
    {
      "inputs": [
        {
          "internalType": "address",
          "name": "_address",
          "type": "address"
        }
      ],
      "name": "setFrogReferalAddress",
      "outputs": [],
      "stateMutability": "nonpayable",
      "type": "function"
    },
    {
      "inputs": [
        {
          "internalType": "uint256",
          "name": "_maxUsdt",
          "type": "uint256"
        }
      ],
      "name": "setMaxUsdt",
      "outputs": [],
      "stateMutability": "nonpayable",
      "type": "function"
    },
    {
      "inputs": [
        {
          "internalType": "uint256",
          "name": "_minUsdt",
          "type": "uint256"
        }
      ],
      "name": "setMinUsdt",
      "outputs": [],
      "stateMutability": "nonpayable",
      "type": "function"
    },
    {
      "inputs": [
        {
          "internalType": "address",
          "name": "_address",
          "type": "address"
        }
      ],
      "name": "setPancakeMCAddress",
      "outputs": [],
      "stateMutability": "nonpayable",
      "type": "function"
    },
    {
      "inputs": [
        {
          "internalType": "address",
          "name": "_address",
          "type": "address"
        }
      ],
      "name": "setPancakePairAddress",
      "outputs": [],
      "stateMutability": "nonpayable",
      "type": "function"
    },
    {
      "inputs": [
        {
          "internalType": "address",
          "name": "_address",
          "type": "address"
        }
      ],
      "name": "setPancakeRouterAddress",
      "outputs": [],
      "stateMutability": "nonpayable",
      "type": "function"
    },
    {
      "inputs": [
        {
          "internalType": "address",
          "name": "_cakeContractAddress",
          "type": "address"
        }
      ],
      "name": "setToken0ContractAddress",
      "outputs": [],
      "stateMutability": "nonpayable",
      "type": "function"
    },
    {
      "inputs": [
        {
          "internalType": "address",
          "name": "_address",
          "type": "address"
        }
      ],
      "name": "setToken1ContractAddress",
      "outputs": [],
      "stateMutability": "nonpayable",
      "type": "function"
    },
    {
      "inputs": [
        {
          "internalType": "address",
          "name": "_address",
          "type": "address"
        }
      ],
      "name": "setUsdtContractAddress",
      "outputs": [],
      "stateMutability": "nonpayable",
      "type": "function"
    },
    {
      "inputs": [
        {
          "internalType": "address",
          "name": "newOwner",
          "type": "address"
        }
      ],
      "name": "transferOwnership",
      "outputs": [],
      "stateMutability": "nonpayable",
      "type": "function"
    },
    {
      "inputs": [
        {
          "internalType": "uint256",
          "name": "_amount",
          "type": "uint256"
        }
      ],
      "name": "withdraw",
      "outputs": [
        {
          "internalType": "bool",
          "name": "success",
          "type": "bool"
        }
      ],
      "stateMutability": "nonpayable",
      "type": "function"
    },
    {
      "inputs": [
        {
          "internalType": "address",
          "name": "",
          "type": "address"
        }
      ],
      "name": "withdrawOf",
      "outputs": [
        {
          "internalType": "uint256",
          "name": "",
          "type": "uint256"
        }
      ],
      "stateMutability": "view",
      "type": "function"
    },
    {
      "stateMutability": "payable",
      "type": "receive"
    }
  ],
  "bytecode": "0x608060405260006002556127106003556402540be4006019553480156200002557600080fd5b506040516200452438038062004524833981016040819052620000489162000514565b6200005c6200005662000156565b6200015a565b600c80546001600160a01b0319166001600160a01b038316179055610bb8601681905560155567016345785d8a000060135568056bc75e2d631000006014556001600b556018805460ff1916831515179055620000b985620001ac565b620000c4846200022a565b620000e37355d398326f99059ff775485246999027b31979556200029f565b620001027310ed43c718714eb63d5aa57b78b54704e256024e62000314565b6200012173a5f8c5dbd5f286960b9d90548680ae5ebff0765262000389565b62000140730ed7e52944161450477ee417de9cd3a859b14fd0620003fe565b6200014b8362000473565b5050505050620005ca565b3390565b600180546001600160a01b038381166001600160a01b0319831681179093556040519116919082907f8be0079c531659141344cd1fd0a4f28419497f9722a3daafe3b4186f6b6457e090600090a35050565b620001b6620004e8565b6001600160a01b0316336001600160a01b03161480620001e05750600c546001600160a01b031633145b620002085760405162461bcd60e51b8152600401620001ff9062000588565b60405180910390fd5b600480546001600160a01b0319166001600160a01b0392909216919091179055565b62000234620004e8565b6001600160a01b0316336001600160a01b031614806200025e5750600c546001600160a01b031633145b6200027d5760405162461bcd60e51b8152600401620001ff9062000588565b600580546001600160a01b0319166001600160a01b0392909216919091179055565b620002a9620004e8565b6001600160a01b0316336001600160a01b03161480620002d35750600c546001600160a01b031633145b620002f25760405162461bcd60e51b8152600401620001ff9062000588565b600680546001600160a01b0319166001600160a01b0392909216919091179055565b6200031e620004e8565b6001600160a01b0316336001600160a01b03161480620003485750600c546001600160a01b031633145b620003675760405162461bcd60e51b8152600401620001ff9062000588565b600780546001600160a01b0319166001600160a01b0392909216919091179055565b62000393620004e8565b6001600160a01b0316336001600160a01b03161480620003bd5750600c546001600160a01b031633145b620003dc5760405162461bcd60e51b8152600401620001ff9062000588565b600880546001600160a01b0319166001600160a01b0392909216919091179055565b62000408620004e8565b6001600160a01b0316336001600160a01b03161480620004325750600c546001600160a01b031633145b620004515760405162461bcd60e51b8152600401620001ff9062000588565b600980546001600160a01b0319166001600160a01b0392909216919091179055565b6200047d620004e8565b6001600160a01b0316336001600160a01b03161480620004a75750600c546001600160a01b031633145b620004c65760405162461bcd60e51b8152600401620001ff9062000588565b600a80546001600160a01b0319166001600160a01b0392909216919091179055565b6001546001600160a01b031690565b80516001600160a01b03811681146200050f57600080fd5b919050565b600080600080600060a086880312156200052c578081fd5b6200053786620004f7565b94506200054760208701620004f7565b93506200055760408701620004f7565b9250606086015180151581146200056c578182fd5b91506200057c60808701620004f7565b90509295509295909350565b60208082526022908201527f43616c6c6572206973206e6f742062656e6566696369617279206f72206f776e60408201526132b960f11b606082015260800190565b613f4a80620005da6000396000f3fe6080604052600436106102535760003560e01c80638da5cb5b11610138578063d80ffb20116100b0578063eedbc0561161007f578063f550ed9311610064578063f550ed931461063c578063f914958b14610651578063fd0b2fec146106715761025a565b8063eedbc056146105fc578063f2fde38b1461061c5761025a565b8063d80ffb2014610594578063dde7cd51146105a9578063e2bbb158146105c9578063e4203183146105dc5761025a565b8063ba0553ae11610107578063caa96a92116100ec578063caa96a921461053f578063cb0a14eb14610554578063d736f8a6146105745761025a565b8063ba0553ae146104ff578063c0cb7c6a1461051f5761025a565b80638da5cb5b146104a0578063929066f5146104b5578063b4410e9c146104d5578063b88a802f146104ea5761025a565b806335c1d349116101cb57806370a082311161019a5780637a6620d11161017f5780637a6620d11461044b5780637ce3489b1461046b578063851ed85e1461048b5761025a565b806370a0823114610416578063715018a6146104365761025a565b806335c1d3491461039157806338af3eed146103be578063409af09a146103d35780635aa68ac0146103f35761025a565b80631dc211941161022257806323e3fbd51161020757806323e3fbd514610321578063295f39b1146103415780632e1a7d4d146103645761025a565b80631dc21194146102ec57806323ce7fb8146103015761025a565b80630eecae211461025f5780631c31f710146102765780631c3b3902146102965780631d62ebd9146102b65761025a565b3661025a57005b600080fd5b34801561026b57600080fd5b50610274610691565b005b34801561028257600080fd5b506102746102913660046135d6565b610c83565b3480156102a257600080fd5b506102746102b13660046135d6565b610d35565b3480156102c257600080fd5b506102d66102d13660046135d6565b610da4565b6040516102e39190613dc5565b60405180910390f35b3480156102f857600080fd5b506102d6610db6565b34801561030d57600080fd5b5061027461031c3660046135d6565b610e59565b34801561032d57600080fd5b506102d661033c3660046135d6565b610ec8565b34801561034d57600080fd5b50610356610eda565b6040516102e3929190613e06565b34801561037057600080fd5b5061038461037f36600461378b565b611052565b6040516102e391906139ed565b34801561039d57600080fd5b506103b16103ac36600461378b565b6111df565b6040516102e391906138e5565b3480156103ca57600080fd5b506103b1611209565b3480156103df57600080fd5b506102746103ee36600461378b565b611218565b3480156103ff57600080fd5b5061040861126a565b6040516102e39291906139cb565b34801561042257600080fd5b506102d66104313660046135d6565b6113c4565b34801561044257600080fd5b506102746113d6565b34801561045757600080fd5b506102746104663660046135d6565b6113ea565b34801561047757600080fd5b5061027461048636600461378b565b611459565b34801561049757600080fd5b506102d66114fc565b3480156104ac57600080fd5b506103b1611502565b3480156104c157600080fd5b506103846104d03660046135d6565b611511565b3480156104e157600080fd5b506102d661152f565b3480156104f657600080fd5b50610274611535565b34801561050b57600080fd5b5061027461051a36600461378b565b6116dc565b34801561052b57600080fd5b506102d661053a3660046135d6565b61172e565b34801561054b57600080fd5b50610274611740565b34801561056057600080fd5b5061027461056f3660046135d6565b611778565b34801561058057600080fd5b5061027461058f3660046135f0565b6117e7565b3480156105a057600080fd5b506102d66118a2565b3480156105b557600080fd5b506103846105c43660046135d6565b6118a8565b6103846105d73660046137f6565b6118bd565b3480156105e857600080fd5b506102746105f73660046135d6565b611bb0565b34801561060857600080fd5b506102746106173660046135d6565b611c1f565b34801561062857600080fd5b506102746106373660046135d6565b611c8e565b34801561064857600080fd5b506102d6611cc8565b34801561065d57600080fd5b506102d661066c3660046137bb565b611cce565b34801561067d57600080fd5b5061027461068c3660046135d6565b611e85565b600854600b546040517fe2bbb1580000000000000000000000000000000000000000000000000000000081526001600160a01b039092169163e2bbb158916106de91600090600401613e06565b600060405180830381600087803b1580156106f857600080fd5b505af115801561070c573d6000803e3d6000fd5b5050601754600480546040516370a0823160e01b8152600095509293506001600160a01b0316916370a0823191610745913091016138e5565b60206040518083038186803b15801561075d57600080fd5b505afa158015610771573d6000803e3d6000fd5b505050506040513d601f19601f8201168201806040525081019061079591906137a3565b61079f9190613e75565b60115490915060009067ffffffffffffffff8111156107ce57634e487b7160e01b600052604160045260246000fd5b6040519080825280602002602001820160405280156107f7578160200160208202803683370190505b50905060006060600080600061080b61126a565b90965094508415610c7257869250600061271060155461271061082e9190613e75565b610838908a613e56565b6108429190613e42565b90506000610851609688613e42565b61085c906001613e2a565b90508067ffffffffffffffff81111561088557634e487b7160e01b600052604160045260246000fd5b6040519080825280602002602001820160405280156108ae578160200160208202803683370190505b5095506108bb8782611ef4565b955060005b818110156109625760008782815181106108ea57634e487b7160e01b600052603260045260246000fd5b60200260200101519050600e60008b838151811061091857634e487b7160e01b600052603260045260246000fd5b60200260200101516001600160a01b03166001600160a01b03168152602001908152602001600020548661094c9190613e2a565b955050808061095a90613ea3565b9150506108c0565b506002805490600061097383613ea3565b919050555060005b81811015610afe576000898883815181106109a657634e487b7160e01b600052603260045260246000fd5b6020026020010151815181106109cc57634e487b7160e01b600052603260045260246000fd5b60200260200101519050600086600e6000846001600160a01b03166001600160a01b03168152602001908152602001600020546064610a0b9190613e56565b610a159190613e42565b905060006064610a258388613e56565b610a2f9190613e42565b90506000610a3e848f85612082565b6001600160a01b038516600090815260106020526040812080549293508492909190610a6b908490613e2a565b925050819055508160176000828254610a849190613e2a565b92505081905550836001600160a01b03166002547f9515c6f2bffb313099bcee0fbec701e0d75b3e20ca6032804286cb49bb4af2b484604051610ac79190613dc5565b60405180910390a3610ad9828b613e75565b9950610ae58189613e2a565b9750505050508080610af690613ea3565b91505061097b565b506002547f7499611827a1dc9f9fc8242a819e0ba432979cec101754acb79aa4f8d85ad5a58a610b2e8882613e75565b88604051610b3e93929190613e14565b60405180910390a260048054600a5460405163a9059cbb60e01b81526001600160a01b039283169363a9059cbb93610b7a931691889101613977565b602060405180830381600087803b158015610b9457600080fd5b505af1158015610ba8573d6000803e3d6000fd5b505050506040513d601f19601f82011682018060405250810190610bcc919061371d565b50610bd78386613e75565b60048054600c5460405163a9059cbb60e01b81529398506001600160a01b039182169363a9059cbb93610c1093909216918a9101613977565b602060405180830381600087803b158015610c2a57600080fd5b505af1158015610c3e573d6000803e3d6000fd5b505050506040513d601f19601f82011682018060405250810190610c62919061371d565b50610c6b6121de565b5050610c7a565b610c7a6121de565b50505050505050565b610c8b611502565b6001600160a01b0316336001600160a01b03161480610cb45750600c546001600160a01b031633145b610cd95760405162461bcd60e51b8152600401610cd090613c20565b60405180910390fd5b600c546040516001600160a01b038084169216907f768099735d1c322a05a5b9d7b76d99682a1833d3f7055e5ede25e0f2eeaa8c6d90600090a3600c80546001600160a01b0319166001600160a01b0392909216919091179055565b610d3d611502565b6001600160a01b0316336001600160a01b03161480610d665750600c546001600160a01b031633145b610d825760405162461bcd60e51b8152600401610cd090613c20565b600a80546001600160a01b0319166001600160a01b0392909216919091179055565b60106020526000908152604090205481565b600854600b546040517f1175a1dd0000000000000000000000000000000000000000000000000000000081526000926001600160a01b031691631175a1dd91610e0491903090600401613dce565b60206040518083038186803b158015610e1c57600080fd5b505afa158015610e30573d6000803e3d6000fd5b505050506040513d601f19601f82011682018060405250810190610e5491906137a3565b905090565b610e61611502565b6001600160a01b0316336001600160a01b03161480610e8a5750600c546001600160a01b031633145b610ea65760405162461bcd60e51b8152600401610cd090613c20565b600880546001600160a01b0319166001600160a01b0392909216919091179055565b600d6020526000908152604090205481565b600080600080600960009054906101000a90046001600160a01b03166001600160a01b0316630902f1ac6040518163ffffffff1660e01b815260040160606040518083038186803b158015610f2e57600080fd5b505afa158015610f42573d6000803e3d6000fd5b505050506040513d601f19601f82011682018060405250810190610f66919061373d565b50915091506000600960009054906101000a90046001600160a01b03166001600160a01b03166318160ddd6040518163ffffffff1660e01b815260040160206040518083038186803b158015610fbb57600080fd5b505afa158015610fcf573d6000803e3d6000fd5b505050506040513d601f19601f82011682018060405250810190610ff391906137a3565b905080600354846dffffffffffffffffffffffffffff166110149190613e56565b61101e9190613e42565b945080600354836dffffffffffffffffffffffffffff1661103f9190613e56565b6110499190613e42565b93505050509091565b336000908152600f6020908152604080832054600d835281842054600e90935290832054849261108191613e2a565b61108b9190613e75565b10156110a95760405162461bcd60e51b8152600401610cd090613c7d565b6000806110b4610eda565b60035460055460065493955091935060009290916110e09185916001600160a01b039081169116611cce565b6004546006546110fe9187916001600160a01b039182169116611cce565b6111089190613e2a565b336000908152600f6020908152604080832054600d835281842054600e90935292205489929161113791613e2a565b6111419190613e75565b61114b9190613e75565b6111559190613e56565b61115f9190613e42565b905080158061117057506013548110155b61118c5760405162461bcd60e51b8152600401610cd090613b20565b6014548111156111ae5760405162461bcd60e51b8152600401610cd090613beb565b336000908152600f6020526040812080548792906111cd908490613e2a565b9091555060019450505050505b919050565b601181815481106111ef57600080fd5b6000918252602090912001546001600160a01b0316905081565b600c546001600160a01b031681565b611220611502565b6001600160a01b0316336001600160a01b031614806112495750600c546001600160a01b031633145b6112655760405162461bcd60e51b8152600401610cd090613c20565b601455565b60115460609060009067ffffffffffffffff81111561129957634e487b7160e01b600052604160045260246000fd5b6040519080825280602002602001820160405280156112c2578160200160208202803683370190505b5091506000905060005b6011548110156113bf576000600e6000601184815481106112fd57634e487b7160e01b600052603260045260246000fd5b60009182526020808320909101546001600160a01b0316835282019290925260400190205411156113ad576011818154811061134957634e487b7160e01b600052603260045260246000fd5b9060005260206000200160009054906101000a90046001600160a01b031683838151811061138757634e487b7160e01b600052603260045260246000fd5b6001600160a01b0390921660209283029190910190910152816113a981613ea3565b9250505b806113b781613ea3565b9150506112cc565b509091565b600e6020526000908152604090205481565b6113de612e71565b6113e86000612eb0565b565b6113f2611502565b6001600160a01b0316336001600160a01b0316148061141b5750600c546001600160a01b031633145b6114375760405162461bcd60e51b8152600401610cd090613c20565b600480546001600160a01b0319166001600160a01b0392909216919091179055565b611461611502565b6001600160a01b0316336001600160a01b0316148061148a5750600c546001600160a01b031633145b6114a65760405162461bcd60e51b8152600401610cd090613c20565b6016548111156114c85760405162461bcd60e51b8152600401610cd090613a2f565b6015546040518291907f44cb215a0ee4011e0802aea4220545b8f823c5041bb303a4ae1219f99f91e65b90600090a3601555565b60035481565b6001546001600160a01b031690565b6001600160a01b031660009081526012602052604090205460ff1690565b60145481565b336000908152601060205260409020546115615760405162461bcd60e51b8152600401610cd090613ce9565b3360009081526010602052604090819020546004805492516370a0823160e01b815291926001600160a01b0316916370a08231916115a1913091016138e5565b60206040518083038186803b1580156115b957600080fd5b505afa1580156115cd573d6000803e3d6000fd5b505050506040513d601f19601f820116820180604052508101906115f191906137a3565b101561160f5760405162461bcd60e51b8152600401610cd0906139f8565b60048054336000818152601060205260409081902054905163a9059cbb60e01b81526001600160a01b039093169363a9059cbb9361164f93929101613977565b602060405180830381600087803b15801561166957600080fd5b505af115801561167d573d6000803e3d6000fd5b505050506040513d601f19601f820116820180604052508101906116a1919061371d565b503360009081526010602052604081205460178054919290916116c5908490613e75565b909155505033600090815260106020526040812055565b6116e4611502565b6001600160a01b0316336001600160a01b0316148061170d5750600c546001600160a01b031633145b6117295760405162461bcd60e51b8152600401610cd090613c20565b601355565b600f6020526000908152604090205481565b336000908152600f60209081526040808320805490849055600d9092528220805491928392611770908490613e2a565b909155505050565b611780611502565b6001600160a01b0316336001600160a01b031614806117a95750600c546001600160a01b031633145b6117c55760405162461bcd60e51b8152600401610cd090613c20565b600580546001600160a01b0319166001600160a01b0392909216919091179055565b6117ef611502565b6001600160a01b0316336001600160a01b031614806118185750600c546001600160a01b031633145b6118345760405162461bcd60e51b8152600401610cd090613c20565b600480546001600160a01b03199081166001600160a01b03988916179091556005805482169688169690961790955560078054861693871693909317909255600880548516918616919091179055600980548416918516919091179055600680549092169216919091179055565b60025481565b60126020526000908152604090205460ff1681565b60185460009060ff16156118ef573482146118ea5760405162461bcd60e51b8152600401610cd090613ae9565b611a46565b6005546040516370a0823160e01b815284916001600160a01b0316906370a082319061191f9033906004016138e5565b60206040518083038186803b15801561193757600080fd5b505afa15801561194b573d6000803e3d6000fd5b505050506040513d601f19601f8201168201806040525081019061196f91906137a3565b101561198d5760405162461bcd60e51b8152600401610cd090613b57565b6005546040517fdd62ed3e00000000000000000000000000000000000000000000000000000000815284916001600160a01b03169063dd62ed3e906119d890339030906004016138f9565b60206040518083038186803b1580156119f057600080fd5b505afa158015611a04573d6000803e3d6000fd5b505050506040513d601f19601f82011682018060405250810190611a2891906137a3565b1015611a465760405162461bcd60e51b8152600401610cd090613d20565b600480546040516370a0823160e01b815285926001600160a01b03909216916370a0823191611a77913391016138e5565b60206040518083038186803b158015611a8f57600080fd5b505afa158015611aa3573d6000803e3d6000fd5b505050506040513d601f19601f82011682018060405250810190611ac791906137a3565b1015611ae55760405162461bcd60e51b8152600401610cd090613b57565b600480546040517fdd62ed3e00000000000000000000000000000000000000000000000000000000815285926001600160a01b039092169163dd62ed3e91611b319133913091016138f9565b60206040518083038186803b158015611b4957600080fd5b505afa158015611b5d573d6000803e3d6000fd5b505050506040513d601f19601f82011682018060405250810190611b8191906137a3565b1015611b9f5760405162461bcd60e51b8152600401610cd090613d20565b611ba98383612f02565b9392505050565b611bb8611502565b6001600160a01b0316336001600160a01b03161480611be15750600c546001600160a01b031633145b611bfd5760405162461bcd60e51b8152600401610cd090613c20565b600680546001600160a01b0319166001600160a01b0392909216919091179055565b611c27611502565b6001600160a01b0316336001600160a01b03161480611c505750600c546001600160a01b031633145b611c6c5760405162461bcd60e51b8152600401610cd090613c20565b600780546001600160a01b0319166001600160a01b0392909216919091179055565b611c96612e71565b6001600160a01b038116611cbc5760405162461bcd60e51b8152600401610cd090613a8c565b611cc581612eb0565b50565b60135481565b60408051600280825260608083018452600093909291906020830190803683370190505090508381600081518110611d1657634e487b7160e01b600052603260045260246000fd5b60200260200101906001600160a01b031690816001600160a01b0316815250508281600181518110611d5857634e487b7160e01b600052603260045260246000fd5b6001600160a01b039290921660209283029190910190910152604080516002808252606082810190935281602001602082028036833750506007546040517fd06ca61f0000000000000000000000000000000000000000000000000000000081529293506001600160a01b03169163d06ca61f9150611ddd9089908690600401613de5565b60006040518083038186803b158015611df557600080fd5b505afa158015611e09573d6000803e3d6000fd5b505050506040513d6000823e601f3d9081017fffffffffffffffffffffffffffffffffffffffffffffffffffffffffffffffe0168201604052611e4f9190810190613663565b905080600181518110611e7257634e487b7160e01b600052603260045260246000fd5b6020026020010151925050509392505050565b611e8d611502565b6001600160a01b0316336001600160a01b03161480611eb65750600c546001600160a01b031633145b611ed25760405162461bcd60e51b8152600401610cd090613c20565b600980546001600160a01b0319166001600160a01b0392909216919091179055565b606082821115611f165760405162461bcd60e51b8152600401610cd090613b8e565b60008267ffffffffffffffff811115611f3f57634e487b7160e01b600052604160045260246000fd5b604051908082528060200260200182016040528015611f68578160200160208202803683370190505b5091505b82811015612025576000611f7f8561353d565b611f8a906001613e2a565b90506000805b85811015611fde5782858281518110611fb957634e487b7160e01b600052603260045260246000fd5b60200260200101511415611fcc57600191505b80611fd681613ea3565b915050611f90565b508061201e578184848151811061200557634e487b7160e01b600052603260045260246000fd5b60209081029190910101528261201a81613ea3565b9350505b5050611f6c565b60005b8381101561207a5782818151811061205057634e487b7160e01b600052603260045260246000fd5b60200260200101805180919061206590613e8c565b9052508061207281613ea3565b915050612028565b505092915050565b600a546040517f3d13738600000000000000000000000000000000000000000000000000000000815260009182916001600160a01b0390911690633d137386906120d09088906004016138e5565b60206040518083038186803b1580156120e857600080fd5b505afa1580156120fc573d6000803e3d6000fd5b505050506040513d601f19601f8201168201806040525081019061212091906137a3565b9050600061212f606485613e42565b606461213b8488613e56565b6121459190613e42565b61214f9190613e56565b600a54600480546040517fcadafe140000000000000000000000000000000000000000000000000000000081529394506001600160a01b039283169363cadafe14936121a2939216918b91879101613913565b600060405180830381600087803b1580156121bc57600080fd5b505af11580156121d0573d6000803e3d6000fd5b509298975050505050505050565b60005b601154811015611cc5576000600d60006011848154811061221257634e487b7160e01b600052603260045260246000fd5b60009182526020808320909101546001600160a01b03168352820192909252604001902054111561234e57600d60006011838154811061226257634e487b7160e01b600052603260045260246000fd5b9060005260206000200160009054906101000a90046001600160a01b03166001600160a01b03166001600160a01b0316815260200190815260200160002054600e6000601184815481106122c657634e487b7160e01b600052603260045260246000fd5b60009182526020808320909101546001600160a01b03168352820192909252604001812080549091906122fa908490613e2a565b925050819055506000600d60006011848154811061232857634e487b7160e01b600052603260045260246000fd5b60009182526020808320909101546001600160a01b031683528201929092526040019020555b6000600f60006011848154811061237557634e487b7160e01b600052603260045260246000fd5b60009182526020808320909101546001600160a01b031683528201929092526040019020541115612e5f57600e6000601183815481106123c557634e487b7160e01b600052603260045260246000fd5b9060005260206000200160009054906101000a90046001600160a01b03166001600160a01b03166001600160a01b0316815260200190815260200160002054600f60006011848154811061242957634e487b7160e01b600052603260045260246000fd5b60009182526020808320909101546001600160a01b0316835282019290925260400190205411612e5f57600f60006011838154811061247857634e487b7160e01b600052603260045260246000fd5b9060005260206000200160009054906101000a90046001600160a01b03166001600160a01b03166001600160a01b0316815260200190815260200160002054600e6000601184815481106124dc57634e487b7160e01b600052603260045260246000fd5b60009182526020808320909101546001600160a01b0316835282019290925260400181208054909190612510908490613e75565b9091555050600854600b54601180546001600160a01b039093169263441a3e709291600f91600091908790811061255757634e487b7160e01b600052603260045260246000fd5b60009182526020808320909101546001600160a01b0316835282019290925260409081019091205490517fffffffff0000000000000000000000000000000000000000000000000000000060e085901b1681526125b8929190600401613e06565b600060405180830381600087803b1580156125d257600080fd5b505af11580156125e6573d6000803e3d6000fd5b5050600954600754601180546001600160a01b03938416955063095ea7b394509290911691600f916000918790811061262f57634e487b7160e01b600052603260045260246000fd5b60009182526020808320909101546001600160a01b0316835282019290925260409081019091205490517fffffffff0000000000000000000000000000000000000000000000000000000060e085901b168152612690929190600401613977565b602060405180830381600087803b1580156126aa57600080fd5b505af11580156126be573d6000803e3d6000fd5b505050506040513d601f19601f820116820180604052508101906126e2919061371d565b506000806126ee610eda565b601854919350915060ff1615612a52576007546004546011805460009384936001600160a01b03918216936302751cec939290911691600f9186918b90811061274757634e487b7160e01b600052603260045260246000fd5b9060005260206000200160009054906101000a90046001600160a01b03166001600160a01b03166001600160a01b0316815260200190815260200160002054600354612710600f600060118d815481106127b157634e487b7160e01b600052603260045260246000fd5b60009182526020808320909101546001600160a01b031683528201929092526040019020546127e0908b613e56565b6127ea9190613e42565b6127f6906126ac613e56565b6128009190613e42565b600354612710600f600060118e8154811061282b57634e487b7160e01b600052603260045260246000fd5b60009182526020808320909101546001600160a01b0316835282019290925260400190205461285a908b613e56565b6128649190613e42565b612870906126ac613e56565b61287a9190613e42565b30612887426104b0613e2a565b6040518763ffffffff1660e01b81526004016128a896959493929190613990565b6040805180830381600087803b1580156128c157600080fd5b505af11580156128d5573d6000803e3d6000fd5b505050506040513d601f19601f820116820180604052508101906128f99190613817565b600454601180549395509193506001600160a01b03169163a9059cbb91908890811061293557634e487b7160e01b600052603260045260246000fd5b6000918252602090912001546040517fffffffff0000000000000000000000000000000000000000000000000000000060e084901b168152612985916001600160a01b0316908690600401613977565b602060405180830381600087803b15801561299f57600080fd5b505af11580156129b3573d6000803e3d6000fd5b505050506040513d601f19601f820116820180604052508101906129d7919061371d565b50601185815481106129f957634e487b7160e01b600052603260045260246000fd5b6000918252602090912001546019546001600160a01b03909116906108fc90612a229084613e42565b6040518115909202916000818181858888f19350505050158015612a4a573d6000803e3d6000fd5b505050612e10565b6007546004546005546011805460009485946001600160a01b039182169463baa2abde9491831693921691600f9187918c908110612aa057634e487b7160e01b600052603260045260246000fd5b9060005260206000200160009054906101000a90046001600160a01b03166001600160a01b03166001600160a01b0316815260200190815260200160002054600354612710600f600060118e81548110612b0a57634e487b7160e01b600052603260045260246000fd5b60009182526020808320909101546001600160a01b03168352820192909252604001902054612b39908c613e56565b612b439190613e42565b612b4f906126ac613e56565b612b599190613e42565b600354612710600f600060118f81548110612b8457634e487b7160e01b600052603260045260246000fd5b60009182526020808320909101546001600160a01b03168352820192909252604001902054612bb3908c613e56565b612bbd9190613e42565b612bc9906126ac613e56565b612bd39190613e42565b30612be0426104b0613e2a565b6040518863ffffffff1660e01b8152600401612c029796959493929190613937565b6040805180830381600087803b158015612c1b57600080fd5b505af1158015612c2f573d6000803e3d6000fd5b505050506040513d601f19601f82011682018060405250810190612c539190613817565b600454601180549395509193506001600160a01b03169163a9059cbb919088908110612c8f57634e487b7160e01b600052603260045260246000fd5b6000918252602090912001546040517fffffffff0000000000000000000000000000000000000000000000000000000060e084901b168152612cdf916001600160a01b0316908690600401613977565b602060405180830381600087803b158015612cf957600080fd5b505af1158015612d0d573d6000803e3d6000fd5b505050506040513d601f19601f82011682018060405250810190612d31919061371d565b50600554601180546001600160a01b039092169163a9059cbb919088908110612d6a57634e487b7160e01b600052603260045260246000fd5b6000918252602090912001546040517fffffffff0000000000000000000000000000000000000000000000000000000060e084901b168152612dba916001600160a01b0316908590600401613977565b602060405180830381600087803b158015612dd457600080fd5b505af1158015612de8573d6000803e3d6000fd5b505050506040513d601f19601f82011682018060405250810190612e0c919061371d565b5050505b6000600f600060118681548110612e3757634e487b7160e01b600052603260045260246000fd5b60009182526020808320909101546001600160a01b0316835282019290925260400190205550505b80612e6981613ea3565b9150506121e1565b612e7961354e565b6001600160a01b0316612e8a611502565b6001600160a01b0316146113e85760405162461bcd60e51b8152600401610cd090613cb4565b600180546001600160a01b038381166001600160a01b0319831681179093556040519116919082907f8be0079c531659141344cd1fd0a4f28419497f9722a3daafe3b4186f6b6457e090600090a35050565b600a546040517f929066f50000000000000000000000000000000000000000000000000000000081526000916001600160a01b03169063929066f590612f4c9033906004016138e5565b60206040518083038186803b158015612f6457600080fd5b505afa158015612f78573d6000803e3d6000fd5b505050506040513d601f19601f82011682018060405250810190612f9c919061371d565b612fb85760405162461bcd60e51b8152600401610cd090613d57565b600080612fc3610eda565b6003546005546006549395509193506000929091612fef9185916001600160a01b039081169116611cce565b60045460065461300d9187916001600160a01b039182169116611cce565b6130179190613e2a565b336000908152600f6020908152604080832054600d835281842054600e9093529220546130449190613e2a565b61304e9190613e75565b6130589190613e56565b6130629190613e42565b6005546006549192506000916130869188916001600160a01b039182169116611cce565b6004546006546130a4918a916001600160a01b039182169116611cce565b6130ae9190613e2a565b6013549091506130be8284613e2a565b10156130dc5760405162461bcd60e51b8152600401610cd090613b20565b6014546130e98284613e2a565b11156131075760405162461bcd60e51b8152600401610cd090613beb565b600480546040517f23b872dd0000000000000000000000000000000000000000000000000000000081526000926001600160a01b03909216916323b872dd9161315691339130918e9101613913565b602060405180830381600087803b15801561317057600080fd5b505af1158015613184573d6000803e3d6000fd5b505050506040513d601f19601f820116820180604052508101906131a8919061371d565b9050806131c75760405162461bcd60e51b8152600401610cd090613d8e565b600480546007546040517f095ea7b30000000000000000000000000000000000000000000000000000000081526000936001600160a01b039384169363095ea7b393613218939116918e9101613977565b602060405180830381600087803b15801561323257600080fd5b505af1158015613246573d6000803e3d6000fd5b505050506040513d601f19601f8201168201806040525081019061326a919061371d565b506007546004546001600160a01b039182169163f305d719918b91168c61329361271082613e42565b61329f906126ac613e56565b6132ab6127108f613e42565b6132b7906126ac613e56565b306132c4426104b0613e2a565b6040518863ffffffff1660e01b81526004016132e596959493929190613990565b6060604051808303818588803b1580156132fe57600080fd5b505af1158015613312573d6000803e3d6000fd5b50505050506040513d601f19601f82011682018060405250810190613337919061383a565b6009546008546040517f095ea7b30000000000000000000000000000000000000000000000000000000081529295506001600160a01b03918216945063095ea7b3935061338b929116908590600401613977565b602060405180830381600087803b1580156133a557600080fd5b505af11580156133b9573d6000803e3d6000fd5b505050506040513d601f19601f820116820180604052508101906133dd919061371d565b50600854600b546040517fe2bbb1580000000000000000000000000000000000000000000000000000000081526001600160a01b039092169163e2bbb1589161342a918590600401613e06565b600060405180830381600087803b15801561344457600080fd5b505af1158015613458573d6000803e3d6000fd5b5050336000908152600d60205260408120805485945090925061347c908490613e2a565b9091555061348b905033611511565b61352e573360008181526012602052604080822080547fffffffffffffffffffffffffffffffffffffffffffffffffffffffffffffff0016600190811790915560118054918201815583527f31ecc21a745e3968a04e9570e4425bc18fa8019c68028196b546d1669c200c680180546001600160a01b03191684179055517f79229b212fa3ea547fb5e5b66090cf250d442b12a51854a030f3b796d528134e9190a25b50600198975050505050505050565b600061354882613552565b92915050565b3390565b60008054818061356183613ea3565b919050555081423360005460405160200161357e939291906138aa565b6040516020818303038152906040528051906020012060001c6135489190613ebe565b80356001600160a01b03811681146111da57600080fd5b80516dffffffffffffffffffffffffffff811681146111da57600080fd5b6000602082840312156135e7578081fd5b611ba9826135a1565b60008060008060008060c08789031215613608578182fd5b613611876135a1565b955061361f602088016135a1565b945061362d604088016135a1565b935061363b606088016135a1565b9250613649608088016135a1565b915061365760a088016135a1565b90509295509295509295565b60006020808385031215613675578182fd5b825167ffffffffffffffff8082111561368c578384fd5b818501915085601f83011261369f578384fd5b8151818111156136b1576136b1613efe565b838102604051858282010181811085821117156136d0576136d0613efe565b604052828152858101935084860182860187018a10156136ee578788fd5b8795505b838610156137105780518552600195909501949386019386016136f2565b5098975050505050505050565b60006020828403121561372e578081fd5b81518015158114611ba9578182fd5b600080600060608486031215613751578283fd5b61375a846135b8565b9250613768602085016135b8565b9150604084015163ffffffff81168114613780578182fd5b809150509250925092565b60006020828403121561379c578081fd5b5035919050565b6000602082840312156137b4578081fd5b5051919050565b6000806000606084860312156137cf578283fd5b833592506137df602085016135a1565b91506137ed604085016135a1565b90509250925092565b60008060408385031215613808578182fd5b50508035926020909101359150565b60008060408385031215613829578182fd5b505080516020909101519092909150565b60008060006060848603121561384e578283fd5b8351925060208401519150604084015190509250925092565b6000815180845260208085019450808401835b8381101561389f5781516001600160a01b03168752958201959082019060010161387a565b509495945050505050565b92835260609190911b7fffffffffffffffffffffffffffffffffffffffff000000000000000000000000166020830152603482015260540190565b6001600160a01b0391909116815260200190565b6001600160a01b0392831681529116602082015260400190565b6001600160a01b039384168152919092166020820152604081019190915260600190565b6001600160a01b039788168152958716602087015260408601949094526060850192909252608084015290921660a082015260c081019190915260e00190565b6001600160a01b03929092168252602082015260400190565b6001600160a01b039687168152602081019590955260408501939093526060840191909152909216608082015260a081019190915260c00190565b6000604082526139de6040830185613867565b90508260208301529392505050565b901515815260200190565b6020808252601c908201527f4e6f7420656e6f756768742043414b4520666f72206120636c61696d00000000604082015260600190565b6020808252602e908201527f66656550657263656e742063616e206e6f74206265206772656174207468616e60408201527f206d617846656550657263656e74000000000000000000000000000000000000606082015260800190565b60208082526026908201527f4f776e61626c653a206e6577206f776e657220697320746865207a65726f206160408201527f6464726573730000000000000000000000000000000000000000000000000000606082015260800190565b6020808252601d908201527f6d73672e76616c756520616e6420616d6f756e74206d69736d61746368000000604082015260600190565b6020808252601f908201527f546f74616c2062616c616e6365206c657373207468616e206d696e5553445400604082015260600190565b60208082526012908201527f4e6f7420656e6f7567687420546f6b656e300000000000000000000000000000604082015260600190565b6020808252602e908201527f436f756e74206f66206e756d626572206d757374206265206c6573732074686160408201527f6e206d6178206f7220657175616c000000000000000000000000000000000000606082015260800190565b6020808252818101527f546f74616c2062616c616e6365206772656174207468616e206d617855534454604082015260600190565b60208082526022908201527f43616c6c6572206973206e6f742062656e6566696369617279206f72206f776e60408201527f6572000000000000000000000000000000000000000000000000000000000000606082015260800190565b60208082526015908201527f4e6f7420656e6f75676874206c69717569646974790000000000000000000000604082015260600190565b6020808252818101527f4f776e61626c653a2063616c6c6572206973206e6f7420746865206f776e6572604082015260600190565b6020808252600f908201527f52657761726420697320656d7074790000000000000000000000000000000000604082015260600190565b6020808252601c908201527f4e6f7420656e6f7567687420616c6c6f77616e636520546f6b656e3000000000604082015260600190565b60208082526011908201527f4e6f742061205061727469636970616e74000000000000000000000000000000604082015260600190565b60208082526012908201527f7472616e73666572206973206661696c65640000000000000000000000000000604082015260600190565b90815260200190565b9182526001600160a01b0316602082015260400190565b600083825260406020830152613dfe6040830184613867565b949350505050565b918252602082015260400190565b9283526020830191909152604082015260600190565b60008219821115613e3d57613e3d613ed2565b500190565b600082613e5157613e51613ee8565b500490565b6000816000190483118215151615613e7057613e70613ed2565b500290565b600082821015613e8757613e87613ed2565b500390565b600081613e9b57613e9b613ed2565b506000190190565b6000600019821415613eb757613eb7613ed2565b5060010190565b600082613ecd57613ecd613ee8565b500690565b634e487b7160e01b600052601160045260246000fd5b634e487b7160e01b600052601260045260246000fd5b634e487b7160e01b600052604160045260246000fdfea26469706673582212208014ae4d6552d22cd7dd2bca9fdf6b8131ae8d16b91317f5a6266677d33aeb2364736f6c63430008000033",
  "linkReferences": {},
  "deployedLinkReferences": {}
}