{
  "_format": "hh-sol-artifact-1",
  "contractName": "PancakeERC20",
  "sourceName": "contracts/pancekeswap-fork/utils/PancakeERC20.sol",
  "abi": [
    {
      "inputs": [],
      "stateMutability": "nonpayable",
      "type": "constructor"
    },
    {
      "inputs": [],
      "name": "DOMAIN_SEPARATOR",
      "outputs": [
        {
          "internalType": "bytes32",
          "name": "",
          "type": "bytes32"
        }
      ],
      "stateMutability": "view",
      "type": "function"
    },
    {
      "inputs": [
        {
          "internalType": "address",
          "name": "",
          "type": "address"
        },
        {
          "internalType": "address",
          "name": "",
          "type": "address"
        }
      ],
      "name": "allowance",
      "outputs": [
        {
          "internalType": "uint256",
          "name": "",
          "type": "uint256"
        }
      ],
      "stateMutability": "view",
      "type": "function"
    },
    {
      "inputs": [
        {
          "internalType": "address",
          "name": "spender",
          "type": "address"
        },
        {
          "internalType": "uint256",
          "name": "value",
          "type": "uint256"
        }
      ],
      "name": "approve",
      "outputs": [
        {
          "internalType": "bool",
          "name": "",
          "type": "bool"
        }
      ],
      "stateMutability": "nonpayable",
      "type": "function"
    },
    {
      "inputs": [
        {
          "internalType": "address",
          "name": "",
          "type": "address"
        }
      ],
      "name": "balanceOf",
      "outputs": [
        {
          "internalType": "uint256",
          "name": "",
          "type": "uint256"
        }
      ],
      "stateMutability": "view",
      "type": "function"
    },
    {
      "inputs": [],
      "name": "decimals",
      "outputs": [
        {
          "internalType": "uint8",
          "name": "",
          "type": "uint8"
        }
      ],
      "stateMutability": "view",
      "type": "function"
    },
    {
      "inputs": [],
      "name": "name",
      "outputs": [
        {
          "internalType": "string",
          "name": "",
          "type": "string"
        }
      ],
      "stateMutability": "view",
      "type": "function"
    },
    {
      "inputs": [
        {
          "internalType": "address",
          "name": "",
          "type": "address"
        }
      ],
      "name": "nonces",
      "outputs": [
        {
          "internalType": "uint256",
          "name": "",
          "type": "uint256"
        }
      ],
      "stateMutability": "view",
      "type": "function"
    },
    {
      "inputs": [
        {
          "internalType": "address",
          "name": "owner",
          "type": "address"
        },
        {
          "internalType": "address",
          "name": "spender",
          "type": "address"
        },
        {
          "internalType": "uint256",
          "name": "value",
          "type": "uint256"
        },
        {
          "internalType": "uint256",
          "name": "deadline",
          "type": "uint256"
        },
        {
          "internalType": "uint8",
          "name": "v",
          "type": "uint8"
        },
        {
          "internalType": "bytes32",
          "name": "r",
          "type": "bytes32"
        },
        {
          "internalType": "bytes32",
          "name": "s",
          "type": "bytes32"
        }
      ],
      "name": "permit",
      "outputs": [],
      "stateMutability": "nonpayable",
      "type": "function"
    },
    {
      "inputs": [],
      "name": "symbol",
      "outputs": [
        {
          "internalType": "string",
          "name": "",
          "type": "string"
        }
      ],
      "stateMutability": "view",
      "type": "function"
    },
    {
      "inputs": [],
      "name": "totalSupply",
      "outputs": [
        {
          "internalType": "uint256",
          "name": "",
          "type": "uint256"
        }
      ],
      "stateMutability": "view",
      "type": "function"
    },
    {
      "inputs": [
        {
          "internalType": "address",
          "name": "to",
          "type": "address"
        },
        {
          "internalType": "uint256",
          "name": "value",
          "type": "uint256"
        }
      ],
      "name": "transfer",
      "outputs": [
        {
          "internalType": "bool",
          "name": "",
          "type": "bool"
        }
      ],
      "stateMutability": "nonpayable",
      "type": "function"
    },
    {
      "inputs": [
        {
          "internalType": "address",
          "name": "from",
          "type": "address"
        },
        {
          "internalType": "address",
          "name": "to",
          "type": "address"
        },
        {
          "internalType": "uint256",
          "name": "value",
          "type": "uint256"
        }
      ],
      "name": "transferFrom",
      "outputs": [
        {
          "internalType": "bool",
          "name": "",
          "type": "bool"
        }
      ],
      "stateMutability": "nonpayable",
      "type": "function"
    }
  ],
  "bytecode": "0x60806040523480156200001157600080fd5b5060004690507f8b73c3c69bb8fe3d512ecc4cf759cc79239f7b179b0ffacaa9a75d522b39400f6040518060400160405280600b81526020017f50616e63616b65204c5073000000000000000000000000000000000000000000815250805190602001206040518060400160405280600181526020017f3100000000000000000000000000000000000000000000000000000000000000815250805190602001208330604051602001620000ca95949392919062000120565b6040516020818303038152906040528051906020012060038190555050620001c5565b620000f8816200017d565b82525050565b620001098162000191565b82525050565b6200011a81620001bb565b82525050565b600060a082019050620001376000830188620000fe565b620001466020830187620000fe565b620001556040830186620000fe565b6200016460608301856200010f565b620001736080830184620000ed565b9695505050505050565b60006200018a826200019b565b9050919050565b6000819050919050565b600073ffffffffffffffffffffffffffffffffffffffff82169050919050565b6000819050919050565b610c3580620001d56000396000f3fe608060405234801561001057600080fd5b50600436106100b45760003560e01c806370a082311161007157806370a08231146101915780637ecebe00146101c157806395d89b41146101f1578063a9059cbb1461020f578063d505accf1461023f578063dd62ed3e1461025b576100b4565b806306fdde03146100b9578063095ea7b3146100d757806318160ddd1461010757806323b872dd14610125578063313ce567146101555780633644e51514610173575b600080fd5b6100c161028b565b6040516100ce91906109d3565b60405180910390f35b6100f160048036038101906100ec91906108ec565b6102c4565b6040516100fe919061099d565b60405180910390f35b61010f6102db565b60405161011c91906109f5565b60405180910390f35b61013f600480360381019061013a91906107ff565b6102e1565b60405161014c919061099d565b60405180910390f35b61015d6104ac565b60405161016a9190610a10565b60405180910390f35b61017b6104b1565b60405161018891906109b8565b60405180910390f35b6101ab60048036038101906101a6919061079a565b6104b7565b6040516101b891906109f5565b60405180910390f35b6101db60048036038101906101d6919061079a565b6104cf565b6040516101e891906109f5565b60405180910390f35b6101f96104e7565b60405161020691906109d3565b60405180910390f35b610229600480360381019061022491906108ec565b610520565b604051610236919061099d565b60405180910390f35b6102596004803603810190610254919061084e565b610537565b005b610275600480360381019061027091906107c3565b610540565b60405161028291906109f5565b60405180910390f35b6040518060400160405280600b81526020017f50616e63616b65204c507300000000000000000000000000000000000000000081525081565b60006102d1338484610565565b6001905092915050565b60005481565b60007fffffffffffffffffffffffffffffffffffffffffffffffffffffffffffffffff600260008673ffffffffffffffffffffffffffffffffffffffff1673ffffffffffffffffffffffffffffffffffffffff16815260200190815260200160002060003373ffffffffffffffffffffffffffffffffffffffff1673ffffffffffffffffffffffffffffffffffffffff16815260200190815260200160002054146104965761041582600260008773ffffffffffffffffffffffffffffffffffffffff1673ffffffffffffffffffffffffffffffffffffffff16815260200190815260200160002060003373ffffffffffffffffffffffffffffffffffffffff1673ffffffffffffffffffffffffffffffffffffffff168152602001908152602001600020546105eb90919063ffffffff16565b600260008673ffffffffffffffffffffffffffffffffffffffff1673ffffffffffffffffffffffffffffffffffffffff16815260200190815260200160002060003373ffffffffffffffffffffffffffffffffffffffff1673ffffffffffffffffffffffffffffffffffffffff168152602001908152602001600020819055505b6104a1848484610601565b600190509392505050565b601281565b60035481565b60016020528060005260406000206000915090505481565b60046020528060005260406000206000915090505481565b6040518060400160405280600781526020017f43616b652d4c500000000000000000000000000000000000000000000000000081525081565b600061052d338484610601565b6001905092915050565b50505050505050565b6002602052816000526040600020602052806000526040600020600091509150505481565b80600260008573ffffffffffffffffffffffffffffffffffffffff1673ffffffffffffffffffffffffffffffffffffffff16815260200190815260200160002060008473ffffffffffffffffffffffffffffffffffffffff1673ffffffffffffffffffffffffffffffffffffffff16815260200190815260200160002081905550505050565b600081836105f99190610a9d565b905092915050565b61065381600160008673ffffffffffffffffffffffffffffffffffffffff1673ffffffffffffffffffffffffffffffffffffffff168152602001908152602001600020546105eb90919063ffffffff16565b600160008573ffffffffffffffffffffffffffffffffffffffff1673ffffffffffffffffffffffffffffffffffffffff168152602001908152602001600020819055506106e881600160008573ffffffffffffffffffffffffffffffffffffffff1673ffffffffffffffffffffffffffffffffffffffff1681526020019081526020016000205461073090919063ffffffff16565b600160008473ffffffffffffffffffffffffffffffffffffffff1673ffffffffffffffffffffffffffffffffffffffff16815260200190815260200160002081905550505050565b6000818361073e9190610a47565b905092915050565b60008135905061075581610ba3565b92915050565b60008135905061076a81610bba565b92915050565b60008135905061077f81610bd1565b92915050565b60008135905061079481610be8565b92915050565b6000602082840312156107ac57600080fd5b60006107ba84828501610746565b91505092915050565b600080604083850312156107d657600080fd5b60006107e485828601610746565b92505060206107f585828601610746565b9150509250929050565b60008060006060848603121561081457600080fd5b600061082286828701610746565b935050602061083386828701610746565b925050604061084486828701610770565b9150509250925092565b600080600080600080600060e0888a03121561086957600080fd5b60006108778a828b01610746565b97505060206108888a828b01610746565b96505060406108998a828b01610770565b95505060606108aa8a828b01610770565b94505060806108bb8a828b01610785565b93505060a06108cc8a828b0161075b565b92505060c06108dd8a828b0161075b565b91505092959891949750929550565b600080604083850312156108ff57600080fd5b600061090d85828601610746565b925050602061091e85828601610770565b9150509250929050565b61093181610ae3565b82525050565b61094081610aef565b82525050565b600061095182610a2b565b61095b8185610a36565b935061096b818560208601610b30565b61097481610b92565b840191505092915050565b61098881610b19565b82525050565b61099781610b23565b82525050565b60006020820190506109b26000830184610928565b92915050565b60006020820190506109cd6000830184610937565b92915050565b600060208201905081810360008301526109ed8184610946565b905092915050565b6000602082019050610a0a600083018461097f565b92915050565b6000602082019050610a25600083018461098e565b92915050565b600081519050919050565b600082825260208201905092915050565b6000610a5282610b19565b9150610a5d83610b19565b9250827fffffffffffffffffffffffffffffffffffffffffffffffffffffffffffffffff03821115610a9257610a91610b63565b5b828201905092915050565b6000610aa882610b19565b9150610ab383610b19565b925082821015610ac657610ac5610b63565b5b828203905092915050565b6000610adc82610af9565b9050919050565b60008115159050919050565b6000819050919050565b600073ffffffffffffffffffffffffffffffffffffffff82169050919050565b6000819050919050565b600060ff82169050919050565b60005b83811015610b4e578082015181840152602081019050610b33565b83811115610b5d576000848401525b50505050565b7f4e487b7100000000000000000000000000000000000000000000000000000000600052601160045260246000fd5b6000601f19601f8301169050919050565b610bac81610ad1565b8114610bb757600080fd5b50565b610bc381610aef565b8114610bce57600080fd5b50565b610bda81610b19565b8114610be557600080fd5b50565b610bf181610b23565b8114610bfc57600080fd5b5056fea264697066735822122016727cb4fa13a465d9b297a4adc9bcbed6fc62e943bf28f7f638c4d5a00dacb464736f6c63430008010033",
  "linkReferences": {},
  "deployedLinkReferences": {}
}