{
  "_format": "hh-sol-artifact-1",
  "contractName": "PancakeERC20",
  "sourceName": "contracts/pancekeswap-fork/utils/PancakeERC20.sol",
  "abi": [
    {
      "inputs": [],
      "stateMutability": "nonpayable",
      "type": "constructor"
    },
    {
      "inputs": [],
      "name": "DOMAIN_SEPARATOR",
      "outputs": [
        {
          "internalType": "bytes32",
          "name": "",
          "type": "bytes32"
        }
      ],
      "stateMutability": "view",
      "type": "function"
    },
    {
      "inputs": [
        {
          "internalType": "address",
          "name": "",
          "type": "address"
        },
        {
          "internalType": "address",
          "name": "",
          "type": "address"
        }
      ],
      "name": "allowance",
      "outputs": [
        {
          "internalType": "uint256",
          "name": "",
          "type": "uint256"
        }
      ],
      "stateMutability": "view",
      "type": "function"
    },
    {
      "inputs": [
        {
          "internalType": "address",
          "name": "spender",
          "type": "address"
        },
        {
          "internalType": "uint256",
          "name": "value",
          "type": "uint256"
        }
      ],
      "name": "approve",
      "outputs": [
        {
          "internalType": "bool",
          "name": "",
          "type": "bool"
        }
      ],
      "stateMutability": "nonpayable",
      "type": "function"
    },
    {
      "inputs": [
        {
          "internalType": "address",
          "name": "",
          "type": "address"
        }
      ],
      "name": "balanceOf",
      "outputs": [
        {
          "internalType": "uint256",
          "name": "",
          "type": "uint256"
        }
      ],
      "stateMutability": "view",
      "type": "function"
    },
    {
      "inputs": [],
      "name": "decimals",
      "outputs": [
        {
          "internalType": "uint8",
          "name": "",
          "type": "uint8"
        }
      ],
      "stateMutability": "view",
      "type": "function"
    },
    {
      "inputs": [],
      "name": "name",
      "outputs": [
        {
          "internalType": "string",
          "name": "",
          "type": "string"
        }
      ],
      "stateMutability": "view",
      "type": "function"
    },
    {
      "inputs": [
        {
          "internalType": "address",
          "name": "",
          "type": "address"
        }
      ],
      "name": "nonces",
      "outputs": [
        {
          "internalType": "uint256",
          "name": "",
          "type": "uint256"
        }
      ],
      "stateMutability": "view",
      "type": "function"
    },
    {
      "inputs": [
        {
          "internalType": "address",
          "name": "owner",
          "type": "address"
        },
        {
          "internalType": "address",
          "name": "spender",
          "type": "address"
        },
        {
          "internalType": "uint256",
          "name": "value",
          "type": "uint256"
        },
        {
          "internalType": "uint256",
          "name": "deadline",
          "type": "uint256"
        },
        {
          "internalType": "uint8",
          "name": "v",
          "type": "uint8"
        },
        {
          "internalType": "bytes32",
          "name": "r",
          "type": "bytes32"
        },
        {
          "internalType": "bytes32",
          "name": "s",
          "type": "bytes32"
        }
      ],
      "name": "permit",
      "outputs": [],
      "stateMutability": "nonpayable",
      "type": "function"
    },
    {
      "inputs": [],
      "name": "symbol",
      "outputs": [
        {
          "internalType": "string",
          "name": "",
          "type": "string"
        }
      ],
      "stateMutability": "view",
      "type": "function"
    },
    {
      "inputs": [],
      "name": "totalSupply",
      "outputs": [
        {
          "internalType": "uint256",
          "name": "",
          "type": "uint256"
        }
      ],
      "stateMutability": "view",
      "type": "function"
    },
    {
      "inputs": [
        {
          "internalType": "address",
          "name": "to",
          "type": "address"
        },
        {
          "internalType": "uint256",
          "name": "value",
          "type": "uint256"
        }
      ],
      "name": "transfer",
      "outputs": [
        {
          "internalType": "bool",
          "name": "",
          "type": "bool"
        }
      ],
      "stateMutability": "nonpayable",
      "type": "function"
    },
    {
      "inputs": [
        {
          "internalType": "address",
          "name": "from",
          "type": "address"
        },
        {
          "internalType": "address",
          "name": "to",
          "type": "address"
        },
        {
          "internalType": "uint256",
          "name": "value",
          "type": "uint256"
        }
      ],
      "name": "transferFrom",
      "outputs": [
        {
          "internalType": "bool",
          "name": "",
          "type": "bool"
        }
      ],
      "stateMutability": "nonpayable",
      "type": "function"
    }
  ],
  "bytecode": "0x608060405234801561001057600080fd5b50604080518082018252600b81526a50616e63616b65204c507360a81b6020918201528151808301835260018152603160f81b90820152905146916100bf917f8b73c3c69bb8fe3d512ecc4cf759cc79239f7b179b0ffacaa9a75d522b39400f917fe87cb5a4dc26cf9451529a20899fcee996799afd48d7c0db7c25e150b364661d917fc89efdaa54c0f20c7adf612882df0950f5a951637e0307cdcb4c672f298b8bc69186913091016100e0565b60408051601f1981840301815291905280516020909101206003555061010c565b9485526020850193909352604084019190915260608301526001600160a01b0316608082015260a00190565b6106f18061011b6000396000f3fe608060405234801561001057600080fd5b50600436106100d45760003560e01c806370a0823111610081578063a9059cbb1161005b578063a9059cbb1461018a578063d505accf1461019d578063dd62ed3e146101b2576100d4565b806370a082311461015c5780637ecebe001461016f57806395d89b4114610182576100d4565b806323b872dd116100b257806323b872dd1461012c578063313ce5671461013f5780633644e51514610154576100d4565b806306fdde03146100d9578063095ea7b3146100f757806318160ddd14610117575b600080fd5b6100e16101c5565b6040516100ee91906105de565b60405180910390f35b61010a6101053660046105a1565b6101fe565b6040516100ee91906105ca565b61011f610214565b6040516100ee91906105d5565b61010a61013a3660046104f5565b61021a565b6101476102f3565b6040516100ee919061064f565b61011f6102f8565b61011f61016a3660046104a9565b6102fe565b61011f61017d3660046104a9565b610310565b6100e1610322565b61010a6101983660046105a1565b61035b565b6101b06101ab366004610530565b610368565b005b61011f6101c03660046104c3565b610371565b6040518060400160405280600b81526020017f50616e63616b65204c507300000000000000000000000000000000000000000081525081565b600061020b33848461038e565b50600192915050565b60005481565b73ffffffffffffffffffffffffffffffffffffffff831660009081526002602090815260408083203384529091528120547fffffffffffffffffffffffffffffffffffffffffffffffffffffffffffffffff146102de5773ffffffffffffffffffffffffffffffffffffffff841660009081526002602090815260408083203384529091529020546102ac90836103c7565b73ffffffffffffffffffffffffffffffffffffffff851660009081526002602090815260408083203384529091529020555b6102e98484846103da565b5060019392505050565b601281565b60035481565b60016020526000908152604090205481565b60046020526000908152604090205481565b6040518060400160405280600781526020017f43616b652d4c500000000000000000000000000000000000000000000000000081525081565b600061020b3384846103da565b50505050505050565b600260209081526000928352604080842090915290825290205481565b73ffffffffffffffffffffffffffffffffffffffff92831660009081526002602090815260408083209490951682529290925291902055565b60006103d38284610675565b9392505050565b73ffffffffffffffffffffffffffffffffffffffff831660009081526001602052604090205461040a90826103c7565b73ffffffffffffffffffffffffffffffffffffffff80851660009081526001602052604080822093909355908416815220546104469082610474565b73ffffffffffffffffffffffffffffffffffffffff9092166000908152600160205260409020919091555050565b60006103d3828461065d565b803573ffffffffffffffffffffffffffffffffffffffff811681146104a457600080fd5b919050565b6000602082840312156104ba578081fd5b6103d382610480565b600080604083850312156104d5578081fd5b6104de83610480565b91506104ec60208401610480565b90509250929050565b600080600060608486031215610509578081fd5b61051284610480565b925061052060208501610480565b9150604084013590509250925092565b600080600080600080600060e0888a03121561054a578283fd5b61055388610480565b965061056160208901610480565b95506040880135945060608801359350608088013560ff81168114610584578384fd5b9699959850939692959460a0840135945060c09093013592915050565b600080604083850312156105b3578182fd5b6105bc83610480565b946020939093013593505050565b901515815260200190565b90815260200190565b6000602080835283518082850152825b8181101561060a578581018301518582016040015282016105ee565b8181111561061b5783604083870101525b50601f017fffffffffffffffffffffffffffffffffffffffffffffffffffffffffffffffe016929092016040019392505050565b60ff91909116815260200190565b600082198211156106705761067061068c565b500190565b6000828210156106875761068761068c565b500390565b7f4e487b7100000000000000000000000000000000000000000000000000000000600052601160045260246000fdfea2646970667358221220a9218295588a3ec7726691f5c8b041993e772240c312a880d4e409bd0eeff32b64736f6c63430008000033",
  "linkReferences": {},
  "deployedLinkReferences": {}
}