{
  "_format": "hh-sol-artifact-1",
  "contractName": "NFTDescriptor",
  "sourceName": "contracts/periphery/libraries/NFTDescriptor.sol",
  "abi": [
    {
      "inputs": [
        {
          "components": [
            {
              "internalType": "uint256",
              "name": "tokenId",
              "type": "uint256"
            },
            {
              "internalType": "address",
              "name": "quoteTokenAddress",
              "type": "address"
            },
            {
              "internalType": "address",
              "name": "baseTokenAddress",
              "type": "address"
            },
            {
              "internalType": "string",
              "name": "quoteTokenSymbol",
              "type": "string"
            },
            {
              "internalType": "string",
              "name": "baseTokenSymbol",
              "type": "string"
            },
            {
              "internalType": "uint8",
              "name": "quoteTokenDecimals",
              "type": "uint8"
            },
            {
              "internalType": "uint8",
              "name": "baseTokenDecimals",
              "type": "uint8"
            },
            {
              "internalType": "bool",
              "name": "flipRatio",
              "type": "bool"
            },
            {
              "internalType": "int24",
              "name": "tickLower",
              "type": "int24"
            },
            {
              "internalType": "int24",
              "name": "tickUpper",
              "type": "int24"
            },
            {
              "internalType": "int24",
              "name": "tickCurrent",
              "type": "int24"
            },
            {
              "internalType": "int24",
              "name": "tickSpacing",
              "type": "int24"
            },
            {
              "internalType": "uint24",
              "name": "fee",
              "type": "uint24"
            },
            {
              "internalType": "address",
              "name": "poolAddress",
              "type": "address"
            }
          ],
          "internalType": "struct NFTDescriptor.ConstructTokenURIParams",
          "name": "params",
          "type": "tuple"
        }
      ],
      "name": "constructTokenURI",
      "outputs": [
        {
          "internalType": "string",
          "name": "",
          "type": "string"
        }
      ],
      "stateMutability": "pure",
      "type": "function"
    }
  ],
  "bytecode": "0x610355610026600b82828239805160001a60731461001957fe5b30600052607381538281f3fe73000000000000000000000000000000000000000030146080604052600436106100355760003560e01c8063c49917d71461003a575b600080fd5b61004d61004836600461013d565b610063565b60405161005a91906102a8565b60405180910390f35b50606090565b803573ffffffffffffffffffffffffffffffffffffffff8116811461008d57600080fd5b919050565b8035801515811461008d57600080fd5b8035600281900b811461008d57600080fd5b600082601f8301126100c4578081fd5b813567ffffffffffffffff8111156100d857fe5b6100eb6020601f19601f840116016102fb565b8181528460208386010111156100ff578283fd5b816020850160208301379081016020019190915292915050565b803562ffffff8116811461008d57600080fd5b803560ff8116811461008d57600080fd5b60006020828403121561014e578081fd5b813567ffffffffffffffff80821115610165578283fd5b81840191506101c080838703121561017b578384fd5b610184816102fb565b90508235815261019660208401610069565b60208201526101a760408401610069565b60408201526060830135828111156101bd578485fd5b6101c9878286016100b4565b6060830152506080830135828111156101e0578485fd5b6101ec878286016100b4565b6080830152506101fe60a0840161012c565b60a082015261020f60c0840161012c565b60c082015261022060e08401610092565b60e082015261010091506102358284016100a2565b8282015261012091506102498284016100a2565b82820152610140915061025d8284016100a2565b8282015261016091506102718284016100a2565b828201526101809150610285828401610119565b828201526101a09150610299828401610069565b91810191909152949350505050565b6000602080835283518082850152825b818110156102d4578581018301518582016040015282016102b8565b818111156102e55783604083870101525b50601f01601f1916929092016040019392505050565b60405181810167ffffffffffffffff8111828210171561031757fe5b60405291905056fea2646970667358221220d381f0b864f94c325b879eee297d969f1e0a2c7a661ff0fd345357a85346f81164736f6c63430007060033",
  "linkReferences": {},
  "deployedLinkReferences": {}
}