{
  "_format": "hh-sol-artifact-1",
  "contractName": "FrogReferal",
  "sourceName": "contracts/frogs/FrogReferal.sol",
  "abi": [
    {
      "inputs": [
        {
          "internalType": "address",
          "name": "_beneficiary",
          "type": "address"
        },
        {
          "internalType": "address",
          "name": "_publicKey",
          "type": "address"
        }
      ],
      "stateMutability": "nonpayable",
      "type": "constructor"
    },
    {
      "anonymous": false,
      "inputs": [
        {
          "indexed": true,
          "internalType": "address",
          "name": "previousOwner",
          "type": "address"
        },
        {
          "indexed": true,
          "internalType": "address",
          "name": "newOwner",
          "type": "address"
        }
      ],
      "name": "OwnershipTransferred",
      "type": "event"
    },
    {
      "anonymous": false,
      "inputs": [
        {
          "indexed": false,
          "internalType": "address",
          "name": "to",
          "type": "address"
        },
        {
          "indexed": false,
          "internalType": "address",
          "name": "lotteryAddress",
          "type": "address"
        },
        {
          "indexed": false,
          "internalType": "uint256",
          "name": "reward",
          "type": "uint256"
        }
      ],
      "name": "ReferalReward",
      "type": "event"
    },
    {
      "inputs": [
        {
          "components": [
            {
              "internalType": "address",
              "name": "wallet",
              "type": "address"
            },
            {
              "internalType": "uint256",
              "name": "reward0",
              "type": "uint256"
            },
            {
              "internalType": "uint256",
              "name": "reward1",
              "type": "uint256"
            }
          ],
          "internalType": "struct IFrogReferal.ReferersRewardInfo[]",
          "name": "data",
          "type": "tuple[]"
        },
        {
          "internalType": "address",
          "name": "token0",
          "type": "address"
        },
        {
          "internalType": "address",
          "name": "token1",
          "type": "address"
        }
      ],
      "name": "accrueRewardFromWinningReferral",
      "outputs": [],
      "stateMutability": "nonpayable",
      "type": "function"
    },
    {
      "inputs": [
        {
          "internalType": "address",
          "name": "",
          "type": "address"
        }
      ],
      "name": "alreadyParticipant",
      "outputs": [
        {
          "internalType": "bool",
          "name": "",
          "type": "bool"
        }
      ],
      "stateMutability": "view",
      "type": "function"
    },
    {
      "inputs": [
        {
          "internalType": "address",
          "name": "",
          "type": "address"
        },
        {
          "internalType": "address",
          "name": "",
          "type": "address"
        }
      ],
      "name": "balance",
      "outputs": [
        {
          "internalType": "uint256",
          "name": "",
          "type": "uint256"
        }
      ],
      "stateMutability": "view",
      "type": "function"
    },
    {
      "inputs": [],
      "name": "beneficiary",
      "outputs": [
        {
          "internalType": "address",
          "name": "",
          "type": "address"
        }
      ],
      "stateMutability": "view",
      "type": "function"
    },
    {
      "inputs": [
        {
          "internalType": "address[]",
          "name": "tokens",
          "type": "address[]"
        }
      ],
      "name": "claimReward",
      "outputs": [],
      "stateMutability": "nonpayable",
      "type": "function"
    },
    {
      "inputs": [
        {
          "internalType": "address",
          "name": "",
          "type": "address"
        }
      ],
      "name": "isLottery",
      "outputs": [
        {
          "internalType": "bool",
          "name": "",
          "type": "bool"
        }
      ],
      "stateMutability": "view",
      "type": "function"
    },
    {
      "inputs": [],
      "name": "owner",
      "outputs": [
        {
          "internalType": "address",
          "name": "",
          "type": "address"
        }
      ],
      "stateMutability": "view",
      "type": "function"
    },
    {
      "inputs": [
        {
          "internalType": "address",
          "name": "newLotteryAddress",
          "type": "address"
        }
      ],
      "name": "registerNewLottery",
      "outputs": [],
      "stateMutability": "nonpayable",
      "type": "function"
    },
    {
      "inputs": [
        {
          "internalType": "bytes",
          "name": "message",
          "type": "bytes"
        },
        {
          "internalType": "uint8",
          "name": "_v",
          "type": "uint8"
        },
        {
          "internalType": "bytes32",
          "name": "_r",
          "type": "bytes32"
        },
        {
          "internalType": "bytes32",
          "name": "_s",
          "type": "bytes32"
        }
      ],
      "name": "registerReferal",
      "outputs": [
        {
          "internalType": "bool",
          "name": "result",
          "type": "bool"
        }
      ],
      "stateMutability": "nonpayable",
      "type": "function"
    },
    {
      "inputs": [],
      "name": "renounceOwnership",
      "outputs": [],
      "stateMutability": "nonpayable",
      "type": "function"
    },
    {
      "inputs": [
        {
          "internalType": "address",
          "name": "_newBeneficiary",
          "type": "address"
        }
      ],
      "name": "setBeneficiary",
      "outputs": [],
      "stateMutability": "nonpayable",
      "type": "function"
    },
    {
      "inputs": [
        {
          "internalType": "address",
          "name": "factory",
          "type": "address"
        }
      ],
      "name": "setFactoryAddress",
      "outputs": [],
      "stateMutability": "nonpayable",
      "type": "function"
    },
    {
      "inputs": [
        {
          "internalType": "address",
          "name": "newOwner",
          "type": "address"
        }
      ],
      "name": "transferOwnership",
      "outputs": [],
      "stateMutability": "nonpayable",
      "type": "function"
    }
  ],
  "bytecode": "0x608060405234801561001057600080fd5b5060405161109938038061109983398101604081905261002f916100fa565b61003f61003a61008a565b61008e565b600280546001600160a01b039384166001600160a01b031991821617909155336000908152600760205260409020805460ff191660011790556003805492909316911617905561012c565b3390565b600080546001600160a01b038381166001600160a01b0319831681178455604051919092169283917f8be0079c531659141344cd1fd0a4f28419497f9722a3daafe3b4186f6b6457e09190a35050565b80516001600160a01b03811681146100f557600080fd5b919050565b6000806040838503121561010c578182fd5b610115836100de565b9150610123602084016100de565b90509250929050565b610f5e8061013b6000396000f3fe608060405234801561001057600080fd5b50600436106100df5760003560e01c806383c17c551161008c578063b203bb9911610066578063b203bb9914610193578063be345453146101b3578063dde7cd51146101c6578063f2fde38b146101d9576100df565b806383c17c55146101585780638da5cb5b1461016b57806394dbed5a14610173576100df565b80636b27b5de116100bd5780636b27b5de1461012a578063715018a61461013d578063820356c514610145576100df565b806301e1db32146100e45780631c31f710146100f957806338af3eed1461010c575b600080fd5b6100f76100f23660046109f9565b6101ec565b005b6100f76101073660046109f9565b610243565b6101146102bf565b6040516101219190610c49565b60405180910390f35b6100f7610138366004610ac3565b6102ce565b6100f7610534565b6100f7610153366004610a54565b610548565b6100f76101663660046109f9565b61071b565b610114610797565b610186610181366004610b75565b6107a6565b6040516101219190610c9a565b6101a66101a1366004610a1c565b6108d8565b6040516101219190610ea3565b6101866101c13660046109f9565b6108f5565b6101866101d43660046109f9565b61090a565b6100f76101e73660046109f9565b61091f565b6006546001600160a01b0316331461021f5760405162461bcd60e51b815260040161021690610e20565b60405180910390fd5b6001600160a01b03166000908152600560205260409020805460ff19166001179055565b61024b610797565b6001600160a01b0316336001600160a01b0316148061027457506002546001600160a01b031633145b6102905760405162461bcd60e51b815260040161021690610d8e565b6002805473ffffffffffffffffffffffffffffffffffffffff19166001600160a01b0392909216919091179055565b6002546001600160a01b031681565b3360009081526005602052604090205460ff166102fd5760405162461bcd60e51b815260040161021690610d20565b8260005b8181101561052c5785858281811061032957634e487b7160e01b600052603260045260246000fd5b9050606002016020013560046000866001600160a01b03166001600160a01b03168152602001908152602001600020600088888581811061037a57634e487b7160e01b600052603260045260246000fd5b61039092602060609092020190810191506109f9565b6001600160a01b03166001600160a01b0316815260200190815260200160002060008282546103bf9190610eac565b9091555086905085828181106103e557634e487b7160e01b600052603260045260246000fd5b9050606002016040013560046000856001600160a01b03166001600160a01b03168152602001908152602001600020600088888581811061043657634e487b7160e01b600052603260045260246000fd5b61044c92602060609092020190810191506109f9565b6001600160a01b03166001600160a01b03168152602001908152602001600020600082825461047b9190610eac565b909155507f57cccde60e35b5d41e9ef05831a12eb1079b8add56fb8f9784316da04eeaeb4590508686838181106104c257634e487b7160e01b600052603260045260246000fd5b6104d892602060609092020190810191506109f9565b338888858181106104f957634e487b7160e01b600052603260045260246000fd5b9050606002016020013560405161051293929190610c5d565b60405180910390a18061052481610ec4565b915050610301565b505050505050565b61053c610959565b6105466000610998565b565b8060005b818110156107155783838281811061057457634e487b7160e01b600052603260045260246000fd5b905060200201602081019061058991906109f9565b6001600160a01b031663a9059cbb33600460008888878181106105bc57634e487b7160e01b600052603260045260246000fd5b90506020020160208101906105d191906109f9565b6001600160a01b0316815260208082019290925260409081016000908120338252909252908190205490517fffffffff0000000000000000000000000000000000000000000000000000000060e085901b168152610633929190600401610c81565b602060405180830381600087803b15801561064d57600080fd5b505af1158015610661573d6000803e3d6000fd5b505050506040513d601f19601f820116820180604052508101906106859190610b55565b6106a15760405162461bcd60e51b815260040161021690610d57565b6000600460008686858181106106c757634e487b7160e01b600052603260045260246000fd5b90506020020160208101906106dc91906109f9565b6001600160a01b03168152602080820192909252604090810160009081203382529092529020558061070d81610ec4565b91505061054c565b50505050565b610723610797565b6001600160a01b0316336001600160a01b0316148061074c57506002546001600160a01b031633145b6107685760405162461bcd60e51b815260040161021690610d8e565b6006805473ffffffffffffffffffffffffffffffffffffffff19166001600160a01b0392909216919091179055565b6000546001600160a01b031690565b3360009081526005602052604081205460ff166107d55760405162461bcd60e51b815260040161021690610d20565b600086866040516107e7929190610c08565b6040519081900381206107fc91602001610c18565b604051602081830303815290604052805190602001209050600181868686604051600081526020016040526040516108379493929190610ca5565b6020604051602081039080840390855afa158015610859573d6000803e3d6000fd5b50506040517fffffffffffffffffffffffffffffffffffffffffffffffffffffffffffffffe001516003546001600160a01b0390811691161492505081156108ce5760006108a9878901896109f9565b6001600160a01b03166000908152600760205260409020805460ff1916841515179055505b5095945050505050565b600460209081526000928352604080842090915290825290205481565b60056020526000908152604090205460ff1681565b60076020526000908152604090205460ff1681565b610927610959565b6001600160a01b03811661094d5760405162461bcd60e51b815260040161021690610cc3565b61095681610998565b50565b6109616109f5565b6001600160a01b0316610972610797565b6001600160a01b0316146105465760405162461bcd60e51b815260040161021690610deb565b600080546001600160a01b0383811673ffffffffffffffffffffffffffffffffffffffff19831681178455604051919092169283917f8be0079c531659141344cd1fd0a4f28419497f9722a3daafe3b4186f6b6457e09190a35050565b3390565b600060208284031215610a0a578081fd5b8135610a1581610f13565b9392505050565b60008060408385031215610a2e578081fd5b8235610a3981610f13565b91506020830135610a4981610f13565b809150509250929050565b60008060208385031215610a66578182fd5b823567ffffffffffffffff80821115610a7d578384fd5b818501915085601f830112610a90578384fd5b813581811115610a9e578485fd5b8660208083028501011115610ab1578485fd5b60209290920196919550909350505050565b60008060008060608587031215610ad8578182fd5b843567ffffffffffffffff80821115610aef578384fd5b818701915087601f830112610b02578384fd5b813581811115610b10578485fd5b886020606083028501011115610b24578485fd5b60209283019650945050850135610b3a81610f13565b91506040850135610b4a81610f13565b939692955090935050565b600060208284031215610b66578081fd5b81518015158114610a15578182fd5b600080600080600060808688031215610b8c578081fd5b853567ffffffffffffffff80821115610ba3578283fd5b818801915088601f830112610bb6578283fd5b813581811115610bc4578384fd5b896020828501011115610bd5578384fd5b6020928301975095505086013560ff81168114610bf0578182fd5b94979396509394604081013594506060013592915050565b6000828483379101908152919050565b7f19457468657265756d205369676e6564204d6573736167653a0a3332000000008152601c810191909152603c0190565b6001600160a01b0391909116815260200190565b6001600160a01b039384168152919092166020820152604081019190915260600190565b6001600160a01b03929092168252602082015260400190565b901515815260200190565b93845260ff9290921660208401526040830152606082015260800190565b60208082526026908201527f4f776e61626c653a206e6577206f776e657220697320746865207a65726f206160408201527f6464726573730000000000000000000000000000000000000000000000000000606082015260800190565b60208082526017908201527f43616c6c6572206973206e6f742061206c6f7474657279000000000000000000604082015260600190565b6020808252601b908201527f636c61696d5265776172643a207472616e73666572206661696c640000000000604082015260600190565b60208082526022908201527f43616c6c6572206973206e6f742062656e6566696369617279206f72206f776e60408201527f6572000000000000000000000000000000000000000000000000000000000000606082015260800190565b6020808252818101527f4f776e61626c653a2063616c6c6572206973206e6f7420746865206f776e6572604082015260600190565b60208082526041908201527f72656769737465724e65774c6f74746572793a20796f7520617265206e6f742060408201527f616c6c6f77656420746f207265676973746572206e6577206c6f74746572696560608201527f7300000000000000000000000000000000000000000000000000000000000000608082015260a00190565b90815260200190565b60008219821115610ebf57610ebf610efd565b500190565b60007fffffffffffffffffffffffffffffffffffffffffffffffffffffffffffffffff821415610ef657610ef6610efd565b5060010190565b634e487b7160e01b600052601160045260246000fd5b6001600160a01b038116811461095657600080fdfea264697066735822122094ef52a52e7e47769dc7f3ffe5dfb8aad4e43e26236f5ff37bc4e78efd493d3264736f6c63430008010033",
  "linkReferences": {},
  "deployedLinkReferences": {}
}