{
  "_format": "hh-sol-artifact-1",
  "contractName": "Factory",
  "sourceName": "contracts/Factory.sol",
  "abi": [
    {
      "inputs": [
        {
          "internalType": "address",
          "name": "_FrogReferalAddress",
          "type": "address"
        }
      ],
      "stateMutability": "nonpayable",
      "type": "constructor"
    },
    {
      "inputs": [],
      "name": "cake_bnb",
      "outputs": [
        {
          "internalType": "address",
          "name": "",
          "type": "address"
        }
      ],
      "stateMutability": "view",
      "type": "function"
    },
    {
      "inputs": [
        {
          "internalType": "address",
          "name": "_FrogReferalAddress",
          "type": "address"
        }
      ],
      "name": "createNewLottery",
      "outputs": [],
      "stateMutability": "nonpayable",
      "type": "function"
    }
  ],
  "bytecode": "0x608060405234801561001057600080fd5b5060405161a2e038038061a2e083398101604081905261002f91610120565b600080546001600160a01b0319166001600160a01b03831617905561005381610059565b50610162565b6000546040516001600160a01b039091169061007490610113565b61007e919061014e565b604051809103906000f08015801561009a573d6000803e3d6000fd5b50600380546001600160a01b0319166001600160a01b03928316179081905560405162f0ed9960e11b8152838316926301e1db32926100de9291169060040161014e565b600060405180830381600087803b1580156100f857600080fd5b505af115801561010c573d6000803e3d6000fd5b5050505050565b614fa08061534083390190565b600060208284031215610131578081fd5b81516001600160a01b0381168114610147578182fd5b9392505050565b6001600160a01b0391909116815260200190565b6151cf806101716000396000f3fe608060405234801561001057600080fd5b50600436106100365760003560e01c8063998a02531461003b578063f6a2b5a014610050575b600080fd5b61004e61004936600461019d565b61006e565b005b610058610174565b60405161006591906101d8565b60405180910390f35b60005460405173ffffffffffffffffffffffffffffffffffffffff9091169061009690610190565b6100a091906101d8565b604051809103906000f0801580156100bc573d6000803e3d6000fd5b50600380547fffffffffffffffffffffffff00000000000000000000000000000000000000001673ffffffffffffffffffffffffffffffffffffffff92831617908190556040517f01e1db32000000000000000000000000000000000000000000000000000000008152838316926301e1db329261013f929116906004016101d8565b600060405180830381600087803b15801561015957600080fd5b505af115801561016d573d6000803e3d6000fd5b5050505050565b60035473ffffffffffffffffffffffffffffffffffffffff1681565b614fa0806101fa83390190565b6000602082840312156101ae578081fd5b813573ffffffffffffffffffffffffffffffffffffffff811681146101d1578182fd5b9392505050565b73ffffffffffffffffffffffffffffffffffffffff9190911681526020019056fe608060405260006002556127106003553480156200001c57600080fd5b5060405162004fa038038062004fa08339810160408190526200003f9162000343565b620000536200004d62000159565b6200015d565b600c80546001600160a01b03191633179055601e6016819055601555670de0b6b3a764000060135568056bc75e2d631000006014556001600b55620000ac730e09fabb73bd3ade0a17ecc321fd13a19e81ce82620001af565b620000cb73bb4cdb9cbd36b01bd1cbaebf2de08d9173bc095c620001db565b620000ea7355d398326f99059ff775485246999027b319795562000207565b620001097310ed43c718714eb63d5aa57b78b54704e256024e62000233565b6200012873a5f8c5dbd5f286960b9d90548680ae5ebff076526200025f565b62000147730ed7e52944161450477ee417de9cd3a859b14fd06200028b565b6200015281620002b7565b50620003a8565b3390565b600180546001600160a01b038381166001600160a01b0319831681179093556040519116919082907f8be0079c531659141344cd1fd0a4f28419497f9722a3daafe3b4186f6b6457e090600090a35050565b620001b9620002e3565b600480546001600160a01b0319166001600160a01b0392909216919091179055565b620001e5620002e3565b600580546001600160a01b0319166001600160a01b0392909216919091179055565b62000211620002e3565b600680546001600160a01b0319166001600160a01b0392909216919091179055565b6200023d620002e3565b600780546001600160a01b0319166001600160a01b0392909216919091179055565b62000269620002e3565b600880546001600160a01b0319166001600160a01b0392909216919091179055565b62000295620002e3565b600980546001600160a01b0319166001600160a01b0392909216919091179055565b620002c1620002e3565b600a80546001600160a01b0319166001600160a01b0392909216919091179055565b620002ed62000159565b6001600160a01b03166200030062000334565b6001600160a01b031614620003325760405162461bcd60e51b8152600401620003299062000373565b60405180910390fd5b565b6001546001600160a01b031690565b60006020828403121562000355578081fd5b81516001600160a01b03811681146200036c578182fd5b9392505050565b6020808252818101527f4f776e61626c653a2063616c6c6572206973206e6f7420746865206f776e6572604082015260600190565b614be880620003b86000396000f3fe6080604052600436106102385760003560e01c8063851ed85e11610138578063d80ffb20116100b0578063eedbc0561161007f578063f550ed9311610064578063f550ed9314610607578063f914958b1461061c578063fd0b2fec1461063c5761023f565b8063eedbc056146105c7578063f2fde38b146105e75761023f565b8063d80ffb2014610552578063dde7cd5114610567578063df890be714610587578063e4203183146105a75761023f565b8063b6b55f2511610107578063ba0553ae116100ec578063ba0553ae146104f2578063c0cb7c6a14610512578063d736f8a6146105325761023f565b8063b6b55f25146104ca578063b88a802f146104dd5761023f565b8063851ed85e1461046b5780638da5cb5b14610480578063929066f514610495578063b4410e9c146104b55761023f565b80632e1a7d4d116101cb5780635aa68ac01161019a578063715018a61161017f578063715018a61461041657806371defc9c1461042b5780637ce3489b1461044b5761023f565b80635aa68ac0146103d357806370a08231146103f65761023f565b80632e1a7d4d1461034457806335c1d3491461037157806338af3eed1461039e578063409af09a146103b35761023f565b80631dc21194116102075780631dc21194146102cc57806323ce7fb8146102e157806323e3fbd514610301578063295f39b1146103215761023f565b80630eecae21146102415780631c31f710146102565780631c3b3902146102765780631d62ebd9146102965761023f565b3661023f57005b005b34801561024d57600080fd5b5061023f61065c565b34801561026257600080fd5b5061023f6102713660046140fc565b610daf565b34801561028257600080fd5b5061023f6102913660046140fc565b610ed4565b3480156102a257600080fd5b506102b66102b13660046140fc565b610f23565b6040516102c39190614996565b60405180910390f35b3480156102d857600080fd5b506102b6610f35565b3480156102ed57600080fd5b5061023f6102fc3660046140fc565b610fe5565b34801561030d57600080fd5b506102b661031c3660046140fc565b611034565b34801561032d57600080fd5b50610336611046565b6040516102c39291906149e4565b34801561035057600080fd5b5061036461035f3660046142b8565b611253565b6040516102c39190614570565b34801561037d57600080fd5b5061039161038c3660046142b8565b61164e565b6040516102c39190614467565b3480156103aa57600080fd5b50610391611685565b3480156103bf57600080fd5b5061023f6103ce3660046142b8565b6116a1565b3480156103df57600080fd5b506103e86116ae565b6040516102c392919061454e565b34801561040257600080fd5b506102b66104113660046140fc565b611893565b34801561042257600080fd5b5061023f6118a5565b34801561043757600080fd5b5061023f6104463660046140fc565b6118b9565b34801561045757600080fd5b5061023f6104663660046142b8565b611908565b34801561047757600080fd5b506102b6611980565b34801561048c57600080fd5b50610391611986565b3480156104a157600080fd5b506103646104b03660046140fc565b6119a2565b3480156104c157600080fd5b506102b66119cd565b6103646104d83660046142b8565b6119d3565b3480156104e957600080fd5b5061023f612410565b3480156104fe57600080fd5b5061023f61050d3660046142b8565b612637565b34801561051e57600080fd5b506102b661052d3660046140fc565b612644565b34801561053e57600080fd5b5061023f61054d36600461411d565b612656565b34801561055e57600080fd5b506102b66126e9565b34801561057357600080fd5b506103646105823660046140fc565b6126ef565b34801561059357600080fd5b5061023f6105a23660046140fc565b612704565b3480156105b357600080fd5b5061023f6105c23660046140fc565b612753565b3480156105d357600080fd5b5061023f6105e23660046140fc565b6127a2565b3480156105f357600080fd5b5061023f6106023660046140fc565b6127f1565b34801561061357600080fd5b506102b6612852565b34801561062857600080fd5b506102b66106373660046142e8565b612858565b34801561064857600080fd5b5061023f6106573660046140fc565b612b10565b600854600b546040517fe2bbb15800000000000000000000000000000000000000000000000000000000815273ffffffffffffffffffffffffffffffffffffffff9092169163e2bbb158916106b6916000906004016149e4565b600060405180830381600087803b1580156106d057600080fd5b505af11580156106e4573d6000803e3d6000fd5b5050601754600480546040517f70a082310000000000000000000000000000000000000000000000000000000081526000955092935073ffffffffffffffffffffffffffffffffffffffff16916370a082319161074391309101614467565b60206040518083038186803b15801561075b57600080fd5b505afa15801561076f573d6000803e3d6000fd5b505050506040513d601f19601f8201168201806040525081019061079391906142d0565b61079d9190614a8c565b60115490915060009067ffffffffffffffff8111156107e5577f4e487b7100000000000000000000000000000000000000000000000000000000600052604160045260246000fd5b60405190808252806020026020018201604052801561080e578160200160208202803683370190505b5090506000606060008060006108226116ae565b90965094508415610d9e578692506000606460155460646108439190614a8c565b61084d908a614a4f565b6108579190614a3b565b90506000610866609688614a3b565b610871906001614a23565b90508067ffffffffffffffff8111156108b3577f4e487b7100000000000000000000000000000000000000000000000000000000600052604160045260246000fd5b6040519080825280602002602001820160405280156108dc578160200160208202803683370190505b5095506108e98782612b5f565b955060005b818110156109dc576000878281518110610931577f4e487b7100000000000000000000000000000000000000000000000000000000600052603260045260246000fd5b60200260200101519050600e60008b8381518110610978577f4e487b7100000000000000000000000000000000000000000000000000000000600052603260045260246000fd5b602002602001015173ffffffffffffffffffffffffffffffffffffffff1673ffffffffffffffffffffffffffffffffffffffff16815260200190815260200160002054866109c69190614a23565b95505080806109d490614ad8565b9150506108ee565b50600280549060006109ed83614ad8565b919050555060005b81811015610bde57600089888381518110610a39577f4e487b7100000000000000000000000000000000000000000000000000000000600052603260045260246000fd5b602002602001015181518110610a78577f4e487b7100000000000000000000000000000000000000000000000000000000600052603260045260246000fd5b60200260200101519050600086600e60008473ffffffffffffffffffffffffffffffffffffffff1673ffffffffffffffffffffffffffffffffffffffff168152602001908152602001600020546064610ad19190614a4f565b610adb9190614a3b565b905060006064610aeb8388614a4f565b610af59190614a3b565b90506000610b04848f85612d6b565b73ffffffffffffffffffffffffffffffffffffffff8516600090815260106020526040812080549293508492909190610b3e908490614a23565b925050819055508160176000828254610b579190614a23565b925050819055508373ffffffffffffffffffffffffffffffffffffffff166002547f9515c6f2bffb313099bcee0fbec701e0d75b3e20ca6032804286cb49bb4af2b484604051610ba79190614996565b60405180910390a3610bb9828b614a8c565b9950610bc58189614a23565b9750505050508080610bd690614ad8565b9150506109f5565b506002547f7499611827a1dc9f9fc8242a819e0ba432979cec101754acb79aa4f8d85ad5a58a610c0e8882614a8c565b88604051610c1e939291906149f2565b60405180910390a260048054600a546040517fa9059cbb00000000000000000000000000000000000000000000000000000000815273ffffffffffffffffffffffffffffffffffffffff9283169363a9059cbb93610c809316918891016144e0565b602060405180830381600087803b158015610c9a57600080fd5b505af1158015610cae573d6000803e3d6000fd5b505050506040513d601f19601f82011682018060405250810190610cd2919061424a565b50610cdd8386614a8c565b60048054600c546040517fa9059cbb00000000000000000000000000000000000000000000000000000000815293985073ffffffffffffffffffffffffffffffffffffffff9182169363a9059cbb93610d3c93909216918a91016144e0565b602060405180830381600087803b158015610d5657600080fd5b505af1158015610d6a573d6000803e3d6000fd5b505050506040513d601f19601f82011682018060405250810190610d8e919061424a565b50610d97612eda565b5050610da6565b610da6612eda565b50505050505050565b610db7611986565b73ffffffffffffffffffffffffffffffffffffffff163373ffffffffffffffffffffffffffffffffffffffff161480610e075750600c5473ffffffffffffffffffffffffffffffffffffffff1633145b610e46576040517f08c379a0000000000000000000000000000000000000000000000000000000008152600401610e3d906147f1565b60405180910390fd5b600c5460405173ffffffffffffffffffffffffffffffffffffffff8084169216907f768099735d1c322a05a5b9d7b76d99682a1833d3f7055e5ede25e0f2eeaa8c6d90600090a3600c80547fffffffffffffffffffffffff00000000000000000000000000000000000000001673ffffffffffffffffffffffffffffffffffffffff92909216919091179055565b610edc613bc8565b600a80547fffffffffffffffffffffffff00000000000000000000000000000000000000001673ffffffffffffffffffffffffffffffffffffffff92909216919091179055565b60106020526000908152604090205481565b600854600b546040517f1175a1dd00000000000000000000000000000000000000000000000000000000815260009273ffffffffffffffffffffffffffffffffffffffff1691631175a1dd91610f909190309060040161499f565b60206040518083038186803b158015610fa857600080fd5b505afa158015610fbc573d6000803e3d6000fd5b505050506040513d601f19601f82011682018060405250810190610fe091906142d0565b905090565b610fed613bc8565b600880547fffffffffffffffffffffffff00000000000000000000000000000000000000001673ffffffffffffffffffffffffffffffffffffffff92909216919091179055565b600d6020526000908152604090205481565b600080600080600960009054906101000a900473ffffffffffffffffffffffffffffffffffffffff1673ffffffffffffffffffffffffffffffffffffffff16630902f1ac6040518163ffffffff1660e01b815260040160606040518083038186803b1580156110b457600080fd5b505afa1580156110c8573d6000803e3d6000fd5b505050506040513d601f19601f820116820180604052508101906110ec919061426a565b50915091506000600960009054906101000a900473ffffffffffffffffffffffffffffffffffffffff1673ffffffffffffffffffffffffffffffffffffffff166318160ddd6040518163ffffffff1660e01b815260040160206040518083038186803b15801561115b57600080fd5b505afa15801561116f573d6000803e3d6000fd5b505050506040513d601f19601f8201168201806040525081019061119391906142d0565b90506111f66040518060400160405280600e81526020017f726174654c50546f6b656e73203a000000000000000000000000000000000000815250846dffffffffffffffffffffffffffff16846dffffffffffffffffffffffffffff1684613c3b565b80600354846dffffffffffffffffffffffffffff166112159190614a4f565b61121f9190614a3b565b945080600354836dffffffffffffffffffffffffffff166112409190614a4f565b61124a9190614a3b565b93505050509091565b336000908152600f6020908152604080832054600d835281842054600e90935290832054849261128291614a23565b61128c9190614a8c565b10156112c4576040517f08c379a0000000000000000000000000000000000000000000000000000000008152600401610e3d9061484e565b6000806112cf611046565b915091506112dd8282613cd6565b60408051808201909152600d81527f63616b6520696e20757364743a000000000000000000000000000000000000006020820152600454600654611346929161134191869173ffffffffffffffffffffffffffffffffffffffff9081169116612858565b613d6b565b60408051808201909152600d81527f626e6220696e20757364743a200000000000000000000000000000000000000060208201526005546006546113aa929161134191859173ffffffffffffffffffffffffffffffffffffffff9081169116612858565b60408051808201909152600c81527f6c70646563696d616c733a200000000000000000000000000000000000000000602082015260035460055460065461145193929161141291869173ffffffffffffffffffffffffffffffffffffffff9081169116612858565b60045460065461143d91889173ffffffffffffffffffffffffffffffffffffffff9182169116612858565b6114479190614a23565b6113419190614a3b565b604080518082018252600981527f62616c616e63653a200000000000000000000000000000000000000000000000602080830191909152336000908152600f825283812054600d835284822054600e909352939020546114cd93889290916114b99190614a23565b6114c39190614a8c565b6113419190614a8c565b600354600554600654600092916114ff91859173ffffffffffffffffffffffffffffffffffffffff9081169116612858565b60045460065461152a91879173ffffffffffffffffffffffffffffffffffffffff9182169116612858565b6115349190614a23565b336000908152600f6020908152604080832054600d835281842054600e90935292205489929161156391614a23565b61156d9190614a8c565b6115779190614a8c565b6115819190614a4f565b61158b9190614a3b565b905061159c81601354601454613dfc565b8015806115ab57506013548110155b6115e1576040517f08c379a0000000000000000000000000000000000000000000000000000000008152600401610e3d906146f1565b60145481111561161d576040517f08c379a0000000000000000000000000000000000000000000000000000000008152600401610e3d906147bc565b336000908152600f60205260408120805487929061163c908490614a23565b9091555060019450505050505b919050565b6011818154811061165e57600080fd5b60009182526020909120015473ffffffffffffffffffffffffffffffffffffffff16905081565b600c5473ffffffffffffffffffffffffffffffffffffffff1681565b6116a9613bc8565b601455565b60115460609060009067ffffffffffffffff8111156116f6577f4e487b7100000000000000000000000000000000000000000000000000000000600052604160045260246000fd5b60405190808252806020026020018201604052801561171f578160200160208202803683370190505b5091506000905060005b60115481101561188e576000600e600060118481548110611773577f4e487b7100000000000000000000000000000000000000000000000000000000600052603260045260246000fd5b600091825260208083209091015473ffffffffffffffffffffffffffffffffffffffff168352820192909252604001902054111561187c57601181815481106117e5577f4e487b7100000000000000000000000000000000000000000000000000000000600052603260045260246000fd5b9060005260206000200160009054906101000a900473ffffffffffffffffffffffffffffffffffffffff16838381518110611849577f4e487b7100000000000000000000000000000000000000000000000000000000600052603260045260246000fd5b73ffffffffffffffffffffffffffffffffffffffff909216602092830291909101909101528161187881614ad8565b9250505b8061188681614ad8565b915050611729565b509091565b600e6020526000908152604090205481565b6118ad613bc8565b6118b76000613e94565b565b6118c1613bc8565b600580547fffffffffffffffffffffffff00000000000000000000000000000000000000001673ffffffffffffffffffffffffffffffffffffffff92909216919091179055565b611910613bc8565b60165481111561194c576040517f08c379a0000000000000000000000000000000000000000000000000000000008152600401610e3d90614637565b6015546040518291907f44cb215a0ee4011e0802aea4220545b8f823c5041bb303a4ae1219f99f91e65b90600090a3601555565b60035481565b60015473ffffffffffffffffffffffffffffffffffffffff1690565b73ffffffffffffffffffffffffffffffffffffffff1660009081526012602052604090205460ff1690565b60145481565b600480546040517f70a08231000000000000000000000000000000000000000000000000000000008152600092849273ffffffffffffffffffffffffffffffffffffffff16916370a0823191611a2b91339101614467565b60206040518083038186803b158015611a4357600080fd5b505afa158015611a57573d6000803e3d6000fd5b505050506040513d601f19601f82011682018060405250810190611a7b91906142d0565b1015611ab3576040517f08c379a0000000000000000000000000000000000000000000000000000000008152600401610e3d90614728565b600480546040517fdd62ed3e000000000000000000000000000000000000000000000000000000008152849273ffffffffffffffffffffffffffffffffffffffff9092169163dd62ed3e91611b0c913391309101614488565b60206040518083038186803b158015611b2457600080fd5b505afa158015611b38573d6000803e3d6000fd5b505050506040513d601f19601f82011682018060405250810190611b5c91906142d0565b1015611b94576040517f08c379a0000000000000000000000000000000000000000000000000000000008152600401610e3d906148f1565b600a546040517f929066f500000000000000000000000000000000000000000000000000000000815273ffffffffffffffffffffffffffffffffffffffff9091169063929066f590611bea903390600401614467565b60206040518083038186803b158015611c0257600080fd5b505afa158015611c16573d6000803e3d6000fd5b505050506040513d601f19601f82011682018060405250810190611c3a919061424a565b611c70576040517f08c379a0000000000000000000000000000000000000000000000000000000008152600401610e3d90614928565b34600080611c7c611046565b60408051808201909152600d81527f63616b6520696e20757364743a000000000000000000000000000000000000006020820152600454600654939550919350611ce792909161134191869173ffffffffffffffffffffffffffffffffffffffff9081169116612858565b60408051808201909152600d81527f626e6220696e20757364743a20000000000000000000000000000000000000006020820152600554600654611d4b929161134191859173ffffffffffffffffffffffffffffffffffffffff9081169116612858565b60408051808201909152600c81527f6c70646563696d616c733a2000000000000000000000000000000000000000006020820152600354600554600654611db393929161141291869173ffffffffffffffffffffffffffffffffffffffff9081169116612858565b60035460055460065460009291611de591859173ffffffffffffffffffffffffffffffffffffffff9081169116612858565b600454600654611e1091879173ffffffffffffffffffffffffffffffffffffffff9182169116612858565b611e1a9190614a23565b336000908152600f6020908152604080832054600d835281842054600e909352922054611e479190614a23565b611e519190614a8c565b611e5b9190614a4f565b611e659190614a3b565b600554600654919250600091611e9691879173ffffffffffffffffffffffffffffffffffffffff9182169116612858565b600454600654611ec1918a9173ffffffffffffffffffffffffffffffffffffffff9182169116612858565b611ecb9190614a23565b9050611edd8282601354601454613f0b565b601354611eea8284614a23565b1015611f22576040517f08c379a0000000000000000000000000000000000000000000000000000000008152600401610e3d906146f1565b601454611f2f8284614a23565b1115611f67576040517f08c379a0000000000000000000000000000000000000000000000000000000008152600401610e3d906147bc565b600480546040517f23b872dd00000000000000000000000000000000000000000000000000000000815260009273ffffffffffffffffffffffffffffffffffffffff909216916323b872dd91611fc391339130918e91016144af565b602060405180830381600087803b158015611fdd57600080fd5b505af1158015611ff1573d6000803e3d6000fd5b505050506040513d601f19601f82011682018060405250810190612015919061424a565b90508061204e576040517f08c379a0000000000000000000000000000000000000000000000000000000008152600401610e3d9061495f565b600480546007546040517f095ea7b300000000000000000000000000000000000000000000000000000000815260009373ffffffffffffffffffffffffffffffffffffffff9384169363095ea7b3936120ac939116918e91016144e0565b602060405180830381600087803b1580156120c657600080fd5b505af11580156120da573d6000803e3d6000fd5b505050506040513d601f19601f820116820180604052508101906120fe919061424a565b5060075460045473ffffffffffffffffffffffffffffffffffffffff9182169163f305d719918a91168c61213461271082614a3b565b612140906126ac614a4f565b61214c6127108e614a3b565b612158906126ac614a4f565b30612165426104b0614a23565b6040518863ffffffff1660e01b815260040161218696959493929190614506565b6060604051808303818588803b15801561219f57600080fd5b505af11580156121b3573d6000803e3d6000fd5b50505050506040513d601f19601f820116820180604052508101906121d89190614346565b6009546008546040517f095ea7b300000000000000000000000000000000000000000000000000000000815292955073ffffffffffffffffffffffffffffffffffffffff918216945063095ea7b393506122399291169085906004016144e0565b602060405180830381600087803b15801561225357600080fd5b505af1158015612267573d6000803e3d6000fd5b505050506040513d601f19601f8201168201806040525081019061228b919061424a565b50600854600b546040517fe2bbb15800000000000000000000000000000000000000000000000000000000815273ffffffffffffffffffffffffffffffffffffffff9092169163e2bbb158916122e59185906004016149e4565b600060405180830381600087803b1580156122ff57600080fd5b505af1158015612313573d6000803e3d6000fd5b5050336000908152600d602052604081208054859450909250612337908490614a23565b909155506123469050336119a2565b612401573360008181526012602052604080822080547fffffffffffffffffffffffffffffffffffffffffffffffffffffffffffffff0016600190811790915560118054918201815583527f31ecc21a745e3968a04e9570e4425bc18fa8019c68028196b546d1669c200c680180547fffffffffffffffffffffffff00000000000000000000000000000000000000001684179055517f79229b212fa3ea547fb5e5b66090cf250d442b12a51854a030f3b796d528134e9190a25b50600198975050505050505050565b33600090815260106020526040902054612456576040517f08c379a0000000000000000000000000000000000000000000000000000000008152600401610e3d906148ba565b3360009081526010602052604090819020546004805492517f70a08231000000000000000000000000000000000000000000000000000000008152919273ffffffffffffffffffffffffffffffffffffffff16916370a08231916124bc91309101614467565b60206040518083038186803b1580156124d457600080fd5b505afa1580156124e8573d6000803e3d6000fd5b505050506040513d601f19601f8201168201806040525081019061250c91906142d0565b1015612544576040517f08c379a0000000000000000000000000000000000000000000000000000000008152600401610e3d90614600565b6004805433600081815260106020526040908190205490517fa9059cbb00000000000000000000000000000000000000000000000000000000815273ffffffffffffffffffffffffffffffffffffffff9093169363a9059cbb936125aa939291016144e0565b602060405180830381600087803b1580156125c457600080fd5b505af11580156125d8573d6000803e3d6000fd5b505050506040513d601f19601f820116820180604052508101906125fc919061424a565b50336000908152601060205260408120546017805491929091612620908490614a8c565b909155505033600090815260106020526040812055565b61263f613bc8565b601355565b600f6020526000908152604090205481565b600480547fffffffffffffffffffffffff000000000000000000000000000000000000000090811673ffffffffffffffffffffffffffffffffffffffff988916179091556005805482169688169690961790955560078054861693871693909317909255600880548516918616919091179055600980548416918516919091179055600680549092169216919091179055565b60025481565b60126020526000908152604090205460ff1681565b61270c613bc8565b600480547fffffffffffffffffffffffff00000000000000000000000000000000000000001673ffffffffffffffffffffffffffffffffffffffff92909216919091179055565b61275b613bc8565b600680547fffffffffffffffffffffffff00000000000000000000000000000000000000001673ffffffffffffffffffffffffffffffffffffffff92909216919091179055565b6127aa613bc8565b600780547fffffffffffffffffffffffff00000000000000000000000000000000000000001673ffffffffffffffffffffffffffffffffffffffff92909216919091179055565b6127f9613bc8565b73ffffffffffffffffffffffffffffffffffffffff8116612846576040517f08c379a0000000000000000000000000000000000000000000000000000000008152600401610e3d90614694565b61284f81613e94565b50565b60135481565b604080516002808252606080830184526000939092919060208301908036833701905050905083816000815181106128b9577f4e487b7100000000000000000000000000000000000000000000000000000000600052603260045260246000fd5b602002602001019073ffffffffffffffffffffffffffffffffffffffff16908173ffffffffffffffffffffffffffffffffffffffff1681525050828160018151811061292e577f4e487b7100000000000000000000000000000000000000000000000000000000600052603260045260246000fd5b73ffffffffffffffffffffffffffffffffffffffff9290921660209283029190910190910152604080516002808252606082810190935281602001602082028036833750506007546040517fd06ca61f00000000000000000000000000000000000000000000000000000000815292935073ffffffffffffffffffffffffffffffffffffffff169163d06ca61f91506129cd90899086906004016149c3565b60006040518083038186803b1580156129e557600080fd5b505afa1580156129f9573d6000803e3d6000fd5b505050506040513d6000823e601f3d9081017fffffffffffffffffffffffffffffffffffffffffffffffffffffffffffffffe0168201604052612a3f9190810190614190565b9050612ac36040518060400160405280600681526020017f72617465203a0000000000000000000000000000000000000000000000000000815250868684600181518110612ab6577f4e487b7100000000000000000000000000000000000000000000000000000000600052603260045260246000fd5b6020026020010151613fa0565b80600181518110612afd577f4e487b7100000000000000000000000000000000000000000000000000000000600052603260045260246000fd5b6020026020010151925050509392505050565b612b18613bc8565b600980547fffffffffffffffffffffffff00000000000000000000000000000000000000001673ffffffffffffffffffffffffffffffffffffffff92909216919091179055565b606082821115612b9b576040517f08c379a0000000000000000000000000000000000000000000000000000000008152600401610e3d9061475f565b60008267ffffffffffffffff811115612bdd577f4e487b7100000000000000000000000000000000000000000000000000000000600052604160045260246000fd5b604051908082528060200260200182016040528015612c06578160200160208202803683370190505b5091505b82811015612cf5576000612c1d85614035565b612c28906001614a23565b90506000805b85811015612c955782858281518110612c70577f4e487b7100000000000000000000000000000000000000000000000000000000600052603260045260246000fd5b60200260200101511415612c8357600191505b80612c8d81614ad8565b915050612c2e565b5080612cee5781848481518110612cd5577f4e487b7100000000000000000000000000000000000000000000000000000000600052603260045260246000fd5b602090810291909101015282612cea81614ad8565b9350505b5050612c0a565b60005b83811015612d6357828181518110612d39577f4e487b7100000000000000000000000000000000000000000000000000000000600052603260045260246000fd5b602002602001018051809190612d4e90614aa3565b90525080612d5b81614ad8565b915050612cf8565b505092915050565b600a546040517f3d137386000000000000000000000000000000000000000000000000000000008152600091829173ffffffffffffffffffffffffffffffffffffffff90911690633d13738690612dc6908890600401614467565b60206040518083038186803b158015612dde57600080fd5b505afa158015612df2573d6000803e3d6000fd5b505050506040513d601f19601f82011682018060405250810190612e1691906142d0565b90506000612e25606485614a3b565b6064612e318488614a4f565b612e3b9190614a3b565b612e459190614a4f565b600a546040517f9108066800000000000000000000000000000000000000000000000000000000815291925073ffffffffffffffffffffffffffffffffffffffff1690639108066890612e9e90899085906004016144e0565b600060405180830381600087803b158015612eb857600080fd5b505af1158015612ecc573d6000803e3d6000fd5b509298975050505050505050565b60005b60115481101561284f576000600d600060118481548110612f27577f4e487b7100000000000000000000000000000000000000000000000000000000600052603260045260246000fd5b600091825260208083209091015473ffffffffffffffffffffffffffffffffffffffff16835282019290925260400190205411156130fc57600d600060118381548110612f9d577f4e487b7100000000000000000000000000000000000000000000000000000000600052603260045260246000fd5b9060005260206000200160009054906101000a900473ffffffffffffffffffffffffffffffffffffffff1673ffffffffffffffffffffffffffffffffffffffff1673ffffffffffffffffffffffffffffffffffffffff16815260200190815260200160002054600e600060118481548110613041577f4e487b7100000000000000000000000000000000000000000000000000000000600052603260045260246000fd5b600091825260208083209091015473ffffffffffffffffffffffffffffffffffffffff16835282019290925260400181208054909190613082908490614a23565b925050819055506000600d6000601184815481106130c9577f4e487b7100000000000000000000000000000000000000000000000000000000600052603260045260246000fd5b600091825260208083209091015473ffffffffffffffffffffffffffffffffffffffff1683528201929092526040019020555b6000600f60006011848154811061313c577f4e487b7100000000000000000000000000000000000000000000000000000000600052603260045260246000fd5b600091825260208083209091015473ffffffffffffffffffffffffffffffffffffffff1683528201929092526040019020541115613bb657600e6000601183815481106131b2577f4e487b7100000000000000000000000000000000000000000000000000000000600052603260045260246000fd5b9060005260206000200160009054906101000a900473ffffffffffffffffffffffffffffffffffffffff1673ffffffffffffffffffffffffffffffffffffffff1673ffffffffffffffffffffffffffffffffffffffff16815260200190815260200160002054600f600060118481548110613256577f4e487b7100000000000000000000000000000000000000000000000000000000600052603260045260246000fd5b600091825260208083209091015473ffffffffffffffffffffffffffffffffffffffff16835282019290925260400190205411613bb657600f6000601183815481106132cb577f4e487b7100000000000000000000000000000000000000000000000000000000600052603260045260246000fd5b9060005260206000200160009054906101000a900473ffffffffffffffffffffffffffffffffffffffff1673ffffffffffffffffffffffffffffffffffffffff1673ffffffffffffffffffffffffffffffffffffffff16815260200190815260200160002054600e60006011848154811061336f577f4e487b7100000000000000000000000000000000000000000000000000000000600052603260045260246000fd5b600091825260208083209091015473ffffffffffffffffffffffffffffffffffffffff168352820192909252604001812080549091906133b0908490614a8c565b92505081905550600f6000601183815481106133f5577f4e487b7100000000000000000000000000000000000000000000000000000000600052603260045260246000fd5b600091825260208083209091015473ffffffffffffffffffffffffffffffffffffffff168352820192909252604001902054601754106134b857600f60006011838154811061346d577f4e487b7100000000000000000000000000000000000000000000000000000000600052603260045260246000fd5b600091825260208083209091015473ffffffffffffffffffffffffffffffffffffffff16835282019290925260400181205460178054919290916134b2908490614a8c565b90915550505b600860009054906101000a900473ffffffffffffffffffffffffffffffffffffffff1673ffffffffffffffffffffffffffffffffffffffff1663441a3e70600b54600f600060118681548110613537577f4e487b7100000000000000000000000000000000000000000000000000000000600052603260045260246000fd5b600091825260208083209091015473ffffffffffffffffffffffffffffffffffffffff16835282019290925260409081019091205490517fffffffff0000000000000000000000000000000000000000000000000000000060e085901b1681526135a59291906004016149e4565b600060405180830381600087803b1580156135bf57600080fd5b505af11580156135d3573d6000803e3d6000fd5b50506009546007546011805473ffffffffffffffffffffffffffffffffffffffff938416955063095ea7b394509290911691600f9160009187908110613642577f4e487b7100000000000000000000000000000000000000000000000000000000600052603260045260246000fd5b600091825260208083209091015473ffffffffffffffffffffffffffffffffffffffff16835282019290925260409081019091205490517fffffffff0000000000000000000000000000000000000000000000000000000060e085901b1681526136b09291906004016144e0565b602060405180830381600087803b1580156136ca57600080fd5b505af11580156136de573d6000803e3d6000fd5b505050506040513d601f19601f82011682018060405250810190613702919061424a565b5060008061370e611046565b60075460045460118054949650929450600093849373ffffffffffffffffffffffffffffffffffffffff938416936302751cec931691600f9186918b908110613780577f4e487b7100000000000000000000000000000000000000000000000000000000600052603260045260246000fd5b9060005260206000200160009054906101000a900473ffffffffffffffffffffffffffffffffffffffff1673ffffffffffffffffffffffffffffffffffffffff1673ffffffffffffffffffffffffffffffffffffffff16815260200190815260200160002054600354612710600f600060118d8154811061382a577f4e487b7100000000000000000000000000000000000000000000000000000000600052603260045260246000fd5b600091825260208083209091015473ffffffffffffffffffffffffffffffffffffffff168352820192909252604001902054613866908b614a4f565b6138709190614a3b565b61387c906126ac614a4f565b6138869190614a3b565b600354612710600f600060118e815481106138ca577f4e487b7100000000000000000000000000000000000000000000000000000000600052603260045260246000fd5b600091825260208083209091015473ffffffffffffffffffffffffffffffffffffffff168352820192909252604001902054613906908b614a4f565b6139109190614a3b565b61391c906126ac614a4f565b6139269190614a3b565b30613933426104b0614a23565b6040518763ffffffff1660e01b815260040161395496959493929190614506565b6040805180830381600087803b15801561396d57600080fd5b505af1158015613981573d6000803e3d6000fd5b505050506040513d601f19601f820116820180604052508101906139a59190614323565b6004546011805493955091935073ffffffffffffffffffffffffffffffffffffffff169163a9059cbb919088908110613a07577f4e487b7100000000000000000000000000000000000000000000000000000000600052603260045260246000fd5b6000918252602090912001546040517fffffffff0000000000000000000000000000000000000000000000000000000060e084901b168152613a649173ffffffffffffffffffffffffffffffffffffffff169086906004016144e0565b602060405180830381600087803b158015613a7e57600080fd5b505af1158015613a92573d6000803e3d6000fd5b505050506040513d601f19601f82011682018060405250810190613ab6919061424a565b5060118581548110613af1577f4e487b7100000000000000000000000000000000000000000000000000000000600052603260045260246000fd5b600091825260208220015460405173ffffffffffffffffffffffffffffffffffffffff9091169183156108fc02918491818181858888f19350505050158015613b3e573d6000803e3d6000fd5b506000600f600060118881548110613b7f577f4e487b7100000000000000000000000000000000000000000000000000000000600052603260045260246000fd5b600091825260208083209091015473ffffffffffffffffffffffffffffffffffffffff168352820192909252604001902055505050505b80613bc081614ad8565b915050612edd565b613bd0614046565b73ffffffffffffffffffffffffffffffffffffffff16613bee611986565b73ffffffffffffffffffffffffffffffffffffffff16146118b7576040517f08c379a0000000000000000000000000000000000000000000000000000000008152600401610e3d90614885565b613cd084848484604051602401613c5594939291906145d1565b604080517fffffffffffffffffffffffffffffffffffffffffffffffffffffffffffffffe08184030181529190526020810180517bffffffffffffffffffffffffffffffffffffffffffffffffffffffff167fa7a878530000000000000000000000000000000000000000000000000000000017905261404a565b50505050565b613d678282604051602401613cec9291906149e4565b604080517fffffffffffffffffffffffffffffffffffffffffffffffffffffffffffffffe08184030181529190526020810180517bffffffffffffffffffffffffffffffffffffffffffffffffffffffff167ff666715a0000000000000000000000000000000000000000000000000000000017905261404a565b5050565b613d678282604051602401613d819291906145be565b604080517fffffffffffffffffffffffffffffffffffffffffffffffffffffffffffffffe08184030181529190526020810180517bffffffffffffffffffffffffffffffffffffffffffffffffffffffff167fb60e72cc0000000000000000000000000000000000000000000000000000000017905261404a565b613e8f838383604051602401613e14939291906149f2565b604080517fffffffffffffffffffffffffffffffffffffffffffffffffffffffffffffffe08184030181529190526020810180517bffffffffffffffffffffffffffffffffffffffffffffffffffffffff167fd1ed7a3c0000000000000000000000000000000000000000000000000000000017905261404a565b505050565b6001805473ffffffffffffffffffffffffffffffffffffffff8381167fffffffffffffffffffffffff0000000000000000000000000000000000000000831681179093556040519116919082907f8be0079c531659141344cd1fd0a4f28419497f9722a3daafe3b4186f6b6457e090600090a35050565b613cd084848484604051602401613f259493929190614a08565b604080517fffffffffffffffffffffffffffffffffffffffffffffffffffffffffffffffe08184030181529190526020810180517bffffffffffffffffffffffffffffffffffffffffffffffffffffffff167f193fb8000000000000000000000000000000000000000000000000000000000017905261404a565b613cd084848484604051602401613fba949392919061457b565b604080517fffffffffffffffffffffffffffffffffffffffffffffffffffffffffffffffe08184030181529190526020810180517bffffffffffffffffffffffffffffffffffffffffffffffffffffffff167f8ef3f3990000000000000000000000000000000000000000000000000000000017905261404a565b60006140408261406b565b92915050565b3390565b80516a636f6e736f6c652e6c6f67602083016000808483855afa5050505050565b60008054818061407a83614ad8565b91905055508142336000546040516020016140979392919061442c565b6040516020818303038152906040528051906020012060001c6140409190614b11565b803573ffffffffffffffffffffffffffffffffffffffff8116811461164957600080fd5b80516dffffffffffffffffffffffffffff8116811461164957600080fd5b60006020828403121561410d578081fd5b614116826140ba565b9392505050565b60008060008060008060c08789031215614135578182fd5b61413e876140ba565b955061414c602088016140ba565b945061415a604088016140ba565b9350614168606088016140ba565b9250614176608088016140ba565b915061418460a088016140ba565b90509295509295509295565b600060208083850312156141a2578182fd5b825167ffffffffffffffff808211156141b9578384fd5b818501915085601f8301126141cc578384fd5b8151818111156141de576141de614b83565b838102604051858282010181811085821117156141fd576141fd614b83565b604052828152858101935084860182860187018a101561421b578788fd5b8795505b8386101561423d57805185526001959095019493860193860161421f565b5098975050505050505050565b60006020828403121561425b578081fd5b81518015158114614116578182fd5b60008060006060848603121561427e578283fd5b614287846140de565b9250614295602085016140de565b9150604084015163ffffffff811681146142ad578182fd5b809150509250925092565b6000602082840312156142c9578081fd5b5035919050565b6000602082840312156142e1578081fd5b5051919050565b6000806000606084860312156142fc578283fd5b8335925061430c602085016140ba565b915061431a604085016140ba565b90509250925092565b60008060408385031215614335578182fd5b505080516020909101519092909150565b60008060006060848603121561435a578283fd5b8351925060208401519150604084015190509250925092565b6000815180845260208085019450808401835b838110156143b857815173ffffffffffffffffffffffffffffffffffffffff1687529582019590820190600101614386565b509495945050505050565b60008151808452815b818110156143e8576020818501810151868301820152016143cc565b818111156143f95782602083870101525b50601f017fffffffffffffffffffffffffffffffffffffffffffffffffffffffffffffffe0169290920160200192915050565b92835260609190911b7fffffffffffffffffffffffffffffffffffffffff000000000000000000000000166020830152603482015260540190565b73ffffffffffffffffffffffffffffffffffffffff91909116815260200190565b73ffffffffffffffffffffffffffffffffffffffff92831681529116602082015260400190565b73ffffffffffffffffffffffffffffffffffffffff9384168152919092166020820152604081019190915260600190565b73ffffffffffffffffffffffffffffffffffffffff929092168252602082015260400190565b73ffffffffffffffffffffffffffffffffffffffff9687168152602081019590955260408501939093526060840191909152909216608082015260a081019190915260c00190565b6000604082526145616040830185614373565b90508260208301529392505050565b901515815260200190565b60006080825261458e60808301876143c3565b73ffffffffffffffffffffffffffffffffffffffff95861660208401529390941660408201526060015292915050565b60006040825261456160408301856143c3565b6000608082526145e460808301876143c3565b6020830195909552506040810192909252606090910152919050565b6020808252601c908201527f4e6f7420656e6f756768742043414b4520666f72206120636c61696d00000000604082015260600190565b6020808252602e908201527f66656550657263656e742063616e206e6f74206265206772656174207468616e60408201527f206d617846656550657263656e74000000000000000000000000000000000000606082015260800190565b60208082526026908201527f4f776e61626c653a206e6577206f776e657220697320746865207a65726f206160408201527f6464726573730000000000000000000000000000000000000000000000000000606082015260800190565b6020808252601f908201527f546f74616c2062616c616e6365206c657373207468616e206d696e5553445400604082015260600190565b60208082526012908201527f4e6f7420656e6f7567687420546f6b656e300000000000000000000000000000604082015260600190565b6020808252602e908201527f436f756e74206f66206e756d626572206d757374206265206c6573732074686160408201527f6e206d6178206f7220657175616c000000000000000000000000000000000000606082015260800190565b6020808252818101527f546f74616c2062616c616e6365206772656174207468616e206d617855534454604082015260600190565b60208082526022908201527f43616c6c6572206973206e6f742062656e6566696369617279206f72206f776e60408201527f6572000000000000000000000000000000000000000000000000000000000000606082015260800190565b60208082526015908201527f4e6f7420656e6f75676874206c69717569646974790000000000000000000000604082015260600190565b6020808252818101527f4f776e61626c653a2063616c6c6572206973206e6f7420746865206f776e6572604082015260600190565b6020808252600f908201527f52657761726420697320656d7074790000000000000000000000000000000000604082015260600190565b6020808252601c908201527f4e6f7420656e6f7567687420616c6c6f77616e636520546f6b656e3000000000604082015260600190565b60208082526011908201527f4e6f742061205061727469636970616e74000000000000000000000000000000604082015260600190565b60208082526012908201527f7472616e73666572206973206661696c65640000000000000000000000000000604082015260600190565b90815260200190565b91825273ffffffffffffffffffffffffffffffffffffffff16602082015260400190565b6000838252604060208301526149dc6040830184614373565b949350505050565b918252602082015260400190565b9283526020830191909152604082015260600190565b93845260208401929092526040830152606082015260800190565b60008219821115614a3657614a36614b25565b500190565b600082614a4a57614a4a614b54565b500490565b6000817fffffffffffffffffffffffffffffffffffffffffffffffffffffffffffffffff0483118215151615614a8757614a87614b25565b500290565b600082821015614a9e57614a9e614b25565b500390565b600081614ab257614ab2614b25565b507fffffffffffffffffffffffffffffffffffffffffffffffffffffffffffffffff0190565b60007fffffffffffffffffffffffffffffffffffffffffffffffffffffffffffffffff821415614b0a57614b0a614b25565b5060010190565b600082614b2057614b20614b54565b500690565b7f4e487b7100000000000000000000000000000000000000000000000000000000600052601160045260246000fd5b7f4e487b7100000000000000000000000000000000000000000000000000000000600052601260045260246000fd5b7f4e487b7100000000000000000000000000000000000000000000000000000000600052604160045260246000fdfea26469706673582212202c45511062644301c5d6bdb0d213aeb627f960563e94a51ae359afc2b7ac442764736f6c63430008000033a2646970667358221220cb2c2355a5fd61f3bb244e6b5a853c89d178390c7f8a3ec0923fce81e4de399064736f6c63430008000033608060405260006002556127106003553480156200001c57600080fd5b5060405162004fa038038062004fa08339810160408190526200003f9162000343565b620000536200004d62000159565b6200015d565b600c80546001600160a01b03191633179055601e6016819055601555670de0b6b3a764000060135568056bc75e2d631000006014556001600b55620000ac730e09fabb73bd3ade0a17ecc321fd13a19e81ce82620001af565b620000cb73bb4cdb9cbd36b01bd1cbaebf2de08d9173bc095c620001db565b620000ea7355d398326f99059ff775485246999027b319795562000207565b620001097310ed43c718714eb63d5aa57b78b54704e256024e62000233565b6200012873a5f8c5dbd5f286960b9d90548680ae5ebff076526200025f565b62000147730ed7e52944161450477ee417de9cd3a859b14fd06200028b565b6200015281620002b7565b50620003a8565b3390565b600180546001600160a01b038381166001600160a01b0319831681179093556040519116919082907f8be0079c531659141344cd1fd0a4f28419497f9722a3daafe3b4186f6b6457e090600090a35050565b620001b9620002e3565b600480546001600160a01b0319166001600160a01b0392909216919091179055565b620001e5620002e3565b600580546001600160a01b0319166001600160a01b0392909216919091179055565b62000211620002e3565b600680546001600160a01b0319166001600160a01b0392909216919091179055565b6200023d620002e3565b600780546001600160a01b0319166001600160a01b0392909216919091179055565b62000269620002e3565b600880546001600160a01b0319166001600160a01b0392909216919091179055565b62000295620002e3565b600980546001600160a01b0319166001600160a01b0392909216919091179055565b620002c1620002e3565b600a80546001600160a01b0319166001600160a01b0392909216919091179055565b620002ed62000159565b6001600160a01b03166200030062000334565b6001600160a01b031614620003325760405162461bcd60e51b8152600401620003299062000373565b60405180910390fd5b565b6001546001600160a01b031690565b60006020828403121562000355578081fd5b81516001600160a01b03811681146200036c578182fd5b9392505050565b6020808252818101527f4f776e61626c653a2063616c6c6572206973206e6f7420746865206f776e6572604082015260600190565b614be880620003b86000396000f3fe6080604052600436106102385760003560e01c8063851ed85e11610138578063d80ffb20116100b0578063eedbc0561161007f578063f550ed9311610064578063f550ed9314610607578063f914958b1461061c578063fd0b2fec1461063c5761023f565b8063eedbc056146105c7578063f2fde38b146105e75761023f565b8063d80ffb2014610552578063dde7cd5114610567578063df890be714610587578063e4203183146105a75761023f565b8063b6b55f2511610107578063ba0553ae116100ec578063ba0553ae146104f2578063c0cb7c6a14610512578063d736f8a6146105325761023f565b8063b6b55f25146104ca578063b88a802f146104dd5761023f565b8063851ed85e1461046b5780638da5cb5b14610480578063929066f514610495578063b4410e9c146104b55761023f565b80632e1a7d4d116101cb5780635aa68ac01161019a578063715018a61161017f578063715018a61461041657806371defc9c1461042b5780637ce3489b1461044b5761023f565b80635aa68ac0146103d357806370a08231146103f65761023f565b80632e1a7d4d1461034457806335c1d3491461037157806338af3eed1461039e578063409af09a146103b35761023f565b80631dc21194116102075780631dc21194146102cc57806323ce7fb8146102e157806323e3fbd514610301578063295f39b1146103215761023f565b80630eecae21146102415780631c31f710146102565780631c3b3902146102765780631d62ebd9146102965761023f565b3661023f57005b005b34801561024d57600080fd5b5061023f61065c565b34801561026257600080fd5b5061023f6102713660046140fc565b610daf565b34801561028257600080fd5b5061023f6102913660046140fc565b610ed4565b3480156102a257600080fd5b506102b66102b13660046140fc565b610f23565b6040516102c39190614996565b60405180910390f35b3480156102d857600080fd5b506102b6610f35565b3480156102ed57600080fd5b5061023f6102fc3660046140fc565b610fe5565b34801561030d57600080fd5b506102b661031c3660046140fc565b611034565b34801561032d57600080fd5b50610336611046565b6040516102c39291906149e4565b34801561035057600080fd5b5061036461035f3660046142b8565b611253565b6040516102c39190614570565b34801561037d57600080fd5b5061039161038c3660046142b8565b61164e565b6040516102c39190614467565b3480156103aa57600080fd5b50610391611685565b3480156103bf57600080fd5b5061023f6103ce3660046142b8565b6116a1565b3480156103df57600080fd5b506103e86116ae565b6040516102c392919061454e565b34801561040257600080fd5b506102b66104113660046140fc565b611893565b34801561042257600080fd5b5061023f6118a5565b34801561043757600080fd5b5061023f6104463660046140fc565b6118b9565b34801561045757600080fd5b5061023f6104663660046142b8565b611908565b34801561047757600080fd5b506102b6611980565b34801561048c57600080fd5b50610391611986565b3480156104a157600080fd5b506103646104b03660046140fc565b6119a2565b3480156104c157600080fd5b506102b66119cd565b6103646104d83660046142b8565b6119d3565b3480156104e957600080fd5b5061023f612410565b3480156104fe57600080fd5b5061023f61050d3660046142b8565b612637565b34801561051e57600080fd5b506102b661052d3660046140fc565b612644565b34801561053e57600080fd5b5061023f61054d36600461411d565b612656565b34801561055e57600080fd5b506102b66126e9565b34801561057357600080fd5b506103646105823660046140fc565b6126ef565b34801561059357600080fd5b5061023f6105a23660046140fc565b612704565b3480156105b357600080fd5b5061023f6105c23660046140fc565b612753565b3480156105d357600080fd5b5061023f6105e23660046140fc565b6127a2565b3480156105f357600080fd5b5061023f6106023660046140fc565b6127f1565b34801561061357600080fd5b506102b6612852565b34801561062857600080fd5b506102b66106373660046142e8565b612858565b34801561064857600080fd5b5061023f6106573660046140fc565b612b10565b600854600b546040517fe2bbb15800000000000000000000000000000000000000000000000000000000815273ffffffffffffffffffffffffffffffffffffffff9092169163e2bbb158916106b6916000906004016149e4565b600060405180830381600087803b1580156106d057600080fd5b505af11580156106e4573d6000803e3d6000fd5b5050601754600480546040517f70a082310000000000000000000000000000000000000000000000000000000081526000955092935073ffffffffffffffffffffffffffffffffffffffff16916370a082319161074391309101614467565b60206040518083038186803b15801561075b57600080fd5b505afa15801561076f573d6000803e3d6000fd5b505050506040513d601f19601f8201168201806040525081019061079391906142d0565b61079d9190614a8c565b60115490915060009067ffffffffffffffff8111156107e5577f4e487b7100000000000000000000000000000000000000000000000000000000600052604160045260246000fd5b60405190808252806020026020018201604052801561080e578160200160208202803683370190505b5090506000606060008060006108226116ae565b90965094508415610d9e578692506000606460155460646108439190614a8c565b61084d908a614a4f565b6108579190614a3b565b90506000610866609688614a3b565b610871906001614a23565b90508067ffffffffffffffff8111156108b3577f4e487b7100000000000000000000000000000000000000000000000000000000600052604160045260246000fd5b6040519080825280602002602001820160405280156108dc578160200160208202803683370190505b5095506108e98782612b5f565b955060005b818110156109dc576000878281518110610931577f4e487b7100000000000000000000000000000000000000000000000000000000600052603260045260246000fd5b60200260200101519050600e60008b8381518110610978577f4e487b7100000000000000000000000000000000000000000000000000000000600052603260045260246000fd5b602002602001015173ffffffffffffffffffffffffffffffffffffffff1673ffffffffffffffffffffffffffffffffffffffff16815260200190815260200160002054866109c69190614a23565b95505080806109d490614ad8565b9150506108ee565b50600280549060006109ed83614ad8565b919050555060005b81811015610bde57600089888381518110610a39577f4e487b7100000000000000000000000000000000000000000000000000000000600052603260045260246000fd5b602002602001015181518110610a78577f4e487b7100000000000000000000000000000000000000000000000000000000600052603260045260246000fd5b60200260200101519050600086600e60008473ffffffffffffffffffffffffffffffffffffffff1673ffffffffffffffffffffffffffffffffffffffff168152602001908152602001600020546064610ad19190614a4f565b610adb9190614a3b565b905060006064610aeb8388614a4f565b610af59190614a3b565b90506000610b04848f85612d6b565b73ffffffffffffffffffffffffffffffffffffffff8516600090815260106020526040812080549293508492909190610b3e908490614a23565b925050819055508160176000828254610b579190614a23565b925050819055508373ffffffffffffffffffffffffffffffffffffffff166002547f9515c6f2bffb313099bcee0fbec701e0d75b3e20ca6032804286cb49bb4af2b484604051610ba79190614996565b60405180910390a3610bb9828b614a8c565b9950610bc58189614a23565b9750505050508080610bd690614ad8565b9150506109f5565b506002547f7499611827a1dc9f9fc8242a819e0ba432979cec101754acb79aa4f8d85ad5a58a610c0e8882614a8c565b88604051610c1e939291906149f2565b60405180910390a260048054600a546040517fa9059cbb00000000000000000000000000000000000000000000000000000000815273ffffffffffffffffffffffffffffffffffffffff9283169363a9059cbb93610c809316918891016144e0565b602060405180830381600087803b158015610c9a57600080fd5b505af1158015610cae573d6000803e3d6000fd5b505050506040513d601f19601f82011682018060405250810190610cd2919061424a565b50610cdd8386614a8c565b60048054600c546040517fa9059cbb00000000000000000000000000000000000000000000000000000000815293985073ffffffffffffffffffffffffffffffffffffffff9182169363a9059cbb93610d3c93909216918a91016144e0565b602060405180830381600087803b158015610d5657600080fd5b505af1158015610d6a573d6000803e3d6000fd5b505050506040513d601f19601f82011682018060405250810190610d8e919061424a565b50610d97612eda565b5050610da6565b610da6612eda565b50505050505050565b610db7611986565b73ffffffffffffffffffffffffffffffffffffffff163373ffffffffffffffffffffffffffffffffffffffff161480610e075750600c5473ffffffffffffffffffffffffffffffffffffffff1633145b610e46576040517f08c379a0000000000000000000000000000000000000000000000000000000008152600401610e3d906147f1565b60405180910390fd5b600c5460405173ffffffffffffffffffffffffffffffffffffffff8084169216907f768099735d1c322a05a5b9d7b76d99682a1833d3f7055e5ede25e0f2eeaa8c6d90600090a3600c80547fffffffffffffffffffffffff00000000000000000000000000000000000000001673ffffffffffffffffffffffffffffffffffffffff92909216919091179055565b610edc613bc8565b600a80547fffffffffffffffffffffffff00000000000000000000000000000000000000001673ffffffffffffffffffffffffffffffffffffffff92909216919091179055565b60106020526000908152604090205481565b600854600b546040517f1175a1dd00000000000000000000000000000000000000000000000000000000815260009273ffffffffffffffffffffffffffffffffffffffff1691631175a1dd91610f909190309060040161499f565b60206040518083038186803b158015610fa857600080fd5b505afa158015610fbc573d6000803e3d6000fd5b505050506040513d601f19601f82011682018060405250810190610fe091906142d0565b905090565b610fed613bc8565b600880547fffffffffffffffffffffffff00000000000000000000000000000000000000001673ffffffffffffffffffffffffffffffffffffffff92909216919091179055565b600d6020526000908152604090205481565b600080600080600960009054906101000a900473ffffffffffffffffffffffffffffffffffffffff1673ffffffffffffffffffffffffffffffffffffffff16630902f1ac6040518163ffffffff1660e01b815260040160606040518083038186803b1580156110b457600080fd5b505afa1580156110c8573d6000803e3d6000fd5b505050506040513d601f19601f820116820180604052508101906110ec919061426a565b50915091506000600960009054906101000a900473ffffffffffffffffffffffffffffffffffffffff1673ffffffffffffffffffffffffffffffffffffffff166318160ddd6040518163ffffffff1660e01b815260040160206040518083038186803b15801561115b57600080fd5b505afa15801561116f573d6000803e3d6000fd5b505050506040513d601f19601f8201168201806040525081019061119391906142d0565b90506111f66040518060400160405280600e81526020017f726174654c50546f6b656e73203a000000000000000000000000000000000000815250846dffffffffffffffffffffffffffff16846dffffffffffffffffffffffffffff1684613c3b565b80600354846dffffffffffffffffffffffffffff166112159190614a4f565b61121f9190614a3b565b945080600354836dffffffffffffffffffffffffffff166112409190614a4f565b61124a9190614a3b565b93505050509091565b336000908152600f6020908152604080832054600d835281842054600e90935290832054849261128291614a23565b61128c9190614a8c565b10156112c4576040517f08c379a0000000000000000000000000000000000000000000000000000000008152600401610e3d9061484e565b6000806112cf611046565b915091506112dd8282613cd6565b60408051808201909152600d81527f63616b6520696e20757364743a000000000000000000000000000000000000006020820152600454600654611346929161134191869173ffffffffffffffffffffffffffffffffffffffff9081169116612858565b613d6b565b60408051808201909152600d81527f626e6220696e20757364743a200000000000000000000000000000000000000060208201526005546006546113aa929161134191859173ffffffffffffffffffffffffffffffffffffffff9081169116612858565b60408051808201909152600c81527f6c70646563696d616c733a200000000000000000000000000000000000000000602082015260035460055460065461145193929161141291869173ffffffffffffffffffffffffffffffffffffffff9081169116612858565b60045460065461143d91889173ffffffffffffffffffffffffffffffffffffffff9182169116612858565b6114479190614a23565b6113419190614a3b565b604080518082018252600981527f62616c616e63653a200000000000000000000000000000000000000000000000602080830191909152336000908152600f825283812054600d835284822054600e909352939020546114cd93889290916114b99190614a23565b6114c39190614a8c565b6113419190614a8c565b600354600554600654600092916114ff91859173ffffffffffffffffffffffffffffffffffffffff9081169116612858565b60045460065461152a91879173ffffffffffffffffffffffffffffffffffffffff9182169116612858565b6115349190614a23565b336000908152600f6020908152604080832054600d835281842054600e90935292205489929161156391614a23565b61156d9190614a8c565b6115779190614a8c565b6115819190614a4f565b61158b9190614a3b565b905061159c81601354601454613dfc565b8015806115ab57506013548110155b6115e1576040517f08c379a0000000000000000000000000000000000000000000000000000000008152600401610e3d906146f1565b60145481111561161d576040517f08c379a0000000000000000000000000000000000000000000000000000000008152600401610e3d906147bc565b336000908152600f60205260408120805487929061163c908490614a23565b9091555060019450505050505b919050565b6011818154811061165e57600080fd5b60009182526020909120015473ffffffffffffffffffffffffffffffffffffffff16905081565b600c5473ffffffffffffffffffffffffffffffffffffffff1681565b6116a9613bc8565b601455565b60115460609060009067ffffffffffffffff8111156116f6577f4e487b7100000000000000000000000000000000000000000000000000000000600052604160045260246000fd5b60405190808252806020026020018201604052801561171f578160200160208202803683370190505b5091506000905060005b60115481101561188e576000600e600060118481548110611773577f4e487b7100000000000000000000000000000000000000000000000000000000600052603260045260246000fd5b600091825260208083209091015473ffffffffffffffffffffffffffffffffffffffff168352820192909252604001902054111561187c57601181815481106117e5577f4e487b7100000000000000000000000000000000000000000000000000000000600052603260045260246000fd5b9060005260206000200160009054906101000a900473ffffffffffffffffffffffffffffffffffffffff16838381518110611849577f4e487b7100000000000000000000000000000000000000000000000000000000600052603260045260246000fd5b73ffffffffffffffffffffffffffffffffffffffff909216602092830291909101909101528161187881614ad8565b9250505b8061188681614ad8565b915050611729565b509091565b600e6020526000908152604090205481565b6118ad613bc8565b6118b76000613e94565b565b6118c1613bc8565b600580547fffffffffffffffffffffffff00000000000000000000000000000000000000001673ffffffffffffffffffffffffffffffffffffffff92909216919091179055565b611910613bc8565b60165481111561194c576040517f08c379a0000000000000000000000000000000000000000000000000000000008152600401610e3d90614637565b6015546040518291907f44cb215a0ee4011e0802aea4220545b8f823c5041bb303a4ae1219f99f91e65b90600090a3601555565b60035481565b60015473ffffffffffffffffffffffffffffffffffffffff1690565b73ffffffffffffffffffffffffffffffffffffffff1660009081526012602052604090205460ff1690565b60145481565b600480546040517f70a08231000000000000000000000000000000000000000000000000000000008152600092849273ffffffffffffffffffffffffffffffffffffffff16916370a0823191611a2b91339101614467565b60206040518083038186803b158015611a4357600080fd5b505afa158015611a57573d6000803e3d6000fd5b505050506040513d601f19601f82011682018060405250810190611a7b91906142d0565b1015611ab3576040517f08c379a0000000000000000000000000000000000000000000000000000000008152600401610e3d90614728565b600480546040517fdd62ed3e000000000000000000000000000000000000000000000000000000008152849273ffffffffffffffffffffffffffffffffffffffff9092169163dd62ed3e91611b0c913391309101614488565b60206040518083038186803b158015611b2457600080fd5b505afa158015611b38573d6000803e3d6000fd5b505050506040513d601f19601f82011682018060405250810190611b5c91906142d0565b1015611b94576040517f08c379a0000000000000000000000000000000000000000000000000000000008152600401610e3d906148f1565b600a546040517f929066f500000000000000000000000000000000000000000000000000000000815273ffffffffffffffffffffffffffffffffffffffff9091169063929066f590611bea903390600401614467565b60206040518083038186803b158015611c0257600080fd5b505afa158015611c16573d6000803e3d6000fd5b505050506040513d601f19601f82011682018060405250810190611c3a919061424a565b611c70576040517f08c379a0000000000000000000000000000000000000000000000000000000008152600401610e3d90614928565b34600080611c7c611046565b60408051808201909152600d81527f63616b6520696e20757364743a000000000000000000000000000000000000006020820152600454600654939550919350611ce792909161134191869173ffffffffffffffffffffffffffffffffffffffff9081169116612858565b60408051808201909152600d81527f626e6220696e20757364743a20000000000000000000000000000000000000006020820152600554600654611d4b929161134191859173ffffffffffffffffffffffffffffffffffffffff9081169116612858565b60408051808201909152600c81527f6c70646563696d616c733a2000000000000000000000000000000000000000006020820152600354600554600654611db393929161141291869173ffffffffffffffffffffffffffffffffffffffff9081169116612858565b60035460055460065460009291611de591859173ffffffffffffffffffffffffffffffffffffffff9081169116612858565b600454600654611e1091879173ffffffffffffffffffffffffffffffffffffffff9182169116612858565b611e1a9190614a23565b336000908152600f6020908152604080832054600d835281842054600e909352922054611e479190614a23565b611e519190614a8c565b611e5b9190614a4f565b611e659190614a3b565b600554600654919250600091611e9691879173ffffffffffffffffffffffffffffffffffffffff9182169116612858565b600454600654611ec1918a9173ffffffffffffffffffffffffffffffffffffffff9182169116612858565b611ecb9190614a23565b9050611edd8282601354601454613f0b565b601354611eea8284614a23565b1015611f22576040517f08c379a0000000000000000000000000000000000000000000000000000000008152600401610e3d906146f1565b601454611f2f8284614a23565b1115611f67576040517f08c379a0000000000000000000000000000000000000000000000000000000008152600401610e3d906147bc565b600480546040517f23b872dd00000000000000000000000000000000000000000000000000000000815260009273ffffffffffffffffffffffffffffffffffffffff909216916323b872dd91611fc391339130918e91016144af565b602060405180830381600087803b158015611fdd57600080fd5b505af1158015611ff1573d6000803e3d6000fd5b505050506040513d601f19601f82011682018060405250810190612015919061424a565b90508061204e576040517f08c379a0000000000000000000000000000000000000000000000000000000008152600401610e3d9061495f565b600480546007546040517f095ea7b300000000000000000000000000000000000000000000000000000000815260009373ffffffffffffffffffffffffffffffffffffffff9384169363095ea7b3936120ac939116918e91016144e0565b602060405180830381600087803b1580156120c657600080fd5b505af11580156120da573d6000803e3d6000fd5b505050506040513d601f19601f820116820180604052508101906120fe919061424a565b5060075460045473ffffffffffffffffffffffffffffffffffffffff9182169163f305d719918a91168c61213461271082614a3b565b612140906126ac614a4f565b61214c6127108e614a3b565b612158906126ac614a4f565b30612165426104b0614a23565b6040518863ffffffff1660e01b815260040161218696959493929190614506565b6060604051808303818588803b15801561219f57600080fd5b505af11580156121b3573d6000803e3d6000fd5b50505050506040513d601f19601f820116820180604052508101906121d89190614346565b6009546008546040517f095ea7b300000000000000000000000000000000000000000000000000000000815292955073ffffffffffffffffffffffffffffffffffffffff918216945063095ea7b393506122399291169085906004016144e0565b602060405180830381600087803b15801561225357600080fd5b505af1158015612267573d6000803e3d6000fd5b505050506040513d601f19601f8201168201806040525081019061228b919061424a565b50600854600b546040517fe2bbb15800000000000000000000000000000000000000000000000000000000815273ffffffffffffffffffffffffffffffffffffffff9092169163e2bbb158916122e59185906004016149e4565b600060405180830381600087803b1580156122ff57600080fd5b505af1158015612313573d6000803e3d6000fd5b5050336000908152600d602052604081208054859450909250612337908490614a23565b909155506123469050336119a2565b612401573360008181526012602052604080822080547fffffffffffffffffffffffffffffffffffffffffffffffffffffffffffffff0016600190811790915560118054918201815583527f31ecc21a745e3968a04e9570e4425bc18fa8019c68028196b546d1669c200c680180547fffffffffffffffffffffffff00000000000000000000000000000000000000001684179055517f79229b212fa3ea547fb5e5b66090cf250d442b12a51854a030f3b796d528134e9190a25b50600198975050505050505050565b33600090815260106020526040902054612456576040517f08c379a0000000000000000000000000000000000000000000000000000000008152600401610e3d906148ba565b3360009081526010602052604090819020546004805492517f70a08231000000000000000000000000000000000000000000000000000000008152919273ffffffffffffffffffffffffffffffffffffffff16916370a08231916124bc91309101614467565b60206040518083038186803b1580156124d457600080fd5b505afa1580156124e8573d6000803e3d6000fd5b505050506040513d601f19601f8201168201806040525081019061250c91906142d0565b1015612544576040517f08c379a0000000000000000000000000000000000000000000000000000000008152600401610e3d90614600565b6004805433600081815260106020526040908190205490517fa9059cbb00000000000000000000000000000000000000000000000000000000815273ffffffffffffffffffffffffffffffffffffffff9093169363a9059cbb936125aa939291016144e0565b602060405180830381600087803b1580156125c457600080fd5b505af11580156125d8573d6000803e3d6000fd5b505050506040513d601f19601f820116820180604052508101906125fc919061424a565b50336000908152601060205260408120546017805491929091612620908490614a8c565b909155505033600090815260106020526040812055565b61263f613bc8565b601355565b600f6020526000908152604090205481565b600480547fffffffffffffffffffffffff000000000000000000000000000000000000000090811673ffffffffffffffffffffffffffffffffffffffff988916179091556005805482169688169690961790955560078054861693871693909317909255600880548516918616919091179055600980548416918516919091179055600680549092169216919091179055565b60025481565b60126020526000908152604090205460ff1681565b61270c613bc8565b600480547fffffffffffffffffffffffff00000000000000000000000000000000000000001673ffffffffffffffffffffffffffffffffffffffff92909216919091179055565b61275b613bc8565b600680547fffffffffffffffffffffffff00000000000000000000000000000000000000001673ffffffffffffffffffffffffffffffffffffffff92909216919091179055565b6127aa613bc8565b600780547fffffffffffffffffffffffff00000000000000000000000000000000000000001673ffffffffffffffffffffffffffffffffffffffff92909216919091179055565b6127f9613bc8565b73ffffffffffffffffffffffffffffffffffffffff8116612846576040517f08c379a0000000000000000000000000000000000000000000000000000000008152600401610e3d90614694565b61284f81613e94565b50565b60135481565b604080516002808252606080830184526000939092919060208301908036833701905050905083816000815181106128b9577f4e487b7100000000000000000000000000000000000000000000000000000000600052603260045260246000fd5b602002602001019073ffffffffffffffffffffffffffffffffffffffff16908173ffffffffffffffffffffffffffffffffffffffff1681525050828160018151811061292e577f4e487b7100000000000000000000000000000000000000000000000000000000600052603260045260246000fd5b73ffffffffffffffffffffffffffffffffffffffff9290921660209283029190910190910152604080516002808252606082810190935281602001602082028036833750506007546040517fd06ca61f00000000000000000000000000000000000000000000000000000000815292935073ffffffffffffffffffffffffffffffffffffffff169163d06ca61f91506129cd90899086906004016149c3565b60006040518083038186803b1580156129e557600080fd5b505afa1580156129f9573d6000803e3d6000fd5b505050506040513d6000823e601f3d9081017fffffffffffffffffffffffffffffffffffffffffffffffffffffffffffffffe0168201604052612a3f9190810190614190565b9050612ac36040518060400160405280600681526020017f72617465203a0000000000000000000000000000000000000000000000000000815250868684600181518110612ab6577f4e487b7100000000000000000000000000000000000000000000000000000000600052603260045260246000fd5b6020026020010151613fa0565b80600181518110612afd577f4e487b7100000000000000000000000000000000000000000000000000000000600052603260045260246000fd5b6020026020010151925050509392505050565b612b18613bc8565b600980547fffffffffffffffffffffffff00000000000000000000000000000000000000001673ffffffffffffffffffffffffffffffffffffffff92909216919091179055565b606082821115612b9b576040517f08c379a0000000000000000000000000000000000000000000000000000000008152600401610e3d9061475f565b60008267ffffffffffffffff811115612bdd577f4e487b7100000000000000000000000000000000000000000000000000000000600052604160045260246000fd5b604051908082528060200260200182016040528015612c06578160200160208202803683370190505b5091505b82811015612cf5576000612c1d85614035565b612c28906001614a23565b90506000805b85811015612c955782858281518110612c70577f4e487b7100000000000000000000000000000000000000000000000000000000600052603260045260246000fd5b60200260200101511415612c8357600191505b80612c8d81614ad8565b915050612c2e565b5080612cee5781848481518110612cd5577f4e487b7100000000000000000000000000000000000000000000000000000000600052603260045260246000fd5b602090810291909101015282612cea81614ad8565b9350505b5050612c0a565b60005b83811015612d6357828181518110612d39577f4e487b7100000000000000000000000000000000000000000000000000000000600052603260045260246000fd5b602002602001018051809190612d4e90614aa3565b90525080612d5b81614ad8565b915050612cf8565b505092915050565b600a546040517f3d137386000000000000000000000000000000000000000000000000000000008152600091829173ffffffffffffffffffffffffffffffffffffffff90911690633d13738690612dc6908890600401614467565b60206040518083038186803b158015612dde57600080fd5b505afa158015612df2573d6000803e3d6000fd5b505050506040513d601f19601f82011682018060405250810190612e1691906142d0565b90506000612e25606485614a3b565b6064612e318488614a4f565b612e3b9190614a3b565b612e459190614a4f565b600a546040517f9108066800000000000000000000000000000000000000000000000000000000815291925073ffffffffffffffffffffffffffffffffffffffff1690639108066890612e9e90899085906004016144e0565b600060405180830381600087803b158015612eb857600080fd5b505af1158015612ecc573d6000803e3d6000fd5b509298975050505050505050565b60005b60115481101561284f576000600d600060118481548110612f27577f4e487b7100000000000000000000000000000000000000000000000000000000600052603260045260246000fd5b600091825260208083209091015473ffffffffffffffffffffffffffffffffffffffff16835282019290925260400190205411156130fc57600d600060118381548110612f9d577f4e487b7100000000000000000000000000000000000000000000000000000000600052603260045260246000fd5b9060005260206000200160009054906101000a900473ffffffffffffffffffffffffffffffffffffffff1673ffffffffffffffffffffffffffffffffffffffff1673ffffffffffffffffffffffffffffffffffffffff16815260200190815260200160002054600e600060118481548110613041577f4e487b7100000000000000000000000000000000000000000000000000000000600052603260045260246000fd5b600091825260208083209091015473ffffffffffffffffffffffffffffffffffffffff16835282019290925260400181208054909190613082908490614a23565b925050819055506000600d6000601184815481106130c9577f4e487b7100000000000000000000000000000000000000000000000000000000600052603260045260246000fd5b600091825260208083209091015473ffffffffffffffffffffffffffffffffffffffff1683528201929092526040019020555b6000600f60006011848154811061313c577f4e487b7100000000000000000000000000000000000000000000000000000000600052603260045260246000fd5b600091825260208083209091015473ffffffffffffffffffffffffffffffffffffffff1683528201929092526040019020541115613bb657600e6000601183815481106131b2577f4e487b7100000000000000000000000000000000000000000000000000000000600052603260045260246000fd5b9060005260206000200160009054906101000a900473ffffffffffffffffffffffffffffffffffffffff1673ffffffffffffffffffffffffffffffffffffffff1673ffffffffffffffffffffffffffffffffffffffff16815260200190815260200160002054600f600060118481548110613256577f4e487b7100000000000000000000000000000000000000000000000000000000600052603260045260246000fd5b600091825260208083209091015473ffffffffffffffffffffffffffffffffffffffff16835282019290925260400190205411613bb657600f6000601183815481106132cb577f4e487b7100000000000000000000000000000000000000000000000000000000600052603260045260246000fd5b9060005260206000200160009054906101000a900473ffffffffffffffffffffffffffffffffffffffff1673ffffffffffffffffffffffffffffffffffffffff1673ffffffffffffffffffffffffffffffffffffffff16815260200190815260200160002054600e60006011848154811061336f577f4e487b7100000000000000000000000000000000000000000000000000000000600052603260045260246000fd5b600091825260208083209091015473ffffffffffffffffffffffffffffffffffffffff168352820192909252604001812080549091906133b0908490614a8c565b92505081905550600f6000601183815481106133f5577f4e487b7100000000000000000000000000000000000000000000000000000000600052603260045260246000fd5b600091825260208083209091015473ffffffffffffffffffffffffffffffffffffffff168352820192909252604001902054601754106134b857600f60006011838154811061346d577f4e487b7100000000000000000000000000000000000000000000000000000000600052603260045260246000fd5b600091825260208083209091015473ffffffffffffffffffffffffffffffffffffffff16835282019290925260400181205460178054919290916134b2908490614a8c565b90915550505b600860009054906101000a900473ffffffffffffffffffffffffffffffffffffffff1673ffffffffffffffffffffffffffffffffffffffff1663441a3e70600b54600f600060118681548110613537577f4e487b7100000000000000000000000000000000000000000000000000000000600052603260045260246000fd5b600091825260208083209091015473ffffffffffffffffffffffffffffffffffffffff16835282019290925260409081019091205490517fffffffff0000000000000000000000000000000000000000000000000000000060e085901b1681526135a59291906004016149e4565b600060405180830381600087803b1580156135bf57600080fd5b505af11580156135d3573d6000803e3d6000fd5b50506009546007546011805473ffffffffffffffffffffffffffffffffffffffff938416955063095ea7b394509290911691600f9160009187908110613642577f4e487b7100000000000000000000000000000000000000000000000000000000600052603260045260246000fd5b600091825260208083209091015473ffffffffffffffffffffffffffffffffffffffff16835282019290925260409081019091205490517fffffffff0000000000000000000000000000000000000000000000000000000060e085901b1681526136b09291906004016144e0565b602060405180830381600087803b1580156136ca57600080fd5b505af11580156136de573d6000803e3d6000fd5b505050506040513d601f19601f82011682018060405250810190613702919061424a565b5060008061370e611046565b60075460045460118054949650929450600093849373ffffffffffffffffffffffffffffffffffffffff938416936302751cec931691600f9186918b908110613780577f4e487b7100000000000000000000000000000000000000000000000000000000600052603260045260246000fd5b9060005260206000200160009054906101000a900473ffffffffffffffffffffffffffffffffffffffff1673ffffffffffffffffffffffffffffffffffffffff1673ffffffffffffffffffffffffffffffffffffffff16815260200190815260200160002054600354612710600f600060118d8154811061382a577f4e487b7100000000000000000000000000000000000000000000000000000000600052603260045260246000fd5b600091825260208083209091015473ffffffffffffffffffffffffffffffffffffffff168352820192909252604001902054613866908b614a4f565b6138709190614a3b565b61387c906126ac614a4f565b6138869190614a3b565b600354612710600f600060118e815481106138ca577f4e487b7100000000000000000000000000000000000000000000000000000000600052603260045260246000fd5b600091825260208083209091015473ffffffffffffffffffffffffffffffffffffffff168352820192909252604001902054613906908b614a4f565b6139109190614a3b565b61391c906126ac614a4f565b6139269190614a3b565b30613933426104b0614a23565b6040518763ffffffff1660e01b815260040161395496959493929190614506565b6040805180830381600087803b15801561396d57600080fd5b505af1158015613981573d6000803e3d6000fd5b505050506040513d601f19601f820116820180604052508101906139a59190614323565b6004546011805493955091935073ffffffffffffffffffffffffffffffffffffffff169163a9059cbb919088908110613a07577f4e487b7100000000000000000000000000000000000000000000000000000000600052603260045260246000fd5b6000918252602090912001546040517fffffffff0000000000000000000000000000000000000000000000000000000060e084901b168152613a649173ffffffffffffffffffffffffffffffffffffffff169086906004016144e0565b602060405180830381600087803b158015613a7e57600080fd5b505af1158015613a92573d6000803e3d6000fd5b505050506040513d601f19601f82011682018060405250810190613ab6919061424a565b5060118581548110613af1577f4e487b7100000000000000000000000000000000000000000000000000000000600052603260045260246000fd5b600091825260208220015460405173ffffffffffffffffffffffffffffffffffffffff9091169183156108fc02918491818181858888f19350505050158015613b3e573d6000803e3d6000fd5b506000600f600060118881548110613b7f577f4e487b7100000000000000000000000000000000000000000000000000000000600052603260045260246000fd5b600091825260208083209091015473ffffffffffffffffffffffffffffffffffffffff168352820192909252604001902055505050505b80613bc081614ad8565b915050612edd565b613bd0614046565b73ffffffffffffffffffffffffffffffffffffffff16613bee611986565b73ffffffffffffffffffffffffffffffffffffffff16146118b7576040517f08c379a0000000000000000000000000000000000000000000000000000000008152600401610e3d90614885565b613cd084848484604051602401613c5594939291906145d1565b604080517fffffffffffffffffffffffffffffffffffffffffffffffffffffffffffffffe08184030181529190526020810180517bffffffffffffffffffffffffffffffffffffffffffffffffffffffff167fa7a878530000000000000000000000000000000000000000000000000000000017905261404a565b50505050565b613d678282604051602401613cec9291906149e4565b604080517fffffffffffffffffffffffffffffffffffffffffffffffffffffffffffffffe08184030181529190526020810180517bffffffffffffffffffffffffffffffffffffffffffffffffffffffff167ff666715a0000000000000000000000000000000000000000000000000000000017905261404a565b5050565b613d678282604051602401613d819291906145be565b604080517fffffffffffffffffffffffffffffffffffffffffffffffffffffffffffffffe08184030181529190526020810180517bffffffffffffffffffffffffffffffffffffffffffffffffffffffff167fb60e72cc0000000000000000000000000000000000000000000000000000000017905261404a565b613e8f838383604051602401613e14939291906149f2565b604080517fffffffffffffffffffffffffffffffffffffffffffffffffffffffffffffffe08184030181529190526020810180517bffffffffffffffffffffffffffffffffffffffffffffffffffffffff167fd1ed7a3c0000000000000000000000000000000000000000000000000000000017905261404a565b505050565b6001805473ffffffffffffffffffffffffffffffffffffffff8381167fffffffffffffffffffffffff0000000000000000000000000000000000000000831681179093556040519116919082907f8be0079c531659141344cd1fd0a4f28419497f9722a3daafe3b4186f6b6457e090600090a35050565b613cd084848484604051602401613f259493929190614a08565b604080517fffffffffffffffffffffffffffffffffffffffffffffffffffffffffffffffe08184030181529190526020810180517bffffffffffffffffffffffffffffffffffffffffffffffffffffffff167f193fb8000000000000000000000000000000000000000000000000000000000017905261404a565b613cd084848484604051602401613fba949392919061457b565b604080517fffffffffffffffffffffffffffffffffffffffffffffffffffffffffffffffe08184030181529190526020810180517bffffffffffffffffffffffffffffffffffffffffffffffffffffffff167f8ef3f3990000000000000000000000000000000000000000000000000000000017905261404a565b60006140408261406b565b92915050565b3390565b80516a636f6e736f6c652e6c6f67602083016000808483855afa5050505050565b60008054818061407a83614ad8565b91905055508142336000546040516020016140979392919061442c565b6040516020818303038152906040528051906020012060001c6140409190614b11565b803573ffffffffffffffffffffffffffffffffffffffff8116811461164957600080fd5b80516dffffffffffffffffffffffffffff8116811461164957600080fd5b60006020828403121561410d578081fd5b614116826140ba565b9392505050565b60008060008060008060c08789031215614135578182fd5b61413e876140ba565b955061414c602088016140ba565b945061415a604088016140ba565b9350614168606088016140ba565b9250614176608088016140ba565b915061418460a088016140ba565b90509295509295509295565b600060208083850312156141a2578182fd5b825167ffffffffffffffff808211156141b9578384fd5b818501915085601f8301126141cc578384fd5b8151818111156141de576141de614b83565b838102604051858282010181811085821117156141fd576141fd614b83565b604052828152858101935084860182860187018a101561421b578788fd5b8795505b8386101561423d57805185526001959095019493860193860161421f565b5098975050505050505050565b60006020828403121561425b578081fd5b81518015158114614116578182fd5b60008060006060848603121561427e578283fd5b614287846140de565b9250614295602085016140de565b9150604084015163ffffffff811681146142ad578182fd5b809150509250925092565b6000602082840312156142c9578081fd5b5035919050565b6000602082840312156142e1578081fd5b5051919050565b6000806000606084860312156142fc578283fd5b8335925061430c602085016140ba565b915061431a604085016140ba565b90509250925092565b60008060408385031215614335578182fd5b505080516020909101519092909150565b60008060006060848603121561435a578283fd5b8351925060208401519150604084015190509250925092565b6000815180845260208085019450808401835b838110156143b857815173ffffffffffffffffffffffffffffffffffffffff1687529582019590820190600101614386565b509495945050505050565b60008151808452815b818110156143e8576020818501810151868301820152016143cc565b818111156143f95782602083870101525b50601f017fffffffffffffffffffffffffffffffffffffffffffffffffffffffffffffffe0169290920160200192915050565b92835260609190911b7fffffffffffffffffffffffffffffffffffffffff000000000000000000000000166020830152603482015260540190565b73ffffffffffffffffffffffffffffffffffffffff91909116815260200190565b73ffffffffffffffffffffffffffffffffffffffff92831681529116602082015260400190565b73ffffffffffffffffffffffffffffffffffffffff9384168152919092166020820152604081019190915260600190565b73ffffffffffffffffffffffffffffffffffffffff929092168252602082015260400190565b73ffffffffffffffffffffffffffffffffffffffff9687168152602081019590955260408501939093526060840191909152909216608082015260a081019190915260c00190565b6000604082526145616040830185614373565b90508260208301529392505050565b901515815260200190565b60006080825261458e60808301876143c3565b73ffffffffffffffffffffffffffffffffffffffff95861660208401529390941660408201526060015292915050565b60006040825261456160408301856143c3565b6000608082526145e460808301876143c3565b6020830195909552506040810192909252606090910152919050565b6020808252601c908201527f4e6f7420656e6f756768742043414b4520666f72206120636c61696d00000000604082015260600190565b6020808252602e908201527f66656550657263656e742063616e206e6f74206265206772656174207468616e60408201527f206d617846656550657263656e74000000000000000000000000000000000000606082015260800190565b60208082526026908201527f4f776e61626c653a206e6577206f776e657220697320746865207a65726f206160408201527f6464726573730000000000000000000000000000000000000000000000000000606082015260800190565b6020808252601f908201527f546f74616c2062616c616e6365206c657373207468616e206d696e5553445400604082015260600190565b60208082526012908201527f4e6f7420656e6f7567687420546f6b656e300000000000000000000000000000604082015260600190565b6020808252602e908201527f436f756e74206f66206e756d626572206d757374206265206c6573732074686160408201527f6e206d6178206f7220657175616c000000000000000000000000000000000000606082015260800190565b6020808252818101527f546f74616c2062616c616e6365206772656174207468616e206d617855534454604082015260600190565b60208082526022908201527f43616c6c6572206973206e6f742062656e6566696369617279206f72206f776e60408201527f6572000000000000000000000000000000000000000000000000000000000000606082015260800190565b60208082526015908201527f4e6f7420656e6f75676874206c69717569646974790000000000000000000000604082015260600190565b6020808252818101527f4f776e61626c653a2063616c6c6572206973206e6f7420746865206f776e6572604082015260600190565b6020808252600f908201527f52657761726420697320656d7074790000000000000000000000000000000000604082015260600190565b6020808252601c908201527f4e6f7420656e6f7567687420616c6c6f77616e636520546f6b656e3000000000604082015260600190565b60208082526011908201527f4e6f742061205061727469636970616e74000000000000000000000000000000604082015260600190565b60208082526012908201527f7472616e73666572206973206661696c65640000000000000000000000000000604082015260600190565b90815260200190565b91825273ffffffffffffffffffffffffffffffffffffffff16602082015260400190565b6000838252604060208301526149dc6040830184614373565b949350505050565b918252602082015260400190565b9283526020830191909152604082015260600190565b93845260208401929092526040830152606082015260800190565b60008219821115614a3657614a36614b25565b500190565b600082614a4a57614a4a614b54565b500490565b6000817fffffffffffffffffffffffffffffffffffffffffffffffffffffffffffffffff0483118215151615614a8757614a87614b25565b500290565b600082821015614a9e57614a9e614b25565b500390565b600081614ab257614ab2614b25565b507fffffffffffffffffffffffffffffffffffffffffffffffffffffffffffffffff0190565b60007fffffffffffffffffffffffffffffffffffffffffffffffffffffffffffffffff821415614b0a57614b0a614b25565b5060010190565b600082614b2057614b20614b54565b500690565b7f4e487b7100000000000000000000000000000000000000000000000000000000600052601160045260246000fd5b7f4e487b7100000000000000000000000000000000000000000000000000000000600052601260045260246000fd5b7f4e487b7100000000000000000000000000000000000000000000000000000000600052604160045260246000fdfea26469706673582212202c45511062644301c5d6bdb0d213aeb627f960563e94a51ae359afc2b7ac442764736f6c63430008000033",
  "linkReferences": {},
  "deployedLinkReferences": {}
}