{
  "_format": "hh-sol-artifact-1",
  "contractName": "Factory",
  "sourceName": "contracts/Factory.sol",
  "abi": [
    {
      "inputs": [
        {
          "internalType": "address",
          "name": "_FrogReferalAddress",
          "type": "address"
        },
        {
          "internalType": "address",
          "name": "_WETH",
          "type": "address"
        },
        {
          "internalType": "address",
          "name": "_pancakeFactory",
          "type": "address"
        },
        {
          "internalType": "address",
          "name": "_beneficiary",
          "type": "address"
        }
      ],
      "stateMutability": "nonpayable",
      "type": "constructor"
    },
    {
      "anonymous": false,
      "inputs": [
        {
          "indexed": true,
          "internalType": "address",
          "name": "previousOwner",
          "type": "address"
        },
        {
          "indexed": true,
          "internalType": "address",
          "name": "newOwner",
          "type": "address"
        }
      ],
      "name": "OwnershipTransferred",
      "type": "event"
    },
    {
      "inputs": [
        {
          "internalType": "address",
          "name": "token0",
          "type": "address"
        },
        {
          "internalType": "address",
          "name": "token1",
          "type": "address"
        },
        {
          "internalType": "uint256",
          "name": "pancakePID",
          "type": "uint256"
        }
      ],
      "name": "createNewLottery",
      "outputs": [],
      "stateMutability": "nonpayable",
      "type": "function"
    },
    {
      "inputs": [
        {
          "internalType": "address",
          "name": "",
          "type": "address"
        },
        {
          "internalType": "address",
          "name": "",
          "type": "address"
        }
      ],
      "name": "lotteries",
      "outputs": [
        {
          "internalType": "address",
          "name": "",
          "type": "address"
        }
      ],
      "stateMutability": "view",
      "type": "function"
    },
    {
      "inputs": [],
      "name": "owner",
      "outputs": [
        {
          "internalType": "address",
          "name": "",
          "type": "address"
        }
      ],
      "stateMutability": "view",
      "type": "function"
    },
    {
      "inputs": [],
      "name": "renounceOwnership",
      "outputs": [],
      "stateMutability": "nonpayable",
      "type": "function"
    },
    {
      "inputs": [
        {
          "internalType": "address",
          "name": "newOwner",
          "type": "address"
        }
      ],
      "name": "transferOwnership",
      "outputs": [],
      "stateMutability": "nonpayable",
      "type": "function"
    }
  ],
  "bytecode": "0x60806040523480156200001157600080fd5b506040516200b8053803806200b8058339818101604052810190620000379190620002d7565b620000576200004b620001f160201b60201c565b620001f960201b60201c565b6200007367da60fb62dbcaf9ba60c01b620002bd60201b60201c565b6200008f67b4b649ebd90be33d60c01b620002bd60201b60201c565b82600560006101000a81548173ffffffffffffffffffffffffffffffffffffffff021916908373ffffffffffffffffffffffffffffffffffffffff160217905550620000ec6703486b3f39468c5160c01b620002bd60201b60201c565b81600460006101000a81548173ffffffffffffffffffffffffffffffffffffffff021916908373ffffffffffffffffffffffffffffffffffffffff1602179055506200014967466950e92c2b218760c01b620002bd60201b60201c565b83600260006101000a81548173ffffffffffffffffffffffffffffffffffffffff021916908373ffffffffffffffffffffffffffffffffffffffff160217905550620001a667b8eb43d6194629df60c01b620002bd60201b60201c565b80600360006101000a81548173ffffffffffffffffffffffffffffffffffffffff021916908373ffffffffffffffffffffffffffffffffffffffff1602179055505050505062000391565b600033905090565b60008060009054906101000a900473ffffffffffffffffffffffffffffffffffffffff169050816000806101000a81548173ffffffffffffffffffffffffffffffffffffffff021916908373ffffffffffffffffffffffffffffffffffffffff1602179055508173ffffffffffffffffffffffffffffffffffffffff168173ffffffffffffffffffffffffffffffffffffffff167f8be0079c531659141344cd1fd0a4f28419497f9722a3daafe3b4186f6b6457e060405160405180910390a35050565b50565b600081519050620002d18162000377565b92915050565b60008060008060808587031215620002ee57600080fd5b6000620002fe87828801620002c0565b94505060206200031187828801620002c0565b93505060406200032487828801620002c0565b92505060606200033787828801620002c0565b91505092959194509250565b6000620003508262000357565b9050919050565b600073ffffffffffffffffffffffffffffffffffffffff82169050919050565b620003828162000343565b81146200038e57600080fd5b50565b61b46480620003a16000396000f3fe60806040523480156200001157600080fd5b5060043610620000705760003560e01c80638da5cb5b11620000575780638da5cb5b14620000a1578063935ed91514620000c3578063f2fde38b14620000f95762000070565b806339d6e43c1462000075578063715018a61462000095575b600080fd5b6200009360048036038101906200008d919062000e60565b62000119565b005b6200009f62000a46565b005b620000ab62000a5e565b604051620000ba919062001017565b60405180910390f35b620000e16004803603810190620000db919062000e1f565b62000a87565b604051620000f0919062001017565b60405180910390f35b62000117600480360381019062000111919062000dc7565b62000ac9565b005b6200012f675b7c71110449727d60c01b62000b54565b6200013962000b57565b6200014f67a9d5f701a768df6e60c01b62000b54565b6200016567c5b9b814d713ba3a60c01b62000b54565b6200017b679b8bfe9d0840d19760c01b62000b54565b620001916796e61a669e96c59360c01b62000b54565b620001a7675191ebb2e75f784e60c01b62000b54565b600073ffffffffffffffffffffffffffffffffffffffff16600460009054906101000a900473ffffffffffffffffffffffffffffffffffffffff1673ffffffffffffffffffffffffffffffffffffffff1663e6a4390585856040518363ffffffff1660e01b81526004016200021e92919062001034565b60206040518083038186803b1580156200023757600080fd5b505afa1580156200024c573d6000803e3d6000fd5b505050506040513d601f19601f8201168201806040525081019062000272919062000df3565b73ffffffffffffffffffffffffffffffffffffffff161415620002cc576040517f08c379a0000000000000000000000000000000000000000000000000000000008152600401620002c39062001171565b60405180910390fd5b620002e267282a787acc78773260c01b62000b54565b620002f8677871d816bbb7bd0260c01b62000b54565b6200030e67a4461bb1643e959f60c01b62000b54565b620003b78383600160008773ffffffffffffffffffffffffffffffffffffffff1673ffffffffffffffffffffffffffffffffffffffff16815260200190815260200160002060008673ffffffffffffffffffffffffffffffffffffffff1673ffffffffffffffffffffffffffffffffffffffff16815260200190815260200160002060009054906101000a900473ffffffffffffffffffffffffffffffffffffffff1662000bdc565b620003cd678cf58d17cdfe174d60c01b62000b54565b620003e3679975a31acbc638d160c01b62000b54565b620003f9676157d583e1d7aee660c01b62000b54565b600073ffffffffffffffffffffffffffffffffffffffff16600160008573ffffffffffffffffffffffffffffffffffffffff1673ffffffffffffffffffffffffffffffffffffffff16815260200190815260200160002060008473ffffffffffffffffffffffffffffffffffffffff1673ffffffffffffffffffffffffffffffffffffffff16815260200190815260200160002060009054906101000a900473ffffffffffffffffffffffffffffffffffffffff1673ffffffffffffffffffffffffffffffffffffffff161462000507576040517f08c379a0000000000000000000000000000000000000000000000000000000008152600401620004fe906200114f565b60405180910390fd5b6200051d6760b5663c9c6e722860c01b62000b54565b62000533671722aa52625b92aa60c01b62000b54565b6200054967f4215cb3701a4c5160c01b62000b54565b60006200056167454f5e12d0424bb760c01b62000b54565b62000577674f358feea0eade3d60c01b62000b54565b600560009054906101000a900473ffffffffffffffffffffffffffffffffffffffff1673ffffffffffffffffffffffffffffffffffffffff168473ffffffffffffffffffffffffffffffffffffffff1614156200065857620005e4672a7686f4e6b5900160c01b62000b54565b620005fa67a3652580e49bb14d60c01b62000b54565b600190506200061467ceb7411254d7b52060c01b62000b54565b8293506200062d67c53df016e46db9d160c01b62000b54565b600560009054906101000a900473ffffffffffffffffffffffffffffffffffffffff16925062000729565b6200066e67ec9638559531254260c01b62000b54565b62000684674d2f0431fc9cf07060c01b62000b54565b600560009054906101000a900473ffffffffffffffffffffffffffffffffffffffff1673ffffffffffffffffffffffffffffffffffffffff168373ffffffffffffffffffffffffffffffffffffffff1614156200071157620006f167b0a8ae0bf383ccc560c01b62000b54565b6200070767c72d895e5c33b5dd60c01b62000b54565b6001905062000728565b6200072767ebd2baa8a38ef97f60c01b62000b54565b5b5b6200073f67de4de100a225632360c01b62000b54565b6200075567a3fe40e7c96b6eb060c01b62000b54565b60008484600260009054906101000a900473ffffffffffffffffffffffffffffffffffffffff1684600360009054906101000a900473ffffffffffffffffffffffffffffffffffffffff1687604051620007af9062000d74565b620007c0969594939291906200109e565b604051809103906000f080158015620007dd573d6000803e3d6000fd5b509050620007f66785d8af6ed05ec90d60c01b62000b54565b80600160008773ffffffffffffffffffffffffffffffffffffffff1673ffffffffffffffffffffffffffffffffffffffff16815260200190815260200160002060008673ffffffffffffffffffffffffffffffffffffffff1673ffffffffffffffffffffffffffffffffffffffff16815260200190815260200160002060006101000a81548173ffffffffffffffffffffffffffffffffffffffff021916908373ffffffffffffffffffffffffffffffffffffffff160217905550620008c767fae8a47dee18344e60c01b62000b54565b80600160008673ffffffffffffffffffffffffffffffffffffffff1673ffffffffffffffffffffffffffffffffffffffff16815260200190815260200160002060008773ffffffffffffffffffffffffffffffffffffffff1673ffffffffffffffffffffffffffffffffffffffff16815260200190815260200160002060006101000a81548173ffffffffffffffffffffffffffffffffffffffff021916908373ffffffffffffffffffffffffffffffffffffffff1602179055506200099867a9e3c554a7dda76760c01b62000b54565b620009ae6713588720ca10ac8c60c01b62000b54565b600260009054906101000a900473ffffffffffffffffffffffffffffffffffffffff1673ffffffffffffffffffffffffffffffffffffffff166301e1db32826040518263ffffffff1660e01b815260040162000a0b919062001017565b600060405180830381600087803b15801562000a2657600080fd5b505af115801562000a3b573d6000803e3d6000fd5b505050505050505050565b62000a5062000b57565b62000a5c600062000c7f565b565b60008060009054906101000a900473ffffffffffffffffffffffffffffffffffffffff16905090565b60016020528160005260406000206020528060005260406000206000915091509054906101000a900473ffffffffffffffffffffffffffffffffffffffff1681565b62000ad362000b57565b600073ffffffffffffffffffffffffffffffffffffffff168173ffffffffffffffffffffffffffffffffffffffff16141562000b46576040517f08c379a000000000000000000000000000000000000000000000000000000000815260040162000b3d906200110b565b60405180910390fd5b62000b518162000c7f565b50565b50565b62000b6162000d43565b73ffffffffffffffffffffffffffffffffffffffff1662000b8162000a5e565b73ffffffffffffffffffffffffffffffffffffffff161462000bda576040517f08c379a000000000000000000000000000000000000000000000000000000000815260040162000bd1906200112d565b60405180910390fd5b565b62000c7a83838360405160240162000bf79392919062001061565b6040516020818303038152906040527f018c84c2000000000000000000000000000000000000000000000000000000007bffffffffffffffffffffffffffffffffffffffffffffffffffffffff19166020820180517bffffffffffffffffffffffffffffffffffffffffffffffffffffffff838183161783525050505062000d4b565b505050565b60008060009054906101000a900473ffffffffffffffffffffffffffffffffffffffff169050816000806101000a81548173ffffffffffffffffffffffffffffffffffffffff021916908373ffffffffffffffffffffffffffffffffffffffff1602179055508173ffffffffffffffffffffffffffffffffffffffff168173ffffffffffffffffffffffffffffffffffffffff167f8be0079c531659141344cd1fd0a4f28419497f9722a3daafe3b4186f6b6457e060405160405180910390a35050565b600033905090565b60008151905060006a636f6e736f6c652e6c6f679050602083016000808483855afa5050505050565b61a20c806200122383390190565b60008135905062000d9381620011ee565b92915050565b60008151905062000daa81620011ee565b92915050565b60008135905062000dc18162001208565b92915050565b60006020828403121562000dda57600080fd5b600062000dea8482850162000d82565b91505092915050565b60006020828403121562000e0657600080fd5b600062000e168482850162000d99565b91505092915050565b6000806040838503121562000e3357600080fd5b600062000e438582860162000d82565b925050602062000e568582860162000d82565b9150509250929050565b60008060006060848603121562000e7657600080fd5b600062000e868682870162000d82565b935050602062000e998682870162000d82565b925050604062000eac8682870162000db0565b9150509250925092565b62000ec181620011a4565b82525050565b62000ed281620011b8565b82525050565b600062000ee760268362001193565b91507f4f776e61626c653a206e6577206f776e657220697320746865207a65726f206160008301527f64647265737300000000000000000000000000000000000000000000000000006020830152604082019050919050565b600062000f4f60208362001193565b91507f4f776e61626c653a2063616c6c6572206973206e6f7420746865206f776e65726000830152602082019050919050565b600062000f91600d8362001193565b91507f6c6f7474657279206578697374000000000000000000000000000000000000006000830152602082019050919050565b600062000fd3600f8362001193565b91507f7061697220646f6e7420657869737400000000000000000000000000000000006000830152602082019050919050565b6200101181620011e4565b82525050565b60006020820190506200102e600083018462000eb6565b92915050565b60006040820190506200104b600083018562000eb6565b6200105a602083018462000eb6565b9392505050565b600060608201905062001078600083018662000eb6565b62001087602083018562000eb6565b62001096604083018462000eb6565b949350505050565b600060c082019050620010b5600083018962000eb6565b620010c4602083018862000eb6565b620010d3604083018762000eb6565b620010e2606083018662000ec7565b620010f1608083018562000eb6565b6200110060a083018462001006565b979650505050505050565b60006020820190508181036000830152620011268162000ed8565b9050919050565b60006020820190508181036000830152620011488162000f40565b9050919050565b600060208201905081810360008301526200116a8162000f82565b9050919050565b600060208201905081810360008301526200118c8162000fc4565b9050919050565b600082825260208201905092915050565b6000620011b182620011c4565b9050919050565b60008115159050919050565b600073ffffffffffffffffffffffffffffffffffffffff82169050919050565b6000819050919050565b620011f981620011a4565b81146200120557600080fd5b50565b6200121381620011e4565b81146200121f57600080fd5b5056fe608060405260006001556127106002556402540be4006018553480156200002557600080fd5b506040516200a20c3803806200a20c83398181016040528101906200004b9190620016f9565b6200006b6200005f6200043860201b60201c565b6200044060201b60201c565b62000087677e4f3ee84cc0081e60c01b6200050460201b60201c565b620000a367dbc7b323cffe79d260c01b6200050460201b60201c565b81600b60006101000a81548173ffffffffffffffffffffffffffffffffffffffff021916908373ffffffffffffffffffffffffffffffffffffffff160217905550620001006773d12f5a884e808d60c01b6200050460201b60201c565b610bb86015819055506200012567b6c7e18bfe7acb5660c01b6200050460201b60201c565b6015546014819055506200014a67a20ee875a6a8aa7860c01b6200050460201b60201c565b67016345785d8a00006012819055506200017567223b986eda789b6160c01b6200050460201b60201c565b68056bc75e2d63100000601381905550620001a167892fb714f61ad8e960c01b6200050460201b60201c565b80600a81905550620001c467071abde1fb92a43c60c01b6200050460201b60201c565b82601760006101000a81548160ff021916908315150217905550620001f966c79851501ab43860c01b6200050460201b60201c565b6200021567b343ab5526338cf260c01b6200050460201b60201c565b62000226866200050760201b60201c565b6200024267c63a471de8b029cd60c01b6200050460201b60201c565b6200025e677d769191e574212960c01b6200050460201b60201c565b6200026f856200078660201b60201c565b6200028b67d8fd36cc216ea53d60c01b6200050460201b60201c565b620002a76737ed3e202aa1f73260c01b6200050460201b60201c565b620002cc7355d398326f99059ff775485246999027b319795562000a0560201b60201c565b620002e8677eebd60d2f2b96f160c01b6200050460201b60201c565b6200030467400fb6582ecaf5db60c01b6200050460201b60201c565b620003297310ed43c718714eb63d5aa57b78b54704e256024e62000c8460201b60201c565b6200034567fda53f39148f2ad960c01b6200050460201b60201c565b620003616740931e9c1cb4de0a60c01b6200050460201b60201c565b6200038673a5f8c5dbd5f286960b9d90548680ae5ebff0765262000f0360201b60201c565b620003a267d995a9b777a570f760c01b6200050460201b60201c565b620003be67713407cdd6a4b26e60c01b6200050460201b60201c565b620003e3730ed7e52944161450477ee417de9cd3a859b14fd06200118260201b60201c565b620003ff672a1ad77134b3728b60c01b6200050460201b60201c565b6200041b67de7a0de8683b72d960c01b6200050460201b60201c565b6200042c846200140160201b60201c565b505050505050620018c2565b600033905090565b60008060009054906101000a900473ffffffffffffffffffffffffffffffffffffffff169050816000806101000a81548173ffffffffffffffffffffffffffffffffffffffff021916908373ffffffffffffffffffffffffffffffffffffffff1602179055508173ffffffffffffffffffffffffffffffffffffffff168173ffffffffffffffffffffffffffffffffffffffff167f8be0079c531659141344cd1fd0a4f28419497f9722a3daafe3b4186f6b6457e060405160405180910390a35050565b50565b62000523676ca061d0fb35a5e160c01b6200050460201b60201c565b6200053f673800239fa8a020a860c01b6200050460201b60201c565b6200055b675bf54e5806d0647760c01b6200050460201b60201c565b6200057767cecb046ef38f267460c01b6200050460201b60201c565b62000593678c06ad18eef162cd60c01b6200050460201b60201c565b620005a36200168060201b60201c565b73ffffffffffffffffffffffffffffffffffffffff163373ffffffffffffffffffffffffffffffffffffffff16148015620005f65750620005f5671a398ae2822f05b060c01b620016a960201b60201c565b5b80620006745750600b60009054906101000a900473ffffffffffffffffffffffffffffffffffffffff1673ffffffffffffffffffffffffffffffffffffffff163373ffffffffffffffffffffffffffffffffffffffff1614801562000673575062000672678ceac6272e056b2260c01b620016a960201b60201c565b5b5b620006b6576040517f08c379a0000000000000000000000000000000000000000000000000000000008152600401620006ad90620017f7565b60405180910390fd5b620006d267dc8e940ab21e046e60c01b6200050460201b60201c565b620006ee677e589b9821b4fc5860c01b6200050460201b60201c565b6200070a67cf92ba5bd3abb08160c01b6200050460201b60201c565b6200072667914db3f0a26a999160c01b6200050460201b60201c565b62000742679b0cef31931a213260c01b6200050460201b60201c565b80600360006101000a81548173ffffffffffffffffffffffffffffffffffffffff021916908373ffffffffffffffffffffffffffffffffffffffff16021790555050565b620007a267c0bfe2857ebe5cdf60c01b6200050460201b60201c565b620007be673800239fa8a020a860c01b6200050460201b60201c565b620007da675bf54e5806d0647760c01b6200050460201b60201c565b620007f667cecb046ef38f267460c01b6200050460201b60201c565b62000812678c06ad18eef162cd60c01b6200050460201b60201c565b620008226200168060201b60201c565b73ffffffffffffffffffffffffffffffffffffffff163373ffffffffffffffffffffffffffffffffffffffff1614801562000875575062000874671a398ae2822f05b060c01b620016a960201b60201c565b5b80620008f35750600b60009054906101000a900473ffffffffffffffffffffffffffffffffffffffff1673ffffffffffffffffffffffffffffffffffffffff163373ffffffffffffffffffffffffffffffffffffffff16148015620008f25750620008f1678ceac6272e056b2260c01b620016a960201b60201c565b5b5b62000935576040517f08c379a00000000000000000000000000000000000000000000000000000000081526004016200092c90620017f7565b60405180910390fd5b6200095167dc8e940ab21e046e60c01b6200050460201b60201c565b6200096d677e589b9821b4fc5860c01b6200050460201b60201c565b62000989676989995b1604012260c01b6200050460201b60201c565b620009a567c8b41f8f3b05b74260c01b6200050460201b60201c565b620009c167a9958d6ce0523b6660c01b6200050460201b60201c565b80600460006101000a81548173ffffffffffffffffffffffffffffffffffffffff021916908373ffffffffffffffffffffffffffffffffffffffff16021790555050565b62000a2167ad950e2b2426d43860c01b6200050460201b60201c565b62000a3d673800239fa8a020a860c01b6200050460201b60201c565b62000a59675bf54e5806d0647760c01b6200050460201b60201c565b62000a7567cecb046ef38f267460c01b6200050460201b60201c565b62000a91678c06ad18eef162cd60c01b6200050460201b60201c565b62000aa16200168060201b60201c565b73ffffffffffffffffffffffffffffffffffffffff163373ffffffffffffffffffffffffffffffffffffffff1614801562000af4575062000af3671a398ae2822f05b060c01b620016a960201b60201c565b5b8062000b725750600b60009054906101000a900473ffffffffffffffffffffffffffffffffffffffff1673ffffffffffffffffffffffffffffffffffffffff163373ffffffffffffffffffffffffffffffffffffffff1614801562000b71575062000b70678ceac6272e056b2260c01b620016a960201b60201c565b5b5b62000bb4576040517f08c379a000000000000000000000000000000000000000000000000000000000815260040162000bab90620017f7565b60405180910390fd5b62000bd067dc8e940ab21e046e60c01b6200050460201b60201c565b62000bec677e589b9821b4fc5860c01b6200050460201b60201c565b62000c086753013d0c7a5a964860c01b6200050460201b60201c565b62000c24675d264b2f5c51be6260c01b6200050460201b60201c565b62000c4067db0fb456dd44d78760c01b6200050460201b60201c565b80600560006101000a81548173ffffffffffffffffffffffffffffffffffffffff021916908373ffffffffffffffffffffffffffffffffffffffff16021790555050565b62000ca067d4dcd0ac72cff0b960c01b6200050460201b60201c565b62000cbc673800239fa8a020a860c01b6200050460201b60201c565b62000cd8675bf54e5806d0647760c01b6200050460201b60201c565b62000cf467cecb046ef38f267460c01b6200050460201b60201c565b62000d10678c06ad18eef162cd60c01b6200050460201b60201c565b62000d206200168060201b60201c565b73ffffffffffffffffffffffffffffffffffffffff163373ffffffffffffffffffffffffffffffffffffffff1614801562000d73575062000d72671a398ae2822f05b060c01b620016a960201b60201c565b5b8062000df15750600b60009054906101000a900473ffffffffffffffffffffffffffffffffffffffff1673ffffffffffffffffffffffffffffffffffffffff163373ffffffffffffffffffffffffffffffffffffffff1614801562000df0575062000def678ceac6272e056b2260c01b620016a960201b60201c565b5b5b62000e33576040517f08c379a000000000000000000000000000000000000000000000000000000000815260040162000e2a90620017f7565b60405180910390fd5b62000e4f67dc8e940ab21e046e60c01b6200050460201b60201c565b62000e6b677e589b9821b4fc5860c01b6200050460201b60201c565b62000e876704ac59349df0c20b60c01b6200050460201b60201c565b62000ea36774f8cb7a9b9b4deb60c01b6200050460201b60201c565b62000ebf671740652a1050ba0860c01b6200050460201b60201c565b80600660006101000a81548173ffffffffffffffffffffffffffffffffffffffff021916908373ffffffffffffffffffffffffffffffffffffffff16021790555050565b62000f1f67b8293b48b2b44b9860c01b6200050460201b60201c565b62000f3b673800239fa8a020a860c01b6200050460201b60201c565b62000f57675bf54e5806d0647760c01b6200050460201b60201c565b62000f7367cecb046ef38f267460c01b6200050460201b60201c565b62000f8f678c06ad18eef162cd60c01b6200050460201b60201c565b62000f9f6200168060201b60201c565b73ffffffffffffffffffffffffffffffffffffffff163373ffffffffffffffffffffffffffffffffffffffff1614801562000ff2575062000ff1671a398ae2822f05b060c01b620016a960201b60201c565b5b80620010705750600b60009054906101000a900473ffffffffffffffffffffffffffffffffffffffff1673ffffffffffffffffffffffffffffffffffffffff163373ffffffffffffffffffffffffffffffffffffffff161480156200106f57506200106e678ceac6272e056b2260c01b620016a960201b60201c565b5b5b620010b2576040517f08c379a0000000000000000000000000000000000000000000000000000000008152600401620010a990620017f7565b60405180910390fd5b620010ce67dc8e940ab21e046e60c01b6200050460201b60201c565b620010ea677e589b9821b4fc5860c01b6200050460201b60201c565b62001106672629f2753576add660c01b6200050460201b60201c565b6200112267f4294784523e19dc60c01b6200050460201b60201c565b6200113e670e698feb98bf4eac60c01b6200050460201b60201c565b80600760006101000a81548173ffffffffffffffffffffffffffffffffffffffff021916908373ffffffffffffffffffffffffffffffffffffffff16021790555050565b6200119e679f1fc11ff1da11ad60c01b6200050460201b60201c565b620011ba673800239fa8a020a860c01b6200050460201b60201c565b620011d6675bf54e5806d0647760c01b6200050460201b60201c565b620011f267cecb046ef38f267460c01b6200050460201b60201c565b6200120e678c06ad18eef162cd60c01b6200050460201b60201c565b6200121e6200168060201b60201c565b73ffffffffffffffffffffffffffffffffffffffff163373ffffffffffffffffffffffffffffffffffffffff1614801562001271575062001270671a398ae2822f05b060c01b620016a960201b60201c565b5b80620012ef5750600b60009054906101000a900473ffffffffffffffffffffffffffffffffffffffff1673ffffffffffffffffffffffffffffffffffffffff163373ffffffffffffffffffffffffffffffffffffffff16148015620012ee5750620012ed678ceac6272e056b2260c01b620016a960201b60201c565b5b5b62001331576040517f08c379a00000000000000000000000000000000000000000000000000000000081526004016200132890620017f7565b60405180910390fd5b6200134d67dc8e940ab21e046e60c01b6200050460201b60201c565b62001369677e589b9821b4fc5860c01b6200050460201b60201c565b6200138567ec331deb72b414f860c01b6200050460201b60201c565b620013a1679c34fc85ea1de36a60c01b6200050460201b60201c565b620013bd67c028ac3950ca960260c01b6200050460201b60201c565b80600860006101000a81548173ffffffffffffffffffffffffffffffffffffffff021916908373ffffffffffffffffffffffffffffffffffffffff16021790555050565b6200141d6721bf002464f1d24860c01b6200050460201b60201c565b62001439673800239fa8a020a860c01b6200050460201b60201c565b62001455675bf54e5806d0647760c01b6200050460201b60201c565b6200147167cecb046ef38f267460c01b6200050460201b60201c565b6200148d678c06ad18eef162cd60c01b6200050460201b60201c565b6200149d6200168060201b60201c565b73ffffffffffffffffffffffffffffffffffffffff163373ffffffffffffffffffffffffffffffffffffffff16148015620014f05750620014ef671a398ae2822f05b060c01b620016a960201b60201c565b5b806200156e5750600b60009054906101000a900473ffffffffffffffffffffffffffffffffffffffff1673ffffffffffffffffffffffffffffffffffffffff163373ffffffffffffffffffffffffffffffffffffffff161480156200156d57506200156c678ceac6272e056b2260c01b620016a960201b60201c565b5b5b620015b0576040517f08c379a0000000000000000000000000000000000000000000000000000000008152600401620015a790620017f7565b60405180910390fd5b620015cc67dc8e940ab21e046e60c01b6200050460201b60201c565b620015e8677e589b9821b4fc5860c01b6200050460201b60201c565b6200160467089ade6b0486492260c01b6200050460201b60201c565b6200162067525fd26f8cfc1fca60c01b6200050460201b60201c565b6200163c6713d20bdee4dbb62b60c01b6200050460201b60201c565b80600960006101000a81548173ffffffffffffffffffffffffffffffffffffffff021916908373ffffffffffffffffffffffffffffffffffffffff16021790555050565b60008060009054906101000a900473ffffffffffffffffffffffffffffffffffffffff16905090565b600060019050919050565b600081519050620016c58162001874565b92915050565b600081519050620016dc816200188e565b92915050565b600081519050620016f381620018a8565b92915050565b60008060008060008060c087890312156200171357600080fd5b60006200172389828a01620016b4565b96505060206200173689828a01620016b4565b95505060406200174989828a01620016b4565b94505060606200175c89828a01620016cb565b93505060806200176f89828a01620016b4565b92505060a06200178289828a01620016e2565b9150509295509295509295565b60006200179e60228362001819565b91507f43616c6c6572206973206e6f742062656e6566696369617279206f72206f776e60008301527f65720000000000000000000000000000000000000000000000000000000000006020830152604082019050919050565b6000602082019050818103600083015262001812816200178f565b9050919050565b600082825260208201905092915050565b600062001837826200184a565b9050919050565b60008115159050919050565b600073ffffffffffffffffffffffffffffffffffffffff82169050919050565b6000819050919050565b6200187f816200182a565b81146200188b57600080fd5b50565b62001899816200183e565b8114620018a557600080fd5b50565b620018b3816200186a565b8114620018bf57600080fd5b50565b61893a80620018d26000396000f3fe60806040526004361061026e5760003560e01c8063715018a611610153578063cb0a14eb116100cb578063e2bbb1581161007f578063f2fde38b11610064578063f2fde38b14610875578063f914958b1461089e578063fd0b2fec146108db57610275565b8063e2bbb1581461081c578063eedbc0561461084c57610275565b8063d736f8a6116100b0578063d736f8a61461078b578063d80ffb20146107b4578063dde7cd51146107df57610275565b8063cb0a14eb14610737578063d21220a71461076057610275565b80638da5cb5b11610122578063b88a802f11610107578063b88a802f146106ba578063bf4f0004146106d1578063c0cb7c6a146106fa57610275565b80638da5cb5b14610652578063929066f51461067d57610275565b8063715018a6146105be5780637a6620d1146105d55780637ce3489b146105fe578063851ed85e1461062757610275565b806323e3fbd5116101e657806338af3eed116101b557806351b80e411161019a57806351b80e411461052a5780635aa68ac01461055557806370a082311461058157610275565b806338af3eed146104d6578063457aa1811461050157610275565b806323e3fbd5146103f3578063295f39b1146104305780632e1a7d4d1461045c57806335c1d3491461049957610275565b80631c3b39021161023d5780631d6ca518116102225780631d6ca518146103765780631dc211941461039f57806323ce7fb8146103ca57610275565b80631c3b3902146103105780631d62ebd91461033957610275565b80630dfe16811461027a5780630eecae21146102a5578063158f3fe8146102bc5780631c31f710146102e757610275565b3661027557005b600080fd5b34801561028657600080fd5b5061028f610904565b60405161029c9190617fab565b60405180910390f35b3480156102b157600080fd5b506102ba61092a565b005b3480156102c857600080fd5b506102d16115e4565b6040516102de91906183e8565b60405180910390f35b3480156102f357600080fd5b5061030e6004803603810190610309919061774b565b6115ea565b005b34801561031c57600080fd5b506103376004803603810190610332919061774b565b61189f565b005b34801561034557600080fd5b50610360600480360381019061035b919061774b565b611ab0565b60405161036d91906183e8565b60405180910390f35b34801561038257600080fd5b5061039d600480360381019061039891906178b6565b611ac8565b005b3480156103ab57600080fd5b506103b4611c9f565b6040516103c191906183e8565b60405180910390f35b3480156103d657600080fd5b506103f160048036038101906103ec919061774b565b611d91565b005b3480156103ff57600080fd5b5061041a6004803603810190610415919061774b565b611fa2565b60405161042791906183e8565b60405180910390f35b34801561043c57600080fd5b50610445611fba565b604051610453929190618485565b60405180910390f35b34801561046857600080fd5b50610483600480360381019061047e91906178b6565b6121f2565b60405161049091906181cd565b60405180910390f35b3480156104a557600080fd5b506104c060048036038101906104bb91906178b6565b61277a565b6040516104cd9190617fab565b60405180910390f35b3480156104e257600080fd5b506104eb6127b9565b6040516104f89190617fab565b60405180910390f35b34801561050d57600080fd5b50610528600480360381019061052391906178b6565b6127df565b005b34801561053657600080fd5b5061053f6129b6565b60405161054c91906183e8565b60405180910390f35b34801561056157600080fd5b5061056a6129bc565b60405161057892919061819d565b60405180910390f35b34801561058d57600080fd5b506105a860048036038101906105a3919061774b565b612cfe565b6040516105b591906183e8565b60405180910390f35b3480156105ca57600080fd5b506105d3612d16565b005b3480156105e157600080fd5b506105fc60048036038101906105f7919061774b565b612d2a565b005b34801561060a57600080fd5b50610625600480360381019061062091906178b6565b612f3b565b005b34801561063357600080fd5b5061063c6131ff565b60405161064991906183e8565b60405180910390f35b34801561065e57600080fd5b50610667613205565b6040516106749190617fab565b60405180910390f35b34801561068957600080fd5b506106a4600480360381019061069f919061774b565b61322e565b6040516106b191906181cd565b60405180910390f35b3480156106c657600080fd5b506106cf6132c0565b005b3480156106dd57600080fd5b506106f860048036038101906106f3919061774b565b6135ea565b005b34801561070657600080fd5b50610721600480360381019061071c919061774b565b6137fb565b60405161072e91906183e8565b60405180910390f35b34801561074357600080fd5b5061075e6004803603810190610759919061774b565b613813565b005b34801561076c57600080fd5b50610775613a24565b6040516107829190617fab565b60405180910390f35b34801561079757600080fd5b506107b260048036038101906107ad9190617774565b613a4a565b005b3480156107c057600080fd5b506107c9613e09565b6040516107d691906183e8565b60405180910390f35b3480156107eb57600080fd5b506108066004803603810190610801919061774b565b613e0f565b60405161081391906181cd565b60405180910390f35b61083660048036038101906108319190617957565b613e2f565b60405161084391906181cd565b60405180910390f35b34801561085857600080fd5b50610873600480360381019061086e919061774b565b614474565b005b34801561088157600080fd5b5061089c6004803603810190610897919061774b565b614685565b005b3480156108aa57600080fd5b506108c560048036038101906108c09190617908565b614709565b6040516108d291906183e8565b60405180910390f35b3480156108e757600080fd5b5061090260048036038101906108fd919061774b565b614ace565b005b600360009054906101000a900473ffffffffffffffffffffffffffffffffffffffff1681565b61093e6767a1b765a24a3e4960c01b614cdf565b61095267924706b3094f430f60c01b614cdf565b61096667f2747df4faf94d8660c01b614cdf565b600760009054906101000a900473ffffffffffffffffffffffffffffffffffffffff1673ffffffffffffffffffffffffffffffffffffffff1663e2bbb158600a5460006040518363ffffffff1660e01b81526004016109c692919061845c565b600060405180830381600087803b1580156109e057600080fd5b505af11580156109f4573d6000803e3d6000fd5b50505050610a0c67075feaee733ea32660c01b614cdf565b610a2067dcf3673bcf3ca15f60c01b614cdf565b6000601654600360009054906101000a900473ffffffffffffffffffffffffffffffffffffffff1673ffffffffffffffffffffffffffffffffffffffff166370a08231306040518263ffffffff1660e01b8152600401610a809190617fab565b60206040518083038186803b158015610a9857600080fd5b505afa158015610aac573d6000803e3d6000fd5b505050506040513d601f19601f82011682018060405250810190610ad091906178df565b610ada919061866d565b9050610af0677cb935362b19e86b60c01b614cdf565b610b04671e5855dfba342faf60c01b614cdf565b600060108054905067ffffffffffffffff811115610b4b577f4e487b7100000000000000000000000000000000000000000000000000000000600052604160045260246000fd5b604051908082528060200260200182016040528015610b795781602001602082028036833780820191505090505b509050610b9067c13e43fd6380bf0f60c01b614cdf565b610ba4677cffd9742e717a0060c01b614cdf565b6000610bba670631cf6f976cb36b60c01b614cdf565b610bce67a4e4c38fd01a579560c01b614cdf565b6060610be46728d96aca8863a82e60c01b614cdf565b610bf867fcca7bf81ef2ec7e60c01b614cdf565b6000610c0e67fccb9ac800260b2d60c01b614cdf565b610c2267f285cd4eb64f3e6b60c01b614cdf565b6000610c3867e794f8c2ef2a1faa60c01b614cdf565b610c4c6727b5ea7c1f31908b60c01b614cdf565b6000610c62674836dca30759502060c01b614cdf565b610c6a6129bc565b8096508197505050610c86672ff57d8d89db049760c01b614cdf565b610c9a6750833047e9d6182960c01b614cdf565b600085111561159657610cb7679952d2256ecae52c60c01b614cdf565b610ccb6722db7f136d0afc7660c01b614cdf565b869250610ce267042e94ea2cc8ebd560c01b614cdf565b610cf6673ec5e2d1419f3ea260c01b614cdf565b6000612710601454612710610d0b919061866d565b89610d169190618613565b610d2091906185e2565b9050610d366743a814316e50e7c460c01b614cdf565b610d4a670b2763e5801f79a260c01b614cdf565b60006001609688610d5b91906185e2565b610d65919061858c565b9050610d7b6758341d446411c50360c01b614cdf565b8067ffffffffffffffff811115610dbb577f4e487b7100000000000000000000000000000000000000000000000000000000600052604160045260246000fd5b604051908082528060200260200182016040528015610de95781602001602082028036833780820191505090505b509550610e0067e28225301edf953960c01b614cdf565b610e0a8782614ce2565b9550610e2067f09a72df739dc7f960c01b614cdf565b610e346728282bd9c4724fe560c01b614cdf565b60005b81811015610f6157610e536795aeb7b5ac8f22f760c01b614cdf565b610e67676e221acb7ce803ff60c01b614cdf565b6000878281518110610ea2577f4e487b7100000000000000000000000000000000000000000000000000000000600052603260045260246000fd5b60200260200101519050610ec067f1dc58316f51057160c01b614cdf565b600d60008b8381518110610efd577f4e487b7100000000000000000000000000000000000000000000000000000000600052603260045260246000fd5b602002602001015173ffffffffffffffffffffffffffffffffffffffff1673ffffffffffffffffffffffffffffffffffffffff1681526020019081526020016000205486610f4b919061858c565b9550508080610f599061874f565b915050610e37565b50610f766798edfbf382266a0360c01b614cdf565b60016000815480929190610f899061874f565b9190505550610fa267e437aa32822000af60c01b614cdf565b610fb6674854665a50b7113c60c01b614cdf565b60005b818110156112d757610fd567fe3837506da85db760c01b614cdf565b610fe9678fc7da8c9d42fedf60c01b614cdf565b600089888381518110611025577f4e487b7100000000000000000000000000000000000000000000000000000000600052603260045260246000fd5b602002602001015181518110611064577f4e487b7100000000000000000000000000000000000000000000000000000000600052603260045260246000fd5b60200260200101519050611082673d014a99f00c67c260c01b614cdf565b61109667f6f9a6dc4003cbcd60c01b614cdf565b6000866064600d60008573ffffffffffffffffffffffffffffffffffffffff1673ffffffffffffffffffffffffffffffffffffffff168152602001908152602001600020546110e59190618613565b6110ef91906185e2565b9050611105674e12c873fa295c2d60c01b614cdf565b611119677636f62a5410342460c01b614cdf565b6000606482876111299190618613565b61113391906185e2565b9050611149672a40adefc8f6241660c01b614cdf565b61115d6795aa4cbc8361a22560c01b614cdf565b600061116a848f856150e6565b90506111806789af1da2db3fde1c60c01b614cdf565b81600f60008673ffffffffffffffffffffffffffffffffffffffff1673ffffffffffffffffffffffffffffffffffffffff16815260200190815260200160002060008282546111cf919061858c565b925050819055506111ea67b73a3bbc86f7755760c01b614cdf565b81601660008282546111fc919061858c565b9250508190555061121767c5d0ae5b8651dfbf60c01b614cdf565b61122b67ae4f993cf6ba66f260c01b614cdf565b8373ffffffffffffffffffffffffffffffffffffffff166001547f9515c6f2bffb313099bcee0fbec701e0d75b3e20ca6032804286cb49bb4af2b48460405161127491906183e8565b60405180910390a361129067d28d62216553a6ca60c01b614cdf565b818a61129c919061866d565b99506112b2678ae9488fd39b6d5f60c01b614cdf565b80886112be919061858c565b97505050505080806112cf9061874f565b915050610fb9565b506112ec6773db04c8d87bbef660c01b614cdf565b61130067e76de7f197b4f9e260c01b614cdf565b6001547f7499611827a1dc9f9fc8242a819e0ba432979cec101754acb79aa4f8d85ad5a58a878c611331919061866d565b88604051611341939291906184ae565b60405180910390a261135d6733233422b13ef64960c01b614cdf565b61137167dfec67638c49c8af60c01b614cdf565b600360009054906101000a900473ffffffffffffffffffffffffffffffffffffffff1673ffffffffffffffffffffffffffffffffffffffff1663a9059cbb600960009054906101000a900473ffffffffffffffffffffffffffffffffffffffff16856040518363ffffffff1660e01b81526004016113f0929190618113565b602060405180830381600087803b15801561140a57600080fd5b505af115801561141e573d6000803e3d6000fd5b505050506040513d601f19601f82011682018060405250810190611442919061783e565b5061145767b46c3ef9bb24b04c60c01b614cdf565b8285611463919061866d565b945061147967915a9637eb5eb69860c01b614cdf565b61148d67bb97a7ddb5dc34a760c01b614cdf565b600360009054906101000a900473ffffffffffffffffffffffffffffffffffffffff1673ffffffffffffffffffffffffffffffffffffffff1663a9059cbb600b60009054906101000a900473ffffffffffffffffffffffffffffffffffffffff16876040518363ffffffff1660e01b815260040161150c929190618113565b602060405180830381600087803b15801561152657600080fd5b505af115801561153a573d6000803e3d6000fd5b505050506040513d601f19601f8201168201806040525081019061155e919061783e565b50611573671639c7e7f594b3e160c01b614cdf565b611587670b536a71ddbc188360c01b614cdf565b61158f61533d565b50506115db565b6115aa67dd6521e7258ef57f60c01b614cdf565b6115be677184d27412505d1360c01b614cdf565b6115d26728535c48b1aa26e160c01b614cdf565b6115da61533d565b5b50505050505050565b60135481565b6115fe67ec803cc9fea9010f60c01b614cdf565b611612673800239fa8a020a860c01b614cdf565b611626675bf54e5806d0647760c01b614cdf565b61163a67cecb046ef38f267460c01b614cdf565b61164e678c06ad18eef162cd60c01b614cdf565b611656613205565b73ffffffffffffffffffffffffffffffffffffffff163373ffffffffffffffffffffffffffffffffffffffff161480156116a0575061169f671a398ae2822f05b060c01b616266565b5b806117145750600b60009054906101000a900473ffffffffffffffffffffffffffffffffffffffff1673ffffffffffffffffffffffffffffffffffffffff163373ffffffffffffffffffffffffffffffffffffffff161480156117135750611712678ceac6272e056b2260c01b616266565b5b5b611753576040517f08c379a000000000000000000000000000000000000000000000000000000000815260040161174a90618288565b60405180910390fd5b61176767dc8e940ab21e046e60c01b614cdf565b61177b677e589b9821b4fc5860c01b614cdf565b61178f67e696686bbe571d0660c01b614cdf565b6117a367c2917f441a5ed81a60c01b614cdf565b6117b7671bf8f194495aee5260c01b614cdf565b6117cb67cd73c1b53cbe22e260c01b614cdf565b8073ffffffffffffffffffffffffffffffffffffffff16600b60009054906101000a900473ffffffffffffffffffffffffffffffffffffffff1673ffffffffffffffffffffffffffffffffffffffff167f768099735d1c322a05a5b9d7b76d99682a1833d3f7055e5ede25e0f2eeaa8c6d60405160405180910390a361185b67c638d48cd00bd72360c01b614cdf565b80600b60006101000a81548173ffffffffffffffffffffffffffffffffffffffff021916908373ffffffffffffffffffffffffffffffffffffffff16021790555050565b6118b36721bf002464f1d24860c01b614cdf565b6118c7673800239fa8a020a860c01b614cdf565b6118db675bf54e5806d0647760c01b614cdf565b6118ef67cecb046ef38f267460c01b614cdf565b611903678c06ad18eef162cd60c01b614cdf565b61190b613205565b73ffffffffffffffffffffffffffffffffffffffff163373ffffffffffffffffffffffffffffffffffffffff161480156119555750611954671a398ae2822f05b060c01b616266565b5b806119c95750600b60009054906101000a900473ffffffffffffffffffffffffffffffffffffffff1673ffffffffffffffffffffffffffffffffffffffff163373ffffffffffffffffffffffffffffffffffffffff161480156119c857506119c7678ceac6272e056b2260c01b616266565b5b5b611a08576040517f08c379a00000000000000000000000000000000000000000000000000000000081526004016119ff90618288565b60405180910390fd5b611a1c67dc8e940ab21e046e60c01b614cdf565b611a30677e589b9821b4fc5860c01b614cdf565b611a4467089ade6b0486492260c01b614cdf565b611a5867525fd26f8cfc1fca60c01b614cdf565b611a6c6713d20bdee4dbb62b60c01b614cdf565b80600960006101000a81548173ffffffffffffffffffffffffffffffffffffffff021916908373ffffffffffffffffffffffffffffffffffffffff16021790555050565b600f6020528060005260406000206000915090505481565b611adc67e84896e09bec665f60c01b614cdf565b611af0673800239fa8a020a860c01b614cdf565b611b04675bf54e5806d0647760c01b614cdf565b611b1867cecb046ef38f267460c01b614cdf565b611b2c678c06ad18eef162cd60c01b614cdf565b611b34613205565b73ffffffffffffffffffffffffffffffffffffffff163373ffffffffffffffffffffffffffffffffffffffff16148015611b7e5750611b7d671a398ae2822f05b060c01b616266565b5b80611bf25750600b60009054906101000a900473ffffffffffffffffffffffffffffffffffffffff1673ffffffffffffffffffffffffffffffffffffffff163373ffffffffffffffffffffffffffffffffffffffff16148015611bf15750611bf0678ceac6272e056b2260c01b616266565b5b5b611c31576040517f08c379a0000000000000000000000000000000000000000000000000000000008152600401611c2890618288565b60405180910390fd5b611c4567dc8e940ab21e046e60c01b614cdf565b611c59677e589b9821b4fc5860c01b614cdf565b611c6d67faa39d203197eb0660c01b614cdf565b611c816795ff72d762b7da0460c01b614cdf565b611c9567542014c102d7997b60c01b614cdf565b8060138190555050565b6000611cb567e4446570d8d4fd4a60c01b614cdf565b611cc967d28a5e9583e6893e60c01b614cdf565b611cdd67999e882d49e5c88260c01b614cdf565b600760009054906101000a900473ffffffffffffffffffffffffffffffffffffffff1673ffffffffffffffffffffffffffffffffffffffff16631175a1dd600a54306040518363ffffffff1660e01b8152600401611d3c929190618403565b60206040518083038186803b158015611d5457600080fd5b505afa158015611d68573d6000803e3d6000fd5b505050506040513d601f19601f82011682018060405250810190611d8c91906178df565b905090565b611da567b8293b48b2b44b9860c01b614cdf565b611db9673800239fa8a020a860c01b614cdf565b611dcd675bf54e5806d0647760c01b614cdf565b611de167cecb046ef38f267460c01b614cdf565b611df5678c06ad18eef162cd60c01b614cdf565b611dfd613205565b73ffffffffffffffffffffffffffffffffffffffff163373ffffffffffffffffffffffffffffffffffffffff16148015611e475750611e46671a398ae2822f05b060c01b616266565b5b80611ebb5750600b60009054906101000a900473ffffffffffffffffffffffffffffffffffffffff1673ffffffffffffffffffffffffffffffffffffffff163373ffffffffffffffffffffffffffffffffffffffff16148015611eba5750611eb9678ceac6272e056b2260c01b616266565b5b5b611efa576040517f08c379a0000000000000000000000000000000000000000000000000000000008152600401611ef190618288565b60405180910390fd5b611f0e67dc8e940ab21e046e60c01b614cdf565b611f22677e589b9821b4fc5860c01b614cdf565b611f36672629f2753576add660c01b614cdf565b611f4a67f4294784523e19dc60c01b614cdf565b611f5e670e698feb98bf4eac60c01b614cdf565b80600760006101000a81548173ffffffffffffffffffffffffffffffffffffffff021916908373ffffffffffffffffffffffffffffffffffffffff16021790555050565b600c6020528060005260406000206000915090505481565b600080611fd16793c9eac11eb05ffa60c01b614cdf565b611fe56712e2d8996801ca3560c01b614cdf565b611ff9672b7b4af37928f35760c01b614cdf565b600080600860009054906101000a900473ffffffffffffffffffffffffffffffffffffffff1673ffffffffffffffffffffffffffffffffffffffff16630902f1ac6040518163ffffffff1660e01b815260040160606040518083038186803b15801561206457600080fd5b505afa158015612078573d6000803e3d6000fd5b505050506040513d601f19601f8201168201806040525081019061209c9190617867565b50915091506120b5671f59776e53b9f15f60c01b614cdf565b6120c96709e6537ba3fb88d260c01b614cdf565b6000600860009054906101000a900473ffffffffffffffffffffffffffffffffffffffff1673ffffffffffffffffffffffffffffffffffffffff166318160ddd6040518163ffffffff1660e01b815260040160206040518083038186803b15801561213357600080fd5b505afa158015612147573d6000803e3d6000fd5b505050506040513d601f19601f8201168201806040525081019061216b91906178df565b905061218167cb04cadb7a28d7b960c01b614cdf565b80600254846dffffffffffffffffffffffffffff166121a09190618613565b6121aa91906185e2565b94506121c0672208b232f939a4d560c01b614cdf565b80600254836dffffffffffffffffffffffffffff166121df9190618613565b6121e991906185e2565b93505050509091565b6000612208679743a3e016b1eb7760c01b614cdf565b61221c674acf805deed3ead560c01b614cdf565b612230672f806cfdae7f94dd60c01b614cdf565b61224467ce817c379c7d8e6960c01b614cdf565b81600e60003373ffffffffffffffffffffffffffffffffffffffff1673ffffffffffffffffffffffffffffffffffffffff16815260200190815260200160002054600c60003373ffffffffffffffffffffffffffffffffffffffff1673ffffffffffffffffffffffffffffffffffffffff16815260200190815260200160002054600d60003373ffffffffffffffffffffffffffffffffffffffff1673ffffffffffffffffffffffffffffffffffffffff1681526020019081526020016000205461230f919061858c565b612319919061866d565b101561235a576040517f08c379a0000000000000000000000000000000000000000000000000000000008152600401612351906182a8565b60405180910390fd5b61236e67665a95e4e3c48ba160c01b614cdf565b61238267832f2670c915934660c01b614cdf565b61239667133ff625d6eae71460c01b614cdf565b6000806123a1611fba565b915091506123b9671e2c0702180bc90d60c01b614cdf565b6123cd67e6faeee87066011b60c01b614cdf565b600060025461242183600460009054906101000a900473ffffffffffffffffffffffffffffffffffffffff16600560009054906101000a900473ffffffffffffffffffffffffffffffffffffffff16614709565b61247085600360009054906101000a900473ffffffffffffffffffffffffffffffffffffffff16600560009054906101000a900473ffffffffffffffffffffffffffffffffffffffff16614709565b61247a919061858c565b86600e60003373ffffffffffffffffffffffffffffffffffffffff1673ffffffffffffffffffffffffffffffffffffffff16815260200190815260200160002054600c60003373ffffffffffffffffffffffffffffffffffffffff1673ffffffffffffffffffffffffffffffffffffffff16815260200190815260200160002054600d60003373ffffffffffffffffffffffffffffffffffffffff1673ffffffffffffffffffffffffffffffffffffffff16815260200190815260200160002054612545919061858c565b61254f919061866d565b612559919061866d565b6125639190618613565b61256d91906185e2565b9050612583676c4b089ee815226360c01b614cdf565b6125976740f865096ec7aac160c01b614cdf565b6125ab67d41c6296d5c1c28260c01b614cdf565b6000811480156125cb57506125ca67fb1cbe2d65c01ed360c01b616266565b5b806125f4575060125481101580156125f357506125f26702f2f04fa5189d9160c01b616266565b5b5b612633576040517f08c379a000000000000000000000000000000000000000000000000000000000815260040161262a90618348565b60405180910390fd5b61264767766d70d6baced91e60c01b614cdf565b61265b6798b2e45041db090c60c01b614cdf565b61266f67c716ae7cdc98f9f160c01b614cdf565b61268367cfdd40c40d6b778e60c01b614cdf565b6013548111156126c8576040517f08c379a00000000000000000000000000000000000000000000000000000000081526004016126bf90618308565b60405180910390fd5b6126dc67b512d83e1517599860c01b614cdf565b6126f067b3ae149abf1e26ba60c01b614cdf565b84600e60003373ffffffffffffffffffffffffffffffffffffffff1673ffffffffffffffffffffffffffffffffffffffff168152602001908152602001600020600082825461273f919061858c565b9250508190555061275a67ada2dff88a40f67160c01b614cdf565b61276e67a4a1c0ad3d4a671560c01b614cdf565b60019350505050919050565b6010818154811061278a57600080fd5b906000526020600020016000915054906101000a900473ffffffffffffffffffffffffffffffffffffffff1681565b600b60009054906101000a900473ffffffffffffffffffffffffffffffffffffffff1681565b6127f3671461de4aeab6faec60c01b614cdf565b612807673800239fa8a020a860c01b614cdf565b61281b675bf54e5806d0647760c01b614cdf565b61282f67cecb046ef38f267460c01b614cdf565b612843678c06ad18eef162cd60c01b614cdf565b61284b613205565b73ffffffffffffffffffffffffffffffffffffffff163373ffffffffffffffffffffffffffffffffffffffff161480156128955750612894671a398ae2822f05b060c01b616266565b5b806129095750600b60009054906101000a900473ffffffffffffffffffffffffffffffffffffffff1673ffffffffffffffffffffffffffffffffffffffff163373ffffffffffffffffffffffffffffffffffffffff161480156129085750612907678ceac6272e056b2260c01b616266565b5b5b612948576040517f08c379a000000000000000000000000000000000000000000000000000000000815260040161293f90618288565b60405180910390fd5b61295c67dc8e940ab21e046e60c01b614cdf565b612970677e589b9821b4fc5860c01b614cdf565b612984676f139f2fadf19f2f60c01b614cdf565b61299867f65d7bb34a58727e60c01b614cdf565b6129ac67735cbad78cd218e260c01b614cdf565b8060128190555050565b60125481565b606060006129d4672ace038115c3739760c01b614cdf565b6129e867a9b3c2270302acd960c01b614cdf565b60108054905067ffffffffffffffff811115612a2d577f4e487b7100000000000000000000000000000000000000000000000000000000600052604160045260246000fd5b604051908082528060200260200182016040528015612a5b5781602001602082028036833780820191505090505b509150612a7267ce924f008cc8285860c01b614cdf565b60009050612a8a67a0343b41b378ae9360c01b614cdf565b612a9e67b688c90caaf9e13d60c01b614cdf565b60005b601080549050811015612cd157612ac267a007271d59a4b1f160c01b614cdf565b612ad667ff2a05c6a2397b7960c01b614cdf565b6000600d600060108481548110612b16577f4e487b7100000000000000000000000000000000000000000000000000000000600052603260045260246000fd5b9060005260206000200160009054906101000a900473ffffffffffffffffffffffffffffffffffffffff1673ffffffffffffffffffffffffffffffffffffffff1673ffffffffffffffffffffffffffffffffffffffff168152602001908152602001600020541115612ca957612b9667cec83c4f741fa63560c01b614cdf565b612baa671a995950b90075c760c01b614cdf565b60108181548110612be4577f4e487b7100000000000000000000000000000000000000000000000000000000600052603260045260246000fd5b9060005260206000200160009054906101000a900473ffffffffffffffffffffffffffffffffffffffff16838381518110612c48577f4e487b7100000000000000000000000000000000000000000000000000000000600052603260045260246000fd5b602002602001019073ffffffffffffffffffffffffffffffffffffffff16908173ffffffffffffffffffffffffffffffffffffffff1681525050612c96672fbe85dac08065b660c01b614cdf565b8180612ca19061874f565b925050612cbe565b612cbd6716094a27030ddb8c60c01b614cdf565b5b8080612cc99061874f565b915050612aa1565b50612ce667288902006170569460c01b614cdf565b612cfa67ce0c3ad1de1109a860c01b614cdf565b9091565b600d6020528060005260406000206000915090505481565b612d1e616271565b612d2860006162ef565b565b612d3e676ca061d0fb35a5e160c01b614cdf565b612d52673800239fa8a020a860c01b614cdf565b612d66675bf54e5806d0647760c01b614cdf565b612d7a67cecb046ef38f267460c01b614cdf565b612d8e678c06ad18eef162cd60c01b614cdf565b612d96613205565b73ffffffffffffffffffffffffffffffffffffffff163373ffffffffffffffffffffffffffffffffffffffff16148015612de05750612ddf671a398ae2822f05b060c01b616266565b5b80612e545750600b60009054906101000a900473ffffffffffffffffffffffffffffffffffffffff1673ffffffffffffffffffffffffffffffffffffffff163373ffffffffffffffffffffffffffffffffffffffff16148015612e535750612e52678ceac6272e056b2260c01b616266565b5b5b612e93576040517f08c379a0000000000000000000000000000000000000000000000000000000008152600401612e8a90618288565b60405180910390fd5b612ea767dc8e940ab21e046e60c01b614cdf565b612ebb677e589b9821b4fc5860c01b614cdf565b612ecf67cf92ba5bd3abb08160c01b614cdf565b612ee367914db3f0a26a999160c01b614cdf565b612ef7679b0cef31931a213260c01b614cdf565b80600360006101000a81548173ffffffffffffffffffffffffffffffffffffffff021916908373ffffffffffffffffffffffffffffffffffffffff16021790555050565b612f4f67e8ca10ae3fa9fdbe60c01b614cdf565b612f63673800239fa8a020a860c01b614cdf565b612f77675bf54e5806d0647760c01b614cdf565b612f8b67cecb046ef38f267460c01b614cdf565b612f9f678c06ad18eef162cd60c01b614cdf565b612fa7613205565b73ffffffffffffffffffffffffffffffffffffffff163373ffffffffffffffffffffffffffffffffffffffff16148015612ff15750612ff0671a398ae2822f05b060c01b616266565b5b806130655750600b60009054906101000a900473ffffffffffffffffffffffffffffffffffffffff1673ffffffffffffffffffffffffffffffffffffffff163373ffffffffffffffffffffffffffffffffffffffff161480156130645750613063678ceac6272e056b2260c01b616266565b5b5b6130a4576040517f08c379a000000000000000000000000000000000000000000000000000000000815260040161309b90618288565b60405180910390fd5b6130b867dc8e940ab21e046e60c01b614cdf565b6130cc677e589b9821b4fc5860c01b614cdf565b6130e067feccd0b9e907d36b60c01b614cdf565b6130f467a4a2fc05852cbb8b60c01b614cdf565b61310867b18647c2d890746560c01b614cdf565b61311c67518a2a80a976494260c01b614cdf565b61313067ea37cb7f540e018b60c01b614cdf565b601554811115613175576040517f08c379a000000000000000000000000000000000000000000000000000000000815260040161316c90618208565b60405180910390fd5b61318967476b0e1a0872e0dc60c01b614cdf565b61319d676800357ca12d002f60c01b614cdf565b6131b167d48b1ab0ea516b9a60c01b614cdf565b806014547f44cb215a0ee4011e0802aea4220545b8f823c5041bb303a4ae1219f99f91e65b60405160405180910390a36131f567aa9fc86ff58aa85760c01b614cdf565b8060148190555050565b60025481565b60008060009054906101000a900473ffffffffffffffffffffffffffffffffffffffff16905090565b60006132446764f774afbaa6da3560c01b614cdf565b61325867148006fdf845bb5060c01b614cdf565b61326c6745655b06cad96a7e60c01b614cdf565b601160008373ffffffffffffffffffffffffffffffffffffffff1673ffffffffffffffffffffffffffffffffffffffff16815260200190815260200160002060009054906101000a900460ff169050919050565b6132d467f2d7f3dd2c29c02a60c01b614cdf565b6132e86772220f17286b3aeb60c01b614cdf565b6132fc675b8d79495091407b60c01b614cdf565b61331067fb7956fa560397f360c01b614cdf565b6000600f60003373ffffffffffffffffffffffffffffffffffffffff1673ffffffffffffffffffffffffffffffffffffffff1681526020019081526020016000205411613392576040517f08c379a0000000000000000000000000000000000000000000000000000000008152600401613389906182e8565b60405180910390fd5b6133a667088d18d1e3ce25f560c01b614cdf565b6133ba67877d08c9dcd40c7a60c01b614cdf565b6133ce675aacee7e6281b34660c01b614cdf565b6133e2672e21db0b57bbc60360c01b614cdf565b600360009054906101000a900473ffffffffffffffffffffffffffffffffffffffff1673ffffffffffffffffffffffffffffffffffffffff1663a9059cbb33600f60003373ffffffffffffffffffffffffffffffffffffffff1673ffffffffffffffffffffffffffffffffffffffff168152602001908152602001600020546040518363ffffffff1660e01b815260040161347e929190618113565b602060405180830381600087803b15801561349857600080fd5b505af11580156134ac573d6000803e3d6000fd5b505050506040513d601f19601f820116820180604052508101906134d0919061783e565b61350f576040517f08c379a0000000000000000000000000000000000000000000000000000000008152600401613506906183a8565b60405180910390fd5b61352367111c433b40d4620060c01b614cdf565b61353767c3f225b013cfb6e960c01b614cdf565b600f60003373ffffffffffffffffffffffffffffffffffffffff1673ffffffffffffffffffffffffffffffffffffffff1681526020019081526020016000205460166000828254613588919061866d565b925050819055506135a367d7104e561a6dc4b860c01b614cdf565b6000600f60003373ffffffffffffffffffffffffffffffffffffffff1673ffffffffffffffffffffffffffffffffffffffff16815260200190815260200160002081905550565b6135fe67ad950e2b2426d43860c01b614cdf565b613612673800239fa8a020a860c01b614cdf565b613626675bf54e5806d0647760c01b614cdf565b61363a67cecb046ef38f267460c01b614cdf565b61364e678c06ad18eef162cd60c01b614cdf565b613656613205565b73ffffffffffffffffffffffffffffffffffffffff163373ffffffffffffffffffffffffffffffffffffffff161480156136a0575061369f671a398ae2822f05b060c01b616266565b5b806137145750600b60009054906101000a900473ffffffffffffffffffffffffffffffffffffffff1673ffffffffffffffffffffffffffffffffffffffff163373ffffffffffffffffffffffffffffffffffffffff161480156137135750613712678ceac6272e056b2260c01b616266565b5b5b613753576040517f08c379a000000000000000000000000000000000000000000000000000000000815260040161374a90618288565b60405180910390fd5b61376767dc8e940ab21e046e60c01b614cdf565b61377b677e589b9821b4fc5860c01b614cdf565b61378f6753013d0c7a5a964860c01b614cdf565b6137a3675d264b2f5c51be6260c01b614cdf565b6137b767db0fb456dd44d78760c01b614cdf565b80600560006101000a81548173ffffffffffffffffffffffffffffffffffffffff021916908373ffffffffffffffffffffffffffffffffffffffff16021790555050565b600e6020528060005260406000206000915090505481565b61382767c0bfe2857ebe5cdf60c01b614cdf565b61383b673800239fa8a020a860c01b614cdf565b61384f675bf54e5806d0647760c01b614cdf565b61386367cecb046ef38f267460c01b614cdf565b613877678c06ad18eef162cd60c01b614cdf565b61387f613205565b73ffffffffffffffffffffffffffffffffffffffff163373ffffffffffffffffffffffffffffffffffffffff161480156138c957506138c8671a398ae2822f05b060c01b616266565b5b8061393d5750600b60009054906101000a900473ffffffffffffffffffffffffffffffffffffffff1673ffffffffffffffffffffffffffffffffffffffff163373ffffffffffffffffffffffffffffffffffffffff1614801561393c575061393b678ceac6272e056b2260c01b616266565b5b5b61397c576040517f08c379a000000000000000000000000000000000000000000000000000000000815260040161397390618288565b60405180910390fd5b61399067dc8e940ab21e046e60c01b614cdf565b6139a4677e589b9821b4fc5860c01b614cdf565b6139b8676989995b1604012260c01b614cdf565b6139cc67c8b41f8f3b05b74260c01b614cdf565b6139e067a9958d6ce0523b6660c01b614cdf565b80600460006101000a81548173ffffffffffffffffffffffffffffffffffffffff021916908373ffffffffffffffffffffffffffffffffffffffff16021790555050565b600460009054906101000a900473ffffffffffffffffffffffffffffffffffffffff1681565b613a5e67eff9283a2678e49160c01b614cdf565b613a72673800239fa8a020a860c01b614cdf565b613a86675bf54e5806d0647760c01b614cdf565b613a9a67cecb046ef38f267460c01b614cdf565b613aae678c06ad18eef162cd60c01b614cdf565b613ab6613205565b73ffffffffffffffffffffffffffffffffffffffff163373ffffffffffffffffffffffffffffffffffffffff16148015613b005750613aff671a398ae2822f05b060c01b616266565b5b80613b745750600b60009054906101000a900473ffffffffffffffffffffffffffffffffffffffff1673ffffffffffffffffffffffffffffffffffffffff163373ffffffffffffffffffffffffffffffffffffffff16148015613b735750613b72678ceac6272e056b2260c01b616266565b5b5b613bb3576040517f08c379a0000000000000000000000000000000000000000000000000000000008152600401613baa90618288565b60405180910390fd5b613bc767dc8e940ab21e046e60c01b614cdf565b613bdb677e589b9821b4fc5860c01b614cdf565b613bef67d34ababaa2d7150260c01b614cdf565b613c0367e6e7e21becb73cf860c01b614cdf565b613c17679bdc68efc6269b7860c01b614cdf565b85600360006101000a81548173ffffffffffffffffffffffffffffffffffffffff021916908373ffffffffffffffffffffffffffffffffffffffff160217905550613c6c670255f610d43fcaf460c01b614cdf565b84600460006101000a81548173ffffffffffffffffffffffffffffffffffffffff021916908373ffffffffffffffffffffffffffffffffffffffff160217905550613cc16720b1ee01f7a9d8a460c01b614cdf565b82600660006101000a81548173ffffffffffffffffffffffffffffffffffffffff021916908373ffffffffffffffffffffffffffffffffffffffff160217905550613d16673b50d484e28454c960c01b614cdf565b81600760006101000a81548173ffffffffffffffffffffffffffffffffffffffff021916908373ffffffffffffffffffffffffffffffffffffffff160217905550613d6b67a85f470a02d593cf60c01b614cdf565b80600860006101000a81548173ffffffffffffffffffffffffffffffffffffffff021916908373ffffffffffffffffffffffffffffffffffffffff160217905550613dc067e4ee6b1a5cd0612360c01b614cdf565b83600560006101000a81548173ffffffffffffffffffffffffffffffffffffffff021916908373ffffffffffffffffffffffffffffffffffffffff160217905550505050505050565b60015481565b60116020528060005260406000206000915054906101000a900460ff1681565b6000613e45675d671fc72c2bfd4f60c01b614cdf565b613e596744fdf0a88aff48da60c01b614cdf565b613e6d675add2fbefee7ce0a60c01b614cdf565b601760009054906101000a900460ff1615613f2d57613e9667c4eee451377cb33f60c01b614cdf565b613eaa67376f1972e37785ae60c01b614cdf565b613ebe6741321d3a4a0ed5d260c01b614cdf565b613ed26725abf735002def0660c01b614cdf565b348214613f14576040517f08c379a0000000000000000000000000000000000000000000000000000000008152600401613f0b90618248565b60405180910390fd5b613f2867cf72866a9575f59f60c01b614cdf565b6141be565b613f41671c5a4ae2f37c754060c01b614cdf565b613f5567e7333827bfb8926660c01b614cdf565b613f696793bbdf158fdfba6260c01b614cdf565b613f7d67746dcc8821d5ab7b60c01b614cdf565b81600460009054906101000a900473ffffffffffffffffffffffffffffffffffffffff1673ffffffffffffffffffffffffffffffffffffffff166370a08231336040518263ffffffff1660e01b8152600401613fd99190617fab565b60206040518083038186803b158015613ff157600080fd5b505afa158015614005573d6000803e3d6000fd5b505050506040513d601f19601f8201168201806040525081019061402991906178df565b101561406a576040517f08c379a000000000000000000000000000000000000000000000000000000000815260040161406190618368565b60405180910390fd5b61407e6795d376e26ded842260c01b614cdf565b61409267e84c18aee11e676760c01b614cdf565b6140a6675bfd13d42df4b47a60c01b614cdf565b6140ba67daa4995766eb6ccd60c01b614cdf565b81600460009054906101000a900473ffffffffffffffffffffffffffffffffffffffff1673ffffffffffffffffffffffffffffffffffffffff1663dd62ed3e33306040518363ffffffff1660e01b8152600401614118929190617fc6565b60206040518083038186803b15801561413057600080fd5b505afa158015614144573d6000803e3d6000fd5b505050506040513d601f19601f8201168201806040525081019061416891906178df565b10156141a9576040517f08c379a00000000000000000000000000000000000000000000000000000000081526004016141a0906181e8565b60405180910390fd5b6141bd6775470256d0ff0ac860c01b614cdf565b5b6141d267a3bd0de468b00ede60c01b614cdf565b6141e667c1458be75481a57260c01b614cdf565b6141fa67f7f9bad2861bdbe960c01b614cdf565b82600360009054906101000a900473ffffffffffffffffffffffffffffffffffffffff1673ffffffffffffffffffffffffffffffffffffffff166370a08231336040518263ffffffff1660e01b81526004016142569190617fab565b60206040518083038186803b15801561426e57600080fd5b505afa158015614282573d6000803e3d6000fd5b505050506040513d601f19601f820116820180604052508101906142a691906178df565b10156142e7576040517f08c379a00000000000000000000000000000000000000000000000000000000081526004016142de90618268565b60405180910390fd5b6142fb67bbeb7728bc11ce0560c01b614cdf565b61430f67375d6a34d60ac97f60c01b614cdf565b614323678b7b61139ac7a07660c01b614cdf565b61433767dfb8cca62b2e2f6d60c01b614cdf565b82600360009054906101000a900473ffffffffffffffffffffffffffffffffffffffff1673ffffffffffffffffffffffffffffffffffffffff1663dd62ed3e33306040518363ffffffff1660e01b8152600401614395929190617fc6565b60206040518083038186803b1580156143ad57600080fd5b505afa1580156143c1573d6000803e3d6000fd5b505050506040513d601f19601f820116820180604052508101906143e591906178df565b1015614426576040517f08c379a000000000000000000000000000000000000000000000000000000000815260040161441d90618328565b60405180910390fd5b61443a6755a60fb60d64d8a360c01b614cdf565b61444e677d47ab63053d13cf60c01b614cdf565b614462679e3983408b4c9a5860c01b614cdf565b61446c83836163b3565b905092915050565b61448867d4dcd0ac72cff0b960c01b614cdf565b61449c673800239fa8a020a860c01b614cdf565b6144b0675bf54e5806d0647760c01b614cdf565b6144c467cecb046ef38f267460c01b614cdf565b6144d8678c06ad18eef162cd60c01b614cdf565b6144e0613205565b73ffffffffffffffffffffffffffffffffffffffff163373ffffffffffffffffffffffffffffffffffffffff1614801561452a5750614529671a398ae2822f05b060c01b616266565b5b8061459e5750600b60009054906101000a900473ffffffffffffffffffffffffffffffffffffffff1673ffffffffffffffffffffffffffffffffffffffff163373ffffffffffffffffffffffffffffffffffffffff1614801561459d575061459c678ceac6272e056b2260c01b616266565b5b5b6145dd576040517f08c379a00000000000000000000000000000000000000000000000000000000081526004016145d490618288565b60405180910390fd5b6145f167dc8e940ab21e046e60c01b614cdf565b614605677e589b9821b4fc5860c01b614cdf565b6146196704ac59349df0c20b60c01b614cdf565b61462d6774f8cb7a9b9b4deb60c01b614cdf565b614641671740652a1050ba0860c01b614cdf565b80600660006101000a81548173ffffffffffffffffffffffffffffffffffffffff021916908373ffffffffffffffffffffffffffffffffffffffff16021790555050565b61468d616271565b600073ffffffffffffffffffffffffffffffffffffffff168173ffffffffffffffffffffffffffffffffffffffff1614156146fd576040517f08c379a00000000000000000000000000000000000000000000000000000000081526004016146f490618228565b60405180910390fd5b614706816162ef565b50565b600061471f6781461ee267a1df0460c01b614cdf565b61473367941725593bf1e0e360c01b614cdf565b61474767f1b51526848704b060c01b614cdf565b606061475d676f9cfb58a59a8c2260c01b614cdf565b600267ffffffffffffffff81111561479e577f4e487b7100000000000000000000000000000000000000000000000000000000600052604160045260246000fd5b6040519080825280602002602001820160405280156147cc5781602001602082028036833780820191505090505b5090506147e3677c5d9c961c99ecc560c01b614cdf565b838160008151811061481e577f4e487b7100000000000000000000000000000000000000000000000000000000600052603260045260246000fd5b602002602001019073ffffffffffffffffffffffffffffffffffffffff16908173ffffffffffffffffffffffffffffffffffffffff168152505061486c678deaf8ac18f16a3160c01b614cdf565b82816001815181106148a7577f4e487b7100000000000000000000000000000000000000000000000000000000600052603260045260246000fd5b602002602001019073ffffffffffffffffffffffffffffffffffffffff16908173ffffffffffffffffffffffffffffffffffffffff16815250506148f567c93a4f5202974bb460c01b614cdf565b614909674fe934a6c42052f660c01b614cdf565b606061491f679a8729b4867c5ab460c01b614cdf565b600267ffffffffffffffff811115614960577f4e487b7100000000000000000000000000000000000000000000000000000000600052604160045260246000fd5b60405190808252806020026020018201604052801561498e5781602001602082028036833780820191505090505b5090506149a56745caf61e60468a7460c01b614cdf565b600660009054906101000a900473ffffffffffffffffffffffffffffffffffffffff1673ffffffffffffffffffffffffffffffffffffffff1663d06ca61f87846040518363ffffffff1660e01b8152600401614a0292919061842c565b60006040518083038186803b158015614a1a57600080fd5b505afa158015614a2e573d6000803e3d6000fd5b505050506040513d6000823e3d601f19601f82011682018060405250810190614a5791906177fd565b9050614a6d67514975995613a58460c01b614cdf565b614a8167f90c59e003bd0c2460c01b614cdf565b80600181518110614abb577f4e487b7100000000000000000000000000000000000000000000000000000000600052603260045260246000fd5b6020026020010151925050509392505050565b614ae2679f1fc11ff1da11ad60c01b614cdf565b614af6673800239fa8a020a860c01b614cdf565b614b0a675bf54e5806d0647760c01b614cdf565b614b1e67cecb046ef38f267460c01b614cdf565b614b32678c06ad18eef162cd60c01b614cdf565b614b3a613205565b73ffffffffffffffffffffffffffffffffffffffff163373ffffffffffffffffffffffffffffffffffffffff16148015614b845750614b83671a398ae2822f05b060c01b616266565b5b80614bf85750600b60009054906101000a900473ffffffffffffffffffffffffffffffffffffffff1673ffffffffffffffffffffffffffffffffffffffff163373ffffffffffffffffffffffffffffffffffffffff16148015614bf75750614bf6678ceac6272e056b2260c01b616266565b5b5b614c37576040517f08c379a0000000000000000000000000000000000000000000000000000000008152600401614c2e90618288565b60405180910390fd5b614c4b67dc8e940ab21e046e60c01b614cdf565b614c5f677e589b9821b4fc5860c01b614cdf565b614c7367ec331deb72b414f860c01b614cdf565b614c87679c34fc85ea1de36a60c01b614cdf565b614c9b67c028ac3950ca960260c01b614cdf565b80600860006101000a81548173ffffffffffffffffffffffffffffffffffffffff021916908373ffffffffffffffffffffffffffffffffffffffff16021790555050565b50565b6060614cf86759bbd078600cf0e460c01b617562565b614d0c674f62247eb6ea517560c01b617562565b614d206712244a5bc2cb4d6060c01b617562565b6000614d36674d572aee44bcf22060c01b617562565b8267ffffffffffffffff811115614d76577f4e487b7100000000000000000000000000000000000000000000000000000000600052604160045260246000fd5b604051908082528060200260200182016040528015614da45781602001602082028036833780820191505090505b509150614dbb67833a420c66b573b460c01b617562565b614dcf675e1e96cef681793560c01b617562565b5b8281101561500a57614dec67b227d5bcece0872460c01b617562565b614e00679009e38ddd96259260c01b617562565b60006001614e0d86617565565b614e17919061858c565b9050614e2d67f9adc188fd20269560c01b617562565b614e4167bd0edeb1299d2f7d60c01b617562565b6000614e5767753a4d998dbc26e660c01b617562565b614e6b675f4d0a4edda03c3560c01b617562565b60005b85811015614f2b57614e8a67b2136901262a113a60c01b617562565b614e9e67cfa2cab01cfa119260c01b617562565b82858281518110614ed8577f4e487b7100000000000000000000000000000000000000000000000000000000600052603260045260246000fd5b60200260200101511415614f0357614efa67e03b5456b70052e160c01b617562565b60019150614f18565b614f1767b3827c113668065e60c01b617562565b5b8080614f239061874f565b915050614e6e565b50614f4067205fc9b3a3fbef6e60c01b617562565b614f54674e78f70420a8c3da60c01b617562565b80614fee57614f6d6746f8c1560db8028160c01b617562565b614f816776a1c1438524740060c01b617562565b81848481518110614fbb577f4e487b7100000000000000000000000000000000000000000000000000000000600052603260045260246000fd5b602002602001018181525050614fdb674cee9b984f8c3d7960c01b617562565b8280614fe69061874f565b935050615003565b6150026769fe583f1dc87a6660c01b617562565b5b5050614dd0565b61501e6721e7f96de79d690760c01b617562565b61503267e02b7c8b24d8201e60c01b617562565b60005b838110156150b65761505167c80e7fca6538a98760c01b617562565b82818151811061508a577f4e487b7100000000000000000000000000000000000000000000000000000000600052603260045260246000fd5b60200260200101805180919061509f90618725565b8152505080806150ae9061874f565b915050615035565b506150cb676af84a94486ae2d560c01b617562565b6150df67b8f81337fabdee4b60c01b617562565b5092915050565b60006150fc676d8969b2b86ea10f60c01b614cdf565b61511067b232cc6b343dd19860c01b614cdf565b615124677ea9a268fcd73f6c60c01b614cdf565b6000600960009054906101000a900473ffffffffffffffffffffffffffffffffffffffff1673ffffffffffffffffffffffffffffffffffffffff16633d137386866040518263ffffffff1660e01b81526004016151819190617fab565b60206040518083038186803b15801561519957600080fd5b505afa1580156151ad573d6000803e3d6000fd5b505050506040513d601f19601f820116820180604052508101906151d191906178df565b90506151e7678a81c05f5967789760c01b614cdf565b6151fb67d4c6a94db2f249e960c01b614cdf565b600060648461520a91906185e2565b606483876152189190618613565b61522291906185e2565b61522c9190618613565b905061524267a5f1ccafb9ac069f60c01b614cdf565b615256671512158e2aeadc6f60c01b614cdf565b600960009054906101000a900473ffffffffffffffffffffffffffffffffffffffff1673ffffffffffffffffffffffffffffffffffffffff1663cadafe14600360009054906101000a900473ffffffffffffffffffffffffffffffffffffffff1688846040518463ffffffff1660e01b81526004016152d793929190617fef565b600060405180830381600087803b1580156152f157600080fd5b505af1158015615305573d6000803e3d6000fd5b5050505061531d67dcb1bf9872385e4060c01b614cdf565b615331675f3ce19e49659edc60c01b614cdf565b80925050509392505050565b615351678ff01908906fdaab60c01b614cdf565b61536567eb4c2093662c046960c01b614cdf565b61537967718ffacdf0e5a68e60c01b614cdf565b60005b6010805490508110156162635761539d67e18eae00b190906e60c01b614cdf565b6153b16738522715d000f3ed60c01b614cdf565b6000601082815481106153ed577f4e487b7100000000000000000000000000000000000000000000000000000000600052603260045260246000fd5b9060005260206000200160009054906101000a900473ffffffffffffffffffffffffffffffffffffffff16905061542e673eb546a7481cc35360c01b614cdf565b61544267d64e4a810982eb0b60c01b614cdf565b6000600c60008373ffffffffffffffffffffffffffffffffffffffff1673ffffffffffffffffffffffffffffffffffffffff1681526020019081526020016000205411156155a55761549e676f6bcd7dd456d53960c01b614cdf565b6154b26734f64cbaa2d3692d60c01b614cdf565b600c60008273ffffffffffffffffffffffffffffffffffffffff1673ffffffffffffffffffffffffffffffffffffffff16815260200190815260200160002054600d60008373ffffffffffffffffffffffffffffffffffffffff1673ffffffffffffffffffffffffffffffffffffffff1681526020019081526020016000206000828254615540919061858c565b9250508190555061555b676f92ed52d94f3bad60c01b614cdf565b6000600c60008373ffffffffffffffffffffffffffffffffffffffff1673ffffffffffffffffffffffffffffffffffffffff168152602001908152602001600020819055506155ba565b6155b967ee9fdd7aa933e4f060c01b614cdf565b5b6155ce6705a9be9fa601186d60c01b614cdf565b6155e2671ec196f46dba290760c01b614cdf565b6000600e60008373ffffffffffffffffffffffffffffffffffffffff1673ffffffffffffffffffffffffffffffffffffffff168152602001908152602001600020541180156156af5750600d60008273ffffffffffffffffffffffffffffffffffffffff1673ffffffffffffffffffffffffffffffffffffffff16815260200190815260200160002054600e60008373ffffffffffffffffffffffffffffffffffffffff1673ffffffffffffffffffffffffffffffffffffffff1681526020019081526020016000205411155b1561623a576156c8670e7f3af9c0c27fee60c01b614cdf565b6156dc67dff1b21c1ca8156c60c01b614cdf565b600e60008273ffffffffffffffffffffffffffffffffffffffff1673ffffffffffffffffffffffffffffffffffffffff16815260200190815260200160002054600d60008373ffffffffffffffffffffffffffffffffffffffff1673ffffffffffffffffffffffffffffffffffffffff168152602001908152602001600020600082825461576a919061866d565b92505081905550615785679eb10cb8d339ffe960c01b614cdf565b61579967ee1702ba7684bcc060c01b614cdf565b600760009054906101000a900473ffffffffffffffffffffffffffffffffffffffff1673ffffffffffffffffffffffffffffffffffffffff1663441a3e70600a54600e60008573ffffffffffffffffffffffffffffffffffffffff1673ffffffffffffffffffffffffffffffffffffffff168152602001908152602001600020546040518363ffffffff1660e01b8152600401615837929190618485565b600060405180830381600087803b15801561585157600080fd5b505af1158015615865573d6000803e3d6000fd5b5050505061587d67bd52ce578ccec78760c01b614cdf565b61589167f79ac2924db97d7d60c01b614cdf565b600860009054906101000a900473ffffffffffffffffffffffffffffffffffffffff1673ffffffffffffffffffffffffffffffffffffffff1663095ea7b3600660009054906101000a900473ffffffffffffffffffffffffffffffffffffffff16600e60008573ffffffffffffffffffffffffffffffffffffffff1673ffffffffffffffffffffffffffffffffffffffff168152602001908152602001600020546040518363ffffffff1660e01b815260040161594f929190618113565b602060405180830381600087803b15801561596957600080fd5b505af115801561597d573d6000803e3d6000fd5b505050506040513d601f19601f820116820180604052508101906159a1919061783e565b506159b6675302c0840fdeff4560c01b614cdf565b6159ca678a771772a090f7e360c01b614cdf565b6000806159d5611fba565b915091506159ed675f46a9f1af7777c760c01b614cdf565b615a016708ba91831271a03a60c01b614cdf565b601760009054906101000a900460ff1615615dba57615a2a679d38130fd827279960c01b614cdf565b615a3e67821566bfd2e785c360c01b614cdf565b615a526743580d9894ef613b60c01b614cdf565b600080600660009054906101000a900473ffffffffffffffffffffffffffffffffffffffff1673ffffffffffffffffffffffffffffffffffffffff166302751cec600360009054906101000a900473ffffffffffffffffffffffffffffffffffffffff16600e60008973ffffffffffffffffffffffffffffffffffffffff1673ffffffffffffffffffffffffffffffffffffffff168152602001908152602001600020546002546126ac612710600e60008d73ffffffffffffffffffffffffffffffffffffffff1673ffffffffffffffffffffffffffffffffffffffff168152602001908152602001600020548b615b4a9190618613565b615b5491906185e2565b615b5e9190618613565b615b6891906185e2565b6002546126ac612710600e60008e73ffffffffffffffffffffffffffffffffffffffff1673ffffffffffffffffffffffffffffffffffffffff168152602001908152602001600020548b615bbc9190618613565b615bc691906185e2565b615bd09190618613565b615bda91906185e2565b306104b042615be9919061858c565b6040518763ffffffff1660e01b8152600401615c0a9695949392919061813c565b6040805180830381600087803b158015615c2357600080fd5b505af1158015615c37573d6000803e3d6000fd5b505050506040513d601f19601f82011682018060405250810190615c5b9190617993565b91509150615c73670d2261c062e2e8cf60c01b614cdf565b615c8767f9dc9099fa4e04b760c01b614cdf565b600360009054906101000a900473ffffffffffffffffffffffffffffffffffffffff1673ffffffffffffffffffffffffffffffffffffffff1663a9059cbb86846040518363ffffffff1660e01b8152600401615ce4929190618113565b602060405180830381600087803b158015615cfe57600080fd5b505af1158015615d12573d6000803e3d6000fd5b505050506040513d601f19601f82011682018060405250810190615d36919061783e565b50615d4b67632e3083bb98812960c01b614cdf565b615d5f674145bc47155d401860c01b614cdf565b8473ffffffffffffffffffffffffffffffffffffffff166108fc60185483615d8791906185e2565b9081150290604051600060405180830381858888f19350505050158015615db2573d6000803e3d6000fd5b5050506161da565b615dce6739fc2725baaa7e2460c01b614cdf565b615de267516988bfa0f4edc460c01b614cdf565b615df667edcdd5b9d9d197dd60c01b614cdf565b600080600660009054906101000a900473ffffffffffffffffffffffffffffffffffffffff1673ffffffffffffffffffffffffffffffffffffffff1663baa2abde600360009054906101000a900473ffffffffffffffffffffffffffffffffffffffff16600460009054906101000a900473ffffffffffffffffffffffffffffffffffffffff16600e60008a73ffffffffffffffffffffffffffffffffffffffff1673ffffffffffffffffffffffffffffffffffffffff168152602001908152602001600020546002546126ac612710600e60008e73ffffffffffffffffffffffffffffffffffffffff1673ffffffffffffffffffffffffffffffffffffffff168152602001908152602001600020548c615f119190618613565b615f1b91906185e2565b615f259190618613565b615f2f91906185e2565b6002546126ac612710600e60008f73ffffffffffffffffffffffffffffffffffffffff1673ffffffffffffffffffffffffffffffffffffffff168152602001908152602001600020548c615f839190618613565b615f8d91906185e2565b615f979190618613565b615fa191906185e2565b306104b042615fb0919061858c565b6040518863ffffffff1660e01b8152600401615fd29796959493929190618026565b6040805180830381600087803b158015615feb57600080fd5b505af1158015615fff573d6000803e3d6000fd5b505050506040513d601f19601f820116820180604052508101906160239190617993565b9150915061603b67c0e9b2341f0fe27260c01b614cdf565b61604f6732f4b8eb9cf5fd0460c01b614cdf565b600360009054906101000a900473ffffffffffffffffffffffffffffffffffffffff1673ffffffffffffffffffffffffffffffffffffffff1663a9059cbb86846040518363ffffffff1660e01b81526004016160ac929190618113565b602060405180830381600087803b1580156160c657600080fd5b505af11580156160da573d6000803e3d6000fd5b505050506040513d601f19601f820116820180604052508101906160fe919061783e565b5061611367659810dea25d307f60c01b614cdf565b616127671da79ee0cd16d5f560c01b614cdf565b600460009054906101000a900473ffffffffffffffffffffffffffffffffffffffff1673ffffffffffffffffffffffffffffffffffffffff1663a9059cbb86836040518363ffffffff1660e01b8152600401616184929190618113565b602060405180830381600087803b15801561619e57600080fd5b505af11580156161b2573d6000803e3d6000fd5b505050506040513d601f19601f820116820180604052508101906161d6919061783e565b5050505b6161ee6794296601a25bb6c360c01b614cdf565b6000600e60008573ffffffffffffffffffffffffffffffffffffffff1673ffffffffffffffffffffffffffffffffffffffff16815260200190815260200160002081905550505061624f565b61624e6755cbfb244f67b13d60c01b614cdf565b5b50808061625b9061874f565b91505061537c565b50565b600060019050919050565b6162796175b3565b73ffffffffffffffffffffffffffffffffffffffff16616297613205565b73ffffffffffffffffffffffffffffffffffffffff16146162ed576040517f08c379a00000000000000000000000000000000000000000000000000000000081526004016162e4906182c8565b60405180910390fd5b565b60008060009054906101000a900473ffffffffffffffffffffffffffffffffffffffff169050816000806101000a81548173ffffffffffffffffffffffffffffffffffffffff021916908373ffffffffffffffffffffffffffffffffffffffff1602179055508173ffffffffffffffffffffffffffffffffffffffff168173ffffffffffffffffffffffffffffffffffffffff167f8be0079c531659141344cd1fd0a4f28419497f9722a3daafe3b4186f6b6457e060405160405180910390a35050565b60006163c9678ed9b7eef5e796ac60c01b614cdf565b6163dd67326d75688b57fb6f60c01b614cdf565b6163f1672d6a3300064fc20b60c01b614cdf565b61640567ed8dbce1b99f1cc460c01b614cdf565b600960009054906101000a900473ffffffffffffffffffffffffffffffffffffffff1673ffffffffffffffffffffffffffffffffffffffff1663929066f5336040518263ffffffff1660e01b81526004016164609190617fab565b60206040518083038186803b15801561647857600080fd5b505afa15801561648c573d6000803e3d6000fd5b505050506040513d601f19601f820116820180604052508101906164b0919061783e565b6164ef576040517f08c379a00000000000000000000000000000000000000000000000000000000081526004016164e690618388565b60405180910390fd5b61650367d4ce6a20a2e5523160c01b614cdf565b616517675d1844f54d41b79060c01b614cdf565b61652b67408ba167012edef760c01b614cdf565b600080616536611fba565b9150915061654e67ab1ab026c32501ac60c01b614cdf565b6165626724d532055cc6deaf60c01b614cdf565b60006002546165b683600460009054906101000a900473ffffffffffffffffffffffffffffffffffffffff16600560009054906101000a900473ffffffffffffffffffffffffffffffffffffffff16614709565b61660585600360009054906101000a900473ffffffffffffffffffffffffffffffffffffffff16600560009054906101000a900473ffffffffffffffffffffffffffffffffffffffff16614709565b61660f919061858c565b600e60003373ffffffffffffffffffffffffffffffffffffffff1673ffffffffffffffffffffffffffffffffffffffff16815260200190815260200160002054600c60003373ffffffffffffffffffffffffffffffffffffffff1673ffffffffffffffffffffffffffffffffffffffff16815260200190815260200160002054600d60003373ffffffffffffffffffffffffffffffffffffffff1673ffffffffffffffffffffffffffffffffffffffff168152602001908152602001600020546166d9919061858c565b6166e3919061866d565b6166ed9190618613565b6166f791906185e2565b905061670d677e6e4c2c205b7dca60c01b614cdf565b61672167b70969f2dc59395860c01b614cdf565b600061677286600460009054906101000a900473ffffffffffffffffffffffffffffffffffffffff16600560009054906101000a900473ffffffffffffffffffffffffffffffffffffffff16614709565b6167c188600360009054906101000a900473ffffffffffffffffffffffffffffffffffffffff16600560009054906101000a900473ffffffffffffffffffffffffffffffffffffffff16614709565b6167cb919061858c565b90506167e167fcce353efe3d375d60c01b614cdf565b6167f567de73c2c9b36048ea60c01b614cdf565b616809671f78f756db051a2160c01b614cdf565b6012548183616818919061858c565b1015616859576040517f08c379a000000000000000000000000000000000000000000000000000000000815260040161685090618348565b60405180910390fd5b61686d670ab50975f661ce1360c01b614cdf565b616881675d59a504f201e2f760c01b614cdf565b616895674e9b7cc0c7fa3db960c01b614cdf565b6168a9677d631dd947df374060c01b614cdf565b60135481836168b8919061858c565b11156168f9576040517f08c379a00000000000000000000000000000000000000000000000000000000081526004016168f090618308565b60405180910390fd5b61690d6778db419450350b9260c01b614cdf565b616921671155c5a2a6bc77fc60c01b614cdf565b61693567605087991cb9557260c01b614cdf565b6000600360009054906101000a900473ffffffffffffffffffffffffffffffffffffffff1673ffffffffffffffffffffffffffffffffffffffff166323b872dd33308b6040518463ffffffff1660e01b815260040161699693929190617fef565b602060405180830381600087803b1580156169b057600080fd5b505af11580156169c4573d6000803e3d6000fd5b505050506040513d601f19601f820116820180604052508101906169e8919061783e565b90506169fe67153d609d8e623c6f60c01b614cdf565b616a1267913e57524116abd360c01b614cdf565b616a2667bb5d9e879bcbec0160c01b614cdf565b80616a66576040517f08c379a0000000000000000000000000000000000000000000000000000000008152600401616a5d906183c8565b60405180910390fd5b616a7a6746beda754308d08b60c01b614cdf565b616a8e67595d15ad7642511a60c01b614cdf565b616aa267fba0331bbfde0f3060c01b614cdf565b6000616ab86728f0aad33eb6d4d860c01b614cdf565b616acc6764c80c0d10bfabfc60c01b614cdf565b600360009054906101000a900473ffffffffffffffffffffffffffffffffffffffff1673ffffffffffffffffffffffffffffffffffffffff1663095ea7b3600660009054906101000a900473ffffffffffffffffffffffffffffffffffffffff168b6040518363ffffffff1660e01b8152600401616b4b929190618113565b602060405180830381600087803b158015616b6557600080fd5b505af1158015616b79573d6000803e3d6000fd5b505050506040513d601f19601f82011682018060405250810190616b9d919061783e565b50616bb267e1a7f4c339524d1060c01b614cdf565b616bc6675acd9685d616122c60c01b614cdf565b601760009054906101000a900460ff1615616d2c57616bef67e9416b6d253cf13e60c01b614cdf565b616c03679f7fa24b902aeb0360c01b614cdf565b600660009054906101000a900473ffffffffffffffffffffffffffffffffffffffff1673ffffffffffffffffffffffffffffffffffffffff1663f305d71989600360009054906101000a900473ffffffffffffffffffffffffffffffffffffffff168c6126ac6127108f616c7791906185e2565b616c819190618613565b6126ac6127108f616c9291906185e2565b616c9c9190618613565b306104b042616cab919061858c565b6040518863ffffffff1660e01b8152600401616ccc9695949392919061813c565b6060604051808303818588803b158015616ce557600080fd5b505af1158015616cf9573d6000803e3d6000fd5b50505050506040513d601f19601f82011682018060405250810190616d1e91906179cf565b909150905080915050617148565b616d40671a2fd3606546e39360c01b614cdf565b616d5467424f645031786c2060c01b614cdf565b616d686771e231ce75db169160c01b614cdf565b616d7c67490bf7e57cd366db60c01b614cdf565b600460009054906101000a900473ffffffffffffffffffffffffffffffffffffffff1673ffffffffffffffffffffffffffffffffffffffff166323b872dd33308b6040518463ffffffff1660e01b8152600401616ddb93929190617fef565b602060405180830381600087803b158015616df557600080fd5b505af1158015616e09573d6000803e3d6000fd5b505050506040513d601f19601f82011682018060405250810190616e2d919061783e565b616e6c576040517f08c379a0000000000000000000000000000000000000000000000000000000008152600401616e63906183c8565b60405180910390fd5b616e8067b6d05d38d57c63b860c01b614cdf565b616e94672baac51fa64cb33360c01b614cdf565b616ea86721196236d213365360c01b614cdf565b600460009054906101000a900473ffffffffffffffffffffffffffffffffffffffff1673ffffffffffffffffffffffffffffffffffffffff1663095ea7b3600660009054906101000a900473ffffffffffffffffffffffffffffffffffffffff168a6040518363ffffffff1660e01b8152600401616f27929190618113565b602060405180830381600087803b158015616f4157600080fd5b505af1158015616f55573d6000803e3d6000fd5b505050506040513d601f19601f82011682018060405250810190616f79919061783e565b50616f8e6756197c58943e5d4360c01b614cdf565b616fa267e7de0e381ab87b9f60c01b614cdf565b60006126ac6127108b616fb591906185e2565b616fbf9190618613565b9050616fd567462b8c3f2364a8f460c01b614cdf565b616fe967e793e8875d158c6060c01b614cdf565b60006126ac6127108b616ffc91906185e2565b6170069190618613565b905061701c671c79d6311da5ab4360c01b614cdf565b61703067d175a6d7e01533ea60c01b614cdf565b600660009054906101000a900473ffffffffffffffffffffffffffffffffffffffff1673ffffffffffffffffffffffffffffffffffffffff1663e8e33700600360009054906101000a900473ffffffffffffffffffffffffffffffffffffffff16600460009054906101000a900473ffffffffffffffffffffffffffffffffffffffff168e8e8787306104b0426170c7919061858c565b6040518963ffffffff1660e01b81526004016170ea989796959493929190618095565b606060405180830381600087803b15801561710457600080fd5b505af1158015617118573d6000803e3d6000fd5b505050506040513d601f19601f8201168201806040525081019061713c91906179cf565b90915090508093505050505b61715c67f84e5739faf5fa1960c01b614cdf565b61717067cd80182d904ab6f460c01b614cdf565b600860009054906101000a900473ffffffffffffffffffffffffffffffffffffffff1673ffffffffffffffffffffffffffffffffffffffff1663095ea7b3600760009054906101000a900473ffffffffffffffffffffffffffffffffffffffff16836040518363ffffffff1660e01b81526004016171ef929190618113565b602060405180830381600087803b15801561720957600080fd5b505af115801561721d573d6000803e3d6000fd5b505050506040513d601f19601f82011682018060405250810190617241919061783e565b50617256678f23187708f9abe060c01b614cdf565b61726a6795cb055776620fa960c01b614cdf565b600760009054906101000a900473ffffffffffffffffffffffffffffffffffffffff1673ffffffffffffffffffffffffffffffffffffffff1663e2bbb158600a54836040518363ffffffff1660e01b81526004016172c9929190618485565b600060405180830381600087803b1580156172e357600080fd5b505af11580156172f7573d6000803e3d6000fd5b5050505061730f677867f51f2aa2bbd660c01b614cdf565b80600c60003373ffffffffffffffffffffffffffffffffffffffff1673ffffffffffffffffffffffffffffffffffffffff168152602001908152602001600020600082825461735e919061858c565b9250508190555061737967a36c4e633563e31f60c01b614cdf565b61738d675f180725f375724d60c01b614cdf565b6173963361322e565b617515576173ae67c2a167f8f6fae66760c01b614cdf565b6173c26707486ffdf111c8c860c01b614cdf565b6001601160003373ffffffffffffffffffffffffffffffffffffffff1673ffffffffffffffffffffffffffffffffffffffff16815260200190815260200160002060006101000a81548160ff02191690831515021790555061742e67ab07c967bd0a94b260c01b614cdf565b61744267549a5d4928fe1e9060c01b614cdf565b6010339080600181540180825580915050600190039060005260206000200160009091909190916101000a81548173ffffffffffffffffffffffffffffffffffffffff021916908373ffffffffffffffffffffffffffffffffffffffff1602179055506174b96723af503348b132f060c01b614cdf565b6174cd67cc69609a9fc50d9560c01b614cdf565b3373ffffffffffffffffffffffffffffffffffffffff167f79229b212fa3ea547fb5e5b66090cf250d442b12a51854a030f3b796d528134e60405160405180910390a261752a565b61752967e383e48295c655f860c01b614cdf565b5b61753e6779df99a9b84866e560c01b614cdf565b617552674f54cece36f8fde360c01b614cdf565b6001965050505050505092915050565b50565b600061757b67df41d44cce5700a060c01b617562565b61758f6781fd5149c9b05b9760c01b617562565b6175a367ac87503532bb5b3060c01b617562565b6175ac826175bb565b9050919050565b600033905090565b60006175d167c69ad0eb53599f4960c01b617562565b6175e56717d0753cd70913d460c01b617562565b6175f967315f94f6c942291060c01b617562565b81423360405160200161760d929190617f7f565b6040516020818303038152906040528051906020012060001c61763091906187c6565b9050919050565b600061764a61764584618516565b6184e5565b9050808382526020820190508285602086028201111561766957600080fd5b60005b85811015617699578161767f8882617721565b84526020840193506020830192505060018101905061766c565b5050509392505050565b6000813590506176b281618891565b92915050565b600082601f8301126176c957600080fd5b81516176d9848260208601617637565b91505092915050565b6000815190506176f1816188a8565b92915050565b600081519050617706816188bf565b92915050565b60008135905061771b816188d6565b92915050565b600081519050617730816188d6565b92915050565b600081519050617745816188ed565b92915050565b60006020828403121561775d57600080fd5b600061776b848285016176a3565b91505092915050565b60008060008060008060c0878903121561778d57600080fd5b600061779b89828a016176a3565b96505060206177ac89828a016176a3565b95505060406177bd89828a016176a3565b94505060606177ce89828a016176a3565b93505060806177df89828a016176a3565b92505060a06177f089828a016176a3565b9150509295509295509295565b60006020828403121561780f57600080fd5b600082015167ffffffffffffffff81111561782957600080fd5b617835848285016176b8565b91505092915050565b60006020828403121561785057600080fd5b600061785e848285016176e2565b91505092915050565b60008060006060848603121561787c57600080fd5b600061788a868287016176f7565b935050602061789b868287016176f7565b92505060406178ac86828701617736565b9150509250925092565b6000602082840312156178c857600080fd5b60006178d68482850161770c565b91505092915050565b6000602082840312156178f157600080fd5b60006178ff84828501617721565b91505092915050565b60008060006060848603121561791d57600080fd5b600061792b8682870161770c565b935050602061793c868287016176a3565b925050604061794d868287016176a3565b9150509250925092565b6000806040838503121561796a57600080fd5b60006179788582860161770c565b92505060206179898582860161770c565b9150509250929050565b600080604083850312156179a657600080fd5b60006179b485828601617721565b92505060206179c585828601617721565b9150509250929050565b6000806000606084860312156179e457600080fd5b60006179f286828701617721565b9350506020617a0386828701617721565b9250506040617a1486828701617721565b9150509250925092565b6000617a2a8383617a36565b60208301905092915050565b617a3f816186a1565b82525050565b617a4e816186a1565b82525050565b617a65617a60826186a1565b618798565b82525050565b6000617a7682618552565b617a80818561856a565b9350617a8b83618542565b8060005b83811015617abc578151617aa38882617a1e565b9750617aae8361855d565b925050600181019050617a8f565b5085935050505092915050565b617ad2816186b3565b82525050565b617ae181618713565b82525050565b6000617af4601c8361857b565b91507f4e6f7420656e6f7567687420616c6c6f77616e636520546f6b656e31000000006000830152602082019050919050565b6000617b34602e8361857b565b91507f66656550657263656e742063616e206e6f74206265206772656174207468616e60008301527f206d617846656550657263656e740000000000000000000000000000000000006020830152604082019050919050565b6000617b9a60268361857b565b91507f4f776e61626c653a206e6577206f776e657220697320746865207a65726f206160008301527f64647265737300000000000000000000000000000000000000000000000000006020830152604082019050919050565b6000617c00601d8361857b565b91507f6d73672e76616c756520616e6420616d6f756e74206d69736d617463680000006000830152602082019050919050565b6000617c4060128361857b565b91507f4e6f7420656e6f7567687420546f6b656e3000000000000000000000000000006000830152602082019050919050565b6000617c8060228361857b565b91507f43616c6c6572206973206e6f742062656e6566696369617279206f72206f776e60008301527f65720000000000000000000000000000000000000000000000000000000000006020830152604082019050919050565b6000617ce660158361857b565b91507f4e6f7420656e6f75676874206c697175696469747900000000000000000000006000830152602082019050919050565b6000617d2660208361857b565b91507f4f776e61626c653a2063616c6c6572206973206e6f7420746865206f776e65726000830152602082019050919050565b6000617d66600f8361857b565b91507f52657761726420697320656d70747900000000000000000000000000000000006000830152602082019050919050565b6000617da6601f8361857b565b91507f546f74616c2062616c616e6365206772656174207468616e206d6178555344006000830152602082019050919050565b6000617de6601c8361857b565b91507f4e6f7420656e6f7567687420616c6c6f77616e636520546f6b656e30000000006000830152602082019050919050565b6000617e26601e8361857b565b91507f546f74616c2062616c616e6365206c657373207468616e206d696e55534400006000830152602082019050919050565b6000617e6660128361857b565b91507f4e6f7420656e6f7567687420546f6b656e3100000000000000000000000000006000830152602082019050919050565b6000617ea660118361857b565b91507f4e6f742061205061727469636970616e740000000000000000000000000000006000830152602082019050919050565b6000617ee6600e8361857b565b91507f5472616e73666572206661696c640000000000000000000000000000000000006000830152602082019050919050565b6000617f2660128361857b565b91507f7472616e73666572206973206661696c656400000000000000000000000000006000830152602082019050919050565b617f62816186f9565b82525050565b617f79617f74826186f9565b6187bc565b82525050565b6000617f8b8285617f68565b602082019150617f9b8284617a54565b6014820191508190509392505050565b6000602082019050617fc06000830184617a45565b92915050565b6000604082019050617fdb6000830185617a45565b617fe86020830184617a45565b9392505050565b60006060820190506180046000830186617a45565b6180116020830185617a45565b61801e6040830184617f59565b949350505050565b600060e08201905061803b600083018a617a45565b6180486020830189617a45565b6180556040830188617f59565b6180626060830187617f59565b61806f6080830186617f59565b61807c60a0830185617a45565b61808960c0830184617f59565b98975050505050505050565b6000610100820190506180ab600083018b617a45565b6180b8602083018a617a45565b6180c56040830189617f59565b6180d26060830188617f59565b6180df6080830187617f59565b6180ec60a0830186617f59565b6180f960c0830185617a45565b61810660e0830184617f59565b9998505050505050505050565b60006040820190506181286000830185617a45565b6181356020830184617f59565b9392505050565b600060c0820190506181516000830189617a45565b61815e6020830188617f59565b61816b6040830187617f59565b6181786060830186617f59565b6181856080830185617a45565b61819260a0830184617f59565b979650505050505050565b600060408201905081810360008301526181b78185617a6b565b90506181c66020830184617f59565b9392505050565b60006020820190506181e26000830184617ac9565b92915050565b6000602082019050818103600083015261820181617ae7565b9050919050565b6000602082019050818103600083015261822181617b27565b9050919050565b6000602082019050818103600083015261824181617b8d565b9050919050565b6000602082019050818103600083015261826181617bf3565b9050919050565b6000602082019050818103600083015261828181617c33565b9050919050565b600060208201905081810360008301526182a181617c73565b9050919050565b600060208201905081810360008301526182c181617cd9565b9050919050565b600060208201905081810360008301526182e181617d19565b9050919050565b6000602082019050818103600083015261830181617d59565b9050919050565b6000602082019050818103600083015261832181617d99565b9050919050565b6000602082019050818103600083015261834181617dd9565b9050919050565b6000602082019050818103600083015261836181617e19565b9050919050565b6000602082019050818103600083015261838181617e59565b9050919050565b600060208201905081810360008301526183a181617e99565b9050919050565b600060208201905081810360008301526183c181617ed9565b9050919050565b600060208201905081810360008301526183e181617f19565b9050919050565b60006020820190506183fd6000830184617f59565b92915050565b60006040820190506184186000830185617f59565b6184256020830184617a45565b9392505050565b60006040820190506184416000830185617f59565b81810360208301526184538184617a6b565b90509392505050565b60006040820190506184716000830185617f59565b61847e6020830184617ad8565b9392505050565b600060408201905061849a6000830185617f59565b6184a76020830184617f59565b9392505050565b60006060820190506184c36000830186617f59565b6184d06020830185617f59565b6184dd6040830184617f59565b949350505050565b6000604051905081810181811067ffffffffffffffff8211171561850c5761850b618855565b5b8060405250919050565b600067ffffffffffffffff82111561853157618530618855565b5b602082029050602081019050919050565b6000819050602082019050919050565b600081519050919050565b6000602082019050919050565b600082825260208201905092915050565b600082825260208201905092915050565b6000618597826186f9565b91506185a2836186f9565b9250827fffffffffffffffffffffffffffffffffffffffffffffffffffffffffffffffff038211156185d7576185d66187f7565b5b828201905092915050565b60006185ed826186f9565b91506185f8836186f9565b92508261860857618607618826565b5b828204905092915050565b600061861e826186f9565b9150618629836186f9565b9250817fffffffffffffffffffffffffffffffffffffffffffffffffffffffffffffffff0483118215151615618662576186616187f7565b5b828202905092915050565b6000618678826186f9565b9150618683836186f9565b925082821015618696576186956187f7565b5b828203905092915050565b60006186ac826186d9565b9050919050565b60008115159050919050565b60006dffffffffffffffffffffffffffff82169050919050565b600073ffffffffffffffffffffffffffffffffffffffff82169050919050565b6000819050919050565b600063ffffffff82169050919050565b600061871e826186f9565b9050919050565b6000618730826186f9565b91506000821415618744576187436187f7565b5b600182039050919050565b600061875a826186f9565b91507fffffffffffffffffffffffffffffffffffffffffffffffffffffffffffffffff82141561878d5761878c6187f7565b5b600182019050919050565b60006187a3826187aa565b9050919050565b60006187b582618884565b9050919050565b6000819050919050565b60006187d1826186f9565b91506187dc836186f9565b9250826187ec576187eb618826565b5b828206905092915050565b7f4e487b7100000000000000000000000000000000000000000000000000000000600052601160045260246000fd5b7f4e487b7100000000000000000000000000000000000000000000000000000000600052601260045260246000fd5b7f4e487b7100000000000000000000000000000000000000000000000000000000600052604160045260246000fd5b60008160601b9050919050565b61889a816186a1565b81146188a557600080fd5b50565b6188b1816186b3565b81146188bc57600080fd5b50565b6188c8816186bf565b81146188d357600080fd5b50565b6188df816186f9565b81146188ea57600080fd5b50565b6188f681618703565b811461890157600080fd5b5056fea26469706673582212200fa08e438098cbafc0d8c63d46c543f1bcb9b4246c2c725e48add34ba583d5f164736f6c63430008000033a26469706673582212208351826671999efb4a6ed853b61332f83f277748c1d8c0daefa5ca1acde601bb64736f6c63430008000033",
  "linkReferences": {},
  "deployedLinkReferences": {}
}