{
  "_format": "hh-sol-artifact-1",
  "contractName": "Quoter",
  "sourceName": "contracts/periphery/lens/Quoter.sol",
  "abi": [
    {
      "inputs": [
        {
          "internalType": "address",
          "name": "_factory",
          "type": "address"
        },
        {
          "internalType": "address",
          "name": "_WETH9",
          "type": "address"
        }
      ],
      "stateMutability": "nonpayable",
      "type": "constructor"
    },
    {
      "inputs": [],
      "name": "WETH9",
      "outputs": [
        {
          "internalType": "address",
          "name": "",
          "type": "address"
        }
      ],
      "stateMutability": "view",
      "type": "function"
    },
    {
      "inputs": [],
      "name": "factory",
      "outputs": [
        {
          "internalType": "address",
          "name": "",
          "type": "address"
        }
      ],
      "stateMutability": "view",
      "type": "function"
    },
    {
      "inputs": [
        {
          "internalType": "bytes",
          "name": "path",
          "type": "bytes"
        },
        {
          "internalType": "uint256",
          "name": "amountIn",
          "type": "uint256"
        }
      ],
      "name": "quoteExactInput",
      "outputs": [
        {
          "internalType": "uint256",
          "name": "amountOut",
          "type": "uint256"
        }
      ],
      "stateMutability": "nonpayable",
      "type": "function"
    },
    {
      "inputs": [
        {
          "internalType": "address",
          "name": "tokenIn",
          "type": "address"
        },
        {
          "internalType": "address",
          "name": "tokenOut",
          "type": "address"
        },
        {
          "internalType": "uint24",
          "name": "fee",
          "type": "uint24"
        },
        {
          "internalType": "uint256",
          "name": "amountIn",
          "type": "uint256"
        },
        {
          "internalType": "uint160",
          "name": "sqrtPriceLimitX96",
          "type": "uint160"
        }
      ],
      "name": "quoteExactInputSingle",
      "outputs": [
        {
          "internalType": "uint256",
          "name": "amountOut",
          "type": "uint256"
        }
      ],
      "stateMutability": "nonpayable",
      "type": "function"
    },
    {
      "inputs": [
        {
          "internalType": "bytes",
          "name": "path",
          "type": "bytes"
        },
        {
          "internalType": "uint256",
          "name": "amountOut",
          "type": "uint256"
        }
      ],
      "name": "quoteExactOutput",
      "outputs": [
        {
          "internalType": "uint256",
          "name": "amountIn",
          "type": "uint256"
        }
      ],
      "stateMutability": "nonpayable",
      "type": "function"
    },
    {
      "inputs": [
        {
          "internalType": "address",
          "name": "tokenIn",
          "type": "address"
        },
        {
          "internalType": "address",
          "name": "tokenOut",
          "type": "address"
        },
        {
          "internalType": "uint24",
          "name": "fee",
          "type": "uint24"
        },
        {
          "internalType": "uint256",
          "name": "amountOut",
          "type": "uint256"
        },
        {
          "internalType": "uint160",
          "name": "sqrtPriceLimitX96",
          "type": "uint160"
        }
      ],
      "name": "quoteExactOutputSingle",
      "outputs": [
        {
          "internalType": "uint256",
          "name": "amountIn",
          "type": "uint256"
        }
      ],
      "stateMutability": "nonpayable",
      "type": "function"
    },
    {
      "inputs": [
        {
          "internalType": "int256",
          "name": "amount0Delta",
          "type": "int256"
        },
        {
          "internalType": "int256",
          "name": "amount1Delta",
          "type": "int256"
        },
        {
          "internalType": "bytes",
          "name": "path",
          "type": "bytes"
        }
      ],
      "name": "uniswapV3SwapCallback",
      "outputs": [],
      "stateMutability": "view",
      "type": "function"
    }
  ],
  "bytecode": "0x60c060405234801561001057600080fd5b50604051610f08380380610f0883398101604081905261002f91610069565b6001600160601b0319606092831b8116608052911b1660a05261009b565b80516001600160a01b038116811461006457600080fd5b919050565b6000806040838503121561007b578182fd5b6100848361004d565b91506100926020840161004d565b90509250929050565b60805160601c60a05160601c610e3f6100c9600039806102f052508061031452806105385250610e3f6000f3fe608060405234801561001057600080fd5b506004361061007d5760003560e01c8063c45a01551161005b578063c45a0155146100d3578063cdca1753146100db578063f7729d43146100ee578063fa461e33146101015761007d565b80632f80bb1d1461008257806330d07f21146100ab5780634aa4a4fc146100be575b600080fd5b610095610090366004610b00565b610116565b6040516100a29190610d72565b60405180910390f35b6100956100b9366004610a92565b61017b565b6100c66102ee565b6040516100a29190610cc8565b6100c6610312565b6100956100e9366004610b00565b610336565b6100956100fc366004610a92565b610384565b61011461010f366004610b66565b6104be565b005b60005b6000610124846104c3565b90506000806000610134876104cb565b92509250925061014882848389600061017b565b9550831561016057610159876104fc565b965061016c565b85945050505050610175565b50505050610119565b92915050565b60006001600160a01b03808616878216109083166101995760008490555b6101a4878787610531565b6001600160a01b031663128acb0830836101bd8861056f565b6000036001600160a01b038816156101d557876101fb565b856101f45773fffd8963efd1fc6a506488495d951d5263988d256101fb565b6401000276a45b8b8b8e60405160200161021093929190610c62565b6040516020818303038152906040526040518663ffffffff1660e01b815260040161023f959493929190610cdc565b6040805180830381600087803b15801561025857600080fd5b505af1925050508015610288575060408051601f3d908101601f1916820190925261028591810190610b43565b60015b6102e1573d8080156102b6576040519150601f19603f3d011682016040523d82523d6000602084013e6102bb565b606091505b506001600160a01b0384166102cf57600080555b6102d8816105a1565b925050506102e5565b5050505b95945050505050565b7f000000000000000000000000000000000000000000000000000000000000000081565b7f000000000000000000000000000000000000000000000000000000000000000081565b60005b6000610344846104c3565b90506000806000610354876104cb565b925092509250610368838383896000610384565b9550831561016057610379876104fc565b965050505050610339565b60006001600160a01b03808616908716106103a0878787610531565b6001600160a01b031663128acb0830836103b98861056f565b6001600160a01b038816156103ce57876103f4565b856103ed5773fffd8963efd1fc6a506488495d951d5263988d256103f4565b6401000276a45b8c8b8d60405160200161040993929190610c62565b6040516020818303038152906040526040518663ffffffff1660e01b8152600401610438959493929190610cdc565b6040805180830381600087803b15801561045157600080fd5b505af1925050508015610481575060408051601f3d908101601f1916820190925261047e91810190610b43565b60015b6102e1573d8080156104af576040519150601f19603f3d011682016040523d82523d6000602084013e6104b4565b606091505b506102d8816105a1565b505050565b516042111590565b600080806104d98482610618565b92506104e68460146106e4565b90506104f3846017610618565b91509193909250565b80516060906101759083906017907fffffffffffffffffffffffffffffffffffffffffffffffffffffffffffffffe9016107a0565b60006105677f000000000000000000000000000000000000000000000000000000000000000061056286868661091b565b610971565b949350505050565b60007f8000000000000000000000000000000000000000000000000000000000000000821061059d57600080fd5b5090565b60008151602014610604576044825110156105d75760405162461bcd60e51b81526004016105ce90610d3b565b60405180910390fd5b818060200190518101906105eb9190610bb4565b60405162461bcd60e51b81526004016105ce9190610d21565b818060200190518101906101759190610c1e565b600081826014011015610672576040805162461bcd60e51b815260206004820152601260248201527f746f416464726573735f6f766572666c6f770000000000000000000000000000604482015290519081900360640190fd5b81601401835110156106cb576040805162461bcd60e51b815260206004820152601560248201527f746f416464726573735f6f75744f66426f756e64730000000000000000000000604482015290519081900360640190fd5b5001602001516c01000000000000000000000000900490565b60008182600301101561073e576040805162461bcd60e51b815260206004820152601160248201527f746f55696e7432345f6f766572666c6f77000000000000000000000000000000604482015290519081900360640190fd5b8160030183511015610797576040805162461bcd60e51b815260206004820152601460248201527f746f55696e7432345f6f75744f66426f756e6473000000000000000000000000604482015290519081900360640190fd5b50016003015190565b60608182601f0110156107fa576040805162461bcd60e51b815260206004820152600e60248201527f736c6963655f6f766572666c6f77000000000000000000000000000000000000604482015290519081900360640190fd5b828284011015610851576040805162461bcd60e51b815260206004820152600e60248201527f736c6963655f6f766572666c6f77000000000000000000000000000000000000604482015290519081900360640190fd5b818301845110156108a9576040805162461bcd60e51b815260206004820152601160248201527f736c6963655f6f75744f66426f756e6473000000000000000000000000000000604482015290519081900360640190fd5b6060821580156108c85760405191506000825260208201604052610912565b6040519150601f8416801560200281840101858101878315602002848b0101015b818310156109015780518352602092830192016108e9565b5050858452601f01601f1916604052505b50949350505050565b610923610a21565b826001600160a01b0316846001600160a01b03161115610941579192915b50604080516060810182526001600160a01b03948516815292909316602083015262ffffff169181019190915290565b805160208083015160408085015181517f1698ee820000000000000000000000000000000000000000000000000000000081526001600160a01b039586166004820152928516602484015262ffffff16604483015251600093861692631698ee829260648082019391829003018186803b1580156109ee57600080fd5b505afa158015610a02573d6000803e3d6000fd5b505050506040513d6020811015610a1857600080fd5b50519392505050565b604080516060810182526000808252602082018190529181019190915290565b600082601f830112610a51578081fd5b8135610a64610a5f82610d9f565b610d7b565b818152846020838601011115610a78578283fd5b816020850160208301379081016020019190915292915050565b600080600080600060a08688031215610aa9578081fd5b8535610ab481610df1565b94506020860135610ac481610df1565b9350604086013562ffffff81168114610adb578182fd5b9250606086013591506080860135610af281610df1565b809150509295509295909350565b60008060408385031215610b12578182fd5b823567ffffffffffffffff811115610b28578283fd5b610b3485828601610a41565b95602094909401359450505050565b60008060408385031215610b55578182fd5b505080516020909101519092909150565b600080600060608486031215610b7a578283fd5b8335925060208401359150604084013567ffffffffffffffff811115610b9e578182fd5b610baa86828701610a41565b9150509250925092565b600060208284031215610bc5578081fd5b815167ffffffffffffffff811115610bdb578182fd5b8201601f81018413610beb578182fd5b8051610bf9610a5f82610d9f565b818152856020838501011115610c0d578384fd5b6102e5826020830160208601610dc1565b600060208284031215610c2f578081fd5b5051919050565b60008151808452610c4e816020860160208601610dc1565b601f01601f19169290920160200192915050565b606093841b7fffffffffffffffffffffffffffffffffffffffff000000000000000000000000908116825260e89390931b7fffffff0000000000000000000000000000000000000000000000000000000000166014820152921b166017820152602b0190565b6001600160a01b0391909116815260200190565b60006001600160a01b038088168352861515602084015285604084015280851660608401525060a06080830152610d1660a0830184610c36565b979650505050505050565b600060208252610d346020830184610c36565b9392505050565b60208082526010908201527f556e6578706563746564206572726f7200000000000000000000000000000000604082015260600190565b90815260200190565b60405181810167ffffffffffffffff81118282101715610d9757fe5b604052919050565b600067ffffffffffffffff821115610db357fe5b50601f01601f191660200190565b60005b83811015610ddc578181015183820152602001610dc4565b83811115610deb576000848401525b50505050565b6001600160a01b0381168114610e0657600080fd5b5056fea2646970667358221220d932917027fd10bc84968970baae0616d99e4a81a272dd7b21bf7d2f6cdea13064736f6c63430007060033",
  "linkReferences": {},
  "deployedLinkReferences": {}
}