{
  "_format": "hh-sol-artifact-1",
  "contractName": "PancakePair",
  "sourceName": "contracts/pancekeswap-fork/pancakepair.sol",
  "abi": [
    {
      "inputs": [],
      "stateMutability": "nonpayable",
      "type": "constructor"
    },
    {
      "inputs": [],
      "name": "DOMAIN_SEPARATOR",
      "outputs": [
        {
          "internalType": "bytes32",
          "name": "",
          "type": "bytes32"
        }
      ],
      "stateMutability": "view",
      "type": "function"
    },
    {
      "inputs": [],
      "name": "MINIMUM_LIQUIDITY",
      "outputs": [
        {
          "internalType": "uint256",
          "name": "",
          "type": "uint256"
        }
      ],
      "stateMutability": "view",
      "type": "function"
    },
    {
      "inputs": [
        {
          "internalType": "address",
          "name": "",
          "type": "address"
        },
        {
          "internalType": "address",
          "name": "",
          "type": "address"
        }
      ],
      "name": "allowance",
      "outputs": [
        {
          "internalType": "uint256",
          "name": "",
          "type": "uint256"
        }
      ],
      "stateMutability": "view",
      "type": "function"
    },
    {
      "inputs": [
        {
          "internalType": "address",
          "name": "spender",
          "type": "address"
        },
        {
          "internalType": "uint256",
          "name": "value",
          "type": "uint256"
        }
      ],
      "name": "approve",
      "outputs": [
        {
          "internalType": "bool",
          "name": "",
          "type": "bool"
        }
      ],
      "stateMutability": "nonpayable",
      "type": "function"
    },
    {
      "inputs": [
        {
          "internalType": "address",
          "name": "",
          "type": "address"
        }
      ],
      "name": "balanceOf",
      "outputs": [
        {
          "internalType": "uint256",
          "name": "",
          "type": "uint256"
        }
      ],
      "stateMutability": "view",
      "type": "function"
    },
    {
      "inputs": [
        {
          "internalType": "address",
          "name": "to",
          "type": "address"
        }
      ],
      "name": "burn",
      "outputs": [
        {
          "internalType": "uint256",
          "name": "amount0",
          "type": "uint256"
        },
        {
          "internalType": "uint256",
          "name": "amount1",
          "type": "uint256"
        }
      ],
      "stateMutability": "nonpayable",
      "type": "function"
    },
    {
      "inputs": [],
      "name": "decimals",
      "outputs": [
        {
          "internalType": "uint8",
          "name": "",
          "type": "uint8"
        }
      ],
      "stateMutability": "view",
      "type": "function"
    },
    {
      "inputs": [],
      "name": "factory",
      "outputs": [
        {
          "internalType": "address",
          "name": "",
          "type": "address"
        }
      ],
      "stateMutability": "view",
      "type": "function"
    },
    {
      "inputs": [],
      "name": "getReserves",
      "outputs": [
        {
          "internalType": "uint112",
          "name": "_reserve0",
          "type": "uint112"
        },
        {
          "internalType": "uint112",
          "name": "_reserve1",
          "type": "uint112"
        },
        {
          "internalType": "uint32",
          "name": "_blockTimestampLast",
          "type": "uint32"
        }
      ],
      "stateMutability": "view",
      "type": "function"
    },
    {
      "inputs": [
        {
          "internalType": "address",
          "name": "_token0",
          "type": "address"
        },
        {
          "internalType": "address",
          "name": "_token1",
          "type": "address"
        },
        {
          "internalType": "bool",
          "name": "_isEthPair",
          "type": "bool"
        }
      ],
      "name": "initialize",
      "outputs": [],
      "stateMutability": "nonpayable",
      "type": "function"
    },
    {
      "inputs": [],
      "name": "kLast",
      "outputs": [
        {
          "internalType": "uint256",
          "name": "",
          "type": "uint256"
        }
      ],
      "stateMutability": "view",
      "type": "function"
    },
    {
      "inputs": [
        {
          "internalType": "address",
          "name": "to",
          "type": "address"
        }
      ],
      "name": "mint",
      "outputs": [
        {
          "internalType": "uint256",
          "name": "liquidity",
          "type": "uint256"
        }
      ],
      "stateMutability": "nonpayable",
      "type": "function"
    },
    {
      "inputs": [],
      "name": "name",
      "outputs": [
        {
          "internalType": "string",
          "name": "",
          "type": "string"
        }
      ],
      "stateMutability": "view",
      "type": "function"
    },
    {
      "inputs": [
        {
          "internalType": "address",
          "name": "",
          "type": "address"
        }
      ],
      "name": "nonces",
      "outputs": [
        {
          "internalType": "uint256",
          "name": "",
          "type": "uint256"
        }
      ],
      "stateMutability": "view",
      "type": "function"
    },
    {
      "inputs": [
        {
          "internalType": "address",
          "name": "owner",
          "type": "address"
        },
        {
          "internalType": "address",
          "name": "spender",
          "type": "address"
        },
        {
          "internalType": "uint256",
          "name": "value",
          "type": "uint256"
        },
        {
          "internalType": "uint256",
          "name": "deadline",
          "type": "uint256"
        },
        {
          "internalType": "uint8",
          "name": "v",
          "type": "uint8"
        },
        {
          "internalType": "bytes32",
          "name": "r",
          "type": "bytes32"
        },
        {
          "internalType": "bytes32",
          "name": "s",
          "type": "bytes32"
        }
      ],
      "name": "permit",
      "outputs": [],
      "stateMutability": "nonpayable",
      "type": "function"
    },
    {
      "inputs": [],
      "name": "price0CumulativeLast",
      "outputs": [
        {
          "internalType": "uint256",
          "name": "",
          "type": "uint256"
        }
      ],
      "stateMutability": "view",
      "type": "function"
    },
    {
      "inputs": [],
      "name": "price1CumulativeLast",
      "outputs": [
        {
          "internalType": "uint256",
          "name": "",
          "type": "uint256"
        }
      ],
      "stateMutability": "view",
      "type": "function"
    },
    {
      "inputs": [
        {
          "internalType": "address",
          "name": "to",
          "type": "address"
        }
      ],
      "name": "skim",
      "outputs": [],
      "stateMutability": "nonpayable",
      "type": "function"
    },
    {
      "inputs": [
        {
          "internalType": "uint256",
          "name": "amount0Out",
          "type": "uint256"
        },
        {
          "internalType": "uint256",
          "name": "amount1Out",
          "type": "uint256"
        },
        {
          "internalType": "address",
          "name": "to",
          "type": "address"
        },
        {
          "internalType": "bytes",
          "name": "data",
          "type": "bytes"
        }
      ],
      "name": "swap",
      "outputs": [],
      "stateMutability": "nonpayable",
      "type": "function"
    },
    {
      "inputs": [],
      "name": "symbol",
      "outputs": [
        {
          "internalType": "string",
          "name": "",
          "type": "string"
        }
      ],
      "stateMutability": "view",
      "type": "function"
    },
    {
      "inputs": [],
      "name": "sync",
      "outputs": [],
      "stateMutability": "nonpayable",
      "type": "function"
    },
    {
      "inputs": [],
      "name": "token0",
      "outputs": [
        {
          "internalType": "address",
          "name": "",
          "type": "address"
        }
      ],
      "stateMutability": "view",
      "type": "function"
    },
    {
      "inputs": [],
      "name": "token1",
      "outputs": [
        {
          "internalType": "address",
          "name": "",
          "type": "address"
        }
      ],
      "stateMutability": "view",
      "type": "function"
    },
    {
      "inputs": [],
      "name": "totalSupply",
      "outputs": [
        {
          "internalType": "uint256",
          "name": "",
          "type": "uint256"
        }
      ],
      "stateMutability": "view",
      "type": "function"
    },
    {
      "inputs": [
        {
          "internalType": "address",
          "name": "to",
          "type": "address"
        },
        {
          "internalType": "uint256",
          "name": "value",
          "type": "uint256"
        }
      ],
      "name": "transfer",
      "outputs": [
        {
          "internalType": "bool",
          "name": "",
          "type": "bool"
        }
      ],
      "stateMutability": "nonpayable",
      "type": "function"
    },
    {
      "inputs": [
        {
          "internalType": "address",
          "name": "from",
          "type": "address"
        },
        {
          "internalType": "address",
          "name": "to",
          "type": "address"
        },
        {
          "internalType": "uint256",
          "name": "value",
          "type": "uint256"
        }
      ],
      "name": "transferFrom",
      "outputs": [
        {
          "internalType": "bool",
          "name": "",
          "type": "bool"
        }
      ],
      "stateMutability": "nonpayable",
      "type": "function"
    }
  ],
  "bytecode": "0x60806040526001600c556402540be400600e553480156200001f57600080fd5b5060004690507f8b73c3c69bb8fe3d512ecc4cf759cc79239f7b179b0ffacaa9a75d522b39400f6040518060400160405280600b81526020017f50616e63616b65204c5073000000000000000000000000000000000000000000815250805190602001206040518060400160405280600181526020017f3100000000000000000000000000000000000000000000000000000000000000815250805190602001208330604051602001620000d89594939291906200016f565b604051602081830303815290604052805190602001206003819055505033600560006101000a81548173ffffffffffffffffffffffffffffffffffffffff021916908373ffffffffffffffffffffffffffffffffffffffff16021790555062000214565b6200014781620001cc565b82525050565b6200015881620001e0565b82525050565b62000169816200020a565b82525050565b600060a0820190506200018660008301886200014d565b6200019560208301876200014d565b620001a460408301866200014d565b620001b360608301856200015e565b620001c260808301846200013c565b9695505050505050565b6000620001d982620001ea565b9050919050565b6000819050919050565b600073ffffffffffffffffffffffffffffffffffffffff82169050919050565b6000819050919050565b6135ba80620002246000396000f3fe608060405234801561001057600080fd5b506004361061018e5760003560e01c80637464fc3d116100de578063bc25cf7711610097578063d505accf11610071578063d505accf146104a4578063dd62ed3e146104c0578063e4bbb5a8146104f0578063fff6cae91461050c5761018e565b8063bc25cf771461044c578063c45a015514610468578063d21220a7146104865761018e565b80637464fc3d146103615780637ecebe001461037f57806389afcb44146103af57806395d89b41146103e0578063a9059cbb146103fe578063ba9a7a561461042e5761018e565b806323b872dd1161014b5780635909c0d5116101255780635909c0d5146102c55780635a3d5493146102e35780636a6278421461030157806370a08231146103315761018e565b806323b872dd14610259578063313ce567146102895780633644e515146102a75761018e565b8063022c0d9f1461019357806306fdde03146101af5780630902f1ac146101cd578063095ea7b3146101ed5780630dfe16811461021d57806318160ddd1461023b575b600080fd5b6101ad60048036038101906101a89190612976565b610516565b005b6101b7610b1b565b6040516101c49190612d0e565b60405180910390f35b6101d5610b54565b6040516101e493929190612e90565b60405180910390f35b610207600480360381019061020291906128e8565b610bb1565b6040516102149190612cd8565b60405180910390f35b610225610bc8565b6040516102329190612c46565b60405180910390f35b610243610bee565b6040516102509190612ec7565b60405180910390f35b610273600480360381019061026e91906127fb565b610bf4565b6040516102809190612cd8565b60405180910390f35b610291610dbf565b60405161029e9190612f0b565b60405180910390f35b6102af610dc4565b6040516102bc9190612cf3565b60405180910390f35b6102cd610dca565b6040516102da9190612ec7565b60405180910390f35b6102eb610dd0565b6040516102f89190612ec7565b60405180910390f35b61031b6004803603810190610316919061271e565b610dd6565b6040516103289190612ec7565b60405180910390f35b61034b6004803603810190610346919061271e565b61118e565b6040516103589190612ec7565b60405180910390f35b6103696111a6565b6040516103769190612ec7565b60405180910390f35b6103996004803603810190610394919061271e565b6111ac565b6040516103a69190612ec7565b60405180910390f35b6103c960048036038101906103c4919061271e565b6111c4565b6040516103d7929190612ee2565b60405180910390f35b6103e8611672565b6040516103f59190612d0e565b60405180910390f35b610418600480360381019061041391906128e8565b6116ab565b6040516104259190612cd8565b60405180910390f35b6104366116c2565b6040516104439190612ec7565b60405180910390f35b6104666004803603810190610461919061271e565b6116c8565b005b610470611912565b60405161047d9190612c46565b60405180910390f35b61048e611938565b60405161049b9190612c46565b60405180910390f35b6104be60048036038101906104b9919061284a565b61195e565b005b6104da60048036038101906104d59190612770565b611967565b6040516104e79190612ec7565b60405180910390f35b61050a600480360381019061050591906127ac565b61198c565b005b610514611abd565b005b6001600c541461055b576040517f08c379a000000000000000000000000000000000000000000000000000000000815260040161055290612df0565b60405180910390fd5b6000600c8190555060008511806105725750600084115b6105b1576040517f08c379a00000000000000000000000000000000000000000000000000000000081526004016105a890612e10565b60405180910390fd5b6000806105bc610b54565b5091509150816dffffffffffffffffffffffffffff16871080156105ef5750806dffffffffffffffffffffffffffff1686105b61062e576040517f08c379a000000000000000000000000000000000000000000000000000000000815260040161062590612d70565b60405180910390fd5b6000806000600660009054906101000a900473ffffffffffffffffffffffffffffffffffffffff1690506000600760009054906101000a900473ffffffffffffffffffffffffffffffffffffffff1690508173ffffffffffffffffffffffffffffffffffffffff168973ffffffffffffffffffffffffffffffffffffffff16141580156106e757508073ffffffffffffffffffffffffffffffffffffffff168973ffffffffffffffffffffffffffffffffffffffff1614155b610726576040517f08c379a000000000000000000000000000000000000000000000000000000000815260040161071d90612d30565b60405180910390fd5b60008b111561073b5761073a828a8d611cac565b5b60008a11156107505761074f818a8c611cac565b5b60008888905011156107d0578873ffffffffffffffffffffffffffffffffffffffff166384800812338d8d8c8c6040518663ffffffff1660e01b815260040161079d959493929190612c8a565b600060405180830381600087803b1580156107b757600080fd5b505af11580156107cb573d6000803e3d6000fd5b505050505b8173ffffffffffffffffffffffffffffffffffffffff166370a08231306040518263ffffffff1660e01b81526004016108099190612c46565b60206040518083038186803b15801561082157600080fd5b505afa158015610835573d6000803e3d6000fd5b505050506040513d601f19601f82011682018060405250810190610859919061294d565b93508073ffffffffffffffffffffffffffffffffffffffff166370a08231306040518263ffffffff1660e01b81526004016108949190612c46565b60206040518083038186803b1580156108ac57600080fd5b505afa1580156108c0573d6000803e3d6000fd5b505050506040513d601f19601f820116820180604052508101906108e4919061294d565b92505050600089856dffffffffffffffffffffffffffff1661090691906130bb565b831161091357600061093b565b89856dffffffffffffffffffffffffffff1661092f91906130bb565b8361093a91906130bb565b5b9050600089856dffffffffffffffffffffffffffff1661095b91906130bb565b8311610968576000610990565b89856dffffffffffffffffffffffffffff1661098491906130bb565b8361098f91906130bb565b5b905060008211806109a15750600081115b6109e0576040517f08c379a00000000000000000000000000000000000000000000000000000000081526004016109d790612db0565b60405180910390fd5b6000610a1c6109f9600285611d7d90919063ffffffff16565b610a0e6103e888611d7d90919063ffffffff16565b611d9390919063ffffffff16565b90506000610a5a610a37600285611d7d90919063ffffffff16565b610a4c6103e888611d7d90919063ffffffff16565b611d9390919063ffffffff16565b9050610aa4620f4240610a96896dffffffffffffffffffffffffffff168b6dffffffffffffffffffffffffffff16611d7d90919063ffffffff16565b611d7d90919063ffffffff16565b610ab78284611d7d90919063ffffffff16565b1015610af8576040517f08c379a0000000000000000000000000000000000000000000000000000000008152600401610aef90612d50565b60405180910390fd5b5050610b0684848888611da9565b5050505050506001600c819055505050505050565b6040518060400160405280600b81526020017f50616e63616b65204c507300000000000000000000000000000000000000000081525081565b6000806000600860009054906101000a90046dffffffffffffffffffffffffffff1692506008600e9054906101000a90046dffffffffffffffffffffffffffff1691506008601c9054906101000a900463ffffffff169050909192565b6000610bbe33848461202c565b6001905092915050565b600660009054906101000a900473ffffffffffffffffffffffffffffffffffffffff1681565b60005481565b60007fffffffffffffffffffffffffffffffffffffffffffffffffffffffffffffffff600260008673ffffffffffffffffffffffffffffffffffffffff1673ffffffffffffffffffffffffffffffffffffffff16815260200190815260200160002060003373ffffffffffffffffffffffffffffffffffffffff1673ffffffffffffffffffffffffffffffffffffffff1681526020019081526020016000205414610da957610d2882600260008773ffffffffffffffffffffffffffffffffffffffff1673ffffffffffffffffffffffffffffffffffffffff16815260200190815260200160002060003373ffffffffffffffffffffffffffffffffffffffff1673ffffffffffffffffffffffffffffffffffffffff16815260200190815260200160002054611d9390919063ffffffff16565b600260008673ffffffffffffffffffffffffffffffffffffffff1673ffffffffffffffffffffffffffffffffffffffff16815260200190815260200160002060003373ffffffffffffffffffffffffffffffffffffffff1673ffffffffffffffffffffffffffffffffffffffff168152602001908152602001600020819055505b610db48484846120b2565b600190509392505050565b601281565b60035481565b60095481565b600a5481565b60006001600c5414610e1d576040517f08c379a0000000000000000000000000000000000000000000000000000000008152600401610e1490612df0565b60405180910390fd5b6000600c81905550600080610e30610b54565b50915091506000600660009054906101000a900473ffffffffffffffffffffffffffffffffffffffff1673ffffffffffffffffffffffffffffffffffffffff166370a08231306040518263ffffffff1660e01b8152600401610e929190612c46565b60206040518083038186803b158015610eaa57600080fd5b505afa158015610ebe573d6000803e3d6000fd5b505050506040513d601f19601f82011682018060405250810190610ee2919061294d565b90506000600760009054906101000a900473ffffffffffffffffffffffffffffffffffffffff1673ffffffffffffffffffffffffffffffffffffffff166370a08231306040518263ffffffff1660e01b8152600401610f419190612c46565b60206040518083038186803b158015610f5957600080fd5b505afa158015610f6d573d6000803e3d6000fd5b505050506040513d601f19601f82011682018060405250810190610f91919061294d565b90506000610fb8856dffffffffffffffffffffffffffff1684611d9390919063ffffffff16565b90506000610fdf856dffffffffffffffffffffffffffff1684611d9390919063ffffffff16565b90506000610fed87876121e1565b905060008054905060008114156110415761102d6103e861101f61101a8688611d7d90919063ffffffff16565b6123c1565b611d9390919063ffffffff16565b985061103c60006103e861243b565b6110a8565b6110a5886dffffffffffffffffffffffffffff166110688387611d7d90919063ffffffff16565b6110729190612fda565b886dffffffffffffffffffffffffffff166110968487611d7d90919063ffffffff16565b6110a09190612fda565b6124ef565b98505b600089116110eb576040517f08c379a00000000000000000000000000000000000000000000000000000000081526004016110e290612e50565b60405180910390fd5b6110f58a8a61243b565b61110186868a8a611da9565b8115611179576111726008600e9054906101000a90046dffffffffffffffffffffffffffff166dffffffffffffffffffffffffffff16600860009054906101000a90046dffffffffffffffffffffffffffff166dffffffffffffffffffffffffffff16611d7d90919063ffffffff16565b600b819055505b50505050505050506001600c81905550919050565b60016020528060005260406000206000915090505481565b600b5481565b60046020528060005260406000206000915090505481565b6000806001600c541461120c576040517f08c379a000000000000000000000000000000000000000000000000000000000815260040161120390612df0565b60405180910390fd5b6000600c8190555060008061121f610b54565b50915091506000600660009054906101000a900473ffffffffffffffffffffffffffffffffffffffff1690506000600760009054906101000a900473ffffffffffffffffffffffffffffffffffffffff16905060008273ffffffffffffffffffffffffffffffffffffffff166370a08231306040518263ffffffff1660e01b81526004016112ad9190612c46565b60206040518083038186803b1580156112c557600080fd5b505afa1580156112d9573d6000803e3d6000fd5b505050506040513d601f19601f820116820180604052508101906112fd919061294d565b905060008273ffffffffffffffffffffffffffffffffffffffff166370a08231306040518263ffffffff1660e01b815260040161133a9190612c46565b60206040518083038186803b15801561135257600080fd5b505afa158015611366573d6000803e3d6000fd5b505050506040513d601f19601f8201168201806040525081019061138a919061294d565b90506000600160003073ffffffffffffffffffffffffffffffffffffffff1673ffffffffffffffffffffffffffffffffffffffff16815260200190815260200160002054905060006113dc88886121e1565b9050600080549050806113f88685611d7d90919063ffffffff16565b6114029190612fda565b9a50806114188585611d7d90919063ffffffff16565b6114229190612fda565b995060008b118015611434575060008a115b611473576040517f08c379a000000000000000000000000000000000000000000000000000000000815260040161146a90612dd0565b60405180910390fd5b61147d3084612508565b611488878d8d611cac565b6000600d60009054906101000a900460ff166114a55760016114a9565b600e545b90506114c1878e838e6114bc9190612fda565b611cac565b8773ffffffffffffffffffffffffffffffffffffffff166370a08231306040518263ffffffff1660e01b81526004016114fa9190612c46565b60206040518083038186803b15801561151257600080fd5b505afa158015611526573d6000803e3d6000fd5b505050506040513d601f19601f8201168201806040525081019061154a919061294d565b95508673ffffffffffffffffffffffffffffffffffffffff166370a08231306040518263ffffffff1660e01b81526004016115859190612c46565b60206040518083038186803b15801561159d57600080fd5b505afa1580156115b1573d6000803e3d6000fd5b505050506040513d601f19601f820116820180604052508101906115d5919061294d565b94506115e386868c8c611da9565b821561165b576116546008600e9054906101000a90046dffffffffffffffffffffffffffff166dffffffffffffffffffffffffffff16600860009054906101000a90046dffffffffffffffffffffffffffff166dffffffffffffffffffffffffffff16611d7d90919063ffffffff16565b600b819055505b505050505050505050506001600c81905550915091565b6040518060400160405280600781526020017f43616b652d4c500000000000000000000000000000000000000000000000000081525081565b60006116b83384846120b2565b6001905092915050565b6103e881565b6001600c541461170d576040517f08c379a000000000000000000000000000000000000000000000000000000000815260040161170490612df0565b60405180910390fd5b6000600c819055506000600660009054906101000a900473ffffffffffffffffffffffffffffffffffffffff1690506000600760009054906101000a900473ffffffffffffffffffffffffffffffffffffffff169050611834828461182f600860009054906101000a90046dffffffffffffffffffffffffffff166dffffffffffffffffffffffffffff168673ffffffffffffffffffffffffffffffffffffffff166370a08231306040518263ffffffff1660e01b81526004016117d19190612c46565b60206040518083038186803b1580156117e957600080fd5b505afa1580156117fd573d6000803e3d6000fd5b505050506040513d601f19601f82011682018060405250810190611821919061294d565b611d9390919063ffffffff16565b611cac565b61190581846119006008600e9054906101000a90046dffffffffffffffffffffffffffff166dffffffffffffffffffffffffffff168573ffffffffffffffffffffffffffffffffffffffff166370a08231306040518263ffffffff1660e01b81526004016118a29190612c46565b60206040518083038186803b1580156118ba57600080fd5b505afa1580156118ce573d6000803e3d6000fd5b505050506040513d601f19601f820116820180604052508101906118f2919061294d565b611d9390919063ffffffff16565b611cac565b50506001600c8190555050565b600560009054906101000a900473ffffffffffffffffffffffffffffffffffffffff1681565b600760009054906101000a900473ffffffffffffffffffffffffffffffffffffffff1681565b50505050505050565b6002602052816000526040600020602052806000526040600020600091509150505481565b600560009054906101000a900473ffffffffffffffffffffffffffffffffffffffff1673ffffffffffffffffffffffffffffffffffffffff163373ffffffffffffffffffffffffffffffffffffffff1614611a1c576040517f08c379a0000000000000000000000000000000000000000000000000000000008152600401611a1390612e70565b60405180910390fd5b82600660006101000a81548173ffffffffffffffffffffffffffffffffffffffff021916908373ffffffffffffffffffffffffffffffffffffffff16021790555081600760006101000a81548173ffffffffffffffffffffffffffffffffffffffff021916908373ffffffffffffffffffffffffffffffffffffffff16021790555080600d60006101000a81548160ff021916908315150217905550505050565b6001600c5414611b02576040517f08c379a0000000000000000000000000000000000000000000000000000000008152600401611af990612df0565b60405180910390fd5b6000600c81905550611ca2600660009054906101000a900473ffffffffffffffffffffffffffffffffffffffff1673ffffffffffffffffffffffffffffffffffffffff166370a08231306040518263ffffffff1660e01b8152600401611b689190612c46565b60206040518083038186803b158015611b8057600080fd5b505afa158015611b94573d6000803e3d6000fd5b505050506040513d601f19601f82011682018060405250810190611bb8919061294d565b600760009054906101000a900473ffffffffffffffffffffffffffffffffffffffff1673ffffffffffffffffffffffffffffffffffffffff166370a08231306040518263ffffffff1660e01b8152600401611c139190612c46565b60206040518083038186803b158015611c2b57600080fd5b505afa158015611c3f573d6000803e3d6000fd5b505050506040513d601f19601f82011682018060405250810190611c63919061294d565b600860009054906101000a90046dffffffffffffffffffffffffffff166008600e9054906101000a90046dffffffffffffffffffffffffffff16611da9565b6001600c81905550565b8273ffffffffffffffffffffffffffffffffffffffff1663a9059cbb83836040518363ffffffff1660e01b8152600401611ce7929190612c61565b602060405180830381600087803b158015611d0157600080fd5b505af1158015611d15573d6000803e3d6000fd5b505050506040513d601f19601f82011682018060405250810190611d399190612924565b611d78576040517f08c379a0000000000000000000000000000000000000000000000000000000008152600401611d6f90612d90565b60405180910390fd5b505050565b60008183611d8b9190613061565b905092915050565b60008183611da191906130bb565b905092915050565b6dffffffffffffffffffffffffffff80168411158015611dd957506dffffffffffffffffffffffffffff80168311155b611e18576040517f08c379a0000000000000000000000000000000000000000000000000000000008152600401611e0f90612e30565b60405180910390fd5b600064010000000042611e2b9190613216565b905060006008601c9054906101000a900463ffffffff1682611e4d91906130ef565b905060008163ffffffff16118015611e7657506000846dffffffffffffffffffffffffffff1614155b8015611e9357506000836dffffffffffffffffffffffffffff1614155b15611f99578063ffffffff16611ed885611eac866125bc565b7bffffffffffffffffffffffffffffffffffffffffffffffffffffffff166125f090919063ffffffff16565b7bffffffffffffffffffffffffffffffffffffffffffffffffffffffff16611f009190613061565b60096000828254611f119190612f53565b925050819055508063ffffffff16611f5884611f2c876125bc565b7bffffffffffffffffffffffffffffffffffffffffffffffffffffffff166125f090919063ffffffff16565b7bffffffffffffffffffffffffffffffffffffffffffffffffffffffff16611f809190613061565b600a6000828254611f919190612f53565b925050819055505b85600860006101000a8154816dffffffffffffffffffffffffffff02191690836dffffffffffffffffffffffffffff160217905550846008600e6101000a8154816dffffffffffffffffffffffffffff02191690836dffffffffffffffffffffffffffff160217905550816008601c6101000a81548163ffffffff021916908363ffffffff160217905550505050505050565b80600260008573ffffffffffffffffffffffffffffffffffffffff1673ffffffffffffffffffffffffffffffffffffffff16815260200190815260200160002060008473ffffffffffffffffffffffffffffffffffffffff1673ffffffffffffffffffffffffffffffffffffffff16815260200190815260200160002081905550505050565b61210481600160008673ffffffffffffffffffffffffffffffffffffffff1673ffffffffffffffffffffffffffffffffffffffff16815260200190815260200160002054611d9390919063ffffffff16565b600160008573ffffffffffffffffffffffffffffffffffffffff1673ffffffffffffffffffffffffffffffffffffffff1681526020019081526020016000208190555061219981600160008573ffffffffffffffffffffffffffffffffffffffff1673ffffffffffffffffffffffffffffffffffffffff1681526020019081526020016000205461261690919063ffffffff16565b600160008473ffffffffffffffffffffffffffffffffffffffff1673ffffffffffffffffffffffffffffffffffffffff16815260200190815260200160002081905550505050565b600080600560009054906101000a900473ffffffffffffffffffffffffffffffffffffffff1673ffffffffffffffffffffffffffffffffffffffff1663017e7e586040518163ffffffff1660e01b815260040160206040518083038186803b15801561224c57600080fd5b505afa158015612260573d6000803e3d6000fd5b505050506040513d601f19601f820116820180604052508101906122849190612747565b9050600073ffffffffffffffffffffffffffffffffffffffff168173ffffffffffffffffffffffffffffffffffffffff16141591506000600b54905082156123a757600081146123a257600061230b612306866dffffffffffffffffffffffffffff16886dffffffffffffffffffffffffffff16611d7d90919063ffffffff16565b6123c1565b90506000612318836123c1565b90508082111561239f57600061234b61233a8385611d9390919063ffffffff16565b600054611d7d90919063ffffffff16565b9050600061237583612367600387611d7d90919063ffffffff16565b61261690919063ffffffff16565b9050600081836123859190612fda565b9050600081111561239b5761239a878261243b565b5b5050505b50505b6123b9565b600081146123b8576000600b819055505b5b505092915050565b6000600382111561242857819050600060016002846123e09190612fda565b6123ea9190612f53565b90505b818110156124225780915060028182856124079190612fda565b6124119190612f53565b61241b9190612fda565b90506123ed565b50612436565b6000821461243557600190505b5b919050565b6124508160005461261690919063ffffffff16565b6000819055506124a881600160008573ffffffffffffffffffffffffffffffffffffffff1673ffffffffffffffffffffffffffffffffffffffff1681526020019081526020016000205461261690919063ffffffff16565b600160008473ffffffffffffffffffffffffffffffffffffffff1673ffffffffffffffffffffffffffffffffffffffff168152602001908152602001600020819055505050565b60008183106124fe5781612500565b825b905092915050565b61255a81600160008573ffffffffffffffffffffffffffffffffffffffff1673ffffffffffffffffffffffffffffffffffffffff16815260200190815260200160002054611d9390919063ffffffff16565b600160008473ffffffffffffffffffffffffffffffffffffffff1673ffffffffffffffffffffffffffffffffffffffff168152602001908152602001600020819055506125b281600054611d9390919063ffffffff16565b6000819055505050565b60006e010000000000000000000000000000826dffffffffffffffffffffffffffff166125e9919061300b565b9050919050565b6000816dffffffffffffffffffffffffffff168361260e9190612fa9565b905092915050565b600081836126249190612f53565b905092915050565b60008135905061263b81613511565b92915050565b60008151905061265081613511565b92915050565b60008135905061266581613528565b92915050565b60008151905061267a81613528565b92915050565b60008135905061268f8161353f565b92915050565b60008083601f8401126126a757600080fd5b8235905067ffffffffffffffff8111156126c057600080fd5b6020830191508360018202830111156126d857600080fd5b9250929050565b6000813590506126ee81613556565b92915050565b60008151905061270381613556565b92915050565b6000813590506127188161356d565b92915050565b60006020828403121561273057600080fd5b600061273e8482850161262c565b91505092915050565b60006020828403121561275957600080fd5b600061276784828501612641565b91505092915050565b6000806040838503121561278357600080fd5b60006127918582860161262c565b92505060206127a28582860161262c565b9150509250929050565b6000806000606084860312156127c157600080fd5b60006127cf8682870161262c565b93505060206127e08682870161262c565b92505060406127f186828701612656565b9150509250925092565b60008060006060848603121561281057600080fd5b600061281e8682870161262c565b935050602061282f8682870161262c565b9250506040612840868287016126df565b9150509250925092565b600080600080600080600060e0888a03121561286557600080fd5b60006128738a828b0161262c565b97505060206128848a828b0161262c565b96505060406128958a828b016126df565b95505060606128a68a828b016126df565b94505060806128b78a828b01612709565b93505060a06128c88a828b01612680565b92505060c06128d98a828b01612680565b91505092959891949750929550565b600080604083850312156128fb57600080fd5b60006129098582860161262c565b925050602061291a858286016126df565b9150509250929050565b60006020828403121561293657600080fd5b60006129448482850161266b565b91505092915050565b60006020828403121561295f57600080fd5b600061296d848285016126f4565b91505092915050565b60008060008060006080868803121561298e57600080fd5b600061299c888289016126df565b95505060206129ad888289016126df565b94505060406129be8882890161262c565b935050606086013567ffffffffffffffff8111156129db57600080fd5b6129e788828901612695565b92509250509295509295909350565b6129ff81613123565b82525050565b612a0e81613135565b82525050565b612a1d81613141565b82525050565b6000612a2f8385612f31565b9350612a3c8385846131d4565b612a45836132a5565b840190509392505050565b6000612a5b82612f26565b612a658185612f42565b9350612a758185602086016131e3565b612a7e816132a5565b840191505092915050565b6000612a96601383612f42565b9150612aa1826132b6565b602082019050919050565b6000612ab9600a83612f42565b9150612ac4826132df565b602082019050919050565b6000612adc601f83612f42565b9150612ae782613308565b602082019050919050565b6000612aff601883612f42565b9150612b0a82613331565b602082019050919050565b6000612b22602283612f42565b9150612b2d8261335a565b604082019050919050565b6000612b45602683612f42565b9150612b50826133a9565b604082019050919050565b6000612b68600f83612f42565b9150612b73826133f8565b602082019050919050565b6000612b8b602383612f42565b9150612b9682613421565b604082019050919050565b6000612bae601183612f42565b9150612bb982613470565b602082019050919050565b6000612bd1602683612f42565b9150612bdc82613499565b604082019050919050565b6000612bf4601283612f42565b9150612bff826134e8565b602082019050919050565b612c138161314b565b82525050565b612c22816131ad565b82525050565b612c31816131b7565b82525050565b612c40816131c7565b82525050565b6000602082019050612c5b60008301846129f6565b92915050565b6000604082019050612c7660008301856129f6565b612c836020830184612c19565b9392505050565b6000608082019050612c9f60008301886129f6565b612cac6020830187612c19565b612cb96040830186612c19565b8181036060830152612ccc818486612a23565b90509695505050505050565b6000602082019050612ced6000830184612a05565b92915050565b6000602082019050612d086000830184612a14565b92915050565b60006020820190508181036000830152612d288184612a50565b905092915050565b60006020820190508181036000830152612d4981612a89565b9050919050565b60006020820190508181036000830152612d6981612aac565b9050919050565b60006020820190508181036000830152612d8981612acf565b9050919050565b60006020820190508181036000830152612da981612af2565b9050919050565b60006020820190508181036000830152612dc981612b15565b9050919050565b60006020820190508181036000830152612de981612b38565b9050919050565b60006020820190508181036000830152612e0981612b5b565b9050919050565b60006020820190508181036000830152612e2981612b7e565b9050919050565b60006020820190508181036000830152612e4981612ba1565b9050919050565b60006020820190508181036000830152612e6981612bc4565b9050919050565b60006020820190508181036000830152612e8981612be7565b9050919050565b6000606082019050612ea56000830186612c0a565b612eb26020830185612c0a565b612ebf6040830184612c28565b949350505050565b6000602082019050612edc6000830184612c19565b92915050565b6000604082019050612ef76000830185612c19565b612f046020830184612c19565b9392505050565b6000602082019050612f206000830184612c37565b92915050565b600081519050919050565b600082825260208201905092915050565b600082825260208201905092915050565b6000612f5e826131ad565b9150612f69836131ad565b9250827fffffffffffffffffffffffffffffffffffffffffffffffffffffffffffffffff03821115612f9e57612f9d613247565b5b828201905092915050565b6000612fb482613185565b9150612fbf83613185565b925082612fcf57612fce613276565b5b828204905092915050565b6000612fe5826131ad565b9150612ff0836131ad565b92508261300057612fff613276565b5b828204905092915050565b600061301682613185565b915061302183613185565b9250817bffffffffffffffffffffffffffffffffffffffffffffffffffffffff048311821515161561305657613055613247565b5b828202905092915050565b600061306c826131ad565b9150613077836131ad565b9250817fffffffffffffffffffffffffffffffffffffffffffffffffffffffffffffffff04831182151516156130b0576130af613247565b5b828202905092915050565b60006130c6826131ad565b91506130d1836131ad565b9250828210156130e4576130e3613247565b5b828203905092915050565b60006130fa826131b7565b9150613105836131b7565b92508282101561311857613117613247565b5b828203905092915050565b600061312e82613165565b9050919050565b60008115159050919050565b6000819050919050565b60006dffffffffffffffffffffffffffff82169050919050565b600073ffffffffffffffffffffffffffffffffffffffff82169050919050565b60007bffffffffffffffffffffffffffffffffffffffffffffffffffffffff82169050919050565b6000819050919050565b600063ffffffff82169050919050565b600060ff82169050919050565b82818337600083830152505050565b60005b838110156132015780820151818401526020810190506131e6565b83811115613210576000848401525b50505050565b6000613221826131ad565b915061322c836131ad565b92508261323c5761323b613276565b5b828206905092915050565b7f4e487b7100000000000000000000000000000000000000000000000000000000600052601160045260246000fd5b7f4e487b7100000000000000000000000000000000000000000000000000000000600052601260045260246000fd5b6000601f19601f8301169050919050565b7f50616e63616b653a20494e56414c49445f544f00000000000000000000000000600082015250565b7f50616e63616b653a204b00000000000000000000000000000000000000000000600082015250565b7f50616e63616b653a20494e53554646494349454e545f4c495155494449545900600082015250565b7f50616e63616b653a205452414e534645525f4641494c45440000000000000000600082015250565b7f50616e63616b653a20494e53554646494349454e545f494e5055545f414d4f5560008201527f4e54000000000000000000000000000000000000000000000000000000000000602082015250565b7f50616e63616b653a20494e53554646494349454e545f4c49515549444954595f60008201527f4255524e45440000000000000000000000000000000000000000000000000000602082015250565b7f50616e63616b653a204c4f434b45440000000000000000000000000000000000600082015250565b7f50616e63616b653a20494e53554646494349454e545f4f55545055545f414d4f60008201527f554e540000000000000000000000000000000000000000000000000000000000602082015250565b7f50616e63616b653a204f564552464c4f57000000000000000000000000000000600082015250565b7f50616e63616b653a20494e53554646494349454e545f4c49515549444954595f60008201527f4d494e5445440000000000000000000000000000000000000000000000000000602082015250565b7f50616e63616b653a20464f5242494444454e0000000000000000000000000000600082015250565b61351a81613123565b811461352557600080fd5b50565b61353181613135565b811461353c57600080fd5b50565b61354881613141565b811461355357600080fd5b50565b61355f816131ad565b811461356a57600080fd5b50565b613576816131c7565b811461358157600080fd5b5056fea264697066735822122082d6ed547cf9161e30ab53fd90f60a8d4545533030ee4ea8de438c36d7d43f6c64736f6c63430008010033",
  "linkReferences": {},
  "deployedLinkReferences": {}
}