{
  "_format": "hh-sol-artifact-1",
  "contractName": "PancakePair",
  "sourceName": "contracts/pancekeswap-fork/pancakepair.sol",
  "abi": [
    {
      "inputs": [],
      "stateMutability": "nonpayable",
      "type": "constructor"
    },
    {
      "inputs": [],
      "name": "DOMAIN_SEPARATOR",
      "outputs": [
        {
          "internalType": "bytes32",
          "name": "",
          "type": "bytes32"
        }
      ],
      "stateMutability": "view",
      "type": "function"
    },
    {
      "inputs": [],
      "name": "MINIMUM_LIQUIDITY",
      "outputs": [
        {
          "internalType": "uint256",
          "name": "",
          "type": "uint256"
        }
      ],
      "stateMutability": "view",
      "type": "function"
    },
    {
      "inputs": [
        {
          "internalType": "address",
          "name": "",
          "type": "address"
        },
        {
          "internalType": "address",
          "name": "",
          "type": "address"
        }
      ],
      "name": "allowance",
      "outputs": [
        {
          "internalType": "uint256",
          "name": "",
          "type": "uint256"
        }
      ],
      "stateMutability": "view",
      "type": "function"
    },
    {
      "inputs": [
        {
          "internalType": "address",
          "name": "spender",
          "type": "address"
        },
        {
          "internalType": "uint256",
          "name": "value",
          "type": "uint256"
        }
      ],
      "name": "approve",
      "outputs": [
        {
          "internalType": "bool",
          "name": "",
          "type": "bool"
        }
      ],
      "stateMutability": "nonpayable",
      "type": "function"
    },
    {
      "inputs": [
        {
          "internalType": "address",
          "name": "",
          "type": "address"
        }
      ],
      "name": "balanceOf",
      "outputs": [
        {
          "internalType": "uint256",
          "name": "",
          "type": "uint256"
        }
      ],
      "stateMutability": "view",
      "type": "function"
    },
    {
      "inputs": [
        {
          "internalType": "address",
          "name": "to",
          "type": "address"
        }
      ],
      "name": "burn",
      "outputs": [
        {
          "internalType": "uint256",
          "name": "amount0",
          "type": "uint256"
        },
        {
          "internalType": "uint256",
          "name": "amount1",
          "type": "uint256"
        }
      ],
      "stateMutability": "nonpayable",
      "type": "function"
    },
    {
      "inputs": [],
      "name": "decimals",
      "outputs": [
        {
          "internalType": "uint8",
          "name": "",
          "type": "uint8"
        }
      ],
      "stateMutability": "view",
      "type": "function"
    },
    {
      "inputs": [],
      "name": "factory",
      "outputs": [
        {
          "internalType": "address",
          "name": "",
          "type": "address"
        }
      ],
      "stateMutability": "view",
      "type": "function"
    },
    {
      "inputs": [],
      "name": "getReserves",
      "outputs": [
        {
          "internalType": "uint112",
          "name": "_reserve0",
          "type": "uint112"
        },
        {
          "internalType": "uint112",
          "name": "_reserve1",
          "type": "uint112"
        },
        {
          "internalType": "uint32",
          "name": "_blockTimestampLast",
          "type": "uint32"
        }
      ],
      "stateMutability": "view",
      "type": "function"
    },
    {
      "inputs": [
        {
          "internalType": "address",
          "name": "_token0",
          "type": "address"
        },
        {
          "internalType": "address",
          "name": "_token1",
          "type": "address"
        },
        {
          "internalType": "bool",
          "name": "_isEthPair",
          "type": "bool"
        }
      ],
      "name": "initialize",
      "outputs": [],
      "stateMutability": "nonpayable",
      "type": "function"
    },
    {
      "inputs": [],
      "name": "kLast",
      "outputs": [
        {
          "internalType": "uint256",
          "name": "",
          "type": "uint256"
        }
      ],
      "stateMutability": "view",
      "type": "function"
    },
    {
      "inputs": [
        {
          "internalType": "address",
          "name": "to",
          "type": "address"
        }
      ],
      "name": "mint",
      "outputs": [
        {
          "internalType": "uint256",
          "name": "liquidity",
          "type": "uint256"
        }
      ],
      "stateMutability": "nonpayable",
      "type": "function"
    },
    {
      "inputs": [],
      "name": "name",
      "outputs": [
        {
          "internalType": "string",
          "name": "",
          "type": "string"
        }
      ],
      "stateMutability": "view",
      "type": "function"
    },
    {
      "inputs": [
        {
          "internalType": "address",
          "name": "",
          "type": "address"
        }
      ],
      "name": "nonces",
      "outputs": [
        {
          "internalType": "uint256",
          "name": "",
          "type": "uint256"
        }
      ],
      "stateMutability": "view",
      "type": "function"
    },
    {
      "inputs": [
        {
          "internalType": "address",
          "name": "owner",
          "type": "address"
        },
        {
          "internalType": "address",
          "name": "spender",
          "type": "address"
        },
        {
          "internalType": "uint256",
          "name": "value",
          "type": "uint256"
        },
        {
          "internalType": "uint256",
          "name": "deadline",
          "type": "uint256"
        },
        {
          "internalType": "uint8",
          "name": "v",
          "type": "uint8"
        },
        {
          "internalType": "bytes32",
          "name": "r",
          "type": "bytes32"
        },
        {
          "internalType": "bytes32",
          "name": "s",
          "type": "bytes32"
        }
      ],
      "name": "permit",
      "outputs": [],
      "stateMutability": "nonpayable",
      "type": "function"
    },
    {
      "inputs": [],
      "name": "price0CumulativeLast",
      "outputs": [
        {
          "internalType": "uint256",
          "name": "",
          "type": "uint256"
        }
      ],
      "stateMutability": "view",
      "type": "function"
    },
    {
      "inputs": [],
      "name": "price1CumulativeLast",
      "outputs": [
        {
          "internalType": "uint256",
          "name": "",
          "type": "uint256"
        }
      ],
      "stateMutability": "view",
      "type": "function"
    },
    {
      "inputs": [
        {
          "internalType": "address",
          "name": "to",
          "type": "address"
        }
      ],
      "name": "skim",
      "outputs": [],
      "stateMutability": "nonpayable",
      "type": "function"
    },
    {
      "inputs": [
        {
          "internalType": "uint256",
          "name": "amount0Out",
          "type": "uint256"
        },
        {
          "internalType": "uint256",
          "name": "amount1Out",
          "type": "uint256"
        },
        {
          "internalType": "address",
          "name": "to",
          "type": "address"
        },
        {
          "internalType": "bytes",
          "name": "data",
          "type": "bytes"
        }
      ],
      "name": "swap",
      "outputs": [],
      "stateMutability": "nonpayable",
      "type": "function"
    },
    {
      "inputs": [],
      "name": "symbol",
      "outputs": [
        {
          "internalType": "string",
          "name": "",
          "type": "string"
        }
      ],
      "stateMutability": "view",
      "type": "function"
    },
    {
      "inputs": [],
      "name": "sync",
      "outputs": [],
      "stateMutability": "nonpayable",
      "type": "function"
    },
    {
      "inputs": [],
      "name": "token0",
      "outputs": [
        {
          "internalType": "address",
          "name": "",
          "type": "address"
        }
      ],
      "stateMutability": "view",
      "type": "function"
    },
    {
      "inputs": [],
      "name": "token1",
      "outputs": [
        {
          "internalType": "address",
          "name": "",
          "type": "address"
        }
      ],
      "stateMutability": "view",
      "type": "function"
    },
    {
      "inputs": [],
      "name": "totalSupply",
      "outputs": [
        {
          "internalType": "uint256",
          "name": "",
          "type": "uint256"
        }
      ],
      "stateMutability": "view",
      "type": "function"
    },
    {
      "inputs": [
        {
          "internalType": "address",
          "name": "to",
          "type": "address"
        },
        {
          "internalType": "uint256",
          "name": "value",
          "type": "uint256"
        }
      ],
      "name": "transfer",
      "outputs": [
        {
          "internalType": "bool",
          "name": "",
          "type": "bool"
        }
      ],
      "stateMutability": "nonpayable",
      "type": "function"
    },
    {
      "inputs": [
        {
          "internalType": "address",
          "name": "from",
          "type": "address"
        },
        {
          "internalType": "address",
          "name": "to",
          "type": "address"
        },
        {
          "internalType": "uint256",
          "name": "value",
          "type": "uint256"
        }
      ],
      "name": "transferFrom",
      "outputs": [
        {
          "internalType": "bool",
          "name": "",
          "type": "bool"
        }
      ],
      "stateMutability": "nonpayable",
      "type": "function"
    }
  ],
  "bytecode": "0x60806040526001600c556402540be400600e553480156200001f57600080fd5b5060004690507f8b73c3c69bb8fe3d512ecc4cf759cc79239f7b179b0ffacaa9a75d522b39400f6040518060400160405280600b81526020017f50616e63616b65204c5073000000000000000000000000000000000000000000815250805190602001206040518060400160405280600181526020017f3100000000000000000000000000000000000000000000000000000000000000815250805190602001208330604051602001620000d89594939291906200016f565b604051602081830303815290604052805190602001206003819055505033600560006101000a81548173ffffffffffffffffffffffffffffffffffffffff021916908373ffffffffffffffffffffffffffffffffffffffff16021790555062000214565b6200014781620001cc565b82525050565b6200015881620001e0565b82525050565b62000169816200020a565b82525050565b600060a0820190506200018660008301886200014d565b6200019560208301876200014d565b620001a460408301866200014d565b620001b360608301856200015e565b620001c260808301846200013c565b9695505050505050565b6000620001d982620001ea565b9050919050565b6000819050919050565b600073ffffffffffffffffffffffffffffffffffffffff82169050919050565b6000819050919050565b61355680620002246000396000f3fe608060405234801561001057600080fd5b50600436106101ae5760003560e01c80637464fc3d116100ee578063bc25cf7711610097578063d505accf11610071578063d505accf146104c4578063dd62ed3e146104e0578063e4bbb5a814610510578063fff6cae91461052c576101ae565b8063bc25cf771461046c578063c45a015514610488578063d21220a7146104a6576101ae565b806395d89b41116100c857806395d89b4114610400578063a9059cbb1461041e578063ba9a7a561461044e576101ae565b80637464fc3d146103815780637ecebe001461039f57806389afcb44146103cf576101ae565b806323b872dd1161015b5780635909c0d5116101355780635909c0d5146102e55780635a3d5493146103035780636a6278421461032157806370a0823114610351576101ae565b806323b872dd14610279578063313ce567146102a95780633644e515146102c7576101ae565b8063095ea7b31161018c578063095ea7b31461020d5780630dfe16811461023d57806318160ddd1461025b576101ae565b8063022c0d9f146101b357806306fdde03146101cf5780630902f1ac146101ed575b600080fd5b6101cd60048036038101906101c89190612996565b610536565b005b6101d7610b3b565b6040516101e49190612f05565b60405180910390f35b6101f5610b74565b60405161020493929190613087565b60405180910390f35b61022760048036038101906102229190612908565b610bd1565b6040516102349190612ecf565b60405180910390f35b610245610be8565b6040516102529190612e3d565b60405180910390f35b610263610c0e565b60405161027091906130be565b60405180910390f35b610293600480360381019061028e919061281b565b610c14565b6040516102a09190612ecf565b60405180910390f35b6102b1610ddf565b6040516102be9190613102565b60405180910390f35b6102cf610de4565b6040516102dc9190612eea565b60405180910390f35b6102ed610dea565b6040516102fa91906130be565b60405180910390f35b61030b610df0565b60405161031891906130be565b60405180910390f35b61033b6004803603810190610336919061273e565b610df6565b60405161034891906130be565b60405180910390f35b61036b6004803603810190610366919061273e565b6111ae565b60405161037891906130be565b60405180910390f35b6103896111c6565b60405161039691906130be565b60405180910390f35b6103b960048036038101906103b4919061273e565b6111cc565b6040516103c691906130be565b60405180910390f35b6103e960048036038101906103e4919061273e565b6111e4565b6040516103f79291906130d9565b60405180910390f35b610408611692565b6040516104159190612f05565b60405180910390f35b61043860048036038101906104339190612908565b6116cb565b6040516104459190612ecf565b60405180910390f35b6104566116e2565b60405161046391906130be565b60405180910390f35b6104866004803603810190610481919061273e565b6116e8565b005b610490611932565b60405161049d9190612e3d565b60405180910390f35b6104ae611958565b6040516104bb9190612e3d565b60405180910390f35b6104de60048036038101906104d9919061286a565b61197e565b005b6104fa60048036038101906104f59190612790565b611987565b60405161050791906130be565b60405180910390f35b61052a600480360381019061052591906127cc565b6119ac565b005b610534611add565b005b6001600c541461057b576040517f08c379a000000000000000000000000000000000000000000000000000000000815260040161057290612fe7565b60405180910390fd5b6000600c8190555060008511806105925750600084115b6105d1576040517f08c379a00000000000000000000000000000000000000000000000000000000081526004016105c890613007565b60405180910390fd5b6000806105dc610b74565b5091509150816dffffffffffffffffffffffffffff168710801561060f5750806dffffffffffffffffffffffffffff1686105b61064e576040517f08c379a000000000000000000000000000000000000000000000000000000000815260040161064590612f67565b60405180910390fd5b6000806000600660009054906101000a900473ffffffffffffffffffffffffffffffffffffffff1690506000600760009054906101000a900473ffffffffffffffffffffffffffffffffffffffff1690508173ffffffffffffffffffffffffffffffffffffffff168973ffffffffffffffffffffffffffffffffffffffff161415801561070757508073ffffffffffffffffffffffffffffffffffffffff168973ffffffffffffffffffffffffffffffffffffffff1614155b610746576040517f08c379a000000000000000000000000000000000000000000000000000000000815260040161073d90612f27565b60405180910390fd5b60008b111561075b5761075a828a8d611ccc565b5b60008a11156107705761076f818a8c611ccc565b5b60008888905011156107f0578873ffffffffffffffffffffffffffffffffffffffff166384800812338d8d8c8c6040518663ffffffff1660e01b81526004016107bd959493929190612e81565b600060405180830381600087803b1580156107d757600080fd5b505af11580156107eb573d6000803e3d6000fd5b505050505b8173ffffffffffffffffffffffffffffffffffffffff166370a08231306040518263ffffffff1660e01b81526004016108299190612e3d565b60206040518083038186803b15801561084157600080fd5b505afa158015610855573d6000803e3d6000fd5b505050506040513d601f19601f82011682018060405250810190610879919061296d565b93508073ffffffffffffffffffffffffffffffffffffffff166370a08231306040518263ffffffff1660e01b81526004016108b49190612e3d565b60206040518083038186803b1580156108cc57600080fd5b505afa1580156108e0573d6000803e3d6000fd5b505050506040513d601f19601f82011682018060405250810190610904919061296d565b92505050600089856dffffffffffffffffffffffffffff1661092691906132b2565b831161093357600061095b565b89856dffffffffffffffffffffffffffff1661094f91906132b2565b8361095a91906132b2565b5b9050600089856dffffffffffffffffffffffffffff1661097b91906132b2565b83116109885760006109b0565b89856dffffffffffffffffffffffffffff166109a491906132b2565b836109af91906132b2565b5b905060008211806109c15750600081115b610a00576040517f08c379a00000000000000000000000000000000000000000000000000000000081526004016109f790612fa7565b60405180910390fd5b6000610a3c610a19600285611d9d90919063ffffffff16565b610a2e6103e888611d9d90919063ffffffff16565b611db390919063ffffffff16565b90506000610a7a610a57600285611d9d90919063ffffffff16565b610a6c6103e888611d9d90919063ffffffff16565b611db390919063ffffffff16565b9050610ac4620f4240610ab6896dffffffffffffffffffffffffffff168b6dffffffffffffffffffffffffffff16611d9d90919063ffffffff16565b611d9d90919063ffffffff16565b610ad78284611d9d90919063ffffffff16565b1015610b18576040517f08c379a0000000000000000000000000000000000000000000000000000000008152600401610b0f90612f47565b60405180910390fd5b5050610b2684848888611dc9565b5050505050506001600c819055505050505050565b6040518060400160405280600b81526020017f50616e63616b65204c507300000000000000000000000000000000000000000081525081565b6000806000600860009054906101000a90046dffffffffffffffffffffffffffff1692506008600e9054906101000a90046dffffffffffffffffffffffffffff1691506008601c9054906101000a900463ffffffff169050909192565b6000610bde33848461204c565b6001905092915050565b600660009054906101000a900473ffffffffffffffffffffffffffffffffffffffff1681565b60005481565b60007fffffffffffffffffffffffffffffffffffffffffffffffffffffffffffffffff600260008673ffffffffffffffffffffffffffffffffffffffff1673ffffffffffffffffffffffffffffffffffffffff16815260200190815260200160002060003373ffffffffffffffffffffffffffffffffffffffff1673ffffffffffffffffffffffffffffffffffffffff1681526020019081526020016000205414610dc957610d4882600260008773ffffffffffffffffffffffffffffffffffffffff1673ffffffffffffffffffffffffffffffffffffffff16815260200190815260200160002060003373ffffffffffffffffffffffffffffffffffffffff1673ffffffffffffffffffffffffffffffffffffffff16815260200190815260200160002054611db390919063ffffffff16565b600260008673ffffffffffffffffffffffffffffffffffffffff1673ffffffffffffffffffffffffffffffffffffffff16815260200190815260200160002060003373ffffffffffffffffffffffffffffffffffffffff1673ffffffffffffffffffffffffffffffffffffffff168152602001908152602001600020819055505b610dd48484846120d2565b600190509392505050565b601281565b60035481565b60095481565b600a5481565b60006001600c5414610e3d576040517f08c379a0000000000000000000000000000000000000000000000000000000008152600401610e3490612fe7565b60405180910390fd5b6000600c81905550600080610e50610b74565b50915091506000600660009054906101000a900473ffffffffffffffffffffffffffffffffffffffff1673ffffffffffffffffffffffffffffffffffffffff166370a08231306040518263ffffffff1660e01b8152600401610eb29190612e3d565b60206040518083038186803b158015610eca57600080fd5b505afa158015610ede573d6000803e3d6000fd5b505050506040513d601f19601f82011682018060405250810190610f02919061296d565b90506000600760009054906101000a900473ffffffffffffffffffffffffffffffffffffffff1673ffffffffffffffffffffffffffffffffffffffff166370a08231306040518263ffffffff1660e01b8152600401610f619190612e3d565b60206040518083038186803b158015610f7957600080fd5b505afa158015610f8d573d6000803e3d6000fd5b505050506040513d601f19601f82011682018060405250810190610fb1919061296d565b90506000610fd8856dffffffffffffffffffffffffffff1684611db390919063ffffffff16565b90506000610fff856dffffffffffffffffffffffffffff1684611db390919063ffffffff16565b9050600061100d8787612201565b905060008054905060008114156110615761104d6103e861103f61103a8688611d9d90919063ffffffff16565b6123e1565b611db390919063ffffffff16565b985061105c60006103e861245b565b6110c8565b6110c5886dffffffffffffffffffffffffffff166110888387611d9d90919063ffffffff16565b61109291906131d1565b886dffffffffffffffffffffffffffff166110b68487611d9d90919063ffffffff16565b6110c091906131d1565b61250f565b98505b6000891161110b576040517f08c379a000000000000000000000000000000000000000000000000000000000815260040161110290613047565b60405180910390fd5b6111158a8a61245b565b61112186868a8a611dc9565b8115611199576111926008600e9054906101000a90046dffffffffffffffffffffffffffff166dffffffffffffffffffffffffffff16600860009054906101000a90046dffffffffffffffffffffffffffff166dffffffffffffffffffffffffffff16611d9d90919063ffffffff16565b600b819055505b50505050505050506001600c81905550919050565b60016020528060005260406000206000915090505481565b600b5481565b60046020528060005260406000206000915090505481565b6000806001600c541461122c576040517f08c379a000000000000000000000000000000000000000000000000000000000815260040161122390612fe7565b60405180910390fd5b6000600c8190555060008061123f610b74565b50915091506000600660009054906101000a900473ffffffffffffffffffffffffffffffffffffffff1690506000600760009054906101000a900473ffffffffffffffffffffffffffffffffffffffff16905060008273ffffffffffffffffffffffffffffffffffffffff166370a08231306040518263ffffffff1660e01b81526004016112cd9190612e3d565b60206040518083038186803b1580156112e557600080fd5b505afa1580156112f9573d6000803e3d6000fd5b505050506040513d601f19601f8201168201806040525081019061131d919061296d565b905060008273ffffffffffffffffffffffffffffffffffffffff166370a08231306040518263ffffffff1660e01b815260040161135a9190612e3d565b60206040518083038186803b15801561137257600080fd5b505afa158015611386573d6000803e3d6000fd5b505050506040513d601f19601f820116820180604052508101906113aa919061296d565b90506000600160003073ffffffffffffffffffffffffffffffffffffffff1673ffffffffffffffffffffffffffffffffffffffff16815260200190815260200160002054905060006113fc8888612201565b9050600080549050806114188685611d9d90919063ffffffff16565b61142291906131d1565b9a50806114388585611d9d90919063ffffffff16565b61144291906131d1565b995060008b118015611454575060008a115b611493576040517f08c379a000000000000000000000000000000000000000000000000000000000815260040161148a90612fc7565b60405180910390fd5b61149d3084612528565b6114a8878d8d611ccc565b6000600d60009054906101000a900460ff166114c55760016114c9565b600e545b90506114e1878e838e6114dc91906131d1565b611ccc565b8773ffffffffffffffffffffffffffffffffffffffff166370a08231306040518263ffffffff1660e01b815260040161151a9190612e3d565b60206040518083038186803b15801561153257600080fd5b505afa158015611546573d6000803e3d6000fd5b505050506040513d601f19601f8201168201806040525081019061156a919061296d565b95508673ffffffffffffffffffffffffffffffffffffffff166370a08231306040518263ffffffff1660e01b81526004016115a59190612e3d565b60206040518083038186803b1580156115bd57600080fd5b505afa1580156115d1573d6000803e3d6000fd5b505050506040513d601f19601f820116820180604052508101906115f5919061296d565b945061160386868c8c611dc9565b821561167b576116746008600e9054906101000a90046dffffffffffffffffffffffffffff166dffffffffffffffffffffffffffff16600860009054906101000a90046dffffffffffffffffffffffffffff166dffffffffffffffffffffffffffff16611d9d90919063ffffffff16565b600b819055505b505050505050505050506001600c81905550915091565b6040518060400160405280600781526020017f43616b652d4c500000000000000000000000000000000000000000000000000081525081565b60006116d83384846120d2565b6001905092915050565b6103e881565b6001600c541461172d576040517f08c379a000000000000000000000000000000000000000000000000000000000815260040161172490612fe7565b60405180910390fd5b6000600c819055506000600660009054906101000a900473ffffffffffffffffffffffffffffffffffffffff1690506000600760009054906101000a900473ffffffffffffffffffffffffffffffffffffffff169050611854828461184f600860009054906101000a90046dffffffffffffffffffffffffffff166dffffffffffffffffffffffffffff168673ffffffffffffffffffffffffffffffffffffffff166370a08231306040518263ffffffff1660e01b81526004016117f19190612e3d565b60206040518083038186803b15801561180957600080fd5b505afa15801561181d573d6000803e3d6000fd5b505050506040513d601f19601f82011682018060405250810190611841919061296d565b611db390919063ffffffff16565b611ccc565b61192581846119206008600e9054906101000a90046dffffffffffffffffffffffffffff166dffffffffffffffffffffffffffff168573ffffffffffffffffffffffffffffffffffffffff166370a08231306040518263ffffffff1660e01b81526004016118c29190612e3d565b60206040518083038186803b1580156118da57600080fd5b505afa1580156118ee573d6000803e3d6000fd5b505050506040513d601f19601f82011682018060405250810190611912919061296d565b611db390919063ffffffff16565b611ccc565b50506001600c8190555050565b600560009054906101000a900473ffffffffffffffffffffffffffffffffffffffff1681565b600760009054906101000a900473ffffffffffffffffffffffffffffffffffffffff1681565b50505050505050565b6002602052816000526040600020602052806000526040600020600091509150505481565b600560009054906101000a900473ffffffffffffffffffffffffffffffffffffffff1673ffffffffffffffffffffffffffffffffffffffff163373ffffffffffffffffffffffffffffffffffffffff1614611a3c576040517f08c379a0000000000000000000000000000000000000000000000000000000008152600401611a3390613067565b60405180910390fd5b82600660006101000a81548173ffffffffffffffffffffffffffffffffffffffff021916908373ffffffffffffffffffffffffffffffffffffffff16021790555081600760006101000a81548173ffffffffffffffffffffffffffffffffffffffff021916908373ffffffffffffffffffffffffffffffffffffffff16021790555080600d60006101000a81548160ff021916908315150217905550505050565b6001600c5414611b22576040517f08c379a0000000000000000000000000000000000000000000000000000000008152600401611b1990612fe7565b60405180910390fd5b6000600c81905550611cc2600660009054906101000a900473ffffffffffffffffffffffffffffffffffffffff1673ffffffffffffffffffffffffffffffffffffffff166370a08231306040518263ffffffff1660e01b8152600401611b889190612e3d565b60206040518083038186803b158015611ba057600080fd5b505afa158015611bb4573d6000803e3d6000fd5b505050506040513d601f19601f82011682018060405250810190611bd8919061296d565b600760009054906101000a900473ffffffffffffffffffffffffffffffffffffffff1673ffffffffffffffffffffffffffffffffffffffff166370a08231306040518263ffffffff1660e01b8152600401611c339190612e3d565b60206040518083038186803b158015611c4b57600080fd5b505afa158015611c5f573d6000803e3d6000fd5b505050506040513d601f19601f82011682018060405250810190611c83919061296d565b600860009054906101000a90046dffffffffffffffffffffffffffff166008600e9054906101000a90046dffffffffffffffffffffffffffff16611dc9565b6001600c81905550565b8273ffffffffffffffffffffffffffffffffffffffff1663a9059cbb83836040518363ffffffff1660e01b8152600401611d07929190612e58565b602060405180830381600087803b158015611d2157600080fd5b505af1158015611d35573d6000803e3d6000fd5b505050506040513d601f19601f82011682018060405250810190611d599190612944565b611d98576040517f08c379a0000000000000000000000000000000000000000000000000000000008152600401611d8f90612f87565b60405180910390fd5b505050565b60008183611dab9190613258565b905092915050565b60008183611dc191906132b2565b905092915050565b6dffffffffffffffffffffffffffff80168411158015611df957506dffffffffffffffffffffffffffff80168311155b611e38576040517f08c379a0000000000000000000000000000000000000000000000000000000008152600401611e2f90613027565b60405180910390fd5b600064010000000042611e4b919061340d565b905060006008601c9054906101000a900463ffffffff1682611e6d91906132e6565b905060008163ffffffff16118015611e9657506000846dffffffffffffffffffffffffffff1614155b8015611eb357506000836dffffffffffffffffffffffffffff1614155b15611fb9578063ffffffff16611ef885611ecc866125dc565b7bffffffffffffffffffffffffffffffffffffffffffffffffffffffff1661261090919063ffffffff16565b7bffffffffffffffffffffffffffffffffffffffffffffffffffffffff16611f209190613258565b60096000828254611f31919061314a565b925050819055508063ffffffff16611f7884611f4c876125dc565b7bffffffffffffffffffffffffffffffffffffffffffffffffffffffff1661261090919063ffffffff16565b7bffffffffffffffffffffffffffffffffffffffffffffffffffffffff16611fa09190613258565b600a6000828254611fb1919061314a565b925050819055505b85600860006101000a8154816dffffffffffffffffffffffffffff02191690836dffffffffffffffffffffffffffff160217905550846008600e6101000a8154816dffffffffffffffffffffffffffff02191690836dffffffffffffffffffffffffffff160217905550816008601c6101000a81548163ffffffff021916908363ffffffff160217905550505050505050565b80600260008573ffffffffffffffffffffffffffffffffffffffff1673ffffffffffffffffffffffffffffffffffffffff16815260200190815260200160002060008473ffffffffffffffffffffffffffffffffffffffff1673ffffffffffffffffffffffffffffffffffffffff16815260200190815260200160002081905550505050565b61212481600160008673ffffffffffffffffffffffffffffffffffffffff1673ffffffffffffffffffffffffffffffffffffffff16815260200190815260200160002054611db390919063ffffffff16565b600160008573ffffffffffffffffffffffffffffffffffffffff1673ffffffffffffffffffffffffffffffffffffffff168152602001908152602001600020819055506121b981600160008573ffffffffffffffffffffffffffffffffffffffff1673ffffffffffffffffffffffffffffffffffffffff1681526020019081526020016000205461263690919063ffffffff16565b600160008473ffffffffffffffffffffffffffffffffffffffff1673ffffffffffffffffffffffffffffffffffffffff16815260200190815260200160002081905550505050565b600080600560009054906101000a900473ffffffffffffffffffffffffffffffffffffffff1673ffffffffffffffffffffffffffffffffffffffff1663017e7e586040518163ffffffff1660e01b815260040160206040518083038186803b15801561226c57600080fd5b505afa158015612280573d6000803e3d6000fd5b505050506040513d601f19601f820116820180604052508101906122a49190612767565b9050600073ffffffffffffffffffffffffffffffffffffffff168173ffffffffffffffffffffffffffffffffffffffff16141591506000600b54905082156123c757600081146123c257600061232b612326866dffffffffffffffffffffffffffff16886dffffffffffffffffffffffffffff16611d9d90919063ffffffff16565b6123e1565b90506000612338836123e1565b9050808211156123bf57600061236b61235a8385611db390919063ffffffff16565b600054611d9d90919063ffffffff16565b9050600061239583612387600387611d9d90919063ffffffff16565b61263690919063ffffffff16565b9050600081836123a591906131d1565b905060008111156123bb576123ba878261245b565b5b5050505b50505b6123d9565b600081146123d8576000600b819055505b5b505092915050565b60006003821115612448578190506000600160028461240091906131d1565b61240a919061314a565b90505b8181101561244257809150600281828561242791906131d1565b612431919061314a565b61243b91906131d1565b905061240d565b50612456565b6000821461245557600190505b5b919050565b6124708160005461263690919063ffffffff16565b6000819055506124c881600160008573ffffffffffffffffffffffffffffffffffffffff1673ffffffffffffffffffffffffffffffffffffffff1681526020019081526020016000205461263690919063ffffffff16565b600160008473ffffffffffffffffffffffffffffffffffffffff1673ffffffffffffffffffffffffffffffffffffffff168152602001908152602001600020819055505050565b600081831061251e5781612520565b825b905092915050565b61257a81600160008573ffffffffffffffffffffffffffffffffffffffff1673ffffffffffffffffffffffffffffffffffffffff16815260200190815260200160002054611db390919063ffffffff16565b600160008473ffffffffffffffffffffffffffffffffffffffff1673ffffffffffffffffffffffffffffffffffffffff168152602001908152602001600020819055506125d281600054611db390919063ffffffff16565b6000819055505050565b60006e010000000000000000000000000000826dffffffffffffffffffffffffffff166126099190613202565b9050919050565b6000816dffffffffffffffffffffffffffff168361262e91906131a0565b905092915050565b60008183612644919061314a565b905092915050565b60008135905061265b816134ad565b92915050565b600081519050612670816134ad565b92915050565b600081359050612685816134c4565b92915050565b60008151905061269a816134c4565b92915050565b6000813590506126af816134db565b92915050565b60008083601f8401126126c757600080fd5b8235905067ffffffffffffffff8111156126e057600080fd5b6020830191508360018202830111156126f857600080fd5b9250929050565b60008135905061270e816134f2565b92915050565b600081519050612723816134f2565b92915050565b60008135905061273881613509565b92915050565b60006020828403121561275057600080fd5b600061275e8482850161264c565b91505092915050565b60006020828403121561277957600080fd5b600061278784828501612661565b91505092915050565b600080604083850312156127a357600080fd5b60006127b18582860161264c565b92505060206127c28582860161264c565b9150509250929050565b6000806000606084860312156127e157600080fd5b60006127ef8682870161264c565b93505060206128008682870161264c565b925050604061281186828701612676565b9150509250925092565b60008060006060848603121561283057600080fd5b600061283e8682870161264c565b935050602061284f8682870161264c565b9250506040612860868287016126ff565b9150509250925092565b600080600080600080600060e0888a03121561288557600080fd5b60006128938a828b0161264c565b97505060206128a48a828b0161264c565b96505060406128b58a828b016126ff565b95505060606128c68a828b016126ff565b94505060806128d78a828b01612729565b93505060a06128e88a828b016126a0565b92505060c06128f98a828b016126a0565b91505092959891949750929550565b6000806040838503121561291b57600080fd5b60006129298582860161264c565b925050602061293a858286016126ff565b9150509250929050565b60006020828403121561295657600080fd5b60006129648482850161268b565b91505092915050565b60006020828403121561297f57600080fd5b600061298d84828501612714565b91505092915050565b6000806000806000608086880312156129ae57600080fd5b60006129bc888289016126ff565b95505060206129cd888289016126ff565b94505060406129de8882890161264c565b935050606086013567ffffffffffffffff8111156129fb57600080fd5b612a07888289016126b5565b92509250509295509295909350565b612a1f8161331a565b82525050565b612a2e8161332c565b82525050565b612a3d81613338565b82525050565b6000612a4f8385613128565b9350612a5c8385846133cb565b612a658361349c565b840190509392505050565b6000612a7b8261311d565b612a858185613139565b9350612a958185602086016133da565b612a9e8161349c565b840191505092915050565b6000612ab6601383613139565b91507f50616e63616b653a20494e56414c49445f544f000000000000000000000000006000830152602082019050919050565b6000612af6600a83613139565b91507f50616e63616b653a204b000000000000000000000000000000000000000000006000830152602082019050919050565b6000612b36601f83613139565b91507f50616e63616b653a20494e53554646494349454e545f4c4951554944495459006000830152602082019050919050565b6000612b76601883613139565b91507f50616e63616b653a205452414e534645525f4641494c454400000000000000006000830152602082019050919050565b6000612bb6602283613139565b91507f50616e63616b653a20494e53554646494349454e545f494e5055545f414d4f5560008301527f4e540000000000000000000000000000000000000000000000000000000000006020830152604082019050919050565b6000612c1c602683613139565b91507f50616e63616b653a20494e53554646494349454e545f4c49515549444954595f60008301527f4255524e454400000000000000000000000000000000000000000000000000006020830152604082019050919050565b6000612c82600f83613139565b91507f50616e63616b653a204c4f434b454400000000000000000000000000000000006000830152602082019050919050565b6000612cc2602383613139565b91507f50616e63616b653a20494e53554646494349454e545f4f55545055545f414d4f60008301527f554e5400000000000000000000000000000000000000000000000000000000006020830152604082019050919050565b6000612d28601183613139565b91507f50616e63616b653a204f564552464c4f570000000000000000000000000000006000830152602082019050919050565b6000612d68602683613139565b91507f50616e63616b653a20494e53554646494349454e545f4c49515549444954595f60008301527f4d494e54454400000000000000000000000000000000000000000000000000006020830152604082019050919050565b6000612dce601283613139565b91507f50616e63616b653a20464f5242494444454e00000000000000000000000000006000830152602082019050919050565b612e0a81613342565b82525050565b612e19816133a4565b82525050565b612e28816133ae565b82525050565b612e37816133be565b82525050565b6000602082019050612e526000830184612a16565b92915050565b6000604082019050612e6d6000830185612a16565b612e7a6020830184612e10565b9392505050565b6000608082019050612e966000830188612a16565b612ea36020830187612e10565b612eb06040830186612e10565b8181036060830152612ec3818486612a43565b90509695505050505050565b6000602082019050612ee46000830184612a25565b92915050565b6000602082019050612eff6000830184612a34565b92915050565b60006020820190508181036000830152612f1f8184612a70565b905092915050565b60006020820190508181036000830152612f4081612aa9565b9050919050565b60006020820190508181036000830152612f6081612ae9565b9050919050565b60006020820190508181036000830152612f8081612b29565b9050919050565b60006020820190508181036000830152612fa081612b69565b9050919050565b60006020820190508181036000830152612fc081612ba9565b9050919050565b60006020820190508181036000830152612fe081612c0f565b9050919050565b6000602082019050818103600083015261300081612c75565b9050919050565b6000602082019050818103600083015261302081612cb5565b9050919050565b6000602082019050818103600083015261304081612d1b565b9050919050565b6000602082019050818103600083015261306081612d5b565b9050919050565b6000602082019050818103600083015261308081612dc1565b9050919050565b600060608201905061309c6000830186612e01565b6130a96020830185612e01565b6130b66040830184612e1f565b949350505050565b60006020820190506130d36000830184612e10565b92915050565b60006040820190506130ee6000830185612e10565b6130fb6020830184612e10565b9392505050565b60006020820190506131176000830184612e2e565b92915050565b600081519050919050565b600082825260208201905092915050565b600082825260208201905092915050565b6000613155826133a4565b9150613160836133a4565b9250827fffffffffffffffffffffffffffffffffffffffffffffffffffffffffffffffff038211156131955761319461343e565b5b828201905092915050565b60006131ab8261337c565b91506131b68361337c565b9250826131c6576131c561346d565b5b828204905092915050565b60006131dc826133a4565b91506131e7836133a4565b9250826131f7576131f661346d565b5b828204905092915050565b600061320d8261337c565b91506132188361337c565b9250817bffffffffffffffffffffffffffffffffffffffffffffffffffffffff048311821515161561324d5761324c61343e565b5b828202905092915050565b6000613263826133a4565b915061326e836133a4565b9250817fffffffffffffffffffffffffffffffffffffffffffffffffffffffffffffffff04831182151516156132a7576132a661343e565b5b828202905092915050565b60006132bd826133a4565b91506132c8836133a4565b9250828210156132db576132da61343e565b5b828203905092915050565b60006132f1826133ae565b91506132fc836133ae565b92508282101561330f5761330e61343e565b5b828203905092915050565b60006133258261335c565b9050919050565b60008115159050919050565b6000819050919050565b60006dffffffffffffffffffffffffffff82169050919050565b600073ffffffffffffffffffffffffffffffffffffffff82169050919050565b60007bffffffffffffffffffffffffffffffffffffffffffffffffffffffff82169050919050565b6000819050919050565b600063ffffffff82169050919050565b600060ff82169050919050565b82818337600083830152505050565b60005b838110156133f85780820151818401526020810190506133dd565b83811115613407576000848401525b50505050565b6000613418826133a4565b9150613423836133a4565b9250826134335761343261346d565b5b828206905092915050565b7f4e487b7100000000000000000000000000000000000000000000000000000000600052601160045260246000fd5b7f4e487b7100000000000000000000000000000000000000000000000000000000600052601260045260246000fd5b6000601f19601f8301169050919050565b6134b68161331a565b81146134c157600080fd5b50565b6134cd8161332c565b81146134d857600080fd5b50565b6134e481613338565b81146134ef57600080fd5b50565b6134fb816133a4565b811461350657600080fd5b50565b613512816133be565b811461351d57600080fd5b5056fea2646970667358221220ecacddeffde53cadb79ff296ec6424823992db5e693dd596c076d34b99e905b564736f6c63430008000033",
  "linkReferences": {},
  "deployedLinkReferences": {}
}