{
  "_format": "hh-sol-artifact-1",
  "contractName": "PancakePair",
  "sourceName": "contracts/pancekeswap-fork/pancakepair.sol",
  "abi": [
    {
      "inputs": [],
      "stateMutability": "nonpayable",
      "type": "constructor"
    },
    {
      "inputs": [],
      "name": "DOMAIN_SEPARATOR",
      "outputs": [
        {
          "internalType": "bytes32",
          "name": "",
          "type": "bytes32"
        }
      ],
      "stateMutability": "view",
      "type": "function"
    },
    {
      "inputs": [],
      "name": "MINIMUM_LIQUIDITY",
      "outputs": [
        {
          "internalType": "uint256",
          "name": "",
          "type": "uint256"
        }
      ],
      "stateMutability": "view",
      "type": "function"
    },
    {
      "inputs": [
        {
          "internalType": "address",
          "name": "",
          "type": "address"
        },
        {
          "internalType": "address",
          "name": "",
          "type": "address"
        }
      ],
      "name": "allowance",
      "outputs": [
        {
          "internalType": "uint256",
          "name": "",
          "type": "uint256"
        }
      ],
      "stateMutability": "view",
      "type": "function"
    },
    {
      "inputs": [
        {
          "internalType": "address",
          "name": "spender",
          "type": "address"
        },
        {
          "internalType": "uint256",
          "name": "value",
          "type": "uint256"
        }
      ],
      "name": "approve",
      "outputs": [
        {
          "internalType": "bool",
          "name": "",
          "type": "bool"
        }
      ],
      "stateMutability": "nonpayable",
      "type": "function"
    },
    {
      "inputs": [
        {
          "internalType": "address",
          "name": "",
          "type": "address"
        }
      ],
      "name": "balanceOf",
      "outputs": [
        {
          "internalType": "uint256",
          "name": "",
          "type": "uint256"
        }
      ],
      "stateMutability": "view",
      "type": "function"
    },
    {
      "inputs": [
        {
          "internalType": "address",
          "name": "to",
          "type": "address"
        }
      ],
      "name": "burn",
      "outputs": [
        {
          "internalType": "uint256",
          "name": "amount0",
          "type": "uint256"
        },
        {
          "internalType": "uint256",
          "name": "amount1",
          "type": "uint256"
        }
      ],
      "stateMutability": "nonpayable",
      "type": "function"
    },
    {
      "inputs": [],
      "name": "decimals",
      "outputs": [
        {
          "internalType": "uint8",
          "name": "",
          "type": "uint8"
        }
      ],
      "stateMutability": "view",
      "type": "function"
    },
    {
      "inputs": [],
      "name": "factory",
      "outputs": [
        {
          "internalType": "address",
          "name": "",
          "type": "address"
        }
      ],
      "stateMutability": "view",
      "type": "function"
    },
    {
      "inputs": [],
      "name": "getReserves",
      "outputs": [
        {
          "internalType": "uint112",
          "name": "_reserve0",
          "type": "uint112"
        },
        {
          "internalType": "uint112",
          "name": "_reserve1",
          "type": "uint112"
        },
        {
          "internalType": "uint32",
          "name": "_blockTimestampLast",
          "type": "uint32"
        }
      ],
      "stateMutability": "view",
      "type": "function"
    },
    {
      "inputs": [
        {
          "internalType": "address",
          "name": "_token0",
          "type": "address"
        },
        {
          "internalType": "address",
          "name": "_token1",
          "type": "address"
        }
      ],
      "name": "initialize",
      "outputs": [],
      "stateMutability": "nonpayable",
      "type": "function"
    },
    {
      "inputs": [],
      "name": "kLast",
      "outputs": [
        {
          "internalType": "uint256",
          "name": "",
          "type": "uint256"
        }
      ],
      "stateMutability": "view",
      "type": "function"
    },
    {
      "inputs": [
        {
          "internalType": "address",
          "name": "to",
          "type": "address"
        }
      ],
      "name": "mint",
      "outputs": [
        {
          "internalType": "uint256",
          "name": "liquidity",
          "type": "uint256"
        }
      ],
      "stateMutability": "nonpayable",
      "type": "function"
    },
    {
      "inputs": [],
      "name": "name",
      "outputs": [
        {
          "internalType": "string",
          "name": "",
          "type": "string"
        }
      ],
      "stateMutability": "view",
      "type": "function"
    },
    {
      "inputs": [
        {
          "internalType": "address",
          "name": "",
          "type": "address"
        }
      ],
      "name": "nonces",
      "outputs": [
        {
          "internalType": "uint256",
          "name": "",
          "type": "uint256"
        }
      ],
      "stateMutability": "view",
      "type": "function"
    },
    {
      "inputs": [
        {
          "internalType": "address",
          "name": "owner",
          "type": "address"
        },
        {
          "internalType": "address",
          "name": "spender",
          "type": "address"
        },
        {
          "internalType": "uint256",
          "name": "value",
          "type": "uint256"
        },
        {
          "internalType": "uint256",
          "name": "deadline",
          "type": "uint256"
        },
        {
          "internalType": "uint8",
          "name": "v",
          "type": "uint8"
        },
        {
          "internalType": "bytes32",
          "name": "r",
          "type": "bytes32"
        },
        {
          "internalType": "bytes32",
          "name": "s",
          "type": "bytes32"
        }
      ],
      "name": "permit",
      "outputs": [],
      "stateMutability": "nonpayable",
      "type": "function"
    },
    {
      "inputs": [],
      "name": "price0CumulativeLast",
      "outputs": [
        {
          "internalType": "uint256",
          "name": "",
          "type": "uint256"
        }
      ],
      "stateMutability": "view",
      "type": "function"
    },
    {
      "inputs": [],
      "name": "price1CumulativeLast",
      "outputs": [
        {
          "internalType": "uint256",
          "name": "",
          "type": "uint256"
        }
      ],
      "stateMutability": "view",
      "type": "function"
    },
    {
      "inputs": [
        {
          "internalType": "address",
          "name": "to",
          "type": "address"
        }
      ],
      "name": "skim",
      "outputs": [],
      "stateMutability": "nonpayable",
      "type": "function"
    },
    {
      "inputs": [
        {
          "internalType": "uint256",
          "name": "amount0Out",
          "type": "uint256"
        },
        {
          "internalType": "uint256",
          "name": "amount1Out",
          "type": "uint256"
        },
        {
          "internalType": "address",
          "name": "to",
          "type": "address"
        },
        {
          "internalType": "bytes",
          "name": "data",
          "type": "bytes"
        }
      ],
      "name": "swap",
      "outputs": [],
      "stateMutability": "nonpayable",
      "type": "function"
    },
    {
      "inputs": [],
      "name": "symbol",
      "outputs": [
        {
          "internalType": "string",
          "name": "",
          "type": "string"
        }
      ],
      "stateMutability": "view",
      "type": "function"
    },
    {
      "inputs": [],
      "name": "sync",
      "outputs": [],
      "stateMutability": "nonpayable",
      "type": "function"
    },
    {
      "inputs": [],
      "name": "token0",
      "outputs": [
        {
          "internalType": "address",
          "name": "",
          "type": "address"
        }
      ],
      "stateMutability": "view",
      "type": "function"
    },
    {
      "inputs": [],
      "name": "token1",
      "outputs": [
        {
          "internalType": "address",
          "name": "",
          "type": "address"
        }
      ],
      "stateMutability": "view",
      "type": "function"
    },
    {
      "inputs": [],
      "name": "totalSupply",
      "outputs": [
        {
          "internalType": "uint256",
          "name": "",
          "type": "uint256"
        }
      ],
      "stateMutability": "view",
      "type": "function"
    },
    {
      "inputs": [
        {
          "internalType": "address",
          "name": "to",
          "type": "address"
        },
        {
          "internalType": "uint256",
          "name": "value",
          "type": "uint256"
        }
      ],
      "name": "transfer",
      "outputs": [
        {
          "internalType": "bool",
          "name": "",
          "type": "bool"
        }
      ],
      "stateMutability": "nonpayable",
      "type": "function"
    },
    {
      "inputs": [
        {
          "internalType": "address",
          "name": "from",
          "type": "address"
        },
        {
          "internalType": "address",
          "name": "to",
          "type": "address"
        },
        {
          "internalType": "uint256",
          "name": "value",
          "type": "uint256"
        }
      ],
      "name": "transferFrom",
      "outputs": [
        {
          "internalType": "bool",
          "name": "",
          "type": "bool"
        }
      ],
      "stateMutability": "nonpayable",
      "type": "function"
    }
  ],
  "bytecode": "0x60806040526001600c5534801561001557600080fd5b50604080518082018252600b81526a50616e63616b65204c507360a81b6020918201528151808301835260018152603160f81b90820152905146916100c4917f8b73c3c69bb8fe3d512ecc4cf759cc79239f7b179b0ffacaa9a75d522b39400f917fe87cb5a4dc26cf9451529a20899fcee996799afd48d7c0db7c25e150b364661d917fc89efdaa54c0f20c7adf612882df0950f5a951637e0307cdcb4c672f298b8bc69186913091016100f7565b60408051601f19818403018152919052805160209091012060035550600580546001600160a01b03191633179055610123565b9485526020850193909352604084019190915260608301526001600160a01b0316608082015260a00190565b612b1980620001336000396000f3fe608060405234801561001057600080fd5b50600436106101ae5760003560e01c806370a08231116100ee578063ba9a7a5611610097578063d21220a711610071578063d21220a71461033a578063d505accf14610342578063dd62ed3e14610355578063fff6cae914610368576101ae565b8063ba9a7a5614610317578063bc25cf771461031f578063c45a015514610332576101ae565b806389afcb44116100c857806389afcb44146102db57806395d89b41146102fc578063a9059cbb14610304576101ae565b806370a08231146102ad5780637464fc3d146102c05780637ecebe00146102c8576101ae565b806323b872dd1161015b578063485cc95511610135578063485cc955146102775780635909c0d51461028a5780635a3d5493146102925780636a6278421461029a576101ae565b806323b872dd14610247578063313ce5671461025a5780633644e5151461026f576101ae565b8063095ea7b31161018c578063095ea7b3146101fd5780630dfe16811461021d57806318160ddd14610232576101ae565b8063022c0d9f146101b357806306fdde03146101c85780630902f1ac146101e6575b600080fd5b6101c66101c13660046123b7565b610370565b005b6101d06108c0565b6040516101dd9190612584565b60405180910390f35b6101ee6108f9565b6040516101dd939291906128c4565b61021061020b366004612354565b61094e565b6040516101dd9190612570565b610225610964565b6040516101dd91906124b1565b61023a610980565b6040516101dd919061257b565b61021061025536600461229f565b610986565b610262610a5f565b6040516101dd919061291d565b61023a610a64565b6101c6610285366004612267565b610a6a565b61023a610b0e565b61023a610b14565b61023a6102a836600461222f565b610b1a565b61023a6102bb36600461222f565b610e39565b61023a610e4b565b61023a6102d636600461222f565b610e51565b6102ee6102e936600461222f565b610e63565b6040516101dd9291906128f4565b6101d0611369565b610210610312366004612354565b6113a2565b61023a6113af565b6101c661032d36600461222f565b6113b5565b610225611544565b610225611560565b6101c66103503660046122df565b61157c565b61023a610363366004612267565b611585565b6101c66115a2565b600c546001146103b5576040517f08c379a00000000000000000000000000000000000000000000000000000000081526004016103ac90612765565b60405180910390fd5b6000600c55841515806103c85750600084115b6103fe576040517f08c379a00000000000000000000000000000000000000000000000000000000081526004016103ac9061279c565b6000806104096108f9565b5091509150816dffffffffffffffffffffffffffff168710801561043c5750806dffffffffffffffffffffffffffff1686105b610472576040517f08c379a00000000000000000000000000000000000000000000000000000000081526004016103ac9061263d565b600654600754600091829173ffffffffffffffffffffffffffffffffffffffff9182169190811690891682148015906104d757508073ffffffffffffffffffffffffffffffffffffffff168973ffffffffffffffffffffffffffffffffffffffff1614155b61050d576040517f08c379a00000000000000000000000000000000000000000000000000000000081526004016103ac906125cf565b8a1561051e5761051e828a8d611766565b891561052f5761052f818a8c611766565b86156105c2576040517f8480081200000000000000000000000000000000000000000000000000000000815273ffffffffffffffffffffffffffffffffffffffff8a169063848008129061058f9033908f908f908e908e906004016124f8565b600060405180830381600087803b1580156105a957600080fd5b505af11580156105bd573d6000803e3d6000fd5b505050505b6040517f70a0823100000000000000000000000000000000000000000000000000000000815273ffffffffffffffffffffffffffffffffffffffff8316906370a08231906106149030906004016124b1565b60206040518083038186803b15801561062c57600080fd5b505afa158015610640573d6000803e3d6000fd5b505050506040513d601f19601f82011682018060405250810190610664919061239f565b6040517f70a0823100000000000000000000000000000000000000000000000000000000815290945073ffffffffffffffffffffffffffffffffffffffff8216906370a08231906106b99030906004016124b1565b60206040518083038186803b1580156106d157600080fd5b505afa1580156106e5573d6000803e3d6000fd5b505050506040513d601f19601f82011682018060405250810190610709919061239f565b92505050600089856dffffffffffffffffffffffffffff1661072b9190612a13565b831161073857600061075c565b6107528a6dffffffffffffffffffffffffffff8716612a13565b61075c9084612a13565b9050600061077a8a6dffffffffffffffffffffffffffff8716612a13565b83116107875760006107ab565b6107a18a6dffffffffffffffffffffffffffff8716612a13565b6107ab9084612a13565b905060008211806107bc5750600081115b6107f2576040517f08c379a00000000000000000000000000000000000000000000000000000000081526004016103ac906126ab565b6107fe84848484611886565b600061082061080e846002611921565b61081a876103e8611921565b90611934565b9050600061083261080e846002611921565b905061085e620f42406108586dffffffffffffffffffffffffffff8b8116908b16611921565b90611921565b6108688383611921565b10156108a0576040517f08c379a00000000000000000000000000000000000000000000000000000000081526004016103ac90612606565b50506108ae84848888611940565b50506001600c55505050505050505050565b6040518060400160405280600b81526020017f50616e63616b65204c507300000000000000000000000000000000000000000081525081565b6008546dffffffffffffffffffffffffffff808216926e0100000000000000000000000000008304909116917c0100000000000000000000000000000000000000000000000000000000900463ffffffff1690565b600061095b338484611bc8565b50600192915050565b60065473ffffffffffffffffffffffffffffffffffffffff1681565b60005481565b73ffffffffffffffffffffffffffffffffffffffff831660009081526002602090815260408083203384529091528120547fffffffffffffffffffffffffffffffffffffffffffffffffffffffffffffffff14610a4a5773ffffffffffffffffffffffffffffffffffffffff84166000908152600260209081526040808320338452909152902054610a189083611934565b73ffffffffffffffffffffffffffffffffffffffff851660009081526002602090815260408083203384529091529020555b610a55848484611c01565b5060019392505050565b601281565b60035481565b60055473ffffffffffffffffffffffffffffffffffffffff163314610abb576040517f08c379a00000000000000000000000000000000000000000000000000000000081526004016103ac9061288d565b6006805473ffffffffffffffffffffffffffffffffffffffff9384167fffffffffffffffffffffffff00000000000000000000000000000000000000009182161790915560078054929093169116179055565b60095481565b600a5481565b6000600c54600114610b58576040517f08c379a00000000000000000000000000000000000000000000000000000000081526004016103ac90612765565b6000600c81905580610b686108f9565b506006546040517f70a0823100000000000000000000000000000000000000000000000000000000815292945090925060009173ffffffffffffffffffffffffffffffffffffffff909116906370a0823190610bc89030906004016124b1565b60206040518083038186803b158015610be057600080fd5b505afa158015610bf4573d6000803e3d6000fd5b505050506040513d601f19601f82011682018060405250810190610c18919061239f565b6007546040517f70a0823100000000000000000000000000000000000000000000000000000000815291925060009173ffffffffffffffffffffffffffffffffffffffff909116906370a0823190610c749030906004016124b1565b60206040518083038186803b158015610c8c57600080fd5b505afa158015610ca0573d6000803e3d6000fd5b505050506040513d601f19601f82011682018060405250810190610cc4919061239f565b90506000610ce2836dffffffffffffffffffffffffffff8716611934565b90506000610d00836dffffffffffffffffffffffffffff8716611934565b90506000610d0e8787611c9b565b60005490915080610d4557610d316103e861081a610d2c8787611921565b611e15565b9850610d4060006103e8611e85565b610d9a565b610d976dffffffffffffffffffffffffffff8916610d638684611921565b610d6d919061297e565b6dffffffffffffffffffffffffffff8916610d888685611921565b610d92919061297e565b611ef1565b98505b60008911610dd4576040517f08c379a00000000000000000000000000000000000000000000000000000000081526004016103ac90612830565b610dde8a8a611e85565b610dea86868a8a611940565b8115610e2657600854610e22906dffffffffffffffffffffffffffff808216916e010000000000000000000000000000900416611921565b600b555b50506001600c5550949695505050505050565b60016020526000908152604090205481565b600b5481565b60046020526000908152604090205481565b600080600c54600114610ea2576040517f08c379a00000000000000000000000000000000000000000000000000000000081526004016103ac90612765565b6000600c5560408051808201909152600581527f6275726e6e0000000000000000000000000000000000000000000000000000006020820152610ee490611f07565b600080610eef6108f9565b506006546007546040517f70a0823100000000000000000000000000000000000000000000000000000000815293955091935073ffffffffffffffffffffffffffffffffffffffff9081169291169060009083906370a0823190610f579030906004016124b1565b60206040518083038186803b158015610f6f57600080fd5b505afa158015610f83573d6000803e3d6000fd5b505050506040513d601f19601f82011682018060405250810190610fa7919061239f565b905060008273ffffffffffffffffffffffffffffffffffffffff166370a08231306040518263ffffffff1660e01b8152600401610fe491906124b1565b60206040518083038186803b158015610ffc57600080fd5b505afa158015611010573d6000803e3d6000fd5b505050506040513d601f19601f82011682018060405250810190611034919061239f565b306000908152600160205260408120549192506110518888611c9b565b600054909150806110628487611921565b61106c919061297e565b9a50806110798486611921565b611083919061297e565b995061108f8b8b611f99565b6110998585611f99565b6110a28361202e565b60008b1180156110b2575060008a115b6110e8576040517f08c379a00000000000000000000000000000000000000000000000000000000081526004016103ac90612708565b6110f230846120bd565b6111306040518060400160405280600481526020017f6275726e00000000000000000000000000000000000000000000000000000000815250611f07565b61113b878d8d611766565b6111796040518060400160405280600481526020017f63616b6500000000000000000000000000000000000000000000000000000000815250611f07565b611184868d8c611766565b6111c26040518060400160405280600381526020017f626e620000000000000000000000000000000000000000000000000000000000815250611f07565b6040517f70a0823100000000000000000000000000000000000000000000000000000000815273ffffffffffffffffffffffffffffffffffffffff8816906370a08231906112149030906004016124b1565b60206040518083038186803b15801561122c57600080fd5b505afa158015611240573d6000803e3d6000fd5b505050506040513d601f19601f82011682018060405250810190611264919061239f565b6040517f70a0823100000000000000000000000000000000000000000000000000000000815290955073ffffffffffffffffffffffffffffffffffffffff8716906370a08231906112b99030906004016124b1565b60206040518083038186803b1580156112d157600080fd5b505afa1580156112e5573d6000803e3d6000fd5b505050506040513d601f19601f82011682018060405250810190611309919061239f565b935061131785858b8b611940565b81156113535760085461134f906dffffffffffffffffffffffffffff808216916e010000000000000000000000000000900416611921565b600b555b5050505050505050506001600c81905550915091565b6040518060400160405280600781526020017f43616b652d4c500000000000000000000000000000000000000000000000000081525081565b600061095b338484611c01565b6103e881565b600c546001146113f1576040517f08c379a00000000000000000000000000000000000000000000000000000000081526004016103ac90612765565b6000600c556006546007546008546040517f70a0823100000000000000000000000000000000000000000000000000000000815273ffffffffffffffffffffffffffffffffffffffff93841693909216916114cc91849186916114c7916dffffffffffffffffffffffffffff9091169084906370a08231906114779030906004016124b1565b60206040518083038186803b15801561148f57600080fd5b505afa1580156114a3573d6000803e3d6000fd5b505050506040513d601f19601f8201168201806040525081019061081a919061239f565b611766565b61153a81846114c76008600e9054906101000a90046dffffffffffffffffffffffffffff166dffffffffffffffffffffffffffff168573ffffffffffffffffffffffffffffffffffffffff166370a08231306040518263ffffffff1660e01b815260040161147791906124b1565b50506001600c5550565b60055473ffffffffffffffffffffffffffffffffffffffff1681565b60075473ffffffffffffffffffffffffffffffffffffffff1681565b50505050505050565b600260209081526000928352604080842090915290825290205481565b600c546001146115de576040517f08c379a00000000000000000000000000000000000000000000000000000000081526004016103ac90612765565b6000600c556006546040517f70a0823100000000000000000000000000000000000000000000000000000000815261175f9173ffffffffffffffffffffffffffffffffffffffff16906370a082319061163b9030906004016124b1565b60206040518083038186803b15801561165357600080fd5b505afa158015611667573d6000803e3d6000fd5b505050506040513d601f19601f8201168201806040525081019061168b919061239f565b6007546040517f70a0823100000000000000000000000000000000000000000000000000000000815273ffffffffffffffffffffffffffffffffffffffff909116906370a08231906116e19030906004016124b1565b60206040518083038186803b1580156116f957600080fd5b505afa15801561170d573d6000803e3d6000fd5b505050506040513d601f19601f82011682018060405250810190611731919061239f565b6008546dffffffffffffffffffffffffffff808216916e010000000000000000000000000000900416611940565b6001600c55565b6117a56040518060400160405280600481526020017f6d6973730000000000000000000000000000000000000000000000000000000081525084612128565b6040517fa9059cbb00000000000000000000000000000000000000000000000000000000815273ffffffffffffffffffffffffffffffffffffffff84169063a9059cbb906117f990859085906004016124d2565b602060405180830381600087803b15801561181357600080fd5b505af1158015611827573d6000803e3d6000fd5b505050506040513d601f19601f8201168201806040525081019061184b919061237f565b611881576040517f08c379a00000000000000000000000000000000000000000000000000000000081526004016103ac90612674565b505050565b61191b848484846040516024016118a09493929190612902565b604080517fffffffffffffffffffffffffffffffffffffffffffffffffffffffffffffffe08184030181529190526020810180517bffffffffffffffffffffffffffffffffffffffffffffffffffffffff167f193fb800000000000000000000000000000000000000000000000000000000001790526121b5565b50505050565b600061192d82846129d6565b9392505050565b600061192d8284612a13565b6dffffffffffffffffffffffffffff841180159061196c57506dffffffffffffffffffffffffffff8311155b6119a2576040517f08c379a00000000000000000000000000000000000000000000000000000000081526004016103ac906127f9565b60006119b364010000000042612a4f565b6008549091506000906119ec907c0100000000000000000000000000000000000000000000000000000000900463ffffffff1683612a2a565b905060008163ffffffff16118015611a1357506dffffffffffffffffffffffffffff841615155b8015611a2e57506dffffffffffffffffffffffffffff831615155b15611afc578063ffffffff16611a6b85611a47866121d6565b7bffffffffffffffffffffffffffffffffffffffffffffffffffffffff1690612207565b7bffffffffffffffffffffffffffffffffffffffffffffffffffffffff16611a9391906129d6565b60096000828254611aa4919061292b565b909155505063ffffffff8116611abd84611a47876121d6565b7bffffffffffffffffffffffffffffffffffffffffffffffffffffffff16611ae591906129d6565b600a6000828254611af6919061292b565b90915550505b50600880547fffffffffffffffffffffffffffffffffffff0000000000000000000000000000166dffffffffffffffffffffffffffff968716177fffffffff0000000000000000000000000000ffffffffffffffffffffffffffff166e0100000000000000000000000000009590961694909402949094177bffffffffffffffffffffffffffffffffffffffffffffffffffffffff167c010000000000000000000000000000000000000000000000000000000063ffffffff9590951694909402939093179091555050565b73ffffffffffffffffffffffffffffffffffffffff92831660009081526002602090815260408083209490951682529290925291902055565b73ffffffffffffffffffffffffffffffffffffffff8316600090815260016020526040902054611c319082611934565b73ffffffffffffffffffffffffffffffffffffffff8085166000908152600160205260408082209390935590841681522054611c6d9082612223565b73ffffffffffffffffffffffffffffffffffffffff9092166000908152600160205260409020919091555050565b600080600560009054906101000a900473ffffffffffffffffffffffffffffffffffffffff1673ffffffffffffffffffffffffffffffffffffffff1663017e7e586040518163ffffffff1660e01b815260040160206040518083038186803b158015611d0657600080fd5b505afa158015611d1a573d6000803e3d6000fd5b505050506040513d601f19601f82011682018060405250810190611d3e919061224b565b600b5473ffffffffffffffffffffffffffffffffffffffff8216158015945091925090611e01578015611dfc576000611d8d610d2c6dffffffffffffffffffffffffffff888116908816611921565b90506000611d9a83611e15565b905080821115611df9576000611dbc611db38484611934565b60005490611921565b90506000611dd583611dcf866003611921565b90612223565b90506000611de3828461297e565b90508015611df557611df58782611e85565b5050505b50505b611e0d565b8015611e0d576000600b555b505092915050565b60006003821115611e765750806000611e2f60028361297e565b611e3a90600161292b565b90505b81811015611e7057905080600281611e55818661297e565b611e5f919061292b565b611e69919061297e565b9050611e3d565b50611e80565b8115611e80575060015b919050565b600054611e929082612223565b600090815573ffffffffffffffffffffffffffffffffffffffff8316815260016020526040902054611ec49082612223565b73ffffffffffffffffffffffffffffffffffffffff90921660009081526001602052604090209190915550565b6000818310611f00578161192d565b5090919050565b611f9681604051602401611f1b9190612584565b604080517fffffffffffffffffffffffffffffffffffffffffffffffffffffffffffffffe08184030181529190526020810180517bffffffffffffffffffffffffffffffffffffffffffffffffffffffff167f41304fac000000000000000000000000000000000000000000000000000000001790526121b5565b50565b61202a8282604051602401611faf9291906128f4565b604080517fffffffffffffffffffffffffffffffffffffffffffffffffffffffffffffffe08184030181529190526020810180517bffffffffffffffffffffffffffffffffffffffffffffffffffffffff167ff666715a000000000000000000000000000000000000000000000000000000001790526121b5565b5050565b611f9681604051602401612042919061257b565b604080517fffffffffffffffffffffffffffffffffffffffffffffffffffffffffffffffe08184030181529190526020810180517bffffffffffffffffffffffffffffffffffffffffffffffffffffffff167ff82c50f1000000000000000000000000000000000000000000000000000000001790526121b5565b73ffffffffffffffffffffffffffffffffffffffff82166000908152600160205260409020546120ed9082611934565b73ffffffffffffffffffffffffffffffffffffffff8316600090815260016020526040812091909155546121219082611934565b6000555050565b61202a828260405160240161213e929190612597565b604080517fffffffffffffffffffffffffffffffffffffffffffffffffffffffffffffffe08184030181529190526020810180517bffffffffffffffffffffffffffffffffffffffffffffffffffffffff167f319af333000000000000000000000000000000000000000000000000000000001790525b80516a636f6e736f6c652e6c6f67602083016000808483855afa5050505050565b60006122016e0100000000000000000000000000006dffffffffffffffffffffffffffff8416612992565b92915050565b600061192d6dffffffffffffffffffffffffffff831684612943565b600061192d828461292b565b600060208284031215612240578081fd5b813561192d81612ac1565b60006020828403121561225c578081fd5b815161192d81612ac1565b60008060408385031215612279578081fd5b823561228481612ac1565b9150602083013561229481612ac1565b809150509250929050565b6000806000606084860312156122b3578081fd5b83356122be81612ac1565b925060208401356122ce81612ac1565b929592945050506040919091013590565b600080600080600080600060e0888a0312156122f9578283fd5b873561230481612ac1565b9650602088013561231481612ac1565b95506040880135945060608801359350608088013560ff81168114612337578384fd5b9699959850939692959460a0840135945060c09093013592915050565b60008060408385031215612366578182fd5b823561237181612ac1565b946020939093013593505050565b600060208284031215612390578081fd5b8151801515811461192d578182fd5b6000602082840312156123b0578081fd5b5051919050565b6000806000806000608086880312156123ce578081fd5b853594506020860135935060408601356123e781612ac1565b9250606086013567ffffffffffffffff80821115612403578283fd5b818801915088601f830112612416578283fd5b813581811115612424578384fd5b896020828501011115612435578384fd5b9699959850939650602001949392505050565b60008151808452815b8181101561246d57602081850181015186830182015201612451565b8181111561247e5782602083870101525b50601f017fffffffffffffffffffffffffffffffffffffffffffffffffffffffffffffffe0169290920160200192915050565b73ffffffffffffffffffffffffffffffffffffffff91909116815260200190565b73ffffffffffffffffffffffffffffffffffffffff929092168252602082015260400190565b600073ffffffffffffffffffffffffffffffffffffffff8716825285602083015284604083015260806060830152826080830152828460a084013781830160a090810191909152601f9092017fffffffffffffffffffffffffffffffffffffffffffffffffffffffffffffffe0160101949350505050565b901515815260200190565b90815260200190565b60006020825261192d6020830184612448565b6000604082526125aa6040830185612448565b905073ffffffffffffffffffffffffffffffffffffffff831660208301529392505050565b60208082526013908201527f50616e63616b653a20494e56414c49445f544f00000000000000000000000000604082015260600190565b6020808252600a908201527f50616e63616b653a204b00000000000000000000000000000000000000000000604082015260600190565b6020808252601f908201527f50616e63616b653a20494e53554646494349454e545f4c495155494449545900604082015260600190565b60208082526018908201527f50616e63616b653a205452414e534645525f4641494c45440000000000000000604082015260600190565b60208082526022908201527f50616e63616b653a20494e53554646494349454e545f494e5055545f414d4f5560408201527f4e54000000000000000000000000000000000000000000000000000000000000606082015260800190565b60208082526026908201527f50616e63616b653a20494e53554646494349454e545f4c49515549444954595f60408201527f4255524e45440000000000000000000000000000000000000000000000000000606082015260800190565b6020808252600f908201527f50616e63616b653a204c4f434b45440000000000000000000000000000000000604082015260600190565b60208082526023908201527f50616e63616b653a20494e53554646494349454e545f4f55545055545f414d4f60408201527f554e540000000000000000000000000000000000000000000000000000000000606082015260800190565b60208082526011908201527f50616e63616b653a204f564552464c4f57000000000000000000000000000000604082015260600190565b60208082526026908201527f50616e63616b653a20494e53554646494349454e545f4c49515549444954595f60408201527f4d494e5445440000000000000000000000000000000000000000000000000000606082015260800190565b60208082526012908201527f50616e63616b653a20464f5242494444454e0000000000000000000000000000604082015260600190565b6dffffffffffffffffffffffffffff938416815291909216602082015263ffffffff909116604082015260600190565b918252602082015260400190565b93845260208401929092526040830152606082015260800190565b60ff91909116815260200190565b6000821982111561293e5761293e612a63565b500190565b60007bffffffffffffffffffffffffffffffffffffffffffffffffffffffff8084168061297257612972612a92565b92169190910492915050565b60008261298d5761298d612a92565b500490565b60007bffffffffffffffffffffffffffffffffffffffffffffffffffffffff808316818516818304811182151516156129cd576129cd612a63565b02949350505050565b6000817fffffffffffffffffffffffffffffffffffffffffffffffffffffffffffffffff0483118215151615612a0e57612a0e612a63565b500290565b600082821015612a2557612a25612a63565b500390565b600063ffffffff83811690831681811015612a4757612a47612a63565b039392505050565b600082612a5e57612a5e612a92565b500690565b7f4e487b7100000000000000000000000000000000000000000000000000000000600052601160045260246000fd5b7f4e487b7100000000000000000000000000000000000000000000000000000000600052601260045260246000fd5b73ffffffffffffffffffffffffffffffffffffffff81168114611f9657600080fdfea2646970667358221220bc9bd23065ce3ba1da70286744879e2fcd634e07964e3e2fa680837120951aae64736f6c63430008000033",
  "linkReferences": {},
  "deployedLinkReferences": {}
}