{
  "_format": "hh-sol-artifact-1",
  "contractName": "PancakePair",
  "sourceName": "contracts/pancekeswap-fork/pancakepair.sol",
  "abi": [
    {
      "inputs": [],
      "stateMutability": "nonpayable",
      "type": "constructor"
    },
    {
      "inputs": [],
      "name": "DOMAIN_SEPARATOR",
      "outputs": [
        {
          "internalType": "bytes32",
          "name": "",
          "type": "bytes32"
        }
      ],
      "stateMutability": "view",
      "type": "function"
    },
    {
      "inputs": [],
      "name": "MINIMUM_LIQUIDITY",
      "outputs": [
        {
          "internalType": "uint256",
          "name": "",
          "type": "uint256"
        }
      ],
      "stateMutability": "view",
      "type": "function"
    },
    {
      "inputs": [
        {
          "internalType": "address",
          "name": "",
          "type": "address"
        },
        {
          "internalType": "address",
          "name": "",
          "type": "address"
        }
      ],
      "name": "allowance",
      "outputs": [
        {
          "internalType": "uint256",
          "name": "",
          "type": "uint256"
        }
      ],
      "stateMutability": "view",
      "type": "function"
    },
    {
      "inputs": [
        {
          "internalType": "address",
          "name": "spender",
          "type": "address"
        },
        {
          "internalType": "uint256",
          "name": "value",
          "type": "uint256"
        }
      ],
      "name": "approve",
      "outputs": [
        {
          "internalType": "bool",
          "name": "",
          "type": "bool"
        }
      ],
      "stateMutability": "nonpayable",
      "type": "function"
    },
    {
      "inputs": [
        {
          "internalType": "address",
          "name": "",
          "type": "address"
        }
      ],
      "name": "balanceOf",
      "outputs": [
        {
          "internalType": "uint256",
          "name": "",
          "type": "uint256"
        }
      ],
      "stateMutability": "view",
      "type": "function"
    },
    {
      "inputs": [
        {
          "internalType": "address",
          "name": "to",
          "type": "address"
        }
      ],
      "name": "burn",
      "outputs": [
        {
          "internalType": "uint256",
          "name": "amount0",
          "type": "uint256"
        },
        {
          "internalType": "uint256",
          "name": "amount1",
          "type": "uint256"
        }
      ],
      "stateMutability": "nonpayable",
      "type": "function"
    },
    {
      "inputs": [],
      "name": "decimals",
      "outputs": [
        {
          "internalType": "uint8",
          "name": "",
          "type": "uint8"
        }
      ],
      "stateMutability": "view",
      "type": "function"
    },
    {
      "inputs": [],
      "name": "factory",
      "outputs": [
        {
          "internalType": "address",
          "name": "",
          "type": "address"
        }
      ],
      "stateMutability": "view",
      "type": "function"
    },
    {
      "inputs": [],
      "name": "getReserves",
      "outputs": [
        {
          "internalType": "uint112",
          "name": "_reserve0",
          "type": "uint112"
        },
        {
          "internalType": "uint112",
          "name": "_reserve1",
          "type": "uint112"
        },
        {
          "internalType": "uint32",
          "name": "_blockTimestampLast",
          "type": "uint32"
        }
      ],
      "stateMutability": "view",
      "type": "function"
    },
    {
      "inputs": [
        {
          "internalType": "address",
          "name": "_token0",
          "type": "address"
        },
        {
          "internalType": "address",
          "name": "_token1",
          "type": "address"
        }
      ],
      "name": "initialize",
      "outputs": [],
      "stateMutability": "nonpayable",
      "type": "function"
    },
    {
      "inputs": [],
      "name": "kLast",
      "outputs": [
        {
          "internalType": "uint256",
          "name": "",
          "type": "uint256"
        }
      ],
      "stateMutability": "view",
      "type": "function"
    },
    {
      "inputs": [
        {
          "internalType": "address",
          "name": "to",
          "type": "address"
        }
      ],
      "name": "mint",
      "outputs": [
        {
          "internalType": "uint256",
          "name": "liquidity",
          "type": "uint256"
        }
      ],
      "stateMutability": "nonpayable",
      "type": "function"
    },
    {
      "inputs": [],
      "name": "name",
      "outputs": [
        {
          "internalType": "string",
          "name": "",
          "type": "string"
        }
      ],
      "stateMutability": "view",
      "type": "function"
    },
    {
      "inputs": [
        {
          "internalType": "address",
          "name": "",
          "type": "address"
        }
      ],
      "name": "nonces",
      "outputs": [
        {
          "internalType": "uint256",
          "name": "",
          "type": "uint256"
        }
      ],
      "stateMutability": "view",
      "type": "function"
    },
    {
      "inputs": [
        {
          "internalType": "address",
          "name": "owner",
          "type": "address"
        },
        {
          "internalType": "address",
          "name": "spender",
          "type": "address"
        },
        {
          "internalType": "uint256",
          "name": "value",
          "type": "uint256"
        },
        {
          "internalType": "uint256",
          "name": "deadline",
          "type": "uint256"
        },
        {
          "internalType": "uint8",
          "name": "v",
          "type": "uint8"
        },
        {
          "internalType": "bytes32",
          "name": "r",
          "type": "bytes32"
        },
        {
          "internalType": "bytes32",
          "name": "s",
          "type": "bytes32"
        }
      ],
      "name": "permit",
      "outputs": [],
      "stateMutability": "nonpayable",
      "type": "function"
    },
    {
      "inputs": [],
      "name": "price0CumulativeLast",
      "outputs": [
        {
          "internalType": "uint256",
          "name": "",
          "type": "uint256"
        }
      ],
      "stateMutability": "view",
      "type": "function"
    },
    {
      "inputs": [],
      "name": "price1CumulativeLast",
      "outputs": [
        {
          "internalType": "uint256",
          "name": "",
          "type": "uint256"
        }
      ],
      "stateMutability": "view",
      "type": "function"
    },
    {
      "inputs": [
        {
          "internalType": "address",
          "name": "to",
          "type": "address"
        }
      ],
      "name": "skim",
      "outputs": [],
      "stateMutability": "nonpayable",
      "type": "function"
    },
    {
      "inputs": [
        {
          "internalType": "uint256",
          "name": "amount0Out",
          "type": "uint256"
        },
        {
          "internalType": "uint256",
          "name": "amount1Out",
          "type": "uint256"
        },
        {
          "internalType": "address",
          "name": "to",
          "type": "address"
        },
        {
          "internalType": "bytes",
          "name": "data",
          "type": "bytes"
        }
      ],
      "name": "swap",
      "outputs": [],
      "stateMutability": "nonpayable",
      "type": "function"
    },
    {
      "inputs": [],
      "name": "symbol",
      "outputs": [
        {
          "internalType": "string",
          "name": "",
          "type": "string"
        }
      ],
      "stateMutability": "view",
      "type": "function"
    },
    {
      "inputs": [],
      "name": "sync",
      "outputs": [],
      "stateMutability": "nonpayable",
      "type": "function"
    },
    {
      "inputs": [],
      "name": "token0",
      "outputs": [
        {
          "internalType": "address",
          "name": "",
          "type": "address"
        }
      ],
      "stateMutability": "view",
      "type": "function"
    },
    {
      "inputs": [],
      "name": "token1",
      "outputs": [
        {
          "internalType": "address",
          "name": "",
          "type": "address"
        }
      ],
      "stateMutability": "view",
      "type": "function"
    },
    {
      "inputs": [],
      "name": "totalSupply",
      "outputs": [
        {
          "internalType": "uint256",
          "name": "",
          "type": "uint256"
        }
      ],
      "stateMutability": "view",
      "type": "function"
    },
    {
      "inputs": [
        {
          "internalType": "address",
          "name": "to",
          "type": "address"
        },
        {
          "internalType": "uint256",
          "name": "value",
          "type": "uint256"
        }
      ],
      "name": "transfer",
      "outputs": [
        {
          "internalType": "bool",
          "name": "",
          "type": "bool"
        }
      ],
      "stateMutability": "nonpayable",
      "type": "function"
    },
    {
      "inputs": [
        {
          "internalType": "address",
          "name": "from",
          "type": "address"
        },
        {
          "internalType": "address",
          "name": "to",
          "type": "address"
        },
        {
          "internalType": "uint256",
          "name": "value",
          "type": "uint256"
        }
      ],
      "name": "transferFrom",
      "outputs": [
        {
          "internalType": "bool",
          "name": "",
          "type": "bool"
        }
      ],
      "stateMutability": "nonpayable",
      "type": "function"
    }
  ],
  "bytecode": "0x60806040526001600c556402540be400600d5534801561001e57600080fd5b50604080518082018252600b81526a50616e63616b65204c507360a81b6020918201528151808301835260018152603160f81b90820152905146916100cd917f8b73c3c69bb8fe3d512ecc4cf759cc79239f7b179b0ffacaa9a75d522b39400f917fe87cb5a4dc26cf9451529a20899fcee996799afd48d7c0db7c25e150b364661d917fc89efdaa54c0f20c7adf612882df0950f5a951637e0307cdcb4c672f298b8bc6918691309101610100565b60408051601f19818403018152919052805160209091012060035550600580546001600160a01b0319163317905561012c565b9485526020850193909352604084019190915260608301526001600160a01b0316608082015260a00190565b6121718061013b6000396000f3fe608060405234801561001057600080fd5b50600436106101ae5760003560e01c806370a08231116100ee578063ba9a7a5611610097578063d21220a711610071578063d21220a71461033a578063d505accf14610342578063dd62ed3e14610355578063fff6cae914610368576101ae565b8063ba9a7a5614610317578063bc25cf771461031f578063c45a015514610332576101ae565b806389afcb44116100c857806389afcb44146102db57806395d89b41146102fc578063a9059cbb14610304576101ae565b806370a08231146102ad5780637464fc3d146102c05780637ecebe00146102c8576101ae565b806323b872dd1161015b578063485cc95511610135578063485cc955146102775780635909c0d51461028a5780635a3d5493146102925780636a6278421461029a576101ae565b806323b872dd14610247578063313ce5671461025a5780633644e5151461026f576101ae565b8063095ea7b31161018c578063095ea7b3146101fd5780630dfe16811461021d57806318160ddd14610232576101ae565b8063022c0d9f146101b357806306fdde03146101c85780630902f1ac146101e6575b600080fd5b6101c66101c1366004611afc565b610370565b005b6101d0610767565b6040516101dd9190611c66565b60405180910390f35b6101ee6107a0565b6040516101dd93929190611f93565b61021061020b366004611a99565b6107ca565b6040516101dd9190611c52565b6102256107e0565b6040516101dd9190611bd8565b61023a6107ef565b6040516101dd9190611c5d565b6102106102553660046119e4565b6107f5565b610262610889565b6040516101dd9190611fca565b61023a61088e565b6101c66102853660046119ac565b610894565b61023a610904565b61023a61090a565b61023a6102a8366004611974565b610910565b61023a6102bb366004611974565b610b81565b61023a610b93565b61023a6102d6366004611974565b610b99565b6102ee6102e9366004611974565b610bab565b6040516101dd929190611fbc565b6101d0610fa9565b610210610312366004611a99565b610fe2565b61023a610fef565b6101c661032d366004611974565b610ff5565b61022561111d565b61022561112c565b6101c6610350366004611a24565b61113b565b61023a6103633660046119ac565b611144565b6101c6611161565b600c5460011461039b5760405162461bcd60e51b815260040161039290611e34565b60405180910390fd5b6000600c55841515806103ae5750600084115b6103ca5760405162461bcd60e51b815260040161039290611e6b565b6000806103d56107a0565b5091509150816001600160701b0316871080156103fa5750806001600160701b031686105b6104165760405162461bcd60e51b815260040161039290611d0c565b60065460075460009182916001600160a01b039182169190811690891682148015906104545750806001600160a01b0316896001600160a01b031614155b6104705760405162461bcd60e51b815260040161039290611c9e565b8a1561048157610481828a8d6112ad565b891561049257610492818a8c6112ad565b8615610518576040517f848008120000000000000000000000000000000000000000000000000000000081526001600160a01b038a16906384800812906104e59033908f908f908e908e90600401611c05565b600060405180830381600087803b1580156104ff57600080fd5b505af1158015610513573d6000803e3d6000fd5b505050505b6040516370a0823160e01b81526001600160a01b038316906370a0823190610544903090600401611bd8565b60206040518083038186803b15801561055c57600080fd5b505afa158015610570573d6000803e3d6000fd5b505050506040513d601f19601f820116820180604052508101906105949190611ae4565b6040516370a0823160e01b81529094506001600160a01b038216906370a08231906105c3903090600401611bd8565b60206040518083038186803b1580156105db57600080fd5b505afa1580156105ef573d6000803e3d6000fd5b505050506040513d601f19601f820116820180604052508101906106139190611ae4565b92505050600089856001600160701b031661062e9190612078565b831161063b576000610658565b61064e8a6001600160701b038716612078565b6106589084612078565b9050600061066f8a6001600160701b038716612078565b831161067c576000610699565b61068f8a6001600160701b038716612078565b6106999084612078565b905060008211806106aa5750600081115b6106c65760405162461bcd60e51b815260040161039290611d7a565b60006106e86106d6846002611367565b6106e2876103e8611367565b9061137a565b905060006106fa6106d6846002611367565b905061071f620f42406107196001600160701b038b8116908b16611367565b90611367565b6107298383611367565b10156107475760405162461bcd60e51b815260040161039290611cd5565b505061075584848888611386565b50506001600c55505050505050505050565b6040518060400160405280600b81526020017f50616e63616b65204c507300000000000000000000000000000000000000000081525081565b6008546001600160701b0380821692600160701b830490911691600160e01b900463ffffffff1690565b60006107d7338484611540565b50600192915050565b6006546001600160a01b031681565b60005481565b6001600160a01b038316600090815260026020908152604080832033845290915281205460001914610874576001600160a01b038416600090815260026020908152604080832033845290915290205461084f908361137a565b6001600160a01b03851660009081526002602090815260408083203384529091529020555b61087f84848461156c565b5060019392505050565b601281565b60035481565b6005546001600160a01b031633146108be5760405162461bcd60e51b815260040161039290611f5c565b600680546001600160a01b039384167fffffffffffffffffffffffff00000000000000000000000000000000000000009182161790915560078054929093169116179055565b60095481565b600a5481565b6000600c546001146109345760405162461bcd60e51b815260040161039290611e34565b6000600c819055806109446107a0565b506006546040516370a0823160e01b81529294509092506000916001600160a01b03909116906370a082319061097e903090600401611bd8565b60206040518083038186803b15801561099657600080fd5b505afa1580156109aa573d6000803e3d6000fd5b505050506040513d601f19601f820116820180604052508101906109ce9190611ae4565b6007546040516370a0823160e01b81529192506000916001600160a01b03909116906370a0823190610a04903090600401611bd8565b60206040518083038186803b158015610a1c57600080fd5b505afa158015610a30573d6000803e3d6000fd5b505050506040513d601f19601f82011682018060405250810190610a549190611ae4565b90506000610a6b836001600160701b03871661137a565b90506000610a82836001600160701b03871661137a565b90506000610a9087876115df565b60005490915080610ac757610ab36103e86106e2610aae8787611367565b61172b565b9850610ac260006103e861179b565b610b0e565b610b0b6001600160701b038916610ade8684611367565b610ae89190612016565b6001600160701b038916610afc8685611367565b610b069190612016565b6117ed565b98505b60008911610b2e5760405162461bcd60e51b815260040161039290611eff565b610b388a8a61179b565b610b4486868a8a611386565b8115610b6e57600854610b6a906001600160701b0380821691600160701b900416611367565b600b555b50506001600c5550949695505050505050565b60016020526000908152604090205481565b600b5481565b60046020526000908152604090205481565b600080600c54600114610bd05760405162461bcd60e51b815260040161039290611e34565b6000600c81905580610be06107a0565b5060408051808201909152600581527f72657365720000000000000000000000000000000000000000000000000000006020820152600854929450909250610c3b916001600160701b0380821691600160701b900416611803565b6006546007546040516370a0823160e01b81526001600160a01b03928316929091169060009083906370a0823190610c77903090600401611bd8565b60206040518083038186803b158015610c8f57600080fd5b505afa158015610ca3573d6000803e3d6000fd5b505050506040513d601f19601f82011682018060405250810190610cc79190611ae4565b90506000826001600160a01b03166370a08231306040518263ffffffff1660e01b8152600401610cf79190611bd8565b60206040518083038186803b158015610d0f57600080fd5b505afa158015610d23573d6000803e3d6000fd5b505050506040513d601f19601f82011682018060405250810190610d479190611ae4565b30600090815260016020526040812054919250610d6488886115df565b60005490915080610d758487611367565b610d7f9190612016565b9a5080610d8c8486611367565b610d969190612016565b995060008b118015610da8575060008a115b610dc45760405162461bcd60e51b815260040161039290611dd7565b610dce3084611863565b610df3604051806040016040528060048152602001633837383760e01b8152506118b4565b610dfe878d8d6112ad565b610e23604051806040016040528060048152602001633837383760e01b8152506118b4565b610e3b868d600d548d610e369190612016565b6112ad565b610e60604051806040016040528060048152602001633837383760e01b8152506118b4565b6040516370a0823160e01b81526001600160a01b038816906370a0823190610e8c903090600401611bd8565b60206040518083038186803b158015610ea457600080fd5b505afa158015610eb8573d6000803e3d6000fd5b505050506040513d601f19601f82011682018060405250810190610edc9190611ae4565b6040516370a0823160e01b81529095506001600160a01b038716906370a0823190610f0b903090600401611bd8565b60206040518083038186803b158015610f2357600080fd5b505afa158015610f37573d6000803e3d6000fd5b505050506040513d601f19601f82011682018060405250810190610f5b9190611ae4565b9350610f6985858b8b611386565b8115610f9357600854610f8f906001600160701b0380821691600160701b900416611367565b600b555b5050505050505050506001600c81905550915091565b6040518060400160405280600781526020017f43616b652d4c500000000000000000000000000000000000000000000000000081525081565b60006107d733848461156c565b6103e881565b600c546001146110175760405162461bcd60e51b815260040161039290611e34565b6000600c556006546007546008546040516370a0823160e01b81526001600160a01b0393841693909216916110c09184918691610e36916001600160701b039091169084906370a0823190611070903090600401611bd8565b60206040518083038186803b15801561108857600080fd5b505afa15801561109c573d6000803e3d6000fd5b505050506040513d601f19601f820116820180604052508101906106e29190611ae4565b6111138184610e366008600e9054906101000a90046001600160701b03166001600160701b0316856001600160a01b03166370a08231306040518263ffffffff1660e01b81526004016110709190611bd8565b50506001600c5550565b6005546001600160a01b031681565b6007546001600160a01b031681565b50505050505050565b600260209081526000928352604080842090915290825290205481565b600c546001146111835760405162461bcd60e51b815260040161039290611e34565b6000600c556006546040516370a0823160e01b81526112a6916001600160a01b0316906370a08231906111ba903090600401611bd8565b60206040518083038186803b1580156111d257600080fd5b505afa1580156111e6573d6000803e3d6000fd5b505050506040513d601f19601f8201168201806040525081019061120a9190611ae4565b6007546040516370a0823160e01b81526001600160a01b03909116906370a082319061123a903090600401611bd8565b60206040518083038186803b15801561125257600080fd5b505afa158015611266573d6000803e3d6000fd5b505050506040513d601f19601f8201168201806040525081019061128a9190611ae4565b6008546001600160701b0380821691600160701b900416611386565b6001600c55565b6040517fa9059cbb0000000000000000000000000000000000000000000000000000000081526001600160a01b0384169063a9059cbb906112f49085908590600401611bec565b602060405180830381600087803b15801561130e57600080fd5b505af1158015611322573d6000803e3d6000fd5b505050506040513d601f19601f820116820180604052508101906113469190611ac4565b6113625760405162461bcd60e51b815260040161039290611d43565b505050565b60006113738284612059565b9392505050565b60006113738284612078565b6001600160701b0384118015906113a457506001600160701b038311155b6113c05760405162461bcd60e51b815260040161039290611ec8565b60006113d1640100000000426120b4565b6008549091506000906113f190600160e01b900463ffffffff168361208f565b905060008163ffffffff1611801561141157506001600160701b03841615155b801561142557506001600160701b03831615155b156114b4578063ffffffff1661144d8561143e86611913565b6001600160e01b031690611932565b6001600160e01b03166114609190612059565b600960008282546114719190611fd8565b909155505063ffffffff811661148a8461143e87611913565b6001600160e01b031661149d9190612059565b600a60008282546114ae9190611fd8565b90915550505b50600880547fffffffffffffffffffffffffffffffffffff0000000000000000000000000000166001600160701b03968716177fffffffff0000000000000000000000000000ffffffffffffffffffffffffffff16600160701b9590961694909402949094176001600160e01b0316600160e01b63ffffffff9590951694909402939093179091555050565b6001600160a01b0392831660009081526002602090815260408083209490951682529290925291902055565b6001600160a01b03831660009081526001602052604090205461158f908261137a565b6001600160a01b0380851660009081526001602052604080822093909355908416815220546115be9082611947565b6001600160a01b039092166000908152600160205260409020919091555050565b600080600560009054906101000a90046001600160a01b03166001600160a01b031663017e7e586040518163ffffffff1660e01b815260040160206040518083038186803b15801561163057600080fd5b505afa158015611644573d6000803e3d6000fd5b505050506040513d601f19601f820116820180604052508101906116689190611990565b600b546001600160a01b0382161580159450919250906117175780156117125760006116a3610aae6001600160701b03888116908816611367565b905060006116b08361172b565b90508082111561170f5760006116d26116c9848461137a565b60005490611367565b905060006116eb836116e5866003611367565b90611947565b905060006116f98284612016565b9050801561170b5761170b878261179b565b5050505b50505b611723565b8015611723576000600b555b505092915050565b6000600382111561178c5750806000611745600283612016565b611750906001611fd8565b90505b818110156117865790508060028161176b8186612016565b6117759190611fd8565b61177f9190612016565b9050611753565b50611796565b8115611796575060015b919050565b6000546117a89082611947565b60009081556001600160a01b0383168152600160205260409020546117cd9082611947565b6001600160a01b0390921660009081526001602052604090209190915550565b60008183106117fc5781611373565b5090919050565b61136283838360405160240161181b93929190611c79565b60408051601f198184030181529190526020810180516001600160e01b03167fca47c4eb00000000000000000000000000000000000000000000000000000000179052611953565b6001600160a01b038216600090815260016020526040902054611886908261137a565b6001600160a01b038316600090815260016020526040812091909155546118ad908261137a565b6000555050565b611910816040516024016118c89190611c66565b60408051601f198184030181529190526020810180516001600160e01b03167f41304fac00000000000000000000000000000000000000000000000000000000179052611953565b50565b600061192c600160701b6001600160701b03841661202a565b92915050565b60006113736001600160701b03831684611ff0565b60006113738284611fd8565b80516a636f6e736f6c652e6c6f67602083016000808483855afa5050505050565b600060208284031215611985578081fd5b813561137381612126565b6000602082840312156119a1578081fd5b815161137381612126565b600080604083850312156119be578081fd5b82356119c981612126565b915060208301356119d981612126565b809150509250929050565b6000806000606084860312156119f8578081fd5b8335611a0381612126565b92506020840135611a1381612126565b929592945050506040919091013590565b600080600080600080600060e0888a031215611a3e578283fd5b8735611a4981612126565b96506020880135611a5981612126565b95506040880135945060608801359350608088013560ff81168114611a7c578384fd5b9699959850939692959460a0840135945060c09093013592915050565b60008060408385031215611aab578182fd5b8235611ab681612126565b946020939093013593505050565b600060208284031215611ad5578081fd5b81518015158114611373578182fd5b600060208284031215611af5578081fd5b5051919050565b600080600080600060808688031215611b13578081fd5b85359450602086013593506040860135611b2c81612126565b9250606086013567ffffffffffffffff80821115611b48578283fd5b818801915088601f830112611b5b578283fd5b813581811115611b69578384fd5b896020828501011115611b7a578384fd5b9699959850939650602001949392505050565b60008151808452815b81811015611bb257602081850181015186830182015201611b96565b81811115611bc35782602083870101525b50601f01601f19169290920160200192915050565b6001600160a01b0391909116815260200190565b6001600160a01b03929092168252602082015260400190565b60006001600160a01b038716825285602083015284604083015260806060830152826080830152828460a084013781830160a090810191909152601f909201601f19160101949350505050565b901515815260200190565b90815260200190565b6000602082526113736020830184611b8d565b600060608252611c8c6060830186611b8d565b60208301949094525060400152919050565b60208082526013908201527f50616e63616b653a20494e56414c49445f544f00000000000000000000000000604082015260600190565b6020808252600a908201527f50616e63616b653a204b00000000000000000000000000000000000000000000604082015260600190565b6020808252601f908201527f50616e63616b653a20494e53554646494349454e545f4c495155494449545900604082015260600190565b60208082526018908201527f50616e63616b653a205452414e534645525f4641494c45440000000000000000604082015260600190565b60208082526022908201527f50616e63616b653a20494e53554646494349454e545f494e5055545f414d4f5560408201527f4e54000000000000000000000000000000000000000000000000000000000000606082015260800190565b60208082526026908201527f50616e63616b653a20494e53554646494349454e545f4c49515549444954595f60408201527f4255524e45440000000000000000000000000000000000000000000000000000606082015260800190565b6020808252600f908201527f50616e63616b653a204c4f434b45440000000000000000000000000000000000604082015260600190565b60208082526023908201527f50616e63616b653a20494e53554646494349454e545f4f55545055545f414d4f60408201527f554e540000000000000000000000000000000000000000000000000000000000606082015260800190565b60208082526011908201527f50616e63616b653a204f564552464c4f57000000000000000000000000000000604082015260600190565b60208082526026908201527f50616e63616b653a20494e53554646494349454e545f4c49515549444954595f60408201527f4d494e5445440000000000000000000000000000000000000000000000000000606082015260800190565b60208082526012908201527f50616e63616b653a20464f5242494444454e0000000000000000000000000000604082015260600190565b6001600160701b03938416815291909216602082015263ffffffff909116604082015260600190565b918252602082015260400190565b60ff91909116815260200190565b60008219821115611feb57611feb6120c8565b500190565b60006001600160e01b038084168061200a5761200a6120f7565b92169190910492915050565b600082612025576120256120f7565b500490565b60006001600160e01b0380831681851681830481118215151615612050576120506120c8565b02949350505050565b6000816000190483118215151615612073576120736120c8565b500290565b60008282101561208a5761208a6120c8565b500390565b600063ffffffff838116908316818110156120ac576120ac6120c8565b039392505050565b6000826120c3576120c36120f7565b500690565b7f4e487b7100000000000000000000000000000000000000000000000000000000600052601160045260246000fd5b7f4e487b7100000000000000000000000000000000000000000000000000000000600052601260045260246000fd5b6001600160a01b038116811461191057600080fdfea2646970667358221220f73f2e526b710674adcfacdc32b563fcc95c9740df36d6edae84e7325cf38b5a64736f6c63430008000033",
  "linkReferences": {},
  "deployedLinkReferences": {}
}