{
  "_format": "hh-sol-artifact-1",
  "contractName": "UniswapV3Pool",
  "sourceName": "contracts/core/UniswapV3Pool.sol",
  "abi": [
    {
      "inputs": [],
      "stateMutability": "nonpayable",
      "type": "constructor"
    },
    {
      "anonymous": false,
      "inputs": [
        {
          "indexed": true,
          "internalType": "address",
          "name": "owner",
          "type": "address"
        },
        {
          "indexed": true,
          "internalType": "int24",
          "name": "tickLower",
          "type": "int24"
        },
        {
          "indexed": true,
          "internalType": "int24",
          "name": "tickUpper",
          "type": "int24"
        },
        {
          "indexed": false,
          "internalType": "uint128",
          "name": "amount",
          "type": "uint128"
        },
        {
          "indexed": false,
          "internalType": "uint256",
          "name": "amount0",
          "type": "uint256"
        },
        {
          "indexed": false,
          "internalType": "uint256",
          "name": "amount1",
          "type": "uint256"
        }
      ],
      "name": "Burn",
      "type": "event"
    },
    {
      "anonymous": false,
      "inputs": [
        {
          "indexed": true,
          "internalType": "address",
          "name": "owner",
          "type": "address"
        },
        {
          "indexed": false,
          "internalType": "address",
          "name": "recipient",
          "type": "address"
        },
        {
          "indexed": true,
          "internalType": "int24",
          "name": "tickLower",
          "type": "int24"
        },
        {
          "indexed": true,
          "internalType": "int24",
          "name": "tickUpper",
          "type": "int24"
        },
        {
          "indexed": false,
          "internalType": "uint128",
          "name": "amount0",
          "type": "uint128"
        },
        {
          "indexed": false,
          "internalType": "uint128",
          "name": "amount1",
          "type": "uint128"
        }
      ],
      "name": "Collect",
      "type": "event"
    },
    {
      "anonymous": false,
      "inputs": [
        {
          "indexed": true,
          "internalType": "address",
          "name": "sender",
          "type": "address"
        },
        {
          "indexed": true,
          "internalType": "address",
          "name": "recipient",
          "type": "address"
        },
        {
          "indexed": false,
          "internalType": "uint128",
          "name": "amount0",
          "type": "uint128"
        },
        {
          "indexed": false,
          "internalType": "uint128",
          "name": "amount1",
          "type": "uint128"
        }
      ],
      "name": "CollectProtocol",
      "type": "event"
    },
    {
      "anonymous": false,
      "inputs": [
        {
          "indexed": true,
          "internalType": "address",
          "name": "sender",
          "type": "address"
        },
        {
          "indexed": true,
          "internalType": "address",
          "name": "recipient",
          "type": "address"
        },
        {
          "indexed": false,
          "internalType": "uint256",
          "name": "amount0",
          "type": "uint256"
        },
        {
          "indexed": false,
          "internalType": "uint256",
          "name": "amount1",
          "type": "uint256"
        },
        {
          "indexed": false,
          "internalType": "uint256",
          "name": "paid0",
          "type": "uint256"
        },
        {
          "indexed": false,
          "internalType": "uint256",
          "name": "paid1",
          "type": "uint256"
        }
      ],
      "name": "Flash",
      "type": "event"
    },
    {
      "anonymous": false,
      "inputs": [
        {
          "indexed": false,
          "internalType": "uint16",
          "name": "observationCardinalityNextOld",
          "type": "uint16"
        },
        {
          "indexed": false,
          "internalType": "uint16",
          "name": "observationCardinalityNextNew",
          "type": "uint16"
        }
      ],
      "name": "IncreaseObservationCardinalityNext",
      "type": "event"
    },
    {
      "anonymous": false,
      "inputs": [
        {
          "indexed": false,
          "internalType": "uint160",
          "name": "sqrtPriceX96",
          "type": "uint160"
        },
        {
          "indexed": false,
          "internalType": "int24",
          "name": "tick",
          "type": "int24"
        }
      ],
      "name": "Initialize",
      "type": "event"
    },
    {
      "anonymous": false,
      "inputs": [
        {
          "indexed": false,
          "internalType": "address",
          "name": "sender",
          "type": "address"
        },
        {
          "indexed": true,
          "internalType": "address",
          "name": "owner",
          "type": "address"
        },
        {
          "indexed": true,
          "internalType": "int24",
          "name": "tickLower",
          "type": "int24"
        },
        {
          "indexed": true,
          "internalType": "int24",
          "name": "tickUpper",
          "type": "int24"
        },
        {
          "indexed": false,
          "internalType": "uint128",
          "name": "amount",
          "type": "uint128"
        },
        {
          "indexed": false,
          "internalType": "uint256",
          "name": "amount0",
          "type": "uint256"
        },
        {
          "indexed": false,
          "internalType": "uint256",
          "name": "amount1",
          "type": "uint256"
        }
      ],
      "name": "Mint",
      "type": "event"
    },
    {
      "anonymous": false,
      "inputs": [
        {
          "indexed": false,
          "internalType": "uint8",
          "name": "feeProtocol0Old",
          "type": "uint8"
        },
        {
          "indexed": false,
          "internalType": "uint8",
          "name": "feeProtocol1Old",
          "type": "uint8"
        },
        {
          "indexed": false,
          "internalType": "uint8",
          "name": "feeProtocol0New",
          "type": "uint8"
        },
        {
          "indexed": false,
          "internalType": "uint8",
          "name": "feeProtocol1New",
          "type": "uint8"
        }
      ],
      "name": "SetFeeProtocol",
      "type": "event"
    },
    {
      "anonymous": false,
      "inputs": [
        {
          "indexed": true,
          "internalType": "address",
          "name": "sender",
          "type": "address"
        },
        {
          "indexed": true,
          "internalType": "address",
          "name": "recipient",
          "type": "address"
        },
        {
          "indexed": false,
          "internalType": "int256",
          "name": "amount0",
          "type": "int256"
        },
        {
          "indexed": false,
          "internalType": "int256",
          "name": "amount1",
          "type": "int256"
        },
        {
          "indexed": false,
          "internalType": "uint160",
          "name": "sqrtPriceX96",
          "type": "uint160"
        },
        {
          "indexed": false,
          "internalType": "uint128",
          "name": "liquidity",
          "type": "uint128"
        },
        {
          "indexed": false,
          "internalType": "int24",
          "name": "tick",
          "type": "int24"
        }
      ],
      "name": "Swap",
      "type": "event"
    },
    {
      "inputs": [],
      "name": "balance0",
      "outputs": [
        {
          "internalType": "uint256",
          "name": "",
          "type": "uint256"
        }
      ],
      "stateMutability": "view",
      "type": "function"
    },
    {
      "inputs": [],
      "name": "balance1",
      "outputs": [
        {
          "internalType": "uint256",
          "name": "",
          "type": "uint256"
        }
      ],
      "stateMutability": "view",
      "type": "function"
    },
    {
      "inputs": [
        {
          "internalType": "int24",
          "name": "tickLower",
          "type": "int24"
        },
        {
          "internalType": "int24",
          "name": "tickUpper",
          "type": "int24"
        },
        {
          "internalType": "uint128",
          "name": "amount",
          "type": "uint128"
        }
      ],
      "name": "burn",
      "outputs": [
        {
          "internalType": "uint256",
          "name": "amount0",
          "type": "uint256"
        },
        {
          "internalType": "uint256",
          "name": "amount1",
          "type": "uint256"
        }
      ],
      "stateMutability": "nonpayable",
      "type": "function"
    },
    {
      "inputs": [
        {
          "internalType": "address",
          "name": "recipient",
          "type": "address"
        },
        {
          "internalType": "int24",
          "name": "tickLower",
          "type": "int24"
        },
        {
          "internalType": "int24",
          "name": "tickUpper",
          "type": "int24"
        },
        {
          "internalType": "uint128",
          "name": "amount0Requested",
          "type": "uint128"
        },
        {
          "internalType": "uint128",
          "name": "amount1Requested",
          "type": "uint128"
        }
      ],
      "name": "collect",
      "outputs": [
        {
          "internalType": "uint128",
          "name": "amount0",
          "type": "uint128"
        },
        {
          "internalType": "uint128",
          "name": "amount1",
          "type": "uint128"
        }
      ],
      "stateMutability": "nonpayable",
      "type": "function"
    },
    {
      "inputs": [
        {
          "internalType": "address",
          "name": "recipient",
          "type": "address"
        },
        {
          "internalType": "uint128",
          "name": "amount0Requested",
          "type": "uint128"
        },
        {
          "internalType": "uint128",
          "name": "amount1Requested",
          "type": "uint128"
        }
      ],
      "name": "collectProtocol",
      "outputs": [
        {
          "internalType": "uint128",
          "name": "amount0",
          "type": "uint128"
        },
        {
          "internalType": "uint128",
          "name": "amount1",
          "type": "uint128"
        }
      ],
      "stateMutability": "nonpayable",
      "type": "function"
    },
    {
      "inputs": [],
      "name": "factory",
      "outputs": [
        {
          "internalType": "address",
          "name": "",
          "type": "address"
        }
      ],
      "stateMutability": "view",
      "type": "function"
    },
    {
      "inputs": [],
      "name": "fee",
      "outputs": [
        {
          "internalType": "uint24",
          "name": "",
          "type": "uint24"
        }
      ],
      "stateMutability": "view",
      "type": "function"
    },
    {
      "inputs": [],
      "name": "feeGrowthGlobal0X128",
      "outputs": [
        {
          "internalType": "uint256",
          "name": "",
          "type": "uint256"
        }
      ],
      "stateMutability": "view",
      "type": "function"
    },
    {
      "inputs": [],
      "name": "feeGrowthGlobal1X128",
      "outputs": [
        {
          "internalType": "uint256",
          "name": "",
          "type": "uint256"
        }
      ],
      "stateMutability": "view",
      "type": "function"
    },
    {
      "inputs": [
        {
          "internalType": "address",
          "name": "recipient",
          "type": "address"
        },
        {
          "internalType": "uint256",
          "name": "amount0",
          "type": "uint256"
        },
        {
          "internalType": "uint256",
          "name": "amount1",
          "type": "uint256"
        },
        {
          "internalType": "bytes",
          "name": "data",
          "type": "bytes"
        }
      ],
      "name": "flash",
      "outputs": [],
      "stateMutability": "nonpayable",
      "type": "function"
    },
    {
      "inputs": [
        {
          "internalType": "uint16",
          "name": "observationCardinalityNext",
          "type": "uint16"
        }
      ],
      "name": "increaseObservationCardinalityNext",
      "outputs": [],
      "stateMutability": "nonpayable",
      "type": "function"
    },
    {
      "inputs": [
        {
          "internalType": "uint160",
          "name": "sqrtPriceX96",
          "type": "uint160"
        }
      ],
      "name": "initialize",
      "outputs": [],
      "stateMutability": "nonpayable",
      "type": "function"
    },
    {
      "inputs": [],
      "name": "liquidity",
      "outputs": [
        {
          "internalType": "uint128",
          "name": "",
          "type": "uint128"
        }
      ],
      "stateMutability": "view",
      "type": "function"
    },
    {
      "inputs": [],
      "name": "maxLiquidityPerTick",
      "outputs": [
        {
          "internalType": "uint128",
          "name": "",
          "type": "uint128"
        }
      ],
      "stateMutability": "view",
      "type": "function"
    },
    {
      "inputs": [
        {
          "internalType": "address",
          "name": "recipient",
          "type": "address"
        },
        {
          "internalType": "int24",
          "name": "tickLower",
          "type": "int24"
        },
        {
          "internalType": "int24",
          "name": "tickUpper",
          "type": "int24"
        },
        {
          "internalType": "uint128",
          "name": "amount",
          "type": "uint128"
        },
        {
          "internalType": "bytes",
          "name": "data",
          "type": "bytes"
        }
      ],
      "name": "mint",
      "outputs": [
        {
          "internalType": "uint256",
          "name": "amount0",
          "type": "uint256"
        },
        {
          "internalType": "uint256",
          "name": "amount1",
          "type": "uint256"
        }
      ],
      "stateMutability": "nonpayable",
      "type": "function"
    },
    {
      "inputs": [
        {
          "internalType": "uint256",
          "name": "",
          "type": "uint256"
        }
      ],
      "name": "observations",
      "outputs": [
        {
          "internalType": "uint32",
          "name": "blockTimestamp",
          "type": "uint32"
        },
        {
          "internalType": "int56",
          "name": "tickCumulative",
          "type": "int56"
        },
        {
          "internalType": "uint160",
          "name": "secondsPerLiquidityCumulativeX128",
          "type": "uint160"
        },
        {
          "internalType": "bool",
          "name": "initialized",
          "type": "bool"
        }
      ],
      "stateMutability": "view",
      "type": "function"
    },
    {
      "inputs": [
        {
          "internalType": "uint32[]",
          "name": "secondsAgos",
          "type": "uint32[]"
        }
      ],
      "name": "observe",
      "outputs": [
        {
          "internalType": "int56[]",
          "name": "tickCumulatives",
          "type": "int56[]"
        },
        {
          "internalType": "uint160[]",
          "name": "secondsPerLiquidityCumulativeX128s",
          "type": "uint160[]"
        }
      ],
      "stateMutability": "view",
      "type": "function"
    },
    {
      "inputs": [
        {
          "internalType": "bytes32",
          "name": "",
          "type": "bytes32"
        }
      ],
      "name": "positions",
      "outputs": [
        {
          "internalType": "uint128",
          "name": "liquidity",
          "type": "uint128"
        },
        {
          "internalType": "uint256",
          "name": "feeGrowthInside0LastX128",
          "type": "uint256"
        },
        {
          "internalType": "uint256",
          "name": "feeGrowthInside1LastX128",
          "type": "uint256"
        },
        {
          "internalType": "uint128",
          "name": "tokensOwed0",
          "type": "uint128"
        },
        {
          "internalType": "uint128",
          "name": "tokensOwed1",
          "type": "uint128"
        }
      ],
      "stateMutability": "view",
      "type": "function"
    },
    {
      "inputs": [],
      "name": "protocolFees",
      "outputs": [
        {
          "internalType": "uint128",
          "name": "token0",
          "type": "uint128"
        },
        {
          "internalType": "uint128",
          "name": "token1",
          "type": "uint128"
        }
      ],
      "stateMutability": "view",
      "type": "function"
    },
    {
      "inputs": [
        {
          "internalType": "uint8",
          "name": "feeProtocol0",
          "type": "uint8"
        },
        {
          "internalType": "uint8",
          "name": "feeProtocol1",
          "type": "uint8"
        }
      ],
      "name": "setFeeProtocol",
      "outputs": [],
      "stateMutability": "nonpayable",
      "type": "function"
    },
    {
      "inputs": [],
      "name": "slot0",
      "outputs": [
        {
          "internalType": "uint160",
          "name": "sqrtPriceX96",
          "type": "uint160"
        },
        {
          "internalType": "int24",
          "name": "tick",
          "type": "int24"
        },
        {
          "internalType": "uint16",
          "name": "observationIndex",
          "type": "uint16"
        },
        {
          "internalType": "uint16",
          "name": "observationCardinality",
          "type": "uint16"
        },
        {
          "internalType": "uint16",
          "name": "observationCardinalityNext",
          "type": "uint16"
        },
        {
          "internalType": "uint8",
          "name": "feeProtocol",
          "type": "uint8"
        },
        {
          "internalType": "bool",
          "name": "unlocked",
          "type": "bool"
        }
      ],
      "stateMutability": "view",
      "type": "function"
    },
    {
      "inputs": [
        {
          "internalType": "int24",
          "name": "tickLower",
          "type": "int24"
        },
        {
          "internalType": "int24",
          "name": "tickUpper",
          "type": "int24"
        }
      ],
      "name": "snapshotCumulativesInside",
      "outputs": [
        {
          "internalType": "int56",
          "name": "tickCumulativeInside",
          "type": "int56"
        },
        {
          "internalType": "uint160",
          "name": "secondsPerLiquidityInsideX128",
          "type": "uint160"
        },
        {
          "internalType": "uint32",
          "name": "secondsInside",
          "type": "uint32"
        }
      ],
      "stateMutability": "view",
      "type": "function"
    },
    {
      "inputs": [
        {
          "internalType": "address",
          "name": "recipient",
          "type": "address"
        },
        {
          "internalType": "bool",
          "name": "zeroForOne",
          "type": "bool"
        },
        {
          "internalType": "int256",
          "name": "amountSpecified",
          "type": "int256"
        },
        {
          "internalType": "uint160",
          "name": "sqrtPriceLimitX96",
          "type": "uint160"
        },
        {
          "internalType": "bytes",
          "name": "data",
          "type": "bytes"
        }
      ],
      "name": "swap",
      "outputs": [
        {
          "internalType": "int256",
          "name": "amount0",
          "type": "int256"
        },
        {
          "internalType": "int256",
          "name": "amount1",
          "type": "int256"
        }
      ],
      "stateMutability": "nonpayable",
      "type": "function"
    },
    {
      "inputs": [
        {
          "internalType": "int16",
          "name": "",
          "type": "int16"
        }
      ],
      "name": "tickBitmap",
      "outputs": [
        {
          "internalType": "uint256",
          "name": "",
          "type": "uint256"
        }
      ],
      "stateMutability": "view",
      "type": "function"
    },
    {
      "inputs": [],
      "name": "tickSpacing",
      "outputs": [
        {
          "internalType": "int24",
          "name": "",
          "type": "int24"
        }
      ],
      "stateMutability": "view",
      "type": "function"
    },
    {
      "inputs": [
        {
          "internalType": "int24",
          "name": "",
          "type": "int24"
        }
      ],
      "name": "ticks",
      "outputs": [
        {
          "internalType": "uint128",
          "name": "liquidityGross",
          "type": "uint128"
        },
        {
          "internalType": "int128",
          "name": "liquidityNet",
          "type": "int128"
        },
        {
          "internalType": "uint256",
          "name": "feeGrowthOutside0X128",
          "type": "uint256"
        },
        {
          "internalType": "uint256",
          "name": "feeGrowthOutside1X128",
          "type": "uint256"
        },
        {
          "internalType": "int56",
          "name": "tickCumulativeOutside",
          "type": "int56"
        },
        {
          "internalType": "uint160",
          "name": "secondsPerLiquidityOutsideX128",
          "type": "uint160"
        },
        {
          "internalType": "uint32",
          "name": "secondsOutside",
          "type": "uint32"
        },
        {
          "internalType": "bool",
          "name": "initialized",
          "type": "bool"
        }
      ],
      "stateMutability": "view",
      "type": "function"
    },
    {
      "inputs": [],
      "name": "token0",
      "outputs": [
        {
          "internalType": "address",
          "name": "",
          "type": "address"
        }
      ],
      "stateMutability": "view",
      "type": "function"
    },
    {
      "inputs": [],
      "name": "token1",
      "outputs": [
        {
          "internalType": "address",
          "name": "",
          "type": "address"
        }
      ],
      "stateMutability": "view",
      "type": "function"
    }
  ],
  "bytecode": "0x6101606040523480156200001257600080fd5b503060601b60805260408051630890357360e41b81529051600091339163890357309160048082019260a092909190829003018186803b1580156200005657600080fd5b505afa1580156200006b573d6000803e3d6000fd5b505050506040513d60a08110156200008257600080fd5b508051602080830151604084015160608086015160809096015160e896871b6001600160e81b0319166101005291811b6001600160601b031990811660e05292811b831660c0529390931b1660a052600282810b900b90921b610120529150620000f79082906200010f811b620024b717901c565b60801b6001600160801b03191661014052506200017d565b60008082600281900b620d89e719816200012557fe5b05029050600083600281900b620d89e8816200013d57fe5b0502905060008460020b83830360020b816200015557fe5b0560010190508062ffffff166001600160801b038016816200017357fe5b0495945050505050565b60805160601c60a05160601c60c05160601c60e05160601c6101005160e81c6101205160e81c6101405160801c6152f26200022260003980611d2052806146405280614677525080610c9052806121e252806146ab52806146dd525080610d7f528061222a5250806112b65280611c3b528061219652806122065250806108f852806113fe52806116905280611bd55250806120f852508061252e52506152f26000f3fe608060405234801561001057600080fd5b50600436106101c45760003560e01c806370cf754a116100f9578063c45c4f5811610097578063ddca3f4311610071578063ddca3f4314610826578063f305839914610846578063f30dba931461084e578063f637731d146108d0576101c4565b8063c45c4f58146107f7578063d0c93a7c146107ff578063d21220a71461081e576101c4565b8063883bdbfd116100d3578063883bdbfd14610651578063a34123a71461075a578063a38807f214610794578063c45a0155146107ef576101c4565b806370cf754a146105e45780638206a4d1146105ec57806385b6672914610614576101c4565b80633850c7bd11610166578063490e6cbc11610140578063490e6cbc1461048e5780634f1eb3d81461051a578063514ea4bf1461056b5780635339c296146105c4576101c4565b80633850c7bd1461038b5780633c8a7d8d146103e45780634614131914610486576101c4565b80631ad8b03b116101a25780631ad8b03b146102c05780631c69ad00146102f7578063252c09d71461031157806332148f6714610368576101c4565b80630dfe1681146101c9578063128acb08146101ed5780631a6865021461029c575b600080fd5b6101d16108f6565b604080516001600160a01b039092168252519081900360200190f35b610283600480360360a081101561020357600080fd5b6001600160a01b0382358116926020810135151592604082013592606083013516919081019060a08101608082013564010000000081111561024457600080fd5b82018360208201111561025657600080fd5b8035906020019184600183028401116401000000008311171561027857600080fd5b50909250905061091a565b6040805192835260208301919091528051918290030190f35b6102a46115eb565b604080516001600160801b039092168252519081900360200190f35b6102c86115fa565b60405180836001600160801b03168152602001826001600160801b031681526020019250505060405180910390f35b6102ff611614565b60408051918252519081900360200190f35b61032e6004803603602081101561032757600080fd5b503561177b565b6040805163ffffffff909516855260069390930b60208501526001600160a01b039091168383015215156060830152519081900360800190f35b6103896004803603602081101561037e57600080fd5b503561ffff166117c1565b005b610393611871565b604080516001600160a01b03909816885260029690960b602088015261ffff9485168787015292841660608701529216608085015260ff90911660a0840152151560c0830152519081900360e00190f35b610283600480360360a08110156103fa57600080fd5b6001600160a01b03823516916020810135600290810b92604083013590910b916001600160801b036060820135169181019060a08101608082013564010000000081111561044757600080fd5b82018360208201111561045957600080fd5b8035906020019184600183028401116401000000008311171561047b57600080fd5b5090925090506118c1565b6102ff611afc565b610389600480360360808110156104a457600080fd5b6001600160a01b0382351691602081013591604082013591908101906080810160608201356401000000008111156104db57600080fd5b8201836020820111156104ed57600080fd5b8035906020019184600183028401116401000000008311171561050f57600080fd5b509092509050611b02565b6102c8600480360360a081101561053057600080fd5b506001600160a01b03813516906020810135600290810b91604081013590910b906001600160801b0360608201358116916080013516611b11565b6105886004803603602081101561058157600080fd5b5035611ccf565b604080516001600160801b0396871681526020810195909552848101939093529084166060840152909216608082015290519081900360a00190f35b6102ff600480360360208110156105da57600080fd5b503560010b611d0c565b6102a4611d1e565b6103896004803603604081101561060257600080fd5b5060ff81358116916020013516611d42565b6102c86004803603606081101561062a57600080fd5b506001600160a01b03813516906001600160801b0360208201358116916040013516611d46565b6106c16004803603602081101561066757600080fd5b81019060208101813564010000000081111561068257600080fd5b82018360208201111561069457600080fd5b803590602001918460208302840111640100000000831117156106b657600080fd5b509092509050611d51565b604051808060200180602001838103835285818151815260200191508051906020019060200280838360005b838110156107055781810151838201526020016106ed565b50505050905001838103825284818151815260200191508051906020019060200280838360005b8381101561074457818101518382015260200161072c565b5050505090500194505050505060405180910390f35b6102836004803603606081101561077057600080fd5b508035600290810b91602081013590910b90604001356001600160801b0316611dde565b6107be600480360360408110156107aa57600080fd5b508035600290810b9160200135900b611eff565b6040805160069490940b84526001600160a01b03909216602084015263ffffffff1682820152519081900360600190f35b6101d16120f6565b6102ff61211a565b6108076121e0565b6040805160029290920b8252519081900360200190f35b6101d1612204565b61082e612228565b6040805162ffffff9092168252519081900360200190f35b6102ff61224c565b61086e6004803603602081101561086457600080fd5b503560020b612252565b604080516001600160801b039099168952600f9790970b602089015287870195909552606087019390935260069190910b60808601526001600160a01b031660a085015263ffffffff1660c0840152151560e083015251908190036101000190f35b610389600480360360208110156108e657600080fd5b50356001600160a01b03166122c0565b7f000000000000000000000000000000000000000000000000000000000000000081565b600080610925612523565b85610977576040805162461bcd60e51b815260206004820152600260248201527f4153000000000000000000000000000000000000000000000000000000000000604482015290519081900360640190fd5b6040805160e0810182526000546001600160a01b0381168252600160a01b8104600290810b810b900b602083015261ffff600160b81b8204811693830193909352600160c81b810483166060830152600160d81b8104909216608082015260ff600160e81b8304811660a0830152600160f01b909204909116151560c08201819052610a4a576040805162461bcd60e51b815260206004820152600360248201527f4c4f4b0000000000000000000000000000000000000000000000000000000000604482015290519081900360640190fd5b87610a955780600001516001600160a01b0316866001600160a01b0316118015610a90575073fffd8963efd1fc6a506488495d951d5263988d266001600160a01b038716105b610ac7565b80600001516001600160a01b0316866001600160a01b0316108015610ac757506401000276a36001600160a01b038716115b610b18576040805162461bcd60e51b815260206004820152600360248201527f53504c0000000000000000000000000000000000000000000000000000000000604482015290519081900360640190fd5b600080547fff00ffffffffffffffffffffffffffffffffffffffffffffffffffffffffffff1681556040805160c08101909152808a610b625760048460a0015160ff16901c610b75565b60108460a0015160ff1681610b7357fe5b065b60ff1681526004546001600160801b03166020820152604001610b9661255a565b63ffffffff168152602001600060060b815260200160006001600160a01b031681526020016000151581525090506000808913905060006040518060e001604052808b81526020016000815260200185600001516001600160a01b03168152602001856020015160020b81526020018c610c1257600254610c16565b6001545b815260200160006001600160801b0316815260200184602001516001600160801b031681525090505b805115801590610c655750886001600160a01b031681604001516001600160a01b031614155b1561102f57610c72615259565b60408201516001600160a01b031681526060820151610cb5906006907f00000000000000000000000000000000000000000000000000000000000000008f61255e565b15156040830152600290810b810b60208301819052620d89e719910b1215610ce657620d89e7196020820152610d05565b6020810151620d89e860029190910b1315610d0557620d89e860208201525b610d1281602001516126a0565b6001600160a01b031660608201526040820151610da3908d610d4c578b6001600160a01b031683606001516001600160a01b031611610d66565b8b6001600160a01b031683606001516001600160a01b0316105b610d74578260600151610d76565b8b5b60c085015185517f00000000000000000000000000000000000000000000000000000000000000006129ee565b60c085015260a084015260808301526001600160a01b031660408301528215610e0557610dd98160c00151826080015101612be0565b825103825260a0810151610dfb90610df090612be0565b602084015190612c12565b6020830152610e40565b610e128160a00151612be0565b825101825260c08101516080820151610e3a91610e2f9101612be0565b602084015190612c2e565b60208301525b835160ff1615610e86576000846000015160ff168260c0015181610e6057fe5b60c0840180519290910491829003905260a0840180519091016001600160801b03169052505b60c08201516001600160801b031615610ec557610eb98160c00151600160801b8460c001516001600160801b0316612c44565b60808301805190910190525b80606001516001600160a01b031682604001516001600160a01b03161415610fee57806040015115610fc5578360a00151610f4f57610f2d846040015160008760200151886040015188602001518a606001516008612cf4909695949392919063ffffffff16565b6001600160a01b03166080860152600690810b900b6060850152600160a08501525b6000610f9b82602001518e610f6657600154610f6c565b84608001515b8f610f7b578560800151610f7f565b6002545b608089015160608a015160408b01516005959493929190612e87565b90508c15610fa7576000035b610fb58360c0015182612f72565b6001600160801b031660c0840152505b8b610fd4578060200151610fdd565b60018160200151035b600290810b900b6060830152611029565b80600001516001600160a01b031682604001516001600160a01b0316146110295761101c826040015161305e565b600290810b900b60608301525b50610c3f565b836020015160020b816060015160020b146111575760008061107d86604001518660400151886020015188602001518a606001518b6080015160086133b5909695949392919063ffffffff16565b60408501516060860151600080547fffffffffff0000ffffffffffffffffffffffffffffffffffffffffffffffffff16600160c81b61ffff95861602177fffffffffffffff0000ffffffffffffffffffffffffffffffffffffffffffffff16600160b81b9590941694909402929092177fffffffffffffffffff000000ffffffffffffffffffffffffffffffffffffffff16600160a01b62ffffff60029490940b93909316929092029190911773ffffffffffffffffffffffffffffffffffffffff19166001600160a01b03909116179055506111899050565b60408101516000805473ffffffffffffffffffffffffffffffffffffffff19166001600160a01b039092169190911790555b8060c001516001600160801b031683602001516001600160801b0316146111d85760c0810151600480546fffffffffffffffffffffffffffffffff19166001600160801b039092169190911790555b8a1561123157608081015160015560a08101516001600160801b03161561122c5760a0810151600380546fffffffffffffffffffffffffffffffff1981166001600160801b03918216909301169190911790555b611277565b608081015160025560a08101516001600160801b0316156112775760a0810151600380546001600160801b03808216600160801b92839004821690940116029190911790555b8115158b15151461129057602081015181518b0361129d565b80600001518a0381602001515b90965094508a156113f05760008512156112df576112df7f00000000000000000000000000000000000000000000000000000000000000008d8760000361357e565b60006112e9611614565b9050336001600160a01b031663fa461e3388888c8c6040518563ffffffff1660e01b815260040180858152602001848152602001806020018281038252848482818152602001925080828437600081840152601f19601f82011690508083019250505095505050505050600060405180830381600087803b15801561136d57600080fd5b505af1158015611381573d6000803e3d6000fd5b5050505061138d611614565b611397828961370e565b11156113ea576040805162461bcd60e51b815260206004820152600360248201527f4949410000000000000000000000000000000000000000000000000000000000604482015290519081900360640190fd5b50611534565b6000861215611427576114277f00000000000000000000000000000000000000000000000000000000000000008d8860000361357e565b600061143161211a565b9050336001600160a01b031663fa461e3388888c8c6040518563ffffffff1660e01b815260040180858152602001848152602001806020018281038252848482818152602001925080828437600081840152601f19601f82011690508083019250505095505050505050600060405180830381600087803b1580156114b557600080fd5b505af11580156114c9573d6000803e3d6000fd5b505050506114d561211a565b6114df828861370e565b1115611532576040805162461bcd60e51b815260206004820152600360248201527f4949410000000000000000000000000000000000000000000000000000000000604482015290519081900360640190fd5b505b60408082015160c083015160608085015184518b8152602081018b90526001600160a01b03948516818701526001600160801b039093169183019190915260020b60808201529151908e169133917fc42079f94a6350d7e6235f29174924f928cc2ac818eb64fed8004e115fbcca679181900360a00190a35050600080547fff00ffffffffffffffffffffffffffffffffffffffffffffffffffffffffffff16600160f01b17905550919890975095505050505050565b6004546001600160801b031681565b6003546001600160801b0380821691600160801b90041682565b604080513060248083019190915282518083039091018152604490910182526020810180517bffffffffffffffffffffffffffffffffffffffffffffffffffffffff167f70a082310000000000000000000000000000000000000000000000000000000017815291518151600093849384936001600160a01b037f00000000000000000000000000000000000000000000000000000000000000001693919290918291908083835b602083106116db5780518252601f1990920191602091820191016116bc565b6001836020036101000a038019825116818451168082178552505050505050905001915050600060405180830381855afa9150503d806000811461173b576040519150601f19603f3d011682016040523d82523d6000602084013e611740565b606091505b509150915081801561175457506020815110155b61175d57600080fd5b80806020019051602081101561177257600080fd5b50519250505090565b60088161ffff811061178c57600080fd5b015463ffffffff81169150640100000000810460060b90600160581b81046001600160a01b031690600160f81b900460ff1684565b6117c9612523565b60008054600160d81b900461ffff16906117e56008838561371e565b6000805461ffff808416600160d81b81027fffffff0000ffffffffffffffffffffffffffffffffffffffffffffffffffffff9093169290921790925591925083161461186c576040805161ffff80851682528316602082015281517fac49e518f90a358f652e4400164f05a5d8f7e35e7747279bc3a93dbf584e125a929181900390910190a15b505050565b6000546001600160a01b03811690600160a01b810460020b9061ffff600160b81b8204811691600160c81b8104821691600160d81b8204169060ff600160e81b8204811691600160f01b90041687565b6000806000856001600160801b031611611922576040805162461bcd60e51b815260206004820152600a60248201527f616d6f756e74203c3d3000000000000000000000000000000000000000000000604482015290519081900360640190fd5b60008061197060405180608001604052808c6001600160a01b031681526020018b60020b81526020018a60020b81526020016119668a6001600160801b03166137dd565b600f0b90526137ee565b92509250508193508092506119bb6040518060400160405280601081526020017f6c697175696469747920746f20616464000000000000000000000000000000008152508585613a6b565b60008085156119cf576119cc611614565b91505b84156119e0576119dd61211a565b90505b336001600160a01b031663d348799787878b8b6040518563ffffffff1660e01b815260040180858152602001848152602001806020018281038252848482818152602001925080828437600081840152601f19601f82011690508083019250505095505050505050600060405180830381600087803b158015611a6257600080fd5b505af1158015611a76573d6000803e3d6000fd5b505050508960020b8b60020b8d6001600160a01b03167f7a53080ba414158be7ec69b987b5fb7d07dee101fe85488f0853ae16239d0bde338d8b8b60405180856001600160a01b03168152602001846001600160801b0316815260200183815260200182815260200194505050505060405180910390a450505050965096945050505050565b60025481565b611b0a612523565b5050505050565b60008080611b226007338989613b4f565b60038101549091506001600160801b0390811690861611611b435784611b52565b60038101546001600160801b03165b60038201549093506001600160801b03600160801b909104811690851611611b7a5783611b90565b6003810154600160801b90046001600160801b03165b91506001600160801b03831615611bfe576003810180546fffffffffffffffffffffffffffffffff1981166001600160801b03918216869003821617909155611bfe907f0000000000000000000000000000000000000000000000000000000000000000908a90861661357e565b6001600160801b03821615611c64576003810180546001600160801b03600160801b808304821686900382160291811691909117909155611c64907f0000000000000000000000000000000000000000000000000000000000000000908a90851661357e565b604080516001600160a01b038a1681526001600160801b0380861660208301528416818301529051600288810b92908a900b9133917f70935338e69775456a85ddef226c395fb668b63fa0115f5f20610b388e6ca9c0919081900360600190a4509550959350505050565b60076020526000908152604090208054600182015460028301546003909301546001600160801b0392831693919281811691600160801b90041685565b60066020526000908152604090205481565b7f000000000000000000000000000000000000000000000000000000000000000081565b5050565b600080935093915050565b606080611d5c612523565b611dd3611d6761255a565b858580806020026020016040519081016040528093929190818152602001838360200280828437600092018290525054600454600896959450600160a01b820460020b935061ffff600160b81b8304811693506001600160801b0390911691600160c81b900416613bc6565b915091509250929050565b6000806000806000611e346040518060800160405280336001600160a01b031681526020018a60020b81526020018960020b8152602001611e27896001600160801b03166137dd565b600003600f0b90526137ee565b9250925092508160000394508060000393506000851180611e555750600084115b15611e9d576003830180546001600160801b038082168089018216600160801b93849004831689019092169092029091176fffffffffffffffffffffffffffffffff19161790555b604080516001600160801b0388168152602081018790528082018690529051600289810b92908b900b9133917f0c396cd989a39f4459b5fa1aed6a9a8dcdbc45908acfd67e028cd568da98982c919081900360600190a4505050935093915050565b6000806000611f0c612523565b611f168585613d3c565b600285810b810b60009081526005602052604080822087840b90930b825281206003830154600681900b9367010000000000000082046001600160a01b0316928492600160d81b810463ffffffff169284929091600160f81b900460ff1680611f7e57600080fd5b6003820154600681900b985067010000000000000081046001600160a01b03169650600160d81b810463ffffffff169450600160f81b900460ff1680611fc357600080fd5b50506040805160e0810182526000546001600160a01b0381168252600160a01b8104600290810b810b810b6020840181905261ffff600160b81b8404811695850195909552600160c81b830485166060850152600160d81b8304909416608084015260ff600160e81b8304811660a0850152600160f01b909204909116151560c08301529093508e810b91900b1215905061206c575093909403965090039350900390506120ef565b8a60020b816020015160020b12156120e057600061208861255a565b60208301516040840151600454606086015193945060009384936120be936008938893879392916001600160801b031690612cf4565b9a9003989098039b5050949096039290920396509091030392506120ef915050565b50949093039650039350900390505b9250925092565b7f000000000000000000000000000000000000000000000000000000000000000081565b604080513060248083019190915282518083039091018152604490910182526020810180517bffffffffffffffffffffffffffffffffffffffffffffffffffffffff167f70a082310000000000000000000000000000000000000000000000000000000017815291518151600093849384936001600160a01b037f0000000000000000000000000000000000000000000000000000000000000000169391929091829190808383602083106116db5780518252601f1990920191602091820191016116bc565b7f000000000000000000000000000000000000000000000000000000000000000081565b7f000000000000000000000000000000000000000000000000000000000000000081565b7f000000000000000000000000000000000000000000000000000000000000000081565b60015481565b60056020526000908152604090208054600182015460028301546003909301546001600160801b03831693600160801b909304600f0b9290600681900b9067010000000000000081046001600160a01b031690600160d81b810463ffffffff1690600160f81b900460ff1688565b6000546001600160a01b03161561231e576040805162461bcd60e51b815260206004820152600260248201527f4149000000000000000000000000000000000000000000000000000000000000604482015290519081900360640190fd5b60006123298261305e565b905060008061234161233961255a565b600890613e4f565b6040805160e0810182526001600160a01b038816808252600288810b6020808501829052600085870181905261ffff898116606088018190529089166080880181905260a08801839052600160c0909801979097528154600160f01b73ffffffffffffffffffffffffffffffffffffffff1990911687177fffffffffffffffffff000000ffffffffffffffffffffffffffffffffffffffff16600160a01b62ffffff9787900b9790971696909602959095177fffffffffff00000000ffffffffffffffffffffffffffffffffffffffffffffff16600160c81b909102177fffffff0000ffffffffffffffffffffffffffffffffffffffffffffffffffffff16600160d81b909602959095177fff0000ffffffffffffffffffffffffffffffffffffffffffffffffffffffffff1692909217909355835191825281019190915281519395509193507f98636036cb66a9c19a37435efc1e90142190214e8abeb821bdba3f2990dd4c9592918290030190a150505050565b60008082600281900b620d89e719816124cc57fe5b05029050600083600281900b620d89e8816124e357fe5b0502905060008460020b83830360020b816124fa57fe5b0560010190508062ffffff166001600160801b0380168161251757fe5b0493505050505b919050565b306001600160a01b037f0000000000000000000000000000000000000000000000000000000000000000161461255857600080fd5b565b4290565b60008060008460020b8660020b8161257257fe5b05905060008660020b12801561259957508460020b8660020b8161259257fe5b0760020b15155b156125a357600019015b8315612618576000806125b583613e9b565b600182810b810b600090815260208d9052604090205460ff83169190911b800160001901908116801515975092945090925090856125fa57888360ff1686030261260d565b8861260482613ead565b840360ff168603025b965050505050612696565b60008061262783600101613e9b565b91509150600060018260ff166001901b031990506000818b60008660010b60010b815260200190815260200160002054169050806000141595508561267957888360ff0360ff1686600101010261268f565b888361268483613f4d565b0360ff168660010101025b9650505050505b5094509492505050565b60008060008360020b126126b7578260020b6126bf565b8260020b6000035b9050620d89e8811115612719576040805162461bcd60e51b815260206004820152600160248201527f5400000000000000000000000000000000000000000000000000000000000000604482015290519081900360640190fd5b60006001821661272d57600160801b61273f565b6ffffcb933bd6fad37aa2d162d1a5940015b70ffffffffffffffffffffffffffffffffff1690506002821615612773576ffff97272373d413259a46990580e213a0260801c5b6004821615612792576ffff2e50f5f656932ef12357cf3c7fdcc0260801c5b60088216156127b1576fffe5caca7e10e4e61c3624eaa0941cd00260801c5b60108216156127d0576fffcb9843d60f6159c9db58835c9266440260801c5b60208216156127ef576fff973b41fa98c081472e6896dfb254c00260801c5b604082161561280e576fff2ea16466c96a3843ec78b326b528610260801c5b608082161561282d576ffe5dee046a99a2a811c461f1969c30530260801c5b61010082161561284d576ffcbe86c7900a88aedcffc83b479aa3a40260801c5b61020082161561286d576ff987a7253ac413176f2b074cf7815e540260801c5b61040082161561288d576ff3392b0822b70005940c7a398e4b70f30260801c5b6108008216156128ad576fe7159475a2c29b7443b29c7fa6e889d90260801c5b6110008216156128cd576fd097f3bdfd2022b8845ad8f792aa58250260801c5b6120008216156128ed576fa9f746462d870fdf8a65dc1f90e061e50260801c5b61400082161561290d576f70d869a156d2a1b890bb3df62baf32f70260801c5b61800082161561292d576f31be135f97d08fd981231505542fcfa60260801c5b6201000082161561294e576f09aa508b5b7a84e1c677de54f3e99bc90260801c5b6202000082161561296e576e5d6af8dedb81196699c329225ee6040260801c5b6204000082161561298d576d2216e584f5fa1ea926041bedfe980260801c5b620800008216156129aa576b048a170391f7dc42444e8fa20260801c5b60008460020b13156129c55780600019816129c157fe5b0490505b6401000000008106156129d95760016129dc565b60005b60ff16602082901c0192505050919050565b60008080806001600160a01b03808916908a161015818712801590612a73576000612a278989620f42400362ffffff16620f4240612c44565b905082612a4057612a3b8c8c8c60016140cd565b612a4d565b612a4d8b8d8c600161415a565b9550858110612a5e578a9650612a6d565b612a6a8c8b8386614217565b96505b50612abd565b81612a8a57612a858b8b8b600061415a565b612a97565b612a978a8c8b60006140cd565b9350838860000310612aab57899550612abd565b612aba8b8a8a60000385614263565b95505b6001600160a01b038a8116908716148215612b2057808015612adc5750815b612af257612aed878d8c600161415a565b612af4565b855b9550808015612b01575081155b612b1757612b12878d8c60006140cd565b612b19565b845b9450612b6a565b808015612b2a5750815b612b4057612b3b8c888c60016140cd565b612b42565b855b9550808015612b4f575081155b612b6557612b608c888c600061415a565b612b67565b845b94505b81158015612b7a57508860000385115b15612b86578860000394505b818015612ba557508a6001600160a01b0316876001600160a01b031614155b15612bb4578589039350612bd1565b612bce868962ffffff168a620f42400362ffffff166142af565b93505b50505095509550955095915050565b60007f80000000000000000000000000000000000000000000000000000000000000008210612c0e57600080fd5b5090565b80820382811315600083121514612c2857600080fd5b92915050565b81810182811215600083121514612c2857600080fd5b6000808060001985870986860292508281109083900303905080612c7a5760008411612c6f57600080fd5b508290049050612ced565b808411612c8657600080fd5b6000848688096000868103871696879004966002600389028118808a02820302808a02820302808a02820302808a02820302808a02820302808a02909103029181900381900460010186841190950394909402919094039290920491909117919091029150505b9392505050565b60008063ffffffff8716612d9b576000898661ffff1661ffff8110612d1557fe5b60408051608081018252919092015463ffffffff8082168084526401000000008304600690810b810b900b6020850152600160581b83046001600160a01b031694840194909452600160f81b90910460ff16151560608301529092508a1614612d8757612d84818a89886142e9565b90505b806020015181604001519250925050612e7b565b868803600080612db08c8c858c8c8c8c614399565b91509150816000015163ffffffff168363ffffffff161415612de2578160200151826040015194509450505050612e7b565b805163ffffffff84811691161415612e0a578060200151816040015194509450505050612e7b565b8151815160208085015190840151918390039286039163ffffffff80841692908516910360060b81612e3857fe5b05028460200151018263ffffffff168263ffffffff1686604001518660400151036001600160a01b03160281612e6a57fe5b048560400151019650965050505050505b97509795505050505050565b600295860b860b60009081526020979097526040909620600181018054909503909455938301805490920390915560038201805463ffffffff600160d81b6001600160a01b036701000000000000008085048216909603169094027fffffffffff0000000000000000000000000000000000000000ffffffffffffff90921691909117600681810b90960390950b66ffffffffffffff1666ffffffffffffff19909516949094178281048516909503909316027fff00000000ffffffffffffffffffffffffffffffffffffffffffffffffffffff90931692909217905554600160801b9004600f0b90565b60008082600f0b1215612ff257826001600160801b03168260000384039150816001600160801b031610612fed576040805162461bcd60e51b815260206004820152600260248201527f4c53000000000000000000000000000000000000000000000000000000000000604482015290519081900360640190fd5b612c28565b826001600160801b03168284019150816001600160801b03161015612c28576040805162461bcd60e51b815260206004820152600260248201527f4c41000000000000000000000000000000000000000000000000000000000000604482015290519081900360640190fd5b60006401000276a36001600160a01b0383161080159061309a575073fffd8963efd1fc6a506488495d951d5263988d266001600160a01b038316105b6130eb576040805162461bcd60e51b815260206004820152600160248201527f5200000000000000000000000000000000000000000000000000000000000000604482015290519081900360640190fd5b77ffffffffffffffffffffffffffffffffffffffff00000000602083901b166001600160801b03811160071b81811c67ffffffffffffffff811160061b90811c63ffffffff811160051b90811c61ffff811160041b90811c60ff8111600390811b91821c600f811160021b90811c918211600190811b92831c9790881196179094179092171790911717176080811061318c57607f810383901c9150613196565b80607f0383901b91505b908002607f81811c60ff83811c9190911c800280831c81831c1c800280841c81841c1c800280851c81851c1c800280861c81861c1c800280871c81871c1c800280881c81881c1c800280891c81891c1c8002808a1c818a1c1c8002808b1c818b1c1c8002808c1c818c1c1c8002808d1c818d1c1c8002808e1c9c81901c9c909c1c80029c8d901c9e9d607f198f0160401b60c09190911c678000000000000000161760c19b909b1c674000000000000000169a909a1760c29990991c672000000000000000169890981760c39790971c671000000000000000169690961760c49590951c670800000000000000169490941760c59390931c670400000000000000169290921760c69190911c670200000000000000161760c79190911c670100000000000000161760c89190911c6680000000000000161760c99190911c6640000000000000161760ca9190911c6620000000000000161760cb9190911c6610000000000000161760cc9190911c6608000000000000161760cd9190911c66040000000000001617693627a301d71055774c8581027ffffffffffffffffffffffffffffffffffd709b7e5480fba5a50fed5e62ffc5568101608090811d906fdb2df09e81959a81455e260799a0632f8301901d600281810b9083900b146133a657886001600160a01b031661338a826126a0565b6001600160a01b0316111561339f57816133a1565b805b6133a8565b815b9998505050505050505050565b6000806000898961ffff1661ffff81106133cb57fe5b60408051608081018252919092015463ffffffff8082168084526401000000008304600690810b810b900b6020850152600160581b83046001600160a01b031694840194909452600160f81b90910460ff16151560608301529092508916141561343b5788859250925050612e7b565b8461ffff168461ffff1611801561345c57506001850361ffff168961ffff16145b156134695783915061346d565b8491505b8161ffff168960010161ffff168161348157fe5b069250613490818989896142e9565b8a8461ffff1661ffff81106134a157fe5b825191018054602084015160408501516060909501511515600160f81b027effffffffffffffffffffffffffffffffffffffffffffffffffffffffffffff6001600160a01b03909616600160581b027fff0000000000000000000000000000000000000000ffffffffffffffffffffff60069390930b66ffffffffffffff16640100000000027fffffffffffffffffffffffffffffffffffffffffff00000000000000ffffffff63ffffffff90971663ffffffff199095169490941795909516929092171692909217929092161790555097509795505050505050565b604080516001600160a01b038481166024830152604480830185905283518084039091018152606490920183526020820180517bffffffffffffffffffffffffffffffffffffffffffffffffffffffff167fa9059cbb000000000000000000000000000000000000000000000000000000001781529251825160009485949389169392918291908083835b602083106136285780518252601f199092019160209182019101613609565b6001836020036101000a0380198251168184511680821785525050505050509050019150506000604051808303816000865af19150503d806000811461368a576040519150601f19603f3d011682016040523d82523d6000602084013e61368f565b606091505b50915091508180156136bd5750805115806136bd57508080602001905160208110156136ba57600080fd5b50515b611b0a576040805162461bcd60e51b815260206004820152600260248201527f5446000000000000000000000000000000000000000000000000000000000000604482015290519081900360640190fd5b80820182811015612c2857600080fd5b6000808361ffff1611613778576040805162461bcd60e51b815260206004820152600160248201527f4900000000000000000000000000000000000000000000000000000000000000604482015290519081900360640190fd5b8261ffff168261ffff161161378e575081612ced565b825b8261ffff168161ffff1610156137d4576001858261ffff1661ffff81106137b357fe5b01805463ffffffff191663ffffffff92909216919091179055600101613790565b50909392505050565b80600f81900b811461251e57600080fd5b60008060006137fb612523565b61380d84602001518560400151613d3c565b6040805160e0810182526000546001600160a01b0381168252600160a01b8104600290810b810b900b602080840182905261ffff600160b81b8404811685870152600160c81b84048116606080870191909152600160d81b8504909116608086015260ff600160e81b8504811660a0870152600160f01b909404909316151560c0850152885190890151948901519289015193946138b194919390929091906145b0565b93508460600151600f0b600014613a6357846020015160020b816020015160020b1215613906576138ff6138e886602001516126a0565b6138f587604001516126a0565b8760600151614765565b9250613a63565b846040015160020b816020015160020b1215613a395760045460408201516001600160801b03909116906139589061393c61255a565b60208501516060860151608087015160089493929187916133b5565b600080547fffffffffff0000ffffffffffffffffffffffffffffffffffffffffffffffffff16600160c81b61ffff93841602177fffffffffffffff0000ffffffffffffffffffffffffffffffffffffffffffffff16600160b81b9390921692909202179055815160408701516139dc91906139d2906126a0565b8860600151614765565b93506139fa6139ee87602001516126a0565b835160608901516147a9565b9250613a0a818760600151612f72565b600480546fffffffffffffffffffffffffffffffff19166001600160801b039290921691909117905550613a63565b613a60613a4986602001516126a0565b613a5687604001516126a0565b87606001516147a9565b91505b509193909250565b61186c8383836040516024018080602001848152602001838152602001828103825285818151815260200191508051906020019080838360005b83811015613abd578181015183820152602001613aa5565b50505050905090810190601f168015613aea5780820380516001836020036101000a031916815260200191505b5060408051601f198184030181529190526020810180517bffffffffffffffffffffffffffffffffffffffffffffffffffffffff167fca47c4eb0000000000000000000000000000000000000000000000000000000017905294506147d89350505050565b6040805160609490941b7fffffffffffffffffffffffffffffffffffffffff00000000000000000000000016602080860191909152600293840b60e890811b60348701529290930b90911b60378401528051808403601a018152603a90930181528251928201929092206000908152929052902090565b60608060008361ffff1611613c22576040805162461bcd60e51b815260206004820152600160248201527f4900000000000000000000000000000000000000000000000000000000000000604482015290519081900360640190fd5b865167ffffffffffffffff81118015613c3a57600080fd5b50604051908082528060200260200182016040528015613c64578160200160208202803683370190505b509150865167ffffffffffffffff81118015613c7f57600080fd5b50604051908082528060200260200182016040528015613ca9578160200160208202803683370190505b50905060005b8751811015613d2f57613cda8a8a8a8481518110613cc957fe5b60200260200101518a8a8a8a612cf4565b848381518110613ce657fe5b60200260200101848481518110613cf957fe5b60200260200101826001600160a01b03166001600160a01b03168152508260060b60060b81525050508080600101915050613caf565b5097509795505050505050565b8060020b8260020b12613d96576040805162461bcd60e51b815260206004820152600360248201527f544c550000000000000000000000000000000000000000000000000000000000604482015290519081900360640190fd5b620d89e719600283900b1215613df3576040805162461bcd60e51b815260206004820152600360248201527f544c4d0000000000000000000000000000000000000000000000000000000000604482015290519081900360640190fd5b620d89e8600282900b1315611d42576040805162461bcd60e51b815260206004820152600360248201527f54554d0000000000000000000000000000000000000000000000000000000000604482015290519081900360640190fd5b6040805160808101825263ffffffff9283168082526000602083018190529282019290925260016060909101819052835463ffffffff1916909117909116600160f81b17909155908190565b60020b600881901d9161010090910790565b6000808211613ebb57600080fd5b600160801b8210613ece57608091821c91015b680100000000000000008210613ee657604091821c91015b6401000000008210613efa57602091821c91015b620100008210613f0c57601091821c91015b6101008210613f1d57600891821c91015b60108210613f2d57600491821c91015b60048210613f3d57600291821c91015b6002821061251e57600101919050565b6000808211613f5b57600080fd5b5060ff6001600160801b03821615613f7657607f1901613f7e565b608082901c91505b67ffffffffffffffff821615613fb5577fffffffffffffffffffffffffffffffffffffffffffffffffffffffffffffffc001613fbd565b604082901c91505b63ffffffff821615613fd257601f1901613fda565b602082901c91505b61ffff82161561400b577ffffffffffffffffffffffffffffffffffffffffffffffffffffffffffffffff001614013565b601082901c91505b60ff821615614043577ffffffffffffffffffffffffffffffffffffffffffffffffffffffffffffffff80161404b565b600882901c91505b600f82161561407b577ffffffffffffffffffffffffffffffffffffffffffffffffffffffffffffffffc01614083565b600482901c91505b60038216156140b3577ffffffffffffffffffffffffffffffffffffffffffffffffffffffffffffffffe016140bb565b600282901c91505b600182161561251e5760001901919050565b6000836001600160a01b0316856001600160a01b031611156140ed579293925b816141235761411e836001600160801b03168686036001600160a01b03166c01000000000000000000000000612c44565b61414f565b61414f836001600160801b03168686036001600160a01b03166c010000000000000000000000006142af565b90505b949350505050565b6000836001600160a01b0316856001600160a01b0316111561417a579293925b7bffffffffffffffffffffffffffffffff000000000000000000000000606084901b166001600160a01b0386860381169087166141b657600080fd5b836141e657866001600160a01b03166141d98383896001600160a01b0316612c44565b816141e057fe5b0461420c565b61420c6141fd8383896001600160a01b03166142af565b886001600160a01b03166147f9565b979650505050505050565b600080856001600160a01b03161161422e57600080fd5b6000846001600160801b03161161424457600080fd5b816142565761411e8585856001614804565b61414f85858560016148f7565b600080856001600160a01b03161161427a57600080fd5b6000846001600160801b03161161429057600080fd5b816142a25761411e85858560006148f7565b61414f8585856000614804565b60006142bc848484612c44565b9050600082806142c857fe5b8486091115612ced5760001981106142df57600080fd5b6001019392505050565b6142f1615295565b600085600001518503905060405180608001604052808663ffffffff1681526020018263ffffffff168660020b0288602001510160060b81526020016000856001600160801b031611614345576001614347565b845b6001600160801b031673ffffffff00000000000000000000000000000000608085901b168161437257fe5b048860400151016001600160a01b0316815260200160011515815250915050949350505050565b6143a1615295565b6143a9615295565b888561ffff1661ffff81106143ba57fe5b60408051608081018252919092015463ffffffff81168083526401000000008204600690810b810b900b6020840152600160581b82046001600160a01b031693830193909352600160f81b900460ff1615156060820152925061441f908990896149ec565b15614457578663ffffffff16826000015163ffffffff16141561444157612e7b565b8161444e838989886142e9565b91509150612e7b565b888361ffff168660010161ffff168161446c57fe5b0661ffff1661ffff811061447c57fe5b60408051608081018252929091015463ffffffff811683526401000000008104600690810b810b900b60208401526001600160a01b03600160581b8204169183019190915260ff600160f81b9091041615156060820181905290925061453357604080516080810182528a5463ffffffff811682526401000000008104600690810b810b900b6020830152600160581b81046001600160a01b031692820192909252600160f81b90910460ff161515606082015291505b614542888360000151896149ec565b614593576040805162461bcd60e51b815260206004820152600360248201527f4f4c440000000000000000000000000000000000000000000000000000000000604482015290519081900360640190fd5b6145a08989898887614aaf565b9150915097509795505050505050565b60006145bf6007878787613b4f565b60015460025491925090600080600f87900b156147055760006145e061255a565b600080546004549293509091829161462a9160089186918591600160a01b810460020b9161ffff600160b81b83048116926001600160801b0390921691600160c81b900416612cf4565b909250905061466460058d8b8d8b8b87898b60007f0000000000000000000000000000000000000000000000000000000000000000614c4f565b945061469b60058c8b8d8b8b87898b60017f0000000000000000000000000000000000000000000000000000000000000000614c4f565b935084156146cf576146cf60068d7f0000000000000000000000000000000000000000000000000000000000000000614e75565b83156147015761470160068c7f0000000000000000000000000000000000000000000000000000000000000000614e75565b5050505b60008061471760058c8c8b8a8a614f33565b9092509050614728878a8484614fdf565b600089600f0b12156147565783156147455761474560058c6151a1565b82156147565761475660058b6151a1565b50505050505095945050505050565b60008082600f0b1261478b57614786614781858585600161415a565b612be0565b614152565b61479e614781858585600003600061415a565b600003949350505050565b60008082600f0b126147c55761478661478185858560016140cd565b61479e61478185858560000360006140cd565b80516a636f6e736f6c652e6c6f67602083016000808483855afa5050505050565b808204910615150190565b600081156148805760006001600160a01b038411156148435761483e846c01000000000000000000000000876001600160801b0316612c44565b61485b565b6001600160801b038516606085901b8161485957fe5b045b90506148786148736001600160a01b0388168361370e565b6151cd565b915050614152565b60006001600160a01b038411156148b7576148b2846c01000000000000000000000000876001600160801b03166142af565b6148ce565b6148ce606085901b6001600160801b0387166147f9565b905080866001600160a01b0316116148e557600080fd5b6001600160a01b038616039050614152565b600082614905575083614152565b7bffffffffffffffffffffffffffffffff000000000000000000000000606085901b1682156149a5576001600160a01b0386168481029085828161494557fe5b041415614976578181018281106149745761496a83896001600160a01b0316836142af565b9350505050614152565b505b61499c82614997878a6001600160a01b0316868161499057fe5b049061370e565b6147f9565b92505050614152565b6001600160a01b038616848102908582816149bc57fe5b041480156149c957508082115b6149d257600080fd5b80820361496a614873846001600160a01b038b16846142af565b60008363ffffffff168363ffffffff1611158015614a1657508363ffffffff168263ffffffff1611155b15614a32578163ffffffff168363ffffffff1611159050612ced565b60008463ffffffff168463ffffffff1611614a5a578363ffffffff1664010000000001614a62565b8363ffffffff165b64ffffffffff16905060008563ffffffff168463ffffffff1611614a93578363ffffffff1664010000000001614a9b565b8363ffffffff165b64ffffffffff169091111595945050505050565b614ab7615295565b614abf615295565b60008361ffff168560010161ffff1681614ad557fe5b0661ffff169050600060018561ffff16830103905060005b506002818301048961ffff87168281614b0257fe5b0661ffff8110614b0e57fe5b60408051608081018252929091015463ffffffff811683526401000000008104600690810b810b900b60208401526001600160a01b03600160581b8204169183019190915260ff600160f81b90910416151560608201819052909550614b7957806001019250614aed565b898661ffff168260010181614b8a57fe5b0661ffff8110614b9657fe5b60408051608081018252929091015463ffffffff811683526401000000008104600690810b810b900b60208401526001600160a01b03600160581b8204169183019190915260ff600160f81b90910416151560608201528551909450600090614c01908b908b6149ec565b9050808015614c1a5750614c1a8a8a87600001516149ec565b15614c255750614c42565b80614c3557600182039250614c3c565b8160010193505b50614aed565b5050509550959350505050565b60028a810b900b600090815260208c90526040812080546001600160801b031682614c7a828d612f72565b9050846001600160801b0316816001600160801b03161115614ce3576040805162461bcd60e51b815260206004820152600260248201527f4c4f000000000000000000000000000000000000000000000000000000000000604482015290519081900360640190fd5b6001600160801b038281161590821615811415945015614dd1578c60020b8e60020b13614da157600183018b9055600283018a90556003830180547fffffffffff0000000000000000000000000000000000000000ffffffffffffff166701000000000000006001600160a01b038c16021766ffffffffffffff191666ffffffffffffff60068b900b16177fff00000000ffffffffffffffffffffffffffffffffffffffffffffffffffffff16600160d81b63ffffffff8a16021790555b6003830180547effffffffffffffffffffffffffffffffffffffffffffffffffffffffffffff16600160f81b1790555b82546fffffffffffffffffffffffffffffffff19166001600160801b03821617835585614e23578254614e1e90614e1990600160801b9004600f90810b810b908f900b612c2e565b6137dd565b614e44565b8254614e4490614e1990600160801b9004600f90810b810b908f900b612c12565b8354600f9190910b6001600160801b03908116600160801b0291161790925550909c9b505050505050505050505050565b614e858260020b8260020b6151e3565b8060020b8260020b81614e9457fe5b0760020b15614eea576040805162461bcd60e51b815260206004820152601460248201527f7469636b4269746d61703a207469636b206d6f64000000000000000000000000604482015290519081900360640190fd5b600080614f058360020b8560020b81614eff57fe5b05613e9b565b600191820b820b60009081526020979097526040909620805460ff9097169190911b90951890945550505050565b600285810b80820b60009081526020899052604080822088850b850b83529082209193849391929184918291908a900b12614f7957505060018201546002830154614f8c565b8360010154880391508360020154870390505b6000808b60020b8b60020b1215614fae57505060018301546002840154614fc1565b84600101548a0391508460020154890390505b92909803979097039b96909503949094039850939650505050505050565b6040805160a08101825285546001600160801b0390811682526001870154602083015260028701549282019290925260038601548083166060830152600160801b900490911660808201526000600f85900b6150995781516001600160801b0316615091576040805162461bcd60e51b815260206004820152600260248201527f4e50000000000000000000000000000000000000000000000000000000000000604482015290519081900360640190fd5b5080516150a8565b81516150a59086612f72565b90505b60006150cc8360200151860384600001516001600160801b0316600160801b612c44565b905060006150f28460400151860385600001516001600160801b0316600160801b612c44565b905086600f0b6000146151225787546fffffffffffffffffffffffffffffffff19166001600160801b0384161788555b60018801869055600288018590556001600160801b03821615158061515057506000816001600160801b0316115b15615197576003880180546fffffffffffffffffffffffffffffffff1981166001600160801b039182168501821617808216600160801b9182900483168501909216021790555b5050505050505050565b600290810b810b6000908152602092909252604082208281556001810183905590810182905560030155565b806001600160a01b038116811461251e57600080fd5b604080516024810184905260448082018490528251808303909101815260649091019091526020810180517bffffffffffffffffffffffffffffffffffffffffffffffffffffffff167ff666715a00000000000000000000000000000000000000000000000000000000179052611d42906147d8565b6040805160e081018252600080825260208201819052918101829052606081018290526080810182905260a0810182905260c081019190915290565b6040805160808101825260008082526020820181905291810182905260608101919091529056fea2646970667358221220d4d59085b9f47ec55e6ed3636ce5bad5c2e846459e3566e3d91ef53da635dc8964736f6c63430007060033",
  "linkReferences": {},
  "deployedLinkReferences": {}
}