{
  "_format": "hh-sol-artifact-1",
  "contractName": "FrogSponsor",
  "sourceName": "contracts/frogs/FrogSponsor.sol",
  "abi": [
    {
      "inputs": [
        {
          "components": [
            {
              "internalType": "address",
              "name": "token0",
              "type": "address"
            },
            {
              "internalType": "address",
              "name": "token1",
              "type": "address"
            },
            {
              "internalType": "uint24",
              "name": "poolFee",
              "type": "uint24"
            },
            {
              "internalType": "address",
              "name": "frogReferalAddress",
              "type": "address"
            },
            {
              "internalType": "bool",
              "name": "isEthLottery",
              "type": "bool"
            },
            {
              "internalType": "address",
              "name": "beneficiary",
              "type": "address"
            },
            {
              "internalType": "address",
              "name": "pool",
              "type": "address"
            },
            {
              "internalType": "address",
              "name": "nonfungiblePositionManager",
              "type": "address"
            },
            {
              "internalType": "address",
              "name": "swapRouter",
              "type": "address"
            },
            {
              "internalType": "address",
              "name": "pancakeFactory",
              "type": "address"
            },
            {
              "internalType": "address",
              "name": "stable",
              "type": "address"
            },
            {
              "internalType": "bool",
              "name": "isReversed",
              "type": "bool"
            }
          ],
          "internalType": "struct IFrog.DeployLotteryParams",
          "name": "params",
          "type": "tuple"
        },
        {
          "internalType": "address",
          "name": "_FrogLotteryAddress",
          "type": "address"
        }
      ],
      "stateMutability": "nonpayable",
      "type": "constructor"
    },
    {
      "anonymous": false,
      "inputs": [
        {
          "indexed": true,
          "internalType": "address",
          "name": "_oldBeneficiary",
          "type": "address"
        },
        {
          "indexed": true,
          "internalType": "address",
          "name": "_newBeneficiary",
          "type": "address"
        }
      ],
      "name": "BeneficiaryChanged",
      "type": "event"
    },
    {
      "anonymous": false,
      "inputs": [
        {
          "indexed": true,
          "internalType": "address",
          "name": "_participant",
          "type": "address"
        },
        {
          "indexed": false,
          "internalType": "uint256",
          "name": "_amount",
          "type": "uint256"
        },
        {
          "indexed": false,
          "internalType": "uint256",
          "name": "_oldBalance",
          "type": "uint256"
        }
      ],
      "name": "Deposit",
      "type": "event"
    },
    {
      "anonymous": false,
      "inputs": [
        {
          "indexed": true,
          "internalType": "uint256",
          "name": "_drawNumber",
          "type": "uint256"
        },
        {
          "indexed": false,
          "internalType": "uint256",
          "name": "_rewardToken0",
          "type": "uint256"
        },
        {
          "indexed": false,
          "internalType": "uint256",
          "name": "_rewardToken1",
          "type": "uint256"
        },
        {
          "indexed": false,
          "internalType": "uint256",
          "name": "_prticipantsRewardToken0",
          "type": "uint256"
        },
        {
          "indexed": false,
          "internalType": "uint256",
          "name": "_prticipantsRewardToken1",
          "type": "uint256"
        }
      ],
      "name": "Draw",
      "type": "event"
    },
    {
      "anonymous": false,
      "inputs": [
        {
          "indexed": true,
          "internalType": "uint256",
          "name": "_oldFeePercent",
          "type": "uint256"
        },
        {
          "indexed": true,
          "internalType": "uint256",
          "name": "_newFeePercent",
          "type": "uint256"
        }
      ],
      "name": "FeePercentChanged",
      "type": "event"
    },
    {
      "anonymous": false,
      "inputs": [
        {
          "indexed": true,
          "internalType": "address",
          "name": "_newParticipant",
          "type": "address"
        }
      ],
      "name": "NewParticipant",
      "type": "event"
    },
    {
      "anonymous": false,
      "inputs": [
        {
          "indexed": true,
          "internalType": "uint256",
          "name": "_drawNumber",
          "type": "uint256"
        },
        {
          "indexed": true,
          "internalType": "address",
          "name": "_winner",
          "type": "address"
        },
        {
          "indexed": false,
          "internalType": "uint256",
          "name": "_amountToken0",
          "type": "uint256"
        },
        {
          "indexed": false,
          "internalType": "uint256",
          "name": "_amountToken1",
          "type": "uint256"
        }
      ],
      "name": "Victory",
      "type": "event"
    },
    {
      "anonymous": false,
      "inputs": [
        {
          "indexed": true,
          "internalType": "address",
          "name": "_participant",
          "type": "address"
        },
        {
          "indexed": false,
          "internalType": "uint256",
          "name": "_amount",
          "type": "uint256"
        },
        {
          "indexed": false,
          "internalType": "uint256",
          "name": "_oldBalance",
          "type": "uint256"
        }
      ],
      "name": "Withdraw",
      "type": "event"
    },
    {
      "inputs": [
        {
          "components": [
            {
              "internalType": "address",
              "name": "wallet",
              "type": "address"
            },
            {
              "internalType": "uint256",
              "name": "reward0",
              "type": "uint256"
            },
            {
              "internalType": "uint256",
              "name": "reward1",
              "type": "uint256"
            }
          ],
          "internalType": "struct IFrogReferal.ReferersRewardInfo[]",
          "name": "data",
          "type": "tuple[]"
        },
        {
          "internalType": "uint256",
          "name": "referersReward0",
          "type": "uint256"
        },
        {
          "internalType": "uint256",
          "name": "referersReward1",
          "type": "uint256"
        }
      ],
      "name": "afterDraw",
      "outputs": [],
      "stateMutability": "nonpayable",
      "type": "function"
    },
    {
      "inputs": [
        {
          "internalType": "address",
          "name": "",
          "type": "address"
        }
      ],
      "name": "alreadyParticipant",
      "outputs": [
        {
          "internalType": "bool",
          "name": "",
          "type": "bool"
        }
      ],
      "stateMutability": "view",
      "type": "function"
    },
    {
      "inputs": [
        {
          "internalType": "address",
          "name": "",
          "type": "address"
        }
      ],
      "name": "balanceOf",
      "outputs": [
        {
          "internalType": "uint256",
          "name": "",
          "type": "uint256"
        }
      ],
      "stateMutability": "view",
      "type": "function"
    },
    {
      "inputs": [],
      "name": "beneficiary",
      "outputs": [
        {
          "internalType": "address",
          "name": "",
          "type": "address"
        }
      ],
      "stateMutability": "view",
      "type": "function"
    },
    {
      "inputs": [
        {
          "internalType": "uint160",
          "name": "sqrtPriceX96",
          "type": "uint160"
        },
        {
          "internalType": "int24",
          "name": "currentTick",
          "type": "int24"
        },
        {
          "internalType": "int24",
          "name": "tickLower",
          "type": "int24"
        },
        {
          "internalType": "int24",
          "name": "tickUpper",
          "type": "int24"
        },
        {
          "internalType": "int256",
          "name": "liquidity",
          "type": "int256"
        },
        {
          "internalType": "bool",
          "name": "isMinus",
          "type": "bool"
        }
      ],
      "name": "calculateAmountsForLiquidity",
      "outputs": [
        {
          "internalType": "uint256",
          "name": "amount0",
          "type": "uint256"
        },
        {
          "internalType": "uint256",
          "name": "amount1",
          "type": "uint256"
        }
      ],
      "stateMutability": "pure",
      "type": "function"
    },
    {
      "inputs": [],
      "name": "claimReward",
      "outputs": [],
      "stateMutability": "nonpayable",
      "type": "function"
    },
    {
      "inputs": [
        {
          "internalType": "int24",
          "name": "_tickLower",
          "type": "int24"
        },
        {
          "internalType": "int24",
          "name": "_tickUpper",
          "type": "int24"
        }
      ],
      "name": "createPosition",
      "outputs": [],
      "stateMutability": "nonpayable",
      "type": "function"
    },
    {
      "inputs": [
        {
          "internalType": "address",
          "name": "token",
          "type": "address"
        },
        {
          "internalType": "uint256",
          "name": "amount",
          "type": "uint256"
        }
      ],
      "name": "deposit",
      "outputs": [
        {
          "internalType": "bool",
          "name": "success",
          "type": "bool"
        }
      ],
      "stateMutability": "payable",
      "type": "function"
    },
    {
      "inputs": [
        {
          "internalType": "address",
          "name": "",
          "type": "address"
        }
      ],
      "name": "depositOf",
      "outputs": [
        {
          "internalType": "uint256",
          "name": "",
          "type": "uint256"
        }
      ],
      "stateMutability": "view",
      "type": "function"
    },
    {
      "inputs": [],
      "name": "draw",
      "outputs": [],
      "stateMutability": "nonpayable",
      "type": "function"
    },
    {
      "inputs": [],
      "name": "drawNumber",
      "outputs": [
        {
          "internalType": "uint256",
          "name": "",
          "type": "uint256"
        }
      ],
      "stateMutability": "view",
      "type": "function"
    },
    {
      "inputs": [],
      "name": "farmTotal",
      "outputs": [
        {
          "internalType": "uint256",
          "name": "",
          "type": "uint256"
        }
      ],
      "stateMutability": "view",
      "type": "function"
    },
    {
      "inputs": [],
      "name": "getParticipants",
      "outputs": [
        {
          "internalType": "address[]",
          "name": "result",
          "type": "address[]"
        },
        {
          "internalType": "uint256",
          "name": "counter",
          "type": "uint256"
        }
      ],
      "stateMutability": "view",
      "type": "function"
    },
    {
      "inputs": [
        {
          "internalType": "address",
          "name": "tokenIn",
          "type": "address"
        },
        {
          "internalType": "uint128",
          "name": "amount",
          "type": "uint128"
        }
      ],
      "name": "getPriceWithDecimalsContoller",
      "outputs": [
        {
          "internalType": "uint256",
          "name": "amountOut",
          "type": "uint256"
        }
      ],
      "stateMutability": "view",
      "type": "function"
    },
    {
      "inputs": [],
      "name": "getRandomParticipantForSponsor",
      "outputs": [
        {
          "internalType": "address[]",
          "name": "",
          "type": "address[]"
        },
        {
          "internalType": "uint256[]",
          "name": "",
          "type": "uint256[]"
        }
      ],
      "stateMutability": "view",
      "type": "function"
    },
    {
      "inputs": [
        {
          "internalType": "address",
          "name": "_participant",
          "type": "address"
        }
      ],
      "name": "isParticipant",
      "outputs": [
        {
          "internalType": "bool",
          "name": "",
          "type": "bool"
        }
      ],
      "stateMutability": "view",
      "type": "function"
    },
    {
      "inputs": [],
      "name": "maxUsd",
      "outputs": [
        {
          "internalType": "uint256",
          "name": "",
          "type": "uint256"
        }
      ],
      "stateMutability": "view",
      "type": "function"
    },
    {
      "inputs": [],
      "name": "minUsd",
      "outputs": [
        {
          "internalType": "uint256",
          "name": "",
          "type": "uint256"
        }
      ],
      "stateMutability": "view",
      "type": "function"
    },
    {
      "inputs": [],
      "name": "nonfungiblePositionManager",
      "outputs": [
        {
          "internalType": "address",
          "name": "",
          "type": "address"
        }
      ],
      "stateMutability": "view",
      "type": "function"
    },
    {
      "inputs": [],
      "name": "pancakeFactory",
      "outputs": [
        {
          "internalType": "address",
          "name": "",
          "type": "address"
        }
      ],
      "stateMutability": "view",
      "type": "function"
    },
    {
      "inputs": [
        {
          "internalType": "uint256",
          "name": "",
          "type": "uint256"
        }
      ],
      "name": "participants",
      "outputs": [
        {
          "internalType": "address",
          "name": "",
          "type": "address"
        }
      ],
      "stateMutability": "view",
      "type": "function"
    },
    {
      "inputs": [],
      "name": "pool",
      "outputs": [
        {
          "internalType": "address",
          "name": "",
          "type": "address"
        }
      ],
      "stateMutability": "view",
      "type": "function"
    },
    {
      "inputs": [],
      "name": "poolFee",
      "outputs": [
        {
          "internalType": "uint24",
          "name": "",
          "type": "uint24"
        }
      ],
      "stateMutability": "view",
      "type": "function"
    },
    {
      "inputs": [
        {
          "internalType": "bytes",
          "name": "message",
          "type": "bytes"
        },
        {
          "internalType": "uint8",
          "name": "v",
          "type": "uint8"
        },
        {
          "internalType": "bytes32",
          "name": "r",
          "type": "bytes32"
        },
        {
          "internalType": "bytes32",
          "name": "s",
          "type": "bytes32"
        },
        {
          "internalType": "address",
          "name": "token",
          "type": "address"
        },
        {
          "internalType": "uint256",
          "name": "amount",
          "type": "uint256"
        }
      ],
      "name": "registerBeforeDeposit",
      "outputs": [
        {
          "internalType": "bool",
          "name": "success",
          "type": "bool"
        }
      ],
      "stateMutability": "payable",
      "type": "function"
    },
    {
      "inputs": [
        {
          "internalType": "address",
          "name": "",
          "type": "address"
        }
      ],
      "name": "rewardOfToken0",
      "outputs": [
        {
          "internalType": "uint256",
          "name": "",
          "type": "uint256"
        }
      ],
      "stateMutability": "view",
      "type": "function"
    },
    {
      "inputs": [
        {
          "internalType": "address",
          "name": "",
          "type": "address"
        }
      ],
      "name": "rewardOfToken1",
      "outputs": [
        {
          "internalType": "uint256",
          "name": "",
          "type": "uint256"
        }
      ],
      "stateMutability": "view",
      "type": "function"
    },
    {
      "inputs": [
        {
          "internalType": "address",
          "name": "_newBeneficiary",
          "type": "address"
        }
      ],
      "name": "setBeneficiary",
      "outputs": [],
      "stateMutability": "nonpayable",
      "type": "function"
    },
    {
      "inputs": [
        {
          "internalType": "uint256",
          "name": "_newFeePercent",
          "type": "uint256"
        }
      ],
      "name": "setFeePercent",
      "outputs": [],
      "stateMutability": "nonpayable",
      "type": "function"
    },
    {
      "inputs": [
        {
          "internalType": "address",
          "name": "_address",
          "type": "address"
        }
      ],
      "name": "setFrogReferalAddress",
      "outputs": [],
      "stateMutability": "nonpayable",
      "type": "function"
    },
    {
      "inputs": [
        {
          "internalType": "uint256",
          "name": "_maxUsd",
          "type": "uint256"
        }
      ],
      "name": "setMaxUsd",
      "outputs": [],
      "stateMutability": "nonpayable",
      "type": "function"
    },
    {
      "inputs": [
        {
          "internalType": "uint256",
          "name": "_minUsd",
          "type": "uint256"
        }
      ],
      "name": "setMinUsd",
      "outputs": [],
      "stateMutability": "nonpayable",
      "type": "function"
    },
    {
      "inputs": [
        {
          "internalType": "address",
          "name": "_address",
          "type": "address"
        }
      ],
      "name": "setStableCoinAddress",
      "outputs": [],
      "stateMutability": "nonpayable",
      "type": "function"
    },
    {
      "inputs": [
        {
          "internalType": "address",
          "name": "_cakeContractAddress",
          "type": "address"
        }
      ],
      "name": "setToken0ContractAddress",
      "outputs": [],
      "stateMutability": "nonpayable",
      "type": "function"
    },
    {
      "inputs": [
        {
          "internalType": "address",
          "name": "_address",
          "type": "address"
        }
      ],
      "name": "setToken1ContractAddress",
      "outputs": [],
      "stateMutability": "nonpayable",
      "type": "function"
    },
    {
      "inputs": [],
      "name": "swapRouter",
      "outputs": [
        {
          "internalType": "address",
          "name": "",
          "type": "address"
        }
      ],
      "stateMutability": "view",
      "type": "function"
    },
    {
      "inputs": [],
      "name": "token0",
      "outputs": [
        {
          "internalType": "address",
          "name": "",
          "type": "address"
        }
      ],
      "stateMutability": "view",
      "type": "function"
    },
    {
      "inputs": [],
      "name": "token1",
      "outputs": [
        {
          "internalType": "address",
          "name": "",
          "type": "address"
        }
      ],
      "stateMutability": "view",
      "type": "function"
    },
    {
      "inputs": [],
      "name": "tokenId",
      "outputs": [
        {
          "internalType": "uint256",
          "name": "",
          "type": "uint256"
        }
      ],
      "stateMutability": "view",
      "type": "function"
    },
    {
      "inputs": [
        {
          "internalType": "uint256",
          "name": "_amount",
          "type": "uint256"
        }
      ],
      "name": "withdraw",
      "outputs": [],
      "stateMutability": "nonpayable",
      "type": "function"
    },
    {
      "inputs": [
        {
          "internalType": "address",
          "name": "",
          "type": "address"
        }
      ],
      "name": "withdrawOf",
      "outputs": [
        {
          "internalType": "uint256",
          "name": "",
          "type": "uint256"
        }
      ],
      "stateMutability": "view",
      "type": "function"
    },
    {
      "stateMutability": "payable",
      "type": "receive"
    }
  ],
  "bytecode": "0x60a060405260008055670de0b6b3a76400006018556402540be4006019553480156200002a57600080fd5b5060405162005269380380620052698339810160408190526200004d91620002aa565b60a0820151600580546001600160a01b0319166001600160a01b03909216919091178155610bb86010819055600f556018548391662386f26fc1000091620000959162000419565b620000a191906200043b565b600d55601854620000b490603262000419565b600e5560808101516011805460ff19169115159190911790558051620000da90620001e0565b6020810151620000ea9062000202565b6060810151620000fa9062000224565b60e0810151601180546001600160a01b03928316610100908102610100600160a81b03199092169190911790915560c0830151601280549184166001600160a01b03199283161790559083015160138054918416919092161790556040820151601580546101208501519093166301000000026301000000600160b81b031962ffffff90931662ffffff199094169390931791909116919091179055610140810151620001a79062000246565b61016001516015805460ff60b81b1916600160b81b9215159290920291909117905560601b6001600160601b031916608052506200046b565b600180546001600160a01b0319166001600160a01b0392909216919091179055565b600280546001600160a01b0319166001600160a01b0392909216919091179055565b600480546001600160a01b0319166001600160a01b0392909216919091179055565b600380546001600160a01b0319166001600160a01b0392909216919091179055565b80516001600160a01b03811681146200028057600080fd5b919050565b805180151581146200028057600080fd5b805162ffffff811681146200028057600080fd5b6000808284036101a0811215620002bf578283fd5b61018080821215620002cf578384fd5b620002da81620003da565b9150620002e78562000268565b8252620002f76020860162000268565b60208301526200030a6040860162000296565b60408301526200031d6060860162000268565b6060830152620003306080860162000285565b60808301526200034360a0860162000268565b60a08301526200035660c0860162000268565b60c08301526200036960e0860162000268565b60e08301526101006200037e81870162000268565b908301526101206200039286820162000268565b90830152610140620003a686820162000268565b90830152610160620003ba86820162000285565b8184015250819350620003cf81860162000268565b925050509250929050565b604051601f8201601f191681016001600160401b03811182821017156200041157634e487b7160e01b600052604160045260246000fd5b604052919050565b600081600019048311821515161562000436576200043662000455565b500290565b60008282101562000450576200045062000455565b500390565b634e487b7160e01b600052601160045260246000fd5b60805160601c614ddf6200048a600039600061084d0152614ddf6000f3fe6080604052600436106102bf5760003560e01c806355a621761161016e578063b44a2722116100cb578063d21220a71161007f578063db39d63911610064578063db39d63914610707578063dde7cd511461072a578063e0f1c9c51461074a576102c6565b8063d21220a7146106dd578063d80ffb20146106f2576102c6565b8063c0cb7c6a116100b0578063c0cb7c6a14610688578063c31c9c07146106a8578063cb0a14eb146106bd576102c6565b8063b44a27221461065e578063b88a802f14610673576102c6565b80637557fbcd116101225780637ce3489b116101075780637ce3489b146105fe578063929066f51461061e578063b2b3a5f11461063e576102c6565b80637557fbcd146105be5780637a6620d1146105de576102c6565b80635aa68ac0116101535780635aa68ac01461055b5780635dff93201461057e57806370a082311461059e576102c6565b806355a621761461050d57806359977a561461052d576102c6565b80631dc211941161021c57806338af3eed116101d0578063457aa181116101b5578063457aa181146104c557806347e7ef24146104e557806351b80e41146104f8576102c6565b806338af3eed1461049057806344879b3b146104a5576102c6565b806324f5bc9d1161020157806324f5bc9d146104305780632e1a7d4d1461045057806335c1d34914610470576102c6565b80631dc21194146103fb57806323e3fbd514610410576102c6565b806316f0115b116102735780631c31f710116102585780631c31f7101461039b5780631c3b3902146103bb5780631d6ca518146103db576102c6565b806316f0115b1461037157806317d70f7c14610386576102c6565b80630eecae21116102a45780630eecae21146103185780630f406cdb1461032f578063158f3fe81461034f576102c6565b8063089fe6aa146102cb5780630dfe1681146102f6576102c6565b366102c657005b600080fd5b3480156102d757600080fd5b506102e061075f565b6040516102ed9190614a20565b60405180910390f35b34801561030257600080fd5b5061030b61076a565b6040516102ed91906143c7565b34801561032457600080fd5b5061032d610779565b005b34801561033b57600080fd5b5061032d61034a366004613e68565b610b3b565b34801561035b57600080fd5b50610364610f4e565b6040516102ed9190614a30565b34801561037d57600080fd5b5061030b610f54565b34801561039257600080fd5b50610364610f63565b3480156103a757600080fd5b5061032d6103b6366004613d0a565b610f69565b3480156103c757600080fd5b5061032d6103d6366004613d0a565b610fd2565b3480156103e757600080fd5b5061032d6103f6366004614170565b611001565b34801561040757600080fd5b50610364611006565b34801561041c57600080fd5b5061036461042b366004613d0a565b61100b565b61044361043e366004613f5a565b61101d565b6040516102ed919061452b565b34801561045c57600080fd5b5061032d61046b366004614170565b611136565b34801561047c57600080fd5b5061030b61048b366004614170565b611428565b34801561049c57600080fd5b5061030b611452565b3480156104b157600080fd5b5061032d6104c0366004613d0a565b611461565b3480156104d157600080fd5b5061032d6104e0366004614170565b611490565b6104436104f3366004613d7a565b611495565b34801561050457600080fd5b50610364611bef565b34801561051957600080fd5b50610364610528366004613d42565b611bf5565b34801561053957600080fd5b5061054d610548366004614067565b611dff565b6040516102ed929190614a39565b34801561056757600080fd5b50610570611ef8565b6040516102ed929190614489565b34801561058a57600080fd5b50610364610599366004613d0a565b612052565b3480156105aa57600080fd5b506103646105b9366004613d0a565b612064565b3480156105ca57600080fd5b506103646105d9366004613d0a565b612076565b3480156105ea57600080fd5b5061032d6105f9366004613d0a565b612088565b34801561060a57600080fd5b5061032d610619366004614170565b6120b7565b34801561062a57600080fd5b50610443610639366004613d0a565b61210d565b34801561064a57600080fd5b5061032d610659366004614004565b61212f565b34801561066a57600080fd5b5061030b6123ec565b34801561067f57600080fd5b5061032d612400565b34801561069457600080fd5b506103646106a3366004613d0a565b6125ee565b3480156106b457600080fd5b5061030b612600565b3480156106c957600080fd5b5061032d6106d8366004613d0a565b61260f565b3480156106e957600080fd5b5061030b61263e565b3480156106fe57600080fd5b5061036461264d565b34801561071357600080fd5b5061071c612653565b6040516102ed929190614440565b34801561073657600080fd5b50610443610745366004613d0a565b61293d565b34801561075657600080fd5b5061030b612952565b60155462ffffff1681565b6001546001600160a01b031681565b6040805160808101825260145481523060208201526001600160801b03818301819052606082015260115491517ffc6f78650000000000000000000000000000000000000000000000000000000081529091600091829161010090046001600160a01b03169063fc6f7865906107f3908690600401614839565b6040805180830381600087803b15801561080c57600080fd5b505af1158015610820573d6000803e3d6000fd5b505050506040513d601f19601f8201168201806040525081019061084491906141dd565b915091506000807f00000000000000000000000000000000000000000000000000000000000000006001600160a01b031663db39d6396040518163ffffffff1660e01b815260040160006040518083038186803b1580156108a457600080fd5b505afa1580156108b8573d6000803e3d6000fd5b505050506040513d6000823e601f3d908101601f191682016040526108e09190810190613da5565b805191935091508015610b2b576000805b828110156109405783818151811061091957634e487b7160e01b600052603260045260246000fd5b60200260200101518261092c9190614ab7565b91508061093881614c6f565b9150506108f1565b5060008054908061095083614c6f565b919050555060008060005b84811015610ada57600087828151811061098557634e487b7160e01b600052603260045260246000fd5b602002602001015190506000858884815181106109b257634e487b7160e01b600052603260045260246000fd5b602002602001015160646109c69190614bfa565b6109d09190614acf565b9050600060646109e0838e614bfa565b6109ea9190614acf565b9050600060646109fa848e614bfa565b610a049190614acf565b9050610a108288614ab7565b9650610a1c8187614ab7565b6001600160a01b038516600090815260096020526040812080549298508492909190610a49908490614ab7565b90915550506001600160a01b0384166000908152600a602052604081208054839290610a76908490614ab7565b92505081905550836001600160a01b03166000547f2a6d14c1969e72d0a727d230f1a4620414181fee7338c8b8d1ca396a370422e98484604051610abb929190614a39565b60405180910390a3505050508080610ad290614c6f565b91505061095b565b506000547fd7dae4f08ff46240349a54ad46f4931970bcde73a4d2813ea2e58d639a47944389898585604051610b139493929190614a47565b60405180910390a2610b23612968565b505050610b33565b610b33612968565b505050505050565b6016546001546040517f70a08231000000000000000000000000000000000000000000000000000000008152600092916001600160a01b0316906370a0823190610b899030906004016143c7565b60206040518083038186803b158015610ba157600080fd5b505afa158015610bb5573d6000803e3d6000fd5b505050506040513d601f19601f82011682018060405250810190610bd99190614188565b610be39190614c41565b6017546002546040517f70a082310000000000000000000000000000000000000000000000000000000081529293506000926001600160a01b03909116906370a0823190610c359030906004016143c7565b60206040518083038186803b158015610c4d57600080fd5b505afa158015610c61573d6000803e3d6000fd5b505050506040513d601f19601f82011682018060405250810190610c859190614188565b610c8f9190614c41565b600480546001546002546040517f6b27b5de0000000000000000000000000000000000000000000000000000000081529495506001600160a01b0392831694636b27b5de94610ce5948c948116931691016144ab565b600060405180830381600087803b158015610cff57600080fd5b505af1158015610d13573d6000803e3d6000fd5b50506001546004805460405163a9059cbb60e01b81526001600160a01b03938416955063a9059cbb9450610d4d9390911691899101614427565b602060405180830381600087803b158015610d6757600080fd5b505af1158015610d7b573d6000803e3d6000fd5b505050506040513d601f19601f82011682018060405250810190610d9f9190613f3e565b506002546004805460405163a9059cbb60e01b81526001600160a01b039384169363a9059cbb93610dd69390911691889101614427565b602060405180830381600087803b158015610df057600080fd5b505af1158015610e04573d6000803e3d6000fd5b505050506040513d601f19601f82011682018060405250810190610e289190613f3e565b506001546005546001600160a01b039182169163a9059cbb9116610e4c8786614c41565b6040518363ffffffff1660e01b8152600401610e69929190614427565b602060405180830381600087803b158015610e8357600080fd5b505af1158015610e97573d6000803e3d6000fd5b505050506040513d601f19601f82011682018060405250810190610ebb9190613f3e565b506002546005546001600160a01b039182169163a9059cbb9116610edf8685614c41565b6040518363ffffffff1660e01b8152600401610efc929190614427565b602060405180830381600087803b158015610f1657600080fd5b505af1158015610f2a573d6000803e3d6000fd5b505050506040513d601f19601f82011682018060405250810190610b339190613f3e565b600e5481565b6012546001600160a01b031681565b60145481565b6005546040516001600160a01b038084169216907f768099735d1c322a05a5b9d7b76d99682a1833d3f7055e5ede25e0f2eeaa8c6d90600090a36005805473ffffffffffffffffffffffffffffffffffffffff19166001600160a01b0392909216919091179055565b6004805473ffffffffffffffffffffffffffffffffffffffff19166001600160a01b0392909216919091179055565b600e55565b600090565b60066020526000908152604090205481565b600480546040517f94dbed5a0000000000000000000000000000000000000000000000000000000081526000926001600160a01b03909216916394dbed5a91611070918c918c918c918c918c9101614536565b602060405180830381600087803b15801561108a57600080fd5b505af115801561109e573d6000803e3d6000fd5b505050506040513d601f19601f820116820180604052508101906110c29190613f3e565b6110e75760405162461bcd60e51b81526004016110de90614681565b60405180910390fd5b60006110f5888a018a613d0a565b90506001600160a01b038116331461111f5760405162461bcd60e51b81526004016110de906145b6565b6111298484611495565b9998505050505050505050565b336000908152600860209081526040808320546006835281842054600790935290832054909161116591614ab7565b61116f9190614c41565b9050818110156111915760405162461bcd60e51b81526004016110de906146ef565b80821461140057600080600080600080600080601160019054906101000a90046001600160a01b03166001600160a01b03166399fbab886014546040518263ffffffff1660e01b81526004016111e79190614a30565b6101806040518083038186803b15801561120057600080fd5b505afa158015611214573d6000803e3d6000fd5b505050506040513d601f19601f82011682018060405250810190611238919061421c565b5050601254604080517f3850c7bd0000000000000000000000000000000000000000000000000000000081529051969f50949d506001600160a01b03169950633850c7bd9850506004808401975060e096509394505050829003018186803b1580156112a357600080fd5b505afa1580156112b7573d6000803e3d6000fd5b505050506040513d601f19601f820116820180604052508101906112db91906140df565b509396509394506112f99350849250859150879050868d6001611dff565b909850965061130d818386868e6001611dff565b60155491975095506000908190600160b81b900460ff16611340576001546002546001600160a01b039182169116611354565b6002546001546001600160a01b0391821691165b915091506000611364828b611bf5565b61136e848d611bf5565b6113789190614ab7565b90506000611386838a611bf5565b611390858c611bf5565b61139a9190614ab7565b600d549091506113aa8284614c41565b10156113c85760405162461bcd60e51b81526004016110de90614794565b600e546113d58284614c41565b11156113f35760405162461bcd60e51b81526004016110de9061475d565b5050505050505050505050505b336000908152600860205260408120805484929061141f908490614ab7565b90915550505050565b600b818154811061143857600080fd5b6000918252602090912001546001600160a01b0316905081565b6005546001600160a01b031681565b6003805473ffffffffffffffffffffffffffffffffffffffff19166001600160a01b0392909216919091179055565b600d55565b600480546040517fdde7cd510000000000000000000000000000000000000000000000000000000081526000926001600160a01b039092169163dde7cd51916114e0913391016143c7565b60206040518083038186803b1580156114f857600080fd5b505afa15801561150c573d6000803e3d6000fd5b505050506040513d601f19601f820116820180604052508101906115309190613f3e565b61154c5760405162461bcd60e51b81526004016110de906147cb565b60015460009081906001600160a01b038681169116141561159957611572600285614acf565b600154600254919350611592916001600160a01b03918216911684612d9e565b9050611629565b6002546001600160a01b03868116911614156115e1576115ba600285614acf565b6002546001549192506115da916001600160a01b03918216911683612d9e565b9150611629565b6001546116039086906001600160a01b03166115fe600288614acf565b612d9e565b600280549193506116269187916001600160a01b03909116906115fe9088614acf565b90505b6015546000908190600160b81b900460ff16611646578383611649565b82845b60015491935091506000908190819061166d906001600160a01b0316333088612eac565b600254611685906001600160a01b0316333087612eac565b60115460ff161561169557611818565b60006040518060c001604052806014548152602001601560179054906101000a900460ff166116c457876116c6565b865b8152602001601560179054906101000a900460ff166116e557866116e7565b875b8152602001612710601560179054906101000a900460ff16611709578861170b565b875b6117159190614acf565b61172190612134614bfa565b8152602001612710601560179054906101000a900460ff166117435787611745565b885b61174f9190614acf565b61175b90612134614bfa565b8152426020909101526011546040517f219f5d1700000000000000000000000000000000000000000000000000000000815291925061010090046001600160a01b03169063219f5d17906117b390849060040161492e565b606060405180830381600087803b1580156117cd57600080fd5b505af11580156117e1573d6000803e3d6000fd5b505050506040513d601f19601f820116820180604052508101906118059190614031565b6001600160801b03909216955093509150505b6015546000908190600160b81b900460ff16611835578383611838565b82845b91509150600080600080601160019054906101000a90046001600160a01b03166001600160a01b03166399fbab886014546040518263ffffffff1660e01b81526004016118859190614a30565b6101806040518083038186803b15801561189e57600080fd5b505afa1580156118b2573d6000803e3d6000fd5b505050506040513d601f19601f820116820180604052508101906118d6919061421c565b5050505050965096505050505050600080601260009054906101000a90046001600160a01b03166001600160a01b0316633850c7bd6040518163ffffffff1660e01b815260040160e06040518083038186803b15801561193557600080fd5b505afa158015611949573d6000803e3d6000fd5b505050506040513d601f19601f8201168201806040525081019061196d91906140df565b505033600090815260086020908152604080832054600683528184205460079093529220549698509496506119c19588958895508b94508a93506119b091614ab7565b6119ba9190614c41565b6000611dff565b601554919750955060009450849350600160b81b900460ff1691506119fa9050576001546002546001600160a01b039182169116611a0e565b6002546001546001600160a01b0391821691165b915091506000611a1e8285611bf5565b611a288487611bf5565b611a329190614ab7565b90506000611a408388611bf5565b611a4a858a611bf5565b611a549190614ab7565b600d54909150611a648284614ab7565b1015611a825760405162461bcd60e51b81526004016110de90614794565b600e54611a8f8284614ab7565b1115611aad5760405162461bcd60e51b81526004016110de9061475d565b505033600090815260066020526040812080548b9450909250611ad1908490614ab7565b90915550611ae090503361210d565b611b9057336000818152600c602052604080822080547fffffffffffffffffffffffffffffffffffffffffffffffffffffffffffffff00166001908117909155600b8054918201815583527f0175b7a638427703f0dbe7bb9bbf987a2551717b34e79f33b5b1008d1fa01db901805473ffffffffffffffffffffffffffffffffffffffff191684179055517f79229b212fa3ea547fb5e5b66090cf250d442b12a51854a030f3b796d528134e9190a25b83891115611bb857600154611bb8906001600160a01b031633611bb3878d614c41565b612f4e565b82881115611bdb57600254611bdb906001600160a01b031633611bb3868c614c41565b5060019d9c50505050505050505050505050565b600d5481565b6015546003546040517f1698ee8200000000000000000000000000000000000000000000000000000000815260009283926001600160a01b0363010000008304811693631698ee8293611c56938a93169162ffffff909116906004016143db565b60206040518083038186803b158015611c6e57600080fd5b505afa158015611c82573d6000803e3d6000fd5b505050506040513d601f19601f82011682018060405250810190611ca69190613d26565b90506000816001600160a01b0316633850c7bd6040518163ffffffff1660e01b815260040160e06040518083038186803b158015611ce357600080fd5b505afa158015611cf7573d6000803e3d6000fd5b505050506040513d601f19601f82011682018060405250810190611d1b91906140df565b50505050509150506000600360009054906101000a90046001600160a01b03166001600160a01b031663313ce5676040518163ffffffff1660e01b815260040160206040518083038186803b158015611d7357600080fd5b505afa158015611d87573d6000803e3d6000fd5b505050506040513d601f19601f82011682018060405250810190611dab9190614200565b90506000611ddd83601854886001600160801b0316611dca9190614bfa565b6003548a906001600160a01b0316613069565b9050611dea82600a614b29565b611df49082614acf565b979650505050505050565b60008060008315611e2357611e13856131bb565b611e1c90614c9e565b9050611e2f565b611e2c856131bb565b90505b60008082600f0b600014611eea578860020b8a60020b1215611e6d57611e66611e578a6131cc565b611e608a6131cc565b856135b3565b9150611ec2565b8760020b8a60020b1215611ea457611e888b611e608a6131cc565b9150611e9d611e968a6131cc565b8c85613604565b9050611ec2565b611ebf611eb08a6131cc565b611eb98a6131cc565b85613604565b90505b8515611ee357611ed182614cdb565b9450611edc81614cdb565b9350611eea565b8194508093505b505050965096945050505050565b600b5460609060009067ffffffffffffffff811115611f2757634e487b7160e01b600052604160045260246000fd5b604051908082528060200260200182016040528015611f50578160200160208202803683370190505b5091506000905060005b600b5481101561204d57600060076000600b8481548110611f8b57634e487b7160e01b600052603260045260246000fd5b60009182526020808320909101546001600160a01b03168352820192909252604001902054111561203b57600b8181548110611fd757634e487b7160e01b600052603260045260246000fd5b9060005260206000200160009054906101000a90046001600160a01b031683838151811061201557634e487b7160e01b600052603260045260246000fd5b6001600160a01b03909216602092830291909101909101528161203781614c6f565b9250505b8061204581614c6f565b915050611f5a565b509091565b60096020526000908152604090205481565b60076020526000908152604090205481565b600a6020526000908152604090205481565b6001805473ffffffffffffffffffffffffffffffffffffffff19166001600160a01b0392909216919091179055565b6010548111156120d95760405162461bcd60e51b81526004016110de90614624565b600f546040518291907f44cb215a0ee4011e0802aea4220545b8f823c5041bb303a4ae1219f99f91e65b90600090a3600f55565b6001600160a01b0381166000908152600c602052604090205460ff165b919050565b6014541561214f5760405162461bcd60e51b81526004016110de906145ed565b6001805461216c916001600160a01b039091169033903090612eac565b600254612185906001600160a01b031633306001612eac565b6001546011546040517f095ea7b30000000000000000000000000000000000000000000000000000000081526001600160a01b039283169263095ea7b3926121dd926101009091049091169060001990600401614427565b602060405180830381600087803b1580156121f757600080fd5b505af115801561220b573d6000803e3d6000fd5b505050506040513d601f19601f8201168201806040525081019061222f9190613f3e565b506002546011546040517f095ea7b30000000000000000000000000000000000000000000000000000000081526001600160a01b039283169263095ea7b392612288926101009091049091169060001990600401614427565b602060405180830381600087803b1580156122a257600080fd5b505af11580156122b6573d6000803e3d6000fd5b505050506040513d601f19601f820116820180604052508101906122da9190613f3e565b506040805161016081018252600180546001600160a01b039081168352600280548216602085015260155462ffffff168486015286810b606085015285900b608084015260a0830182905260c0830191909152600060e0830181905261010080840191909152306101208401524261014084015260115493517f88316456000000000000000000000000000000000000000000000000000000008152929304169063883164569061238f908490600401614972565b608060405180830381600087803b1580156123a957600080fd5b505af11580156123bd573d6000803e3d6000fd5b505050506040513d601f19601f820116820180604052508101906123e191906141a0565b505050601455505050565b60115461010090046001600160a01b031681565b3360009081526009602052604090205415158061242b5750336000908152600a602052604090205415155b6124475760405162461bcd60e51b81526004016110de90614726565b336000908152600960205260409020541561250b57600154336000818152600960205260409081902054905163a9059cbb60e01b81526001600160a01b039093169263a9059cbb9261249d929091600401614427565b602060405180830381600087803b1580156124b757600080fd5b505af11580156124cb573d6000803e3d6000fd5b505050506040513d601f19601f820116820180604052508101906124ef9190613f3e565b61250b5760405162461bcd60e51b81526004016110de90614802565b336000908152600a6020526040902054156125cf57600254336000818152600a60205260409081902054905163a9059cbb60e01b81526001600160a01b039093169263a9059cbb92612561929091600401614427565b602060405180830381600087803b15801561257b57600080fd5b505af115801561258f573d6000803e3d6000fd5b505050506040513d601f19601f820116820180604052508101906125b39190613f3e565b6125cf5760405162461bcd60e51b81526004016110de90614802565b336000908152600960209081526040808320839055600a909152812055565b60086020526000908152604090205481565b6013546001600160a01b031681565b6002805473ffffffffffffffffffffffffffffffffffffffff19166001600160a01b0392909216919091179055565b6002546001600160a01b031681565b60005481565b6060806000600b8054905067ffffffffffffffff81111561268457634e487b7160e01b600052604160045260246000fd5b6040519080825280602002602001820160405280156126ad578160200160208202803683370190505b50905060006126ba611ef8565b9092509050606060006126ce609684614acf565b6126d9906001614ab7565b90508067ffffffffffffffff81111561270257634e487b7160e01b600052604160045260246000fd5b60405190808252806020026020018201604052801561272b578160200160208202803683370190505b5091506127388382613638565b915060008167ffffffffffffffff81111561276357634e487b7160e01b600052604160045260246000fd5b60405190808252806020026020018201604052801561278c578160200160208202803683370190505b50905060008267ffffffffffffffff8111156127b857634e487b7160e01b600052604160045260246000fd5b6040519080825280602002602001820160405280156127e1578160200160208202803683370190505b50905060005b8381101561292f578685828151811061281057634e487b7160e01b600052603260045260246000fd5b60200260200101518151811061283657634e487b7160e01b600052603260045260246000fd5b602002602001015183828151811061285e57634e487b7160e01b600052603260045260246000fd5b60200260200101906001600160a01b031690816001600160a01b03168152505060076000888784815181106128a357634e487b7160e01b600052603260045260246000fd5b6020026020010151815181106128c957634e487b7160e01b600052603260045260246000fd5b60200260200101516001600160a01b03166001600160a01b031681526020019081526020016000205482828151811061291257634e487b7160e01b600052603260045260246000fd5b60209081029190910101528061292781614c6f565b9150506127e7565b509096509450505050509091565b600c6020526000908152604090205460ff1681565b601554630100000090046001600160a01b031681565b60005b600b54811015612d9b576000600b828154811061299857634e487b7160e01b600052603260045260246000fd5b60009182526020808320909101546001600160a01b0316808352600690915260409091205490915015612a18576001600160a01b038116600090815260066020908152604080832054600790925282208054919290916129f9908490614ab7565b90915550506001600160a01b0381166000908152600660205260408120555b6001600160a01b03811660009081526008602052604090205415801590612a6257506001600160a01b03811660009081526007602090815260408083205460089092529091205411155b15612d88576001600160a01b03811660009081526008602090815260408083205460079092528220805491929091612a9b908490614c41565b909155505060115460ff1615612ab057612d6e565b6040805160a08101825260145481526001600160a01b03808416600090815260086020908152848220546001600160801b031690840152828401819052606083015242608083015260115492517f0c49ccbe000000000000000000000000000000000000000000000000000000008152919261010090041690630c49ccbe90612b3d90849060040161487c565b6040805180830381600087803b158015612b5657600080fd5b505af1158015612b6a573d6000803e3d6000fd5b505050506040513d601f19601f82011682018060405250810190612b8e91906141dd565b50506040805160808101825260145481523060208201526001600160801b03818301819052606082015260115491517ffc6f78650000000000000000000000000000000000000000000000000000000081529091600091829161010090046001600160a01b03169063fc6f786590612c0a908690600401614839565b6040805180830381600087803b158015612c2357600080fd5b505af1158015612c37573d6000803e3d6000fd5b505050506040513d601f19601f82011682018060405250810190612c5b91906141dd565b60015460405163a9059cbb60e01b81529294509092506001600160a01b03169063a9059cbb90612c919088908690600401614427565b602060405180830381600087803b158015612cab57600080fd5b505af1158015612cbf573d6000803e3d6000fd5b505050506040513d601f19601f82011682018060405250810190612ce39190613f3e565b5060025460405163a9059cbb60e01b81526001600160a01b039091169063a9059cbb90612d169088908590600401614427565b602060405180830381600087803b158015612d3057600080fd5b505af1158015612d44573d6000803e3d6000fd5b505050506040513d601f19601f82011682018060405250810190612d689190613f3e565b50505050505b6001600160a01b0381166000908152600860205260408120555b5080612d9381614c6f565b91505061296b565b50565b6000612dac84333085612eac565b601354612dc49085906001600160a01b0316846137a6565b60408051610100810182526001600160a01b038087168252858116602083015260155462ffffff168284015233606083015242608083015260a08201859052600060c0830181905260e083015260135492517f414bf3890000000000000000000000000000000000000000000000000000000081529192169063414bf38990612e519084906004016148bf565b602060405180830381600087803b158015612e6b57600080fd5b505af1158015612e7f573d6000803e3d6000fd5b505050506040513d601f19601f82011682018060405250810190612ea39190614188565b95945050505050565b6040517f23b872dd0000000000000000000000000000000000000000000000000000000081526001600160a01b038516906323b872dd90612ef590869086908690600401614403565b602060405180830381600087803b158015612f0f57600080fd5b505af1158015612f23573d6000803e3d6000fd5b505050506040513d601f19601f82011682018060405250810190612f479190613f3e565b5050505050565b600080846001600160a01b031663a9059cbb60e01b8585604051602401612f76929190614427565b60408051601f198184030181529181526020820180517bffffffffffffffffffffffffffffffffffffffffffffffffffffffff167fffffffff00000000000000000000000000000000000000000000000000000000909416939093179092529051612fe1919061435b565b6000604051808303816000865af19150503d806000811461301e576040519150601f19603f3d011682016040523d82523d6000602084013e613023565b606091505b509150915081801561304d57508051158061304d57508080602001905181019061304d9190613f3e565b612f475760405162461bcd60e51b81526004016110de906146b8565b600080613075866131cc565b90506001600160801b036001600160a01b038216116131255760006130a36001600160a01b03831680614bfa565b9050836001600160a01b0316856001600160a01b0316106130f0576130eb7801000000000000000000000000000000000000000000000000876001600160801b0316836138c1565b61311d565b61311d81876001600160801b031678010000000000000000000000000000000000000000000000006138c1565b9250506131b2565b60006131446001600160a01b03831680680100000000000000006138c1565b9050836001600160a01b0316856001600160a01b03161061318957613184700100000000000000000000000000000000876001600160801b0316836138c1565b6131ae565b6131ae81876001600160801b03167001000000000000000000000000000000006138c1565b9250505b50949350505050565b80600f81900b811461212a57600080fd5b60008060008360020b126131e3578260020b6131f0565b8260020b6131f090614cdb565b905060006001821661321357700100000000000000000000000000000000613225565b6ffffcb933bd6fad37aa2d162d1a5940015b70ffffffffffffffffffffffffffffffffff169050600282161561326457608061325f826ffff97272373d413259a46990580e213a614bfa565b901c90505b600482161561328e576080613289826ffff2e50f5f656932ef12357cf3c7fdcc614bfa565b901c90505b60088216156132b85760806132b3826fffe5caca7e10e4e61c3624eaa0941cd0614bfa565b901c90505b60108216156132e25760806132dd826fffcb9843d60f6159c9db58835c926644614bfa565b901c90505b602082161561330c576080613307826fff973b41fa98c081472e6896dfb254c0614bfa565b901c90505b6040821615613336576080613331826fff2ea16466c96a3843ec78b326b52861614bfa565b901c90505b608082161561336057608061335b826ffe5dee046a99a2a811c461f1969c3053614bfa565b901c90505b61010082161561338b576080613386826ffcbe86c7900a88aedcffc83b479aa3a4614bfa565b901c90505b6102008216156133b65760806133b1826ff987a7253ac413176f2b074cf7815e54614bfa565b901c90505b6104008216156133e15760806133dc826ff3392b0822b70005940c7a398e4b70f3614bfa565b901c90505b61080082161561340c576080613407826fe7159475a2c29b7443b29c7fa6e889d9614bfa565b901c90505b611000821615613437576080613432826fd097f3bdfd2022b8845ad8f792aa5825614bfa565b901c90505b61200082161561346257608061345d826fa9f746462d870fdf8a65dc1f90e061e5614bfa565b901c90505b61400082161561348d576080613488826f70d869a156d2a1b890bb3df62baf32f7614bfa565b901c90505b6180008216156134b85760806134b3826f31be135f97d08fd981231505542fcfa6614bfa565b901c90505b620100008216156134e45760806134df826f09aa508b5b7a84e1c677de54f3e99bc9614bfa565b901c90505b6202000082161561350f57608061350a826e5d6af8dedb81196699c329225ee604614bfa565b901c90505b62040000821615613539576080613534826d2216e584f5fa1ea926041bedfe98614bfa565b901c90505b6208000082161561356157608061355c826b048a170391f7dc42444e8fa2614bfa565b901c90505b60008460020b131561357c5761357981600019614acf565b90505b61358b64010000000082614c8a565b1561359757600161359a565b60005b6135ab9060ff16602083901c614ab7565b949350505050565b60008082600f0b126135d9576135d46135cf8585856001613a1a565b613add565b6135fa565b6135f16135cf85856135ea86614c9e565b6000613a1a565b6135fa90614cdb565b90505b9392505050565b60008082600f0b12613620576135d46135cf8585856001613b0f565b6135f16135cf858561363186614c9e565b6000613b0f565b606060008267ffffffffffffffff81111561366357634e487b7160e01b600052604160045260246000fd5b60405190808252806020026020018201604052801561368c578160200160208202803683370190505b5091505b828110156137495760006136a385613b9f565b6136ae906001614ab7565b90506000805b8581101561370257828582815181106136dd57634e487b7160e01b600052603260045260246000fd5b602002602001015114156136f057600191505b806136fa81614c6f565b9150506136b4565b5080613742578184848151811061372957634e487b7160e01b600052603260045260246000fd5b60209081029190910101528261373e81614c6f565b9350505b5050613690565b60005b8381101561379e5782818151811061377457634e487b7160e01b600052603260045260246000fd5b60200260200101805180919061378990614c58565b9052508061379681614c6f565b91505061374c565b505092915050565b600080846001600160a01b031663095ea7b360e01b85856040516024016137ce929190614427565b60408051601f198184030181529181526020820180517bffffffffffffffffffffffffffffffffffffffffffffffffffffffff167fffffffff00000000000000000000000000000000000000000000000000000000909416939093179092529051613839919061435b565b6000604051808303816000865af19150503d8060008114613876576040519150601f19603f3d011682016040523d82523d6000602084013e61387b565b606091505b50915091508180156138a55750805115806138a55750808060200190518101906138a59190613f3e565b612f475760405162461bcd60e51b81526004016110de9061457f565b6000808060001985870985870292508281108382030391505080600014156138fb57600084116138f057600080fd5b5082900490506135fd565b80841161390757600080fd5b60008486880985800495818503819004948211909303929091506000819003046001016139348184614bfa565b909317926000613945876003614bfa565b60021890506139548188614bfa565b61395f906002614c41565b6139699082614bfa565b90506139758188614bfa565b613980906002614c41565b61398a9082614bfa565b90506139968188614bfa565b6139a1906002614c41565b6139ab9082614bfa565b90506139b78188614bfa565b6139c2906002614c41565b6139cc9082614bfa565b90506139d88188614bfa565b6139e3906002614c41565b6139ed9082614bfa565b90506139f98188614bfa565b613a04906002614c41565b613a0e9082614bfa565b90506111298186614bfa565b6000836001600160a01b0316856001600160a01b03161115613a3a579293925b7bffffffffffffffffffffffffffffffff000000000000000000000000606084901b166000613a698787614c19565b6001600160a01b031690506000876001600160a01b031611613a8a57600080fd5b83613ab757866001600160a01b0316613aad8383896001600160a01b03166138c1565b6131849190614acf565b6131ae613ace8383896001600160a01b0316613bb0565b886001600160a01b0316613bfe565b60007f80000000000000000000000000000000000000000000000000000000000000008210613b0b57600080fd5b5090565b6000836001600160a01b0316856001600160a01b03161115613b2f579293925b81613b6c57613b676001600160801b038416613b4b8787614c19565b6001600160a01b03166c010000000000000000000000006138c1565b612ea3565b612ea36001600160801b038416613b838787614c19565b6001600160a01b03166c01000000000000000000000000613bb0565b6000613baa82613c09565b92915050565b6000613bbd8484846138c1565b905060008280613bdd57634e487b7160e01b600052601260045260246000fd5b84860911156135fd576000198110613bf457600080fd5b80612ea381614c6f565b808204910615150190565b6000814233604051602001613c1f929190614394565b6040516020818303038152906040528051906020012060001c613baa9190614c8a565b803561212a81614d53565b805161212a81614d53565b600082601f830112613c68578081fd5b81516020613c7d613c7883614a93565b614a62565b8281528181019085830183850287018401881015613c99578586fd5b855b85811015613cb757815184529284019290840190600101613c9b565b5090979650505050505050565b805161212a81614d76565b805161212a81614d85565b805161ffff8116811461212a57600080fd5b805162ffffff8116811461212a57600080fd5b803561212a81614d9a565b600060208284031215613d1b578081fd5b81356135fd81614d53565b600060208284031215613d37578081fd5b81516135fd81614d53565b60008060408385031215613d54578081fd5b8235613d5f81614d53565b91506020830135613d6f81614d85565b809150509250929050565b60008060408385031215613d8c578182fd5b8235613d9781614d53565b946020939093013593505050565b60008060408385031215613db7578182fd5b825167ffffffffffffffff80821115613dce578384fd5b818501915085601f830112613de1578384fd5b81516020613df1613c7883614a93565b82815281810190858301838502870184018b1015613e0d578889fd5b8896505b84871015613e38578051613e2481614d53565b835260019690960195918301918301613e11565b5091880151919650909350505080821115613e51578283fd5b50613e5e85828601613c58565b9150509250929050565b60008060006060808587031215613e7d578182fd5b843567ffffffffffffffff811115613e93578283fd5b8501601f81018713613ea3578283fd5b80356020613eb3613c7883614a93565b82815281810190848301868502860184018c1015613ecf578788fd5b8795505b84861015613f255786818d031215613ee9578788fd5b613ef287614a62565b8135613efd81614d53565b8152818501358582015260408083013590820152835260019590950194918301918601613ed3565b509a918901359950506040909701359695505050505050565b600060208284031215613f4f578081fd5b81516135fd81614d68565b600080600080600080600060c0888a031215613f74578485fd5b873567ffffffffffffffff80821115613f8b578687fd5b818a0191508a601f830112613f9e578687fd5b813581811115613fac578788fd5b8b6020828501011115613fbd578788fd5b602092830199509750613fd3918a019050613cff565b94506040880135935060608801359250613fef60808901613c42565b915060a0880135905092959891949750929550565b60008060408385031215614016578182fd5b823561402181614d76565b91506020830135613d6f81614d76565b600080600060608486031215614045578081fd5b835161405081614d85565b602085015160409095015190969495509392505050565b60008060008060008060c0878903121561407f578384fd5b863561408a81614d53565b9550602087013561409a81614d76565b945060408701356140aa81614d76565b935060608701356140ba81614d76565b92506080870135915060a08701356140d181614d68565b809150509295509295509295565b600080600080600080600060e0888a0312156140f9578081fd5b875161410481614d53565b602089015190975061411581614d76565b955061412360408901613cda565b945061413160608901613cda565b935061413f60808901613cda565b925060a088015161414f81614d9a565b60c089015190925061416081614d68565b8091505092959891949750929550565b600060208284031215614181578081fd5b5035919050565b600060208284031215614199578081fd5b5051919050565b600080600080608085870312156141b5578182fd5b8451935060208501516141c781614d85565b6040860151606090960151949790965092505050565b600080604083850312156141ef578182fd5b505080516020909101519092909150565b600060208284031215614211578081fd5b81516135fd81614d9a565b6000806000806000806000806000806000806101808d8f03121561423e578586fd5b8c516bffffffffffffffffffffffff81168114614259578687fd5b9b5061426760208e01613c4d565b9a5061427560408e01613c4d565b995061428360608e01613c4d565b985061429160808e01613cec565b975061429f60a08e01613cc4565b96506142ad60c08e01613cc4565b95506142bb60e08e01613ccf565b94506101008d015193506101208d015192506142da6101408e01613ccf565b91506142e96101608e01613ccf565b90509295989b509295989b509295989b565b6001600160a01b03169052565b6000815180845260208085019450808401835b838110156143405781516001600160a01b03168752958201959082019060010161431b565b509495945050505050565b60020b9052565b62ffffff169052565b60008251815b8181101561437b5760208186018101518583015201614361565b818111156143895782828501525b509190910192915050565b91825260601b7fffffffffffffffffffffffffffffffffffffffff00000000000000000000000016602082015260340190565b6001600160a01b0391909116815260200190565b6001600160a01b03938416815291909216602082015262ffffff909116604082015260600190565b6001600160a01b039384168152919092166020820152604081019190915260600190565b6001600160a01b03929092168252602082015260400190565b6000604082526144536040830185614308565b828103602084810191909152845180835285820192820190845b81811015613cb75784518352938301939183019160010161446d565b60006040825261449c6040830185614308565b90508260208301529392505050565b60608082528451828201819052600091906020906080850190828901855b8281101561450257815180516001600160a01b0316855285810151868601526040908101519085015292850192908401906001016144c9565b5050506001600160a01b0396871691850191909152939094166040909201919091525092915050565b901515815260200190565b600060808252856080830152858760a08401378060a0878401015260a0601f19601f880116830101905060ff851660208301528360408301528260608301529695505050505050565b60208082526002908201527f5341000000000000000000000000000000000000000000000000000000000000604082015260600190565b6020808252601f908201527f73656e64657220616e64207369676e65642075736572206d69736d6174636800604082015260600190565b60208082526004908201527f6e6f6e6f00000000000000000000000000000000000000000000000000000000604082015260600190565b6020808252602e908201527f66656550657263656e742063616e206e6f74206265206772656174207468616e60408201527f206d617846656550657263656e74000000000000000000000000000000000000606082015260800190565b6020808252600b908201527f696e76616c696420736967000000000000000000000000000000000000000000604082015260600190565b60208082526002908201527f5354000000000000000000000000000000000000000000000000000000000000604082015260600190565b60208082526015908201527f4e6f7420656e6f75676874206c69717569646974790000000000000000000000604082015260600190565b6020808252600f908201527f52657761726420697320656d7074790000000000000000000000000000000000604082015260600190565b6020808252601f908201527f546f74616c2062616c616e6365206772656174207468616e206d617855534400604082015260600190565b6020808252601e908201527f546f74616c2062616c616e6365206c657373207468616e206d696e5553440000604082015260600190565b60208082526011908201527f4e6f742061205061727469636970616e74000000000000000000000000000000604082015260600190565b6020808252600e908201527f5472616e73666572206661696c64000000000000000000000000000000000000604082015260600190565b815181526020808301516001600160a01b0316908201526040808301516001600160801b0390811691830191909152606092830151169181019190915260800190565b600060a082019050825182526001600160801b03602084015116602083015260408301516040830152606083015160608301526080830151608083015292915050565b6000610100820190506001600160a01b0380845116835280602085015116602084015262ffffff60408501511660408401528060608501511660608401526080840151608084015260a084015160a084015260c084015160c08401528060e08501511660e08401525092915050565b600060c082019050825182526020830151602083015260408301516040830152606083015160608301526080830151608083015260a083015160a083015292915050565b6000610160820190506149868284516142fb565b602083015161499860208401826142fb565b5060408301516149ab6040840182614352565b5060608301516149be606084018261434b565b5060808301516149d1608084018261434b565b5060a083015160a083015260c083015160c083015260e083015160e083015261010080840151818401525061012080840151614a0f828501826142fb565b505061014092830151919092015290565b62ffffff91909116815260200190565b90815260200190565b918252602082015260400190565b93845260208401929092526040830152606082015260800190565b604051601f8201601f1916810167ffffffffffffffff81118282101715614a8b57614a8b614d3d565b604052919050565b600067ffffffffffffffff821115614aad57614aad614d3d565b5060209081020190565b60008219821115614aca57614aca614d11565b500190565b600082614ade57614ade614d27565b500490565b80825b6001808611614af55750614b20565b818704821115614b0757614b07614d11565b80861615614b1457918102915b9490941c938002614ae6565b94509492505050565b60006135fd60001960ff851684600082614b45575060016135fd565b81614b52575060006135fd565b8160018114614b685760028114614b7257614b9f565b60019150506135fd565b60ff841115614b8357614b83614d11565b6001841b915084821115614b9957614b99614d11565b506135fd565b5060208310610133831016604e8410600b8410161715614bd2575081810a83811115614bcd57614bcd614d11565b6135fd565b614bdf8484846001614ae3565b808604821115614bf157614bf1614d11565b02949350505050565b6000816000190483118215151615614c1457614c14614d11565b500290565b60006001600160a01b0383811690831681811015614c3957614c39614d11565b039392505050565b600082821015614c5357614c53614d11565b500390565b600081614c6757614c67614d11565b506000190190565b6000600019821415614c8357614c83614d11565b5060010190565b600082614c9957614c99614d27565b500690565b600081600f0b7fffffffffffffffffffffffffffffffff80000000000000000000000000000000811415614cd457614cd4614d11565b9003919050565b60007f8000000000000000000000000000000000000000000000000000000000000000821415614d0d57614d0d614d11565b0390565b634e487b7160e01b600052601160045260246000fd5b634e487b7160e01b600052601260045260246000fd5b634e487b7160e01b600052604160045260246000fd5b6001600160a01b0381168114612d9b57600080fd5b8015158114612d9b57600080fd5b8060020b8114612d9b57600080fd5b6001600160801b0381168114612d9b57600080fd5b60ff81168114612d9b57600080fdfea2646970667358221220b8686e7940e2763f008d79e172d2f380be6bbee4c941e32fc7fccb3cf3d0d76964736f6c63430008010033",
  "linkReferences": {},
  "deployedLinkReferences": {}
}