{
  "_format": "hh-sol-artifact-1",
  "contractName": "FrogReferal",
  "sourceName": "contracts/FrogReferal.sol",
  "abi": [
    {
      "inputs": [
        {
          "internalType": "address",
          "name": "_beneficiary",
          "type": "address"
        }
      ],
      "stateMutability": "nonpayable",
      "type": "constructor"
    },
    {
      "anonymous": false,
      "inputs": [
        {
          "indexed": true,
          "internalType": "address",
          "name": "_newParticipant",
          "type": "address"
        },
        {
          "indexed": true,
          "internalType": "address",
          "name": "_referer",
          "type": "address"
        }
      ],
      "name": "NewParticipant",
      "type": "event"
    },
    {
      "anonymous": false,
      "inputs": [
        {
          "indexed": true,
          "internalType": "address",
          "name": "previousOwner",
          "type": "address"
        },
        {
          "indexed": true,
          "internalType": "address",
          "name": "newOwner",
          "type": "address"
        }
      ],
      "name": "OwnershipTransferred",
      "type": "event"
    },
    {
      "anonymous": false,
      "inputs": [
        {
          "indexed": true,
          "internalType": "uint256",
          "name": "_oldFeePercent",
          "type": "uint256"
        },
        {
          "indexed": true,
          "internalType": "uint256",
          "name": "_newFeePercent",
          "type": "uint256"
        }
      ],
      "name": "PercentChanged",
      "type": "event"
    },
    {
      "anonymous": false,
      "inputs": [
        {
          "indexed": false,
          "internalType": "address",
          "name": "from",
          "type": "address"
        },
        {
          "indexed": false,
          "internalType": "address",
          "name": "to",
          "type": "address"
        },
        {
          "indexed": false,
          "internalType": "address",
          "name": "lotteryAddress",
          "type": "address"
        },
        {
          "indexed": false,
          "internalType": "uint256",
          "name": "reward",
          "type": "uint256"
        }
      ],
      "name": "ReferalReward",
      "type": "event"
    },
    {
      "inputs": [
        {
          "internalType": "address",
          "name": "_referer",
          "type": "address"
        }
      ],
      "name": "add",
      "outputs": [],
      "stateMutability": "nonpayable",
      "type": "function"
    },
    {
      "inputs": [
        {
          "internalType": "address",
          "name": "",
          "type": "address"
        }
      ],
      "name": "alreadyParticipant",
      "outputs": [
        {
          "internalType": "bool",
          "name": "",
          "type": "bool"
        }
      ],
      "stateMutability": "view",
      "type": "function"
    },
    {
      "inputs": [
        {
          "internalType": "address",
          "name": "",
          "type": "address"
        }
      ],
      "name": "balance",
      "outputs": [
        {
          "internalType": "uint256",
          "name": "",
          "type": "uint256"
        }
      ],
      "stateMutability": "view",
      "type": "function"
    },
    {
      "inputs": [
        {
          "internalType": "address",
          "name": "token",
          "type": "address"
        }
      ],
      "name": "claimReward",
      "outputs": [],
      "stateMutability": "nonpayable",
      "type": "function"
    },
    {
      "inputs": [
        {
          "internalType": "address",
          "name": "referal",
          "type": "address"
        }
      ],
      "name": "getReferalPercent",
      "outputs": [
        {
          "internalType": "uint256",
          "name": "",
          "type": "uint256"
        }
      ],
      "stateMutability": "view",
      "type": "function"
    },
    {
      "inputs": [
        {
          "internalType": "address",
          "name": "",
          "type": "address"
        }
      ],
      "name": "isLottery",
      "outputs": [
        {
          "internalType": "bool",
          "name": "",
          "type": "bool"
        }
      ],
      "stateMutability": "view",
      "type": "function"
    },
    {
      "inputs": [
        {
          "internalType": "address",
          "name": "_participant",
          "type": "address"
        }
      ],
      "name": "isParticipant",
      "outputs": [
        {
          "internalType": "bool",
          "name": "",
          "type": "bool"
        }
      ],
      "stateMutability": "view",
      "type": "function"
    },
    {
      "inputs": [],
      "name": "owner",
      "outputs": [
        {
          "internalType": "address",
          "name": "",
          "type": "address"
        }
      ],
      "stateMutability": "view",
      "type": "function"
    },
    {
      "inputs": [
        {
          "internalType": "uint256",
          "name": "",
          "type": "uint256"
        }
      ],
      "name": "participants",
      "outputs": [
        {
          "internalType": "address",
          "name": "",
          "type": "address"
        }
      ],
      "stateMutability": "view",
      "type": "function"
    },
    {
      "inputs": [
        {
          "internalType": "address",
          "name": "referal",
          "type": "address"
        },
        {
          "internalType": "uint256",
          "name": "reward",
          "type": "uint256"
        }
      ],
      "name": "recieveRewardFromReferalVictory",
      "outputs": [],
      "stateMutability": "nonpayable",
      "type": "function"
    },
    {
      "inputs": [
        {
          "internalType": "address",
          "name": "",
          "type": "address"
        },
        {
          "internalType": "uint256",
          "name": "",
          "type": "uint256"
        }
      ],
      "name": "referalsOf",
      "outputs": [
        {
          "internalType": "address",
          "name": "participant",
          "type": "address"
        },
        {
          "internalType": "uint256",
          "name": "percent",
          "type": "uint256"
        }
      ],
      "stateMutability": "view",
      "type": "function"
    },
    {
      "inputs": [
        {
          "internalType": "address",
          "name": "",
          "type": "address"
        }
      ],
      "name": "refererOf",
      "outputs": [
        {
          "internalType": "address",
          "name": "participant",
          "type": "address"
        },
        {
          "internalType": "uint256",
          "name": "percent",
          "type": "uint256"
        }
      ],
      "stateMutability": "view",
      "type": "function"
    },
    {
      "inputs": [
        {
          "internalType": "address",
          "name": "newLotteryAddress",
          "type": "address"
        }
      ],
      "name": "registerNewLottery",
      "outputs": [],
      "stateMutability": "nonpayable",
      "type": "function"
    },
    {
      "inputs": [],
      "name": "renounceOwnership",
      "outputs": [],
      "stateMutability": "nonpayable",
      "type": "function"
    },
    {
      "inputs": [
        {
          "internalType": "address",
          "name": "factory",
          "type": "address"
        }
      ],
      "name": "setFactoryAddress",
      "outputs": [],
      "stateMutability": "nonpayable",
      "type": "function"
    },
    {
      "inputs": [
        {
          "internalType": "uint256",
          "name": "_percent",
          "type": "uint256"
        }
      ],
      "name": "setPercent",
      "outputs": [],
      "stateMutability": "nonpayable",
      "type": "function"
    },
    {
      "inputs": [
        {
          "internalType": "address",
          "name": "newOwner",
          "type": "address"
        }
      ],
      "name": "transferOwnership",
      "outputs": [],
      "stateMutability": "nonpayable",
      "type": "function"
    }
  ],
  "bytecode": "0x608060405234801561001057600080fd5b50604051610f7d380380610f7d83398101604081905261002f916101f3565b61003f61003a61005a565b61005e565b61004960036100ae565b6100548160006100e2565b50610221565b3390565b600080546001600160a01b038381166001600160a01b0319831681178455604051919092169283917f8be0079c531659141344cd1fd0a4f28419497f9722a3daafe3b4186f6b6457e09190a35050565b6001546040518291907f8db755431f830f14c9b08f25b8ea03bdc42a1fac02d653a068489c35a0b7ffc790600090a3600155565b6007805460018181019092557fa66cc928b5edb82af9bd49922954155ab7b0942694bea4ce44661d9a8736c6880180546001600160a01b038086166001600160a01b031992831681179093556000838152600860209081526040808320805460ff191688179055805180820182528885168082528854828501908152888652600280865284872093518454908916908a161784559051928a019290925580855260038452828520835180850185528981528a548187019081528254808d0184559288529587209051919093029092018054929096169190961617845590519290950191909155925190927fb1a51db29d2bc7ad3182bd9f7909094c0dfddf3b0fb5708039638f307e95903491a35050565b600060208284031215610204578081fd5b81516001600160a01b038116811461021a578182fd5b9392505050565b610d4d806102306000396000f3fe608060405234801561001057600080fd5b506004361061011b5760003560e01c806383c17c55116100b2578063be34545311610081578063dde7cd5111610066578063dde7cd5114610254578063e3d670d714610267578063f2fde38b1461027a5761011b565b8063be3454531461022e578063d279c191146102415761011b565b806383c17c55146101e05780638da5cb5b146101f357806391080668146101fb578063929066f51461020e5761011b565b80633d137386116100ee5780633d137386146101925780635db4825b146101b2578063715018a6146101c55780637154b8b5146101cd5761011b565b806301e1db32146101205780630a3b0a4f1461013557806335c1d34914610148578063393319a814610171575b600080fd5b61013361012e366004610a32565b61028d565b005b610133610143366004610a32565b6102dc565b61015b610156366004610a9c565b610371565b6040516101689190610ab4565b60405180910390f35b61018461017f366004610a32565b6103a8565b604051610168929190610b0c565b6101a56101a0366004610a32565b6103da565b6040516101689190610cd1565b6101846101c0366004610a53565b610409565b61013361045c565b6101336101db366004610a9c565b610470565b6101336101ee366004610a32565b6104a4565b61015b6104eb565b610133610209366004610a53565b610507565b61022161021c366004610a32565b610609565b6040516101689190610b32565b61022161023c366004610a32565b610634565b61013361024f366004610a32565b610649565b610221610262366004610a32565b610749565b6101a5610275366004610a32565b61075e565b610133610288366004610a32565b610770565b73ffffffffffffffffffffffffffffffffffffffff16600090815260056020526040902080547fffffffffffffffffffffffffffffffffffffffffffffffffffffffffffffff00166001179055565b6102e533610609565b15610325576040517f08c379a000000000000000000000000000000000000000000000000000000000815260040161031c90610c63565b60405180910390fd5b61032e81610609565b610364576040517f08c379a000000000000000000000000000000000000000000000000000000000815260040161031c90610c9a565b61036e33826107ce565b50565b6007818154811061038157600080fd5b60009182526020909120015473ffffffffffffffffffffffffffffffffffffffff16905081565b6002602052600090815260409020805460019091015473ffffffffffffffffffffffffffffffffffffffff9091169082565b73ffffffffffffffffffffffffffffffffffffffff81166000908152600260205260409020600101545b919050565b6003602052816000526040600020818154811061042557600080fd5b60009182526020909120600290910201805460019091015473ffffffffffffffffffffffffffffffffffffffff9091169250905082565b610464610922565b61046e6000610995565b565b6001546040518291907f8db755431f830f14c9b08f25b8ea03bdc42a1fac02d653a068489c35a0b7ffc790600090a3600155565b600680547fffffffffffffffffffffffff00000000000000000000000000000000000000001673ffffffffffffffffffffffffffffffffffffffff92909216919091179055565b60005473ffffffffffffffffffffffffffffffffffffffff1690565b73ffffffffffffffffffffffffffffffffffffffff808316600090815260026020908152604080832081518083018352815490951685526001015484830152338352600590915290205460ff1661058a576040517f08c379a000000000000000000000000000000000000000000000000000000000815260040161031c90610b9a565b805173ffffffffffffffffffffffffffffffffffffffff16600090815260046020526040812080548492906105c0908490610cda565b909155505080516040517f92b13198d64dc2a4b4268851ed502dbfea927cbb10fb08fccefa0e43c7007f4d916105fc9186919033908790610ad5565b60405180910390a1505050565b73ffffffffffffffffffffffffffffffffffffffff1660009081526008602052604090205460ff1690565b60056020526000908152604090205460ff1681565b336000818152600460208190526040918290205491517fa9059cbb00000000000000000000000000000000000000000000000000000000815273ffffffffffffffffffffffffffffffffffffffff85169363a9059cbb936106ae939192909101610b0c565b602060405180830381600087803b1580156106c857600080fd5b505af11580156106dc573d6000803e3d6000fd5b505050506040513d601f19601f820116820180604052508101906107009190610a7c565b610736576040517f08c379a000000000000000000000000000000000000000000000000000000000815260040161031c90610bf7565b5033600090815260046020526040812055565b60086020526000908152604090205460ff1681565b60046020526000908152604090205481565b610778610922565b73ffffffffffffffffffffffffffffffffffffffff81166107c5576040517f08c379a000000000000000000000000000000000000000000000000000000000815260040161031c90610b3d565b61036e81610995565b6007805460018181019092557fa66cc928b5edb82af9bd49922954155ab7b0942694bea4ce44661d9a8736c68801805473ffffffffffffffffffffffffffffffffffffffff8086167fffffffffffffffffffffffff00000000000000000000000000000000000000009283168117909355600083815260086020908152604080832080547fffffffffffffffffffffffffffffffffffffffffffffffffffffffffffffff001688179055805180820182528885168082528854828501908152888652600280865284872093518454908916908a161784559051928a019290925580855260038452828520835180850185528981528a548187019081528254808d0184559288529587209051919093029092018054929096169190961617845590519290950191909155925190927fb1a51db29d2bc7ad3182bd9f7909094c0dfddf3b0fb5708039638f307e95903491a35050565b61092a610a0a565b73ffffffffffffffffffffffffffffffffffffffff166109486104eb565b73ffffffffffffffffffffffffffffffffffffffff161461046e576040517f08c379a000000000000000000000000000000000000000000000000000000000815260040161031c90610c2e565b6000805473ffffffffffffffffffffffffffffffffffffffff8381167fffffffffffffffffffffffff0000000000000000000000000000000000000000831681178455604051919092169283917f8be0079c531659141344cd1fd0a4f28419497f9722a3daafe3b4186f6b6457e09190a35050565b3390565b803573ffffffffffffffffffffffffffffffffffffffff8116811461040457600080fd5b600060208284031215610a43578081fd5b610a4c82610a0e565b9392505050565b60008060408385031215610a65578081fd5b610a6e83610a0e565b946020939093013593505050565b600060208284031215610a8d578081fd5b81518015158114610a4c578182fd5b600060208284031215610aad578081fd5b5035919050565b73ffffffffffffffffffffffffffffffffffffffff91909116815260200190565b73ffffffffffffffffffffffffffffffffffffffff9485168152928416602084015292166040820152606081019190915260800190565b73ffffffffffffffffffffffffffffffffffffffff929092168252602082015260400190565b901515815260200190565b60208082526026908201527f4f776e61626c653a206e6577206f776e657220697320746865207a65726f206160408201527f6464726573730000000000000000000000000000000000000000000000000000606082015260800190565b60208082526036908201527f7265636965766552657761726446726f6d5265666572616c566963746f72793a60408201527f20796f7520617265206e6f742061206c6f747465727900000000000000000000606082015260800190565b6020808252601b908201527f636c61696d5265776172643a207472616e73666572206661696c640000000000604082015260600190565b6020808252818101527f4f776e61626c653a2063616c6c6572206973206e6f7420746865206f776e6572604082015260600190565b6020808252601a908201527f5061727469636970616e7420616c726561647920657869737421000000000000604082015260600190565b60208082526012908201527f52656665726572206e6f7420666f756e64210000000000000000000000000000604082015260600190565b90815260200190565b60008219821115610d12577f4e487b710000000000000000000000000000000000000000000000000000000081526011600452602481fd5b50019056fea264697066735822122087468d7e2329a5bee3d24299c25942177d768063dc1c336697beb5ff8d3c40cc64736f6c63430008000033",
  "linkReferences": {},
  "deployedLinkReferences": {}
}