{
  "_format": "hh-sol-artifact-1",
  "contractName": "FrogReferal",
  "sourceName": "contracts/FrogReferal.sol",
  "abi": [
    {
      "inputs": [
        {
          "internalType": "address",
          "name": "_beneficiary",
          "type": "address"
        }
      ],
      "stateMutability": "nonpayable",
      "type": "constructor"
    },
    {
      "anonymous": false,
      "inputs": [
        {
          "indexed": true,
          "internalType": "address",
          "name": "_newParticipant",
          "type": "address"
        },
        {
          "indexed": true,
          "internalType": "address",
          "name": "_referer",
          "type": "address"
        }
      ],
      "name": "NewParticipant",
      "type": "event"
    },
    {
      "anonymous": false,
      "inputs": [
        {
          "indexed": true,
          "internalType": "address",
          "name": "previousOwner",
          "type": "address"
        },
        {
          "indexed": true,
          "internalType": "address",
          "name": "newOwner",
          "type": "address"
        }
      ],
      "name": "OwnershipTransferred",
      "type": "event"
    },
    {
      "anonymous": false,
      "inputs": [
        {
          "indexed": true,
          "internalType": "uint256",
          "name": "_oldFeePercent",
          "type": "uint256"
        },
        {
          "indexed": true,
          "internalType": "uint256",
          "name": "_newFeePercent",
          "type": "uint256"
        }
      ],
      "name": "PercentChanged",
      "type": "event"
    },
    {
      "anonymous": false,
      "inputs": [
        {
          "indexed": false,
          "internalType": "address",
          "name": "from",
          "type": "address"
        },
        {
          "indexed": false,
          "internalType": "address",
          "name": "to",
          "type": "address"
        },
        {
          "indexed": false,
          "internalType": "address",
          "name": "lotteryAddress",
          "type": "address"
        },
        {
          "indexed": false,
          "internalType": "uint256",
          "name": "reward",
          "type": "uint256"
        }
      ],
      "name": "ReferalReward",
      "type": "event"
    },
    {
      "inputs": [
        {
          "internalType": "address",
          "name": "_referer",
          "type": "address"
        }
      ],
      "name": "add",
      "outputs": [],
      "stateMutability": "nonpayable",
      "type": "function"
    },
    {
      "inputs": [
        {
          "internalType": "address",
          "name": "",
          "type": "address"
        }
      ],
      "name": "alreadyParticipant",
      "outputs": [
        {
          "internalType": "bool",
          "name": "",
          "type": "bool"
        }
      ],
      "stateMutability": "view",
      "type": "function"
    },
    {
      "inputs": [
        {
          "internalType": "address",
          "name": "",
          "type": "address"
        },
        {
          "internalType": "address",
          "name": "",
          "type": "address"
        }
      ],
      "name": "balance",
      "outputs": [
        {
          "internalType": "uint256",
          "name": "",
          "type": "uint256"
        }
      ],
      "stateMutability": "view",
      "type": "function"
    },
    {
      "inputs": [],
      "name": "beneficiary",
      "outputs": [
        {
          "internalType": "address",
          "name": "",
          "type": "address"
        }
      ],
      "stateMutability": "view",
      "type": "function"
    },
    {
      "inputs": [
        {
          "internalType": "address",
          "name": "token",
          "type": "address"
        }
      ],
      "name": "claimReward",
      "outputs": [],
      "stateMutability": "nonpayable",
      "type": "function"
    },
    {
      "inputs": [
        {
          "internalType": "address",
          "name": "referal",
          "type": "address"
        }
      ],
      "name": "getReferalPercent",
      "outputs": [
        {
          "internalType": "uint256",
          "name": "",
          "type": "uint256"
        }
      ],
      "stateMutability": "view",
      "type": "function"
    },
    {
      "inputs": [
        {
          "internalType": "address",
          "name": "",
          "type": "address"
        }
      ],
      "name": "isLottery",
      "outputs": [
        {
          "internalType": "bool",
          "name": "",
          "type": "bool"
        }
      ],
      "stateMutability": "view",
      "type": "function"
    },
    {
      "inputs": [
        {
          "internalType": "address",
          "name": "_participant",
          "type": "address"
        }
      ],
      "name": "isParticipant",
      "outputs": [
        {
          "internalType": "bool",
          "name": "",
          "type": "bool"
        }
      ],
      "stateMutability": "view",
      "type": "function"
    },
    {
      "inputs": [],
      "name": "owner",
      "outputs": [
        {
          "internalType": "address",
          "name": "",
          "type": "address"
        }
      ],
      "stateMutability": "view",
      "type": "function"
    },
    {
      "inputs": [
        {
          "internalType": "uint256",
          "name": "",
          "type": "uint256"
        }
      ],
      "name": "participants",
      "outputs": [
        {
          "internalType": "address",
          "name": "",
          "type": "address"
        }
      ],
      "stateMutability": "view",
      "type": "function"
    },
    {
      "inputs": [
        {
          "internalType": "address",
          "name": "token",
          "type": "address"
        },
        {
          "internalType": "address",
          "name": "referal",
          "type": "address"
        },
        {
          "internalType": "uint256",
          "name": "reward",
          "type": "uint256"
        }
      ],
      "name": "recieveRewardFromReferalVictory",
      "outputs": [],
      "stateMutability": "nonpayable",
      "type": "function"
    },
    {
      "inputs": [
        {
          "internalType": "address",
          "name": "",
          "type": "address"
        },
        {
          "internalType": "uint256",
          "name": "",
          "type": "uint256"
        }
      ],
      "name": "referalsOf",
      "outputs": [
        {
          "internalType": "address",
          "name": "participant",
          "type": "address"
        },
        {
          "internalType": "uint256",
          "name": "percent",
          "type": "uint256"
        }
      ],
      "stateMutability": "view",
      "type": "function"
    },
    {
      "inputs": [
        {
          "internalType": "address",
          "name": "",
          "type": "address"
        }
      ],
      "name": "refererOf",
      "outputs": [
        {
          "internalType": "address",
          "name": "participant",
          "type": "address"
        },
        {
          "internalType": "uint256",
          "name": "percent",
          "type": "uint256"
        }
      ],
      "stateMutability": "view",
      "type": "function"
    },
    {
      "inputs": [
        {
          "internalType": "address",
          "name": "newLotteryAddress",
          "type": "address"
        }
      ],
      "name": "registerNewLottery",
      "outputs": [],
      "stateMutability": "nonpayable",
      "type": "function"
    },
    {
      "inputs": [],
      "name": "renounceOwnership",
      "outputs": [],
      "stateMutability": "nonpayable",
      "type": "function"
    },
    {
      "inputs": [
        {
          "internalType": "address",
          "name": "_newBeneficiary",
          "type": "address"
        }
      ],
      "name": "setBeneficiary",
      "outputs": [],
      "stateMutability": "nonpayable",
      "type": "function"
    },
    {
      "inputs": [
        {
          "internalType": "address",
          "name": "factory",
          "type": "address"
        }
      ],
      "name": "setFactoryAddress",
      "outputs": [],
      "stateMutability": "nonpayable",
      "type": "function"
    },
    {
      "inputs": [
        {
          "internalType": "uint256",
          "name": "_percent",
          "type": "uint256"
        }
      ],
      "name": "setPercent",
      "outputs": [],
      "stateMutability": "nonpayable",
      "type": "function"
    },
    {
      "inputs": [
        {
          "internalType": "address",
          "name": "newOwner",
          "type": "address"
        }
      ],
      "name": "transferOwnership",
      "outputs": [],
      "stateMutability": "nonpayable",
      "type": "function"
    }
  ],
  "bytecode": "0x60806040523480156200001157600080fd5b5060405162002c0038038062002c008339818101604052810190620000379190620008f0565b620000576200004b6200016c60201b60201c565b6200017460201b60201c565b62000073673c10ae237b2efe6460c01b6200023860201b60201c565b6200008f67b910d14af27f9e4c60c01b6200023860201b60201c565b80600260006101000a81548173ffffffffffffffffffffffffffffffffffffffff021916908373ffffffffffffffffffffffffffffffffffffffff160217905550620000ec674cb03637b91f33c160c01b6200023860201b60201c565b6200010867464357e380c0d05060c01b6200023860201b60201c565b6200011a60036200023b60201b60201c565b6200013667c0a28f5204d3e79f60c01b6200023860201b60201c565b6200015267beed666bbc8918bb60c01b6200023860201b60201c565b62000165816000620004e860201b60201c565b5062000a05565b600033905090565b60008060009054906101000a900473ffffffffffffffffffffffffffffffffffffffff169050816000806101000a81548173ffffffffffffffffffffffffffffffffffffffff021916908373ffffffffffffffffffffffffffffffffffffffff1602179055508173ffffffffffffffffffffffffffffffffffffffff168173ffffffffffffffffffffffffffffffffffffffff167f8be0079c531659141344cd1fd0a4f28419497f9722a3daafe3b4186f6b6457e060405160405180910390a35050565b50565b6200025767075088946046476960c01b6200023860201b60201c565b6200027367b5dd62e6fe785acf60c01b6200023860201b60201c565b6200028f67bba8effba2e821db60c01b6200023860201b60201c565b620002ab67a4c098dd22e3960660c01b6200023860201b60201c565b620002c767e4b52cc8a71a36e060c01b6200023860201b60201c565b620002d7620008a560201b60201c565b73ffffffffffffffffffffffffffffffffffffffff163373ffffffffffffffffffffffffffffffffffffffff161480156200032a5750620003296721aaf2151b7630aa60c01b620008ce60201b60201c565b5b80620003a85750600260009054906101000a900473ffffffffffffffffffffffffffffffffffffffff1673ffffffffffffffffffffffffffffffffffffffff163373ffffffffffffffffffffffffffffffffffffffff16148015620003a75750620003a667294a486f73f1a58c60c01b620008ce60201b60201c565b5b5b620003ea576040517f08c379a0000000000000000000000000000000000000000000000000000000008152600401620003e19062000984565b60405180910390fd5b6200040667abb5669ade14926460c01b6200023860201b60201c565b62000422672f2ef3e67750b20e60c01b6200023860201b60201c565b6200043e673962450dcb978e1f60c01b6200023860201b60201c565b6200045a671536cb52479b576860c01b6200023860201b60201c565b6200047667239365633775b31c60c01b6200023860201b60201c565b6200049267b9071b66c899829660c01b6200023860201b60201c565b806001547f8db755431f830f14c9b08f25b8ea03bdc42a1fac02d653a068489c35a0b7ffc760405160405180910390a3620004de675970b462e06554bc60c01b6200023860201b60201c565b8060018190555050565b62000504675c5269144c17c6ca60c01b6200023860201b60201c565b620005206734a13f782bb1ee5260c01b6200023860201b60201c565b6200053c673de1ae53de270dca60c01b6200023860201b60201c565b6008829080600181540180825580915050600190039060005260206000200160009091909190916101000a81548173ffffffffffffffffffffffffffffffffffffffff021916908373ffffffffffffffffffffffffffffffffffffffff160217905550620005bb675d7b7b8daab5733e60c01b6200023860201b60201c565b6001600960008473ffffffffffffffffffffffffffffffffffffffff1673ffffffffffffffffffffffffffffffffffffffff16815260200190815260200160002060006101000a81548160ff0219169083151502179055506200062f671b7202734721414d60c01b6200023860201b60201c565b60405180604001604052808273ffffffffffffffffffffffffffffffffffffffff168152602001600154815250600360008473ffffffffffffffffffffffffffffffffffffffff1673ffffffffffffffffffffffffffffffffffffffff16815260200190815260200160002060008201518160000160006101000a81548173ffffffffffffffffffffffffffffffffffffffff021916908373ffffffffffffffffffffffffffffffffffffffff160217905550602082015181600101559050506200070b67489acaecae287c0560c01b6200023860201b60201c565b6200072767fe554ab359af7cb960c01b6200023860201b60201c565b600460008273ffffffffffffffffffffffffffffffffffffffff1673ffffffffffffffffffffffffffffffffffffffff16815260200190815260200160002060405180604001604052808473ffffffffffffffffffffffffffffffffffffffff168152602001600154815250908060018154018082558091505060019003906000526020600020906002020160009091909190915060008201518160000160006101000a81548173ffffffffffffffffffffffffffffffffffffffff021916908373ffffffffffffffffffffffffffffffffffffffff1602179055506020820151816001015550506200082b67b6c08c73797bb5f460c01b6200023860201b60201c565b620008476750cf0a22812a4fde60c01b6200023860201b60201c565b8073ffffffffffffffffffffffffffffffffffffffff168273ffffffffffffffffffffffffffffffffffffffff167fb1a51db29d2bc7ad3182bd9f7909094c0dfddf3b0fb5708039638f307e95903460405160405180910390a35050565b60008060009054906101000a900473ffffffffffffffffffffffffffffffffffffffff16905090565b600060019050919050565b600081519050620008ea81620009eb565b92915050565b6000602082840312156200090357600080fd5b60006200091384828501620008d9565b91505092915050565b60006200092b602283620009a6565b91507f43616c6c6572206973206e6f742062656e6566696369617279206f72206f776e60008301527f65720000000000000000000000000000000000000000000000000000000000006020830152604082019050919050565b600060208201905081810360008301526200099f816200091c565b9050919050565b600082825260208201905092915050565b6000620009c482620009cb565b9050919050565b600073ffffffffffffffffffffffffffffffffffffffff82169050919050565b620009f681620009b7565b811462000a0257600080fd5b50565b6121eb8062000a156000396000f3fe608060405234801561001057600080fd5b50600436106101515760003560e01c80637154b8b5116100cd578063be34545311610081578063d279c19111610066578063d279c19114610396578063dde7cd51146103b2578063f2fde38b146103e257610151565b8063be3454531461034a578063cadafe141461037a57610151565b80638da5cb5b116100b25780638da5cb5b146102cc578063929066f5146102ea578063b203bb991461031a57610151565b80637154b8b51461029457806383c17c55146102b057610151565b806338af3eed116101245780633d137386116101095780633d137386146102295780635db4825b14610259578063715018a61461028a57610151565b806338af3eed146101da578063393319a8146101f857610151565b806301e1db32146101565780630a3b0a4f146101725780631c31f7101461018e57806335c1d349146101aa575b600080fd5b610170600480360381019061016b9190611aa6565b6103fe565b005b61018c60048036038101906101879190611aa6565b610561565b005b6101a860048036038101906101a39190611aa6565b6106db565b005b6101c460048036038101906101bf9190611bbf565b6108ec565b6040516101d19190611ed3565b60405180910390f35b6101e261092b565b6040516101ef9190611ed3565b60405180910390f35b610212600480360381019061020d9190611aa6565b610951565b604051610220929190611f33565b60405180910390f35b610243600480360381019061023e9190611aa6565b610995565b6040516102509190612077565b60405180910390f35b610273600480360381019061026e9190611b5a565b610a1d565b604051610281929190611f33565b60405180910390f35b610292610a7e565b005b6102ae60048036038101906102a99190611bbf565b610a92565b005b6102ca60048036038101906102c59190611aa6565b610cc1565b005b6102d4610ed2565b6040516102e19190611ed3565b60405180910390f35b61030460048036038101906102ff9190611aa6565b610efb565b6040516103119190611f5c565b60405180910390f35b610334600480360381019061032f9190611acf565b610f8d565b6040516103419190612077565b60405180910390f35b610364600480360381019061035f9190611aa6565b610fb2565b6040516103719190611f5c565b60405180910390f35b610394600480360381019061038f9190611b0b565b610fd2565b005b6103b060048036038101906103ab9190611aa6565b6112b1565b005b6103cc60048036038101906103c79190611aa6565b6114f6565b6040516103d99190611f5c565b60405180910390f35b6103fc60048036038101906103f79190611aa6565b611516565b005b610412678e0cc3adc5cd245160c01b61159a565b61042667afb571cf03f8bcae60c01b61159a565b61043a670fa03d111fa0991360c01b61159a565b61044e67f81daf69b33b0fb160c01b61159a565b3373ffffffffffffffffffffffffffffffffffffffff16600760009054906101000a900473ffffffffffffffffffffffffffffffffffffffff1673ffffffffffffffffffffffffffffffffffffffff16146104de576040517f08c379a00000000000000000000000000000000000000000000000000000000081526004016104d590612037565b60405180910390fd5b6104f2671a15debbd26d2ef360c01b61159a565b61050667279fb2fa1d83496460c01b61159a565b6001600660008373ffffffffffffffffffffffffffffffffffffffff1673ffffffffffffffffffffffffffffffffffffffff16815260200190815260200160002060006101000a81548160ff02191690831515021790555050565b61057567f33fb98ea5a1200160c01b61159a565b61058967f01329efbc2d7b4760c01b61159a565b61059d670d8dea58080c055b60c01b61159a565b6105b1672bda687c37a5741060c01b61159a565b6105ba33610efb565b156105fa576040517f08c379a00000000000000000000000000000000000000000000000000000000081526004016105f190612017565b60405180910390fd5b61060e67c95376a9fa2e2c7560c01b61159a565b610622678a4a6356da570c2960c01b61159a565b61063667a0a3e00df4a4e89a60c01b61159a565b61064a67b190df7cc97b38ac60c01b61159a565b61065381610efb565b610692576040517f08c379a000000000000000000000000000000000000000000000000000000000815260040161068990612057565b60405180910390fd5b6106a6670f61cc3139b4995260c01b61159a565b6106ba679332c11b03d35fd860c01b61159a565b6106ce678a11801d8c37bf1160c01b61159a565b6106d8338261159d565b50565b6106ef67215327cd4020075360c01b61159a565b61070367b5dd62e6fe785acf60c01b61159a565b61071767bba8effba2e821db60c01b61159a565b61072b67a4c098dd22e3960660c01b61159a565b61073f67e4b52cc8a71a36e060c01b61159a565b610747610ed2565b73ffffffffffffffffffffffffffffffffffffffff163373ffffffffffffffffffffffffffffffffffffffff1614801561079157506107906721aaf2151b7630aa60c01b611912565b5b806108055750600260009054906101000a900473ffffffffffffffffffffffffffffffffffffffff1673ffffffffffffffffffffffffffffffffffffffff163373ffffffffffffffffffffffffffffffffffffffff16148015610804575061080367294a486f73f1a58c60c01b611912565b5b5b610844576040517f08c379a000000000000000000000000000000000000000000000000000000000815260040161083b90611fd7565b60405180910390fd5b61085867abb5669ade14926460c01b61159a565b61086c672f2ef3e67750b20e60c01b61159a565b6108806796c3037c88e4a2db60c01b61159a565b61089467d4a079ec2f2cdefd60c01b61159a565b6108a867f7434a8d4b4f19e460c01b61159a565b80600260006101000a81548173ffffffffffffffffffffffffffffffffffffffff021916908373ffffffffffffffffffffffffffffffffffffffff16021790555050565b600881815481106108fc57600080fd5b906000526020600020016000915054906101000a900473ffffffffffffffffffffffffffffffffffffffff1681565b600260009054906101000a900473ffffffffffffffffffffffffffffffffffffffff1681565b60036020528060005260406000206000915090508060000160009054906101000a900473ffffffffffffffffffffffffffffffffffffffff16908060010154905082565b60006109ab679fd562b5397446b160c01b61159a565b6109bf675817c1719daba51d60c01b61159a565b6109d367579b55b5db4d6ef960c01b61159a565b600360008373ffffffffffffffffffffffffffffffffffffffff1673ffffffffffffffffffffffffffffffffffffffff168152602001908152602001600020600101549050919050565b60046020528160005260406000208181548110610a3957600080fd5b9060005260206000209060020201600091509150508060000160009054906101000a900473ffffffffffffffffffffffffffffffffffffffff16908060010154905082565b610a8661191d565b610a90600061199b565b565b610aa667075088946046476960c01b61159a565b610aba67b5dd62e6fe785acf60c01b61159a565b610ace67bba8effba2e821db60c01b61159a565b610ae267a4c098dd22e3960660c01b61159a565b610af667e4b52cc8a71a36e060c01b61159a565b610afe610ed2565b73ffffffffffffffffffffffffffffffffffffffff163373ffffffffffffffffffffffffffffffffffffffff16148015610b485750610b476721aaf2151b7630aa60c01b611912565b5b80610bbc5750600260009054906101000a900473ffffffffffffffffffffffffffffffffffffffff1673ffffffffffffffffffffffffffffffffffffffff163373ffffffffffffffffffffffffffffffffffffffff16148015610bbb5750610bba67294a486f73f1a58c60c01b611912565b5b5b610bfb576040517f08c379a0000000000000000000000000000000000000000000000000000000008152600401610bf290611fd7565b60405180910390fd5b610c0f67abb5669ade14926460c01b61159a565b610c23672f2ef3e67750b20e60c01b61159a565b610c37673962450dcb978e1f60c01b61159a565b610c4b671536cb52479b576860c01b61159a565b610c5f67239365633775b31c60c01b61159a565b610c7367b9071b66c899829660c01b61159a565b806001547f8db755431f830f14c9b08f25b8ea03bdc42a1fac02d653a068489c35a0b7ffc760405160405180910390a3610cb7675970b462e06554bc60c01b61159a565b8060018190555050565b610cd567b93e46fa55aa335260c01b61159a565b610ce967b5dd62e6fe785acf60c01b61159a565b610cfd67bba8effba2e821db60c01b61159a565b610d1167a4c098dd22e3960660c01b61159a565b610d2567e4b52cc8a71a36e060c01b61159a565b610d2d610ed2565b73ffffffffffffffffffffffffffffffffffffffff163373ffffffffffffffffffffffffffffffffffffffff16148015610d775750610d766721aaf2151b7630aa60c01b611912565b5b80610deb5750600260009054906101000a900473ffffffffffffffffffffffffffffffffffffffff1673ffffffffffffffffffffffffffffffffffffffff163373ffffffffffffffffffffffffffffffffffffffff16148015610dea5750610de967294a486f73f1a58c60c01b611912565b5b5b610e2a576040517f08c379a0000000000000000000000000000000000000000000000000000000008152600401610e2190611fd7565b60405180910390fd5b610e3e67abb5669ade14926460c01b61159a565b610e52672f2ef3e67750b20e60c01b61159a565b610e6667e221026efa4b497a60c01b61159a565b610e7a67e2de83dd1f8a7fff60c01b61159a565b610e8e675a8e2a307427c20960c01b61159a565b80600760006101000a81548173ffffffffffffffffffffffffffffffffffffffff021916908373ffffffffffffffffffffffffffffffffffffffff16021790555050565b60008060009054906101000a900473ffffffffffffffffffffffffffffffffffffffff16905090565b6000610f1167e96b4ae25a0a4cc060c01b61159a565b610f2567e404272adc79202b60c01b61159a565b610f39676e2c270e3d78da7f60c01b61159a565b600960008373ffffffffffffffffffffffffffffffffffffffff1673ffffffffffffffffffffffffffffffffffffffff16815260200190815260200160002060009054906101000a900460ff169050919050565b6005602052816000526040600020602052806000526040600020600091509150505481565b60066020528060005260406000206000915054906101000a900460ff1681565b610fe667d2b7e9b6dbc9a0ef60c01b61159a565b610ffa674a59ef27bef29a0d60c01b61159a565b61100e67e4ef83ace3035b9160c01b61159a565b6000600360008473ffffffffffffffffffffffffffffffffffffffff1673ffffffffffffffffffffffffffffffffffffffff1681526020019081526020016000206040518060400160405290816000820160009054906101000a900473ffffffffffffffffffffffffffffffffffffffff1673ffffffffffffffffffffffffffffffffffffffff1673ffffffffffffffffffffffffffffffffffffffff16815260200160018201548152505090506110d067e1a9dca03929c6ac60c01b61159a565b6110e467bf9238c6dbf87d1360c01b61159a565b6110f867ce771f675570354f60c01b61159a565b600660003373ffffffffffffffffffffffffffffffffffffffff1673ffffffffffffffffffffffffffffffffffffffff16815260200190815260200160002060009054906101000a900460ff16611184576040517f08c379a000000000000000000000000000000000000000000000000000000000815260040161117b90611f97565b60405180910390fd5b6111986708841fc13115053560c01b61159a565b6111ab661bc8c9516b857d60c01b61159a565b81600560008673ffffffffffffffffffffffffffffffffffffffff1673ffffffffffffffffffffffffffffffffffffffff1681526020019081526020016000206000836000015173ffffffffffffffffffffffffffffffffffffffff1673ffffffffffffffffffffffffffffffffffffffff168152602001908152602001600020600082825461123b91906120a3565b9250508190555061125667ae78a6b26c0651fe60c01b61159a565b61126a671550b0fed57498db60c01b61159a565b7f92b13198d64dc2a4b4268851ed502dbfea927cbb10fb08fccefa0e43c7007f4d83826000015133856040516112a39493929190611eee565b60405180910390a150505050565b6112c5673aa3db8d5c11a6f260c01b61159a565b6112d9677b48826cfea949a160c01b61159a565b6112ed674f212cf9a4e8da7260c01b61159a565b61130167473960e55736c2b060c01b61159a565b8073ffffffffffffffffffffffffffffffffffffffff1663a9059cbb33600560008573ffffffffffffffffffffffffffffffffffffffff1673ffffffffffffffffffffffffffffffffffffffff16815260200190815260200160002060003373ffffffffffffffffffffffffffffffffffffffff1673ffffffffffffffffffffffffffffffffffffffff168152602001908152602001600020546040518363ffffffff1660e01b81526004016113b8929190611f33565b602060405180830381600087803b1580156113d257600080fd5b505af11580156113e6573d6000803e3d6000fd5b505050506040513d601f19601f8201168201806040525081019061140a9190611b96565b611449576040517f08c379a000000000000000000000000000000000000000000000000000000000815260040161144090611fb7565b60405180910390fd5b61145d6789f2fedb5ab9731460c01b61159a565b6114716742c2a331d0213b0d60c01b61159a565b6000600560008373ffffffffffffffffffffffffffffffffffffffff1673ffffffffffffffffffffffffffffffffffffffff16815260200190815260200160002060003373ffffffffffffffffffffffffffffffffffffffff1673ffffffffffffffffffffffffffffffffffffffff1681526020019081526020016000208190555050565b60096020528060005260406000206000915054906101000a900460ff1681565b61151e61191d565b600073ffffffffffffffffffffffffffffffffffffffff168173ffffffffffffffffffffffffffffffffffffffff16141561158e576040517f08c379a000000000000000000000000000000000000000000000000000000000815260040161158590611f77565b60405180910390fd5b6115978161199b565b50565b50565b6115b1675c5269144c17c6ca60c01b61159a565b6115c56734a13f782bb1ee5260c01b61159a565b6115d9673de1ae53de270dca60c01b61159a565b6008829080600181540180825580915050600190039060005260206000200160009091909190916101000a81548173ffffffffffffffffffffffffffffffffffffffff021916908373ffffffffffffffffffffffffffffffffffffffff160217905550611650675d7b7b8daab5733e60c01b61159a565b6001600960008473ffffffffffffffffffffffffffffffffffffffff1673ffffffffffffffffffffffffffffffffffffffff16815260200190815260200160002060006101000a81548160ff0219169083151502179055506116bc671b7202734721414d60c01b61159a565b60405180604001604052808273ffffffffffffffffffffffffffffffffffffffff168152602001600154815250600360008473ffffffffffffffffffffffffffffffffffffffff1673ffffffffffffffffffffffffffffffffffffffff16815260200190815260200160002060008201518160000160006101000a81548173ffffffffffffffffffffffffffffffffffffffff021916908373ffffffffffffffffffffffffffffffffffffffff1602179055506020820151816001015590505061179067489acaecae287c0560c01b61159a565b6117a467fe554ab359af7cb960c01b61159a565b600460008273ffffffffffffffffffffffffffffffffffffffff1673ffffffffffffffffffffffffffffffffffffffff16815260200190815260200160002060405180604001604052808473ffffffffffffffffffffffffffffffffffffffff168152602001600154815250908060018154018082558091505060019003906000526020600020906002020160009091909190915060008201518160000160006101000a81548173ffffffffffffffffffffffffffffffffffffffff021916908373ffffffffffffffffffffffffffffffffffffffff1602179055506020820151816001015550506118a067b6c08c73797bb5f460c01b61159a565b6118b46750cf0a22812a4fde60c01b61159a565b8073ffffffffffffffffffffffffffffffffffffffff168273ffffffffffffffffffffffffffffffffffffffff167fb1a51db29d2bc7ad3182bd9f7909094c0dfddf3b0fb5708039638f307e95903460405160405180910390a35050565b600060019050919050565b611925611a5f565b73ffffffffffffffffffffffffffffffffffffffff16611943610ed2565b73ffffffffffffffffffffffffffffffffffffffff1614611999576040517f08c379a000000000000000000000000000000000000000000000000000000000815260040161199090611ff7565b60405180910390fd5b565b60008060009054906101000a900473ffffffffffffffffffffffffffffffffffffffff169050816000806101000a81548173ffffffffffffffffffffffffffffffffffffffff021916908373ffffffffffffffffffffffffffffffffffffffff1602179055508173ffffffffffffffffffffffffffffffffffffffff168173ffffffffffffffffffffffffffffffffffffffff167f8be0079c531659141344cd1fd0a4f28419497f9722a3daafe3b4186f6b6457e060405160405180910390a35050565b600033905090565b600081359050611a7681612170565b92915050565b600081519050611a8b81612187565b92915050565b600081359050611aa08161219e565b92915050565b600060208284031215611ab857600080fd5b6000611ac684828501611a67565b91505092915050565b60008060408385031215611ae257600080fd5b6000611af085828601611a67565b9250506020611b0185828601611a67565b9150509250929050565b600080600060608486031215611b2057600080fd5b6000611b2e86828701611a67565b9350506020611b3f86828701611a67565b9250506040611b5086828701611a91565b9150509250925092565b60008060408385031215611b6d57600080fd5b6000611b7b85828601611a67565b9250506020611b8c85828601611a91565b9150509250929050565b600060208284031215611ba857600080fd5b6000611bb684828501611a7c565b91505092915050565b600060208284031215611bd157600080fd5b6000611bdf84828501611a91565b91505092915050565b611bf1816120f9565b82525050565b611c008161210b565b82525050565b6000611c13602683612092565b91507f4f776e61626c653a206e6577206f776e657220697320746865207a65726f206160008301527f64647265737300000000000000000000000000000000000000000000000000006020830152604082019050919050565b6000611c79603683612092565b91507f7265636965766552657761726446726f6d5265666572616c566963746f72793a60008301527f20796f7520617265206e6f742061206c6f7474657279000000000000000000006020830152604082019050919050565b6000611cdf601b83612092565b91507f636c61696d5265776172643a207472616e73666572206661696c6400000000006000830152602082019050919050565b6000611d1f602283612092565b91507f43616c6c6572206973206e6f742062656e6566696369617279206f72206f776e60008301527f65720000000000000000000000000000000000000000000000000000000000006020830152604082019050919050565b6000611d85602083612092565b91507f4f776e61626c653a2063616c6c6572206973206e6f7420746865206f776e65726000830152602082019050919050565b6000611dc5601a83612092565b91507f5061727469636970616e7420616c7265616479206578697374210000000000006000830152602082019050919050565b6000611e05604183612092565b91507f72656769737465724e65774c6f74746572793a20796f7520617265206e6f742060008301527f616c6c6f77656420746f207265676973746572206e6577206c6f74746572696560208301527f73000000000000000000000000000000000000000000000000000000000000006040830152606082019050919050565b6000611e91601283612092565b91507f52656665726572206e6f7420666f756e642100000000000000000000000000006000830152602082019050919050565b611ecd81612137565b82525050565b6000602082019050611ee86000830184611be8565b92915050565b6000608082019050611f036000830187611be8565b611f106020830186611be8565b611f1d6040830185611be8565b611f2a6060830184611ec4565b95945050505050565b6000604082019050611f486000830185611be8565b611f556020830184611ec4565b9392505050565b6000602082019050611f716000830184611bf7565b92915050565b60006020820190508181036000830152611f9081611c06565b9050919050565b60006020820190508181036000830152611fb081611c6c565b9050919050565b60006020820190508181036000830152611fd081611cd2565b9050919050565b60006020820190508181036000830152611ff081611d12565b9050919050565b6000602082019050818103600083015261201081611d78565b9050919050565b6000602082019050818103600083015261203081611db8565b9050919050565b6000602082019050818103600083015261205081611df8565b9050919050565b6000602082019050818103600083015261207081611e84565b9050919050565b600060208201905061208c6000830184611ec4565b92915050565b600082825260208201905092915050565b60006120ae82612137565b91506120b983612137565b9250827fffffffffffffffffffffffffffffffffffffffffffffffffffffffffffffffff038211156120ee576120ed612141565b5b828201905092915050565b600061210482612117565b9050919050565b60008115159050919050565b600073ffffffffffffffffffffffffffffffffffffffff82169050919050565b6000819050919050565b7f4e487b7100000000000000000000000000000000000000000000000000000000600052601160045260246000fd5b612179816120f9565b811461218457600080fd5b50565b6121908161210b565b811461219b57600080fd5b50565b6121a781612137565b81146121b257600080fd5b5056fea2646970667358221220781492f34a0e1823bb04b82299c294c475edb3c6af304192976128c59e3abe5d64736f6c63430008000033",
  "linkReferences": {},
  "deployedLinkReferences": {}
}