{
  "_format": "hh-sol-artifact-1",
  "contractName": "FrogReferal",
  "sourceName": "contracts/FrogReferal.sol",
  "abi": [
    {
      "inputs": [
        {
          "internalType": "address",
          "name": "_beneficiary",
          "type": "address"
        }
      ],
      "stateMutability": "nonpayable",
      "type": "constructor"
    },
    {
      "anonymous": false,
      "inputs": [
        {
          "indexed": true,
          "internalType": "address",
          "name": "_newParticipant",
          "type": "address"
        },
        {
          "indexed": true,
          "internalType": "address",
          "name": "_referer",
          "type": "address"
        }
      ],
      "name": "NewParticipant",
      "type": "event"
    },
    {
      "anonymous": false,
      "inputs": [
        {
          "indexed": true,
          "internalType": "address",
          "name": "previousOwner",
          "type": "address"
        },
        {
          "indexed": true,
          "internalType": "address",
          "name": "newOwner",
          "type": "address"
        }
      ],
      "name": "OwnershipTransferred",
      "type": "event"
    },
    {
      "anonymous": false,
      "inputs": [
        {
          "indexed": true,
          "internalType": "uint256",
          "name": "_oldFeePercent",
          "type": "uint256"
        },
        {
          "indexed": true,
          "internalType": "uint256",
          "name": "_newFeePercent",
          "type": "uint256"
        }
      ],
      "name": "PercentChanged",
      "type": "event"
    },
    {
      "anonymous": false,
      "inputs": [
        {
          "indexed": false,
          "internalType": "address",
          "name": "from",
          "type": "address"
        },
        {
          "indexed": false,
          "internalType": "address",
          "name": "to",
          "type": "address"
        },
        {
          "indexed": false,
          "internalType": "address",
          "name": "lotteryAddress",
          "type": "address"
        },
        {
          "indexed": false,
          "internalType": "uint256",
          "name": "reward",
          "type": "uint256"
        }
      ],
      "name": "ReferalReward",
      "type": "event"
    },
    {
      "inputs": [
        {
          "internalType": "address",
          "name": "_referer",
          "type": "address"
        }
      ],
      "name": "add",
      "outputs": [],
      "stateMutability": "nonpayable",
      "type": "function"
    },
    {
      "inputs": [
        {
          "internalType": "address",
          "name": "",
          "type": "address"
        }
      ],
      "name": "alreadyParticipant",
      "outputs": [
        {
          "internalType": "bool",
          "name": "",
          "type": "bool"
        }
      ],
      "stateMutability": "view",
      "type": "function"
    },
    {
      "inputs": [
        {
          "internalType": "address",
          "name": "",
          "type": "address"
        },
        {
          "internalType": "address",
          "name": "",
          "type": "address"
        }
      ],
      "name": "balance",
      "outputs": [
        {
          "internalType": "uint256",
          "name": "",
          "type": "uint256"
        }
      ],
      "stateMutability": "view",
      "type": "function"
    },
    {
      "inputs": [
        {
          "internalType": "address",
          "name": "token",
          "type": "address"
        }
      ],
      "name": "claimReward",
      "outputs": [],
      "stateMutability": "nonpayable",
      "type": "function"
    },
    {
      "inputs": [
        {
          "internalType": "address",
          "name": "referal",
          "type": "address"
        }
      ],
      "name": "getReferalPercent",
      "outputs": [
        {
          "internalType": "uint256",
          "name": "",
          "type": "uint256"
        }
      ],
      "stateMutability": "view",
      "type": "function"
    },
    {
      "inputs": [
        {
          "internalType": "address",
          "name": "",
          "type": "address"
        }
      ],
      "name": "isLottery",
      "outputs": [
        {
          "internalType": "bool",
          "name": "",
          "type": "bool"
        }
      ],
      "stateMutability": "view",
      "type": "function"
    },
    {
      "inputs": [
        {
          "internalType": "address",
          "name": "_participant",
          "type": "address"
        }
      ],
      "name": "isParticipant",
      "outputs": [
        {
          "internalType": "bool",
          "name": "",
          "type": "bool"
        }
      ],
      "stateMutability": "view",
      "type": "function"
    },
    {
      "inputs": [],
      "name": "owner",
      "outputs": [
        {
          "internalType": "address",
          "name": "",
          "type": "address"
        }
      ],
      "stateMutability": "view",
      "type": "function"
    },
    {
      "inputs": [
        {
          "internalType": "uint256",
          "name": "",
          "type": "uint256"
        }
      ],
      "name": "participants",
      "outputs": [
        {
          "internalType": "address",
          "name": "",
          "type": "address"
        }
      ],
      "stateMutability": "view",
      "type": "function"
    },
    {
      "inputs": [
        {
          "internalType": "address",
          "name": "token",
          "type": "address"
        },
        {
          "internalType": "address",
          "name": "referal",
          "type": "address"
        },
        {
          "internalType": "uint256",
          "name": "reward",
          "type": "uint256"
        }
      ],
      "name": "recieveRewardFromReferalVictory",
      "outputs": [],
      "stateMutability": "nonpayable",
      "type": "function"
    },
    {
      "inputs": [
        {
          "internalType": "address",
          "name": "",
          "type": "address"
        },
        {
          "internalType": "uint256",
          "name": "",
          "type": "uint256"
        }
      ],
      "name": "referalsOf",
      "outputs": [
        {
          "internalType": "address",
          "name": "participant",
          "type": "address"
        },
        {
          "internalType": "uint256",
          "name": "percent",
          "type": "uint256"
        }
      ],
      "stateMutability": "view",
      "type": "function"
    },
    {
      "inputs": [
        {
          "internalType": "address",
          "name": "",
          "type": "address"
        }
      ],
      "name": "refererOf",
      "outputs": [
        {
          "internalType": "address",
          "name": "participant",
          "type": "address"
        },
        {
          "internalType": "uint256",
          "name": "percent",
          "type": "uint256"
        }
      ],
      "stateMutability": "view",
      "type": "function"
    },
    {
      "inputs": [
        {
          "internalType": "address",
          "name": "newLotteryAddress",
          "type": "address"
        }
      ],
      "name": "registerNewLottery",
      "outputs": [],
      "stateMutability": "nonpayable",
      "type": "function"
    },
    {
      "inputs": [],
      "name": "renounceOwnership",
      "outputs": [],
      "stateMutability": "nonpayable",
      "type": "function"
    },
    {
      "inputs": [
        {
          "internalType": "address",
          "name": "factory",
          "type": "address"
        }
      ],
      "name": "setFactoryAddress",
      "outputs": [],
      "stateMutability": "nonpayable",
      "type": "function"
    },
    {
      "inputs": [
        {
          "internalType": "uint256",
          "name": "_percent",
          "type": "uint256"
        }
      ],
      "name": "setPercent",
      "outputs": [],
      "stateMutability": "nonpayable",
      "type": "function"
    },
    {
      "inputs": [
        {
          "internalType": "address",
          "name": "newOwner",
          "type": "address"
        }
      ],
      "name": "transferOwnership",
      "outputs": [],
      "stateMutability": "nonpayable",
      "type": "function"
    }
  ],
  "bytecode": "0x608060405234801561001057600080fd5b50604051610e20380380610e2083398101604081905261002f916101f3565b61003f61003a61005a565b61005e565b61004960036100ae565b6100548160006100e2565b50610221565b3390565b600080546001600160a01b038381166001600160a01b0319831681178455604051919092169283917f8be0079c531659141344cd1fd0a4f28419497f9722a3daafe3b4186f6b6457e09190a35050565b6001546040518291907f8db755431f830f14c9b08f25b8ea03bdc42a1fac02d653a068489c35a0b7ffc790600090a3600155565b6007805460018181019092557fa66cc928b5edb82af9bd49922954155ab7b0942694bea4ce44661d9a8736c6880180546001600160a01b038086166001600160a01b031992831681179093556000838152600860209081526040808320805460ff191688179055805180820182528885168082528854828501908152888652600280865284872093518454908916908a161784559051928a019290925580855260038452828520835180850185528981528a548187019081528254808d0184559288529587209051919093029092018054929096169190961617845590519290950191909155925190927fb1a51db29d2bc7ad3182bd9f7909094c0dfddf3b0fb5708039638f307e95903491a35050565b600060208284031215610204578081fd5b81516001600160a01b038116811461021a578182fd5b9392505050565b610bf0806102306000396000f3fe608060405234801561001057600080fd5b506004361061011b5760003560e01c806383c17c55116100b2578063be34545311610081578063d279c19111610066578063d279c19114610254578063dde7cd5114610267578063f2fde38b1461027a5761011b565b8063be3454531461022e578063cadafe14146102415761011b565b806383c17c55146101e05780638da5cb5b146101f3578063929066f5146101fb578063b203bb991461021b5761011b565b80633d137386116100ee5780633d137386146101925780635db4825b146101b2578063715018a6146101c55780637154b8b5146101cd5761011b565b806301e1db32146101205780630a3b0a4f1461013557806335c1d34914610148578063393319a814610171575b600080fd5b61013361012e36600461088f565b61028d565b005b61013361014336600461088f565b6102b1565b61015b610156366004610966565b610312565b604051610168919061097e565b60405180910390f35b61018461017f36600461088f565b61033c565b6040516101689291906109bc565b6101a56101a036600461088f565b610361565b6040516101689190610b74565b6101846101c036600461091d565b610383565b6101336103c9565b6101336101db366004610966565b6103dd565b6101336101ee36600461088f565b610411565b61015b610440565b61020e61020936600461088f565b61044f565b60405161016891906109d5565b6101a56102293660046108b0565b61046d565b61020e61023c36600461088f565b61048a565b61013361024f3660046108e2565b61049f565b61013361026236600461088f565b61057e565b61020e61027536600461088f565b61066e565b61013361028836600461088f565b610683565b6001600160a01b03166000908152600560205260409020805460ff19166001179055565b6102ba3361044f565b156102e05760405162461bcd60e51b81526004016102d790610b06565b60405180910390fd5b6102e98161044f565b6103055760405162461bcd60e51b81526004016102d790610b3d565b61030f33826106ba565b50565b6007818154811061032257600080fd5b6000918252602090912001546001600160a01b0316905081565b600260205260009081526040902080546001909101546001600160a01b039091169082565b6001600160a01b0381166000908152600260205260409020600101545b919050565b6003602052816000526040600020818154811061039f57600080fd5b6000918252602090912060029091020180546001909101546001600160a01b039091169250905082565b6103d16107d8565b6103db6000610817565b565b6001546040518291907f8db755431f830f14c9b08f25b8ea03bdc42a1fac02d653a068489c35a0b7ffc790600090a3600155565b6006805473ffffffffffffffffffffffffffffffffffffffff19166001600160a01b0392909216919091179055565b6000546001600160a01b031690565b6001600160a01b031660009081526008602052604090205460ff1690565b600460209081526000928352604080842090915290825290205481565b60056020526000908152604090205460ff1681565b6001600160a01b03808316600090815260026020908152604080832081518083018352815490951685526001015484830152338352600590915290205460ff166104fb5760405162461bcd60e51b81526004016102d790610a3d565b6001600160a01b038085166000908152600460209081526040808320855190941683529290529081208054849290610534908490610b7d565b909155505080516040517f92b13198d64dc2a4b4268851ed502dbfea927cbb10fb08fccefa0e43c7007f4d916105709186919033908790610992565b60405180910390a150505050565b6001600160a01b0381166000818152600460208181526040808420338086529252928390205492517fa9059cbb00000000000000000000000000000000000000000000000000000000815263a9059cbb936105db939091016109bc565b602060405180830381600087803b1580156105f557600080fd5b505af1158015610609573d6000803e3d6000fd5b505050506040513d601f19601f8201168201806040525081019061062d9190610946565b6106495760405162461bcd60e51b81526004016102d790610a9a565b6001600160a01b03166000908152600460209081526040808320338452909152812055565b60086020526000908152604090205460ff1681565b61068b6107d8565b6001600160a01b0381166106b15760405162461bcd60e51b81526004016102d7906109e0565b61030f81610817565b6007805460018181019092557fa66cc928b5edb82af9bd49922954155ab7b0942694bea4ce44661d9a8736c6880180546001600160a01b0380861673ffffffffffffffffffffffffffffffffffffffff1992831681179093556000838152600860209081526040808320805460ff191688179055805180820182528885168082528854828501908152888652600280865284872093518454908916908a161784559051928a019290925580855260038452828520835180850185528981528a548187019081528254808d0184559288529587209051919093029092018054929096169190961617845590519290950191909155925190927fb1a51db29d2bc7ad3182bd9f7909094c0dfddf3b0fb5708039638f307e95903491a35050565b6107e0610874565b6001600160a01b03166107f1610440565b6001600160a01b0316146103db5760405162461bcd60e51b81526004016102d790610ad1565b600080546001600160a01b0383811673ffffffffffffffffffffffffffffffffffffffff19831681178455604051919092169283917f8be0079c531659141344cd1fd0a4f28419497f9722a3daafe3b4186f6b6457e09190a35050565b3390565b80356001600160a01b038116811461037e57600080fd5b6000602082840312156108a0578081fd5b6108a982610878565b9392505050565b600080604083850312156108c2578081fd5b6108cb83610878565b91506108d960208401610878565b90509250929050565b6000806000606084860312156108f6578081fd5b6108ff84610878565b925061090d60208501610878565b9150604084013590509250925092565b6000806040838503121561092f578182fd5b61093883610878565b946020939093013593505050565b600060208284031215610957578081fd5b815180151581146108a9578182fd5b600060208284031215610977578081fd5b5035919050565b6001600160a01b0391909116815260200190565b6001600160a01b039485168152928416602084015292166040820152606081019190915260800190565b6001600160a01b03929092168252602082015260400190565b901515815260200190565b60208082526026908201527f4f776e61626c653a206e6577206f776e657220697320746865207a65726f206160408201527f6464726573730000000000000000000000000000000000000000000000000000606082015260800190565b60208082526036908201527f7265636965766552657761726446726f6d5265666572616c566963746f72793a60408201527f20796f7520617265206e6f742061206c6f747465727900000000000000000000606082015260800190565b6020808252601b908201527f636c61696d5265776172643a207472616e73666572206661696c640000000000604082015260600190565b6020808252818101527f4f776e61626c653a2063616c6c6572206973206e6f7420746865206f776e6572604082015260600190565b6020808252601a908201527f5061727469636970616e7420616c726561647920657869737421000000000000604082015260600190565b60208082526012908201527f52656665726572206e6f7420666f756e64210000000000000000000000000000604082015260600190565b90815260200190565b60008219821115610bb5577f4e487b710000000000000000000000000000000000000000000000000000000081526011600452602481fd5b50019056fea2646970667358221220ded74dc8c7e16f36e97f77512de9e1b1ab6f7d24ef5dcdca1576a54e74663ad564736f6c63430008000033",
  "linkReferences": {},
  "deployedLinkReferences": {}
}