{
  "_format": "hh-sol-artifact-1",
  "contractName": "FrogReferal",
  "sourceName": "contracts/FrogReferal.sol",
  "abi": [
    {
      "inputs": [
        {
          "internalType": "address",
          "name": "_beneficiary",
          "type": "address"
        }
      ],
      "stateMutability": "nonpayable",
      "type": "constructor"
    },
    {
      "anonymous": false,
      "inputs": [
        {
          "indexed": true,
          "internalType": "address",
          "name": "_newParticipant",
          "type": "address"
        },
        {
          "indexed": true,
          "internalType": "address",
          "name": "_referer",
          "type": "address"
        }
      ],
      "name": "NewParticipant",
      "type": "event"
    },
    {
      "anonymous": false,
      "inputs": [
        {
          "indexed": true,
          "internalType": "address",
          "name": "previousOwner",
          "type": "address"
        },
        {
          "indexed": true,
          "internalType": "address",
          "name": "newOwner",
          "type": "address"
        }
      ],
      "name": "OwnershipTransferred",
      "type": "event"
    },
    {
      "anonymous": false,
      "inputs": [
        {
          "indexed": true,
          "internalType": "uint256",
          "name": "_oldFeePercent",
          "type": "uint256"
        },
        {
          "indexed": true,
          "internalType": "uint256",
          "name": "_newFeePercent",
          "type": "uint256"
        }
      ],
      "name": "PercentChanged",
      "type": "event"
    },
    {
      "anonymous": false,
      "inputs": [
        {
          "indexed": false,
          "internalType": "address",
          "name": "from",
          "type": "address"
        },
        {
          "indexed": false,
          "internalType": "address",
          "name": "to",
          "type": "address"
        },
        {
          "indexed": false,
          "internalType": "address",
          "name": "lotteryAddress",
          "type": "address"
        },
        {
          "indexed": false,
          "internalType": "uint256",
          "name": "reward",
          "type": "uint256"
        }
      ],
      "name": "ReferalReward",
      "type": "event"
    },
    {
      "inputs": [
        {
          "internalType": "address",
          "name": "_referer",
          "type": "address"
        }
      ],
      "name": "add",
      "outputs": [],
      "stateMutability": "nonpayable",
      "type": "function"
    },
    {
      "inputs": [
        {
          "internalType": "address",
          "name": "",
          "type": "address"
        }
      ],
      "name": "alreadyParticipant",
      "outputs": [
        {
          "internalType": "bool",
          "name": "",
          "type": "bool"
        }
      ],
      "stateMutability": "view",
      "type": "function"
    },
    {
      "inputs": [
        {
          "internalType": "address",
          "name": "",
          "type": "address"
        },
        {
          "internalType": "address",
          "name": "",
          "type": "address"
        }
      ],
      "name": "balance",
      "outputs": [
        {
          "internalType": "uint256",
          "name": "",
          "type": "uint256"
        }
      ],
      "stateMutability": "view",
      "type": "function"
    },
    {
      "inputs": [],
      "name": "beneficiary",
      "outputs": [
        {
          "internalType": "address",
          "name": "",
          "type": "address"
        }
      ],
      "stateMutability": "view",
      "type": "function"
    },
    {
      "inputs": [
        {
          "internalType": "address",
          "name": "token",
          "type": "address"
        }
      ],
      "name": "claimReward",
      "outputs": [],
      "stateMutability": "nonpayable",
      "type": "function"
    },
    {
      "inputs": [
        {
          "internalType": "address",
          "name": "referal",
          "type": "address"
        }
      ],
      "name": "getReferalPercent",
      "outputs": [
        {
          "internalType": "uint256",
          "name": "",
          "type": "uint256"
        }
      ],
      "stateMutability": "view",
      "type": "function"
    },
    {
      "inputs": [
        {
          "internalType": "address",
          "name": "",
          "type": "address"
        }
      ],
      "name": "isLottery",
      "outputs": [
        {
          "internalType": "bool",
          "name": "",
          "type": "bool"
        }
      ],
      "stateMutability": "view",
      "type": "function"
    },
    {
      "inputs": [
        {
          "internalType": "address",
          "name": "_participant",
          "type": "address"
        }
      ],
      "name": "isParticipant",
      "outputs": [
        {
          "internalType": "bool",
          "name": "",
          "type": "bool"
        }
      ],
      "stateMutability": "view",
      "type": "function"
    },
    {
      "inputs": [],
      "name": "owner",
      "outputs": [
        {
          "internalType": "address",
          "name": "",
          "type": "address"
        }
      ],
      "stateMutability": "view",
      "type": "function"
    },
    {
      "inputs": [
        {
          "internalType": "uint256",
          "name": "",
          "type": "uint256"
        }
      ],
      "name": "participants",
      "outputs": [
        {
          "internalType": "address",
          "name": "",
          "type": "address"
        }
      ],
      "stateMutability": "view",
      "type": "function"
    },
    {
      "inputs": [
        {
          "internalType": "address",
          "name": "token",
          "type": "address"
        },
        {
          "internalType": "address",
          "name": "referal",
          "type": "address"
        },
        {
          "internalType": "uint256",
          "name": "reward",
          "type": "uint256"
        }
      ],
      "name": "recieveRewardFromReferalVictory",
      "outputs": [],
      "stateMutability": "nonpayable",
      "type": "function"
    },
    {
      "inputs": [
        {
          "internalType": "address",
          "name": "",
          "type": "address"
        },
        {
          "internalType": "uint256",
          "name": "",
          "type": "uint256"
        }
      ],
      "name": "referalsOf",
      "outputs": [
        {
          "internalType": "address",
          "name": "participant",
          "type": "address"
        },
        {
          "internalType": "uint256",
          "name": "percent",
          "type": "uint256"
        }
      ],
      "stateMutability": "view",
      "type": "function"
    },
    {
      "inputs": [
        {
          "internalType": "address",
          "name": "",
          "type": "address"
        }
      ],
      "name": "refererOf",
      "outputs": [
        {
          "internalType": "address",
          "name": "participant",
          "type": "address"
        },
        {
          "internalType": "uint256",
          "name": "percent",
          "type": "uint256"
        }
      ],
      "stateMutability": "view",
      "type": "function"
    },
    {
      "inputs": [
        {
          "internalType": "address",
          "name": "newLotteryAddress",
          "type": "address"
        }
      ],
      "name": "registerNewLottery",
      "outputs": [],
      "stateMutability": "nonpayable",
      "type": "function"
    },
    {
      "inputs": [],
      "name": "renounceOwnership",
      "outputs": [],
      "stateMutability": "nonpayable",
      "type": "function"
    },
    {
      "inputs": [
        {
          "internalType": "address",
          "name": "_newBeneficiary",
          "type": "address"
        }
      ],
      "name": "setBeneficiary",
      "outputs": [],
      "stateMutability": "nonpayable",
      "type": "function"
    },
    {
      "inputs": [
        {
          "internalType": "address",
          "name": "factory",
          "type": "address"
        }
      ],
      "name": "setFactoryAddress",
      "outputs": [],
      "stateMutability": "nonpayable",
      "type": "function"
    },
    {
      "inputs": [
        {
          "internalType": "uint256",
          "name": "_percent",
          "type": "uint256"
        }
      ],
      "name": "setPercent",
      "outputs": [],
      "stateMutability": "nonpayable",
      "type": "function"
    },
    {
      "inputs": [
        {
          "internalType": "address",
          "name": "newOwner",
          "type": "address"
        }
      ],
      "name": "transferOwnership",
      "outputs": [],
      "stateMutability": "nonpayable",
      "type": "function"
    }
  ],
  "bytecode": "0x60806040523480156200001157600080fd5b50604051620021fd380380620021fd8339818101604052810190620000379190620005a4565b620000576200004b620000c460201b60201c565b620000cc60201b60201c565b80600260006101000a81548173ffffffffffffffffffffffffffffffffffffffff021916908373ffffffffffffffffffffffffffffffffffffffff160217905550620000aa60036200019060201b60201c565b620000bd816000620002a360201b60201c565b50620006c7565b600033905090565b60008060009054906101000a900473ffffffffffffffffffffffffffffffffffffffff169050816000806101000a81548173ffffffffffffffffffffffffffffffffffffffff021916908373ffffffffffffffffffffffffffffffffffffffff1602179055508173ffffffffffffffffffffffffffffffffffffffff168173ffffffffffffffffffffffffffffffffffffffff167f8be0079c531659141344cd1fd0a4f28419497f9722a3daafe3b4186f6b6457e060405160405180910390a35050565b620001a06200056460201b60201c565b73ffffffffffffffffffffffffffffffffffffffff163373ffffffffffffffffffffffffffffffffffffffff161480620002275750600260009054906101000a900473ffffffffffffffffffffffffffffffffffffffff1673ffffffffffffffffffffffffffffffffffffffff163373ffffffffffffffffffffffffffffffffffffffff16145b62000269576040517f08c379a00000000000000000000000000000000000000000000000000000000081526004016200026090620005f7565b60405180910390fd5b806001547f8db755431f830f14c9b08f25b8ea03bdc42a1fac02d653a068489c35a0b7ffc760405160405180910390a38060018190555050565b6008829080600181540180825580915050600190039060005260206000200160009091909190916101000a81548173ffffffffffffffffffffffffffffffffffffffff021916908373ffffffffffffffffffffffffffffffffffffffff1602179055506001600960008473ffffffffffffffffffffffffffffffffffffffff1673ffffffffffffffffffffffffffffffffffffffff16815260200190815260200160002060006101000a81548160ff02191690831515021790555060405180604001604052808273ffffffffffffffffffffffffffffffffffffffff168152602001600154815250600360008473ffffffffffffffffffffffffffffffffffffffff1673ffffffffffffffffffffffffffffffffffffffff16815260200190815260200160002060008201518160000160006101000a81548173ffffffffffffffffffffffffffffffffffffffff021916908373ffffffffffffffffffffffffffffffffffffffff16021790555060208201518160010155905050600460008273ffffffffffffffffffffffffffffffffffffffff1673ffffffffffffffffffffffffffffffffffffffff16815260200190815260200160002060405180604001604052808473ffffffffffffffffffffffffffffffffffffffff168152602001600154815250908060018154018082558091505060019003906000526020600020906002020160009091909190915060008201518160000160006101000a81548173ffffffffffffffffffffffffffffffffffffffff021916908373ffffffffffffffffffffffffffffffffffffffff1602179055506020820151816001015550508073ffffffffffffffffffffffffffffffffffffffff168273ffffffffffffffffffffffffffffffffffffffff167fb1a51db29d2bc7ad3182bd9f7909094c0dfddf3b0fb5708039638f307e95903460405160405180910390a35050565b60008060009054906101000a900473ffffffffffffffffffffffffffffffffffffffff16905090565b6000815190506200059e81620006ad565b92915050565b600060208284031215620005b757600080fd5b6000620005c7848285016200058d565b91505092915050565b6000620005df60228362000619565b9150620005ec826200065e565b604082019050919050565b600060208201905081810360008301526200061281620005d0565b9050919050565b600082825260208201905092915050565b600062000637826200063e565b9050919050565b600073ffffffffffffffffffffffffffffffffffffffff82169050919050565b7f43616c6c6572206973206e6f742062656e6566696369617279206f72206f776e60008201527f6572000000000000000000000000000000000000000000000000000000000000602082015250565b620006b8816200062a565b8114620006c457600080fd5b50565b611b2680620006d76000396000f3fe608060405234801561001057600080fd5b50600436106101215760003560e01c80637154b8b5116100ad578063be34545311610071578063be3454531461031a578063cadafe141461034a578063d279c19114610366578063dde7cd5114610382578063f2fde38b146103b257610121565b80637154b8b51461026457806383c17c55146102805780638da5cb5b1461029c578063929066f5146102ba578063b203bb99146102ea57610121565b806338af3eed116100f457806338af3eed146101aa578063393319a8146101c85780633d137386146101f95780635db4825b14610229578063715018a61461025a57610121565b806301e1db32146101265780630a3b0a4f146101425780631c31f7101461015e57806335c1d3491461017a575b600080fd5b610140600480360381019061013b9190611381565b6103ce565b005b61015c60048036038101906101579190611381565b6104b9565b005b61017860048036038101906101739190611381565b610557565b005b610194600480360381019061018f919061149a565b610668565b6040516101a19190611608565b60405180910390f35b6101b26106a7565b6040516101bf9190611608565b60405180910390f35b6101e260048036038101906101dd9190611381565b6106cd565b6040516101f0929190611668565b60405180910390f35b610213600480360381019061020e9190611381565b610711565b60405161022091906117ac565b60405180910390f35b610243600480360381019061023e9190611435565b61075d565b604051610251929190611668565b60405180910390f35b6102626107be565b005b61027e6004803603810190610279919061149a565b6107d2565b005b61029a60048036038101906102959190611381565b6108d9565b005b6102a46109ea565b6040516102b19190611608565b60405180910390f35b6102d460048036038101906102cf9190611381565b610a13565b6040516102e19190611691565b60405180910390f35b61030460048036038101906102ff91906113aa565b610a69565b60405161031191906117ac565b60405180910390f35b610334600480360381019061032f9190611381565b610a8e565b6040516103419190611691565b60405180910390f35b610364600480360381019061035f91906113e6565b610aae565b005b610380600480360381019061037b9190611381565b610cc6565b005b61039c60048036038101906103979190611381565b610e93565b6040516103a99190611691565b60405180910390f35b6103cc60048036038101906103c79190611381565b610eb3565b005b3373ffffffffffffffffffffffffffffffffffffffff16600760009054906101000a900473ffffffffffffffffffffffffffffffffffffffff1673ffffffffffffffffffffffffffffffffffffffff161461045e576040517f08c379a00000000000000000000000000000000000000000000000000000000081526004016104559061176c565b60405180910390fd5b6001600660008373ffffffffffffffffffffffffffffffffffffffff1673ffffffffffffffffffffffffffffffffffffffff16815260200190815260200160002060006101000a81548160ff02191690831515021790555050565b6104c233610a13565b15610502576040517f08c379a00000000000000000000000000000000000000000000000000000000081526004016104f99061174c565b60405180910390fd5b61050b81610a13565b61054a576040517f08c379a00000000000000000000000000000000000000000000000000000000081526004016105419061178c565b60405180910390fd5b6105543382610f37565b50565b61055f6109ea565b73ffffffffffffffffffffffffffffffffffffffff163373ffffffffffffffffffffffffffffffffffffffff1614806105e55750600260009054906101000a900473ffffffffffffffffffffffffffffffffffffffff1673ffffffffffffffffffffffffffffffffffffffff163373ffffffffffffffffffffffffffffffffffffffff16145b610624576040517f08c379a000000000000000000000000000000000000000000000000000000000815260040161061b9061170c565b60405180910390fd5b80600260006101000a81548173ffffffffffffffffffffffffffffffffffffffff021916908373ffffffffffffffffffffffffffffffffffffffff16021790555050565b6008818154811061067857600080fd5b906000526020600020016000915054906101000a900473ffffffffffffffffffffffffffffffffffffffff1681565b600260009054906101000a900473ffffffffffffffffffffffffffffffffffffffff1681565b60036020528060005260406000206000915090508060000160009054906101000a900473ffffffffffffffffffffffffffffffffffffffff16908060010154905082565b6000600360008373ffffffffffffffffffffffffffffffffffffffff1673ffffffffffffffffffffffffffffffffffffffff168152602001908152602001600020600101549050919050565b6004602052816000526040600020818154811061077957600080fd5b9060005260206000209060020201600091509150508060000160009054906101000a900473ffffffffffffffffffffffffffffffffffffffff16908060010154905082565b6107c66111f8565b6107d06000611276565b565b6107da6109ea565b73ffffffffffffffffffffffffffffffffffffffff163373ffffffffffffffffffffffffffffffffffffffff1614806108605750600260009054906101000a900473ffffffffffffffffffffffffffffffffffffffff1673ffffffffffffffffffffffffffffffffffffffff163373ffffffffffffffffffffffffffffffffffffffff16145b61089f576040517f08c379a00000000000000000000000000000000000000000000000000000000081526004016108969061170c565b60405180910390fd5b806001547f8db755431f830f14c9b08f25b8ea03bdc42a1fac02d653a068489c35a0b7ffc760405160405180910390a38060018190555050565b6108e16109ea565b73ffffffffffffffffffffffffffffffffffffffff163373ffffffffffffffffffffffffffffffffffffffff1614806109675750600260009054906101000a900473ffffffffffffffffffffffffffffffffffffffff1673ffffffffffffffffffffffffffffffffffffffff163373ffffffffffffffffffffffffffffffffffffffff16145b6109a6576040517f08c379a000000000000000000000000000000000000000000000000000000000815260040161099d9061170c565b60405180910390fd5b80600760006101000a81548173ffffffffffffffffffffffffffffffffffffffff021916908373ffffffffffffffffffffffffffffffffffffffff16021790555050565b60008060009054906101000a900473ffffffffffffffffffffffffffffffffffffffff16905090565b6000600960008373ffffffffffffffffffffffffffffffffffffffff1673ffffffffffffffffffffffffffffffffffffffff16815260200190815260200160002060009054906101000a900460ff169050919050565b6005602052816000526040600020602052806000526040600020600091509150505481565b60066020528060005260406000206000915054906101000a900460ff1681565b6000600360008473ffffffffffffffffffffffffffffffffffffffff1673ffffffffffffffffffffffffffffffffffffffff1681526020019081526020016000206040518060400160405290816000820160009054906101000a900473ffffffffffffffffffffffffffffffffffffffff1673ffffffffffffffffffffffffffffffffffffffff1673ffffffffffffffffffffffffffffffffffffffff1681526020016001820154815250509050600660003373ffffffffffffffffffffffffffffffffffffffff1673ffffffffffffffffffffffffffffffffffffffff16815260200190815260200160002060009054906101000a900460ff16610be8576040517f08c379a0000000000000000000000000000000000000000000000000000000008152600401610bdf906116cc565b60405180910390fd5b81600560008673ffffffffffffffffffffffffffffffffffffffff1673ffffffffffffffffffffffffffffffffffffffff1681526020019081526020016000206000836000015173ffffffffffffffffffffffffffffffffffffffff1673ffffffffffffffffffffffffffffffffffffffff1681526020019081526020016000206000828254610c7891906117d8565b925050819055507f92b13198d64dc2a4b4268851ed502dbfea927cbb10fb08fccefa0e43c7007f4d8382600001513385604051610cb89493929190611623565b60405180910390a150505050565b8073ffffffffffffffffffffffffffffffffffffffff1663a9059cbb33600560008573ffffffffffffffffffffffffffffffffffffffff1673ffffffffffffffffffffffffffffffffffffffff16815260200190815260200160002060003373ffffffffffffffffffffffffffffffffffffffff1673ffffffffffffffffffffffffffffffffffffffff168152602001908152602001600020546040518363ffffffff1660e01b8152600401610d7d929190611668565b602060405180830381600087803b158015610d9757600080fd5b505af1158015610dab573d6000803e3d6000fd5b505050506040513d601f19601f82011682018060405250810190610dcf9190611471565b610e0e576040517f08c379a0000000000000000000000000000000000000000000000000000000008152600401610e05906116ec565b60405180910390fd5b6000600560008373ffffffffffffffffffffffffffffffffffffffff1673ffffffffffffffffffffffffffffffffffffffff16815260200190815260200160002060003373ffffffffffffffffffffffffffffffffffffffff1673ffffffffffffffffffffffffffffffffffffffff1681526020019081526020016000208190555050565b60096020528060005260406000206000915054906101000a900460ff1681565b610ebb6111f8565b600073ffffffffffffffffffffffffffffffffffffffff168173ffffffffffffffffffffffffffffffffffffffff161415610f2b576040517f08c379a0000000000000000000000000000000000000000000000000000000008152600401610f22906116ac565b60405180910390fd5b610f3481611276565b50565b6008829080600181540180825580915050600190039060005260206000200160009091909190916101000a81548173ffffffffffffffffffffffffffffffffffffffff021916908373ffffffffffffffffffffffffffffffffffffffff1602179055506001600960008473ffffffffffffffffffffffffffffffffffffffff1673ffffffffffffffffffffffffffffffffffffffff16815260200190815260200160002060006101000a81548160ff02191690831515021790555060405180604001604052808273ffffffffffffffffffffffffffffffffffffffff168152602001600154815250600360008473ffffffffffffffffffffffffffffffffffffffff1673ffffffffffffffffffffffffffffffffffffffff16815260200190815260200160002060008201518160000160006101000a81548173ffffffffffffffffffffffffffffffffffffffff021916908373ffffffffffffffffffffffffffffffffffffffff16021790555060208201518160010155905050600460008273ffffffffffffffffffffffffffffffffffffffff1673ffffffffffffffffffffffffffffffffffffffff16815260200190815260200160002060405180604001604052808473ffffffffffffffffffffffffffffffffffffffff168152602001600154815250908060018154018082558091505060019003906000526020600020906002020160009091909190915060008201518160000160006101000a81548173ffffffffffffffffffffffffffffffffffffffff021916908373ffffffffffffffffffffffffffffffffffffffff1602179055506020820151816001015550508073ffffffffffffffffffffffffffffffffffffffff168273ffffffffffffffffffffffffffffffffffffffff167fb1a51db29d2bc7ad3182bd9f7909094c0dfddf3b0fb5708039638f307e95903460405160405180910390a35050565b61120061133a565b73ffffffffffffffffffffffffffffffffffffffff1661121e6109ea565b73ffffffffffffffffffffffffffffffffffffffff1614611274576040517f08c379a000000000000000000000000000000000000000000000000000000000815260040161126b9061172c565b60405180910390fd5b565b60008060009054906101000a900473ffffffffffffffffffffffffffffffffffffffff169050816000806101000a81548173ffffffffffffffffffffffffffffffffffffffff021916908373ffffffffffffffffffffffffffffffffffffffff1602179055508173ffffffffffffffffffffffffffffffffffffffff168173ffffffffffffffffffffffffffffffffffffffff167f8be0079c531659141344cd1fd0a4f28419497f9722a3daafe3b4186f6b6457e060405160405180910390a35050565b600033905090565b60008135905061135181611aab565b92915050565b60008151905061136681611ac2565b92915050565b60008135905061137b81611ad9565b92915050565b60006020828403121561139357600080fd5b60006113a184828501611342565b91505092915050565b600080604083850312156113bd57600080fd5b60006113cb85828601611342565b92505060206113dc85828601611342565b9150509250929050565b6000806000606084860312156113fb57600080fd5b600061140986828701611342565b935050602061141a86828701611342565b925050604061142b8682870161136c565b9150509250925092565b6000806040838503121561144857600080fd5b600061145685828601611342565b92505060206114678582860161136c565b9150509250929050565b60006020828403121561148357600080fd5b600061149184828501611357565b91505092915050565b6000602082840312156114ac57600080fd5b60006114ba8482850161136c565b91505092915050565b6114cc8161182e565b82525050565b6114db81611840565b82525050565b60006114ee6026836117c7565b91506114f9826118a5565b604082019050919050565b60006115116036836117c7565b915061151c826118f4565b604082019050919050565b6000611534601b836117c7565b915061153f82611943565b602082019050919050565b60006115576022836117c7565b91506115628261196c565b604082019050919050565b600061157a6020836117c7565b9150611585826119bb565b602082019050919050565b600061159d601a836117c7565b91506115a8826119e4565b602082019050919050565b60006115c06041836117c7565b91506115cb82611a0d565b606082019050919050565b60006115e36012836117c7565b91506115ee82611a82565b602082019050919050565b6116028161186c565b82525050565b600060208201905061161d60008301846114c3565b92915050565b600060808201905061163860008301876114c3565b61164560208301866114c3565b61165260408301856114c3565b61165f60608301846115f9565b95945050505050565b600060408201905061167d60008301856114c3565b61168a60208301846115f9565b9392505050565b60006020820190506116a660008301846114d2565b92915050565b600060208201905081810360008301526116c5816114e1565b9050919050565b600060208201905081810360008301526116e581611504565b9050919050565b6000602082019050818103600083015261170581611527565b9050919050565b600060208201905081810360008301526117258161154a565b9050919050565b600060208201905081810360008301526117458161156d565b9050919050565b6000602082019050818103600083015261176581611590565b9050919050565b60006020820190508181036000830152611785816115b3565b9050919050565b600060208201905081810360008301526117a5816115d6565b9050919050565b60006020820190506117c160008301846115f9565b92915050565b600082825260208201905092915050565b60006117e38261186c565b91506117ee8361186c565b9250827fffffffffffffffffffffffffffffffffffffffffffffffffffffffffffffffff0382111561182357611822611876565b5b828201905092915050565b60006118398261184c565b9050919050565b60008115159050919050565b600073ffffffffffffffffffffffffffffffffffffffff82169050919050565b6000819050919050565b7f4e487b7100000000000000000000000000000000000000000000000000000000600052601160045260246000fd5b7f4f776e61626c653a206e6577206f776e657220697320746865207a65726f206160008201527f6464726573730000000000000000000000000000000000000000000000000000602082015250565b7f7265636965766552657761726446726f6d5265666572616c566963746f72793a60008201527f20796f7520617265206e6f742061206c6f747465727900000000000000000000602082015250565b7f636c61696d5265776172643a207472616e73666572206661696c640000000000600082015250565b7f43616c6c6572206973206e6f742062656e6566696369617279206f72206f776e60008201527f6572000000000000000000000000000000000000000000000000000000000000602082015250565b7f4f776e61626c653a2063616c6c6572206973206e6f7420746865206f776e6572600082015250565b7f5061727469636970616e7420616c726561647920657869737421000000000000600082015250565b7f72656769737465724e65774c6f74746572793a20796f7520617265206e6f742060008201527f616c6c6f77656420746f207265676973746572206e6577206c6f74746572696560208201527f7300000000000000000000000000000000000000000000000000000000000000604082015250565b7f52656665726572206e6f7420666f756e64210000000000000000000000000000600082015250565b611ab48161182e565b8114611abf57600080fd5b50565b611acb81611840565b8114611ad657600080fd5b50565b611ae28161186c565b8114611aed57600080fd5b5056fea2646970667358221220e22780e438eaa78975e610c3089432be3eea04ca64ac51a32a5512b8ee5fb15b64736f6c63430008010033",
  "linkReferences": {},
  "deployedLinkReferences": {}
}