{
  "_format": "hh-sol-artifact-1",
  "contractName": "TimelockController",
  "sourceName": "contracts/@openzeppelin/contracts/access/TimelockController.sol",
  "abi": [
    {
      "inputs": [
        {
          "internalType": "uint256",
          "name": "minDelay",
          "type": "uint256"
        },
        {
          "internalType": "address[]",
          "name": "proposers",
          "type": "address[]"
        },
        {
          "internalType": "address[]",
          "name": "executors",
          "type": "address[]"
        }
      ],
      "stateMutability": "nonpayable",
      "type": "constructor"
    },
    {
      "anonymous": false,
      "inputs": [
        {
          "indexed": true,
          "internalType": "bytes32",
          "name": "id",
          "type": "bytes32"
        },
        {
          "indexed": true,
          "internalType": "uint256",
          "name": "index",
          "type": "uint256"
        },
        {
          "indexed": false,
          "internalType": "address",
          "name": "target",
          "type": "address"
        },
        {
          "indexed": false,
          "internalType": "uint256",
          "name": "value",
          "type": "uint256"
        },
        {
          "indexed": false,
          "internalType": "bytes",
          "name": "data",
          "type": "bytes"
        }
      ],
      "name": "CallExecuted",
      "type": "event"
    },
    {
      "anonymous": false,
      "inputs": [
        {
          "indexed": true,
          "internalType": "bytes32",
          "name": "id",
          "type": "bytes32"
        },
        {
          "indexed": true,
          "internalType": "uint256",
          "name": "index",
          "type": "uint256"
        },
        {
          "indexed": false,
          "internalType": "address",
          "name": "target",
          "type": "address"
        },
        {
          "indexed": false,
          "internalType": "uint256",
          "name": "value",
          "type": "uint256"
        },
        {
          "indexed": false,
          "internalType": "bytes",
          "name": "data",
          "type": "bytes"
        },
        {
          "indexed": false,
          "internalType": "bytes32",
          "name": "predecessor",
          "type": "bytes32"
        },
        {
          "indexed": false,
          "internalType": "uint256",
          "name": "delay",
          "type": "uint256"
        }
      ],
      "name": "CallScheduled",
      "type": "event"
    },
    {
      "anonymous": false,
      "inputs": [
        {
          "indexed": true,
          "internalType": "bytes32",
          "name": "id",
          "type": "bytes32"
        }
      ],
      "name": "Cancelled",
      "type": "event"
    },
    {
      "anonymous": false,
      "inputs": [
        {
          "indexed": false,
          "internalType": "uint256",
          "name": "oldDuration",
          "type": "uint256"
        },
        {
          "indexed": false,
          "internalType": "uint256",
          "name": "newDuration",
          "type": "uint256"
        }
      ],
      "name": "MinDelayChange",
      "type": "event"
    },
    {
      "anonymous": false,
      "inputs": [
        {
          "indexed": true,
          "internalType": "bytes32",
          "name": "role",
          "type": "bytes32"
        },
        {
          "indexed": true,
          "internalType": "bytes32",
          "name": "previousAdminRole",
          "type": "bytes32"
        },
        {
          "indexed": true,
          "internalType": "bytes32",
          "name": "newAdminRole",
          "type": "bytes32"
        }
      ],
      "name": "RoleAdminChanged",
      "type": "event"
    },
    {
      "anonymous": false,
      "inputs": [
        {
          "indexed": true,
          "internalType": "bytes32",
          "name": "role",
          "type": "bytes32"
        },
        {
          "indexed": true,
          "internalType": "address",
          "name": "account",
          "type": "address"
        },
        {
          "indexed": true,
          "internalType": "address",
          "name": "sender",
          "type": "address"
        }
      ],
      "name": "RoleGranted",
      "type": "event"
    },
    {
      "anonymous": false,
      "inputs": [
        {
          "indexed": true,
          "internalType": "bytes32",
          "name": "role",
          "type": "bytes32"
        },
        {
          "indexed": true,
          "internalType": "address",
          "name": "account",
          "type": "address"
        },
        {
          "indexed": true,
          "internalType": "address",
          "name": "sender",
          "type": "address"
        }
      ],
      "name": "RoleRevoked",
      "type": "event"
    },
    {
      "inputs": [],
      "name": "DEFAULT_ADMIN_ROLE",
      "outputs": [
        {
          "internalType": "bytes32",
          "name": "",
          "type": "bytes32"
        }
      ],
      "stateMutability": "view",
      "type": "function"
    },
    {
      "inputs": [],
      "name": "EXECUTOR_ROLE",
      "outputs": [
        {
          "internalType": "bytes32",
          "name": "",
          "type": "bytes32"
        }
      ],
      "stateMutability": "view",
      "type": "function"
    },
    {
      "inputs": [],
      "name": "PROPOSER_ROLE",
      "outputs": [
        {
          "internalType": "bytes32",
          "name": "",
          "type": "bytes32"
        }
      ],
      "stateMutability": "view",
      "type": "function"
    },
    {
      "inputs": [],
      "name": "TIMELOCK_ADMIN_ROLE",
      "outputs": [
        {
          "internalType": "bytes32",
          "name": "",
          "type": "bytes32"
        }
      ],
      "stateMutability": "view",
      "type": "function"
    },
    {
      "inputs": [
        {
          "internalType": "bytes32",
          "name": "id",
          "type": "bytes32"
        }
      ],
      "name": "cancel",
      "outputs": [],
      "stateMutability": "nonpayable",
      "type": "function"
    },
    {
      "inputs": [
        {
          "internalType": "address",
          "name": "target",
          "type": "address"
        },
        {
          "internalType": "uint256",
          "name": "value",
          "type": "uint256"
        },
        {
          "internalType": "bytes",
          "name": "data",
          "type": "bytes"
        },
        {
          "internalType": "bytes32",
          "name": "predecessor",
          "type": "bytes32"
        },
        {
          "internalType": "bytes32",
          "name": "salt",
          "type": "bytes32"
        }
      ],
      "name": "execute",
      "outputs": [],
      "stateMutability": "payable",
      "type": "function"
    },
    {
      "inputs": [
        {
          "internalType": "address[]",
          "name": "targets",
          "type": "address[]"
        },
        {
          "internalType": "uint256[]",
          "name": "values",
          "type": "uint256[]"
        },
        {
          "internalType": "bytes[]",
          "name": "datas",
          "type": "bytes[]"
        },
        {
          "internalType": "bytes32",
          "name": "predecessor",
          "type": "bytes32"
        },
        {
          "internalType": "bytes32",
          "name": "salt",
          "type": "bytes32"
        }
      ],
      "name": "executeBatch",
      "outputs": [],
      "stateMutability": "payable",
      "type": "function"
    },
    {
      "inputs": [],
      "name": "getMinDelay",
      "outputs": [
        {
          "internalType": "uint256",
          "name": "duration",
          "type": "uint256"
        }
      ],
      "stateMutability": "view",
      "type": "function"
    },
    {
      "inputs": [
        {
          "internalType": "bytes32",
          "name": "role",
          "type": "bytes32"
        }
      ],
      "name": "getRoleAdmin",
      "outputs": [
        {
          "internalType": "bytes32",
          "name": "",
          "type": "bytes32"
        }
      ],
      "stateMutability": "view",
      "type": "function"
    },
    {
      "inputs": [
        {
          "internalType": "bytes32",
          "name": "role",
          "type": "bytes32"
        },
        {
          "internalType": "uint256",
          "name": "index",
          "type": "uint256"
        }
      ],
      "name": "getRoleMember",
      "outputs": [
        {
          "internalType": "address",
          "name": "",
          "type": "address"
        }
      ],
      "stateMutability": "view",
      "type": "function"
    },
    {
      "inputs": [
        {
          "internalType": "bytes32",
          "name": "role",
          "type": "bytes32"
        }
      ],
      "name": "getRoleMemberCount",
      "outputs": [
        {
          "internalType": "uint256",
          "name": "",
          "type": "uint256"
        }
      ],
      "stateMutability": "view",
      "type": "function"
    },
    {
      "inputs": [
        {
          "internalType": "bytes32",
          "name": "id",
          "type": "bytes32"
        }
      ],
      "name": "getTimestamp",
      "outputs": [
        {
          "internalType": "uint256",
          "name": "timestamp",
          "type": "uint256"
        }
      ],
      "stateMutability": "view",
      "type": "function"
    },
    {
      "inputs": [
        {
          "internalType": "bytes32",
          "name": "role",
          "type": "bytes32"
        },
        {
          "internalType": "address",
          "name": "account",
          "type": "address"
        }
      ],
      "name": "grantRole",
      "outputs": [],
      "stateMutability": "nonpayable",
      "type": "function"
    },
    {
      "inputs": [
        {
          "internalType": "bytes32",
          "name": "role",
          "type": "bytes32"
        },
        {
          "internalType": "address",
          "name": "account",
          "type": "address"
        }
      ],
      "name": "hasRole",
      "outputs": [
        {
          "internalType": "bool",
          "name": "",
          "type": "bool"
        }
      ],
      "stateMutability": "view",
      "type": "function"
    },
    {
      "inputs": [
        {
          "internalType": "address",
          "name": "target",
          "type": "address"
        },
        {
          "internalType": "uint256",
          "name": "value",
          "type": "uint256"
        },
        {
          "internalType": "bytes",
          "name": "data",
          "type": "bytes"
        },
        {
          "internalType": "bytes32",
          "name": "predecessor",
          "type": "bytes32"
        },
        {
          "internalType": "bytes32",
          "name": "salt",
          "type": "bytes32"
        }
      ],
      "name": "hashOperation",
      "outputs": [
        {
          "internalType": "bytes32",
          "name": "hash",
          "type": "bytes32"
        }
      ],
      "stateMutability": "pure",
      "type": "function"
    },
    {
      "inputs": [
        {
          "internalType": "address[]",
          "name": "targets",
          "type": "address[]"
        },
        {
          "internalType": "uint256[]",
          "name": "values",
          "type": "uint256[]"
        },
        {
          "internalType": "bytes[]",
          "name": "datas",
          "type": "bytes[]"
        },
        {
          "internalType": "bytes32",
          "name": "predecessor",
          "type": "bytes32"
        },
        {
          "internalType": "bytes32",
          "name": "salt",
          "type": "bytes32"
        }
      ],
      "name": "hashOperationBatch",
      "outputs": [
        {
          "internalType": "bytes32",
          "name": "hash",
          "type": "bytes32"
        }
      ],
      "stateMutability": "pure",
      "type": "function"
    },
    {
      "inputs": [
        {
          "internalType": "bytes32",
          "name": "id",
          "type": "bytes32"
        }
      ],
      "name": "isOperation",
      "outputs": [
        {
          "internalType": "bool",
          "name": "pending",
          "type": "bool"
        }
      ],
      "stateMutability": "view",
      "type": "function"
    },
    {
      "inputs": [
        {
          "internalType": "bytes32",
          "name": "id",
          "type": "bytes32"
        }
      ],
      "name": "isOperationDone",
      "outputs": [
        {
          "internalType": "bool",
          "name": "done",
          "type": "bool"
        }
      ],
      "stateMutability": "view",
      "type": "function"
    },
    {
      "inputs": [
        {
          "internalType": "bytes32",
          "name": "id",
          "type": "bytes32"
        }
      ],
      "name": "isOperationPending",
      "outputs": [
        {
          "internalType": "bool",
          "name": "pending",
          "type": "bool"
        }
      ],
      "stateMutability": "view",
      "type": "function"
    },
    {
      "inputs": [
        {
          "internalType": "bytes32",
          "name": "id",
          "type": "bytes32"
        }
      ],
      "name": "isOperationReady",
      "outputs": [
        {
          "internalType": "bool",
          "name": "ready",
          "type": "bool"
        }
      ],
      "stateMutability": "view",
      "type": "function"
    },
    {
      "inputs": [
        {
          "internalType": "bytes32",
          "name": "role",
          "type": "bytes32"
        },
        {
          "internalType": "address",
          "name": "account",
          "type": "address"
        }
      ],
      "name": "renounceRole",
      "outputs": [],
      "stateMutability": "nonpayable",
      "type": "function"
    },
    {
      "inputs": [
        {
          "internalType": "bytes32",
          "name": "role",
          "type": "bytes32"
        },
        {
          "internalType": "address",
          "name": "account",
          "type": "address"
        }
      ],
      "name": "revokeRole",
      "outputs": [],
      "stateMutability": "nonpayable",
      "type": "function"
    },
    {
      "inputs": [
        {
          "internalType": "address",
          "name": "target",
          "type": "address"
        },
        {
          "internalType": "uint256",
          "name": "value",
          "type": "uint256"
        },
        {
          "internalType": "bytes",
          "name": "data",
          "type": "bytes"
        },
        {
          "internalType": "bytes32",
          "name": "predecessor",
          "type": "bytes32"
        },
        {
          "internalType": "bytes32",
          "name": "salt",
          "type": "bytes32"
        },
        {
          "internalType": "uint256",
          "name": "delay",
          "type": "uint256"
        }
      ],
      "name": "schedule",
      "outputs": [],
      "stateMutability": "nonpayable",
      "type": "function"
    },
    {
      "inputs": [
        {
          "internalType": "address[]",
          "name": "targets",
          "type": "address[]"
        },
        {
          "internalType": "uint256[]",
          "name": "values",
          "type": "uint256[]"
        },
        {
          "internalType": "bytes[]",
          "name": "datas",
          "type": "bytes[]"
        },
        {
          "internalType": "bytes32",
          "name": "predecessor",
          "type": "bytes32"
        },
        {
          "internalType": "bytes32",
          "name": "salt",
          "type": "bytes32"
        },
        {
          "internalType": "uint256",
          "name": "delay",
          "type": "uint256"
        }
      ],
      "name": "scheduleBatch",
      "outputs": [],
      "stateMutability": "nonpayable",
      "type": "function"
    },
    {
      "inputs": [
        {
          "internalType": "uint256",
          "name": "newDelay",
          "type": "uint256"
        }
      ],
      "name": "updateDelay",
      "outputs": [],
      "stateMutability": "nonpayable",
      "type": "function"
    },
    {
      "stateMutability": "payable",
      "type": "receive"
    }
  ],
  "bytecode": "0x60806040523480156200001157600080fd5b506040516200204b3803806200204b8339810160408190526200003491620003ce565b6200004f60008051602062001feb83398151915280620001b1565b620000796000805160206200200b83398151915260008051602062001feb833981519152620001b1565b620000a36000805160206200202b83398151915260008051602062001feb833981519152620001b1565b620000c760008051602062001feb833981519152620000c162000203565b62000207565b620000e260008051602062001feb8339815191523062000207565b60005b82518110156200012d57620001246000805160206200200b8339815191528483815181106200011057fe5b60200260200101516200020760201b60201c565b600101620000e5565b5060005b815181101562000165576200015c6000805160206200202b8339815191528383815181106200011057fe5b60010162000131565b5060028390556040517f11c24f4ead16507c69ac467fbd5e4eed5fb5c699626d2cc6d66421df253886d590620001a09060009086906200043f565b60405180910390a15050506200044d565b600082815260208190526040808220600201549051839285917fbd79b86ffe0ab8e8776151514217cd7cacd52c909f66475c3af44e129f0b00ff9190a460009182526020829052604090912060020155565b3390565b62000213828262000217565b5050565b6000828152602081815260409091206200023c91839062000cb662000290821b17901c565b1562000213576200024c62000203565b6001600160a01b0316816001600160a01b0316837f2f8788117e7eff1d82e926ec794901d17c78024a50270940304540a733656f0d60405160405180910390a45050565b6000620002a7836001600160a01b038416620002b0565b90505b92915050565b6000620002be8383620002ff565b620002f657508154600181810184556000848152602080822090930184905584548482528286019093526040902091909155620002aa565b506000620002aa565b60009081526001919091016020526040902054151590565b80516001600160a01b03811681146200032f57600080fd5b919050565b600082601f83011262000345578081fd5b815160206001600160401b03808311156200035c57fe5b818302604051838282010181811084821117156200037657fe5b6040528481528381019250868401828801850189101562000395578687fd5b8692505b85831015620003c257620003ad8162000317565b84529284019260019290920191840162000399565b50979650505050505050565b600080600060608486031215620003e3578283fd5b835160208501519093506001600160401b038082111562000402578384fd5b620004108783880162000334565b9350604086015191508082111562000426578283fd5b50620004358682870162000334565b9150509250925092565b918252602082015260400190565b611b8e806200045d6000396000f3fe60806040526004361061019a5760003560e01c80638065657f116100e1578063b1c5f4271161008a578063d45c443511610064578063d45c44351461043f578063d547741f1461045f578063e38335e51461047f578063f27a0c9214610492576101a1565b8063b1c5f427146103df578063c4d252f5146103ff578063ca15c8731461041f576101a1565b80639010d07c116100bb5780639010d07c1461037d57806391d14854146103aa578063a217fddf146103ca576101a1565b80638065657f146103285780638f2a0bb0146103485780638f61f4f514610368576101a1565b80632ab0f5291161014357806336568abe1161011d57806336568abe146102c8578063584b153e146102e857806364d6235314610308576101a1565b80632ab0f529146102685780632f2ff15d1461028857806331d50750146102a8576101a1565b8063134008d311610174578063134008d31461020857806313bc9f201461021b578063248a9ca314610248576101a1565b806301d5062a146101a657806307bd0265146101c85780630d3cf6fc146101f3576101a1565b366101a157005b600080fd5b3480156101b257600080fd5b506101c66101c13660046112ac565b6104a7565b005b3480156101d457600080fd5b506101dd610575565b6040516101ea9190611707565b60405180910390f35b3480156101ff57600080fd5b506101dd610599565b6101c6610216366004611242565b6105bd565b34801561022757600080fd5b5061023b610236366004611472565b610654565b6040516101ea91906116fc565b34801561025457600080fd5b506101dd610263366004611472565b61067b565b34801561027457600080fd5b5061023b610283366004611472565b610690565b34801561029457600080fd5b506101c66102a336600461148a565b6106a4565b3480156102b457600080fd5b5061023b6102c3366004611472565b61070b565b3480156102d457600080fd5b506101c66102e336600461148a565b61071e565b3480156102f457600080fd5b5061023b610303366004611472565b61077f565b34801561031457600080fd5b506101c6610323366004611472565b61078c565b34801561033457600080fd5b506101dd610343366004611242565b6107eb565b34801561035457600080fd5b506101c66103633660046113c4565b61082a565b34801561037457600080fd5b506101dd610992565b34801561038957600080fd5b5061039d6103983660046114b5565b6109b6565b6040516101ea91906115b9565b3480156103b657600080fd5b5061023b6103c536600461148a565b6109d7565b3480156103d657600080fd5b506101dd6109ef565b3480156103eb57600080fd5b506101dd6103fa36600461131f565b6109f4565b34801561040b57600080fd5b506101c661041a366004611472565b610a39565b34801561042b57600080fd5b506101dd61043a366004611472565b610af4565b34801561044b57600080fd5b506101dd61045a366004611472565b610b0b565b34801561046b57600080fd5b506101c661047a36600461148a565b610b1d565b6101c661048d36600461131f565b610b76565b34801561049e57600080fd5b506101dd610cb0565b7fb09aa5aeb3702cfd50b6b62bc4532604938f21248a27a1d5ca736082b6819cc16104d4816103c5610ccb565b806104e557506104e58160006109d7565b61050a5760405162461bcd60e51b8152600401610501906117ca565b60405180910390fd5b600061051a8989898989896107eb565b90506105268184610ccf565b6000817f4cf4410cc57040e44862ef0f45f3dd5a5e02db8eb8add648d4b0e236f1d07dca8b8b8b8b8b8a60405161056296959493929190611600565b60405180910390a3505050505050505050565b7fd8aa0f3194971a2a116679f7c2090f6939c8d4e01a2a8d7e41d55e5351469e6381565b7f5f58e3a2316349923ce3780f8d587db2d72378aed66a8261c916544fa6846ca581565b7fd8aa0f3194971a2a116679f7c2090f6939c8d4e01a2a8d7e41d55e5351469e636105ea816103c5610ccb565b806105fb57506105fb8160006109d7565b6106175760405162461bcd60e51b8152600401610501906117ca565b60006106278888888888886107eb565b905061063284610d3c565b6106418160008a8a8a8a610d6c565b61064a81610e34565b5050505050505050565b60008061066083610b0b565b90506001811180156106725750428111155b9150505b919050565b60009081526020819052604090206002015490565b6000600161069d83610b0b565b1492915050565b6000828152602081905260409020600201546106c2906103c5610ccb565b6106fd5760405162461bcd60e51b815260040180806020018281038252602f815260200180611acb602f913960400191505060405180910390fd5b6107078282610e6d565b5050565b60008061071783610b0b565b1192915050565b610726610ccb565b6001600160a01b0316816001600160a01b0316146107755760405162461bcd60e51b815260040180806020018281038252602f815260200180611b2a602f913960400191505060405180910390fd5b6107078282610ed6565b6000600161071783610b0b565b3330146107ab5760405162461bcd60e51b81526004016105019061199b565b7f11c24f4ead16507c69ac467fbd5e4eed5fb5c699626d2cc6d66421df253886d5600254826040516107de929190611a55565b60405180910390a1600255565b600086868686868660405160200161080896959493929190611600565b6040516020818303038152906040528051906020012090509695505050505050565b7fb09aa5aeb3702cfd50b6b62bc4532604938f21248a27a1d5ca736082b6819cc1610857816103c5610ccb565b8061086857506108688160006109d7565b6108845760405162461bcd60e51b8152600401610501906117ca565b8887146108a35760405162461bcd60e51b81526004016105019061176d565b8885146108c25760405162461bcd60e51b81526004016105019061176d565b60006108d48b8b8b8b8b8b8b8b6109f4565b90506108e08184610ccf565b60005b8a8110156109845780827f4cf4410cc57040e44862ef0f45f3dd5a5e02db8eb8add648d4b0e236f1d07dca8e8e8581811061091a57fe5b905060200201602081019061092f9190611228565b8d8d8681811061093b57fe5b905060200201358c8c8781811061094e57fe5b90506020028101906109609190611a63565b8c8b60405161097496959493929190611600565b60405180910390a36001016108e3565b505050505050505050505050565b7fb09aa5aeb3702cfd50b6b62bc4532604938f21248a27a1d5ca736082b6819cc181565b60008281526020819052604081206109ce9083610f3f565b90505b92915050565b60008281526020819052604081206109ce9083610f4b565b600081565b60008888888888888888604051602001610a1598979695949392919061163e565b60405160208183030381529060405280519060200120905098975050505050505050565b7fb09aa5aeb3702cfd50b6b62bc4532604938f21248a27a1d5ca736082b6819cc1610a66816103c5610ccb565b80610a775750610a778160006109d7565b610a935760405162461bcd60e51b8152600401610501906117ca565b610a9c8261077f565b610ab85760405162461bcd60e51b81526004016105019061193e565b6000828152600160205260408082208290555183917fbaa1eb22f2a492ba1a5fea61b8df4d27c6c8b5f3971e63bb58fa14ff72eedb7091a25050565b60008181526020819052604081206109d190610f60565b60009081526001602052604090205490565b600082815260208190526040902060020154610b3b906103c5610ccb565b6107755760405162461bcd60e51b8152600401808060200182810382526030815260200180611afa6030913960400191505060405180910390fd5b7fd8aa0f3194971a2a116679f7c2090f6939c8d4e01a2a8d7e41d55e5351469e63610ba3816103c5610ccb565b80610bb45750610bb48160006109d7565b610bd05760405162461bcd60e51b8152600401610501906117ca565b878614610bef5760405162461bcd60e51b81526004016105019061176d565b878414610c0e5760405162461bcd60e51b81526004016105019061176d565b6000610c208a8a8a8a8a8a8a8a6109f4565b9050610c2b84610d3c565b60005b89811015610c9a57610c9282828d8d85818110610c4757fe5b9050602002016020810190610c5c9190611228565b8c8c86818110610c6857fe5b905060200201358b8b87818110610c7b57fe5b9050602002810190610c8d9190611a63565b610d6c565b600101610c2e565b50610ca481610e34565b50505050505050505050565b60025490565b60006109ce836001600160a01b038416610f6b565b3390565b610cd88261070b565b15610cf55760405162461bcd60e51b815260040161050190611884565b610cfd610cb0565b811015610d1c5760405162461bcd60e51b815260040161050190611827565b610d264282610fb5565b6000928352600160205260409092209190915550565b801580610d4d5750610d4d81610690565b610d695760405162461bcd60e51b815260040161050190611710565b50565b6000846001600160a01b0316848484604051610d899291906115a9565b60006040518083038185875af1925050503d8060008114610dc6576040519150601f19603f3d011682016040523d82523d6000602084013e610dcb565b606091505b5050905080610dec5760405162461bcd60e51b8152600401610501906119f8565b85877fc2617efa69bab66782fa219543714338489c4e9e178271560a91b82c3f612b5887878787604051610e2394939291906115cd565b60405180910390a350505050505050565b610e3d81610654565b610e595760405162461bcd60e51b8152600401610501906118e1565b600090815260016020819052604090912055565b6000828152602081905260409020610e859082610cb6565b1561070757610e92610ccb565b6001600160a01b0316816001600160a01b0316837f2f8788117e7eff1d82e926ec794901d17c78024a50270940304540a733656f0d60405160405180910390a45050565b6000828152602081905260409020610eee908261100f565b1561070757610efb610ccb565b6001600160a01b0316816001600160a01b0316837ff6391f5c32d9c69d2a47ea670b442974b53935d1edc7fd64eb21e047a839171b60405160405180910390a45050565b60006109ce8383611024565b60006109ce836001600160a01b038416611088565b60006109d1826110a0565b6000610f778383611088565b610fad575081546001818101845560008481526020808220909301849055845484825282860190935260409020919091556109d1565b5060006109d1565b6000828201838110156109ce576040805162461bcd60e51b815260206004820152601b60248201527f536166654d6174683a206164646974696f6e206f766572666c6f770000000000604482015290519081900360640190fd5b60006109ce836001600160a01b0384166110a4565b815460009082106110665760405162461bcd60e51b8152600401808060200182810382526022815260200180611aa96022913960400191505060405180910390fd5b82600001828154811061107557fe5b9060005260206000200154905092915050565b60009081526001919091016020526040902054151590565b5490565b6000818152600183016020526040812054801561117e5783547fffffffffffffffffffffffffffffffffffffffffffffffffffffffffffffffff80830191908101906000908790839081106110f557fe5b906000526020600020015490508087600001848154811061111257fe5b60009182526020808320909101929092558281526001898101909252604090209084019055865487908061114257fe5b600190038181906000526020600020016000905590558660010160008781526020019081526020016000206000905560019450505050506109d1565b60009150506109d1565b80356001600160a01b038116811461067657600080fd5b60008083601f8401126111b0578182fd5b50813567ffffffffffffffff8111156111c7578182fd5b60208301915083602080830285010111156111e157600080fd5b9250929050565b60008083601f8401126111f9578182fd5b50813567ffffffffffffffff811115611210578182fd5b6020830191508360208285010111156111e157600080fd5b600060208284031215611239578081fd5b6109ce82611188565b60008060008060008060a0878903121561125a578182fd5b61126387611188565b955060208701359450604087013567ffffffffffffffff811115611285578283fd5b61129189828a016111e8565b979a9699509760608101359660809091013595509350505050565b600080600080600080600060c0888a0312156112c6578081fd5b6112cf88611188565b965060208801359550604088013567ffffffffffffffff8111156112f1578182fd5b6112fd8a828b016111e8565b989b979a50986060810135976080820135975060a09091013595509350505050565b60008060008060008060008060a0898b03121561133a578081fd5b883567ffffffffffffffff80821115611351578283fd5b61135d8c838d0161119f565b909a50985060208b0135915080821115611375578283fd5b6113818c838d0161119f565b909850965060408b0135915080821115611399578283fd5b506113a68b828c0161119f565b999c989b509699959896976060870135966080013595509350505050565b600080600080600080600080600060c08a8c0312156113e1578081fd5b893567ffffffffffffffff808211156113f8578283fd5b6114048d838e0161119f565b909b50995060208c013591508082111561141c578283fd5b6114288d838e0161119f565b909950975060408c0135915080821115611440578283fd5b5061144d8c828d0161119f565b9a9d999c50979a969997986060880135976080810135975060a0013595509350505050565b600060208284031215611483578081fd5b5035919050565b6000806040838503121561149c578182fd5b823591506114ac60208401611188565b90509250929050565b600080604083850312156114c7578182fd5b50508035926020909101359150565b818352602080840193600091908185020181018584845b878110156115545782840389528135601e1988360301811261150d578687fd5b8701803567ffffffffffffffff811115611525578788fd5b803603891315611533578788fd5b6115408682898501611561565b9a87019a95505050908401906001016114ed565b5091979650505050505050565b600082845282826020860137806020848601015260207fffffffffffffffffffffffffffffffffffffffffffffffffffffffffffffffe0601f85011685010190509392505050565b6000828483379101908152919050565b6001600160a01b0391909116815260200190565b60006001600160a01b0386168252846020830152606060408301526115f6606083018486611561565b9695505050505050565b60006001600160a01b038816825286602083015260a0604083015261162960a083018688611561565b60608301949094525060800152949350505050565b60a0808252810188905260008960c08301825b8b81101561167f576001600160a01b0361166a84611188565b16825260209283019290910190600101611651565b5083810360208501528881527f07ffffffffffffffffffffffffffffffffffffffffffffffffffffffffffffff8911156116b7578283fd5b602089029150818a602083013701602081810183815284830390910160408501526116e381888a6114d6565b6060850196909652505050608001529695505050505050565b901515815260200190565b90815260200190565b60208082526026908201527f54696d656c6f636b436f6e74726f6c6c65723a206d697373696e67206465706560408201527f6e64656e63790000000000000000000000000000000000000000000000000000606082015260800190565b60208082526023908201527f54696d656c6f636b436f6e74726f6c6c65723a206c656e677468206d69736d6160408201527f7463680000000000000000000000000000000000000000000000000000000000606082015260800190565b6020808252602e908201527f54696d656c6f636b436f6e74726f6c6c65723a2073656e64657220726571756960408201527f726573207065726d697373696f6e000000000000000000000000000000000000606082015260800190565b60208082526026908201527f54696d656c6f636b436f6e74726f6c6c65723a20696e73756666696369656e7460408201527f2064656c61790000000000000000000000000000000000000000000000000000606082015260800190565b6020808252602f908201527f54696d656c6f636b436f6e74726f6c6c65723a206f7065726174696f6e20616c60408201527f7265616479207363686564756c65640000000000000000000000000000000000606082015260800190565b6020808252602a908201527f54696d656c6f636b436f6e74726f6c6c65723a206f7065726174696f6e20697360408201527f206e6f7420726561647900000000000000000000000000000000000000000000606082015260800190565b60208082526031908201527f54696d656c6f636b436f6e74726f6c6c65723a206f7065726174696f6e20636160408201527f6e6e6f742062652063616e63656c6c6564000000000000000000000000000000606082015260800190565b6020808252602b908201527f54696d656c6f636b436f6e74726f6c6c65723a2063616c6c6572206d7573742060408201527f62652074696d656c6f636b000000000000000000000000000000000000000000606082015260800190565b60208082526033908201527f54696d656c6f636b436f6e74726f6c6c65723a20756e6465726c79696e67207460408201527f72616e73616374696f6e20726576657274656400000000000000000000000000606082015260800190565b918252602082015260400190565b6000808335601e19843603018112611a79578283fd5b83018035915067ffffffffffffffff821115611a93578283fd5b6020019150368190038213156111e157600080fdfe456e756d657261626c655365743a20696e646578206f7574206f6620626f756e6473416363657373436f6e74726f6c3a2073656e646572206d75737420626520616e2061646d696e20746f206772616e74416363657373436f6e74726f6c3a2073656e646572206d75737420626520616e2061646d696e20746f207265766f6b65416363657373436f6e74726f6c3a2063616e206f6e6c792072656e6f756e636520726f6c657320666f722073656c66a2646970667358221220f5db2183d3728a100e2a7a486f32b4752bc3c65e0a4fb654bfdfbdb7ccb8f32a64736f6c634300070600335f58e3a2316349923ce3780f8d587db2d72378aed66a8261c916544fa6846ca5b09aa5aeb3702cfd50b6b62bc4532604938f21248a27a1d5ca736082b6819cc1d8aa0f3194971a2a116679f7c2090f6939c8d4e01a2a8d7e41d55e5351469e63",
  "linkReferences": {},
  "deployedLinkReferences": {}
}