{
  "_format": "hh-sol-artifact-1",
  "contractName": "PairFlash",
  "sourceName": "contracts/periphery/examples/PairFlash.sol",
  "abi": [
    {
      "inputs": [
        {
          "internalType": "contract ISwapRouter",
          "name": "_swapRouter",
          "type": "address"
        },
        {
          "internalType": "address",
          "name": "_factory",
          "type": "address"
        },
        {
          "internalType": "address",
          "name": "_WETH9",
          "type": "address"
        }
      ],
      "stateMutability": "nonpayable",
      "type": "constructor"
    },
    {
      "inputs": [],
      "name": "WETH9",
      "outputs": [
        {
          "internalType": "address",
          "name": "",
          "type": "address"
        }
      ],
      "stateMutability": "view",
      "type": "function"
    },
    {
      "inputs": [],
      "name": "factory",
      "outputs": [
        {
          "internalType": "address",
          "name": "",
          "type": "address"
        }
      ],
      "stateMutability": "view",
      "type": "function"
    },
    {
      "inputs": [
        {
          "components": [
            {
              "internalType": "address",
              "name": "token0",
              "type": "address"
            },
            {
              "internalType": "address",
              "name": "token1",
              "type": "address"
            },
            {
              "internalType": "uint24",
              "name": "fee1",
              "type": "uint24"
            },
            {
              "internalType": "uint256",
              "name": "amount0",
              "type": "uint256"
            },
            {
              "internalType": "uint256",
              "name": "amount1",
              "type": "uint256"
            },
            {
              "internalType": "uint24",
              "name": "fee2",
              "type": "uint24"
            },
            {
              "internalType": "uint24",
              "name": "fee3",
              "type": "uint24"
            }
          ],
          "internalType": "struct PairFlash.FlashParams",
          "name": "params",
          "type": "tuple"
        }
      ],
      "name": "initFlash",
      "outputs": [],
      "stateMutability": "nonpayable",
      "type": "function"
    },
    {
      "inputs": [],
      "name": "refundETH",
      "outputs": [],
      "stateMutability": "payable",
      "type": "function"
    },
    {
      "inputs": [],
      "name": "swapRouter",
      "outputs": [
        {
          "internalType": "contract ISwapRouter",
          "name": "",
          "type": "address"
        }
      ],
      "stateMutability": "view",
      "type": "function"
    },
    {
      "inputs": [
        {
          "internalType": "address",
          "name": "token",
          "type": "address"
        },
        {
          "internalType": "uint256",
          "name": "amountMinimum",
          "type": "uint256"
        },
        {
          "internalType": "address",
          "name": "recipient",
          "type": "address"
        }
      ],
      "name": "sweepToken",
      "outputs": [],
      "stateMutability": "payable",
      "type": "function"
    },
    {
      "inputs": [
        {
          "internalType": "uint256",
          "name": "fee0",
          "type": "uint256"
        },
        {
          "internalType": "uint256",
          "name": "fee1",
          "type": "uint256"
        },
        {
          "internalType": "bytes",
          "name": "data",
          "type": "bytes"
        }
      ],
      "name": "uniswapV3FlashCallback",
      "outputs": [],
      "stateMutability": "nonpayable",
      "type": "function"
    },
    {
      "inputs": [
        {
          "internalType": "uint256",
          "name": "amountMinimum",
          "type": "uint256"
        },
        {
          "internalType": "address",
          "name": "recipient",
          "type": "address"
        }
      ],
      "name": "unwrapWETH9",
      "outputs": [],
      "stateMutability": "payable",
      "type": "function"
    },
    {
      "stateMutability": "payable",
      "type": "receive"
    }
  ],
  "bytecode": "0x60e06040523480156200001157600080fd5b506040516200185a3803806200185a83398101604081905262000034916200005c565b6001600160601b0319606092831b811660805290821b811660a05291901b1660c052620000c8565b60008060006060848603121562000071578283fd5b83516200007e81620000af565b60208501519093506200009181620000af565b6040850151909250620000a481620000af565b809150509250925092565b6001600160a01b0381168114620000c557600080fd5b50565b60805160601c60a05160601c60c05160601c61172162000139600039806104d7528061067b52806106a852806107b75280610858525080608f5280610330528061042652806104b35280610efe5280610f445280610fb852508061022652806104fb528061061b52506117216000f3fe60806040526004361061007f5760003560e01c8063c31c9c071161004e578063c31c9c071461016e578063c45a015514610183578063df2ab5bb14610198578063e9cbafb0146101ab57610103565b806312210e8a146101085780632384463b1461011057806349404b7c146101305780634aa4a4fc1461014357610103565b3661010357336001600160a01b037f00000000000000000000000000000000000000000000000000000000000000001614610101576040805162461bcd60e51b815260206004820152600960248201527f4e6f742057455448390000000000000000000000000000000000000000000000604482015290519081900360640190fd5b005b600080fd5b6101016101cb565b34801561011c57600080fd5b5061010161012b36600461140f565b6101dd565b61010161013e3660046114c2565b61032c565b34801561014f57600080fd5b506101586104b1565b6040516101659190611571565b60405180910390f35b34801561017a57600080fd5b506101586104d5565b34801561018f57600080fd5b506101586104f9565b6101016101a63660046112d8565b61051d565b3480156101b757600080fd5b506101016101c63660046114ed565b610606565b47156101db576101db3347610955565b565b6000604051806060016040528083600001516001600160a01b0316815260200183602001516001600160a01b03168152602001836040015162ffffff168152509050600061024b7f000000000000000000000000000000000000000000000000000000000000000083610a5e565b9050806001600160a01b031663490e6cbc30856060015186608001516040518060c001604052808960600151815260200189608001518152602001336001600160a01b031681526020018881526020018960a0015162ffffff1681526020018960c0015162ffffff168152506040516020016102c79190611666565b6040516020818303038152906040526040518563ffffffff1660e01b81526004016102f59493929190611585565b600060405180830381600087803b15801561030f57600080fd5b505af1158015610323573d6000803e3d6000fd5b50505050505050565b60007f00000000000000000000000000000000000000000000000000000000000000006001600160a01b03166370a08231306040518263ffffffff1660e01b815260040180826001600160a01b0316815260200191505060206040518083038186803b15801561039b57600080fd5b505afa1580156103af573d6000803e3d6000fd5b505050506040513d60208110156103c557600080fd5b505190508281101561041e576040805162461bcd60e51b815260206004820152601260248201527f496e73756666696369656e742057455448390000000000000000000000000000604482015290519081900360640190fd5b80156104ac577f00000000000000000000000000000000000000000000000000000000000000006001600160a01b0316632e1a7d4d826040518263ffffffff1660e01b815260040180828152602001915050600060405180830381600087803b15801561048a57600080fd5b505af115801561049e573d6000803e3d6000fd5b505050506104ac8282610955565b505050565b7f000000000000000000000000000000000000000000000000000000000000000081565b7f000000000000000000000000000000000000000000000000000000000000000081565b7f000000000000000000000000000000000000000000000000000000000000000081565b6000836001600160a01b03166370a08231306040518263ffffffff1660e01b815260040180826001600160a01b0316815260200191505060206040518083038186803b15801561056c57600080fd5b505afa158015610580573d6000803e3d6000fd5b505050506040513d602081101561059657600080fd5b50519050828110156105ef576040805162461bcd60e51b815260206004820152601260248201527f496e73756666696369656e7420746f6b656e0000000000000000000000000000604482015290519081900360640190fd5b801561060057610600848383610b0e565b50505050565b600061061482840184611313565b90506106447f00000000000000000000000000000000000000000000000000000000000000008260600151610ca5565b506060810151805160209091015182516000906106619089610cce565b90506000610673856020015189610cce565b90506106a4837f00000000000000000000000000000000000000000000000000000000000000008760200151610cde565b60007f00000000000000000000000000000000000000000000000000000000000000006001600160a01b031663414bf389604051806101000160405280876001600160a01b03168152602001886001600160a01b03168152602001896080015162ffffff168152602001306001600160a01b031681526020014281526020018960200151815260200186815260200160006001600160a01b03168152506040518263ffffffff1660e01b815260040161075d91906115f7565b602060405180830381600087803b15801561077757600080fd5b505af115801561078b573d6000803e3d6000fd5b505050506040513d601f19601f820116820180604052508101906107af91906114aa565b90506107e0857f00000000000000000000000000000000000000000000000000000000000000008860000151610cde565b60408051610100810182526001600160a01b038781168252868116602083015260a08981015162ffffff168385015230606084015242608084015289519083015260c08201859052600060e0830181905292517f414bf3890000000000000000000000000000000000000000000000000000000081527f00000000000000000000000000000000000000000000000000000000000000009091169163414bf3899161088e91906004016115f7565b602060405180830381600087803b1580156108a857600080fd5b505af11580156108bc573d6000803e3d6000fd5b505050506040513d601f19601f820116820180604052508101906108e091906114aa565b905083156108f4576108f486303387610e6e565b82156109065761090685303386610e6e565b83821115610927576000848303905061092587308a6040015184610e6e565b505b82811115610948576000838203905061094686308a6040015184610e6e565b505b5050505050505050505050565b604080516000808252602082019092526001600160a01b0384169083906040518082805190602001908083835b602083106109a15780518252601f199092019160209182019101610982565b6001836020036101000a03801982511681845116808217855250505050505090500191505060006040518083038185875af1925050503d8060008114610a03576040519150601f19603f3d011682016040523d82523d6000602084013e610a08565b606091505b50509050806104ac576040805162461bcd60e51b815260206004820152600360248201527f5354450000000000000000000000000000000000000000000000000000000000604482015290519081900360640190fd5b805160208083015160408085015181517f1698ee820000000000000000000000000000000000000000000000000000000081526001600160a01b039586166004820152928516602484015262ffffff16604483015251600093861692631698ee829260648082019391829003018186803b158015610adb57600080fd5b505afa158015610aef573d6000803e3d6000fd5b505050506040513d6020811015610b0557600080fd5b50519392505050565b604080516001600160a01b038481166024830152604480830185905283518084039091018152606490920183526020820180517bffffffffffffffffffffffffffffffffffffffffffffffffffffffff167fa9059cbb000000000000000000000000000000000000000000000000000000001781529251825160009485949389169392918291908083835b60208310610bb85780518252601f199092019160209182019101610b99565b6001836020036101000a0380198251168184511680821785525050505050509050019150506000604051808303816000865af19150503d8060008114610c1a576040519150601f19603f3d011682016040523d82523d6000602084013e610c1f565b606091505b5091509150818015610c4d575080511580610c4d5750808060200190516020811015610c4a57600080fd5b50515b610c9e576040805162461bcd60e51b815260206004820152600260248201527f5354000000000000000000000000000000000000000000000000000000000000604482015290519081900360640190fd5b5050505050565b6000610cb18383610a5e565b9050336001600160a01b03821614610cc857600080fd5b92915050565b80820182811015610cc857600080fd5b604080516001600160a01b038481166024830152604480830185905283518084039091018152606490920183526020820180517bffffffffffffffffffffffffffffffffffffffffffffffffffffffff167f095ea7b3000000000000000000000000000000000000000000000000000000001781529251825160009485949389169392918291908083835b60208310610d885780518252601f199092019160209182019101610d69565b6001836020036101000a0380198251168184511680821785525050505050509050019150506000604051808303816000865af19150503d8060008114610dea576040519150601f19603f3d011682016040523d82523d6000602084013e610def565b606091505b5091509150818015610e1d575080511580610e1d5750808060200190516020811015610e1a57600080fd5b50515b610c9e576040805162461bcd60e51b815260206004820152600260248201527f5341000000000000000000000000000000000000000000000000000000000000604482015290519081900360640190fd5b610e7a8484848461108c565b610efc846001600160a01b03166370a08231856040518263ffffffff1660e01b815260040180826001600160a01b0316815260200191505060206040518083038186803b158015610eca57600080fd5b505afa158015610ede573d6000803e3d6000fd5b505050506040513d6020811015610ef457600080fd5b50518261111a565b7f00000000000000000000000000000000000000000000000000000000000000006001600160a01b0316846001600160a01b0316148015610f3d5750804710155b1561105f577f00000000000000000000000000000000000000000000000000000000000000006001600160a01b031663d0e30db0826040518263ffffffff1660e01b81526004016000604051808303818588803b158015610f9d57600080fd5b505af1158015610fb1573d6000803e3d6000fd5b50505050507f00000000000000000000000000000000000000000000000000000000000000006001600160a01b031663a9059cbb83836040518363ffffffff1660e01b815260040180836001600160a01b0316815260200182815260200192505050602060405180830381600087803b15801561102d57600080fd5b505af1158015611041573d6000803e3d6000fd5b505050506040513d602081101561105757600080fd5b506106009050565b6001600160a01b0383163014156110805761107b848383610b0e565b610600565b61060084848484611194565b604080516001600160a01b03808716602483015280861660448301528416606482015260848082018490528251808303909101815260a49091019091526020810180517bffffffffffffffffffffffffffffffffffffffffffffffffffffffff167f94250d770000000000000000000000000000000000000000000000000000000017905261060090611288565b604080516024810184905260448082018490528251808303909101815260649091019091526020810180517bffffffffffffffffffffffffffffffffffffffffffffffffffffffff167ff666715a0000000000000000000000000000000000000000000000000000000017905261119090611288565b5050565b604080517f23b872dd0000000000000000000000000000000000000000000000000000000081526001600160a01b03858116600483015284811660248301526044820184905291516000928716916323b872dd91606480830192602092919082900301818787803b15801561120857600080fd5b505af115801561121c573d6000803e3d6000fd5b505050506040513d602081101561123257600080fd5b5051905080610c9e576040805162461bcd60e51b815260206004820152600360248201527f5354460000000000000000000000000000000000000000000000000000000000604482015290519081900360640190fd5b80516a636f6e736f6c652e6c6f67602083016000808483855afa5050505050565b80356001600160a01b03811681146112c057600080fd5b919050565b803562ffffff811681146112c057600080fd5b6000806000606084860312156112ec578283fd5b6112f5846112a9565b92506020840135915061130a604085016112a9565b90509250925092565b6000818303610100811215611326578182fd5b6040805160c0810167ffffffffffffffff828210818311171561134557fe5b81845286358352602087013560208401526113618488016112a9565b8484015260607fffffffffffffffffffffffffffffffffffffffffffffffffffffffffffffffa086011215611394578586fd5b8351945060608501915084821081831117156113ac57fe5b5082526113bb606086016112a9565b83526113c9608086016112a9565b60208401526113da60a086016112c5565b828401528260608201526113f060c086016112c5565b608082015261140160e086016112c5565b60a082015295945050505050565b600060e08284031215611420578081fd5b60405160e0810181811067ffffffffffffffff8211171561143d57fe5b604052611449836112a9565b8152611457602084016112a9565b6020820152611468604084016112c5565b6040820152606083013560608201526080830135608082015261148d60a084016112c5565b60a082015261149e60c084016112c5565b60c08201529392505050565b6000602082840312156114bb578081fd5b5051919050565b600080604083850312156114d4578182fd5b823591506114e4602084016112a9565b90509250929050565b60008060008060608587031215611502578081fd5b8435935060208501359250604085013567ffffffffffffffff80821115611527578283fd5b818701915087601f83011261153a578283fd5b813581811115611548578384fd5b886020828501011115611559578384fd5b95989497505060200194505050565b62ffffff169052565b6001600160a01b0391909116815260200190565b60006001600160a01b038616825260208581840152846040840152608060608401528351806080850152825b818110156115cd5785810183015185820160a0015282016115b1565b818111156115de578360a083870101525b50601f01601f19169290920160a0019695505050505050565b6000610100820190506001600160a01b0380845116835280602085015116602084015262ffffff60408501511660408401528060608501511660608401526080840151608084015260a084015160a084015260c084015160c08401528060e08501511660e08401525092915050565b600061010082019050825182526020830151602083015260408301516001600160a01b038082166040850152606085015191508082511660608501528060208301511660808501525062ffffff60408201511660a08401525060808301516116d160c0840182611568565b5060a08301516116e460e0840182611568565b509291505056fea2646970667358221220358e833bb77f0862484420df4fdd5210e2db30af4c6e92fd9e67b56d07b4da3b64736f6c63430007060033",
  "linkReferences": {},
  "deployedLinkReferences": {}
}