{
  "_format": "hh-sol-artifact-1",
  "contractName": "QuoterV2",
  "sourceName": "contracts/periphery/lens/QuoterV2.sol",
  "abi": [
    {
      "inputs": [
        {
          "internalType": "address",
          "name": "_factory",
          "type": "address"
        },
        {
          "internalType": "address",
          "name": "_WETH9",
          "type": "address"
        }
      ],
      "stateMutability": "nonpayable",
      "type": "constructor"
    },
    {
      "inputs": [],
      "name": "WETH9",
      "outputs": [
        {
          "internalType": "address",
          "name": "",
          "type": "address"
        }
      ],
      "stateMutability": "view",
      "type": "function"
    },
    {
      "inputs": [],
      "name": "factory",
      "outputs": [
        {
          "internalType": "address",
          "name": "",
          "type": "address"
        }
      ],
      "stateMutability": "view",
      "type": "function"
    },
    {
      "inputs": [
        {
          "internalType": "bytes",
          "name": "path",
          "type": "bytes"
        },
        {
          "internalType": "uint256",
          "name": "amountIn",
          "type": "uint256"
        }
      ],
      "name": "quoteExactInput",
      "outputs": [
        {
          "internalType": "uint256",
          "name": "amountOut",
          "type": "uint256"
        },
        {
          "internalType": "uint160[]",
          "name": "sqrtPriceX96AfterList",
          "type": "uint160[]"
        },
        {
          "internalType": "uint32[]",
          "name": "initializedTicksCrossedList",
          "type": "uint32[]"
        },
        {
          "internalType": "uint256",
          "name": "gasEstimate",
          "type": "uint256"
        }
      ],
      "stateMutability": "nonpayable",
      "type": "function"
    },
    {
      "inputs": [
        {
          "components": [
            {
              "internalType": "address",
              "name": "tokenIn",
              "type": "address"
            },
            {
              "internalType": "address",
              "name": "tokenOut",
              "type": "address"
            },
            {
              "internalType": "uint256",
              "name": "amountIn",
              "type": "uint256"
            },
            {
              "internalType": "uint24",
              "name": "fee",
              "type": "uint24"
            },
            {
              "internalType": "uint160",
              "name": "sqrtPriceLimitX96",
              "type": "uint160"
            }
          ],
          "internalType": "struct IQuoterV2.QuoteExactInputSingleParams",
          "name": "params",
          "type": "tuple"
        }
      ],
      "name": "quoteExactInputSingle",
      "outputs": [
        {
          "internalType": "uint256",
          "name": "amountOut",
          "type": "uint256"
        },
        {
          "internalType": "uint160",
          "name": "sqrtPriceX96After",
          "type": "uint160"
        },
        {
          "internalType": "uint32",
          "name": "initializedTicksCrossed",
          "type": "uint32"
        },
        {
          "internalType": "uint256",
          "name": "gasEstimate",
          "type": "uint256"
        }
      ],
      "stateMutability": "nonpayable",
      "type": "function"
    },
    {
      "inputs": [
        {
          "internalType": "bytes",
          "name": "path",
          "type": "bytes"
        },
        {
          "internalType": "uint256",
          "name": "amountOut",
          "type": "uint256"
        }
      ],
      "name": "quoteExactOutput",
      "outputs": [
        {
          "internalType": "uint256",
          "name": "amountIn",
          "type": "uint256"
        },
        {
          "internalType": "uint160[]",
          "name": "sqrtPriceX96AfterList",
          "type": "uint160[]"
        },
        {
          "internalType": "uint32[]",
          "name": "initializedTicksCrossedList",
          "type": "uint32[]"
        },
        {
          "internalType": "uint256",
          "name": "gasEstimate",
          "type": "uint256"
        }
      ],
      "stateMutability": "nonpayable",
      "type": "function"
    },
    {
      "inputs": [
        {
          "components": [
            {
              "internalType": "address",
              "name": "tokenIn",
              "type": "address"
            },
            {
              "internalType": "address",
              "name": "tokenOut",
              "type": "address"
            },
            {
              "internalType": "uint256",
              "name": "amount",
              "type": "uint256"
            },
            {
              "internalType": "uint24",
              "name": "fee",
              "type": "uint24"
            },
            {
              "internalType": "uint160",
              "name": "sqrtPriceLimitX96",
              "type": "uint160"
            }
          ],
          "internalType": "struct IQuoterV2.QuoteExactOutputSingleParams",
          "name": "params",
          "type": "tuple"
        }
      ],
      "name": "quoteExactOutputSingle",
      "outputs": [
        {
          "internalType": "uint256",
          "name": "amountIn",
          "type": "uint256"
        },
        {
          "internalType": "uint160",
          "name": "sqrtPriceX96After",
          "type": "uint160"
        },
        {
          "internalType": "uint32",
          "name": "initializedTicksCrossed",
          "type": "uint32"
        },
        {
          "internalType": "uint256",
          "name": "gasEstimate",
          "type": "uint256"
        }
      ],
      "stateMutability": "nonpayable",
      "type": "function"
    },
    {
      "inputs": [
        {
          "internalType": "int256",
          "name": "amount0Delta",
          "type": "int256"
        },
        {
          "internalType": "int256",
          "name": "amount1Delta",
          "type": "int256"
        },
        {
          "internalType": "bytes",
          "name": "path",
          "type": "bytes"
        }
      ],
      "name": "uniswapV3SwapCallback",
      "outputs": [],
      "stateMutability": "view",
      "type": "function"
    }
  ],
  "bytecode": "0x60c06040523480156200001157600080fd5b5060405162001ca238038062001ca2833981016040819052620000349162000070565b6001600160601b0319606092831b8116608052911b1660a052620000a7565b80516001600160a01b03811681146200006b57600080fd5b919050565b6000806040838503121562000083578182fd5b6200008e8362000053565b91506200009e6020840162000053565b90509250929050565b60805160601c60a05160601c611bc7620000db600039806102e05250806104d752806108375280610a2b5250611bc76000f3fe608060405234801561001057600080fd5b506004361061007d5760003560e01c8063c45a01551161005b578063c45a0155146100e6578063c6a5026a146100ee578063cdca175314610101578063fa461e33146101145761007d565b80632f80bb1d146100825780634aa4a4fc146100ae578063bd21704a146100c3575b600080fd5b6100956100903660046116f5565b610129565b6040516100a59493929190611a3e565b60405180910390f35b6100b66102de565b6040516100a5919061199b565b6100d66100d1366004611813565b610302565b6040516100a59493929190611ad9565b6100b66104d5565b6100d66100fc366004611813565b6104f9565b61009561010f3660046116f5565b61066f565b61012761012236600461175b565b610806565b005b6000606080600061013986610981565b67ffffffffffffffff8111801561014f57600080fd5b50604051908082528060200260200182016040528015610179578160200160208202803683370190505b50925061018586610981565b67ffffffffffffffff8111801561019b57600080fd5b506040519080825280602002602001820160405280156101c5578160200160208202803683370190505b50915060005b60008060006101d98a6109b0565b9250925092506000806000806102356040518060a00160405280886001600160a01b03168152602001896001600160a01b031681526020018f81526020018762ffffff16815260200160006001600160a01b0316815250610302565b9350935093509350828b898151811061024a57fe5b60200260200101906001600160a01b031690816001600160a01b031681525050818a898151811061027757fe5b63ffffffff90921660209283029190910190910152929b50968201966001909601958b926102a48e6109e1565b156102b9576102b28e6109e9565b9d506102c9565b8c9b5050505050505050506102d5565b505050505050506101cb565b92959194509250565b7f000000000000000000000000000000000000000000000000000000000000000081565b6020810151815160608301516000928392839283926001600160a01b03808216908416109284926103339290610a24565b905086608001516001600160a01b0316600014156103545760408701516000555b60005a9050816001600160a01b031663128acb0830856103778c60400151610a62565b6000038c608001516001600160a01b0316600014610399578c608001516103bf565b876103b85773fffd8963efd1fc6a506488495d951d5263988d256103bf565b6401000276a45b8d602001518e606001518f600001516040516020016103e093929190611935565b6040516020818303038152906040526040518663ffffffff1660e01b815260040161040f9594939291906119af565b6040805180830381600087803b15801561042857600080fd5b505af1925050508015610458575060408051601f3d908101601f1916820190925261045591810190611738565b60015b6104c8573d808015610486576040519150601f19603f3d011682016040523d82523d6000602084013e61048b565b606091505b505a8203945088608001516001600160a01b0316600014156104ac57600080555b6104b7818487610a94565b9750975097509750505050506104ce565b50505050505b9193509193565b7f000000000000000000000000000000000000000000000000000000000000000081565b6020810151815160608301516000928392839283926001600160a01b038082169084161092849261052a9290610a24565b905060005a9050816001600160a01b031663128acb08308561054f8c60400151610a62565b60808d01516001600160a01b03161561056c578c60800151610592565b8761058b5773fffd8963efd1fc6a506488495d951d5263988d25610592565b6401000276a45b8d600001518e606001518f602001516040516020016105b393929190611935565b6040516020818303038152906040526040518663ffffffff1660e01b81526004016105e29594939291906119af565b6040805180830381600087803b1580156105fb57600080fd5b505af192505050801561062b575060408051601f3d908101601f1916820190925261062891810190611738565b60015b6104c8573d808015610659576040519150601f19603f3d011682016040523d82523d6000602084013e61065e565b606091505b505a820394506104b7818487610a94565b6000606080600061067f86610981565b67ffffffffffffffff8111801561069557600080fd5b506040519080825280602002602001820160405280156106bf578160200160208202803683370190505b5092506106cb86610981565b67ffffffffffffffff811180156106e157600080fd5b5060405190808252806020026020018201604052801561070b578160200160208202803683370190505b50915060005b600080600061071f8a6109b0565b92509250925060008060008061077b6040518060a00160405280896001600160a01b03168152602001886001600160a01b031681526020018f81526020018762ffffff16815260200160006001600160a01b03168152506104f9565b9350935093509350828b898151811061079057fe5b60200260200101906001600160a01b031690816001600160a01b031681525050818a89815181106107bd57fe5b63ffffffff90921660209283029190910190910152929b50968201966001909601958b926107ea8e6109e1565b156102b9576107f88e6109e9565b9d5050505050505050610711565b60008313806108155750600082135b61081e57600080fd5b600080600061082c846109b0565b92509250925061085e7f0000000000000000000000000000000000000000000000000000000000000000848484610b4e565b50600080600080891361088a57856001600160a01b0316856001600160a01b031610888a6000036108a5565b846001600160a01b0316866001600160a01b03161089896000035b92509250925060006108b8878787610a24565b9050600080826001600160a01b0316633850c7bd6040518163ffffffff1660e01b815260040160e06040518083038186803b1580156108f657600080fd5b505afa15801561090a573d6000803e3d6000fd5b505050506040513d601f19601f8201168201806040525081019061092e9190611835565b505050505091509150851561095457604051848152826020820152816040820152606081fd5b6000541561096a57600054841461096a57600080fd5b604051858152826020820152816040820152606081fd5b805160177fffffffffffffffffffffffffffffffffffffffffffffffffffffffffffffffec909101045b919050565b600080806109be8482610b6d565b92506109cb846014610c39565b90506109d8846017610b6d565b91509193909250565b516042111590565b8051606090610a1e9083906017907fffffffffffffffffffffffffffffffffffffffffffffffffffffffffffffffe901610cf5565b92915050565b6000610a5a7f0000000000000000000000000000000000000000000000000000000000000000610a55868686610e70565b610ec6565b949350505050565b60007f80000000000000000000000000000000000000000000000000000000000000008210610a9057600080fd5b5090565b600080600080600080876001600160a01b0316633850c7bd6040518163ffffffff1660e01b815260040160e06040518083038186803b158015610ad657600080fd5b505afa158015610aea573d6000803e3d6000fd5b505050506040513d601f19601f82011682018060405250810190610b0e9190611835565b50939650610b2394508d9350610f7692505050565b91975095509050610b3e6001600160a01b0389168383610ffd565b9350869250505093509350935093565b6000610b6485610b5f868686610e70565b611586565b95945050505050565b600081826014011015610bc7576040805162461bcd60e51b815260206004820152601260248201527f746f416464726573735f6f766572666c6f770000000000000000000000000000604482015290519081900360640190fd5b8160140183511015610c20576040805162461bcd60e51b815260206004820152601560248201527f746f416464726573735f6f75744f66426f756e64730000000000000000000000604482015290519081900360640190fd5b5001602001516c01000000000000000000000000900490565b600081826003011015610c93576040805162461bcd60e51b815260206004820152601160248201527f746f55696e7432345f6f766572666c6f77000000000000000000000000000000604482015290519081900360640190fd5b8160030183511015610cec576040805162461bcd60e51b815260206004820152601460248201527f746f55696e7432345f6f75744f66426f756e6473000000000000000000000000604482015290519081900360640190fd5b50016003015190565b60608182601f011015610d4f576040805162461bcd60e51b815260206004820152600e60248201527f736c6963655f6f766572666c6f77000000000000000000000000000000000000604482015290519081900360640190fd5b828284011015610da6576040805162461bcd60e51b815260206004820152600e60248201527f736c6963655f6f766572666c6f77000000000000000000000000000000000000604482015290519081900360640190fd5b81830184511015610dfe576040805162461bcd60e51b815260206004820152601160248201527f736c6963655f6f75744f66426f756e6473000000000000000000000000000000604482015290519081900360640190fd5b606082158015610e1d5760405191506000825260208201604052610e67565b6040519150601f8416801560200281840101858101878315602002848b0101015b81831015610e56578051835260209283019201610e3e565b5050858452601f01601f1916604052505b50949350505050565b610e786115c4565b826001600160a01b0316846001600160a01b03161115610e96579192915b50604080516060810182526001600160a01b03948516815292909316602083015262ffffff169181019190915290565b805160208083015160408085015181517f1698ee820000000000000000000000000000000000000000000000000000000081526001600160a01b039586166004820152928516602484015262ffffff16604483015251600093861692631698ee829260648082019391829003018186803b158015610f4357600080fd5b505afa158015610f57573d6000803e3d6000fd5b505050506040513d6020811015610f6d57600080fd5b50519392505050565b60008060008351606014610fdc57604484511015610faf5760405162461bcd60e51b8152600401610fa690611a07565b60405180910390fd5b83806020019051810190610fc391906117a9565b60405162461bcd60e51b8152600401610fa691906119f4565b83806020019051810190610ff091906118cc565b9250925092509193909250565b60008060008060008060008060088b6001600160a01b031663d0c93a7c6040518163ffffffff1660e01b815260040160206040518083038186803b15801561104457600080fd5b505afa158015611058573d6000803e3d6000fd5b505050506040513d602081101561106e57600080fd5b5051600290810b908c900b8161108057fe5b0560020b901d905060006101008c6001600160a01b031663d0c93a7c6040518163ffffffff1660e01b815260040160206040518083038186803b1580156110c657600080fd5b505afa1580156110da573d6000803e3d6000fd5b505050506040513d60208110156110f057600080fd5b5051600290810b908d900b8161110257fe5b0560020b8161110d57fe5b079050600060088d6001600160a01b031663d0c93a7c6040518163ffffffff1660e01b815260040160206040518083038186803b15801561114d57600080fd5b505afa158015611161573d6000803e3d6000fd5b505050506040513d602081101561117757600080fd5b5051600290810b908d900b8161118957fe5b0560020b901d905060006101008e6001600160a01b031663d0c93a7c6040518163ffffffff1660e01b815260040160206040518083038186803b1580156111cf57600080fd5b505afa1580156111e3573d6000803e3d6000fd5b505050506040513d60208110156111f957600080fd5b5051600290810b908e900b8161120b57fe5b0560020b8161121657fe5b07905060008160ff166001901b8f6001600160a01b0316635339c296856040518263ffffffff1660e01b8152600401808260010b815260200191505060206040518083038186803b15801561126a57600080fd5b505afa15801561127e573d6000803e3d6000fd5b505050506040513d602081101561129457600080fd5b50511611801561131a57508d6001600160a01b031663d0c93a7c6040518163ffffffff1660e01b815260040160206040518083038186803b1580156112d857600080fd5b505afa1580156112ec573d6000803e3d6000fd5b505050506040513d602081101561130257600080fd5b5051600290810b908d900b8161131457fe5b0760020b155b801561132b57508b60020b8d60020b135b945060008360ff166001901b8f6001600160a01b0316635339c296876040518263ffffffff1660e01b8152600401808260010b815260200191505060206040518083038186803b15801561137e57600080fd5b505afa158015611392573d6000803e3d6000fd5b505050506040513d60208110156113a857600080fd5b50511611801561142e57508d6001600160a01b031663d0c93a7c6040518163ffffffff1660e01b815260040160206040518083038186803b1580156113ec57600080fd5b505afa158015611400573d6000803e3d6000fd5b505050506040513d602081101561141657600080fd5b5051600290810b908e900b8161142857fe5b0760020b155b801561143f57508b60020b8d60020b125b95508160010b8460010b128061146b57508160010b8460010b14801561146b57508060ff168360ff1611155b156114815783995082975081985080965061148e565b8199508097508398508296505b505060001960ff87161b9150505b8560010b8760010b1361155e578560010b8760010b14156114c35760001960ff858103161c165b6000818c6001600160a01b0316635339c2968a6040518263ffffffff1660e01b8152600401808260010b815260200191505060206040518083038186803b15801561150d57600080fd5b505afa158015611521573d6000803e3d6000fd5b505050506040513d602081101561153757600080fd5b5051169050611545816115a9565b61ffff169890980197505060019095019460001961149c565b811561156b576001880397505b8215611578576001880397505b505050505050509392505050565b60006115928383610ec6565b9050336001600160a01b03821614610a1e57600080fd5b6000805b8215610a1e576000198301909216916001016115ad565b604080516060810182526000808252602082018190529181019190915290565b600082601f8301126115f4578081fd5b813561160761160282611b27565b611b03565b81815284602083860101111561161b578283fd5b816020850160208301379081016020019190915292915050565b8051600281900b81146109ab57600080fd5b600060a08284031215611658578081fd5b60405160a0810181811067ffffffffffffffff8211171561167557fe5b604052905080823561168681611b79565b8152602083013561169681611b79565b602082015260408381013590820152606083013562ffffff811681146116bb57600080fd5b60608201526116cc608084016116d8565b60808201525092915050565b80356109ab81611b79565b805161ffff811681146109ab57600080fd5b60008060408385031215611707578182fd5b823567ffffffffffffffff81111561171d578283fd5b611729858286016115e4565b95602094909401359450505050565b6000806040838503121561174a578182fd5b505080516020909101519092909150565b60008060006060848603121561176f578081fd5b8335925060208401359150604084013567ffffffffffffffff811115611793578182fd5b61179f868287016115e4565b9150509250925092565b6000602082840312156117ba578081fd5b815167ffffffffffffffff8111156117d0578182fd5b8201601f810184136117e0578182fd5b80516117ee61160282611b27565b818152856020838501011115611802578384fd5b610b64826020830160208601611b49565b600060a08284031215611824578081fd5b61182e8383611647565b9392505050565b600080600080600080600060e0888a03121561184f578283fd5b875161185a81611b79565b965061186860208901611635565b9550611876604089016116e3565b9450611884606089016116e3565b9350611892608089016116e3565b925060a088015160ff811681146118a7578283fd5b60c089015190925080151581146118bc578182fd5b8091505092959891949750929550565b6000806000606084860312156118e0578081fd5b8351925060208401516118f281611b79565b915061190060408501611635565b90509250925092565b60008151808452611921816020860160208601611b49565b601f01601f19169290920160200192915050565b606093841b7fffffffffffffffffffffffffffffffffffffffff000000000000000000000000908116825260e89390931b7fffffff0000000000000000000000000000000000000000000000000000000000166014820152921b166017820152602b0190565b6001600160a01b0391909116815260200190565b60006001600160a01b038088168352861515602084015285604084015280851660608401525060a060808301526119e960a0830184611909565b979650505050505050565b60006020825261182e6020830184611909565b60208082526010908201527f556e6578706563746564206572726f7200000000000000000000000000000000604082015260600190565b600060808201868352602060808185015281875180845260a0860191508289019350845b81811015611a875784516001600160a01b031683529383019391830191600101611a62565b505084810360408601528651808252908201925081870190845b81811015611ac357825163ffffffff1685529383019391830191600101611aa1565b5050505060609290920192909252949350505050565b9384526001600160a01b0392909216602084015263ffffffff166040830152606082015260800190565b60405181810167ffffffffffffffff81118282101715611b1f57fe5b604052919050565b600067ffffffffffffffff821115611b3b57fe5b50601f01601f191660200190565b60005b83811015611b64578181015183820152602001611b4c565b83811115611b73576000848401525b50505050565b6001600160a01b0381168114611b8e57600080fd5b5056fea2646970667358221220910f4e24fa4936fd03c8f190bc88f6cd660736dab2abbdaeb0179f1cc5e117b164736f6c63430007060033",
  "linkReferences": {},
  "deployedLinkReferences": {}
}