{
  "_format": "hh-sol-artifact-1",
  "contractName": "ERC20Token",
  "sourceName": "contracts/ERC20.sol",
  "abi": [
    {
      "inputs": [
        {
          "internalType": "string",
          "name": "name",
          "type": "string"
        },
        {
          "internalType": "string",
          "name": "symbol",
          "type": "string"
        }
      ],
      "stateMutability": "nonpayable",
      "type": "constructor"
    },
    {
      "anonymous": false,
      "inputs": [
        {
          "indexed": true,
          "internalType": "address",
          "name": "owner",
          "type": "address"
        },
        {
          "indexed": true,
          "internalType": "address",
          "name": "spender",
          "type": "address"
        },
        {
          "indexed": false,
          "internalType": "uint256",
          "name": "value",
          "type": "uint256"
        }
      ],
      "name": "Approval",
      "type": "event"
    },
    {
      "anonymous": false,
      "inputs": [
        {
          "indexed": true,
          "internalType": "address",
          "name": "from",
          "type": "address"
        },
        {
          "indexed": true,
          "internalType": "address",
          "name": "to",
          "type": "address"
        },
        {
          "indexed": false,
          "internalType": "uint256",
          "name": "value",
          "type": "uint256"
        }
      ],
      "name": "Transfer",
      "type": "event"
    },
    {
      "inputs": [
        {
          "internalType": "address",
          "name": "owner",
          "type": "address"
        },
        {
          "internalType": "address",
          "name": "spender",
          "type": "address"
        }
      ],
      "name": "allowance",
      "outputs": [
        {
          "internalType": "uint256",
          "name": "",
          "type": "uint256"
        }
      ],
      "stateMutability": "view",
      "type": "function"
    },
    {
      "inputs": [
        {
          "internalType": "address",
          "name": "spender",
          "type": "address"
        },
        {
          "internalType": "uint256",
          "name": "amount",
          "type": "uint256"
        }
      ],
      "name": "approve",
      "outputs": [
        {
          "internalType": "bool",
          "name": "",
          "type": "bool"
        }
      ],
      "stateMutability": "nonpayable",
      "type": "function"
    },
    {
      "inputs": [
        {
          "internalType": "address",
          "name": "account",
          "type": "address"
        }
      ],
      "name": "balanceOf",
      "outputs": [
        {
          "internalType": "uint256",
          "name": "",
          "type": "uint256"
        }
      ],
      "stateMutability": "view",
      "type": "function"
    },
    {
      "inputs": [],
      "name": "decimals",
      "outputs": [
        {
          "internalType": "uint8",
          "name": "",
          "type": "uint8"
        }
      ],
      "stateMutability": "view",
      "type": "function"
    },
    {
      "inputs": [
        {
          "internalType": "address",
          "name": "spender",
          "type": "address"
        },
        {
          "internalType": "uint256",
          "name": "subtractedValue",
          "type": "uint256"
        }
      ],
      "name": "decreaseAllowance",
      "outputs": [
        {
          "internalType": "bool",
          "name": "",
          "type": "bool"
        }
      ],
      "stateMutability": "nonpayable",
      "type": "function"
    },
    {
      "inputs": [
        {
          "internalType": "uint256",
          "name": "amount",
          "type": "uint256"
        }
      ],
      "name": "getTokens",
      "outputs": [],
      "stateMutability": "nonpayable",
      "type": "function"
    },
    {
      "inputs": [
        {
          "internalType": "address",
          "name": "spender",
          "type": "address"
        },
        {
          "internalType": "uint256",
          "name": "addedValue",
          "type": "uint256"
        }
      ],
      "name": "increaseAllowance",
      "outputs": [
        {
          "internalType": "bool",
          "name": "",
          "type": "bool"
        }
      ],
      "stateMutability": "nonpayable",
      "type": "function"
    },
    {
      "inputs": [],
      "name": "name",
      "outputs": [
        {
          "internalType": "string",
          "name": "",
          "type": "string"
        }
      ],
      "stateMutability": "view",
      "type": "function"
    },
    {
      "inputs": [],
      "name": "symbol",
      "outputs": [
        {
          "internalType": "string",
          "name": "",
          "type": "string"
        }
      ],
      "stateMutability": "view",
      "type": "function"
    },
    {
      "inputs": [],
      "name": "totalSupply",
      "outputs": [
        {
          "internalType": "uint256",
          "name": "",
          "type": "uint256"
        }
      ],
      "stateMutability": "view",
      "type": "function"
    },
    {
      "inputs": [
        {
          "internalType": "address",
          "name": "to",
          "type": "address"
        },
        {
          "internalType": "uint256",
          "name": "amount",
          "type": "uint256"
        }
      ],
      "name": "transfer",
      "outputs": [
        {
          "internalType": "bool",
          "name": "",
          "type": "bool"
        }
      ],
      "stateMutability": "nonpayable",
      "type": "function"
    },
    {
      "inputs": [
        {
          "internalType": "address",
          "name": "from",
          "type": "address"
        },
        {
          "internalType": "address",
          "name": "to",
          "type": "address"
        },
        {
          "internalType": "uint256",
          "name": "amount",
          "type": "uint256"
        }
      ],
      "name": "transferFrom",
      "outputs": [
        {
          "internalType": "bool",
          "name": "",
          "type": "bool"
        }
      ],
      "stateMutability": "nonpayable",
      "type": "function"
    }
  ],
  "bytecode": "0x60806040523480156200001157600080fd5b506040516200177538038062001775833981810160405281019062000037919062000197565b818181600390805190602001906200005192919062000075565b5080600490805190602001906200006a92919062000075565b50505050506200033b565b8280546200008390620002a7565b90600052602060002090601f016020900481019282620000a75760008555620000f3565b82601f10620000c257805160ff1916838001178555620000f3565b82800160010185558215620000f3579182015b82811115620000f2578251825591602001919060010190620000d5565b5b50905062000102919062000106565b5090565b5b808211156200012157600081600090555060010162000107565b5090565b60006200013c62000136846200023e565b6200020a565b9050828152602081018484840111156200015557600080fd5b6200016284828562000271565b509392505050565b600082601f8301126200017c57600080fd5b81516200018e84826020860162000125565b91505092915050565b60008060408385031215620001ab57600080fd5b600083015167ffffffffffffffff811115620001c657600080fd5b620001d4858286016200016a565b925050602083015167ffffffffffffffff811115620001f257600080fd5b62000200858286016200016a565b9150509250929050565b6000604051905081810181811067ffffffffffffffff821117156200023457620002336200030c565b5b8060405250919050565b600067ffffffffffffffff8211156200025c576200025b6200030c565b5b601f19601f8301169050602081019050919050565b60005b838110156200029157808201518184015260208101905062000274565b83811115620002a1576000848401525b50505050565b60006002820490506001821680620002c057607f821691505b60208210811415620002d757620002d6620002dd565b5b50919050565b7f4e487b7100000000000000000000000000000000000000000000000000000000600052602260045260246000fd5b7f4e487b7100000000000000000000000000000000000000000000000000000000600052604160045260246000fd5b61142a806200034b6000396000f3fe608060405234801561001057600080fd5b50600436106100d45760003560e01c806370a0823111610081578063a9059cbb1161005b578063a9059cbb14610241578063d3c9cc2614610271578063dd62ed3e1461028d576100d4565b806370a08231146101c357806395d89b41146101f3578063a457c2d714610211576100d4565b806323b872dd116100b257806323b872dd14610145578063313ce567146101755780633950935114610193576100d4565b806306fdde03146100d9578063095ea7b3146100f757806318160ddd14610127575b600080fd5b6100e16102bd565b6040516100ee91906110d3565b60405180910390f35b610111600480360381019061010c9190610d09565b61034f565b60405161011e91906110b8565b60405180910390f35b61012f610372565b60405161013c91906111f5565b60405180910390f35b61015f600480360381019061015a9190610cba565b61037c565b60405161016c91906110b8565b60405180910390f35b61017d6103ab565b60405161018a9190611210565b60405180910390f35b6101ad60048036038101906101a89190610d09565b6103b4565b6040516101ba91906110b8565b60405180910390f35b6101dd60048036038101906101d89190610c55565b6103eb565b6040516101ea91906111f5565b60405180910390f35b6101fb610433565b60405161020891906110d3565b60405180910390f35b61022b60048036038101906102269190610d09565b6104c5565b60405161023891906110b8565b60405180910390f35b61025b60048036038101906102569190610d09565b61053c565b60405161026891906110b8565b60405180910390f35b61028b60048036038101906102869190610d45565b61055f565b005b6102a760048036038101906102a29190610c7e565b61056c565b6040516102b491906111f5565b60405180910390f35b6060600380546102cc90611325565b80601f01602080910402602001604051908101604052809291908181526020018280546102f890611325565b80156103455780601f1061031a57610100808354040283529160200191610345565b820191906000526020600020905b81548152906001019060200180831161032857829003601f168201915b5050505050905090565b60008061035a6105f3565b90506103678185856105fb565b600191505092915050565b6000600254905090565b6000806103876105f3565b90506103948582856107c6565b61039f858585610852565b60019150509392505050565b60006012905090565b6000806103bf6105f3565b90506103e08185856103d1858961056c565b6103db9190611247565b6105fb565b600191505092915050565b60008060008373ffffffffffffffffffffffffffffffffffffffff1673ffffffffffffffffffffffffffffffffffffffff168152602001908152602001600020549050919050565b60606004805461044290611325565b80601f016020809104026020016040519081016040528092919081815260200182805461046e90611325565b80156104bb5780601f10610490576101008083540402835291602001916104bb565b820191906000526020600020905b81548152906001019060200180831161049e57829003601f168201915b5050505050905090565b6000806104d06105f3565b905060006104de828661056c565b905083811015610523576040517f08c379a000000000000000000000000000000000000000000000000000000000815260040161051a906111b5565b60405180910390fd5b61053082868684036105fb565b60019250505092915050565b6000806105476105f3565b9050610554818585610852565b600191505092915050565b6105693382610aca565b50565b6000600160008473ffffffffffffffffffffffffffffffffffffffff1673ffffffffffffffffffffffffffffffffffffffff16815260200190815260200160002060008373ffffffffffffffffffffffffffffffffffffffff1673ffffffffffffffffffffffffffffffffffffffff16815260200190815260200160002054905092915050565b600033905090565b600073ffffffffffffffffffffffffffffffffffffffff168373ffffffffffffffffffffffffffffffffffffffff16141561066b576040517f08c379a000000000000000000000000000000000000000000000000000000000815260040161066290611195565b60405180910390fd5b600073ffffffffffffffffffffffffffffffffffffffff168273ffffffffffffffffffffffffffffffffffffffff1614156106db576040517f08c379a00000000000000000000000000000000000000000000000000000000081526004016106d290611115565b60405180910390fd5b80600160008573ffffffffffffffffffffffffffffffffffffffff1673ffffffffffffffffffffffffffffffffffffffff16815260200190815260200160002060008473ffffffffffffffffffffffffffffffffffffffff1673ffffffffffffffffffffffffffffffffffffffff168152602001908152602001600020819055508173ffffffffffffffffffffffffffffffffffffffff168373ffffffffffffffffffffffffffffffffffffffff167f8c5be1e5ebec7d5bd14f71427d1e84f3dd0314c0f7b2291e5b200ac8c7c3b925836040516107b991906111f5565b60405180910390a3505050565b60006107d2848461056c565b90507fffffffffffffffffffffffffffffffffffffffffffffffffffffffffffffffff811461084c578181101561083e576040517f08c379a000000000000000000000000000000000000000000000000000000000815260040161083590611135565b60405180910390fd5b61084b84848484036105fb565b5b50505050565b600073ffffffffffffffffffffffffffffffffffffffff168373ffffffffffffffffffffffffffffffffffffffff1614156108c2576040517f08c379a00000000000000000000000000000000000000000000000000000000081526004016108b990611175565b60405180910390fd5b600073ffffffffffffffffffffffffffffffffffffffff168273ffffffffffffffffffffffffffffffffffffffff161415610932576040517f08c379a0000000000000000000000000000000000000000000000000000000008152600401610929906110f5565b60405180910390fd5b61093d838383610c21565b60008060008573ffffffffffffffffffffffffffffffffffffffff1673ffffffffffffffffffffffffffffffffffffffff168152602001908152602001600020549050818110156109c3576040517f08c379a00000000000000000000000000000000000000000000000000000000081526004016109ba90611155565b60405180910390fd5b8181036000808673ffffffffffffffffffffffffffffffffffffffff1673ffffffffffffffffffffffffffffffffffffffff16815260200190815260200160002081905550816000808573ffffffffffffffffffffffffffffffffffffffff1673ffffffffffffffffffffffffffffffffffffffff168152602001908152602001600020600082825401925050819055508273ffffffffffffffffffffffffffffffffffffffff168473ffffffffffffffffffffffffffffffffffffffff167fddf252ad1be2c89b69c2b068fc378daa952ba7f163c4a11628f55a4df523b3ef84604051610ab191906111f5565b60405180910390a3610ac4848484610c26565b50505050565b600073ffffffffffffffffffffffffffffffffffffffff168273ffffffffffffffffffffffffffffffffffffffff161415610b3a576040517f08c379a0000000000000000000000000000000000000000000000000000000008152600401610b31906111d5565b60405180910390fd5b610b4660008383610c21565b8060026000828254610b589190611247565b92505081905550806000808473ffffffffffffffffffffffffffffffffffffffff1673ffffffffffffffffffffffffffffffffffffffff168152602001908152602001600020600082825401925050819055508173ffffffffffffffffffffffffffffffffffffffff16600073ffffffffffffffffffffffffffffffffffffffff167fddf252ad1be2c89b69c2b068fc378daa952ba7f163c4a11628f55a4df523b3ef83604051610c0991906111f5565b60405180910390a3610c1d60008383610c26565b5050565b505050565b505050565b600081359050610c3a816113c6565b92915050565b600081359050610c4f816113dd565b92915050565b600060208284031215610c6757600080fd5b6000610c7584828501610c2b565b91505092915050565b60008060408385031215610c9157600080fd5b6000610c9f85828601610c2b565b9250506020610cb085828601610c2b565b9150509250929050565b600080600060608486031215610ccf57600080fd5b6000610cdd86828701610c2b565b9350506020610cee86828701610c2b565b9250506040610cff86828701610c40565b9150509250925092565b60008060408385031215610d1c57600080fd5b6000610d2a85828601610c2b565b9250506020610d3b85828601610c40565b9150509250929050565b600060208284031215610d5757600080fd5b6000610d6584828501610c40565b91505092915050565b610d77816112af565b82525050565b6000610d888261122b565b610d928185611236565b9350610da28185602086016112f2565b610dab816113b5565b840191505092915050565b6000610dc3602383611236565b91507f45524332303a207472616e7366657220746f20746865207a65726f206164647260008301527f65737300000000000000000000000000000000000000000000000000000000006020830152604082019050919050565b6000610e29602283611236565b91507f45524332303a20617070726f766520746f20746865207a65726f20616464726560008301527f73730000000000000000000000000000000000000000000000000000000000006020830152604082019050919050565b6000610e8f601d83611236565b91507f45524332303a20696e73756666696369656e7420616c6c6f77616e63650000006000830152602082019050919050565b6000610ecf602683611236565b91507f45524332303a207472616e7366657220616d6f756e742065786365656473206260008301527f616c616e636500000000000000000000000000000000000000000000000000006020830152604082019050919050565b6000610f35602583611236565b91507f45524332303a207472616e736665722066726f6d20746865207a65726f20616460008301527f64726573730000000000000000000000000000000000000000000000000000006020830152604082019050919050565b6000610f9b602483611236565b91507f45524332303a20617070726f76652066726f6d20746865207a65726f2061646460008301527f72657373000000000000000000000000000000000000000000000000000000006020830152604082019050919050565b6000611001602583611236565b91507f45524332303a2064656372656173656420616c6c6f77616e63652062656c6f7760008301527f207a65726f0000000000000000000000000000000000000000000000000000006020830152604082019050919050565b6000611067601f83611236565b91507f45524332303a206d696e7420746f20746865207a65726f2061646472657373006000830152602082019050919050565b6110a3816112db565b82525050565b6110b2816112e5565b82525050565b60006020820190506110cd6000830184610d6e565b92915050565b600060208201905081810360008301526110ed8184610d7d565b905092915050565b6000602082019050818103600083015261110e81610db6565b9050919050565b6000602082019050818103600083015261112e81610e1c565b9050919050565b6000602082019050818103600083015261114e81610e82565b9050919050565b6000602082019050818103600083015261116e81610ec2565b9050919050565b6000602082019050818103600083015261118e81610f28565b9050919050565b600060208201905081810360008301526111ae81610f8e565b9050919050565b600060208201905081810360008301526111ce81610ff4565b9050919050565b600060208201905081810360008301526111ee8161105a565b9050919050565b600060208201905061120a600083018461109a565b92915050565b600060208201905061122560008301846110a9565b92915050565b600081519050919050565b600082825260208201905092915050565b6000611252826112db565b915061125d836112db565b9250827fffffffffffffffffffffffffffffffffffffffffffffffffffffffffffffffff0382111561129257611291611357565b5b828201905092915050565b60006112a8826112bb565b9050919050565b60008115159050919050565b600073ffffffffffffffffffffffffffffffffffffffff82169050919050565b6000819050919050565b600060ff82169050919050565b60005b838110156113105780820151818401526020810190506112f5565b8381111561131f576000848401525b50505050565b6000600282049050600182168061133d57607f821691505b6020821081141561135157611350611386565b5b50919050565b7f4e487b7100000000000000000000000000000000000000000000000000000000600052601160045260246000fd5b7f4e487b7100000000000000000000000000000000000000000000000000000000600052602260045260246000fd5b6000601f19601f8301169050919050565b6113cf8161129d565b81146113da57600080fd5b50565b6113e6816112db565b81146113f157600080fd5b5056fea2646970667358221220d3106618ccbf953ca24cdd0e3f292a030e2ecbb0fabccfc78d5e0f0c0a6d371664736f6c63430008000033",
  "linkReferences": {},
  "deployedLinkReferences": {}
}