{
  "_format": "hh-sol-artifact-1",
  "contractName": "SwapRouter",
  "sourceName": "contracts/periphery/SwapRouter.sol",
  "abi": [
    {
      "inputs": [
        {
          "internalType": "address",
          "name": "_factory",
          "type": "address"
        },
        {
          "internalType": "address",
          "name": "_WETH9",
          "type": "address"
        }
      ],
      "stateMutability": "nonpayable",
      "type": "constructor"
    },
    {
      "inputs": [],
      "name": "WETH9",
      "outputs": [
        {
          "internalType": "address",
          "name": "",
          "type": "address"
        }
      ],
      "stateMutability": "view",
      "type": "function"
    },
    {
      "inputs": [
        {
          "components": [
            {
              "internalType": "bytes",
              "name": "path",
              "type": "bytes"
            },
            {
              "internalType": "address",
              "name": "recipient",
              "type": "address"
            },
            {
              "internalType": "uint256",
              "name": "deadline",
              "type": "uint256"
            },
            {
              "internalType": "uint256",
              "name": "amountIn",
              "type": "uint256"
            },
            {
              "internalType": "uint256",
              "name": "amountOutMinimum",
              "type": "uint256"
            }
          ],
          "internalType": "struct ISwapRouter.ExactInputParams",
          "name": "params",
          "type": "tuple"
        }
      ],
      "name": "exactInput",
      "outputs": [
        {
          "internalType": "uint256",
          "name": "amountOut",
          "type": "uint256"
        }
      ],
      "stateMutability": "payable",
      "type": "function"
    },
    {
      "inputs": [
        {
          "components": [
            {
              "internalType": "address",
              "name": "tokenIn",
              "type": "address"
            },
            {
              "internalType": "address",
              "name": "tokenOut",
              "type": "address"
            },
            {
              "internalType": "uint24",
              "name": "fee",
              "type": "uint24"
            },
            {
              "internalType": "address",
              "name": "recipient",
              "type": "address"
            },
            {
              "internalType": "uint256",
              "name": "deadline",
              "type": "uint256"
            },
            {
              "internalType": "uint256",
              "name": "amountIn",
              "type": "uint256"
            },
            {
              "internalType": "uint256",
              "name": "amountOutMinimum",
              "type": "uint256"
            },
            {
              "internalType": "uint160",
              "name": "sqrtPriceLimitX96",
              "type": "uint160"
            }
          ],
          "internalType": "struct ISwapRouter.ExactInputSingleParams",
          "name": "params",
          "type": "tuple"
        }
      ],
      "name": "exactInputSingle",
      "outputs": [
        {
          "internalType": "uint256",
          "name": "amountOut",
          "type": "uint256"
        }
      ],
      "stateMutability": "payable",
      "type": "function"
    },
    {
      "inputs": [
        {
          "components": [
            {
              "internalType": "bytes",
              "name": "path",
              "type": "bytes"
            },
            {
              "internalType": "address",
              "name": "recipient",
              "type": "address"
            },
            {
              "internalType": "uint256",
              "name": "deadline",
              "type": "uint256"
            },
            {
              "internalType": "uint256",
              "name": "amountOut",
              "type": "uint256"
            },
            {
              "internalType": "uint256",
              "name": "amountInMaximum",
              "type": "uint256"
            }
          ],
          "internalType": "struct ISwapRouter.ExactOutputParams",
          "name": "params",
          "type": "tuple"
        }
      ],
      "name": "exactOutput",
      "outputs": [
        {
          "internalType": "uint256",
          "name": "amountIn",
          "type": "uint256"
        }
      ],
      "stateMutability": "payable",
      "type": "function"
    },
    {
      "inputs": [
        {
          "components": [
            {
              "internalType": "address",
              "name": "tokenIn",
              "type": "address"
            },
            {
              "internalType": "address",
              "name": "tokenOut",
              "type": "address"
            },
            {
              "internalType": "uint24",
              "name": "fee",
              "type": "uint24"
            },
            {
              "internalType": "address",
              "name": "recipient",
              "type": "address"
            },
            {
              "internalType": "uint256",
              "name": "deadline",
              "type": "uint256"
            },
            {
              "internalType": "uint256",
              "name": "amountOut",
              "type": "uint256"
            },
            {
              "internalType": "uint256",
              "name": "amountInMaximum",
              "type": "uint256"
            },
            {
              "internalType": "uint160",
              "name": "sqrtPriceLimitX96",
              "type": "uint160"
            }
          ],
          "internalType": "struct ISwapRouter.ExactOutputSingleParams",
          "name": "params",
          "type": "tuple"
        }
      ],
      "name": "exactOutputSingle",
      "outputs": [
        {
          "internalType": "uint256",
          "name": "amountIn",
          "type": "uint256"
        }
      ],
      "stateMutability": "payable",
      "type": "function"
    },
    {
      "inputs": [],
      "name": "factory",
      "outputs": [
        {
          "internalType": "address",
          "name": "",
          "type": "address"
        }
      ],
      "stateMutability": "view",
      "type": "function"
    },
    {
      "inputs": [
        {
          "internalType": "bytes[]",
          "name": "data",
          "type": "bytes[]"
        }
      ],
      "name": "multicall",
      "outputs": [
        {
          "internalType": "bytes[]",
          "name": "results",
          "type": "bytes[]"
        }
      ],
      "stateMutability": "payable",
      "type": "function"
    },
    {
      "inputs": [],
      "name": "refundETH",
      "outputs": [],
      "stateMutability": "payable",
      "type": "function"
    },
    {
      "inputs": [
        {
          "internalType": "address",
          "name": "token",
          "type": "address"
        },
        {
          "internalType": "uint256",
          "name": "value",
          "type": "uint256"
        },
        {
          "internalType": "uint256",
          "name": "deadline",
          "type": "uint256"
        },
        {
          "internalType": "uint8",
          "name": "v",
          "type": "uint8"
        },
        {
          "internalType": "bytes32",
          "name": "r",
          "type": "bytes32"
        },
        {
          "internalType": "bytes32",
          "name": "s",
          "type": "bytes32"
        }
      ],
      "name": "selfPermit",
      "outputs": [],
      "stateMutability": "payable",
      "type": "function"
    },
    {
      "inputs": [
        {
          "internalType": "address",
          "name": "token",
          "type": "address"
        },
        {
          "internalType": "uint256",
          "name": "nonce",
          "type": "uint256"
        },
        {
          "internalType": "uint256",
          "name": "expiry",
          "type": "uint256"
        },
        {
          "internalType": "uint8",
          "name": "v",
          "type": "uint8"
        },
        {
          "internalType": "bytes32",
          "name": "r",
          "type": "bytes32"
        },
        {
          "internalType": "bytes32",
          "name": "s",
          "type": "bytes32"
        }
      ],
      "name": "selfPermitAllowed",
      "outputs": [],
      "stateMutability": "payable",
      "type": "function"
    },
    {
      "inputs": [
        {
          "internalType": "address",
          "name": "token",
          "type": "address"
        },
        {
          "internalType": "uint256",
          "name": "nonce",
          "type": "uint256"
        },
        {
          "internalType": "uint256",
          "name": "expiry",
          "type": "uint256"
        },
        {
          "internalType": "uint8",
          "name": "v",
          "type": "uint8"
        },
        {
          "internalType": "bytes32",
          "name": "r",
          "type": "bytes32"
        },
        {
          "internalType": "bytes32",
          "name": "s",
          "type": "bytes32"
        }
      ],
      "name": "selfPermitAllowedIfNecessary",
      "outputs": [],
      "stateMutability": "payable",
      "type": "function"
    },
    {
      "inputs": [
        {
          "internalType": "address",
          "name": "token",
          "type": "address"
        },
        {
          "internalType": "uint256",
          "name": "value",
          "type": "uint256"
        },
        {
          "internalType": "uint256",
          "name": "deadline",
          "type": "uint256"
        },
        {
          "internalType": "uint8",
          "name": "v",
          "type": "uint8"
        },
        {
          "internalType": "bytes32",
          "name": "r",
          "type": "bytes32"
        },
        {
          "internalType": "bytes32",
          "name": "s",
          "type": "bytes32"
        }
      ],
      "name": "selfPermitIfNecessary",
      "outputs": [],
      "stateMutability": "payable",
      "type": "function"
    },
    {
      "inputs": [
        {
          "internalType": "address",
          "name": "token",
          "type": "address"
        },
        {
          "internalType": "uint256",
          "name": "amountMinimum",
          "type": "uint256"
        },
        {
          "internalType": "address",
          "name": "recipient",
          "type": "address"
        }
      ],
      "name": "sweepToken",
      "outputs": [],
      "stateMutability": "payable",
      "type": "function"
    },
    {
      "inputs": [
        {
          "internalType": "address",
          "name": "token",
          "type": "address"
        },
        {
          "internalType": "uint256",
          "name": "amountMinimum",
          "type": "uint256"
        },
        {
          "internalType": "address",
          "name": "recipient",
          "type": "address"
        },
        {
          "internalType": "uint256",
          "name": "feeBips",
          "type": "uint256"
        },
        {
          "internalType": "address",
          "name": "feeRecipient",
          "type": "address"
        }
      ],
      "name": "sweepTokenWithFee",
      "outputs": [],
      "stateMutability": "payable",
      "type": "function"
    },
    {
      "inputs": [
        {
          "internalType": "int256",
          "name": "amount0Delta",
          "type": "int256"
        },
        {
          "internalType": "int256",
          "name": "amount1Delta",
          "type": "int256"
        },
        {
          "internalType": "bytes",
          "name": "_data",
          "type": "bytes"
        }
      ],
      "name": "uniswapV3SwapCallback",
      "outputs": [],
      "stateMutability": "nonpayable",
      "type": "function"
    },
    {
      "inputs": [
        {
          "internalType": "uint256",
          "name": "amountMinimum",
          "type": "uint256"
        },
        {
          "internalType": "address",
          "name": "recipient",
          "type": "address"
        }
      ],
      "name": "unwrapWETH9",
      "outputs": [],
      "stateMutability": "payable",
      "type": "function"
    },
    {
      "inputs": [
        {
          "internalType": "uint256",
          "name": "amountMinimum",
          "type": "uint256"
        },
        {
          "internalType": "address",
          "name": "recipient",
          "type": "address"
        },
        {
          "internalType": "uint256",
          "name": "feeBips",
          "type": "uint256"
        },
        {
          "internalType": "address",
          "name": "feeRecipient",
          "type": "address"
        }
      ],
      "name": "unwrapWETH9WithFee",
      "outputs": [],
      "stateMutability": "payable",
      "type": "function"
    },
    {
      "stateMutability": "payable",
      "type": "receive"
    }
  ],
  "bytecode": "0x60c06040526000196000553480156200001757600080fd5b5060405162002b0f38038062002b0f8339810160408190526200003a9162000076565b6001600160601b0319606092831b8116608052911b1660a052620000ad565b80516001600160a01b03811681146200007157600080fd5b919050565b6000806040838503121562000089578182fd5b620000948362000059565b9150620000a46020840162000059565b90509250929050565b60805160601c60a05160601c612a066200010960003980610122528061050e5280610604528061069152806106d152806107c75280611906528061194c52806119c0525080610c3652806111745280611a9b5250612a066000f3fe6080604052600436106101125760003560e01c8063c04b8d59116100a5578063df2ab5bb11610074578063f28c049811610059578063f28c0498146102ce578063f3995c67146102e1578063fa461e33146102f457610196565b8063df2ab5bb146102a8578063e0e189a0146102bb57610196565b8063c04b8d591461025a578063c2e3140a1461026d578063c45a015514610280578063db3e21981461029557610196565b80634aa4a4fc116100e15780634aa4a4fc146101f25780639b2c0a3714610214578063a4a78f0c14610227578063ac9650d81461023a57610196565b806312210e8a1461019b578063414bf389146101a35780634659a494146101cc57806349404b7c146101df57610196565b3661019657336001600160a01b037f00000000000000000000000000000000000000000000000000000000000000001614610194576040805162461bcd60e51b815260206004820152600960248201527f4e6f742057455448390000000000000000000000000000000000000000000000604482015290519081900360640190fd5b005b600080fd5b610194610314565b6101b66101b136600461251f565b610326565b6040516101c391906128d3565b60405180910390f35b6101946101da36600461229d565b610457565b6101946101ed366004612626565b61050a565b3480156101fe57600080fd5b5061020761068f565b6040516101c39190612740565b610194610222366004612655565b6106b3565b61019461023536600461229d565b61088a565b61024d6102483660046122fd565b610934565b6040516101c39190612799565b6101b6610268366004612474565b610a6e565b61019461027b36600461229d565b610b8c565b34801561028c57600080fd5b50610207610c34565b6101b66102a336600461251f565b610c58565b6101946102b63660046121fe565b610d89565b6101946102c936600461223f565b610e72565b6101b66102dc36600461253b565b610fa4565b6101946102ef36600461229d565b6110a4565b34801561030057600080fd5b5061019461030f36600461238f565b61112f565b4715610324576103243347611242565b565b600081608001358061033661134b565b1115610389576040805162461bcd60e51b815260206004820152601360248201527f5472616e73616374696f6e20746f6f206f6c6400000000000000000000000000604482015290519081900360640190fd5b61042260a08401356103a160808601606087016121db565b6103b2610100870160e088016121db565b60408051808201909152806103ca60208a018a6121db565b6103da60608b0160408c01612603565b6103ea60408c0160208d016121db565b6040516020016103fc939291906126ca565b6040516020818303038152906040528152602001336001600160a01b031681525061134f565b91508260c001358210156104515760405162461bcd60e51b815260040161044890612861565b60405180910390fd5b50919050565b604080517f8fcbaf0c00000000000000000000000000000000000000000000000000000000815233600482015230602482015260448101879052606481018690526001608482015260ff851660a482015260c4810184905260e4810183905290516001600160a01b03881691638fcbaf0c9161010480830192600092919082900301818387803b1580156104ea57600080fd5b505af11580156104fe573d6000803e3d6000fd5b50505050505050505050565b60007f00000000000000000000000000000000000000000000000000000000000000006001600160a01b03166370a08231306040518263ffffffff1660e01b815260040180826001600160a01b0316815260200191505060206040518083038186803b15801561057957600080fd5b505afa15801561058d573d6000803e3d6000fd5b505050506040513d60208110156105a357600080fd5b50519050828110156105fc576040805162461bcd60e51b815260206004820152601260248201527f496e73756666696369656e742057455448390000000000000000000000000000604482015290519081900360640190fd5b801561068a577f00000000000000000000000000000000000000000000000000000000000000006001600160a01b0316632e1a7d4d826040518263ffffffff1660e01b815260040180828152602001915050600060405180830381600087803b15801561066857600080fd5b505af115801561067c573d6000803e3d6000fd5b5050505061068a8282611242565b505050565b7f000000000000000000000000000000000000000000000000000000000000000081565b6000821180156106c4575060648211155b6106cd57600080fd5b60007f00000000000000000000000000000000000000000000000000000000000000006001600160a01b03166370a08231306040518263ffffffff1660e01b815260040180826001600160a01b0316815260200191505060206040518083038186803b15801561073c57600080fd5b505afa158015610750573d6000803e3d6000fd5b505050506040513d602081101561076657600080fd5b50519050848110156107bf576040805162461bcd60e51b815260206004820152601260248201527f496e73756666696369656e742057455448390000000000000000000000000000604482015290519081900360640190fd5b8015610883577f00000000000000000000000000000000000000000000000000000000000000006001600160a01b0316632e1a7d4d826040518263ffffffff1660e01b815260040180828152602001915050600060405180830381600087803b15801561082b57600080fd5b505af115801561083f573d6000803e3d6000fd5b50505050600061271061085b85846114a190919063ffffffff16565b8161086257fe5b0490508015610875576108758382611242565b61088185828403611242565b505b5050505050565b604080517fdd62ed3e0000000000000000000000000000000000000000000000000000000081523360048201523060248201529051600019916001600160a01b0389169163dd62ed3e91604480820192602092909190829003018186803b1580156108f457600080fd5b505afa158015610908573d6000803e3d6000fd5b505050506040513d602081101561091e57600080fd5b5051101561088157610881868686868686610457565b60608167ffffffffffffffff8111801561094d57600080fd5b5060405190808252806020026020018201604052801561098157816020015b606081526020019060019003908161096c5790505b50905060005b82811015610a67576000803086868581811061099f57fe5b90506020028101906109b191906128dc565b6040516109bf929190612730565b600060405180830381855af49150503d80600081146109fa576040519150601f19603f3d011682016040523d82523d6000602084013e6109ff565b606091505b509150915081610a4557604481511015610a1857600080fd5b80806020019051810190610a2c919061240a565b60405162461bcd60e51b81526004016104489190612817565b80848481518110610a5257fe5b60209081029190910101525050600101610987565b5092915050565b6000816040015180610a7e61134b565b1115610ad1576040805162461bcd60e51b815260206004820152601360248201527f5472616e73616374696f6e20746f6f206f6c6400000000000000000000000000604482015290519081900360640190fd5b335b6000610ae285600001516114cb565b9050610b2e856060015182610afb578660200151610afd565b305b60006040518060400160405280610b178b600001516114d7565b8152602001876001600160a01b031681525061134f565b60608601528015610b4e578451309250610b47906114e6565b8552610b5b565b8460600151935050610b61565b50610ad3565b8360800151831015610b855760405162461bcd60e51b815260040161044890612861565b5050919050565b604080517fdd62ed3e000000000000000000000000000000000000000000000000000000008152336004820152306024820152905186916001600160a01b0389169163dd62ed3e91604480820192602092909190829003018186803b158015610bf457600080fd5b505afa158015610c08573d6000803e3d6000fd5b505050506040513d6020811015610c1e57600080fd5b50511015610881576108818686868686866110a4565b7f000000000000000000000000000000000000000000000000000000000000000081565b6000816080013580610c6861134b565b1115610cbb576040805162461bcd60e51b815260206004820152601360248201527f5472616e73616374696f6e20746f6f206f6c6400000000000000000000000000604482015290519081900360640190fd5b610d5760a0840135610cd360808601606087016121db565b610ce4610100870160e088016121db565b6040518060400160405280886020016020810190610d0291906121db565b610d1260608b0160408c01612603565b610d1f60208c018c6121db565b604051602001610d31939291906126ca565b6040516020818303038152906040528152602001336001600160a01b031681525061151b565b91508260c00135821115610d7d5760405162461bcd60e51b81526004016104489061282a565b50600019600055919050565b6000836001600160a01b03166370a08231306040518263ffffffff1660e01b815260040180826001600160a01b0316815260200191505060206040518083038186803b158015610dd857600080fd5b505afa158015610dec573d6000803e3d6000fd5b505050506040513d6020811015610e0257600080fd5b5051905082811015610e5b576040805162461bcd60e51b815260206004820152601260248201527f496e73756666696369656e7420746f6b656e0000000000000000000000000000604482015290519081900360640190fd5b8015610e6c57610e6c848383611696565b50505050565b600082118015610e83575060648211155b610e8c57600080fd5b6000856001600160a01b03166370a08231306040518263ffffffff1660e01b815260040180826001600160a01b0316815260200191505060206040518083038186803b158015610edb57600080fd5b505afa158015610eef573d6000803e3d6000fd5b505050506040513d6020811015610f0557600080fd5b5051905084811015610f5e576040805162461bcd60e51b815260206004820152601260248201527f496e73756666696369656e7420746f6b656e0000000000000000000000000000604482015290519081900360640190fd5b8015610881576000612710610f7383866114a1565b81610f7a57fe5b0490508015610f8e57610f8e878483611696565b610f9b8786838503611696565b50505050505050565b6000816040013580610fb461134b565b1115611007576040805162461bcd60e51b815260206004820152601360248201527f5472616e73616374696f6e20746f6f206f6c6400000000000000000000000000604482015290519081900360640190fd5b61107a606084013561101f60408601602087016121db565b604080518082019091526000908061103789806128dc565b8080601f0160208091040260200160405190810160405280939291908181526020018383808284376000920191909152505050908252503360209091015261151b565b5060005491508260800135821115610d7d5760405162461bcd60e51b81526004016104489061282a565b604080517fd505accf000000000000000000000000000000000000000000000000000000008152336004820152306024820152604481018790526064810186905260ff8516608482015260a4810184905260c4810183905290516001600160a01b0388169163d505accf9160e480830192600092919082900301818387803b1580156104ea57600080fd5b600084138061113e5750600083135b61114757600080fd5b600061115582840184612573565b905060008060006111698460000151611826565b92509250925061119b7f0000000000000000000000000000000000000000000000000000000000000000848484611857565b5060008060008a136111c257846001600160a01b0316846001600160a01b031610896111d9565b836001600160a01b0316856001600160a01b0316108a5b9150915081156111f8576111f38587602001513384611876565b6104fe565b8551611203906114cb565b15611228578551611213906114e6565b8652611222813360008961151b565b506104fe565b806000819055508394506104fe8587602001513384611876565b604080516000808252602082019092526001600160a01b0384169083906040518082805190602001908083835b6020831061128e5780518252601f19909201916020918201910161126f565b6001836020036101000a03801982511681845116808217855250505050505090500191505060006040518083038185875af1925050503d80600081146112f0576040519150601f19603f3d011682016040523d82523d6000602084013e6112f5565b606091505b505090508061068a576040805162461bcd60e51b815260206004820152600360248201527f5354450000000000000000000000000000000000000000000000000000000000604482015290519081900360640190fd5b4290565b60006001600160a01b038416611363573093505b60008060006113758560000151611826565b919450925090506001600160a01b0380831690841610600080611399868686611a94565b6001600160a01b031663128acb088b856113b28f611ad2565b6001600160a01b038e16156113c7578d6113ed565b876113e65773fffd8963efd1fc6a506488495d951d5263988d256113ed565b6401000276a45b8d6040516020016113fe9190612898565b6040516020818303038152906040526040518663ffffffff1660e01b815260040161142d959493929190612754565b6040805180830381600087803b15801561144657600080fd5b505af115801561145a573d6000803e3d6000fd5b505050506040513d601f19601f8201168201806040525081019061147e919061236c565b915091508261148d578161148f565b805b6000039b9a5050505050505050505050565b60008215806114bc575050818102818382816114b957fe5b04145b6114c557600080fd5b92915050565b8051604211155b919050565b60606114c5826000602b611b04565b80516060906114c59083906017907fffffffffffffffffffffffffffffffffffffffffffffffffffffffffffffffe901611b04565b60006001600160a01b03841661152f573093505b60008060006115418560000151611826565b919450925090506001600160a01b0380841690831610600080611565858786611a94565b6001600160a01b031663128acb088b8561157e8f611ad2565b6000036001600160a01b038e1615611596578d6115bc565b876115b55773fffd8963efd1fc6a506488495d951d5263988d256115bc565b6401000276a45b8d6040516020016115cd9190612898565b6040516020818303038152906040526040518663ffffffff1660e01b81526004016115fc959493929190612754565b6040805180830381600087803b15801561161557600080fd5b505af1158015611629573d6000803e3d6000fd5b505050506040513d601f19601f8201168201806040525081019061164d919061236c565b91509150600083611662578183600003611668565b82826000035b90985090506001600160a01b038a16611687578b811461168757600080fd5b50505050505050949350505050565b604080516001600160a01b038481166024830152604480830185905283518084039091018152606490920183526020820180517bffffffffffffffffffffffffffffffffffffffffffffffffffffffff167fa9059cbb000000000000000000000000000000000000000000000000000000001781529251825160009485949389169392918291908083835b602083106117405780518252601f199092019160209182019101611721565b6001836020036101000a0380198251168184511680821785525050505050509050019150506000604051808303816000865af19150503d80600081146117a2576040519150601f19603f3d011682016040523d82523d6000602084013e6117a7565b606091505b50915091508180156117d55750805115806117d557508080602001905160208110156117d257600080fd5b50515b610883576040805162461bcd60e51b815260206004820152600260248201527f5354000000000000000000000000000000000000000000000000000000000000604482015290519081900360640190fd5b600080806118348482611c7f565b9250611841846014611d4b565b905061184e846017611c7f565b91509193909250565b600061186d85611868868686611e07565b611e5d565b95945050505050565b61188284848484611e80565b611904846001600160a01b03166370a08231856040518263ffffffff1660e01b815260040180826001600160a01b0316815260200191505060206040518083038186803b1580156118d257600080fd5b505afa1580156118e6573d6000803e3d6000fd5b505050506040513d60208110156118fc57600080fd5b505182611f0e565b7f00000000000000000000000000000000000000000000000000000000000000006001600160a01b0316846001600160a01b03161480156119455750804710155b15611a67577f00000000000000000000000000000000000000000000000000000000000000006001600160a01b031663d0e30db0826040518263ffffffff1660e01b81526004016000604051808303818588803b1580156119a557600080fd5b505af11580156119b9573d6000803e3d6000fd5b50505050507f00000000000000000000000000000000000000000000000000000000000000006001600160a01b031663a9059cbb83836040518363ffffffff1660e01b815260040180836001600160a01b0316815260200182815260200192505050602060405180830381600087803b158015611a3557600080fd5b505af1158015611a49573d6000803e3d6000fd5b505050506040513d6020811015611a5f57600080fd5b50610e6c9050565b6001600160a01b038316301415611a8857611a83848383611696565b610e6c565b610e6c84848484611f88565b6000611aca7f0000000000000000000000000000000000000000000000000000000000000000611ac5868686611e07565b61207c565b949350505050565b60007f80000000000000000000000000000000000000000000000000000000000000008210611b0057600080fd5b5090565b60608182601f011015611b5e576040805162461bcd60e51b815260206004820152600e60248201527f736c6963655f6f766572666c6f77000000000000000000000000000000000000604482015290519081900360640190fd5b828284011015611bb5576040805162461bcd60e51b815260206004820152600e60248201527f736c6963655f6f766572666c6f77000000000000000000000000000000000000604482015290519081900360640190fd5b81830184511015611c0d576040805162461bcd60e51b815260206004820152601160248201527f736c6963655f6f75744f66426f756e6473000000000000000000000000000000604482015290519081900360640190fd5b606082158015611c2c5760405191506000825260208201604052611c76565b6040519150601f8416801560200281840101858101878315602002848b0101015b81831015611c65578051835260209283019201611c4d565b5050858452601f01601f1916604052505b50949350505050565b600081826014011015611cd9576040805162461bcd60e51b815260206004820152601260248201527f746f416464726573735f6f766572666c6f770000000000000000000000000000604482015290519081900360640190fd5b8160140183511015611d32576040805162461bcd60e51b815260206004820152601560248201527f746f416464726573735f6f75744f66426f756e64730000000000000000000000604482015290519081900360640190fd5b5001602001516c01000000000000000000000000900490565b600081826003011015611da5576040805162461bcd60e51b815260206004820152601160248201527f746f55696e7432345f6f766572666c6f77000000000000000000000000000000604482015290519081900360640190fd5b8160030183511015611dfe576040805162461bcd60e51b815260206004820152601460248201527f746f55696e7432345f6f75744f66426f756e6473000000000000000000000000604482015290519081900360640190fd5b50016003015190565b611e0f61214d565b826001600160a01b0316846001600160a01b03161115611e2d579192915b50604080516060810182526001600160a01b03948516815292909316602083015262ffffff169181019190915290565b6000611e69838361207c565b9050336001600160a01b038216146114c557600080fd5b604080516001600160a01b03808716602483015280861660448301528416606482015260848082018490528251808303909101815260a49091019091526020810180517bffffffffffffffffffffffffffffffffffffffffffffffffffffffff167f94250d7700000000000000000000000000000000000000000000000000000000179052610e6c9061212c565b604080516024810184905260448082018490528251808303909101815260649091019091526020810180517bffffffffffffffffffffffffffffffffffffffffffffffffffffffff167ff666715a00000000000000000000000000000000000000000000000000000000179052611f849061212c565b5050565b604080517f23b872dd0000000000000000000000000000000000000000000000000000000081526001600160a01b03858116600483015284811660248301526044820184905291516000928716916323b872dd91606480830192602092919082900301818787803b158015611ffc57600080fd5b505af1158015612010573d6000803e3d6000fd5b505050506040513d602081101561202657600080fd5b5051905080610883576040805162461bcd60e51b815260206004820152600360248201527f5354460000000000000000000000000000000000000000000000000000000000604482015290519081900360640190fd5b805160208083015160408085015181517f1698ee820000000000000000000000000000000000000000000000000000000081526001600160a01b039586166004820152928516602484015262ffffff16604483015251600093861692631698ee829260648082019391829003018186803b1580156120f957600080fd5b505afa15801561210d573d6000803e3d6000fd5b505050506040513d602081101561212357600080fd5b50519392505050565b80516a636f6e736f6c652e6c6f67602083016000808483855afa5050505050565b604080516060810182526000808252602082018190529181019190915290565b80356114d2816129b8565b600082601f830112612188578081fd5b813561219b6121968261296a565b612946565b8181528460208386010111156121af578283fd5b816020850160208301379081016020019190915292915050565b60006101008284031215610451578081fd5b6000602082840312156121ec578081fd5b81356121f7816129b8565b9392505050565b600080600060608486031215612212578182fd5b833561221d816129b8565b9250602084013591506040840135612234816129b8565b809150509250925092565b600080600080600060a08688031215612256578081fd5b8535612261816129b8565b9450602086013593506040860135612278816129b8565b925060608601359150608086013561228f816129b8565b809150509295509295909350565b60008060008060008060c087890312156122b5578081fd5b86356122c0816129b8565b95506020870135945060408701359350606087013560ff811681146122e3578182fd5b9598949750929560808101359460a0909101359350915050565b6000806020838503121561230f578182fd5b823567ffffffffffffffff80821115612326578384fd5b818501915085601f830112612339578384fd5b813581811115612347578485fd5b866020808302850101111561235a578485fd5b60209290920196919550909350505050565b6000806040838503121561237e578182fd5b505080516020909101519092909150565b600080600080606085870312156123a4578182fd5b8435935060208501359250604085013567ffffffffffffffff808211156123c9578384fd5b818701915087601f8301126123dc578384fd5b8135818111156123ea578485fd5b8860208285010111156123fb578485fd5b95989497505060200194505050565b60006020828403121561241b578081fd5b815167ffffffffffffffff811115612431578182fd5b8201601f81018413612441578182fd5b805161244f6121968261296a565b818152856020838501011115612463578384fd5b61186d82602083016020860161298c565b600060208284031215612485578081fd5b813567ffffffffffffffff8082111561249c578283fd5b9083019060a082860312156124af578283fd5b60405160a0810181811083821117156124c457fe5b6040528235828111156124d5578485fd5b6124e187828601612178565b8252506124f06020840161216d565b602082015260408301356040820152606083013560608201526080830135608082015280935050505092915050565b60006101008284031215612531578081fd5b6121f783836121c9565b60006020828403121561254c578081fd5b813567ffffffffffffffff811115612562578182fd5b820160a081850312156121f7578182fd5b600060208284031215612584578081fd5b813567ffffffffffffffff8082111561259b578283fd5b90830190604082860312156125ae578283fd5b6040516040810181811083821117156125c357fe5b6040528235828111156125d4578485fd5b6125e087828601612178565b825250602083013592506125f3836129b8565b6020810192909252509392505050565b600060208284031215612614578081fd5b813562ffffff811681146121f7578182fd5b60008060408385031215612638578182fd5b82359150602083013561264a816129b8565b809150509250929050565b6000806000806080858703121561266a578182fd5b84359350602085013561267c816129b8565b9250604085013591506060850135612693816129b8565b939692955090935050565b600081518084526126b681602086016020860161298c565b601f01601f19169290920160200192915050565b606093841b7fffffffffffffffffffffffffffffffffffffffff000000000000000000000000908116825260e89390931b7fffffff0000000000000000000000000000000000000000000000000000000000166014820152921b166017820152602b0190565b6000828483379101908152919050565b6001600160a01b0391909116815260200190565b60006001600160a01b038088168352861515602084015285604084015280851660608401525060a0608083015261278e60a083018461269e565b979650505050505050565b6000602080830181845280855180835260408601915060408482028701019250838701855b8281101561280a577fffffffffffffffffffffffffffffffffffffffffffffffffffffffffffffffc08886030184526127f885835161269e565b945092850192908501906001016127be565b5092979650505050505050565b6000602082526121f7602083018461269e565b60208082526012908201527f546f6f206d756368207265717565737465640000000000000000000000000000604082015260600190565b60208082526013908201527f546f6f206c6974746c6520726563656976656400000000000000000000000000604082015260600190565b6000602082528251604060208401526128b4606084018261269e565b90506001600160a01b0360208501511660408401528091505092915050565b90815260200190565b60008083357fffffffffffffffffffffffffffffffffffffffffffffffffffffffffffffffe1843603018112612910578283fd5b83018035915067ffffffffffffffff82111561292a578283fd5b60200191503681900382131561293f57600080fd5b9250929050565b60405181810167ffffffffffffffff8111828210171561296257fe5b604052919050565b600067ffffffffffffffff82111561297e57fe5b50601f01601f191660200190565b60005b838110156129a757818101518382015260200161298f565b83811115610e6c5750506000910152565b6001600160a01b03811681146129cd57600080fd5b5056fea26469706673582212206b5eb339960756924f8e52f8553518c910a83b2f2c24626f3fd06a35be9c0eb264736f6c63430007060033",
  "linkReferences": {},
  "deployedLinkReferences": {}
}