{
  "_format": "hh-sol-artifact-1",
  "contractName": "SyrupBar",
  "sourceName": "contracts/pancekeswap-fork/utils/SyrupBar.sol",
  "abi": [
    {
      "inputs": [
        {
          "internalType": "contract CakeToken",
          "name": "_cake",
          "type": "address"
        }
      ],
      "stateMutability": "nonpayable",
      "type": "constructor"
    },
    {
      "anonymous": false,
      "inputs": [
        {
          "indexed": true,
          "internalType": "address",
          "name": "owner",
          "type": "address"
        },
        {
          "indexed": true,
          "internalType": "address",
          "name": "spender",
          "type": "address"
        },
        {
          "indexed": false,
          "internalType": "uint256",
          "name": "value",
          "type": "uint256"
        }
      ],
      "name": "Approval",
      "type": "event"
    },
    {
      "anonymous": false,
      "inputs": [
        {
          "indexed": true,
          "internalType": "address",
          "name": "delegator",
          "type": "address"
        },
        {
          "indexed": true,
          "internalType": "address",
          "name": "fromDelegate",
          "type": "address"
        },
        {
          "indexed": true,
          "internalType": "address",
          "name": "toDelegate",
          "type": "address"
        }
      ],
      "name": "DelegateChanged",
      "type": "event"
    },
    {
      "anonymous": false,
      "inputs": [
        {
          "indexed": true,
          "internalType": "address",
          "name": "delegate",
          "type": "address"
        },
        {
          "indexed": false,
          "internalType": "uint256",
          "name": "previousBalance",
          "type": "uint256"
        },
        {
          "indexed": false,
          "internalType": "uint256",
          "name": "newBalance",
          "type": "uint256"
        }
      ],
      "name": "DelegateVotesChanged",
      "type": "event"
    },
    {
      "anonymous": false,
      "inputs": [
        {
          "indexed": true,
          "internalType": "address",
          "name": "previousOwner",
          "type": "address"
        },
        {
          "indexed": true,
          "internalType": "address",
          "name": "newOwner",
          "type": "address"
        }
      ],
      "name": "OwnershipTransferred",
      "type": "event"
    },
    {
      "anonymous": false,
      "inputs": [
        {
          "indexed": true,
          "internalType": "address",
          "name": "from",
          "type": "address"
        },
        {
          "indexed": true,
          "internalType": "address",
          "name": "to",
          "type": "address"
        },
        {
          "indexed": false,
          "internalType": "uint256",
          "name": "value",
          "type": "uint256"
        }
      ],
      "name": "Transfer",
      "type": "event"
    },
    {
      "inputs": [],
      "name": "DELEGATION_TYPEHASH",
      "outputs": [
        {
          "internalType": "bytes32",
          "name": "",
          "type": "bytes32"
        }
      ],
      "stateMutability": "view",
      "type": "function"
    },
    {
      "inputs": [],
      "name": "DOMAIN_TYPEHASH",
      "outputs": [
        {
          "internalType": "bytes32",
          "name": "",
          "type": "bytes32"
        }
      ],
      "stateMutability": "view",
      "type": "function"
    },
    {
      "inputs": [
        {
          "internalType": "address",
          "name": "owner",
          "type": "address"
        },
        {
          "internalType": "address",
          "name": "spender",
          "type": "address"
        }
      ],
      "name": "allowance",
      "outputs": [
        {
          "internalType": "uint256",
          "name": "",
          "type": "uint256"
        }
      ],
      "stateMutability": "view",
      "type": "function"
    },
    {
      "inputs": [
        {
          "internalType": "address",
          "name": "spender",
          "type": "address"
        },
        {
          "internalType": "uint256",
          "name": "amount",
          "type": "uint256"
        }
      ],
      "name": "approve",
      "outputs": [
        {
          "internalType": "bool",
          "name": "",
          "type": "bool"
        }
      ],
      "stateMutability": "nonpayable",
      "type": "function"
    },
    {
      "inputs": [
        {
          "internalType": "address",
          "name": "account",
          "type": "address"
        }
      ],
      "name": "balanceOf",
      "outputs": [
        {
          "internalType": "uint256",
          "name": "",
          "type": "uint256"
        }
      ],
      "stateMutability": "view",
      "type": "function"
    },
    {
      "inputs": [
        {
          "internalType": "address",
          "name": "_from",
          "type": "address"
        },
        {
          "internalType": "uint256",
          "name": "_amount",
          "type": "uint256"
        }
      ],
      "name": "burn",
      "outputs": [],
      "stateMutability": "nonpayable",
      "type": "function"
    },
    {
      "inputs": [],
      "name": "cake",
      "outputs": [
        {
          "internalType": "contract CakeToken",
          "name": "",
          "type": "address"
        }
      ],
      "stateMutability": "view",
      "type": "function"
    },
    {
      "inputs": [
        {
          "internalType": "address",
          "name": "",
          "type": "address"
        },
        {
          "internalType": "uint32",
          "name": "",
          "type": "uint32"
        }
      ],
      "name": "checkpoints",
      "outputs": [
        {
          "internalType": "uint32",
          "name": "fromBlock",
          "type": "uint32"
        },
        {
          "internalType": "uint256",
          "name": "votes",
          "type": "uint256"
        }
      ],
      "stateMutability": "view",
      "type": "function"
    },
    {
      "inputs": [],
      "name": "decimals",
      "outputs": [
        {
          "internalType": "uint8",
          "name": "",
          "type": "uint8"
        }
      ],
      "stateMutability": "view",
      "type": "function"
    },
    {
      "inputs": [
        {
          "internalType": "address",
          "name": "spender",
          "type": "address"
        },
        {
          "internalType": "uint256",
          "name": "subtractedValue",
          "type": "uint256"
        }
      ],
      "name": "decreaseAllowance",
      "outputs": [
        {
          "internalType": "bool",
          "name": "",
          "type": "bool"
        }
      ],
      "stateMutability": "nonpayable",
      "type": "function"
    },
    {
      "inputs": [
        {
          "internalType": "address",
          "name": "delegatee",
          "type": "address"
        }
      ],
      "name": "delegate",
      "outputs": [],
      "stateMutability": "nonpayable",
      "type": "function"
    },
    {
      "inputs": [
        {
          "internalType": "address",
          "name": "delegatee",
          "type": "address"
        },
        {
          "internalType": "uint256",
          "name": "nonce",
          "type": "uint256"
        },
        {
          "internalType": "uint256",
          "name": "expiry",
          "type": "uint256"
        },
        {
          "internalType": "uint8",
          "name": "v",
          "type": "uint8"
        },
        {
          "internalType": "bytes32",
          "name": "r",
          "type": "bytes32"
        },
        {
          "internalType": "bytes32",
          "name": "s",
          "type": "bytes32"
        }
      ],
      "name": "delegateBySig",
      "outputs": [],
      "stateMutability": "nonpayable",
      "type": "function"
    },
    {
      "inputs": [
        {
          "internalType": "address",
          "name": "delegator",
          "type": "address"
        }
      ],
      "name": "delegates",
      "outputs": [
        {
          "internalType": "address",
          "name": "",
          "type": "address"
        }
      ],
      "stateMutability": "view",
      "type": "function"
    },
    {
      "inputs": [
        {
          "internalType": "address",
          "name": "account",
          "type": "address"
        }
      ],
      "name": "getCurrentVotes",
      "outputs": [
        {
          "internalType": "uint256",
          "name": "",
          "type": "uint256"
        }
      ],
      "stateMutability": "view",
      "type": "function"
    },
    {
      "inputs": [
        {
          "internalType": "address",
          "name": "account",
          "type": "address"
        },
        {
          "internalType": "uint256",
          "name": "blockNumber",
          "type": "uint256"
        }
      ],
      "name": "getPriorVotes",
      "outputs": [
        {
          "internalType": "uint256",
          "name": "",
          "type": "uint256"
        }
      ],
      "stateMutability": "view",
      "type": "function"
    },
    {
      "inputs": [
        {
          "internalType": "address",
          "name": "spender",
          "type": "address"
        },
        {
          "internalType": "uint256",
          "name": "addedValue",
          "type": "uint256"
        }
      ],
      "name": "increaseAllowance",
      "outputs": [
        {
          "internalType": "bool",
          "name": "",
          "type": "bool"
        }
      ],
      "stateMutability": "nonpayable",
      "type": "function"
    },
    {
      "inputs": [
        {
          "internalType": "address",
          "name": "_to",
          "type": "address"
        },
        {
          "internalType": "uint256",
          "name": "_amount",
          "type": "uint256"
        }
      ],
      "name": "mint",
      "outputs": [],
      "stateMutability": "nonpayable",
      "type": "function"
    },
    {
      "inputs": [],
      "name": "name",
      "outputs": [
        {
          "internalType": "string",
          "name": "",
          "type": "string"
        }
      ],
      "stateMutability": "view",
      "type": "function"
    },
    {
      "inputs": [
        {
          "internalType": "address",
          "name": "",
          "type": "address"
        }
      ],
      "name": "nonces",
      "outputs": [
        {
          "internalType": "uint256",
          "name": "",
          "type": "uint256"
        }
      ],
      "stateMutability": "view",
      "type": "function"
    },
    {
      "inputs": [
        {
          "internalType": "address",
          "name": "",
          "type": "address"
        }
      ],
      "name": "numCheckpoints",
      "outputs": [
        {
          "internalType": "uint32",
          "name": "",
          "type": "uint32"
        }
      ],
      "stateMutability": "view",
      "type": "function"
    },
    {
      "inputs": [],
      "name": "owner",
      "outputs": [
        {
          "internalType": "address",
          "name": "",
          "type": "address"
        }
      ],
      "stateMutability": "view",
      "type": "function"
    },
    {
      "inputs": [],
      "name": "renounceOwnership",
      "outputs": [],
      "stateMutability": "nonpayable",
      "type": "function"
    },
    {
      "inputs": [
        {
          "internalType": "address",
          "name": "_to",
          "type": "address"
        },
        {
          "internalType": "uint256",
          "name": "_amount",
          "type": "uint256"
        }
      ],
      "name": "safeCakeTransfer",
      "outputs": [],
      "stateMutability": "nonpayable",
      "type": "function"
    },
    {
      "inputs": [],
      "name": "symbol",
      "outputs": [
        {
          "internalType": "string",
          "name": "",
          "type": "string"
        }
      ],
      "stateMutability": "view",
      "type": "function"
    },
    {
      "inputs": [],
      "name": "totalSupply",
      "outputs": [
        {
          "internalType": "uint256",
          "name": "",
          "type": "uint256"
        }
      ],
      "stateMutability": "view",
      "type": "function"
    },
    {
      "inputs": [
        {
          "internalType": "address",
          "name": "to",
          "type": "address"
        },
        {
          "internalType": "uint256",
          "name": "amount",
          "type": "uint256"
        }
      ],
      "name": "transfer",
      "outputs": [
        {
          "internalType": "bool",
          "name": "",
          "type": "bool"
        }
      ],
      "stateMutability": "nonpayable",
      "type": "function"
    },
    {
      "inputs": [
        {
          "internalType": "address",
          "name": "from",
          "type": "address"
        },
        {
          "internalType": "address",
          "name": "to",
          "type": "address"
        },
        {
          "internalType": "uint256",
          "name": "amount",
          "type": "uint256"
        }
      ],
      "name": "transferFrom",
      "outputs": [
        {
          "internalType": "bool",
          "name": "",
          "type": "bool"
        }
      ],
      "stateMutability": "nonpayable",
      "type": "function"
    },
    {
      "inputs": [
        {
          "internalType": "address",
          "name": "newOwner",
          "type": "address"
        }
      ],
      "name": "transferOwnership",
      "outputs": [],
      "stateMutability": "nonpayable",
      "type": "function"
    }
  ],
  "bytecode": "0x60806040523480156200001157600080fd5b5060405162002209380380620022098339810160408190526200003491620001dc565b604080518082018252600e81526d29bcb93ab82130b9102a37b5b2b760911b602080830191825283518085019094526005845264053595255560dc1b908401528151919291620000879160039162000136565b5080516200009d90600490602084019062000136565b505050620000ba620000b4620000e060201b60201c565b620000e4565b600680546001600160a01b0319166001600160a01b039290921691909117905562000249565b3390565b600580546001600160a01b038381166001600160a01b0319831681179093556040519116919082907f8be0079c531659141344cd1fd0a4f28419497f9722a3daafe3b4186f6b6457e090600090a35050565b82805462000144906200020c565b90600052602060002090601f016020900481019282620001685760008555620001b3565b82601f106200018357805160ff1916838001178555620001b3565b82800160010185558215620001b3579182015b82811115620001b357825182559160200191906001019062000196565b50620001c1929150620001c5565b5090565b5b80821115620001c15760008155600101620001c6565b600060208284031215620001ee578081fd5b81516001600160a01b038116811462000205578182fd5b9392505050565b6002810460018216806200022157607f821691505b602082108114156200024357634e487b7160e01b600052602260045260246000fd5b50919050565b611fb080620002596000396000f3fe608060405234801561001057600080fd5b50600436106101c45760003560e01c80637ecebe00116100f9578063b4b5ea5711610097578063dd62ed3e11610071578063dd62ed3e14610392578063e7a324dc146103a5578063f1127ed8146103ad578063f2fde38b146103ce576101c4565b8063b4b5ea5714610364578063c3cda52014610377578063dce174841461038a576101c4565b80639dc29fac116100d35780639dc29fac14610318578063a2e6ddcc1461032b578063a457c2d71461033e578063a9059cbb14610351576101c4565b80637ecebe00146102f55780638da5cb5b1461030857806395d89b4114610310576101c4565b806340c10f19116101665780636fcfff45116101405780636fcfff45146102a757806370a08231146102c7578063715018a6146102da578063782d6fe1146102e2576101c4565b806340c10f191461025f578063587cde1e146102745780635c19a95c14610294576101c4565b806320606b70116101a257806320606b701461021c57806323b872dd14610224578063313ce56714610237578063395093511461024c576101c4565b806306fdde03146101c9578063095ea7b3146101e757806318160ddd14610207575b600080fd5b6101d16103e1565b6040516101de919061183d565b60405180910390f35b6101fa6101f5366004611663565b610473565b6040516101de91906117c3565b61020f610497565b6040516101de91906117ce565b61020f61049d565b6101fa610232366004611628565b6104c1565b61023f6104ef565b6040516101de9190611e21565b6101fa61025a366004611663565b6104f4565b61027261026d366004611663565b610520565b005b6102876102823660046115dc565b61055b565b6040516101de9190611796565b6102726102a23660046115dc565b61057c565b6102ba6102b53660046115dc565b610589565b6040516101de9190611dfa565b61020f6102d53660046115dc565b6105a1565b6102726105bc565b61020f6102f0366004611663565b6105d0565b61020f6103033660046115dc565b6107fe565b610287610810565b6101d161081f565b610272610326366004611663565b61082e565b610272610339366004611663565b610866565b6101fa61034c366004611663565b610a51565b6101fa61035f366004611663565b610a99565b61020f6103723660046115dc565b610ab1565b61027261038536600461168c565b610b26565b610287610d01565b61020f6103a03660046115f6565b610d10565b61020f610d3b565b6103c06103bb3660046116ea565b610d5f565b6040516101de929190611e0b565b6102726103dc3660046115dc565b610d8c565b6060600380546103f090611eda565b80601f016020809104026020016040519081016040528092919081815260200182805461041c90611eda565b80156104695780601f1061043e57610100808354040283529160200191610469565b820191906000526020600020905b81548152906001019060200180831161044c57829003601f168201915b5050505050905090565b60008061047e610dc3565b905061048b818585610dc7565b60019150505b92915050565b60025490565b7f8cad95687ba82c2ce50e74f7b754645e5117c3a5bec8151c0726d5857980a86681565b6000806104cc610dc3565b90506104d9858285610e7b565b6104e4858585610ebf565b506001949350505050565b601290565b6000806104ff610dc3565b905061048b8185856105118589610d10565b61051b9190611e2f565b610dc7565b610528610fc0565b6105328282610fff565b6001600160a01b038083166000908152600760205260408120546105579216836110a9565b5050565b6001600160a01b03808216600090815260076020526040902054165b919050565b6105863382611208565b50565b60096020526000908152604090205463ffffffff1681565b6001600160a01b031660009081526020819052604090205490565b6105c4610fc0565b6105ce60006112af565b565b60004382106105fa5760405162461bcd60e51b81526004016105f190611b87565b60405180910390fd5b6001600160a01b03831660009081526009602052604090205463ffffffff1680610628576000915050610491565b6001600160a01b0384166000908152600860205260408120849161064d600185611eb5565b63ffffffff908116825260208201929092526040016000205416116106b6576001600160a01b038416600090815260086020526040812090610690600184611eb5565b63ffffffff1663ffffffff16815260200190815260200160002060010154915050610491565b6001600160a01b038416600090815260086020908152604080832083805290915290205463ffffffff168310156106f1576000915050610491565b6000806106ff600184611eb5565b90505b8163ffffffff168163ffffffff1611156107c757600060026107248484611eb5565b61072e9190611e6f565b6107389083611eb5565b6001600160a01b038816600090815260086020908152604080832063ffffffff808616855290835292819020815180830190925280549093168082526001909301549181019190915291925087141561079b576020015194506104919350505050565b805163ffffffff168711156107b2578193506107c0565b6107bd600183611eb5565b92505b5050610702565b506001600160a01b038516600090815260086020908152604080832063ffffffff9094168352929052206001015491505092915050565b600a6020526000908152604090205481565b6005546001600160a01b031690565b6060600480546103f090611eda565b610836610fc0565b6108408282611319565b6001600160a01b03808316600090815260076020526040812054610557921690836110a9565b6006546040517f70a082310000000000000000000000000000000000000000000000000000000081526000916001600160a01b0316906370a08231906108b0903090600401611796565b60206040518083038186803b1580156108c857600080fd5b505afa1580156108dc573d6000803e3d6000fd5b505050506040513d601f19601f820116820180604052508101906109009190611748565b9050808211156109ad576006546040517fa9059cbb0000000000000000000000000000000000000000000000000000000081526001600160a01b039091169063a9059cbb9061095590869085906004016117aa565b602060405180830381600087803b15801561096f57600080fd5b505af1158015610983573d6000803e3d6000fd5b505050506040513d601f19601f820116820180604052508101906109a79190611728565b50610a4c565b6006546040517fa9059cbb0000000000000000000000000000000000000000000000000000000081526001600160a01b039091169063a9059cbb906109f890869086906004016117aa565b602060405180830381600087803b158015610a1257600080fd5b505af1158015610a26573d6000803e3d6000fd5b505050506040513d601f19601f82011682018060405250810190610a4a9190611728565b505b505050565b600080610a5c610dc3565b90506000610a6a8286610d10565b905083811015610a8c5760405162461bcd60e51b81526004016105f190611d58565b6104e48286868403610dc7565b600080610aa4610dc3565b905061048b818585610ebf565b6001600160a01b03811660009081526009602052604081205463ffffffff1680610adc576000610b1f565b6001600160a01b038316600090815260086020526040812090610b00600184611eb5565b63ffffffff1663ffffffff168152602001908152602001600020600101545b9392505050565b60007f8cad95687ba82c2ce50e74f7b754645e5117c3a5bec8151c0726d5857980a866610b516103e1565b80519060200120610b606113f0565b30604051602001610b7494939291906117fb565b60405160208183030381529060405280519060200120905060007fe48329057bfd03d55e49b547132e39cffd9c1820ad7b9d4c5307691425d15adf888888604051602001610bc594939291906117d7565b60405160208183030381529060405280519060200120905060008282604051602001610bf2929190611760565b604051602081830303815290604052805190602001209050600060018288888860405160008152602001604052604051610c2f949392919061181f565b6020604051602081039080840390855afa158015610c51573d6000803e3d6000fd5b5050604051601f1901519150506001600160a01b038116610c845760405162461bcd60e51b81526004016105f190611af5565b6001600160a01b0381166000908152600a60205260408120805491610ca883611f15565b919050558914610cca5760405162461bcd60e51b81526004016105f190611be4565b87421115610cea5760405162461bcd60e51b81526004016105f190611a04565b610cf4818b611208565b505050505b505050505050565b6006546001600160a01b031681565b6001600160a01b03918216600090815260016020908152604080832093909416825291909152205490565b7fe48329057bfd03d55e49b547132e39cffd9c1820ad7b9d4c5307691425d15adf81565b60086020908152600092835260408084209091529082529020805460019091015463ffffffff9091169082565b610d94610fc0565b6001600160a01b038116610dba5760405162461bcd60e51b81526004016105f19061194a565b610586816112af565b3390565b6001600160a01b038316610ded5760405162461bcd60e51b81526004016105f190611cfb565b6001600160a01b038216610e135760405162461bcd60e51b81526004016105f1906119a7565b6001600160a01b0380841660008181526001602090815260408083209487168084529490915290819020849055517f8c5be1e5ebec7d5bd14f71427d1e84f3dd0314c0f7b2291e5b200ac8c7c3b92590610e6e9085906117ce565b60405180910390a3505050565b6000610e878484610d10565b90506000198114610a4a5781811015610eb25760405162461bcd60e51b81526004016105f190611a61565b610a4a8484848403610dc7565b6001600160a01b038316610ee55760405162461bcd60e51b81526004016105f190611c9e565b6001600160a01b038216610f0b5760405162461bcd60e51b81526004016105f190611890565b610f16838383610a4c565b6001600160a01b03831660009081526020819052604090205481811015610f4f5760405162461bcd60e51b81526004016105f190611a98565b6001600160a01b0380851660008181526020819052604080822086860390559286168082529083902080548601905591517fddf252ad1be2c89b69c2b068fc378daa952ba7f163c4a11628f55a4df523b3ef90610fad9086906117ce565b60405180910390a3610a4a848484610a4c565b610fc8610dc3565b6001600160a01b0316610fd9610810565b6001600160a01b0316146105ce5760405162461bcd60e51b81526004016105f190611b52565b6001600160a01b0382166110255760405162461bcd60e51b81526004016105f190611db5565b61103160008383610a4c565b80600260008282546110439190611e2f565b90915550506001600160a01b038216600081815260208190526040808220805485019055517fddf252ad1be2c89b69c2b068fc378daa952ba7f163c4a11628f55a4df523b3ef906110959085906117ce565b60405180910390a361055760008383610a4c565b816001600160a01b0316836001600160a01b0316141580156110cb5750600081115b15610a4c576001600160a01b0383161561116e576001600160a01b03831660009081526009602052604081205463ffffffff16908161110b57600061114e565b6001600160a01b03851660009081526008602052604081209061112f600185611eb5565b63ffffffff1663ffffffff168152602001908152602001600020600101545b9050600061115c8483611e9e565b905061116a868484846113f4565b5050505b6001600160a01b03821615610a4c576001600160a01b03821660009081526009602052604081205463ffffffff1690816111a95760006111ec565b6001600160a01b0384166000908152600860205260408120906111cd600185611eb5565b63ffffffff1663ffffffff168152602001908152602001600020600101545b905060006111fa8483611e2f565b9050610cf9858484846113f4565b6001600160a01b038083166000908152600760205260408120549091169061122f846105a1565b6001600160a01b0385811660008181526007602052604080822080547fffffffffffffffffffffffff000000000000000000000000000000000000000016898616908117909155905194955093928616927f3134e8a2e6d97e929a7e54011ea5485d7d196dd5f0ba4d4ef95803e8e3fc257f9190a4610a4a8284836110a9565b600580546001600160a01b038381167fffffffffffffffffffffffff0000000000000000000000000000000000000000831681179093556040519116919082907f8be0079c531659141344cd1fd0a4f28419497f9722a3daafe3b4186f6b6457e090600090a35050565b6001600160a01b03821661133f5760405162461bcd60e51b81526004016105f190611c41565b61134b82600083610a4c565b6001600160a01b038216600090815260208190526040902054818110156113845760405162461bcd60e51b81526004016105f1906118ed565b6001600160a01b0383166000818152602081905260408082208585039055600280548690039055519091907fddf252ad1be2c89b69c2b068fc378daa952ba7f163c4a11628f55a4df523b3ef906113dc9086906117ce565b60405180910390a3610a4c83600084610a4c565b4690565b600061141843604051806060016040528060348152602001611f4760349139611595565b905060008463ffffffff1611801561147257506001600160a01b038516600090815260086020526040812063ffffffff831691611456600188611eb5565b63ffffffff908116825260208201929092526040016000205416145b156114bb576001600160a01b0385166000908152600860205260408120839161149c600188611eb5565b63ffffffff16815260208101919091526040016000206001015561154b565b60408051808201825263ffffffff838116825260208083018681526001600160a01b038a166000908152600883528581208a851682529092529390209151825463ffffffff19169116178155905160019182015561151a908590611e47565b6001600160a01b0386166000908152600960205260409020805463ffffffff191663ffffffff929092169190911790555b846001600160a01b03167fdec2bacdd2f05b59de34da9b523dff8be42e5e38e818c82fdb0bae774387a7248484604051611586929190611dec565b60405180910390a25050505050565b60008164010000000084106115bd5760405162461bcd60e51b81526004016105f1919061183d565b509192915050565b80356001600160a01b038116811461057757600080fd5b6000602082840312156115ed578081fd5b610b1f826115c5565b60008060408385031215611608578081fd5b611611836115c5565b915061161f602084016115c5565b90509250929050565b60008060006060848603121561163c578081fd5b611645846115c5565b9250611653602085016115c5565b9150604084013590509250925092565b60008060408385031215611675578182fd5b61167e836115c5565b946020939093013593505050565b60008060008060008060c087890312156116a4578182fd5b6116ad876115c5565b95506020870135945060408701359350606087013560ff811681146116d0578283fd5b9598949750929560808101359460a0909101359350915050565b600080604083850312156116fc578182fd5b611705836115c5565b9150602083013563ffffffff8116811461171d578182fd5b809150509250929050565b600060208284031215611739578081fd5b81518015158114610b1f578182fd5b600060208284031215611759578081fd5b5051919050565b7f190100000000000000000000000000000000000000000000000000000000000081526002810192909252602282015260420190565b6001600160a01b0391909116815260200190565b6001600160a01b03929092168252602082015260400190565b901515815260200190565b90815260200190565b9384526001600160a01b039290921660208401526040830152606082015260800190565b938452602084019290925260408301526001600160a01b0316606082015260800190565b93845260ff9290921660208401526040830152606082015260800190565b6000602080835283518082850152825b818110156118695785810183015185820160400152820161184d565b8181111561187a5783604083870101525b50601f01601f1916929092016040019392505050565b60208082526023908201527f45524332303a207472616e7366657220746f20746865207a65726f206164647260408201527f6573730000000000000000000000000000000000000000000000000000000000606082015260800190565b60208082526022908201527f45524332303a206275726e20616d6f756e7420657863656564732062616c616e60408201527f6365000000000000000000000000000000000000000000000000000000000000606082015260800190565b60208082526026908201527f4f776e61626c653a206e6577206f776e657220697320746865207a65726f206160408201527f6464726573730000000000000000000000000000000000000000000000000000606082015260800190565b60208082526022908201527f45524332303a20617070726f766520746f20746865207a65726f20616464726560408201527f7373000000000000000000000000000000000000000000000000000000000000606082015260800190565b60208082526026908201527f43414b453a3a64656c656761746542795369673a207369676e6174757265206560408201527f7870697265640000000000000000000000000000000000000000000000000000606082015260800190565b6020808252601d908201527f45524332303a20696e73756666696369656e7420616c6c6f77616e6365000000604082015260600190565b60208082526026908201527f45524332303a207472616e7366657220616d6f756e742065786365656473206260408201527f616c616e63650000000000000000000000000000000000000000000000000000606082015260800190565b60208082526026908201527f43414b453a3a64656c656761746542795369673a20696e76616c69642073696760408201527f6e61747572650000000000000000000000000000000000000000000000000000606082015260800190565b6020808252818101527f4f776e61626c653a2063616c6c6572206973206e6f7420746865206f776e6572604082015260600190565b60208082526027908201527f43414b453a3a6765745072696f72566f7465733a206e6f74207965742064657460408201527f65726d696e656400000000000000000000000000000000000000000000000000606082015260800190565b60208082526022908201527f43414b453a3a64656c656761746542795369673a20696e76616c6964206e6f6e60408201527f6365000000000000000000000000000000000000000000000000000000000000606082015260800190565b60208082526021908201527f45524332303a206275726e2066726f6d20746865207a65726f2061646472657360408201527f7300000000000000000000000000000000000000000000000000000000000000606082015260800190565b60208082526025908201527f45524332303a207472616e736665722066726f6d20746865207a65726f20616460408201527f6472657373000000000000000000000000000000000000000000000000000000606082015260800190565b60208082526024908201527f45524332303a20617070726f76652066726f6d20746865207a65726f2061646460408201527f7265737300000000000000000000000000000000000000000000000000000000606082015260800190565b60208082526025908201527f45524332303a2064656372656173656420616c6c6f77616e63652062656c6f7760408201527f207a65726f000000000000000000000000000000000000000000000000000000606082015260800190565b6020808252601f908201527f45524332303a206d696e7420746f20746865207a65726f206164647265737300604082015260600190565b918252602082015260400190565b63ffffffff91909116815260200190565b63ffffffff929092168252602082015260400190565b60ff91909116815260200190565b60008219821115611e4257611e42611f30565b500190565b600063ffffffff808316818516808303821115611e6657611e66611f30565b01949350505050565b600063ffffffff80841680611e9257634e487b7160e01b83526012600452602483fd5b92169190910492915050565b600082821015611eb057611eb0611f30565b500390565b600063ffffffff83811690831681811015611ed257611ed2611f30565b039392505050565b600281046001821680611eee57607f821691505b60208210811415611f0f57634e487b7160e01b600052602260045260246000fd5b50919050565b6000600019821415611f2957611f29611f30565b5060010190565b634e487b7160e01b600052601160045260246000fdfe43414b453a3a5f7772697465436865636b706f696e743a20626c6f636b206e756d62657220657863656564732033322062697473a264697066735822122042c918e9fa41ce148b3c08a739531d62d43798f3035df05e3d40cc9a42cf9d7864736f6c63430008000033",
  "linkReferences": {},
  "deployedLinkReferences": {}
}