{
  "_format": "hh-sol-artifact-1",
  "contractName": "SyrupBar",
  "sourceName": "contracts/pancekeswap-fork/utils/SyrupBar.sol",
  "abi": [
    {
      "inputs": [
        {
          "internalType": "contract CakeToken",
          "name": "_cake",
          "type": "address"
        }
      ],
      "stateMutability": "nonpayable",
      "type": "constructor"
    },
    {
      "anonymous": false,
      "inputs": [
        {
          "indexed": true,
          "internalType": "address",
          "name": "owner",
          "type": "address"
        },
        {
          "indexed": true,
          "internalType": "address",
          "name": "spender",
          "type": "address"
        },
        {
          "indexed": false,
          "internalType": "uint256",
          "name": "value",
          "type": "uint256"
        }
      ],
      "name": "Approval",
      "type": "event"
    },
    {
      "anonymous": false,
      "inputs": [
        {
          "indexed": true,
          "internalType": "address",
          "name": "delegator",
          "type": "address"
        },
        {
          "indexed": true,
          "internalType": "address",
          "name": "fromDelegate",
          "type": "address"
        },
        {
          "indexed": true,
          "internalType": "address",
          "name": "toDelegate",
          "type": "address"
        }
      ],
      "name": "DelegateChanged",
      "type": "event"
    },
    {
      "anonymous": false,
      "inputs": [
        {
          "indexed": true,
          "internalType": "address",
          "name": "delegate",
          "type": "address"
        },
        {
          "indexed": false,
          "internalType": "uint256",
          "name": "previousBalance",
          "type": "uint256"
        },
        {
          "indexed": false,
          "internalType": "uint256",
          "name": "newBalance",
          "type": "uint256"
        }
      ],
      "name": "DelegateVotesChanged",
      "type": "event"
    },
    {
      "anonymous": false,
      "inputs": [
        {
          "indexed": true,
          "internalType": "address",
          "name": "previousOwner",
          "type": "address"
        },
        {
          "indexed": true,
          "internalType": "address",
          "name": "newOwner",
          "type": "address"
        }
      ],
      "name": "OwnershipTransferred",
      "type": "event"
    },
    {
      "anonymous": false,
      "inputs": [
        {
          "indexed": true,
          "internalType": "address",
          "name": "from",
          "type": "address"
        },
        {
          "indexed": true,
          "internalType": "address",
          "name": "to",
          "type": "address"
        },
        {
          "indexed": false,
          "internalType": "uint256",
          "name": "value",
          "type": "uint256"
        }
      ],
      "name": "Transfer",
      "type": "event"
    },
    {
      "inputs": [],
      "name": "DELEGATION_TYPEHASH",
      "outputs": [
        {
          "internalType": "bytes32",
          "name": "",
          "type": "bytes32"
        }
      ],
      "stateMutability": "view",
      "type": "function"
    },
    {
      "inputs": [],
      "name": "DOMAIN_TYPEHASH",
      "outputs": [
        {
          "internalType": "bytes32",
          "name": "",
          "type": "bytes32"
        }
      ],
      "stateMutability": "view",
      "type": "function"
    },
    {
      "inputs": [
        {
          "internalType": "address",
          "name": "owner",
          "type": "address"
        },
        {
          "internalType": "address",
          "name": "spender",
          "type": "address"
        }
      ],
      "name": "allowance",
      "outputs": [
        {
          "internalType": "uint256",
          "name": "",
          "type": "uint256"
        }
      ],
      "stateMutability": "view",
      "type": "function"
    },
    {
      "inputs": [
        {
          "internalType": "address",
          "name": "spender",
          "type": "address"
        },
        {
          "internalType": "uint256",
          "name": "amount",
          "type": "uint256"
        }
      ],
      "name": "approve",
      "outputs": [
        {
          "internalType": "bool",
          "name": "",
          "type": "bool"
        }
      ],
      "stateMutability": "nonpayable",
      "type": "function"
    },
    {
      "inputs": [
        {
          "internalType": "address",
          "name": "account",
          "type": "address"
        }
      ],
      "name": "balanceOf",
      "outputs": [
        {
          "internalType": "uint256",
          "name": "",
          "type": "uint256"
        }
      ],
      "stateMutability": "view",
      "type": "function"
    },
    {
      "inputs": [
        {
          "internalType": "address",
          "name": "_from",
          "type": "address"
        },
        {
          "internalType": "uint256",
          "name": "_amount",
          "type": "uint256"
        }
      ],
      "name": "burn",
      "outputs": [],
      "stateMutability": "nonpayable",
      "type": "function"
    },
    {
      "inputs": [],
      "name": "cake",
      "outputs": [
        {
          "internalType": "contract CakeToken",
          "name": "",
          "type": "address"
        }
      ],
      "stateMutability": "view",
      "type": "function"
    },
    {
      "inputs": [
        {
          "internalType": "address",
          "name": "",
          "type": "address"
        },
        {
          "internalType": "uint32",
          "name": "",
          "type": "uint32"
        }
      ],
      "name": "checkpoints",
      "outputs": [
        {
          "internalType": "uint32",
          "name": "fromBlock",
          "type": "uint32"
        },
        {
          "internalType": "uint256",
          "name": "votes",
          "type": "uint256"
        }
      ],
      "stateMutability": "view",
      "type": "function"
    },
    {
      "inputs": [],
      "name": "decimals",
      "outputs": [
        {
          "internalType": "uint8",
          "name": "",
          "type": "uint8"
        }
      ],
      "stateMutability": "view",
      "type": "function"
    },
    {
      "inputs": [
        {
          "internalType": "address",
          "name": "spender",
          "type": "address"
        },
        {
          "internalType": "uint256",
          "name": "subtractedValue",
          "type": "uint256"
        }
      ],
      "name": "decreaseAllowance",
      "outputs": [
        {
          "internalType": "bool",
          "name": "",
          "type": "bool"
        }
      ],
      "stateMutability": "nonpayable",
      "type": "function"
    },
    {
      "inputs": [
        {
          "internalType": "address",
          "name": "delegatee",
          "type": "address"
        }
      ],
      "name": "delegate",
      "outputs": [],
      "stateMutability": "nonpayable",
      "type": "function"
    },
    {
      "inputs": [
        {
          "internalType": "address",
          "name": "delegatee",
          "type": "address"
        },
        {
          "internalType": "uint256",
          "name": "nonce",
          "type": "uint256"
        },
        {
          "internalType": "uint256",
          "name": "expiry",
          "type": "uint256"
        },
        {
          "internalType": "uint8",
          "name": "v",
          "type": "uint8"
        },
        {
          "internalType": "bytes32",
          "name": "r",
          "type": "bytes32"
        },
        {
          "internalType": "bytes32",
          "name": "s",
          "type": "bytes32"
        }
      ],
      "name": "delegateBySig",
      "outputs": [],
      "stateMutability": "nonpayable",
      "type": "function"
    },
    {
      "inputs": [
        {
          "internalType": "address",
          "name": "delegator",
          "type": "address"
        }
      ],
      "name": "delegates",
      "outputs": [
        {
          "internalType": "address",
          "name": "",
          "type": "address"
        }
      ],
      "stateMutability": "view",
      "type": "function"
    },
    {
      "inputs": [
        {
          "internalType": "address",
          "name": "account",
          "type": "address"
        }
      ],
      "name": "getCurrentVotes",
      "outputs": [
        {
          "internalType": "uint256",
          "name": "",
          "type": "uint256"
        }
      ],
      "stateMutability": "view",
      "type": "function"
    },
    {
      "inputs": [
        {
          "internalType": "address",
          "name": "account",
          "type": "address"
        },
        {
          "internalType": "uint256",
          "name": "blockNumber",
          "type": "uint256"
        }
      ],
      "name": "getPriorVotes",
      "outputs": [
        {
          "internalType": "uint256",
          "name": "",
          "type": "uint256"
        }
      ],
      "stateMutability": "view",
      "type": "function"
    },
    {
      "inputs": [
        {
          "internalType": "address",
          "name": "spender",
          "type": "address"
        },
        {
          "internalType": "uint256",
          "name": "addedValue",
          "type": "uint256"
        }
      ],
      "name": "increaseAllowance",
      "outputs": [
        {
          "internalType": "bool",
          "name": "",
          "type": "bool"
        }
      ],
      "stateMutability": "nonpayable",
      "type": "function"
    },
    {
      "inputs": [
        {
          "internalType": "address",
          "name": "_to",
          "type": "address"
        },
        {
          "internalType": "uint256",
          "name": "_amount",
          "type": "uint256"
        }
      ],
      "name": "mint",
      "outputs": [],
      "stateMutability": "nonpayable",
      "type": "function"
    },
    {
      "inputs": [],
      "name": "name",
      "outputs": [
        {
          "internalType": "string",
          "name": "",
          "type": "string"
        }
      ],
      "stateMutability": "view",
      "type": "function"
    },
    {
      "inputs": [
        {
          "internalType": "address",
          "name": "",
          "type": "address"
        }
      ],
      "name": "nonces",
      "outputs": [
        {
          "internalType": "uint256",
          "name": "",
          "type": "uint256"
        }
      ],
      "stateMutability": "view",
      "type": "function"
    },
    {
      "inputs": [
        {
          "internalType": "address",
          "name": "",
          "type": "address"
        }
      ],
      "name": "numCheckpoints",
      "outputs": [
        {
          "internalType": "uint32",
          "name": "",
          "type": "uint32"
        }
      ],
      "stateMutability": "view",
      "type": "function"
    },
    {
      "inputs": [],
      "name": "owner",
      "outputs": [
        {
          "internalType": "address",
          "name": "",
          "type": "address"
        }
      ],
      "stateMutability": "view",
      "type": "function"
    },
    {
      "inputs": [],
      "name": "renounceOwnership",
      "outputs": [],
      "stateMutability": "nonpayable",
      "type": "function"
    },
    {
      "inputs": [
        {
          "internalType": "address",
          "name": "_to",
          "type": "address"
        },
        {
          "internalType": "uint256",
          "name": "_amount",
          "type": "uint256"
        }
      ],
      "name": "safeCakeTransfer",
      "outputs": [],
      "stateMutability": "nonpayable",
      "type": "function"
    },
    {
      "inputs": [],
      "name": "symbol",
      "outputs": [
        {
          "internalType": "string",
          "name": "",
          "type": "string"
        }
      ],
      "stateMutability": "view",
      "type": "function"
    },
    {
      "inputs": [],
      "name": "totalSupply",
      "outputs": [
        {
          "internalType": "uint256",
          "name": "",
          "type": "uint256"
        }
      ],
      "stateMutability": "view",
      "type": "function"
    },
    {
      "inputs": [
        {
          "internalType": "address",
          "name": "to",
          "type": "address"
        },
        {
          "internalType": "uint256",
          "name": "amount",
          "type": "uint256"
        }
      ],
      "name": "transfer",
      "outputs": [
        {
          "internalType": "bool",
          "name": "",
          "type": "bool"
        }
      ],
      "stateMutability": "nonpayable",
      "type": "function"
    },
    {
      "inputs": [
        {
          "internalType": "address",
          "name": "from",
          "type": "address"
        },
        {
          "internalType": "address",
          "name": "to",
          "type": "address"
        },
        {
          "internalType": "uint256",
          "name": "amount",
          "type": "uint256"
        }
      ],
      "name": "transferFrom",
      "outputs": [
        {
          "internalType": "bool",
          "name": "",
          "type": "bool"
        }
      ],
      "stateMutability": "nonpayable",
      "type": "function"
    },
    {
      "inputs": [
        {
          "internalType": "address",
          "name": "newOwner",
          "type": "address"
        }
      ],
      "name": "transferOwnership",
      "outputs": [],
      "stateMutability": "nonpayable",
      "type": "function"
    }
  ],
  "bytecode": "0x60806040523480156200001157600080fd5b5060405162003caf38038062003caf8339818101604052810190620000379190620002d4565b6040518060400160405280600e81526020017f537972757042617220546f6b656e0000000000000000000000000000000000008152506040518060400160405280600581526020017f53595255500000000000000000000000000000000000000000000000000000008152508160039080519060200190620000bb9291906200020d565b508060049080519060200190620000d49291906200020d565b505050620000f7620000eb6200013f60201b60201c565b6200014760201b60201c565b80600660006101000a81548173ffffffffffffffffffffffffffffffffffffffff021916908373ffffffffffffffffffffffffffffffffffffffff16021790555050620003c7565b600033905090565b6000600560009054906101000a900473ffffffffffffffffffffffffffffffffffffffff16905081600560006101000a81548173ffffffffffffffffffffffffffffffffffffffff021916908373ffffffffffffffffffffffffffffffffffffffff1602179055508173ffffffffffffffffffffffffffffffffffffffff168173ffffffffffffffffffffffffffffffffffffffff167f8be0079c531659141344cd1fd0a4f28419497f9722a3daafe3b4186f6b6457e060405160405180910390a35050565b8280546200021b9062000348565b90600052602060002090601f0160209004810192826200023f57600085556200028b565b82601f106200025a57805160ff19168380011785556200028b565b828001600101855582156200028b579182015b828111156200028a5782518255916020019190600101906200026d565b5b5090506200029a91906200029e565b5090565b5b80821115620002b95760008160009055506001016200029f565b5090565b600081519050620002ce81620003ad565b92915050565b600060208284031215620002e757600080fd5b6000620002f784828501620002bd565b91505092915050565b60006200030d8262000328565b9050919050565b6000620003218262000300565b9050919050565b600073ffffffffffffffffffffffffffffffffffffffff82169050919050565b600060028204905060018216806200036157607f821691505b602082108114156200037857620003776200037e565b5b50919050565b7f4e487b7100000000000000000000000000000000000000000000000000000000600052602260045260246000fd5b620003b88162000314565b8114620003c457600080fd5b50565b6138d880620003d76000396000f3fe608060405234801561001057600080fd5b50600436106101c45760003560e01c80637ecebe00116100f9578063b4b5ea5711610097578063dd62ed3e11610071578063dd62ed3e14610541578063e7a324dc14610571578063f1127ed81461058f578063f2fde38b146105c0576101c4565b8063b4b5ea57146104d7578063c3cda52014610507578063dce1748414610523576101c4565b80639dc29fac116100d35780639dc29fac1461043f578063a2e6ddcc1461045b578063a457c2d714610477578063a9059cbb146104a7576101c4565b80637ecebe00146103d35780638da5cb5b1461040357806395d89b4114610421576101c4565b806340c10f19116101665780636fcfff45116101405780636fcfff451461033957806370a0823114610369578063715018a614610399578063782d6fe1146103a3576101c4565b806340c10f19146102d1578063587cde1e146102ed5780635c19a95c1461031d576101c4565b806320606b70116101a257806320606b701461023557806323b872dd14610253578063313ce5671461028357806339509351146102a1576101c4565b806306fdde03146101c9578063095ea7b3146101e757806318160ddd14610217575b600080fd5b6101d16105dc565b6040516101de9190612d3f565b60405180910390f35b61020160048036038101906101fc9190612745565b61066e565b60405161020e9190612c1f565b60405180910390f35b61021f610691565b60405161022c9190612f61565b60405180910390f35b61023d61069b565b60405161024a9190612c3a565b60405180910390f35b61026d600480360381019061026891906126f6565b6106bf565b60405161027a9190612c1f565b60405180910390f35b61028b6106ee565b6040516102989190612fe9565b60405180910390f35b6102bb60048036038101906102b69190612745565b6106f7565b6040516102c89190612c1f565b60405180910390f35b6102eb60048036038101906102e69190612745565b61072e565b005b61030760048036038101906103029190612691565b6107af565b6040516103149190612bdb565b60405180910390f35b61033760048036038101906103329190612691565b610818565b005b610353600480360381019061034e9190612691565b610825565b6040516103609190612fa5565b60405180910390f35b610383600480360381019061037e9190612691565b610848565b6040516103909190612f61565b60405180910390f35b6103a1610890565b005b6103bd60048036038101906103b89190612745565b6108a4565b6040516103ca9190612f61565b60405180910390f35b6103ed60048036038101906103e89190612691565b610c7b565b6040516103fa9190612f61565b60405180910390f35b61040b610c93565b6040516104189190612bdb565b60405180910390f35b610429610cbd565b6040516104369190612d3f565b60405180910390f35b61045960048036038101906104549190612745565b610d4f565b005b61047560048036038101906104709190612745565b610dd0565b005b610491600480360381019061048c9190612745565b610ff2565b60405161049e9190612c1f565b60405180910390f35b6104c160048036038101906104bc9190612745565b611069565b6040516104ce9190612c1f565b60405180910390f35b6104f160048036038101906104ec9190612691565b61108c565b6040516104fe9190612f61565b60405180910390f35b610521600480360381019061051c9190612781565b61116b565b005b61052b611400565b6040516105389190612d24565b60405180910390f35b61055b600480360381019061055691906126ba565b611426565b6040516105689190612f61565b60405180910390f35b6105796114ad565b6040516105869190612c3a565b60405180910390f35b6105a960048036038101906105a4919061280a565b6114d1565b6040516105b7929190612fc0565b60405180910390f35b6105da60048036038101906105d59190612691565b611512565b005b6060600380546105eb9061321a565b80601f01602080910402602001604051908101604052809291908181526020018280546106179061321a565b80156106645780601f1061063957610100808354040283529160200191610664565b820191906000526020600020905b81548152906001019060200180831161064757829003601f168201915b5050505050905090565b600080610679611596565b905061068681858561159e565b600191505092915050565b6000600254905090565b7f8cad95687ba82c2ce50e74f7b754645e5117c3a5bec8151c0726d5857980a86681565b6000806106ca611596565b90506106d7858285611769565b6106e28585856117f5565b60019150509392505050565b60006012905090565b600080610702611596565b90506107238185856107148589611426565b61071e919061302b565b61159e565b600191505092915050565b610736611a6d565b6107408282611aeb565b6107ab6000600760008573ffffffffffffffffffffffffffffffffffffffff1673ffffffffffffffffffffffffffffffffffffffff16815260200190815260200160002060009054906101000a900473ffffffffffffffffffffffffffffffffffffffff1683611c42565b5050565b6000600760008373ffffffffffffffffffffffffffffffffffffffff1673ffffffffffffffffffffffffffffffffffffffff16815260200190815260200160002060009054906101000a900473ffffffffffffffffffffffffffffffffffffffff169050919050565b6108223382611ee3565b50565b60096020528060005260406000206000915054906101000a900463ffffffff1681565b60008060008373ffffffffffffffffffffffffffffffffffffffff1673ffffffffffffffffffffffffffffffffffffffff168152602001908152602001600020549050919050565b610898611a6d565b6108a26000612054565b565b60004382106108e8576040517f08c379a00000000000000000000000000000000000000000000000000000000081526004016108df90612e81565b60405180910390fd5b6000600960008573ffffffffffffffffffffffffffffffffffffffff1673ffffffffffffffffffffffffffffffffffffffff16815260200190815260200160002060009054906101000a900463ffffffff16905060008163ffffffff161415610955576000915050610c75565b82600860008673ffffffffffffffffffffffffffffffffffffffff1673ffffffffffffffffffffffffffffffffffffffff16815260200190815260200160002060006001846109a49190613120565b63ffffffff1663ffffffff16815260200190815260200160002060000160009054906101000a900463ffffffff1663ffffffff1611610a5157600860008573ffffffffffffffffffffffffffffffffffffffff1673ffffffffffffffffffffffffffffffffffffffff1681526020019081526020016000206000600183610a2b9190613120565b63ffffffff1663ffffffff16815260200190815260200160002060010154915050610c75565b82600860008673ffffffffffffffffffffffffffffffffffffffff1673ffffffffffffffffffffffffffffffffffffffff16815260200190815260200160002060008063ffffffff16815260200190815260200160002060000160009054906101000a900463ffffffff1663ffffffff161115610ad2576000915050610c75565b600080600183610ae29190613120565b90505b8163ffffffff168163ffffffff161115610c0f57600060028383610b099190613120565b610b1391906130bb565b82610b1e9190613120565b90506000600860008973ffffffffffffffffffffffffffffffffffffffff1673ffffffffffffffffffffffffffffffffffffffff16815260200190815260200160002060008363ffffffff1663ffffffff1681526020019081526020016000206040518060400160405290816000820160009054906101000a900463ffffffff1663ffffffff1663ffffffff168152602001600182015481525050905086816000015163ffffffff161415610bde57806020015195505050505050610c75565b86816000015163ffffffff161015610bf857819350610c08565b600182610c059190613120565b92505b5050610ae5565b600860008773ffffffffffffffffffffffffffffffffffffffff1673ffffffffffffffffffffffffffffffffffffffff16815260200190815260200160002060008363ffffffff1663ffffffff1681526020019081526020016000206001015493505050505b92915050565b600a6020528060005260406000206000915090505481565b6000600560009054906101000a900473ffffffffffffffffffffffffffffffffffffffff16905090565b606060048054610ccc9061321a565b80601f0160208091040260200160405190810160405280929190818152602001828054610cf89061321a565b8015610d455780601f10610d1a57610100808354040283529160200191610d45565b820191906000526020600020905b815481529060010190602001808311610d2857829003601f168201915b5050505050905090565b610d57611a6d565b610d61828261211a565b610dcc600760008473ffffffffffffffffffffffffffffffffffffffff1673ffffffffffffffffffffffffffffffffffffffff16815260200190815260200160002060009054906101000a900473ffffffffffffffffffffffffffffffffffffffff16600083611c42565b5050565b6000600660009054906101000a900473ffffffffffffffffffffffffffffffffffffffff1673ffffffffffffffffffffffffffffffffffffffff166370a08231306040518263ffffffff1660e01b8152600401610e2d9190612bdb565b60206040518083038186803b158015610e4557600080fd5b505afa158015610e59573d6000803e3d6000fd5b505050506040513d601f19601f82011682018060405250810190610e7d919061286f565b905080821115610f3c57600660009054906101000a900473ffffffffffffffffffffffffffffffffffffffff1673ffffffffffffffffffffffffffffffffffffffff1663a9059cbb84836040518363ffffffff1660e01b8152600401610ee4929190612bf6565b602060405180830381600087803b158015610efe57600080fd5b505af1158015610f12573d6000803e3d6000fd5b505050506040513d601f19601f82011682018060405250810190610f369190612846565b50610fed565b600660009054906101000a900473ffffffffffffffffffffffffffffffffffffffff1673ffffffffffffffffffffffffffffffffffffffff1663a9059cbb84846040518363ffffffff1660e01b8152600401610f99929190612bf6565b602060405180830381600087803b158015610fb357600080fd5b505af1158015610fc7573d6000803e3d6000fd5b505050506040513d601f19601f82011682018060405250810190610feb9190612846565b505b505050565b600080610ffd611596565b9050600061100b8286611426565b905083811015611050576040517f08c379a000000000000000000000000000000000000000000000000000000000815260040161104790612f21565b60405180910390fd5b61105d828686840361159e565b60019250505092915050565b600080611074611596565b90506110818185856117f5565b600191505092915050565b600080600960008473ffffffffffffffffffffffffffffffffffffffff1673ffffffffffffffffffffffffffffffffffffffff16815260200190815260200160002060009054906101000a900463ffffffff16905060008163ffffffff16116110f6576000611163565b600860008473ffffffffffffffffffffffffffffffffffffffff1673ffffffffffffffffffffffffffffffffffffffff16815260200190815260200160002060006001836111449190613120565b63ffffffff1663ffffffff168152602001908152602001600020600101545b915050919050565b60007f8cad95687ba82c2ce50e74f7b754645e5117c3a5bec8151c0726d5857980a8666111966105dc565b805190602001206111a56122e8565b306040516020016111b99493929190612c9a565b60405160208183030381529060405280519060200120905060007fe48329057bfd03d55e49b547132e39cffd9c1820ad7b9d4c5307691425d15adf88888860405160200161120a9493929190612c55565b60405160208183030381529060405280519060200120905060008282604051602001611237929190612ba4565b6040516020818303038152906040528051906020012090506000600182888888604051600081526020016040526040516112749493929190612cdf565b6020604051602081039080840390855afa158015611296573d6000803e3d6000fd5b505050602060405103519050600073ffffffffffffffffffffffffffffffffffffffff168173ffffffffffffffffffffffffffffffffffffffff161415611312576040517f08c379a000000000000000000000000000000000000000000000000000000000815260040161130990612e41565b60405180910390fd5b600a60008273ffffffffffffffffffffffffffffffffffffffff1673ffffffffffffffffffffffffffffffffffffffff16815260200190815260200160002060008154809291906113629061324c565b9190505589146113a7576040517f08c379a000000000000000000000000000000000000000000000000000000000815260040161139e90612ea1565b60405180910390fd5b874211156113ea576040517f08c379a00000000000000000000000000000000000000000000000000000000081526004016113e190612de1565b60405180910390fd5b6113f4818b611ee3565b50505050505050505050565b600660009054906101000a900473ffffffffffffffffffffffffffffffffffffffff1681565b6000600160008473ffffffffffffffffffffffffffffffffffffffff1673ffffffffffffffffffffffffffffffffffffffff16815260200190815260200160002060008373ffffffffffffffffffffffffffffffffffffffff1673ffffffffffffffffffffffffffffffffffffffff16815260200190815260200160002054905092915050565b7fe48329057bfd03d55e49b547132e39cffd9c1820ad7b9d4c5307691425d15adf81565b6008602052816000526040600020602052806000526040600020600091509150508060000160009054906101000a900463ffffffff16908060010154905082565b61151a611a6d565b600073ffffffffffffffffffffffffffffffffffffffff168173ffffffffffffffffffffffffffffffffffffffff16141561158a576040517f08c379a000000000000000000000000000000000000000000000000000000000815260040161158190612da1565b60405180910390fd5b61159381612054565b50565b600033905090565b600073ffffffffffffffffffffffffffffffffffffffff168373ffffffffffffffffffffffffffffffffffffffff16141561160e576040517f08c379a000000000000000000000000000000000000000000000000000000000815260040161160590612f01565b60405180910390fd5b600073ffffffffffffffffffffffffffffffffffffffff168273ffffffffffffffffffffffffffffffffffffffff16141561167e576040517f08c379a000000000000000000000000000000000000000000000000000000000815260040161167590612dc1565b60405180910390fd5b80600160008573ffffffffffffffffffffffffffffffffffffffff1673ffffffffffffffffffffffffffffffffffffffff16815260200190815260200160002060008473ffffffffffffffffffffffffffffffffffffffff1673ffffffffffffffffffffffffffffffffffffffff168152602001908152602001600020819055508173ffffffffffffffffffffffffffffffffffffffff168373ffffffffffffffffffffffffffffffffffffffff167f8c5be1e5ebec7d5bd14f71427d1e84f3dd0314c0f7b2291e5b200ac8c7c3b9258360405161175c9190612f61565b60405180910390a3505050565b60006117758484611426565b90507fffffffffffffffffffffffffffffffffffffffffffffffffffffffffffffffff81146117ef57818110156117e1576040517f08c379a00000000000000000000000000000000000000000000000000000000081526004016117d890612e01565b60405180910390fd5b6117ee848484840361159e565b5b50505050565b600073ffffffffffffffffffffffffffffffffffffffff168373ffffffffffffffffffffffffffffffffffffffff161415611865576040517f08c379a000000000000000000000000000000000000000000000000000000000815260040161185c90612ee1565b60405180910390fd5b600073ffffffffffffffffffffffffffffffffffffffff168273ffffffffffffffffffffffffffffffffffffffff1614156118d5576040517f08c379a00000000000000000000000000000000000000000000000000000000081526004016118cc90612d61565b60405180910390fd5b6118e08383836122f5565b60008060008573ffffffffffffffffffffffffffffffffffffffff1673ffffffffffffffffffffffffffffffffffffffff16815260200190815260200160002054905081811015611966576040517f08c379a000000000000000000000000000000000000000000000000000000000815260040161195d90612e21565b60405180910390fd5b8181036000808673ffffffffffffffffffffffffffffffffffffffff1673ffffffffffffffffffffffffffffffffffffffff16815260200190815260200160002081905550816000808573ffffffffffffffffffffffffffffffffffffffff1673ffffffffffffffffffffffffffffffffffffffff168152602001908152602001600020600082825401925050819055508273ffffffffffffffffffffffffffffffffffffffff168473ffffffffffffffffffffffffffffffffffffffff167fddf252ad1be2c89b69c2b068fc378daa952ba7f163c4a11628f55a4df523b3ef84604051611a549190612f61565b60405180910390a3611a678484846122fa565b50505050565b611a75611596565b73ffffffffffffffffffffffffffffffffffffffff16611a93610c93565b73ffffffffffffffffffffffffffffffffffffffff1614611ae9576040517f08c379a0000000000000000000000000000000000000000000000000000000008152600401611ae090612e61565b60405180910390fd5b565b600073ffffffffffffffffffffffffffffffffffffffff168273ffffffffffffffffffffffffffffffffffffffff161415611b5b576040517f08c379a0000000000000000000000000000000000000000000000000000000008152600401611b5290612f41565b60405180910390fd5b611b67600083836122f5565b8060026000828254611b79919061302b565b92505081905550806000808473ffffffffffffffffffffffffffffffffffffffff1673ffffffffffffffffffffffffffffffffffffffff168152602001908152602001600020600082825401925050819055508173ffffffffffffffffffffffffffffffffffffffff16600073ffffffffffffffffffffffffffffffffffffffff167fddf252ad1be2c89b69c2b068fc378daa952ba7f163c4a11628f55a4df523b3ef83604051611c2a9190612f61565b60405180910390a3611c3e600083836122fa565b5050565b8173ffffffffffffffffffffffffffffffffffffffff168373ffffffffffffffffffffffffffffffffffffffff1614158015611c7e5750600081115b15611ede57600073ffffffffffffffffffffffffffffffffffffffff168373ffffffffffffffffffffffffffffffffffffffff1614611db0576000600960008573ffffffffffffffffffffffffffffffffffffffff1673ffffffffffffffffffffffffffffffffffffffff16815260200190815260200160002060009054906101000a900463ffffffff1690506000808263ffffffff1611611d21576000611d8e565b600860008673ffffffffffffffffffffffffffffffffffffffff1673ffffffffffffffffffffffffffffffffffffffff1681526020019081526020016000206000600184611d6f9190613120565b63ffffffff1663ffffffff168152602001908152602001600020600101545b905060008382611d9e91906130ec565b9050611dac868484846122ff565b5050505b600073ffffffffffffffffffffffffffffffffffffffff168273ffffffffffffffffffffffffffffffffffffffff1614611edd576000600960008473ffffffffffffffffffffffffffffffffffffffff1673ffffffffffffffffffffffffffffffffffffffff16815260200190815260200160002060009054906101000a900463ffffffff1690506000808263ffffffff1611611e4e576000611ebb565b600860008573ffffffffffffffffffffffffffffffffffffffff1673ffffffffffffffffffffffffffffffffffffffff1681526020019081526020016000206000600184611e9c9190613120565b63ffffffff1663ffffffff168152602001908152602001600020600101545b905060008382611ecb919061302b565b9050611ed9858484846122ff565b5050505b5b505050565b6000600760008473ffffffffffffffffffffffffffffffffffffffff1673ffffffffffffffffffffffffffffffffffffffff16815260200190815260200160002060009054906101000a900473ffffffffffffffffffffffffffffffffffffffff1690506000611f5284610848565b905082600760008673ffffffffffffffffffffffffffffffffffffffff1673ffffffffffffffffffffffffffffffffffffffff16815260200190815260200160002060006101000a81548173ffffffffffffffffffffffffffffffffffffffff021916908373ffffffffffffffffffffffffffffffffffffffff1602179055508273ffffffffffffffffffffffffffffffffffffffff168273ffffffffffffffffffffffffffffffffffffffff168573ffffffffffffffffffffffffffffffffffffffff167f3134e8a2e6d97e929a7e54011ea5485d7d196dd5f0ba4d4ef95803e8e3fc257f60405160405180910390a461204e828483611c42565b50505050565b6000600560009054906101000a900473ffffffffffffffffffffffffffffffffffffffff16905081600560006101000a81548173ffffffffffffffffffffffffffffffffffffffff021916908373ffffffffffffffffffffffffffffffffffffffff1602179055508173ffffffffffffffffffffffffffffffffffffffff168173ffffffffffffffffffffffffffffffffffffffff167f8be0079c531659141344cd1fd0a4f28419497f9722a3daafe3b4186f6b6457e060405160405180910390a35050565b600073ffffffffffffffffffffffffffffffffffffffff168273ffffffffffffffffffffffffffffffffffffffff16141561218a576040517f08c379a000000000000000000000000000000000000000000000000000000000815260040161218190612ec1565b60405180910390fd5b612196826000836122f5565b60008060008473ffffffffffffffffffffffffffffffffffffffff1673ffffffffffffffffffffffffffffffffffffffff1681526020019081526020016000205490508181101561221c576040517f08c379a000000000000000000000000000000000000000000000000000000000815260040161221390612d81565b60405180910390fd5b8181036000808573ffffffffffffffffffffffffffffffffffffffff1673ffffffffffffffffffffffffffffffffffffffff1681526020019081526020016000208190555081600260008282540392505081905550600073ffffffffffffffffffffffffffffffffffffffff168373ffffffffffffffffffffffffffffffffffffffff167fddf252ad1be2c89b69c2b068fc378daa952ba7f163c4a11628f55a4df523b3ef846040516122cf9190612f61565b60405180910390a36122e3836000846122fa565b505050565b6000804690508091505090565b505050565b505050565b60006123234360405180606001604052806034815260200161386f603491396125a8565b905060008463ffffffff161180156123c157508063ffffffff16600860008773ffffffffffffffffffffffffffffffffffffffff1673ffffffffffffffffffffffffffffffffffffffff168152602001908152602001600020600060018761238b9190613120565b63ffffffff1663ffffffff16815260200190815260200160002060000160009054906101000a900463ffffffff1663ffffffff16145b1561243b5781600860008773ffffffffffffffffffffffffffffffffffffffff1673ffffffffffffffffffffffffffffffffffffffff16815260200190815260200160002060006001876124159190613120565b63ffffffff1663ffffffff16815260200190815260200160002060010181905550612551565b60405180604001604052808263ffffffff16815260200183815250600860008773ffffffffffffffffffffffffffffffffffffffff1673ffffffffffffffffffffffffffffffffffffffff16815260200190815260200160002060008663ffffffff1663ffffffff16815260200190815260200160002060008201518160000160006101000a81548163ffffffff021916908363ffffffff160217905550602082015181600101559050506001846124f39190613081565b600960008773ffffffffffffffffffffffffffffffffffffffff1673ffffffffffffffffffffffffffffffffffffffff16815260200190815260200160002060006101000a81548163ffffffff021916908363ffffffff1602179055505b8473ffffffffffffffffffffffffffffffffffffffff167fdec2bacdd2f05b59de34da9b523dff8be42e5e38e818c82fdb0bae774387a7248484604051612599929190612f7c565b60405180910390a25050505050565b6000640100000000831082906125f4576040517f08c379a00000000000000000000000000000000000000000000000000000000081526004016125eb9190612d3f565b60405180910390fd5b5082905092915050565b60008135905061260d816137e4565b92915050565b600081519050612622816137fb565b92915050565b60008135905061263781613812565b92915050565b60008135905061264c81613829565b92915050565b60008151905061266181613829565b92915050565b60008135905061267681613840565b92915050565b60008135905061268b81613857565b92915050565b6000602082840312156126a357600080fd5b60006126b1848285016125fe565b91505092915050565b600080604083850312156126cd57600080fd5b60006126db858286016125fe565b92505060206126ec858286016125fe565b9150509250929050565b60008060006060848603121561270b57600080fd5b6000612719868287016125fe565b935050602061272a868287016125fe565b925050604061273b8682870161263d565b9150509250925092565b6000806040838503121561275857600080fd5b6000612766858286016125fe565b92505060206127778582860161263d565b9150509250929050565b60008060008060008060c0878903121561279a57600080fd5b60006127a889828a016125fe565b96505060206127b989828a0161263d565b95505060406127ca89828a0161263d565b94505060606127db89828a0161267c565b93505060806127ec89828a01612628565b92505060a06127fd89828a01612628565b9150509295509295509295565b6000806040838503121561281d57600080fd5b600061282b858286016125fe565b925050602061283c85828601612667565b9150509250929050565b60006020828403121561285857600080fd5b600061286684828501612613565b91505092915050565b60006020828403121561288157600080fd5b600061288f84828501612652565b91505092915050565b6128a181613154565b82525050565b6128b081613166565b82525050565b6128bf81613172565b82525050565b6128d66128d182613172565b613295565b82525050565b6128e5816131c3565b82525050565b60006128f682613004565b612900818561300f565b93506129108185602086016131e7565b6129198161332c565b840191505092915050565b600061293160238361300f565b915061293c8261333d565b604082019050919050565b600061295460228361300f565b915061295f8261338c565b604082019050919050565b600061297760268361300f565b9150612982826133db565b604082019050919050565b600061299a60228361300f565b91506129a58261342a565b604082019050919050565b60006129bd60268361300f565b91506129c882613479565b604082019050919050565b60006129e0600283613020565b91506129eb826134c8565b600282019050919050565b6000612a03601d8361300f565b9150612a0e826134f1565b602082019050919050565b6000612a2660268361300f565b9150612a318261351a565b604082019050919050565b6000612a4960268361300f565b9150612a5482613569565b604082019050919050565b6000612a6c60208361300f565b9150612a77826135b8565b602082019050919050565b6000612a8f60278361300f565b9150612a9a826135e1565b604082019050919050565b6000612ab260228361300f565b9150612abd82613630565b604082019050919050565b6000612ad560218361300f565b9150612ae08261367f565b604082019050919050565b6000612af860258361300f565b9150612b03826136ce565b604082019050919050565b6000612b1b60248361300f565b9150612b268261371d565b604082019050919050565b6000612b3e60258361300f565b9150612b498261376c565b604082019050919050565b6000612b61601f8361300f565b9150612b6c826137bb565b602082019050919050565b612b808161319c565b82525050565b612b8f816131a6565b82525050565b612b9e816131b6565b82525050565b6000612baf826129d3565b9150612bbb82856128c5565b602082019150612bcb82846128c5565b6020820191508190509392505050565b6000602082019050612bf06000830184612898565b92915050565b6000604082019050612c0b6000830185612898565b612c186020830184612b77565b9392505050565b6000602082019050612c3460008301846128a7565b92915050565b6000602082019050612c4f60008301846128b6565b92915050565b6000608082019050612c6a60008301876128b6565b612c776020830186612898565b612c846040830185612b77565b612c916060830184612b77565b95945050505050565b6000608082019050612caf60008301876128b6565b612cbc60208301866128b6565b612cc96040830185612b77565b612cd66060830184612898565b95945050505050565b6000608082019050612cf460008301876128b6565b612d016020830186612b95565b612d0e60408301856128b6565b612d1b60608301846128b6565b95945050505050565b6000602082019050612d3960008301846128dc565b92915050565b60006020820190508181036000830152612d5981846128eb565b905092915050565b60006020820190508181036000830152612d7a81612924565b9050919050565b60006020820190508181036000830152612d9a81612947565b9050919050565b60006020820190508181036000830152612dba8161296a565b9050919050565b60006020820190508181036000830152612dda8161298d565b9050919050565b60006020820190508181036000830152612dfa816129b0565b9050919050565b60006020820190508181036000830152612e1a816129f6565b9050919050565b60006020820190508181036000830152612e3a81612a19565b9050919050565b60006020820190508181036000830152612e5a81612a3c565b9050919050565b60006020820190508181036000830152612e7a81612a5f565b9050919050565b60006020820190508181036000830152612e9a81612a82565b9050919050565b60006020820190508181036000830152612eba81612aa5565b9050919050565b60006020820190508181036000830152612eda81612ac8565b9050919050565b60006020820190508181036000830152612efa81612aeb565b9050919050565b60006020820190508181036000830152612f1a81612b0e565b9050919050565b60006020820190508181036000830152612f3a81612b31565b9050919050565b60006020820190508181036000830152612f5a81612b54565b9050919050565b6000602082019050612f766000830184612b77565b92915050565b6000604082019050612f916000830185612b77565b612f9e6020830184612b77565b9392505050565b6000602082019050612fba6000830184612b86565b92915050565b6000604082019050612fd56000830185612b86565b612fe26020830184612b77565b9392505050565b6000602082019050612ffe6000830184612b95565b92915050565b600081519050919050565b600082825260208201905092915050565b600081905092915050565b60006130368261319c565b91506130418361319c565b9250827fffffffffffffffffffffffffffffffffffffffffffffffffffffffffffffffff038211156130765761307561329f565b5b828201905092915050565b600061308c826131a6565b9150613097836131a6565b92508263ffffffff038211156130b0576130af61329f565b5b828201905092915050565b60006130c6826131a6565b91506130d1836131a6565b9250826130e1576130e06132ce565b5b828204905092915050565b60006130f78261319c565b91506131028361319c565b9250828210156131155761311461329f565b5b828203905092915050565b600061312b826131a6565b9150613136836131a6565b9250828210156131495761314861329f565b5b828203905092915050565b600061315f8261317c565b9050919050565b60008115159050919050565b6000819050919050565b600073ffffffffffffffffffffffffffffffffffffffff82169050919050565b6000819050919050565b600063ffffffff82169050919050565b600060ff82169050919050565b60006131ce826131d5565b9050919050565b60006131e08261317c565b9050919050565b60005b838110156132055780820151818401526020810190506131ea565b83811115613214576000848401525b50505050565b6000600282049050600182168061323257607f821691505b60208210811415613246576132456132fd565b5b50919050565b60006132578261319c565b91507fffffffffffffffffffffffffffffffffffffffffffffffffffffffffffffffff82141561328a5761328961329f565b5b600182019050919050565b6000819050919050565b7f4e487b7100000000000000000000000000000000000000000000000000000000600052601160045260246000fd5b7f4e487b7100000000000000000000000000000000000000000000000000000000600052601260045260246000fd5b7f4e487b7100000000000000000000000000000000000000000000000000000000600052602260045260246000fd5b6000601f19601f8301169050919050565b7f45524332303a207472616e7366657220746f20746865207a65726f206164647260008201527f6573730000000000000000000000000000000000000000000000000000000000602082015250565b7f45524332303a206275726e20616d6f756e7420657863656564732062616c616e60008201527f6365000000000000000000000000000000000000000000000000000000000000602082015250565b7f4f776e61626c653a206e6577206f776e657220697320746865207a65726f206160008201527f6464726573730000000000000000000000000000000000000000000000000000602082015250565b7f45524332303a20617070726f766520746f20746865207a65726f20616464726560008201527f7373000000000000000000000000000000000000000000000000000000000000602082015250565b7f43414b453a3a64656c656761746542795369673a207369676e6174757265206560008201527f7870697265640000000000000000000000000000000000000000000000000000602082015250565b7f1901000000000000000000000000000000000000000000000000000000000000600082015250565b7f45524332303a20696e73756666696369656e7420616c6c6f77616e6365000000600082015250565b7f45524332303a207472616e7366657220616d6f756e742065786365656473206260008201527f616c616e63650000000000000000000000000000000000000000000000000000602082015250565b7f43414b453a3a64656c656761746542795369673a20696e76616c69642073696760008201527f6e61747572650000000000000000000000000000000000000000000000000000602082015250565b7f4f776e61626c653a2063616c6c6572206973206e6f7420746865206f776e6572600082015250565b7f43414b453a3a6765745072696f72566f7465733a206e6f74207965742064657460008201527f65726d696e656400000000000000000000000000000000000000000000000000602082015250565b7f43414b453a3a64656c656761746542795369673a20696e76616c6964206e6f6e60008201527f6365000000000000000000000000000000000000000000000000000000000000602082015250565b7f45524332303a206275726e2066726f6d20746865207a65726f2061646472657360008201527f7300000000000000000000000000000000000000000000000000000000000000602082015250565b7f45524332303a207472616e736665722066726f6d20746865207a65726f20616460008201527f6472657373000000000000000000000000000000000000000000000000000000602082015250565b7f45524332303a20617070726f76652066726f6d20746865207a65726f2061646460008201527f7265737300000000000000000000000000000000000000000000000000000000602082015250565b7f45524332303a2064656372656173656420616c6c6f77616e63652062656c6f7760008201527f207a65726f000000000000000000000000000000000000000000000000000000602082015250565b7f45524332303a206d696e7420746f20746865207a65726f206164647265737300600082015250565b6137ed81613154565b81146137f857600080fd5b50565b61380481613166565b811461380f57600080fd5b50565b61381b81613172565b811461382657600080fd5b50565b6138328161319c565b811461383d57600080fd5b50565b613849816131a6565b811461385457600080fd5b50565b613860816131b6565b811461386b57600080fd5b5056fe43414b453a3a5f7772697465436865636b706f696e743a20626c6f636b206e756d62657220657863656564732033322062697473a2646970667358221220cd168c20ace99bd8236d464f7f28ed055518270330d3bd221b4ca9959391775e64736f6c63430008010033",
  "linkReferences": {},
  "deployedLinkReferences": {}
}