{
  "_format": "hh-sol-artifact-1",
  "contractName": "TCake",
  "sourceName": "contracts/TCake.sol",
  "abi": [
    {
      "inputs": [],
      "stateMutability": "nonpayable",
      "type": "constructor"
    },
    {
      "anonymous": false,
      "inputs": [
        {
          "indexed": true,
          "internalType": "address",
          "name": "_owner",
          "type": "address"
        },
        {
          "indexed": true,
          "internalType": "address",
          "name": "_spender",
          "type": "address"
        },
        {
          "indexed": false,
          "internalType": "uint256",
          "name": "_value",
          "type": "uint256"
        }
      ],
      "name": "Approval",
      "type": "event"
    },
    {
      "anonymous": false,
      "inputs": [
        {
          "indexed": true,
          "internalType": "address",
          "name": "_sender",
          "type": "address"
        },
        {
          "indexed": false,
          "internalType": "uint256",
          "name": "_value",
          "type": "uint256"
        }
      ],
      "name": "Deposit",
      "type": "event"
    },
    {
      "anonymous": false,
      "inputs": [
        {
          "indexed": true,
          "internalType": "address",
          "name": "_from",
          "type": "address"
        },
        {
          "indexed": true,
          "internalType": "address",
          "name": "_to",
          "type": "address"
        },
        {
          "indexed": false,
          "internalType": "uint256",
          "name": "_value",
          "type": "uint256"
        }
      ],
      "name": "Transfer",
      "type": "event"
    },
    {
      "anonymous": false,
      "inputs": [
        {
          "indexed": true,
          "internalType": "address",
          "name": "_sender",
          "type": "address"
        },
        {
          "indexed": false,
          "internalType": "uint256",
          "name": "_value",
          "type": "uint256"
        }
      ],
      "name": "Withdrawal",
      "type": "event"
    },
    {
      "inputs": [
        {
          "internalType": "address",
          "name": "",
          "type": "address"
        },
        {
          "internalType": "address",
          "name": "",
          "type": "address"
        }
      ],
      "name": "allowance",
      "outputs": [
        {
          "internalType": "uint256",
          "name": "",
          "type": "uint256"
        }
      ],
      "stateMutability": "view",
      "type": "function"
    },
    {
      "inputs": [
        {
          "internalType": "address",
          "name": "_spender",
          "type": "address"
        },
        {
          "internalType": "uint256",
          "name": "_value",
          "type": "uint256"
        }
      ],
      "name": "approve",
      "outputs": [
        {
          "internalType": "bool",
          "name": "success",
          "type": "bool"
        }
      ],
      "stateMutability": "nonpayable",
      "type": "function"
    },
    {
      "inputs": [
        {
          "internalType": "address",
          "name": "",
          "type": "address"
        }
      ],
      "name": "balanceOf",
      "outputs": [
        {
          "internalType": "uint256",
          "name": "",
          "type": "uint256"
        }
      ],
      "stateMutability": "view",
      "type": "function"
    },
    {
      "inputs": [
        {
          "internalType": "address",
          "name": "",
          "type": "address"
        }
      ],
      "name": "balanceOfBNB",
      "outputs": [
        {
          "internalType": "uint256",
          "name": "",
          "type": "uint256"
        }
      ],
      "stateMutability": "view",
      "type": "function"
    },
    {
      "inputs": [],
      "name": "decimals",
      "outputs": [
        {
          "internalType": "uint8",
          "name": "",
          "type": "uint8"
        }
      ],
      "stateMutability": "view",
      "type": "function"
    },
    {
      "inputs": [],
      "name": "deposit",
      "outputs": [],
      "stateMutability": "payable",
      "type": "function"
    },
    {
      "inputs": [],
      "name": "name",
      "outputs": [
        {
          "internalType": "string",
          "name": "",
          "type": "string"
        }
      ],
      "stateMutability": "view",
      "type": "function"
    },
    {
      "inputs": [],
      "name": "symbol",
      "outputs": [
        {
          "internalType": "string",
          "name": "",
          "type": "string"
        }
      ],
      "stateMutability": "view",
      "type": "function"
    },
    {
      "inputs": [],
      "name": "totalSupply",
      "outputs": [
        {
          "internalType": "uint256",
          "name": "",
          "type": "uint256"
        }
      ],
      "stateMutability": "view",
      "type": "function"
    },
    {
      "inputs": [
        {
          "internalType": "address",
          "name": "_to",
          "type": "address"
        },
        {
          "internalType": "uint256",
          "name": "_value",
          "type": "uint256"
        }
      ],
      "name": "transfer",
      "outputs": [
        {
          "internalType": "bool",
          "name": "success",
          "type": "bool"
        }
      ],
      "stateMutability": "nonpayable",
      "type": "function"
    },
    {
      "inputs": [
        {
          "internalType": "address",
          "name": "_from",
          "type": "address"
        },
        {
          "internalType": "address",
          "name": "_to",
          "type": "address"
        },
        {
          "internalType": "uint256",
          "name": "_value",
          "type": "uint256"
        }
      ],
      "name": "transferFrom",
      "outputs": [
        {
          "internalType": "bool",
          "name": "success",
          "type": "bool"
        }
      ],
      "stateMutability": "nonpayable",
      "type": "function"
    },
    {
      "inputs": [
        {
          "internalType": "uint256",
          "name": "_value",
          "type": "uint256"
        }
      ],
      "name": "withdraw",
      "outputs": [],
      "stateMutability": "nonpayable",
      "type": "function"
    }
  ],
  "bytecode": "0x60806040526040518060400160405280600f81526020017f546573742043414b4520546f6b656e0000000000000000000000000000000000815250600090805190602001906200005192919062000124565b506040518060400160405280600581526020017f5443616b65000000000000000000000000000000000000000000000000000000815250600190805190602001906200009f92919062000124565b5069d3c21bcecceda10000006002556012600360006101000a81548160ff021916908360ff160217905550348015620000d757600080fd5b50600254600460003373ffffffffffffffffffffffffffffffffffffffff1673ffffffffffffffffffffffffffffffffffffffff1681526020019081526020016000208190555062000239565b8280546200013290620001d4565b90600052602060002090601f016020900481019282620001565760008555620001a2565b82601f106200017157805160ff1916838001178555620001a2565b82800160010185558215620001a2579182015b82811115620001a157825182559160200191906001019062000184565b5b509050620001b19190620001b5565b5090565b5b80821115620001d0576000816000905550600101620001b6565b5090565b60006002820490506001821680620001ed57607f821691505b602082108114156200020457620002036200020a565b5b50919050565b7f4e487b7100000000000000000000000000000000000000000000000000000000600052602260045260246000fd5b61121b80620002496000396000f3fe6080604052600436106100a75760003560e01c806370a082311161006457806370a08231146101d057806395d89b411461020d578063a573489614610238578063a9059cbb14610275578063d0e30db0146102b2578063dd62ed3e146102bc576100a7565b806306fdde03146100ac578063095ea7b3146100d757806318160ddd1461011457806323b872dd1461013f5780632e1a7d4d1461017c578063313ce567146101a5575b600080fd5b3480156100b857600080fd5b506100c16102f9565b6040516100ce9190610e6c565b60405180910390f35b3480156100e357600080fd5b506100fe60048036038101906100f99190610cfa565b610387565b60405161010b9190610e51565b60405180910390f35b34801561012057600080fd5b50610129610479565b6040516101369190610f0e565b60405180910390f35b34801561014b57600080fd5b5061016660048036038101906101619190610cab565b61047f565b6040516101739190610e51565b60405180910390f35b34801561018857600080fd5b506101a3600480360381019061019e9190610d36565b610771565b005b3480156101b157600080fd5b506101ba6108e1565b6040516101c79190610f29565b60405180910390f35b3480156101dc57600080fd5b506101f760048036038101906101f29190610c46565b6108f4565b6040516102049190610f0e565b60405180910390f35b34801561021957600080fd5b5061022261090c565b60405161022f9190610e6c565b60405180910390f35b34801561024457600080fd5b5061025f600480360381019061025a9190610c46565b61099a565b60405161026c9190610f0e565b60405180910390f35b34801561028157600080fd5b5061029c60048036038101906102979190610cfa565b6109b2565b6040516102a99190610e51565b60405180910390f35b6102ba610b51565b005b3480156102c857600080fd5b506102e360048036038101906102de9190610c6f565b610bf7565b6040516102f09190610f0e565b60405180910390f35b6000805461030690611072565b80601f016020809104026020016040519081016040528092919081815260200182805461033290611072565b801561037f5780601f106103545761010080835404028352916020019161037f565b820191906000526020600020905b81548152906001019060200180831161036257829003601f168201915b505050505081565b600081600560003373ffffffffffffffffffffffffffffffffffffffff1673ffffffffffffffffffffffffffffffffffffffff16815260200190815260200160002060008573ffffffffffffffffffffffffffffffffffffffff1673ffffffffffffffffffffffffffffffffffffffff168152602001908152602001600020819055508273ffffffffffffffffffffffffffffffffffffffff163373ffffffffffffffffffffffffffffffffffffffff167f8c5be1e5ebec7d5bd14f71427d1e84f3dd0314c0f7b2291e5b200ac8c7c3b925846040516104679190610f0e565b60405180910390a36001905092915050565b60025481565b6000600460008573ffffffffffffffffffffffffffffffffffffffff1673ffffffffffffffffffffffffffffffffffffffff16815260200190815260200160002054821115610503576040517f08c379a00000000000000000000000000000000000000000000000000000000081526004016104fa90610ece565b60405180910390fd5b600560008573ffffffffffffffffffffffffffffffffffffffff1673ffffffffffffffffffffffffffffffffffffffff16815260200190815260200160002060003373ffffffffffffffffffffffffffffffffffffffff1673ffffffffffffffffffffffffffffffffffffffff168152602001908152602001600020548211156105c2576040517f08c379a00000000000000000000000000000000000000000000000000000000081526004016105b990610eae565b60405180910390fd5b81600460008673ffffffffffffffffffffffffffffffffffffffff1673ffffffffffffffffffffffffffffffffffffffff16815260200190815260200160002060008282546106119190610fb6565b9250508190555081600460008573ffffffffffffffffffffffffffffffffffffffff1673ffffffffffffffffffffffffffffffffffffffff16815260200190815260200160002060008282546106679190610f60565b9250508190555081600560008673ffffffffffffffffffffffffffffffffffffffff1673ffffffffffffffffffffffffffffffffffffffff16815260200190815260200160002060003373ffffffffffffffffffffffffffffffffffffffff1673ffffffffffffffffffffffffffffffffffffffff16815260200190815260200160002060008282546106fa9190610fb6565b925050819055508273ffffffffffffffffffffffffffffffffffffffff168473ffffffffffffffffffffffffffffffffffffffff167fddf252ad1be2c89b69c2b068fc378daa952ba7f163c4a11628f55a4df523b3ef8460405161075e9190610f0e565b60405180910390a3600190509392505050565b80600660003373ffffffffffffffffffffffffffffffffffffffff1673ffffffffffffffffffffffffffffffffffffffff1681526020019081526020016000205410156107f3576040517f08c379a00000000000000000000000000000000000000000000000000000000081526004016107ea90610eee565b60405180910390fd5b80600660003373ffffffffffffffffffffffffffffffffffffffff1673ffffffffffffffffffffffffffffffffffffffff16815260200190815260200160002060008282546108429190610fb6565b925050819055503373ffffffffffffffffffffffffffffffffffffffff166108fc829081150290604051600060405180830381858888f1935050505015801561088f573d6000803e3d6000fd5b503373ffffffffffffffffffffffffffffffffffffffff167f7fcf532c15f0a6db0bd6d0e038bea71d30d808c7d98cb3bf7268a95bf5081b65826040516108d69190610f0e565b60405180910390a250565b600360009054906101000a900460ff1681565b60046020528060005260406000206000915090505481565b6001805461091990611072565b80601f016020809104026020016040519081016040528092919081815260200182805461094590611072565b80156109925780601f1061096757610100808354040283529160200191610992565b820191906000526020600020905b81548152906001019060200180831161097557829003601f168201915b505050505081565b60066020528060005260406000206000915090505481565b600081600460003373ffffffffffffffffffffffffffffffffffffffff1673ffffffffffffffffffffffffffffffffffffffff168152602001908152602001600020541015610a36576040517f08c379a0000000000000000000000000000000000000000000000000000000008152600401610a2d90610e8e565b60405180910390fd5b81600460003373ffffffffffffffffffffffffffffffffffffffff1673ffffffffffffffffffffffffffffffffffffffff1681526020019081526020016000206000828254610a859190610fb6565b9250508190555081600460008573ffffffffffffffffffffffffffffffffffffffff1673ffffffffffffffffffffffffffffffffffffffff1681526020019081526020016000206000828254610adb9190610f60565b925050819055508273ffffffffffffffffffffffffffffffffffffffff163373ffffffffffffffffffffffffffffffffffffffff167fddf252ad1be2c89b69c2b068fc378daa952ba7f163c4a11628f55a4df523b3ef84604051610b3f9190610f0e565b60405180910390a36001905092915050565b34600660003373ffffffffffffffffffffffffffffffffffffffff1673ffffffffffffffffffffffffffffffffffffffff1681526020019081526020016000206000828254610ba09190610f60565b925050819055503373ffffffffffffffffffffffffffffffffffffffff167fe1fffcc4923d04b559f4d29a8bfc6cda04eb5b0d3c460751c2402c5c5cc9109c34604051610bed9190610f0e565b60405180910390a2565b6005602052816000526040600020602052806000526040600020600091509150505481565b600081359050610c2b816111b7565b92915050565b600081359050610c40816111ce565b92915050565b600060208284031215610c5857600080fd5b6000610c6684828501610c1c565b91505092915050565b60008060408385031215610c8257600080fd5b6000610c9085828601610c1c565b9250506020610ca185828601610c1c565b9150509250929050565b600080600060608486031215610cc057600080fd5b6000610cce86828701610c1c565b9350506020610cdf86828701610c1c565b9250506040610cf086828701610c31565b9150509250925092565b60008060408385031215610d0d57600080fd5b6000610d1b85828601610c1c565b9250506020610d2c85828601610c31565b9150509250929050565b600060208284031215610d4857600080fd5b6000610d5684828501610c31565b91505092915050565b610d6881610ffc565b82525050565b6000610d7982610f44565b610d838185610f4f565b9350610d9381856020860161103f565b610d9c81611102565b840191505092915050565b6000610db4600b83610f4f565b9150610dbf82611113565b602082019050919050565b6000610dd7600983610f4f565b9150610de28261113c565b602082019050919050565b6000610dfa600a83610f4f565b9150610e0582611165565b602082019050919050565b6000610e1d600b83610f4f565b9150610e288261118e565b602082019050919050565b610e3c81611028565b82525050565b610e4b81611032565b82525050565b6000602082019050610e666000830184610d5f565b92915050565b60006020820190508181036000830152610e868184610d6e565b905092915050565b60006020820190508181036000830152610ea781610da7565b9050919050565b60006020820190508181036000830152610ec781610dca565b9050919050565b60006020820190508181036000830152610ee781610ded565b9050919050565b60006020820190508181036000830152610f0781610e10565b9050919050565b6000602082019050610f236000830184610e33565b92915050565b6000602082019050610f3e6000830184610e42565b92915050565b600081519050919050565b600082825260208201905092915050565b6000610f6b82611028565b9150610f7683611028565b9250827fffffffffffffffffffffffffffffffffffffffffffffffffffffffffffffffff03821115610fab57610faa6110a4565b5b828201905092915050565b6000610fc182611028565b9150610fcc83611028565b925082821015610fdf57610fde6110a4565b5b828203905092915050565b6000610ff582611008565b9050919050565b60008115159050919050565b600073ffffffffffffffffffffffffffffffffffffffff82169050919050565b6000819050919050565b600060ff82169050919050565b60005b8381101561105d578082015181840152602081019050611042565b8381111561106c576000848401525b50505050565b6000600282049050600182168061108a57607f821691505b6020821081141561109e5761109d6110d3565b5b50919050565b7f4e487b7100000000000000000000000000000000000000000000000000000000600052601160045260246000fd5b7f4e487b7100000000000000000000000000000000000000000000000000000000600052602260045260246000fd5b6000601f19601f8301169050919050565b7f3434343434343434343434000000000000000000000000000000000000000000600082015250565b7f3131313131313131310000000000000000000000000000000000000000000000600082015250565b7f3232323232323232323200000000000000000000000000000000000000000000600082015250565b7f3333333333333333333333000000000000000000000000000000000000000000600082015250565b6111c081610fea565b81146111cb57600080fd5b50565b6111d781611028565b81146111e257600080fd5b5056fea26469706673582212207843c9ffa27d5cf7143863fafc2ced9c3a13cd316870c4a7797ff01c28e831e564736f6c63430008010033",
  "linkReferences": {},
  "deployedLinkReferences": {}
}