{"contracts/FrogLottery.sol":{"FrogLottery":{"abi":[{"inputs":[{"internalType":"address","name":"_frogReferalAddress","type":"address"}],"stateMutability":"nonpayable","type":"constructor"},{"anonymous":false,"inputs":[{"indexed":true,"internalType":"address","name":"_oldBeneficiary","type":"address"},{"indexed":true,"internalType":"address","name":"_newBeneficiary","type":"address"}],"name":"BeneficiaryChanged","type":"event"},{"anonymous":false,"inputs":[{"indexed":true,"internalType":"address","name":"_participant","type":"address"},{"indexed":false,"internalType":"uint256","name":"_amount","type":"uint256"},{"indexed":false,"internalType":"uint256","name":"_oldBalance","type":"uint256"}],"name":"Deposit","type":"event"},{"anonymous":false,"inputs":[{"indexed":true,"internalType":"uint256","name":"_drawNumber","type":"uint256"},{"indexed":false,"internalType":"uint256","name":"_fundTotal","type":"uint256"},{"indexed":false,"internalType":"uint256","name":"_rewardTotal","type":"uint256"},{"indexed":false,"internalType":"uint256","name":"_feeTotal","type":"uint256"}],"name":"Draw","type":"event"},{"anonymous":false,"inputs":[{"indexed":true,"internalType":"uint256","name":"_oldFeePercent","type":"uint256"},{"indexed":true,"internalType":"uint256","name":"_newFeePercent","type":"uint256"}],"name":"FeePercentChanged","type":"event"},{"anonymous":false,"inputs":[{"indexed":true,"internalType":"address","name":"_newParticipant","type":"address"}],"name":"NewParticipant","type":"event"},{"anonymous":false,"inputs":[{"indexed":true,"internalType":"address","name":"previousOwner","type":"address"},{"indexed":true,"internalType":"address","name":"newOwner","type":"address"}],"name":"OwnershipTransferred","type":"event"},{"anonymous":false,"inputs":[{"indexed":true,"internalType":"uint256","name":"_drawNumber","type":"uint256"},{"indexed":true,"internalType":"address","name":"_winner","type":"address"},{"indexed":false,"internalType":"uint256","name":"_amount","type":"uint256"}],"name":"Victory","type":"event"},{"anonymous":false,"inputs":[{"indexed":true,"internalType":"address","name":"_participant","type":"address"},{"indexed":false,"internalType":"uint256","name":"_amount","type":"uint256"},{"indexed":false,"internalType":"uint256","name":"_oldBalance","type":"uint256"}],"name":"Withdraw","type":"event"},{"stateMutability":"payable","type":"fallback"},{"inputs":[{"internalType":"address","name":"","type":"address"}],"name":"alreadyParticipant","outputs":[{"internalType":"bool","name":"","type":"bool"}],"stateMutability":"view","type":"function"},{"inputs":[{"internalType":"address","name":"","type":"address"}],"name":"balanceOf","outputs":[{"internalType":"uint256","name":"","type":"uint256"}],"stateMutability":"view","type":"function"},{"inputs":[],"name":"beneficiary","outputs":[{"internalType":"address","name":"","type":"address"}],"stateMutability":"view","type":"function"},{"inputs":[],"name":"claimReward","outputs":[],"stateMutability":"nonpayable","type":"function"},{"inputs":[{"internalType":"uint256","name":"_amountToken0","type":"uint256"}],"name":"deposit","outputs":[{"internalType":"bool","name":"success","type":"bool"}],"stateMutability":"payable","type":"function"},{"inputs":[{"internalType":"address","name":"","type":"address"}],"name":"depositOf","outputs":[{"internalType":"uint256","name":"","type":"uint256"}],"stateMutability":"view","type":"function"},{"inputs":[],"name":"draw","outputs":[],"stateMutability":"nonpayable","type":"function"},{"inputs":[],"name":"drawNumber","outputs":[{"internalType":"uint256","name":"","type":"uint256"}],"stateMutability":"view","type":"function"},{"inputs":[],"name":"farmTotal","outputs":[{"internalType":"uint256","name":"","type":"uint256"}],"stateMutability":"view","type":"function"},{"inputs":[{"internalType":"uint256","name":"_amount","type":"uint256"},{"internalType":"address","name":"_tokenIn","type":"address"},{"internalType":"address","name":"_tokenOut","type":"address"}],"name":"getPSRate","outputs":[{"internalType":"uint256","name":"","type":"uint256"}],"stateMutability":"view","type":"function"},{"inputs":[],"name":"getParticipants","outputs":[{"internalType":"address[]","name":"result","type":"address[]"},{"internalType":"uint256","name":"counter","type":"uint256"}],"stateMutability":"view","type":"function"},{"inputs":[{"internalType":"address","name":"_participant","type":"address"}],"name":"isParticipant","outputs":[{"internalType":"bool","name":"","type":"bool"}],"stateMutability":"view","type":"function"},{"inputs":[],"name":"lpDecimals","outputs":[{"internalType":"uint256","name":"","type":"uint256"}],"stateMutability":"view","type":"function"},{"inputs":[],"name":"maxUsdt","outputs":[{"internalType":"uint256","name":"","type":"uint256"}],"stateMutability":"view","type":"function"},{"inputs":[],"name":"minUsdt","outputs":[{"internalType":"uint256","name":"","type":"uint256"}],"stateMutability":"view","type":"function"},{"inputs":[],"name":"owner","outputs":[{"internalType":"address","name":"","type":"address"}],"stateMutability":"view","type":"function"},{"inputs":[{"internalType":"uint256","name":"","type":"uint256"}],"name":"participants","outputs":[{"internalType":"address","name":"","type":"address"}],"stateMutability":"view","type":"function"},{"inputs":[],"name":"rateLPTokens","outputs":[{"internalType":"uint256","name":"lpToken0","type":"uint256"},{"internalType":"uint256","name":"lpToken1","type":"uint256"}],"stateMutability":"view","type":"function"},{"inputs":[],"name":"removeWithdraw","outputs":[],"stateMutability":"nonpayable","type":"function"},{"inputs":[],"name":"renounceOwnership","outputs":[],"stateMutability":"nonpayable","type":"function"},{"inputs":[{"internalType":"address","name":"","type":"address"}],"name":"rewardOf","outputs":[{"internalType":"uint256","name":"","type":"uint256"}],"stateMutability":"view","type":"function"},{"inputs":[{"internalType":"address","name":"cake","type":"address"},{"internalType":"address","name":"bnb","type":"address"},{"internalType":"address","name":"usdt","type":"address"},{"internalType":"address","name":"router","type":"address"},{"internalType":"address","name":"masterChef","type":"address"},{"internalType":"address","name":"pair","type":"address"}],"name":"setAll","outputs":[],"stateMutability":"nonpayable","type":"function"},{"inputs":[{"internalType":"address","name":"_newBeneficiary","type":"address"}],"name":"setBeneficiary","outputs":[],"stateMutability":"nonpayable","type":"function"},{"inputs":[{"internalType":"address","name":"_address","type":"address"}],"name":"setBnbContractAddress","outputs":[],"stateMutability":"nonpayable","type":"function"},{"inputs":[{"internalType":"address","name":"_cakeContractAddress","type":"address"}],"name":"setCakeContractAddress","outputs":[],"stateMutability":"nonpayable","type":"function"},{"inputs":[{"internalType":"uint256","name":"_newFeePercent","type":"uint256"}],"name":"setFeePercent","outputs":[],"stateMutability":"nonpayable","type":"function"},{"inputs":[{"internalType":"address","name":"_address","type":"address"}],"name":"setFrogReferalAddress","outputs":[],"stateMutability":"nonpayable","type":"function"},{"inputs":[{"internalType":"uint256","name":"_maxUsdt","type":"uint256"}],"name":"setMaxUsdt","outputs":[],"stateMutability":"nonpayable","type":"function"},{"inputs":[{"internalType":"uint256","name":"_minUsdt","type":"uint256"}],"name":"setMinUsdt","outputs":[],"stateMutability":"nonpayable","type":"function"},{"inputs":[{"internalType":"address","name":"_address","type":"address"}],"name":"setPancakeMCAddress","outputs":[],"stateMutability":"nonpayable","type":"function"},{"inputs":[{"internalType":"address","name":"_address","type":"address"}],"name":"setPancakePairAddress","outputs":[],"stateMutability":"nonpayable","type":"function"},{"inputs":[{"internalType":"address","name":"_address","type":"address"}],"name":"setPancakeRouterAddress","outputs":[],"stateMutability":"nonpayable","type":"function"},{"inputs":[{"internalType":"address","name":"_address","type":"address"}],"name":"setUsdtContractAddress","outputs":[],"stateMutability":"nonpayable","type":"function"},{"inputs":[{"internalType":"address","name":"newOwner","type":"address"}],"name":"transferOwnership","outputs":[],"stateMutability":"nonpayable","type":"function"},{"inputs":[{"internalType":"uint256","name":"_amount","type":"uint256"}],"name":"withdraw","outputs":[{"internalType":"bool","name":"success","type":"bool"}],"stateMutability":"nonpayable","type":"function"},{"inputs":[{"internalType":"address","name":"","type":"address"}],"name":"withdrawOf","outputs":[{"internalType":"uint256","name":"","type":"uint256"}],"stateMutability":"view","type":"function"},{"stateMutability":"payable","type":"receive"}],"evm":{"bytecode":{"linkReferences":{},"object":"608060405260006002556127106003553480156200001c57600080fd5b5060405162004eee38038062004eee8339810160408190526200003f9162000343565b620000536200004d62000159565b6200015d565b600c80546001600160a01b03191633179055601e601681905560155567016345785d8a000060135568056bc75e2d631000006014556001600b55620000ac730e09fabb73bd3ade0a17ecc321fd13a19e81ce82620001af565b620000cb73bb4cdb9cbd36b01bd1cbaebf2de08d9173bc095c620001db565b620000ea7355d398326f99059ff775485246999027b319795562000207565b620001097310ed43c718714eb63d5aa57b78b54704e256024e62000233565b6200012873a5f8c5dbd5f286960b9d90548680ae5ebff076526200025f565b62000147730ed7e52944161450477ee417de9cd3a859b14fd06200028b565b6200015281620002b7565b50620003a8565b3390565b600180546001600160a01b038381166001600160a01b0319831681179093556040519116919082907f8be0079c531659141344cd1fd0a4f28419497f9722a3daafe3b4186f6b6457e090600090a35050565b620001b9620002e3565b600480546001600160a01b0319166001600160a01b0392909216919091179055565b620001e5620002e3565b600580546001600160a01b0319166001600160a01b0392909216919091179055565b62000211620002e3565b600680546001600160a01b0319166001600160a01b0392909216919091179055565b6200023d620002e3565b600780546001600160a01b0319166001600160a01b0392909216919091179055565b62000269620002e3565b600880546001600160a01b0319166001600160a01b0392909216919091179055565b62000295620002e3565b600980546001600160a01b0319166001600160a01b0392909216919091179055565b620002c1620002e3565b600a80546001600160a01b0319166001600160a01b0392909216919091179055565b620002ed62000159565b6001600160a01b03166200030062000334565b6001600160a01b031614620003325760405162461bcd60e51b8152600401620003299062000373565b60405180910390fd5b565b6001546001600160a01b031690565b60006020828403121562000355578081fd5b81516001600160a01b03811681146200036c578182fd5b9392505050565b6020808252818101527f4f776e61626c653a2063616c6c6572206973206e6f7420746865206f776e6572604082015260600190565b614b3680620003b86000396000f3fe6080604052600436106102535760003560e01c80638da5cb5b11610138578063d80ffb20116100b0578063eedbc0561161007f578063f550ed9311610064578063f550ed9314610637578063f914958b1461064c578063fd0b2fec1461066c5761025a565b8063eedbc056146105f7578063f2fde38b146106175761025a565b8063d80ffb2014610582578063dde7cd5114610597578063df890be7146105b7578063e4203183146105d75761025a565b8063b88a802f11610107578063c0cb7c6a116100ec578063c0cb7c6a1461052d578063caa96a921461054d578063d736f8a6146105625761025a565b8063b88a802f146104f8578063ba0553ae1461050d5761025a565b80638da5cb5b1461049b578063929066f5146104b0578063b4410e9c146104d0578063b6b55f25146104e55761025a565b806335c1d349116101cb57806370a082311161019a57806371defc9c1161017f57806371defc9c146104465780637ce3489b14610466578063851ed85e146104865761025a565b806370a0823114610411578063715018a6146104315761025a565b806335c1d3491461038c57806338af3eed146103b9578063409af09a146103ce5780635aa68ac0146103ee5761025a565b80631dc211941161022257806323e3fbd51161020757806323e3fbd51461031c578063295f39b11461033c5780632e1a7d4d1461035f5761025a565b80631dc21194146102e757806323ce7fb8146102fc5761025a565b80630eecae211461025c5780631c31f710146102715780631c3b3902146102915780631d62ebd9146102b15761025a565b3661025a57005b005b34801561026857600080fd5b5061025a61068c565b34801561027d57600080fd5b5061025a61028c36600461404a565b610ddf565b34801561029d57600080fd5b5061025a6102ac36600461404a565b610f04565b3480156102bd57600080fd5b506102d16102cc36600461404a565b610f53565b6040516102de91906148e4565b60405180910390f35b3480156102f357600080fd5b506102d1610f65565b34801561030857600080fd5b5061025a61031736600461404a565b611015565b34801561032857600080fd5b506102d161033736600461404a565b611064565b34801561034857600080fd5b50610351611076565b6040516102de929190614932565b34801561036b57600080fd5b5061037f61037a366004614206565b611283565b6040516102de91906144be565b34801561039857600080fd5b506103ac6103a7366004614206565b61167e565b6040516102de91906143b5565b3480156103c557600080fd5b506103ac6116b5565b3480156103da57600080fd5b5061025a6103e9366004614206565b6116d1565b3480156103fa57600080fd5b506104036116de565b6040516102de92919061449c565b34801561041d57600080fd5b506102d161042c36600461404a565b6118c3565b34801561043d57600080fd5b5061025a6118d5565b34801561045257600080fd5b5061025a61046136600461404a565b6118e9565b34801561047257600080fd5b5061025a610481366004614206565b611938565b34801561049257600080fd5b506102d16119b0565b3480156104a757600080fd5b506103ac6119b6565b3480156104bc57600080fd5b5061037f6104cb36600461404a565b6119d2565b3480156104dc57600080fd5b506102d16119fd565b61037f6104f3366004614206565b611a03565b34801561050457600080fd5b5061025a612440565b34801561051957600080fd5b5061025a610528366004614206565b612667565b34801561053957600080fd5b506102d161054836600461404a565b612674565b34801561055957600080fd5b5061025a612686565b34801561056e57600080fd5b5061025a61057d36600461406b565b6126be565b34801561058e57600080fd5b506102d1612751565b3480156105a357600080fd5b5061037f6105b236600461404a565b612757565b3480156105c357600080fd5b5061025a6105d236600461404a565b61276c565b3480156105e357600080fd5b5061025a6105f236600461404a565b6127bb565b34801561060357600080fd5b5061025a61061236600461404a565b61280a565b34801561062357600080fd5b5061025a61063236600461404a565b612859565b34801561064357600080fd5b506102d16128ba565b34801561065857600080fd5b506102d1610667366004614236565b6128c0565b34801561067857600080fd5b5061025a61068736600461404a565b612b78565b600854600b546040517fe2bbb15800000000000000000000000000000000000000000000000000000000815273ffffffffffffffffffffffffffffffffffffffff9092169163e2bbb158916106e691600090600401614932565b600060405180830381600087803b15801561070057600080fd5b505af1158015610714573d6000803e3d6000fd5b5050601754600480546040517f70a082310000000000000000000000000000000000000000000000000000000081526000955092935073ffffffffffffffffffffffffffffffffffffffff16916370a0823191610773913091016143b5565b60206040518083038186803b15801561078b57600080fd5b505afa15801561079f573d6000803e3d6000fd5b505050506040513d601f19601f820116820180604052508101906107c3919061421e565b6107cd91906149da565b60115490915060009067ffffffffffffffff811115610815577f4e487b7100000000000000000000000000000000000000000000000000000000600052604160045260246000fd5b60405190808252806020026020018201604052801561083e578160200160208202803683370190505b5090506000606060008060006108526116de565b90965094508415610dce5786925060006064601554606461087391906149da565b61087d908a61499d565b6108879190614989565b90506000610896609688614989565b6108a1906001614971565b90508067ffffffffffffffff8111156108e3577f4e487b7100000000000000000000000000000000000000000000000000000000600052604160045260246000fd5b60405190808252806020026020018201604052801561090c578160200160208202803683370190505b5095506109198782612bc7565b955060005b81811015610a0c576000878281518110610961577f4e487b7100000000000000000000000000000000000000000000000000000000600052603260045260246000fd5b60200260200101519050600e60008b83815181106109a8577f4e487b7100000000000000000000000000000000000000000000000000000000600052603260045260246000fd5b602002602001015173ffffffffffffffffffffffffffffffffffffffff1673ffffffffffffffffffffffffffffffffffffffff16815260200190815260200160002054866109f69190614971565b9550508080610a0490614a26565b91505061091e565b5060028054906000610a1d83614a26565b919050555060005b81811015610c0e57600089888381518110610a69577f4e487b7100000000000000000000000000000000000000000000000000000000600052603260045260246000fd5b602002602001015181518110610aa8577f4e487b7100000000000000000000000000000000000000000000000000000000600052603260045260246000fd5b60200260200101519050600086600e60008473ffffffffffffffffffffffffffffffffffffffff1673ffffffffffffffffffffffffffffffffffffffff168152602001908152602001600020546064610b01919061499d565b610b0b9190614989565b905060006064610b1b838861499d565b610b259190614989565b90506000610b34848f85612dd3565b73ffffffffffffffffffffffffffffffffffffffff8516600090815260106020526040812080549293508492909190610b6e908490614971565b925050819055508160176000828254610b879190614971565b925050819055508373ffffffffffffffffffffffffffffffffffffffff166002547f9515c6f2bffb313099bcee0fbec701e0d75b3e20ca6032804286cb49bb4af2b484604051610bd791906148e4565b60405180910390a3610be9828b6149da565b9950610bf58189614971565b9750505050508080610c0690614a26565b915050610a25565b506002547f7499611827a1dc9f9fc8242a819e0ba432979cec101754acb79aa4f8d85ad5a58a610c3e88826149da565b88604051610c4e93929190614940565b60405180910390a260048054600a546040517fa9059cbb00000000000000000000000000000000000000000000000000000000815273ffffffffffffffffffffffffffffffffffffffff9283169363a9059cbb93610cb093169188910161442e565b602060405180830381600087803b158015610cca57600080fd5b505af1158015610cde573d6000803e3d6000fd5b505050506040513d601f19601f82011682018060405250810190610d029190614198565b50610d0d83866149da565b60048054600c546040517fa9059cbb00000000000000000000000000000000000000000000000000000000815293985073ffffffffffffffffffffffffffffffffffffffff9182169363a9059cbb93610d6c93909216918a910161442e565b602060405180830381600087803b158015610d8657600080fd5b505af1158015610d9a573d6000803e3d6000fd5b505050506040513d601f19601f82011682018060405250810190610dbe9190614198565b50610dc7612f42565b5050610dd6565b610dd6612f42565b50505050505050565b610de76119b6565b73ffffffffffffffffffffffffffffffffffffffff163373ffffffffffffffffffffffffffffffffffffffff161480610e375750600c5473ffffffffffffffffffffffffffffffffffffffff1633145b610e76576040517f08c379a0000000000000000000000000000000000000000000000000000000008152600401610e6d9061473f565b60405180910390fd5b600c5460405173ffffffffffffffffffffffffffffffffffffffff8084169216907f768099735d1c322a05a5b9d7b76d99682a1833d3f7055e5ede25e0f2eeaa8c6d90600090a3600c80547fffffffffffffffffffffffff00000000000000000000000000000000000000001673ffffffffffffffffffffffffffffffffffffffff92909216919091179055565b610f0c613b16565b600a80547fffffffffffffffffffffffff00000000000000000000000000000000000000001673ffffffffffffffffffffffffffffffffffffffff92909216919091179055565b60106020526000908152604090205481565b600854600b546040517f1175a1dd00000000000000000000000000000000000000000000000000000000815260009273ffffffffffffffffffffffffffffffffffffffff1691631175a1dd91610fc0919030906004016148ed565b60206040518083038186803b158015610fd857600080fd5b505afa158015610fec573d6000803e3d6000fd5b505050506040513d601f19601f82011682018060405250810190611010919061421e565b905090565b61101d613b16565b600880547fffffffffffffffffffffffff00000000000000000000000000000000000000001673ffffffffffffffffffffffffffffffffffffffff92909216919091179055565b600d6020526000908152604090205481565b600080600080600960009054906101000a900473ffffffffffffffffffffffffffffffffffffffff1673ffffffffffffffffffffffffffffffffffffffff16630902f1ac6040518163ffffffff1660e01b815260040160606040518083038186803b1580156110e457600080fd5b505afa1580156110f8573d6000803e3d6000fd5b505050506040513d601f19601f8201168201806040525081019061111c91906141b8565b50915091506000600960009054906101000a900473ffffffffffffffffffffffffffffffffffffffff1673ffffffffffffffffffffffffffffffffffffffff166318160ddd6040518163ffffffff1660e01b815260040160206040518083038186803b15801561118b57600080fd5b505afa15801561119f573d6000803e3d6000fd5b505050506040513d601f19601f820116820180604052508101906111c3919061421e565b90506112266040518060400160405280600e81526020017f726174654c50546f6b656e73203a000000000000000000000000000000000000815250846dffffffffffffffffffffffffffff16846dffffffffffffffffffffffffffff1684613b89565b80600354846dffffffffffffffffffffffffffff16611245919061499d565b61124f9190614989565b945080600354836dffffffffffffffffffffffffffff16611270919061499d565b61127a9190614989565b93505050509091565b336000908152600f6020908152604080832054600d835281842054600e9093529083205484926112b291614971565b6112bc91906149da565b10156112f4576040517f08c379a0000000000000000000000000000000000000000000000000000000008152600401610e6d9061479c565b6000806112ff611076565b9150915061130d8282613c24565b60408051808201909152600d81527f63616b6520696e20757364743a000000000000000000000000000000000000006020820152600454600654611376929161137191869173ffffffffffffffffffffffffffffffffffffffff90811691166128c0565b613cb9565b60408051808201909152600d81527f626e6220696e20757364743a200000000000000000000000000000000000000060208201526005546006546113da929161137191859173ffffffffffffffffffffffffffffffffffffffff90811691166128c0565b60408051808201909152600c81527f6c70646563696d616c733a200000000000000000000000000000000000000000602082015260035460055460065461148193929161144291869173ffffffffffffffffffffffffffffffffffffffff90811691166128c0565b60045460065461146d91889173ffffffffffffffffffffffffffffffffffffffff91821691166128c0565b6114779190614971565b6113719190614989565b604080518082018252600981527f62616c616e63653a200000000000000000000000000000000000000000000000602080830191909152336000908152600f825283812054600d835284822054600e909352939020546114fd93889290916114e99190614971565b6114f391906149da565b61137191906149da565b6003546005546006546000929161152f91859173ffffffffffffffffffffffffffffffffffffffff90811691166128c0565b60045460065461155a91879173ffffffffffffffffffffffffffffffffffffffff91821691166128c0565b6115649190614971565b336000908152600f6020908152604080832054600d835281842054600e90935292205489929161159391614971565b61159d91906149da565b6115a791906149da565b6115b1919061499d565b6115bb9190614989565b90506115cc81601354601454613d4a565b8015806115db57506013548110155b611611576040517f08c379a0000000000000000000000000000000000000000000000000000000008152600401610e6d9061463f565b60145481111561164d576040517f08c379a0000000000000000000000000000000000000000000000000000000008152600401610e6d9061470a565b336000908152600f60205260408120805487929061166c908490614971565b9091555060019450505050505b919050565b6011818154811061168e57600080fd5b60009182526020909120015473ffffffffffffffffffffffffffffffffffffffff16905081565b600c5473ffffffffffffffffffffffffffffffffffffffff1681565b6116d9613b16565b601455565b60115460609060009067ffffffffffffffff811115611726577f4e487b7100000000000000000000000000000000000000000000000000000000600052604160045260246000fd5b60405190808252806020026020018201604052801561174f578160200160208202803683370190505b5091506000905060005b6011548110156118be576000600e6000601184815481106117a3577f4e487b7100000000000000000000000000000000000000000000000000000000600052603260045260246000fd5b600091825260208083209091015473ffffffffffffffffffffffffffffffffffffffff16835282019290925260400190205411156118ac5760118181548110611815577f4e487b7100000000000000000000000000000000000000000000000000000000600052603260045260246000fd5b9060005260206000200160009054906101000a900473ffffffffffffffffffffffffffffffffffffffff16838381518110611879577f4e487b7100000000000000000000000000000000000000000000000000000000600052603260045260246000fd5b73ffffffffffffffffffffffffffffffffffffffff90921660209283029190910190910152816118a881614a26565b9250505b806118b681614a26565b915050611759565b509091565b600e6020526000908152604090205481565b6118dd613b16565b6118e76000613de2565b565b6118f1613b16565b600580547fffffffffffffffffffffffff00000000000000000000000000000000000000001673ffffffffffffffffffffffffffffffffffffffff92909216919091179055565b611940613b16565b60165481111561197c576040517f08c379a0000000000000000000000000000000000000000000000000000000008152600401610e6d90614585565b6015546040518291907f44cb215a0ee4011e0802aea4220545b8f823c5041bb303a4ae1219f99f91e65b90600090a3601555565b60035481565b60015473ffffffffffffffffffffffffffffffffffffffff1690565b73ffffffffffffffffffffffffffffffffffffffff1660009081526012602052604090205460ff1690565b60145481565b600480546040517f70a08231000000000000000000000000000000000000000000000000000000008152600092849273ffffffffffffffffffffffffffffffffffffffff16916370a0823191611a5b913391016143b5565b60206040518083038186803b158015611a7357600080fd5b505afa158015611a87573d6000803e3d6000fd5b505050506040513d601f19601f82011682018060405250810190611aab919061421e565b1015611ae3576040517f08c379a0000000000000000000000000000000000000000000000000000000008152600401610e6d90614676565b600480546040517fdd62ed3e000000000000000000000000000000000000000000000000000000008152849273ffffffffffffffffffffffffffffffffffffffff9092169163dd62ed3e91611b3c9133913091016143d6565b60206040518083038186803b158015611b5457600080fd5b505afa158015611b68573d6000803e3d6000fd5b505050506040513d601f19601f82011682018060405250810190611b8c919061421e565b1015611bc4576040517f08c379a0000000000000000000000000000000000000000000000000000000008152600401610e6d9061483f565b600a546040517f929066f500000000000000000000000000000000000000000000000000000000815273ffffffffffffffffffffffffffffffffffffffff9091169063929066f590611c1a9033906004016143b5565b60206040518083038186803b158015611c3257600080fd5b505afa158015611c46573d6000803e3d6000fd5b505050506040513d601f19601f82011682018060405250810190611c6a9190614198565b611ca0576040517f08c379a0000000000000000000000000000000000000000000000000000000008152600401610e6d90614876565b34600080611cac611076565b60408051808201909152600d81527f63616b6520696e20757364743a000000000000000000000000000000000000006020820152600454600654939550919350611d1792909161137191869173ffffffffffffffffffffffffffffffffffffffff90811691166128c0565b60408051808201909152600d81527f626e6220696e20757364743a20000000000000000000000000000000000000006020820152600554600654611d7b929161137191859173ffffffffffffffffffffffffffffffffffffffff90811691166128c0565b60408051808201909152600c81527f6c70646563696d616c733a2000000000000000000000000000000000000000006020820152600354600554600654611de393929161144291869173ffffffffffffffffffffffffffffffffffffffff90811691166128c0565b60035460055460065460009291611e1591859173ffffffffffffffffffffffffffffffffffffffff90811691166128c0565b600454600654611e4091879173ffffffffffffffffffffffffffffffffffffffff91821691166128c0565b611e4a9190614971565b336000908152600f6020908152604080832054600d835281842054600e909352922054611e779190614971565b611e8191906149da565b611e8b919061499d565b611e959190614989565b600554600654919250600091611ec691879173ffffffffffffffffffffffffffffffffffffffff91821691166128c0565b600454600654611ef1918a9173ffffffffffffffffffffffffffffffffffffffff91821691166128c0565b611efb9190614971565b9050611f0d8282601354601454613e59565b601354611f1a8284614971565b1015611f52576040517f08c379a0000000000000000000000000000000000000000000000000000000008152600401610e6d9061463f565b601454611f5f8284614971565b1115611f97576040517f08c379a0000000000000000000000000000000000000000000000000000000008152600401610e6d9061470a565b600480546040517f23b872dd00000000000000000000000000000000000000000000000000000000815260009273ffffffffffffffffffffffffffffffffffffffff909216916323b872dd91611ff391339130918e91016143fd565b602060405180830381600087803b15801561200d57600080fd5b505af1158015612021573d6000803e3d6000fd5b505050506040513d601f19601f820116820180604052508101906120459190614198565b90508061207e576040517f08c379a0000000000000000000000000000000000000000000000000000000008152600401610e6d906148ad565b600480546007546040517f095ea7b300000000000000000000000000000000000000000000000000000000815260009373ffffffffffffffffffffffffffffffffffffffff9384169363095ea7b3936120dc939116918e910161442e565b602060405180830381600087803b1580156120f657600080fd5b505af115801561210a573d6000803e3d6000fd5b505050506040513d601f19601f8201168201806040525081019061212e9190614198565b5060075460045473ffffffffffffffffffffffffffffffffffffffff9182169163f305d719918a91168c61216461271082614989565b612170906126ac61499d565b61217c6127108e614989565b612188906126ac61499d565b30612195426104b0614971565b6040518863ffffffff1660e01b81526004016121b696959493929190614454565b6060604051808303818588803b1580156121cf57600080fd5b505af11580156121e3573d6000803e3d6000fd5b50505050506040513d601f19601f820116820180604052508101906122089190614294565b6009546008546040517f095ea7b300000000000000000000000000000000000000000000000000000000815292955073ffffffffffffffffffffffffffffffffffffffff918216945063095ea7b3935061226992911690859060040161442e565b602060405180830381600087803b15801561228357600080fd5b505af1158015612297573d6000803e3d6000fd5b505050506040513d601f19601f820116820180604052508101906122bb9190614198565b50600854600b546040517fe2bbb15800000000000000000000000000000000000000000000000000000000815273ffffffffffffffffffffffffffffffffffffffff9092169163e2bbb15891612315918590600401614932565b600060405180830381600087803b15801561232f57600080fd5b505af1158015612343573d6000803e3d6000fd5b5050336000908152600d602052604081208054859450909250612367908490614971565b909155506123769050336119d2565b612431573360008181526012602052604080822080547fffffffffffffffffffffffffffffffffffffffffffffffffffffffffffffff0016600190811790915560118054918201815583527f31ecc21a745e3968a04e9570e4425bc18fa8019c68028196b546d1669c200c680180547fffffffffffffffffffffffff00000000000000000000000000000000000000001684179055517f79229b212fa3ea547fb5e5b66090cf250d442b12a51854a030f3b796d528134e9190a25b50600198975050505050505050565b33600090815260106020526040902054612486576040517f08c379a0000000000000000000000000000000000000000000000000000000008152600401610e6d90614808565b3360009081526010602052604090819020546004805492517f70a08231000000000000000000000000000000000000000000000000000000008152919273ffffffffffffffffffffffffffffffffffffffff16916370a08231916124ec913091016143b5565b60206040518083038186803b15801561250457600080fd5b505afa158015612518573d6000803e3d6000fd5b505050506040513d601f19601f8201168201806040525081019061253c919061421e565b1015612574576040517f08c379a0000000000000000000000000000000000000000000000000000000008152600401610e6d9061454e565b6004805433600081815260106020526040908190205490517fa9059cbb00000000000000000000000000000000000000000000000000000000815273ffffffffffffffffffffffffffffffffffffffff9093169363a9059cbb936125da9392910161442e565b602060405180830381600087803b1580156125f457600080fd5b505af1158015612608573d6000803e3d6000fd5b505050506040513d601f19601f8201168201806040525081019061262c9190614198565b503360009081526010602052604081205460178054919290916126509084906149da565b909155505033600090815260106020526040812055565b61266f613b16565b601355565b600f6020526000908152604090205481565b336000908152600f60209081526040808320805490849055600d90925282208054919283926126b6908490614971565b909155505050565b600480547fffffffffffffffffffffffff000000000000000000000000000000000000000090811673ffffffffffffffffffffffffffffffffffffffff988916179091556005805482169688169690961790955560078054861693871693909317909255600880548516918616919091179055600980548416918516919091179055600680549092169216919091179055565b60025481565b60126020526000908152604090205460ff1681565b612774613b16565b600480547fffffffffffffffffffffffff00000000000000000000000000000000000000001673ffffffffffffffffffffffffffffffffffffffff92909216919091179055565b6127c3613b16565b600680547fffffffffffffffffffffffff00000000000000000000000000000000000000001673ffffffffffffffffffffffffffffffffffffffff92909216919091179055565b612812613b16565b600780547fffffffffffffffffffffffff00000000000000000000000000000000000000001673ffffffffffffffffffffffffffffffffffffffff92909216919091179055565b612861613b16565b73ffffffffffffffffffffffffffffffffffffffff81166128ae576040517f08c379a0000000000000000000000000000000000000000000000000000000008152600401610e6d906145e2565b6128b781613de2565b50565b60135481565b60408051600280825260608083018452600093909291906020830190803683370190505090508381600081518110612921577f4e487b7100000000000000000000000000000000000000000000000000000000600052603260045260246000fd5b602002602001019073ffffffffffffffffffffffffffffffffffffffff16908173ffffffffffffffffffffffffffffffffffffffff16815250508281600181518110612996577f4e487b7100000000000000000000000000000000000000000000000000000000600052603260045260246000fd5b73ffffffffffffffffffffffffffffffffffffffff9290921660209283029190910190910152604080516002808252606082810190935281602001602082028036833750506007546040517fd06ca61f00000000000000000000000000000000000000000000000000000000815292935073ffffffffffffffffffffffffffffffffffffffff169163d06ca61f9150612a359089908690600401614911565b60006040518083038186803b158015612a4d57600080fd5b505afa158015612a61573d6000803e3d6000fd5b505050506040513d6000823e601f3d9081017fffffffffffffffffffffffffffffffffffffffffffffffffffffffffffffffe0168201604052612aa791908101906140de565b9050612b2b6040518060400160405280600681526020017f72617465203a0000000000000000000000000000000000000000000000000000815250868684600181518110612b1e577f4e487b7100000000000000000000000000000000000000000000000000000000600052603260045260246000fd5b6020026020010151613eee565b80600181518110612b65577f4e487b7100000000000000000000000000000000000000000000000000000000600052603260045260246000fd5b6020026020010151925050509392505050565b612b80613b16565b600980547fffffffffffffffffffffffff00000000000000000000000000000000000000001673ffffffffffffffffffffffffffffffffffffffff92909216919091179055565b606082821115612c03576040517f08c379a0000000000000000000000000000000000000000000000000000000008152600401610e6d906146ad565b60008267ffffffffffffffff811115612c45577f4e487b7100000000000000000000000000000000000000000000000000000000600052604160045260246000fd5b604051908082528060200260200182016040528015612c6e578160200160208202803683370190505b5091505b82811015612d5d576000612c8585613f83565b612c90906001614971565b90506000805b85811015612cfd5782858281518110612cd8577f4e487b7100000000000000000000000000000000000000000000000000000000600052603260045260246000fd5b60200260200101511415612ceb57600191505b80612cf581614a26565b915050612c96565b5080612d565781848481518110612d3d577f4e487b7100000000000000000000000000000000000000000000000000000000600052603260045260246000fd5b602090810291909101015282612d5281614a26565b9350505b5050612c72565b60005b83811015612dcb57828181518110612da1577f4e487b7100000000000000000000000000000000000000000000000000000000600052603260045260246000fd5b602002602001018051809190612db6906149f1565b90525080612dc381614a26565b915050612d60565b505092915050565b600a546040517f3d137386000000000000000000000000000000000000000000000000000000008152600091829173ffffffffffffffffffffffffffffffffffffffff90911690633d13738690612e2e9088906004016143b5565b60206040518083038186803b158015612e4657600080fd5b505afa158015612e5a573d6000803e3d6000fd5b505050506040513d601f19601f82011682018060405250810190612e7e919061421e565b90506000612e8d606485614989565b6064612e99848861499d565b612ea39190614989565b612ead919061499d565b600a546040517f9108066800000000000000000000000000000000000000000000000000000000815291925073ffffffffffffffffffffffffffffffffffffffff1690639108066890612f06908990859060040161442e565b600060405180830381600087803b158015612f2057600080fd5b505af1158015612f34573d6000803e3d6000fd5b509298975050505050505050565b60005b6011548110156128b7576000600d600060118481548110612f8f577f4e487b7100000000000000000000000000000000000000000000000000000000600052603260045260246000fd5b600091825260208083209091015473ffffffffffffffffffffffffffffffffffffffff168352820192909252604001902054111561316457600d600060118381548110613005577f4e487b7100000000000000000000000000000000000000000000000000000000600052603260045260246000fd5b9060005260206000200160009054906101000a900473ffffffffffffffffffffffffffffffffffffffff1673ffffffffffffffffffffffffffffffffffffffff1673ffffffffffffffffffffffffffffffffffffffff16815260200190815260200160002054600e6000601184815481106130a9577f4e487b7100000000000000000000000000000000000000000000000000000000600052603260045260246000fd5b600091825260208083209091015473ffffffffffffffffffffffffffffffffffffffff168352820192909252604001812080549091906130ea908490614971565b925050819055506000600d600060118481548110613131577f4e487b7100000000000000000000000000000000000000000000000000000000600052603260045260246000fd5b600091825260208083209091015473ffffffffffffffffffffffffffffffffffffffff1683528201929092526040019020555b6000600f6000601184815481106131a4577f4e487b7100000000000000000000000000000000000000000000000000000000600052603260045260246000fd5b600091825260208083209091015473ffffffffffffffffffffffffffffffffffffffff1683528201929092526040019020541115613b0457600e60006011838154811061321a577f4e487b7100000000000000000000000000000000000000000000000000000000600052603260045260246000fd5b9060005260206000200160009054906101000a900473ffffffffffffffffffffffffffffffffffffffff1673ffffffffffffffffffffffffffffffffffffffff1673ffffffffffffffffffffffffffffffffffffffff16815260200190815260200160002054600f6000601184815481106132be577f4e487b7100000000000000000000000000000000000000000000000000000000600052603260045260246000fd5b600091825260208083209091015473ffffffffffffffffffffffffffffffffffffffff16835282019290925260400190205411613b0457600f600060118381548110613333577f4e487b7100000000000000000000000000000000000000000000000000000000600052603260045260246000fd5b9060005260206000200160009054906101000a900473ffffffffffffffffffffffffffffffffffffffff1673ffffffffffffffffffffffffffffffffffffffff1673ffffffffffffffffffffffffffffffffffffffff16815260200190815260200160002054600e6000601184815481106133d7577f4e487b7100000000000000000000000000000000000000000000000000000000600052603260045260246000fd5b600091825260208083209091015473ffffffffffffffffffffffffffffffffffffffff168352820192909252604001812080549091906134189084906149da565b9091555050600854600b546011805473ffffffffffffffffffffffffffffffffffffffff9093169263441a3e709291600f916000919087908110613485577f4e487b7100000000000000000000000000000000000000000000000000000000600052603260045260246000fd5b600091825260208083209091015473ffffffffffffffffffffffffffffffffffffffff16835282019290925260409081019091205490517fffffffff0000000000000000000000000000000000000000000000000000000060e085901b1681526134f3929190600401614932565b600060405180830381600087803b15801561350d57600080fd5b505af1158015613521573d6000803e3d6000fd5b50506009546007546011805473ffffffffffffffffffffffffffffffffffffffff938416955063095ea7b394509290911691600f9160009187908110613590577f4e487b7100000000000000000000000000000000000000000000000000000000600052603260045260246000fd5b600091825260208083209091015473ffffffffffffffffffffffffffffffffffffffff16835282019290925260409081019091205490517fffffffff0000000000000000000000000000000000000000000000000000000060e085901b1681526135fe92919060040161442e565b602060405180830381600087803b15801561361857600080fd5b505af115801561362c573d6000803e3d6000fd5b505050506040513d601f19601f820116820180604052508101906136509190614198565b5060008061365c611076565b60075460045460118054949650929450600093849373ffffffffffffffffffffffffffffffffffffffff938416936302751cec931691600f9186918b9081106136ce577f4e487b7100000000000000000000000000000000000000000000000000000000600052603260045260246000fd5b9060005260206000200160009054906101000a900473ffffffffffffffffffffffffffffffffffffffff1673ffffffffffffffffffffffffffffffffffffffff1673ffffffffffffffffffffffffffffffffffffffff16815260200190815260200160002054600354612710600f600060118d81548110613778577f4e487b7100000000000000000000000000000000000000000000000000000000600052603260045260246000fd5b600091825260208083209091015473ffffffffffffffffffffffffffffffffffffffff1683528201929092526040019020546137b4908b61499d565b6137be9190614989565b6137ca906126ac61499d565b6137d49190614989565b600354612710600f600060118e81548110613818577f4e487b7100000000000000000000000000000000000000000000000000000000600052603260045260246000fd5b600091825260208083209091015473ffffffffffffffffffffffffffffffffffffffff168352820192909252604001902054613854908b61499d565b61385e9190614989565b61386a906126ac61499d565b6138749190614989565b30613881426104b0614971565b6040518763ffffffff1660e01b81526004016138a296959493929190614454565b6040805180830381600087803b1580156138bb57600080fd5b505af11580156138cf573d6000803e3d6000fd5b505050506040513d601f19601f820116820180604052508101906138f39190614271565b6004546011805493955091935073ffffffffffffffffffffffffffffffffffffffff169163a9059cbb919088908110613955577f4e487b7100000000000000000000000000000000000000000000000000000000600052603260045260246000fd5b6000918252602090912001546040517fffffffff0000000000000000000000000000000000000000000000000000000060e084901b1681526139b29173ffffffffffffffffffffffffffffffffffffffff1690869060040161442e565b602060405180830381600087803b1580156139cc57600080fd5b505af11580156139e0573d6000803e3d6000fd5b505050506040513d601f19601f82011682018060405250810190613a049190614198565b5060118581548110613a3f577f4e487b7100000000000000000000000000000000000000000000000000000000600052603260045260246000fd5b600091825260208220015460405173ffffffffffffffffffffffffffffffffffffffff9091169183156108fc02918491818181858888f19350505050158015613a8c573d6000803e3d6000fd5b506000600f600060118881548110613acd577f4e487b7100000000000000000000000000000000000000000000000000000000600052603260045260246000fd5b600091825260208083209091015473ffffffffffffffffffffffffffffffffffffffff168352820192909252604001902055505050505b80613b0e81614a26565b915050612f45565b613b1e613f94565b73ffffffffffffffffffffffffffffffffffffffff16613b3c6119b6565b73ffffffffffffffffffffffffffffffffffffffff16146118e7576040517f08c379a0000000000000000000000000000000000000000000000000000000008152600401610e6d906147d3565b613c1e84848484604051602401613ba3949392919061451f565b604080517fffffffffffffffffffffffffffffffffffffffffffffffffffffffffffffffe08184030181529190526020810180517bffffffffffffffffffffffffffffffffffffffffffffffffffffffff167fa7a8785300000000000000000000000000000000000000000000000000000000179052613f98565b50505050565b613cb58282604051602401613c3a929190614932565b604080517fffffffffffffffffffffffffffffffffffffffffffffffffffffffffffffffe08184030181529190526020810180517bffffffffffffffffffffffffffffffffffffffffffffffffffffffff167ff666715a00000000000000000000000000000000000000000000000000000000179052613f98565b5050565b613cb58282604051602401613ccf92919061450c565b604080517fffffffffffffffffffffffffffffffffffffffffffffffffffffffffffffffe08184030181529190526020810180517bffffffffffffffffffffffffffffffffffffffffffffffffffffffff167fb60e72cc00000000000000000000000000000000000000000000000000000000179052613f98565b613ddd838383604051602401613d6293929190614940565b604080517fffffffffffffffffffffffffffffffffffffffffffffffffffffffffffffffe08184030181529190526020810180517bffffffffffffffffffffffffffffffffffffffffffffffffffffffff167fd1ed7a3c00000000000000000000000000000000000000000000000000000000179052613f98565b505050565b6001805473ffffffffffffffffffffffffffffffffffffffff8381167fffffffffffffffffffffffff0000000000000000000000000000000000000000831681179093556040519116919082907f8be0079c531659141344cd1fd0a4f28419497f9722a3daafe3b4186f6b6457e090600090a35050565b613c1e84848484604051602401613e739493929190614956565b604080517fffffffffffffffffffffffffffffffffffffffffffffffffffffffffffffffe08184030181529190526020810180517bffffffffffffffffffffffffffffffffffffffffffffffffffffffff167f193fb80000000000000000000000000000000000000000000000000000000000179052613f98565b613c1e84848484604051602401613f0894939291906144c9565b604080517fffffffffffffffffffffffffffffffffffffffffffffffffffffffffffffffe08184030181529190526020810180517bffffffffffffffffffffffffffffffffffffffffffffffffffffffff167f8ef3f39900000000000000000000000000000000000000000000000000000000179052613f98565b6000613f8e82613fb9565b92915050565b3390565b80516a636f6e736f6c652e6c6f67602083016000808483855afa5050505050565b600080548180613fc883614a26565b9190505550814233600054604051602001613fe59392919061437a565b6040516020818303038152906040528051906020012060001c613f8e9190614a5f565b803573ffffffffffffffffffffffffffffffffffffffff8116811461167957600080fd5b80516dffffffffffffffffffffffffffff8116811461167957600080fd5b60006020828403121561405b578081fd5b61406482614008565b9392505050565b60008060008060008060c08789031215614083578182fd5b61408c87614008565b955061409a60208801614008565b94506140a860408801614008565b93506140b660608801614008565b92506140c460808801614008565b91506140d260a08801614008565b90509295509295509295565b600060208083850312156140f0578182fd5b825167ffffffffffffffff80821115614107578384fd5b818501915085601f83011261411a578384fd5b81518181111561412c5761412c614ad1565b8381026040518582820101818110858211171561414b5761414b614ad1565b604052828152858101935084860182860187018a1015614169578788fd5b8795505b8386101561418b57805185526001959095019493860193860161416d565b5098975050505050505050565b6000602082840312156141a9578081fd5b81518015158114614064578182fd5b6000806000606084860312156141cc578283fd5b6141d58461402c565b92506141e36020850161402c565b9150604084015163ffffffff811681146141fb578182fd5b809150509250925092565b600060208284031215614217578081fd5b5035919050565b60006020828403121561422f578081fd5b5051919050565b60008060006060848603121561424a578283fd5b8335925061425a60208501614008565b915061426860408501614008565b90509250925092565b60008060408385031215614283578182fd5b505080516020909101519092909150565b6000806000606084860312156142a8578283fd5b8351925060208401519150604084015190509250925092565b6000815180845260208085019450808401835b8381101561430657815173ffffffffffffffffffffffffffffffffffffffff16875295820195908201906001016142d4565b509495945050505050565b60008151808452815b818110156143365760208185018101518683018201520161431a565b818111156143475782602083870101525b50601f017fffffffffffffffffffffffffffffffffffffffffffffffffffffffffffffffe0169290920160200192915050565b92835260609190911b7fffffffffffffffffffffffffffffffffffffffff000000000000000000000000166020830152603482015260540190565b73ffffffffffffffffffffffffffffffffffffffff91909116815260200190565b73ffffffffffffffffffffffffffffffffffffffff92831681529116602082015260400190565b73ffffffffffffffffffffffffffffffffffffffff9384168152919092166020820152604081019190915260600190565b73ffffffffffffffffffffffffffffffffffffffff929092168252602082015260400190565b73ffffffffffffffffffffffffffffffffffffffff9687168152602081019590955260408501939093526060840191909152909216608082015260a081019190915260c00190565b6000604082526144af60408301856142c1565b90508260208301529392505050565b901515815260200190565b6000608082526144dc6080830187614311565b73ffffffffffffffffffffffffffffffffffffffff95861660208401529390941660408201526060015292915050565b6000604082526144af6040830185614311565b6000608082526145326080830187614311565b6020830195909552506040810192909252606090910152919050565b6020808252601c908201527f4e6f7420656e6f756768742043414b4520666f72206120636c61696d00000000604082015260600190565b6020808252602e908201527f66656550657263656e742063616e206e6f74206265206772656174207468616e60408201527f206d617846656550657263656e74000000000000000000000000000000000000606082015260800190565b60208082526026908201527f4f776e61626c653a206e6577206f776e657220697320746865207a65726f206160408201527f6464726573730000000000000000000000000000000000000000000000000000606082015260800190565b6020808252601f908201527f546f74616c2062616c616e6365206c657373207468616e206d696e5553445400604082015260600190565b60208082526012908201527f4e6f7420656e6f7567687420546f6b656e300000000000000000000000000000604082015260600190565b6020808252602e908201527f436f756e74206f66206e756d626572206d757374206265206c6573732074686160408201527f6e206d6178206f7220657175616c000000000000000000000000000000000000606082015260800190565b6020808252818101527f546f74616c2062616c616e6365206772656174207468616e206d617855534454604082015260600190565b60208082526022908201527f43616c6c6572206973206e6f742062656e6566696369617279206f72206f776e60408201527f6572000000000000000000000000000000000000000000000000000000000000606082015260800190565b60208082526015908201527f4e6f7420656e6f75676874206c69717569646974790000000000000000000000604082015260600190565b6020808252818101527f4f776e61626c653a2063616c6c6572206973206e6f7420746865206f776e6572604082015260600190565b6020808252600f908201527f52657761726420697320656d7074790000000000000000000000000000000000604082015260600190565b6020808252601c908201527f4e6f7420656e6f7567687420616c6c6f77616e636520546f6b656e3000000000604082015260600190565b60208082526011908201527f4e6f742061205061727469636970616e74000000000000000000000000000000604082015260600190565b60208082526012908201527f7472616e73666572206973206661696c65640000000000000000000000000000604082015260600190565b90815260200190565b91825273ffffffffffffffffffffffffffffffffffffffff16602082015260400190565b60008382526040602083015261492a60408301846142c1565b949350505050565b918252602082015260400190565b9283526020830191909152604082015260600190565b93845260208401929092526040830152606082015260800190565b6000821982111561498457614984614a73565b500190565b60008261499857614998614aa2565b500490565b6000817fffffffffffffffffffffffffffffffffffffffffffffffffffffffffffffffff04831182151516156149d5576149d5614a73565b500290565b6000828210156149ec576149ec614a73565b500390565b600081614a0057614a00614a73565b507fffffffffffffffffffffffffffffffffffffffffffffffffffffffffffffffff0190565b60007fffffffffffffffffffffffffffffffffffffffffffffffffffffffffffffffff821415614a5857614a58614a73565b5060010190565b600082614a6e57614a6e614aa2565b500690565b7f4e487b7100000000000000000000000000000000000000000000000000000000600052601160045260246000fd5b7f4e487b7100000000000000000000000000000000000000000000000000000000600052601260045260246000fd5b7f4e487b7100000000000000000000000000000000000000000000000000000000600052604160045260246000fdfea264697066735822122018ccb0863d5507cf395fbcfd37adfe7b9250d4e9781b9966206cecb9feb649b464736f6c63430008000033","opcodes":"PUSH1 0x80 PUSH1 0x40 MSTORE PUSH1 0x0 PUSH1 0x2 SSTORE PUSH2 0x2710 PUSH1 0x3 SSTORE CALLVALUE DUP1 ISZERO PUSH3 0x1C JUMPI PUSH1 0x0 DUP1 REVERT JUMPDEST POP PUSH1 0x40 MLOAD PUSH3 0x4EEE CODESIZE SUB DUP1 PUSH3 0x4EEE DUP4 CODECOPY DUP2 ADD PUSH1 0x40 DUP2 SWAP1 MSTORE PUSH3 0x3F SWAP2 PUSH3 0x343 JUMP JUMPDEST PUSH3 0x53 PUSH3 0x4D PUSH3 0x159 JUMP JUMPDEST PUSH3 0x15D JUMP JUMPDEST PUSH1 0xC DUP1 SLOAD PUSH1 0x1 PUSH1 0x1 PUSH1 0xA0 SHL SUB NOT AND CALLER OR SWAP1 SSTORE PUSH1 0x1E PUSH1 0x16 DUP2 SWAP1 SSTORE PUSH1 0x15 SSTORE PUSH8 0x16345785D8A0000 PUSH1 0x13 SSTORE PUSH9 0x56BC75E2D63100000 PUSH1 0x14 SSTORE PUSH1 0x1 PUSH1 0xB SSTORE PUSH3 0xAC PUSH20 0xE09FABB73BD3ADE0A17ECC321FD13A19E81CE82 PUSH3 0x1AF JUMP JUMPDEST PUSH3 0xCB PUSH20 0xBB4CDB9CBD36B01BD1CBAEBF2DE08D9173BC095C PUSH3 0x1DB JUMP JUMPDEST PUSH3 0xEA PUSH20 0x55D398326F99059FF775485246999027B3197955 PUSH3 0x207 JUMP JUMPDEST PUSH3 0x109 PUSH20 0x10ED43C718714EB63D5AA57B78B54704E256024E PUSH3 0x233 JUMP JUMPDEST PUSH3 0x128 PUSH20 0xA5F8C5DBD5F286960B9D90548680AE5EBFF07652 PUSH3 0x25F JUMP JUMPDEST PUSH3 0x147 PUSH20 0xED7E52944161450477EE417DE9CD3A859B14FD0 PUSH3 0x28B JUMP JUMPDEST PUSH3 0x152 DUP2 PUSH3 0x2B7 JUMP JUMPDEST POP PUSH3 0x3A8 JUMP JUMPDEST CALLER SWAP1 JUMP JUMPDEST PUSH1 0x1 DUP1 SLOAD PUSH1 0x1 PUSH1 0x1 PUSH1 0xA0 SHL SUB DUP4 DUP2 AND PUSH1 0x1 PUSH1 0x1 PUSH1 0xA0 SHL SUB NOT DUP4 AND DUP2 OR SWAP1 SWAP4 SSTORE PUSH1 0x40 MLOAD SWAP2 AND SWAP2 SWAP1 DUP3 SWAP1 PUSH32 0x8BE0079C531659141344CD1FD0A4F28419497F9722A3DAAFE3B4186F6B6457E0 SWAP1 PUSH1 0x0 SWAP1 LOG3 POP POP JUMP JUMPDEST PUSH3 0x1B9 PUSH3 0x2E3 JUMP JUMPDEST PUSH1 0x4 DUP1 SLOAD PUSH1 0x1 PUSH1 0x1 PUSH1 0xA0 SHL SUB NOT AND PUSH1 0x1 PUSH1 0x1 PUSH1 0xA0 SHL SUB SWAP3 SWAP1 SWAP3 AND SWAP2 SWAP1 SWAP2 OR SWAP1 SSTORE JUMP JUMPDEST PUSH3 0x1E5 PUSH3 0x2E3 JUMP JUMPDEST PUSH1 0x5 DUP1 SLOAD PUSH1 0x1 PUSH1 0x1 PUSH1 0xA0 SHL SUB NOT AND PUSH1 0x1 PUSH1 0x1 PUSH1 0xA0 SHL SUB SWAP3 SWAP1 SWAP3 AND SWAP2 SWAP1 SWAP2 OR SWAP1 SSTORE JUMP JUMPDEST PUSH3 0x211 PUSH3 0x2E3 JUMP JUMPDEST PUSH1 0x6 DUP1 SLOAD PUSH1 0x1 PUSH1 0x1 PUSH1 0xA0 SHL SUB NOT AND PUSH1 0x1 PUSH1 0x1 PUSH1 0xA0 SHL SUB SWAP3 SWAP1 SWAP3 AND SWAP2 SWAP1 SWAP2 OR SWAP1 SSTORE JUMP JUMPDEST PUSH3 0x23D PUSH3 0x2E3 JUMP JUMPDEST PUSH1 0x7 DUP1 SLOAD PUSH1 0x1 PUSH1 0x1 PUSH1 0xA0 SHL SUB NOT AND PUSH1 0x1 PUSH1 0x1 PUSH1 0xA0 SHL SUB SWAP3 SWAP1 SWAP3 AND SWAP2 SWAP1 SWAP2 OR SWAP1 SSTORE JUMP JUMPDEST PUSH3 0x269 PUSH3 0x2E3 JUMP JUMPDEST PUSH1 0x8 DUP1 SLOAD PUSH1 0x1 PUSH1 0x1 PUSH1 0xA0 SHL SUB NOT AND PUSH1 0x1 PUSH1 0x1 PUSH1 0xA0 SHL SUB SWAP3 SWAP1 SWAP3 AND SWAP2 SWAP1 SWAP2 OR SWAP1 SSTORE JUMP JUMPDEST PUSH3 0x295 PUSH3 0x2E3 JUMP JUMPDEST PUSH1 0x9 DUP1 SLOAD PUSH1 0x1 PUSH1 0x1 PUSH1 0xA0 SHL SUB NOT AND PUSH1 0x1 PUSH1 0x1 PUSH1 0xA0 SHL SUB SWAP3 SWAP1 SWAP3 AND SWAP2 SWAP1 SWAP2 OR SWAP1 SSTORE JUMP JUMPDEST PUSH3 0x2C1 PUSH3 0x2E3 JUMP JUMPDEST PUSH1 0xA DUP1 SLOAD PUSH1 0x1 PUSH1 0x1 PUSH1 0xA0 SHL SUB NOT AND PUSH1 0x1 PUSH1 0x1 PUSH1 0xA0 SHL SUB SWAP3 SWAP1 SWAP3 AND SWAP2 SWAP1 SWAP2 OR SWAP1 SSTORE JUMP JUMPDEST PUSH3 0x2ED PUSH3 0x159 JUMP JUMPDEST PUSH1 0x1 PUSH1 0x1 PUSH1 0xA0 SHL SUB AND PUSH3 0x300 PUSH3 0x334 JUMP JUMPDEST PUSH1 0x1 PUSH1 0x1 PUSH1 0xA0 SHL SUB AND EQ PUSH3 0x332 JUMPI PUSH1 0x40 MLOAD PUSH3 0x461BCD PUSH1 0xE5 SHL DUP2 MSTORE PUSH1 0x4 ADD PUSH3 0x329 SWAP1 PUSH3 0x373 JUMP JUMPDEST PUSH1 0x40 MLOAD DUP1 SWAP2 SUB SWAP1 REVERT JUMPDEST JUMP JUMPDEST PUSH1 0x1 SLOAD PUSH1 0x1 PUSH1 0x1 PUSH1 0xA0 SHL SUB AND SWAP1 JUMP JUMPDEST PUSH1 0x0 PUSH1 0x20 DUP3 DUP5 SUB SLT ISZERO PUSH3 0x355 JUMPI DUP1 DUP2 REVERT JUMPDEST DUP2 MLOAD PUSH1 0x1 PUSH1 0x1 PUSH1 0xA0 SHL SUB DUP2 AND DUP2 EQ PUSH3 0x36C JUMPI DUP2 DUP3 REVERT JUMPDEST SWAP4 SWAP3 POP POP POP JUMP JUMPDEST PUSH1 0x20 DUP1 DUP3 MSTORE DUP2 DUP2 ADD MSTORE PUSH32 0x4F776E61626C653A2063616C6C6572206973206E6F7420746865206F776E6572 PUSH1 0x40 DUP3 ADD MSTORE PUSH1 0x60 ADD SWAP1 JUMP JUMPDEST PUSH2 0x4B36 DUP1 PUSH3 0x3B8 PUSH1 0x0 CODECOPY PUSH1 0x0 RETURN INVALID PUSH1 0x80 PUSH1 0x40 MSTORE PUSH1 0x4 CALLDATASIZE LT PUSH2 0x253 JUMPI PUSH1 0x0 CALLDATALOAD PUSH1 0xE0 SHR DUP1 PUSH4 0x8DA5CB5B GT PUSH2 0x138 JUMPI DUP1 PUSH4 0xD80FFB20 GT PUSH2 0xB0 JUMPI DUP1 PUSH4 0xEEDBC056 GT PUSH2 0x7F JUMPI DUP1 PUSH4 0xF550ED93 GT PUSH2 0x64 JUMPI DUP1 PUSH4 0xF550ED93 EQ PUSH2 0x637 JUMPI DUP1 PUSH4 0xF914958B EQ PUSH2 0x64C JUMPI DUP1 PUSH4 0xFD0B2FEC EQ PUSH2 0x66C JUMPI PUSH2 0x25A JUMP JUMPDEST DUP1 PUSH4 0xEEDBC056 EQ PUSH2 0x5F7 JUMPI DUP1 PUSH4 0xF2FDE38B EQ PUSH2 0x617 JUMPI PUSH2 0x25A JUMP JUMPDEST DUP1 PUSH4 0xD80FFB20 EQ PUSH2 0x582 JUMPI DUP1 PUSH4 0xDDE7CD51 EQ PUSH2 0x597 JUMPI DUP1 PUSH4 0xDF890BE7 EQ PUSH2 0x5B7 JUMPI DUP1 PUSH4 0xE4203183 EQ PUSH2 0x5D7 JUMPI PUSH2 0x25A JUMP JUMPDEST DUP1 PUSH4 0xB88A802F GT PUSH2 0x107 JUMPI DUP1 PUSH4 0xC0CB7C6A GT PUSH2 0xEC JUMPI DUP1 PUSH4 0xC0CB7C6A EQ PUSH2 0x52D JUMPI DUP1 PUSH4 0xCAA96A92 EQ PUSH2 0x54D JUMPI DUP1 PUSH4 0xD736F8A6 EQ PUSH2 0x562 JUMPI PUSH2 0x25A JUMP JUMPDEST DUP1 PUSH4 0xB88A802F EQ PUSH2 0x4F8 JUMPI DUP1 PUSH4 0xBA0553AE EQ PUSH2 0x50D JUMPI PUSH2 0x25A JUMP JUMPDEST DUP1 PUSH4 0x8DA5CB5B EQ PUSH2 0x49B JUMPI DUP1 PUSH4 0x929066F5 EQ PUSH2 0x4B0 JUMPI DUP1 PUSH4 0xB4410E9C EQ PUSH2 0x4D0 JUMPI DUP1 PUSH4 0xB6B55F25 EQ PUSH2 0x4E5 JUMPI PUSH2 0x25A JUMP JUMPDEST DUP1 PUSH4 0x35C1D349 GT PUSH2 0x1CB JUMPI DUP1 PUSH4 0x70A08231 GT PUSH2 0x19A JUMPI DUP1 PUSH4 0x71DEFC9C GT PUSH2 0x17F JUMPI DUP1 PUSH4 0x71DEFC9C EQ PUSH2 0x446 JUMPI DUP1 PUSH4 0x7CE3489B EQ PUSH2 0x466 JUMPI DUP1 PUSH4 0x851ED85E EQ PUSH2 0x486 JUMPI PUSH2 0x25A JUMP JUMPDEST DUP1 PUSH4 0x70A08231 EQ PUSH2 0x411 JUMPI DUP1 PUSH4 0x715018A6 EQ PUSH2 0x431 JUMPI PUSH2 0x25A JUMP JUMPDEST DUP1 PUSH4 0x35C1D349 EQ PUSH2 0x38C JUMPI DUP1 PUSH4 0x38AF3EED EQ PUSH2 0x3B9 JUMPI DUP1 PUSH4 0x409AF09A EQ PUSH2 0x3CE JUMPI DUP1 PUSH4 0x5AA68AC0 EQ PUSH2 0x3EE JUMPI PUSH2 0x25A JUMP JUMPDEST DUP1 PUSH4 0x1DC21194 GT PUSH2 0x222 JUMPI DUP1 PUSH4 0x23E3FBD5 GT PUSH2 0x207 JUMPI DUP1 PUSH4 0x23E3FBD5 EQ PUSH2 0x31C JUMPI DUP1 PUSH4 0x295F39B1 EQ PUSH2 0x33C JUMPI DUP1 PUSH4 0x2E1A7D4D EQ PUSH2 0x35F JUMPI PUSH2 0x25A JUMP JUMPDEST DUP1 PUSH4 0x1DC21194 EQ PUSH2 0x2E7 JUMPI DUP1 PUSH4 0x23CE7FB8 EQ PUSH2 0x2FC JUMPI PUSH2 0x25A JUMP JUMPDEST DUP1 PUSH4 0xEECAE21 EQ PUSH2 0x25C JUMPI DUP1 PUSH4 0x1C31F710 EQ PUSH2 0x271 JUMPI DUP1 PUSH4 0x1C3B3902 EQ PUSH2 0x291 JUMPI DUP1 PUSH4 0x1D62EBD9 EQ PUSH2 0x2B1 JUMPI PUSH2 0x25A JUMP JUMPDEST CALLDATASIZE PUSH2 0x25A JUMPI STOP JUMPDEST STOP JUMPDEST CALLVALUE DUP1 ISZERO PUSH2 0x268 JUMPI PUSH1 0x0 DUP1 REVERT JUMPDEST POP PUSH2 0x25A PUSH2 0x68C JUMP JUMPDEST CALLVALUE DUP1 ISZERO PUSH2 0x27D JUMPI PUSH1 0x0 DUP1 REVERT JUMPDEST POP PUSH2 0x25A PUSH2 0x28C CALLDATASIZE PUSH1 0x4 PUSH2 0x404A JUMP JUMPDEST PUSH2 0xDDF JUMP JUMPDEST CALLVALUE DUP1 ISZERO PUSH2 0x29D JUMPI PUSH1 0x0 DUP1 REVERT JUMPDEST POP PUSH2 0x25A PUSH2 0x2AC CALLDATASIZE PUSH1 0x4 PUSH2 0x404A JUMP JUMPDEST PUSH2 0xF04 JUMP JUMPDEST CALLVALUE DUP1 ISZERO PUSH2 0x2BD JUMPI PUSH1 0x0 DUP1 REVERT JUMPDEST POP PUSH2 0x2D1 PUSH2 0x2CC CALLDATASIZE PUSH1 0x4 PUSH2 0x404A JUMP JUMPDEST PUSH2 0xF53 JUMP JUMPDEST PUSH1 0x40 MLOAD PUSH2 0x2DE SWAP2 SWAP1 PUSH2 0x48E4 JUMP JUMPDEST PUSH1 0x40 MLOAD DUP1 SWAP2 SUB SWAP1 RETURN JUMPDEST CALLVALUE DUP1 ISZERO PUSH2 0x2F3 JUMPI PUSH1 0x0 DUP1 REVERT JUMPDEST POP PUSH2 0x2D1 PUSH2 0xF65 JUMP JUMPDEST CALLVALUE DUP1 ISZERO PUSH2 0x308 JUMPI PUSH1 0x0 DUP1 REVERT JUMPDEST POP PUSH2 0x25A PUSH2 0x317 CALLDATASIZE PUSH1 0x4 PUSH2 0x404A JUMP JUMPDEST PUSH2 0x1015 JUMP JUMPDEST CALLVALUE DUP1 ISZERO PUSH2 0x328 JUMPI PUSH1 0x0 DUP1 REVERT JUMPDEST POP PUSH2 0x2D1 PUSH2 0x337 CALLDATASIZE PUSH1 0x4 PUSH2 0x404A JUMP JUMPDEST PUSH2 0x1064 JUMP JUMPDEST CALLVALUE DUP1 ISZERO PUSH2 0x348 JUMPI PUSH1 0x0 DUP1 REVERT JUMPDEST POP PUSH2 0x351 PUSH2 0x1076 JUMP JUMPDEST PUSH1 0x40 MLOAD PUSH2 0x2DE SWAP3 SWAP2 SWAP1 PUSH2 0x4932 JUMP JUMPDEST CALLVALUE DUP1 ISZERO PUSH2 0x36B JUMPI PUSH1 0x0 DUP1 REVERT JUMPDEST POP PUSH2 0x37F PUSH2 0x37A CALLDATASIZE PUSH1 0x4 PUSH2 0x4206 JUMP JUMPDEST PUSH2 0x1283 JUMP JUMPDEST PUSH1 0x40 MLOAD PUSH2 0x2DE SWAP2 SWAP1 PUSH2 0x44BE JUMP JUMPDEST CALLVALUE DUP1 ISZERO PUSH2 0x398 JUMPI PUSH1 0x0 DUP1 REVERT JUMPDEST POP PUSH2 0x3AC PUSH2 0x3A7 CALLDATASIZE PUSH1 0x4 PUSH2 0x4206 JUMP JUMPDEST PUSH2 0x167E JUMP JUMPDEST PUSH1 0x40 MLOAD PUSH2 0x2DE SWAP2 SWAP1 PUSH2 0x43B5 JUMP JUMPDEST CALLVALUE DUP1 ISZERO PUSH2 0x3C5 JUMPI PUSH1 0x0 DUP1 REVERT JUMPDEST POP PUSH2 0x3AC PUSH2 0x16B5 JUMP JUMPDEST CALLVALUE DUP1 ISZERO PUSH2 0x3DA JUMPI PUSH1 0x0 DUP1 REVERT JUMPDEST POP PUSH2 0x25A PUSH2 0x3E9 CALLDATASIZE PUSH1 0x4 PUSH2 0x4206 JUMP JUMPDEST PUSH2 0x16D1 JUMP JUMPDEST CALLVALUE DUP1 ISZERO PUSH2 0x3FA JUMPI PUSH1 0x0 DUP1 REVERT JUMPDEST POP PUSH2 0x403 PUSH2 0x16DE JUMP JUMPDEST PUSH1 0x40 MLOAD PUSH2 0x2DE SWAP3 SWAP2 SWAP1 PUSH2 0x449C JUMP JUMPDEST CALLVALUE DUP1 ISZERO PUSH2 0x41D JUMPI PUSH1 0x0 DUP1 REVERT JUMPDEST POP PUSH2 0x2D1 PUSH2 0x42C CALLDATASIZE PUSH1 0x4 PUSH2 0x404A JUMP JUMPDEST PUSH2 0x18C3 JUMP JUMPDEST CALLVALUE DUP1 ISZERO PUSH2 0x43D JUMPI PUSH1 0x0 DUP1 REVERT JUMPDEST POP PUSH2 0x25A PUSH2 0x18D5 JUMP JUMPDEST CALLVALUE DUP1 ISZERO PUSH2 0x452 JUMPI PUSH1 0x0 DUP1 REVERT JUMPDEST POP PUSH2 0x25A PUSH2 0x461 CALLDATASIZE PUSH1 0x4 PUSH2 0x404A JUMP JUMPDEST PUSH2 0x18E9 JUMP JUMPDEST CALLVALUE DUP1 ISZERO PUSH2 0x472 JUMPI PUSH1 0x0 DUP1 REVERT JUMPDEST POP PUSH2 0x25A PUSH2 0x481 CALLDATASIZE PUSH1 0x4 PUSH2 0x4206 JUMP JUMPDEST PUSH2 0x1938 JUMP JUMPDEST CALLVALUE DUP1 ISZERO PUSH2 0x492 JUMPI PUSH1 0x0 DUP1 REVERT JUMPDEST POP PUSH2 0x2D1 PUSH2 0x19B0 JUMP JUMPDEST CALLVALUE DUP1 ISZERO PUSH2 0x4A7 JUMPI PUSH1 0x0 DUP1 REVERT JUMPDEST POP PUSH2 0x3AC PUSH2 0x19B6 JUMP JUMPDEST CALLVALUE DUP1 ISZERO PUSH2 0x4BC JUMPI PUSH1 0x0 DUP1 REVERT JUMPDEST POP PUSH2 0x37F PUSH2 0x4CB CALLDATASIZE PUSH1 0x4 PUSH2 0x404A JUMP JUMPDEST PUSH2 0x19D2 JUMP JUMPDEST CALLVALUE DUP1 ISZERO PUSH2 0x4DC JUMPI PUSH1 0x0 DUP1 REVERT JUMPDEST POP PUSH2 0x2D1 PUSH2 0x19FD JUMP JUMPDEST PUSH2 0x37F PUSH2 0x4F3 CALLDATASIZE PUSH1 0x4 PUSH2 0x4206 JUMP JUMPDEST PUSH2 0x1A03 JUMP JUMPDEST CALLVALUE DUP1 ISZERO PUSH2 0x504 JUMPI PUSH1 0x0 DUP1 REVERT JUMPDEST POP PUSH2 0x25A PUSH2 0x2440 JUMP JUMPDEST CALLVALUE DUP1 ISZERO PUSH2 0x519 JUMPI PUSH1 0x0 DUP1 REVERT JUMPDEST POP PUSH2 0x25A PUSH2 0x528 CALLDATASIZE PUSH1 0x4 PUSH2 0x4206 JUMP JUMPDEST PUSH2 0x2667 JUMP JUMPDEST CALLVALUE DUP1 ISZERO PUSH2 0x539 JUMPI PUSH1 0x0 DUP1 REVERT JUMPDEST POP PUSH2 0x2D1 PUSH2 0x548 CALLDATASIZE PUSH1 0x4 PUSH2 0x404A JUMP JUMPDEST PUSH2 0x2674 JUMP JUMPDEST CALLVALUE DUP1 ISZERO PUSH2 0x559 JUMPI PUSH1 0x0 DUP1 REVERT JUMPDEST POP PUSH2 0x25A PUSH2 0x2686 JUMP JUMPDEST CALLVALUE DUP1 ISZERO PUSH2 0x56E JUMPI PUSH1 0x0 DUP1 REVERT JUMPDEST POP PUSH2 0x25A PUSH2 0x57D CALLDATASIZE PUSH1 0x4 PUSH2 0x406B JUMP JUMPDEST PUSH2 0x26BE JUMP JUMPDEST CALLVALUE DUP1 ISZERO PUSH2 0x58E JUMPI PUSH1 0x0 DUP1 REVERT JUMPDEST POP PUSH2 0x2D1 PUSH2 0x2751 JUMP JUMPDEST CALLVALUE DUP1 ISZERO PUSH2 0x5A3 JUMPI PUSH1 0x0 DUP1 REVERT JUMPDEST POP PUSH2 0x37F PUSH2 0x5B2 CALLDATASIZE PUSH1 0x4 PUSH2 0x404A JUMP JUMPDEST PUSH2 0x2757 JUMP JUMPDEST CALLVALUE DUP1 ISZERO PUSH2 0x5C3 JUMPI PUSH1 0x0 DUP1 REVERT JUMPDEST POP PUSH2 0x25A PUSH2 0x5D2 CALLDATASIZE PUSH1 0x4 PUSH2 0x404A JUMP JUMPDEST PUSH2 0x276C JUMP JUMPDEST CALLVALUE DUP1 ISZERO PUSH2 0x5E3 JUMPI PUSH1 0x0 DUP1 REVERT JUMPDEST POP PUSH2 0x25A PUSH2 0x5F2 CALLDATASIZE PUSH1 0x4 PUSH2 0x404A JUMP JUMPDEST PUSH2 0x27BB JUMP JUMPDEST CALLVALUE DUP1 ISZERO PUSH2 0x603 JUMPI PUSH1 0x0 DUP1 REVERT JUMPDEST POP PUSH2 0x25A PUSH2 0x612 CALLDATASIZE PUSH1 0x4 PUSH2 0x404A JUMP JUMPDEST PUSH2 0x280A JUMP JUMPDEST CALLVALUE DUP1 ISZERO PUSH2 0x623 JUMPI PUSH1 0x0 DUP1 REVERT JUMPDEST POP PUSH2 0x25A PUSH2 0x632 CALLDATASIZE PUSH1 0x4 PUSH2 0x404A JUMP JUMPDEST PUSH2 0x2859 JUMP JUMPDEST CALLVALUE DUP1 ISZERO PUSH2 0x643 JUMPI PUSH1 0x0 DUP1 REVERT JUMPDEST POP PUSH2 0x2D1 PUSH2 0x28BA JUMP JUMPDEST CALLVALUE DUP1 ISZERO PUSH2 0x658 JUMPI PUSH1 0x0 DUP1 REVERT JUMPDEST POP PUSH2 0x2D1 PUSH2 0x667 CALLDATASIZE PUSH1 0x4 PUSH2 0x4236 JUMP JUMPDEST PUSH2 0x28C0 JUMP JUMPDEST CALLVALUE DUP1 ISZERO PUSH2 0x678 JUMPI PUSH1 0x0 DUP1 REVERT JUMPDEST POP PUSH2 0x25A PUSH2 0x687 CALLDATASIZE PUSH1 0x4 PUSH2 0x404A JUMP JUMPDEST PUSH2 0x2B78 JUMP JUMPDEST PUSH1 0x8 SLOAD PUSH1 0xB SLOAD PUSH1 0x40 MLOAD PUSH32 0xE2BBB15800000000000000000000000000000000000000000000000000000000 DUP2 MSTORE PUSH20 0xFFFFFFFFFFFFFFFFFFFFFFFFFFFFFFFFFFFFFFFF SWAP1 SWAP3 AND SWAP2 PUSH4 0xE2BBB158 SWAP2 PUSH2 0x6E6 SWAP2 PUSH1 0x0 SWAP1 PUSH1 0x4 ADD PUSH2 0x4932 JUMP JUMPDEST PUSH1 0x0 PUSH1 0x40 MLOAD DUP1 DUP4 SUB DUP2 PUSH1 0x0 DUP8 DUP1 EXTCODESIZE ISZERO DUP1 ISZERO PUSH2 0x700 JUMPI PUSH1 0x0 DUP1 REVERT JUMPDEST POP GAS CALL ISZERO DUP1 ISZERO PUSH2 0x714 JUMPI RETURNDATASIZE PUSH1 0x0 DUP1 RETURNDATACOPY RETURNDATASIZE PUSH1 0x0 REVERT JUMPDEST POP POP PUSH1 0x17 SLOAD PUSH1 0x4 DUP1 SLOAD PUSH1 0x40 MLOAD PUSH32 0x70A0823100000000000000000000000000000000000000000000000000000000 DUP2 MSTORE PUSH1 0x0 SWAP6 POP SWAP3 SWAP4 POP PUSH20 0xFFFFFFFFFFFFFFFFFFFFFFFFFFFFFFFFFFFFFFFF AND SWAP2 PUSH4 0x70A08231 SWAP2 PUSH2 0x773 SWAP2 ADDRESS SWAP2 ADD PUSH2 0x43B5 JUMP JUMPDEST PUSH1 0x20 PUSH1 0x40 MLOAD DUP1 DUP4 SUB DUP2 DUP7 DUP1 EXTCODESIZE ISZERO DUP1 ISZERO PUSH2 0x78B JUMPI PUSH1 0x0 DUP1 REVERT JUMPDEST POP GAS STATICCALL ISZERO DUP1 ISZERO PUSH2 0x79F JUMPI RETURNDATASIZE PUSH1 0x0 DUP1 RETURNDATACOPY RETURNDATASIZE PUSH1 0x0 REVERT JUMPDEST POP POP POP POP PUSH1 0x40 MLOAD RETURNDATASIZE PUSH1 0x1F NOT PUSH1 0x1F DUP3 ADD AND DUP3 ADD DUP1 PUSH1 0x40 MSTORE POP DUP2 ADD SWAP1 PUSH2 0x7C3 SWAP2 SWAP1 PUSH2 0x421E JUMP JUMPDEST PUSH2 0x7CD SWAP2 SWAP1 PUSH2 0x49DA JUMP JUMPDEST PUSH1 0x11 SLOAD SWAP1 SWAP2 POP PUSH1 0x0 SWAP1 PUSH8 0xFFFFFFFFFFFFFFFF DUP2 GT ISZERO PUSH2 0x815 JUMPI PUSH32 0x4E487B7100000000000000000000000000000000000000000000000000000000 PUSH1 0x0 MSTORE PUSH1 0x41 PUSH1 0x4 MSTORE PUSH1 0x24 PUSH1 0x0 REVERT JUMPDEST PUSH1 0x40 MLOAD SWAP1 DUP1 DUP3 MSTORE DUP1 PUSH1 0x20 MUL PUSH1 0x20 ADD DUP3 ADD PUSH1 0x40 MSTORE DUP1 ISZERO PUSH2 0x83E JUMPI DUP2 PUSH1 0x20 ADD PUSH1 0x20 DUP3 MUL DUP1 CALLDATASIZE DUP4 CALLDATACOPY ADD SWAP1 POP JUMPDEST POP SWAP1 POP PUSH1 0x0 PUSH1 0x60 PUSH1 0x0 DUP1 PUSH1 0x0 PUSH2 0x852 PUSH2 0x16DE JUMP JUMPDEST SWAP1 SWAP7 POP SWAP5 POP DUP5 ISZERO PUSH2 0xDCE JUMPI DUP7 SWAP3 POP PUSH1 0x0 PUSH1 0x64 PUSH1 0x15 SLOAD PUSH1 0x64 PUSH2 0x873 SWAP2 SWAP1 PUSH2 0x49DA JUMP JUMPDEST PUSH2 0x87D SWAP1 DUP11 PUSH2 0x499D JUMP JUMPDEST PUSH2 0x887 SWAP2 SWAP1 PUSH2 0x4989 JUMP JUMPDEST SWAP1 POP PUSH1 0x0 PUSH2 0x896 PUSH1 0x96 DUP9 PUSH2 0x4989 JUMP JUMPDEST PUSH2 0x8A1 SWAP1 PUSH1 0x1 PUSH2 0x4971 JUMP JUMPDEST SWAP1 POP DUP1 PUSH8 0xFFFFFFFFFFFFFFFF DUP2 GT ISZERO PUSH2 0x8E3 JUMPI PUSH32 0x4E487B7100000000000000000000000000000000000000000000000000000000 PUSH1 0x0 MSTORE PUSH1 0x41 PUSH1 0x4 MSTORE PUSH1 0x24 PUSH1 0x0 REVERT JUMPDEST PUSH1 0x40 MLOAD SWAP1 DUP1 DUP3 MSTORE DUP1 PUSH1 0x20 MUL PUSH1 0x20 ADD DUP3 ADD PUSH1 0x40 MSTORE DUP1 ISZERO PUSH2 0x90C JUMPI DUP2 PUSH1 0x20 ADD PUSH1 0x20 DUP3 MUL DUP1 CALLDATASIZE DUP4 CALLDATACOPY ADD SWAP1 POP JUMPDEST POP SWAP6 POP PUSH2 0x919 DUP8 DUP3 PUSH2 0x2BC7 JUMP JUMPDEST SWAP6 POP PUSH1 0x0 JUMPDEST DUP2 DUP2 LT ISZERO PUSH2 0xA0C JUMPI PUSH1 0x0 DUP8 DUP3 DUP2 MLOAD DUP2 LT PUSH2 0x961 JUMPI PUSH32 0x4E487B7100000000000000000000000000000000000000000000000000000000 PUSH1 0x0 MSTORE PUSH1 0x32 PUSH1 0x4 MSTORE PUSH1 0x24 PUSH1 0x0 REVERT JUMPDEST PUSH1 0x20 MUL PUSH1 0x20 ADD ADD MLOAD SWAP1 POP PUSH1 0xE PUSH1 0x0 DUP12 DUP4 DUP2 MLOAD DUP2 LT PUSH2 0x9A8 JUMPI PUSH32 0x4E487B7100000000000000000000000000000000000000000000000000000000 PUSH1 0x0 MSTORE PUSH1 0x32 PUSH1 0x4 MSTORE PUSH1 0x24 PUSH1 0x0 REVERT JUMPDEST PUSH1 0x20 MUL PUSH1 0x20 ADD ADD MLOAD PUSH20 0xFFFFFFFFFFFFFFFFFFFFFFFFFFFFFFFFFFFFFFFF AND PUSH20 0xFFFFFFFFFFFFFFFFFFFFFFFFFFFFFFFFFFFFFFFF AND DUP2 MSTORE PUSH1 0x20 ADD SWAP1 DUP2 MSTORE PUSH1 0x20 ADD PUSH1 0x0 KECCAK256 SLOAD DUP7 PUSH2 0x9F6 SWAP2 SWAP1 PUSH2 0x4971 JUMP JUMPDEST SWAP6 POP POP DUP1 DUP1 PUSH2 0xA04 SWAP1 PUSH2 0x4A26 JUMP JUMPDEST SWAP2 POP POP PUSH2 0x91E JUMP JUMPDEST POP PUSH1 0x2 DUP1 SLOAD SWAP1 PUSH1 0x0 PUSH2 0xA1D DUP4 PUSH2 0x4A26 JUMP JUMPDEST SWAP2 SWAP1 POP SSTORE POP PUSH1 0x0 JUMPDEST DUP2 DUP2 LT ISZERO PUSH2 0xC0E JUMPI PUSH1 0x0 DUP10 DUP9 DUP4 DUP2 MLOAD DUP2 LT PUSH2 0xA69 JUMPI PUSH32 0x4E487B7100000000000000000000000000000000000000000000000000000000 PUSH1 0x0 MSTORE PUSH1 0x32 PUSH1 0x4 MSTORE PUSH1 0x24 PUSH1 0x0 REVERT JUMPDEST PUSH1 0x20 MUL PUSH1 0x20 ADD ADD MLOAD DUP2 MLOAD DUP2 LT PUSH2 0xAA8 JUMPI PUSH32 0x4E487B7100000000000000000000000000000000000000000000000000000000 PUSH1 0x0 MSTORE PUSH1 0x32 PUSH1 0x4 MSTORE PUSH1 0x24 PUSH1 0x0 REVERT JUMPDEST PUSH1 0x20 MUL PUSH1 0x20 ADD ADD MLOAD SWAP1 POP PUSH1 0x0 DUP7 PUSH1 0xE PUSH1 0x0 DUP5 PUSH20 0xFFFFFFFFFFFFFFFFFFFFFFFFFFFFFFFFFFFFFFFF AND PUSH20 0xFFFFFFFFFFFFFFFFFFFFFFFFFFFFFFFFFFFFFFFF AND DUP2 MSTORE PUSH1 0x20 ADD SWAP1 DUP2 MSTORE PUSH1 0x20 ADD PUSH1 0x0 KECCAK256 SLOAD PUSH1 0x64 PUSH2 0xB01 SWAP2 SWAP1 PUSH2 0x499D JUMP JUMPDEST PUSH2 0xB0B SWAP2 SWAP1 PUSH2 0x4989 JUMP JUMPDEST SWAP1 POP PUSH1 0x0 PUSH1 0x64 PUSH2 0xB1B DUP4 DUP9 PUSH2 0x499D JUMP JUMPDEST PUSH2 0xB25 SWAP2 SWAP1 PUSH2 0x4989 JUMP JUMPDEST SWAP1 POP PUSH1 0x0 PUSH2 0xB34 DUP5 DUP16 DUP6 PUSH2 0x2DD3 JUMP JUMPDEST PUSH20 0xFFFFFFFFFFFFFFFFFFFFFFFFFFFFFFFFFFFFFFFF DUP6 AND PUSH1 0x0 SWAP1 DUP2 MSTORE PUSH1 0x10 PUSH1 0x20 MSTORE PUSH1 0x40 DUP2 KECCAK256 DUP1 SLOAD SWAP3 SWAP4 POP DUP5 SWAP3 SWAP1 SWAP2 SWAP1 PUSH2 0xB6E SWAP1 DUP5 SWAP1 PUSH2 0x4971 JUMP JUMPDEST SWAP3 POP POP DUP2 SWAP1 SSTORE POP DUP2 PUSH1 0x17 PUSH1 0x0 DUP3 DUP3 SLOAD PUSH2 0xB87 SWAP2 SWAP1 PUSH2 0x4971 JUMP JUMPDEST SWAP3 POP POP DUP2 SWAP1 SSTORE POP DUP4 PUSH20 0xFFFFFFFFFFFFFFFFFFFFFFFFFFFFFFFFFFFFFFFF AND PUSH1 0x2 SLOAD PUSH32 0x9515C6F2BFFB313099BCEE0FBEC701E0D75B3E20CA6032804286CB49BB4AF2B4 DUP5 PUSH1 0x40 MLOAD PUSH2 0xBD7 SWAP2 SWAP1 PUSH2 0x48E4 JUMP JUMPDEST PUSH1 0x40 MLOAD DUP1 SWAP2 SUB SWAP1 LOG3 PUSH2 0xBE9 DUP3 DUP12 PUSH2 0x49DA JUMP JUMPDEST SWAP10 POP PUSH2 0xBF5 DUP2 DUP10 PUSH2 0x4971 JUMP JUMPDEST SWAP8 POP POP POP POP POP DUP1 DUP1 PUSH2 0xC06 SWAP1 PUSH2 0x4A26 JUMP JUMPDEST SWAP2 POP POP PUSH2 0xA25 JUMP JUMPDEST POP PUSH1 0x2 SLOAD PUSH32 0x7499611827A1DC9F9FC8242A819E0BA432979CEC101754ACB79AA4F8D85AD5A5 DUP11 PUSH2 0xC3E DUP9 DUP3 PUSH2 0x49DA JUMP JUMPDEST DUP9 PUSH1 0x40 MLOAD PUSH2 0xC4E SWAP4 SWAP3 SWAP2 SWAP1 PUSH2 0x4940 JUMP JUMPDEST PUSH1 0x40 MLOAD DUP1 SWAP2 SUB SWAP1 LOG2 PUSH1 0x4 DUP1 SLOAD PUSH1 0xA SLOAD PUSH1 0x40 MLOAD PUSH32 0xA9059CBB00000000000000000000000000000000000000000000000000000000 DUP2 MSTORE PUSH20 0xFFFFFFFFFFFFFFFFFFFFFFFFFFFFFFFFFFFFFFFF SWAP3 DUP4 AND SWAP4 PUSH4 0xA9059CBB SWAP4 PUSH2 0xCB0 SWAP4 AND SWAP2 DUP9 SWAP2 ADD PUSH2 0x442E JUMP JUMPDEST PUSH1 0x20 PUSH1 0x40 MLOAD DUP1 DUP4 SUB DUP2 PUSH1 0x0 DUP8 DUP1 EXTCODESIZE ISZERO DUP1 ISZERO PUSH2 0xCCA JUMPI PUSH1 0x0 DUP1 REVERT JUMPDEST POP GAS CALL ISZERO DUP1 ISZERO PUSH2 0xCDE JUMPI RETURNDATASIZE PUSH1 0x0 DUP1 RETURNDATACOPY RETURNDATASIZE PUSH1 0x0 REVERT JUMPDEST POP POP POP POP PUSH1 0x40 MLOAD RETURNDATASIZE PUSH1 0x1F NOT PUSH1 0x1F DUP3 ADD AND DUP3 ADD DUP1 PUSH1 0x40 MSTORE POP DUP2 ADD SWAP1 PUSH2 0xD02 SWAP2 SWAP1 PUSH2 0x4198 JUMP JUMPDEST POP PUSH2 0xD0D DUP4 DUP7 PUSH2 0x49DA JUMP JUMPDEST PUSH1 0x4 DUP1 SLOAD PUSH1 0xC SLOAD PUSH1 0x40 MLOAD PUSH32 0xA9059CBB00000000000000000000000000000000000000000000000000000000 DUP2 MSTORE SWAP4 SWAP9 POP PUSH20 0xFFFFFFFFFFFFFFFFFFFFFFFFFFFFFFFFFFFFFFFF SWAP2 DUP3 AND SWAP4 PUSH4 0xA9059CBB SWAP4 PUSH2 0xD6C SWAP4 SWAP1 SWAP3 AND SWAP2 DUP11 SWAP2 ADD PUSH2 0x442E JUMP JUMPDEST PUSH1 0x20 PUSH1 0x40 MLOAD DUP1 DUP4 SUB DUP2 PUSH1 0x0 DUP8 DUP1 EXTCODESIZE ISZERO DUP1 ISZERO PUSH2 0xD86 JUMPI PUSH1 0x0 DUP1 REVERT JUMPDEST POP GAS CALL ISZERO DUP1 ISZERO PUSH2 0xD9A JUMPI RETURNDATASIZE PUSH1 0x0 DUP1 RETURNDATACOPY RETURNDATASIZE PUSH1 0x0 REVERT JUMPDEST POP POP POP POP PUSH1 0x40 MLOAD RETURNDATASIZE PUSH1 0x1F NOT PUSH1 0x1F DUP3 ADD AND DUP3 ADD DUP1 PUSH1 0x40 MSTORE POP DUP2 ADD SWAP1 PUSH2 0xDBE SWAP2 SWAP1 PUSH2 0x4198 JUMP JUMPDEST POP PUSH2 0xDC7 PUSH2 0x2F42 JUMP JUMPDEST POP POP PUSH2 0xDD6 JUMP JUMPDEST PUSH2 0xDD6 PUSH2 0x2F42 JUMP JUMPDEST POP POP POP POP POP POP POP JUMP JUMPDEST PUSH2 0xDE7 PUSH2 0x19B6 JUMP JUMPDEST PUSH20 0xFFFFFFFFFFFFFFFFFFFFFFFFFFFFFFFFFFFFFFFF AND CALLER PUSH20 0xFFFFFFFFFFFFFFFFFFFFFFFFFFFFFFFFFFFFFFFF AND EQ DUP1 PUSH2 0xE37 JUMPI POP PUSH1 0xC SLOAD PUSH20 0xFFFFFFFFFFFFFFFFFFFFFFFFFFFFFFFFFFFFFFFF AND CALLER EQ JUMPDEST PUSH2 0xE76 JUMPI PUSH1 0x40 MLOAD PUSH32 0x8C379A000000000000000000000000000000000000000000000000000000000 DUP2 MSTORE PUSH1 0x4 ADD PUSH2 0xE6D SWAP1 PUSH2 0x473F JUMP JUMPDEST PUSH1 0x40 MLOAD DUP1 SWAP2 SUB SWAP1 REVERT JUMPDEST PUSH1 0xC SLOAD PUSH1 0x40 MLOAD PUSH20 0xFFFFFFFFFFFFFFFFFFFFFFFFFFFFFFFFFFFFFFFF DUP1 DUP5 AND SWAP3 AND SWAP1 PUSH32 0x768099735D1C322A05A5B9D7B76D99682A1833D3F7055E5EDE25E0F2EEAA8C6D SWAP1 PUSH1 0x0 SWAP1 LOG3 PUSH1 0xC DUP1 SLOAD PUSH32 0xFFFFFFFFFFFFFFFFFFFFFFFF0000000000000000000000000000000000000000 AND PUSH20 0xFFFFFFFFFFFFFFFFFFFFFFFFFFFFFFFFFFFFFFFF SWAP3 SWAP1 SWAP3 AND SWAP2 SWAP1 SWAP2 OR SWAP1 SSTORE JUMP JUMPDEST PUSH2 0xF0C PUSH2 0x3B16 JUMP JUMPDEST PUSH1 0xA DUP1 SLOAD PUSH32 0xFFFFFFFFFFFFFFFFFFFFFFFF0000000000000000000000000000000000000000 AND PUSH20 0xFFFFFFFFFFFFFFFFFFFFFFFFFFFFFFFFFFFFFFFF SWAP3 SWAP1 SWAP3 AND SWAP2 SWAP1 SWAP2 OR SWAP1 SSTORE JUMP JUMPDEST PUSH1 0x10 PUSH1 0x20 MSTORE PUSH1 0x0 SWAP1 DUP2 MSTORE PUSH1 0x40 SWAP1 KECCAK256 SLOAD DUP2 JUMP JUMPDEST PUSH1 0x8 SLOAD PUSH1 0xB SLOAD PUSH1 0x40 MLOAD PUSH32 0x1175A1DD00000000000000000000000000000000000000000000000000000000 DUP2 MSTORE PUSH1 0x0 SWAP3 PUSH20 0xFFFFFFFFFFFFFFFFFFFFFFFFFFFFFFFFFFFFFFFF AND SWAP2 PUSH4 0x1175A1DD SWAP2 PUSH2 0xFC0 SWAP2 SWAP1 ADDRESS SWAP1 PUSH1 0x4 ADD PUSH2 0x48ED JUMP JUMPDEST PUSH1 0x20 PUSH1 0x40 MLOAD DUP1 DUP4 SUB DUP2 DUP7 DUP1 EXTCODESIZE ISZERO DUP1 ISZERO PUSH2 0xFD8 JUMPI PUSH1 0x0 DUP1 REVERT JUMPDEST POP GAS STATICCALL ISZERO DUP1 ISZERO PUSH2 0xFEC JUMPI RETURNDATASIZE PUSH1 0x0 DUP1 RETURNDATACOPY RETURNDATASIZE PUSH1 0x0 REVERT JUMPDEST POP POP POP POP PUSH1 0x40 MLOAD RETURNDATASIZE PUSH1 0x1F NOT PUSH1 0x1F DUP3 ADD AND DUP3 ADD DUP1 PUSH1 0x40 MSTORE POP DUP2 ADD SWAP1 PUSH2 0x1010 SWAP2 SWAP1 PUSH2 0x421E JUMP JUMPDEST SWAP1 POP SWAP1 JUMP JUMPDEST PUSH2 0x101D PUSH2 0x3B16 JUMP JUMPDEST PUSH1 0x8 DUP1 SLOAD PUSH32 0xFFFFFFFFFFFFFFFFFFFFFFFF0000000000000000000000000000000000000000 AND PUSH20 0xFFFFFFFFFFFFFFFFFFFFFFFFFFFFFFFFFFFFFFFF SWAP3 SWAP1 SWAP3 AND SWAP2 SWAP1 SWAP2 OR SWAP1 SSTORE JUMP JUMPDEST PUSH1 0xD PUSH1 0x20 MSTORE PUSH1 0x0 SWAP1 DUP2 MSTORE PUSH1 0x40 SWAP1 KECCAK256 SLOAD DUP2 JUMP JUMPDEST PUSH1 0x0 DUP1 PUSH1 0x0 DUP1 PUSH1 0x9 PUSH1 0x0 SWAP1 SLOAD SWAP1 PUSH2 0x100 EXP SWAP1 DIV PUSH20 0xFFFFFFFFFFFFFFFFFFFFFFFFFFFFFFFFFFFFFFFF AND PUSH20 0xFFFFFFFFFFFFFFFFFFFFFFFFFFFFFFFFFFFFFFFF AND PUSH4 0x902F1AC PUSH1 0x40 MLOAD DUP2 PUSH4 0xFFFFFFFF AND PUSH1 0xE0 SHL DUP2 MSTORE PUSH1 0x4 ADD PUSH1 0x60 PUSH1 0x40 MLOAD DUP1 DUP4 SUB DUP2 DUP7 DUP1 EXTCODESIZE ISZERO DUP1 ISZERO PUSH2 0x10E4 JUMPI PUSH1 0x0 DUP1 REVERT JUMPDEST POP GAS STATICCALL ISZERO DUP1 ISZERO PUSH2 0x10F8 JUMPI RETURNDATASIZE PUSH1 0x0 DUP1 RETURNDATACOPY RETURNDATASIZE PUSH1 0x0 REVERT JUMPDEST POP POP POP POP PUSH1 0x40 MLOAD RETURNDATASIZE PUSH1 0x1F NOT PUSH1 0x1F DUP3 ADD AND DUP3 ADD DUP1 PUSH1 0x40 MSTORE POP DUP2 ADD SWAP1 PUSH2 0x111C SWAP2 SWAP1 PUSH2 0x41B8 JUMP JUMPDEST POP SWAP2 POP SWAP2 POP PUSH1 0x0 PUSH1 0x9 PUSH1 0x0 SWAP1 SLOAD SWAP1 PUSH2 0x100 EXP SWAP1 DIV PUSH20 0xFFFFFFFFFFFFFFFFFFFFFFFFFFFFFFFFFFFFFFFF AND PUSH20 0xFFFFFFFFFFFFFFFFFFFFFFFFFFFFFFFFFFFFFFFF AND PUSH4 0x18160DDD PUSH1 0x40 MLOAD DUP2 PUSH4 0xFFFFFFFF AND PUSH1 0xE0 SHL DUP2 MSTORE PUSH1 0x4 ADD PUSH1 0x20 PUSH1 0x40 MLOAD DUP1 DUP4 SUB DUP2 DUP7 DUP1 EXTCODESIZE ISZERO DUP1 ISZERO PUSH2 0x118B JUMPI PUSH1 0x0 DUP1 REVERT JUMPDEST POP GAS STATICCALL ISZERO DUP1 ISZERO PUSH2 0x119F JUMPI RETURNDATASIZE PUSH1 0x0 DUP1 RETURNDATACOPY RETURNDATASIZE PUSH1 0x0 REVERT JUMPDEST POP POP POP POP PUSH1 0x40 MLOAD RETURNDATASIZE PUSH1 0x1F NOT PUSH1 0x1F DUP3 ADD AND DUP3 ADD DUP1 PUSH1 0x40 MSTORE POP DUP2 ADD SWAP1 PUSH2 0x11C3 SWAP2 SWAP1 PUSH2 0x421E JUMP JUMPDEST SWAP1 POP PUSH2 0x1226 PUSH1 0x40 MLOAD DUP1 PUSH1 0x40 ADD PUSH1 0x40 MSTORE DUP1 PUSH1 0xE DUP2 MSTORE PUSH1 0x20 ADD PUSH32 0x726174654C50546F6B656E73203A000000000000000000000000000000000000 DUP2 MSTORE POP DUP5 PUSH14 0xFFFFFFFFFFFFFFFFFFFFFFFFFFFF AND DUP5 PUSH14 0xFFFFFFFFFFFFFFFFFFFFFFFFFFFF AND DUP5 PUSH2 0x3B89 JUMP JUMPDEST DUP1 PUSH1 0x3 SLOAD DUP5 PUSH14 0xFFFFFFFFFFFFFFFFFFFFFFFFFFFF AND PUSH2 0x1245 SWAP2 SWAP1 PUSH2 0x499D JUMP JUMPDEST PUSH2 0x124F SWAP2 SWAP1 PUSH2 0x4989 JUMP JUMPDEST SWAP5 POP DUP1 PUSH1 0x3 SLOAD DUP4 PUSH14 0xFFFFFFFFFFFFFFFFFFFFFFFFFFFF AND PUSH2 0x1270 SWAP2 SWAP1 PUSH2 0x499D JUMP JUMPDEST PUSH2 0x127A SWAP2 SWAP1 PUSH2 0x4989 JUMP JUMPDEST SWAP4 POP POP POP POP SWAP1 SWAP2 JUMP JUMPDEST CALLER PUSH1 0x0 SWAP1 DUP2 MSTORE PUSH1 0xF PUSH1 0x20 SWAP1 DUP2 MSTORE PUSH1 0x40 DUP1 DUP4 KECCAK256 SLOAD PUSH1 0xD DUP4 MSTORE DUP2 DUP5 KECCAK256 SLOAD PUSH1 0xE SWAP1 SWAP4 MSTORE SWAP1 DUP4 KECCAK256 SLOAD DUP5 SWAP3 PUSH2 0x12B2 SWAP2 PUSH2 0x4971 JUMP JUMPDEST PUSH2 0x12BC SWAP2 SWAP1 PUSH2 0x49DA JUMP JUMPDEST LT ISZERO PUSH2 0x12F4 JUMPI PUSH1 0x40 MLOAD PUSH32 0x8C379A000000000000000000000000000000000000000000000000000000000 DUP2 MSTORE PUSH1 0x4 ADD PUSH2 0xE6D SWAP1 PUSH2 0x479C JUMP JUMPDEST PUSH1 0x0 DUP1 PUSH2 0x12FF PUSH2 0x1076 JUMP JUMPDEST SWAP2 POP SWAP2 POP PUSH2 0x130D DUP3 DUP3 PUSH2 0x3C24 JUMP JUMPDEST PUSH1 0x40 DUP1 MLOAD DUP1 DUP3 ADD SWAP1 SWAP2 MSTORE PUSH1 0xD DUP2 MSTORE PUSH32 0x63616B6520696E20757364743A00000000000000000000000000000000000000 PUSH1 0x20 DUP3 ADD MSTORE PUSH1 0x4 SLOAD PUSH1 0x6 SLOAD PUSH2 0x1376 SWAP3 SWAP2 PUSH2 0x1371 SWAP2 DUP7 SWAP2 PUSH20 0xFFFFFFFFFFFFFFFFFFFFFFFFFFFFFFFFFFFFFFFF SWAP1 DUP2 AND SWAP2 AND PUSH2 0x28C0 JUMP JUMPDEST PUSH2 0x3CB9 JUMP JUMPDEST PUSH1 0x40 DUP1 MLOAD DUP1 DUP3 ADD SWAP1 SWAP2 MSTORE PUSH1 0xD DUP2 MSTORE PUSH32 0x626E6220696E20757364743A2000000000000000000000000000000000000000 PUSH1 0x20 DUP3 ADD MSTORE PUSH1 0x5 SLOAD PUSH1 0x6 SLOAD PUSH2 0x13DA SWAP3 SWAP2 PUSH2 0x1371 SWAP2 DUP6 SWAP2 PUSH20 0xFFFFFFFFFFFFFFFFFFFFFFFFFFFFFFFFFFFFFFFF SWAP1 DUP2 AND SWAP2 AND PUSH2 0x28C0 JUMP JUMPDEST PUSH1 0x40 DUP1 MLOAD DUP1 DUP3 ADD SWAP1 SWAP2 MSTORE PUSH1 0xC DUP2 MSTORE PUSH32 0x6C70646563696D616C733A200000000000000000000000000000000000000000 PUSH1 0x20 DUP3 ADD MSTORE PUSH1 0x3 SLOAD PUSH1 0x5 SLOAD PUSH1 0x6 SLOAD PUSH2 0x1481 SWAP4 SWAP3 SWAP2 PUSH2 0x1442 SWAP2 DUP7 SWAP2 PUSH20 0xFFFFFFFFFFFFFFFFFFFFFFFFFFFFFFFFFFFFFFFF SWAP1 DUP2 AND SWAP2 AND PUSH2 0x28C0 JUMP JUMPDEST PUSH1 0x4 SLOAD PUSH1 0x6 SLOAD PUSH2 0x146D SWAP2 DUP9 SWAP2 PUSH20 0xFFFFFFFFFFFFFFFFFFFFFFFFFFFFFFFFFFFFFFFF SWAP2 DUP3 AND SWAP2 AND PUSH2 0x28C0 JUMP JUMPDEST PUSH2 0x1477 SWAP2 SWAP1 PUSH2 0x4971 JUMP JUMPDEST PUSH2 0x1371 SWAP2 SWAP1 PUSH2 0x4989 JUMP JUMPDEST PUSH1 0x40 DUP1 MLOAD DUP1 DUP3 ADD DUP3 MSTORE PUSH1 0x9 DUP2 MSTORE PUSH32 0x62616C616E63653A200000000000000000000000000000000000000000000000 PUSH1 0x20 DUP1 DUP4 ADD SWAP2 SWAP1 SWAP2 MSTORE CALLER PUSH1 0x0 SWAP1 DUP2 MSTORE PUSH1 0xF DUP3 MSTORE DUP4 DUP2 KECCAK256 SLOAD PUSH1 0xD DUP4 MSTORE DUP5 DUP3 KECCAK256 SLOAD PUSH1 0xE SWAP1 SWAP4 MSTORE SWAP4 SWAP1 KECCAK256 SLOAD PUSH2 0x14FD SWAP4 DUP9 SWAP3 SWAP1 SWAP2 PUSH2 0x14E9 SWAP2 SWAP1 PUSH2 0x4971 JUMP JUMPDEST PUSH2 0x14F3 SWAP2 SWAP1 PUSH2 0x49DA JUMP JUMPDEST PUSH2 0x1371 SWAP2 SWAP1 PUSH2 0x49DA JUMP JUMPDEST PUSH1 0x3 SLOAD PUSH1 0x5 SLOAD PUSH1 0x6 SLOAD PUSH1 0x0 SWAP3 SWAP2 PUSH2 0x152F SWAP2 DUP6 SWAP2 PUSH20 0xFFFFFFFFFFFFFFFFFFFFFFFFFFFFFFFFFFFFFFFF SWAP1 DUP2 AND SWAP2 AND PUSH2 0x28C0 JUMP JUMPDEST PUSH1 0x4 SLOAD PUSH1 0x6 SLOAD PUSH2 0x155A SWAP2 DUP8 SWAP2 PUSH20 0xFFFFFFFFFFFFFFFFFFFFFFFFFFFFFFFFFFFFFFFF SWAP2 DUP3 AND SWAP2 AND PUSH2 0x28C0 JUMP JUMPDEST PUSH2 0x1564 SWAP2 SWAP1 PUSH2 0x4971 JUMP JUMPDEST CALLER PUSH1 0x0 SWAP1 DUP2 MSTORE PUSH1 0xF PUSH1 0x20 SWAP1 DUP2 MSTORE PUSH1 0x40 DUP1 DUP4 KECCAK256 SLOAD PUSH1 0xD DUP4 MSTORE DUP2 DUP5 KECCAK256 SLOAD PUSH1 0xE SWAP1 SWAP4 MSTORE SWAP3 KECCAK256 SLOAD DUP10 SWAP3 SWAP2 PUSH2 0x1593 SWAP2 PUSH2 0x4971 JUMP JUMPDEST PUSH2 0x159D SWAP2 SWAP1 PUSH2 0x49DA JUMP JUMPDEST PUSH2 0x15A7 SWAP2 SWAP1 PUSH2 0x49DA JUMP JUMPDEST PUSH2 0x15B1 SWAP2 SWAP1 PUSH2 0x499D JUMP JUMPDEST PUSH2 0x15BB SWAP2 SWAP1 PUSH2 0x4989 JUMP JUMPDEST SWAP1 POP PUSH2 0x15CC DUP2 PUSH1 0x13 SLOAD PUSH1 0x14 SLOAD PUSH2 0x3D4A JUMP JUMPDEST DUP1 ISZERO DUP1 PUSH2 0x15DB JUMPI POP PUSH1 0x13 SLOAD DUP2 LT ISZERO JUMPDEST PUSH2 0x1611 JUMPI PUSH1 0x40 MLOAD PUSH32 0x8C379A000000000000000000000000000000000000000000000000000000000 DUP2 MSTORE PUSH1 0x4 ADD PUSH2 0xE6D SWAP1 PUSH2 0x463F JUMP JUMPDEST PUSH1 0x14 SLOAD DUP2 GT ISZERO PUSH2 0x164D JUMPI PUSH1 0x40 MLOAD PUSH32 0x8C379A000000000000000000000000000000000000000000000000000000000 DUP2 MSTORE PUSH1 0x4 ADD PUSH2 0xE6D SWAP1 PUSH2 0x470A JUMP JUMPDEST CALLER PUSH1 0x0 SWAP1 DUP2 MSTORE PUSH1 0xF PUSH1 0x20 MSTORE PUSH1 0x40 DUP2 KECCAK256 DUP1 SLOAD DUP8 SWAP3 SWAP1 PUSH2 0x166C SWAP1 DUP5 SWAP1 PUSH2 0x4971 JUMP JUMPDEST SWAP1 SWAP2 SSTORE POP PUSH1 0x1 SWAP5 POP POP POP POP POP JUMPDEST SWAP2 SWAP1 POP JUMP JUMPDEST PUSH1 0x11 DUP2 DUP2 SLOAD DUP2 LT PUSH2 0x168E JUMPI PUSH1 0x0 DUP1 REVERT JUMPDEST PUSH1 0x0 SWAP2 DUP3 MSTORE PUSH1 0x20 SWAP1 SWAP2 KECCAK256 ADD SLOAD PUSH20 0xFFFFFFFFFFFFFFFFFFFFFFFFFFFFFFFFFFFFFFFF AND SWAP1 POP DUP2 JUMP JUMPDEST PUSH1 0xC SLOAD PUSH20 0xFFFFFFFFFFFFFFFFFFFFFFFFFFFFFFFFFFFFFFFF AND DUP2 JUMP JUMPDEST PUSH2 0x16D9 PUSH2 0x3B16 JUMP JUMPDEST PUSH1 0x14 SSTORE JUMP JUMPDEST PUSH1 0x11 SLOAD PUSH1 0x60 SWAP1 PUSH1 0x0 SWAP1 PUSH8 0xFFFFFFFFFFFFFFFF DUP2 GT ISZERO PUSH2 0x1726 JUMPI PUSH32 0x4E487B7100000000000000000000000000000000000000000000000000000000 PUSH1 0x0 MSTORE PUSH1 0x41 PUSH1 0x4 MSTORE PUSH1 0x24 PUSH1 0x0 REVERT JUMPDEST PUSH1 0x40 MLOAD SWAP1 DUP1 DUP3 MSTORE DUP1 PUSH1 0x20 MUL PUSH1 0x20 ADD DUP3 ADD PUSH1 0x40 MSTORE DUP1 ISZERO PUSH2 0x174F JUMPI DUP2 PUSH1 0x20 ADD PUSH1 0x20 DUP3 MUL DUP1 CALLDATASIZE DUP4 CALLDATACOPY ADD SWAP1 POP JUMPDEST POP SWAP2 POP PUSH1 0x0 SWAP1 POP PUSH1 0x0 JUMPDEST PUSH1 0x11 SLOAD DUP2 LT ISZERO PUSH2 0x18BE JUMPI PUSH1 0x0 PUSH1 0xE PUSH1 0x0 PUSH1 0x11 DUP5 DUP2 SLOAD DUP2 LT PUSH2 0x17A3 JUMPI PUSH32 0x4E487B7100000000000000000000000000000000000000000000000000000000 PUSH1 0x0 MSTORE PUSH1 0x32 PUSH1 0x4 MSTORE PUSH1 0x24 PUSH1 0x0 REVERT JUMPDEST PUSH1 0x0 SWAP2 DUP3 MSTORE PUSH1 0x20 DUP1 DUP4 KECCAK256 SWAP1 SWAP2 ADD SLOAD PUSH20 0xFFFFFFFFFFFFFFFFFFFFFFFFFFFFFFFFFFFFFFFF AND DUP4 MSTORE DUP3 ADD SWAP3 SWAP1 SWAP3 MSTORE PUSH1 0x40 ADD SWAP1 KECCAK256 SLOAD GT ISZERO PUSH2 0x18AC JUMPI PUSH1 0x11 DUP2 DUP2 SLOAD DUP2 LT PUSH2 0x1815 JUMPI PUSH32 0x4E487B7100000000000000000000000000000000000000000000000000000000 PUSH1 0x0 MSTORE PUSH1 0x32 PUSH1 0x4 MSTORE PUSH1 0x24 PUSH1 0x0 REVERT JUMPDEST SWAP1 PUSH1 0x0 MSTORE PUSH1 0x20 PUSH1 0x0 KECCAK256 ADD PUSH1 0x0 SWAP1 SLOAD SWAP1 PUSH2 0x100 EXP SWAP1 DIV PUSH20 0xFFFFFFFFFFFFFFFFFFFFFFFFFFFFFFFFFFFFFFFF AND DUP4 DUP4 DUP2 MLOAD DUP2 LT PUSH2 0x1879 JUMPI PUSH32 0x4E487B7100000000000000000000000000000000000000000000000000000000 PUSH1 0x0 MSTORE PUSH1 0x32 PUSH1 0x4 MSTORE PUSH1 0x24 PUSH1 0x0 REVERT JUMPDEST PUSH20 0xFFFFFFFFFFFFFFFFFFFFFFFFFFFFFFFFFFFFFFFF SWAP1 SWAP3 AND PUSH1 0x20 SWAP3 DUP4 MUL SWAP2 SWAP1 SWAP2 ADD SWAP1 SWAP2 ADD MSTORE DUP2 PUSH2 0x18A8 DUP2 PUSH2 0x4A26 JUMP JUMPDEST SWAP3 POP POP JUMPDEST DUP1 PUSH2 0x18B6 DUP2 PUSH2 0x4A26 JUMP JUMPDEST SWAP2 POP POP PUSH2 0x1759 JUMP JUMPDEST POP SWAP1 SWAP2 JUMP JUMPDEST PUSH1 0xE PUSH1 0x20 MSTORE PUSH1 0x0 SWAP1 DUP2 MSTORE PUSH1 0x40 SWAP1 KECCAK256 SLOAD DUP2 JUMP JUMPDEST PUSH2 0x18DD PUSH2 0x3B16 JUMP JUMPDEST PUSH2 0x18E7 PUSH1 0x0 PUSH2 0x3DE2 JUMP JUMPDEST JUMP JUMPDEST PUSH2 0x18F1 PUSH2 0x3B16 JUMP JUMPDEST PUSH1 0x5 DUP1 SLOAD PUSH32 0xFFFFFFFFFFFFFFFFFFFFFFFF0000000000000000000000000000000000000000 AND PUSH20 0xFFFFFFFFFFFFFFFFFFFFFFFFFFFFFFFFFFFFFFFF SWAP3 SWAP1 SWAP3 AND SWAP2 SWAP1 SWAP2 OR SWAP1 SSTORE JUMP JUMPDEST PUSH2 0x1940 PUSH2 0x3B16 JUMP JUMPDEST PUSH1 0x16 SLOAD DUP2 GT ISZERO PUSH2 0x197C JUMPI PUSH1 0x40 MLOAD PUSH32 0x8C379A000000000000000000000000000000000000000000000000000000000 DUP2 MSTORE PUSH1 0x4 ADD PUSH2 0xE6D SWAP1 PUSH2 0x4585 JUMP JUMPDEST PUSH1 0x15 SLOAD PUSH1 0x40 MLOAD DUP3 SWAP2 SWAP1 PUSH32 0x44CB215A0EE4011E0802AEA4220545B8F823C5041BB303A4AE1219F99F91E65B SWAP1 PUSH1 0x0 SWAP1 LOG3 PUSH1 0x15 SSTORE JUMP JUMPDEST PUSH1 0x3 SLOAD DUP2 JUMP JUMPDEST PUSH1 0x1 SLOAD PUSH20 0xFFFFFFFFFFFFFFFFFFFFFFFFFFFFFFFFFFFFFFFF AND SWAP1 JUMP JUMPDEST PUSH20 0xFFFFFFFFFFFFFFFFFFFFFFFFFFFFFFFFFFFFFFFF AND PUSH1 0x0 SWAP1 DUP2 MSTORE PUSH1 0x12 PUSH1 0x20 MSTORE PUSH1 0x40 SWAP1 KECCAK256 SLOAD PUSH1 0xFF AND SWAP1 JUMP JUMPDEST PUSH1 0x14 SLOAD DUP2 JUMP JUMPDEST PUSH1 0x4 DUP1 SLOAD PUSH1 0x40 MLOAD PUSH32 0x70A0823100000000000000000000000000000000000000000000000000000000 DUP2 MSTORE PUSH1 0x0 SWAP3 DUP5 SWAP3 PUSH20 0xFFFFFFFFFFFFFFFFFFFFFFFFFFFFFFFFFFFFFFFF AND SWAP2 PUSH4 0x70A08231 SWAP2 PUSH2 0x1A5B SWAP2 CALLER SWAP2 ADD PUSH2 0x43B5 JUMP JUMPDEST PUSH1 0x20 PUSH1 0x40 MLOAD DUP1 DUP4 SUB DUP2 DUP7 DUP1 EXTCODESIZE ISZERO DUP1 ISZERO PUSH2 0x1A73 JUMPI PUSH1 0x0 DUP1 REVERT JUMPDEST POP GAS STATICCALL ISZERO DUP1 ISZERO PUSH2 0x1A87 JUMPI RETURNDATASIZE PUSH1 0x0 DUP1 RETURNDATACOPY RETURNDATASIZE PUSH1 0x0 REVERT JUMPDEST POP POP POP POP PUSH1 0x40 MLOAD RETURNDATASIZE PUSH1 0x1F NOT PUSH1 0x1F DUP3 ADD AND DUP3 ADD DUP1 PUSH1 0x40 MSTORE POP DUP2 ADD SWAP1 PUSH2 0x1AAB SWAP2 SWAP1 PUSH2 0x421E JUMP JUMPDEST LT ISZERO PUSH2 0x1AE3 JUMPI PUSH1 0x40 MLOAD PUSH32 0x8C379A000000000000000000000000000000000000000000000000000000000 DUP2 MSTORE PUSH1 0x4 ADD PUSH2 0xE6D SWAP1 PUSH2 0x4676 JUMP JUMPDEST PUSH1 0x4 DUP1 SLOAD PUSH1 0x40 MLOAD PUSH32 0xDD62ED3E00000000000000000000000000000000000000000000000000000000 DUP2 MSTORE DUP5 SWAP3 PUSH20 0xFFFFFFFFFFFFFFFFFFFFFFFFFFFFFFFFFFFFFFFF SWAP1 SWAP3 AND SWAP2 PUSH4 0xDD62ED3E SWAP2 PUSH2 0x1B3C SWAP2 CALLER SWAP2 ADDRESS SWAP2 ADD PUSH2 0x43D6 JUMP JUMPDEST PUSH1 0x20 PUSH1 0x40 MLOAD DUP1 DUP4 SUB DUP2 DUP7 DUP1 EXTCODESIZE ISZERO DUP1 ISZERO PUSH2 0x1B54 JUMPI PUSH1 0x0 DUP1 REVERT JUMPDEST POP GAS STATICCALL ISZERO DUP1 ISZERO PUSH2 0x1B68 JUMPI RETURNDATASIZE PUSH1 0x0 DUP1 RETURNDATACOPY RETURNDATASIZE PUSH1 0x0 REVERT JUMPDEST POP POP POP POP PUSH1 0x40 MLOAD RETURNDATASIZE PUSH1 0x1F NOT PUSH1 0x1F DUP3 ADD AND DUP3 ADD DUP1 PUSH1 0x40 MSTORE POP DUP2 ADD SWAP1 PUSH2 0x1B8C SWAP2 SWAP1 PUSH2 0x421E JUMP JUMPDEST LT ISZERO PUSH2 0x1BC4 JUMPI PUSH1 0x40 MLOAD PUSH32 0x8C379A000000000000000000000000000000000000000000000000000000000 DUP2 MSTORE PUSH1 0x4 ADD PUSH2 0xE6D SWAP1 PUSH2 0x483F JUMP JUMPDEST PUSH1 0xA SLOAD PUSH1 0x40 MLOAD PUSH32 0x929066F500000000000000000000000000000000000000000000000000000000 DUP2 MSTORE PUSH20 0xFFFFFFFFFFFFFFFFFFFFFFFFFFFFFFFFFFFFFFFF SWAP1 SWAP2 AND SWAP1 PUSH4 0x929066F5 SWAP1 PUSH2 0x1C1A SWAP1 CALLER SWAP1 PUSH1 0x4 ADD PUSH2 0x43B5 JUMP JUMPDEST PUSH1 0x20 PUSH1 0x40 MLOAD DUP1 DUP4 SUB DUP2 DUP7 DUP1 EXTCODESIZE ISZERO DUP1 ISZERO PUSH2 0x1C32 JUMPI PUSH1 0x0 DUP1 REVERT JUMPDEST POP GAS STATICCALL ISZERO DUP1 ISZERO PUSH2 0x1C46 JUMPI RETURNDATASIZE PUSH1 0x0 DUP1 RETURNDATACOPY RETURNDATASIZE PUSH1 0x0 REVERT JUMPDEST POP POP POP POP PUSH1 0x40 MLOAD RETURNDATASIZE PUSH1 0x1F NOT PUSH1 0x1F DUP3 ADD AND DUP3 ADD DUP1 PUSH1 0x40 MSTORE POP DUP2 ADD SWAP1 PUSH2 0x1C6A SWAP2 SWAP1 PUSH2 0x4198 JUMP JUMPDEST PUSH2 0x1CA0 JUMPI PUSH1 0x40 MLOAD PUSH32 0x8C379A000000000000000000000000000000000000000000000000000000000 DUP2 MSTORE PUSH1 0x4 ADD PUSH2 0xE6D SWAP1 PUSH2 0x4876 JUMP JUMPDEST CALLVALUE PUSH1 0x0 DUP1 PUSH2 0x1CAC PUSH2 0x1076 JUMP JUMPDEST PUSH1 0x40 DUP1 MLOAD DUP1 DUP3 ADD SWAP1 SWAP2 MSTORE PUSH1 0xD DUP2 MSTORE PUSH32 0x63616B6520696E20757364743A00000000000000000000000000000000000000 PUSH1 0x20 DUP3 ADD MSTORE PUSH1 0x4 SLOAD PUSH1 0x6 SLOAD SWAP4 SWAP6 POP SWAP2 SWAP4 POP PUSH2 0x1D17 SWAP3 SWAP1 SWAP2 PUSH2 0x1371 SWAP2 DUP7 SWAP2 PUSH20 0xFFFFFFFFFFFFFFFFFFFFFFFFFFFFFFFFFFFFFFFF SWAP1 DUP2 AND SWAP2 AND PUSH2 0x28C0 JUMP JUMPDEST PUSH1 0x40 DUP1 MLOAD DUP1 DUP3 ADD SWAP1 SWAP2 MSTORE PUSH1 0xD DUP2 MSTORE PUSH32 0x626E6220696E20757364743A2000000000000000000000000000000000000000 PUSH1 0x20 DUP3 ADD MSTORE PUSH1 0x5 SLOAD PUSH1 0x6 SLOAD PUSH2 0x1D7B SWAP3 SWAP2 PUSH2 0x1371 SWAP2 DUP6 SWAP2 PUSH20 0xFFFFFFFFFFFFFFFFFFFFFFFFFFFFFFFFFFFFFFFF SWAP1 DUP2 AND SWAP2 AND PUSH2 0x28C0 JUMP JUMPDEST PUSH1 0x40 DUP1 MLOAD DUP1 DUP3 ADD SWAP1 SWAP2 MSTORE PUSH1 0xC DUP2 MSTORE PUSH32 0x6C70646563696D616C733A200000000000000000000000000000000000000000 PUSH1 0x20 DUP3 ADD MSTORE PUSH1 0x3 SLOAD PUSH1 0x5 SLOAD PUSH1 0x6 SLOAD PUSH2 0x1DE3 SWAP4 SWAP3 SWAP2 PUSH2 0x1442 SWAP2 DUP7 SWAP2 PUSH20 0xFFFFFFFFFFFFFFFFFFFFFFFFFFFFFFFFFFFFFFFF SWAP1 DUP2 AND SWAP2 AND PUSH2 0x28C0 JUMP JUMPDEST PUSH1 0x3 SLOAD PUSH1 0x5 SLOAD PUSH1 0x6 SLOAD PUSH1 0x0 SWAP3 SWAP2 PUSH2 0x1E15 SWAP2 DUP6 SWAP2 PUSH20 0xFFFFFFFFFFFFFFFFFFFFFFFFFFFFFFFFFFFFFFFF SWAP1 DUP2 AND SWAP2 AND PUSH2 0x28C0 JUMP JUMPDEST PUSH1 0x4 SLOAD PUSH1 0x6 SLOAD PUSH2 0x1E40 SWAP2 DUP8 SWAP2 PUSH20 0xFFFFFFFFFFFFFFFFFFFFFFFFFFFFFFFFFFFFFFFF SWAP2 DUP3 AND SWAP2 AND PUSH2 0x28C0 JUMP JUMPDEST PUSH2 0x1E4A SWAP2 SWAP1 PUSH2 0x4971 JUMP JUMPDEST CALLER PUSH1 0x0 SWAP1 DUP2 MSTORE PUSH1 0xF PUSH1 0x20 SWAP1 DUP2 MSTORE PUSH1 0x40 DUP1 DUP4 KECCAK256 SLOAD PUSH1 0xD DUP4 MSTORE DUP2 DUP5 KECCAK256 SLOAD PUSH1 0xE SWAP1 SWAP4 MSTORE SWAP3 KECCAK256 SLOAD PUSH2 0x1E77 SWAP2 SWAP1 PUSH2 0x4971 JUMP JUMPDEST PUSH2 0x1E81 SWAP2 SWAP1 PUSH2 0x49DA JUMP JUMPDEST PUSH2 0x1E8B SWAP2 SWAP1 PUSH2 0x499D JUMP JUMPDEST PUSH2 0x1E95 SWAP2 SWAP1 PUSH2 0x4989 JUMP JUMPDEST PUSH1 0x5 SLOAD PUSH1 0x6 SLOAD SWAP2 SWAP3 POP PUSH1 0x0 SWAP2 PUSH2 0x1EC6 SWAP2 DUP8 SWAP2 PUSH20 0xFFFFFFFFFFFFFFFFFFFFFFFFFFFFFFFFFFFFFFFF SWAP2 DUP3 AND SWAP2 AND PUSH2 0x28C0 JUMP JUMPDEST PUSH1 0x4 SLOAD PUSH1 0x6 SLOAD PUSH2 0x1EF1 SWAP2 DUP11 SWAP2 PUSH20 0xFFFFFFFFFFFFFFFFFFFFFFFFFFFFFFFFFFFFFFFF SWAP2 DUP3 AND SWAP2 AND PUSH2 0x28C0 JUMP JUMPDEST PUSH2 0x1EFB SWAP2 SWAP1 PUSH2 0x4971 JUMP JUMPDEST SWAP1 POP PUSH2 0x1F0D DUP3 DUP3 PUSH1 0x13 SLOAD PUSH1 0x14 SLOAD PUSH2 0x3E59 JUMP JUMPDEST PUSH1 0x13 SLOAD PUSH2 0x1F1A DUP3 DUP5 PUSH2 0x4971 JUMP JUMPDEST LT ISZERO PUSH2 0x1F52 JUMPI PUSH1 0x40 MLOAD PUSH32 0x8C379A000000000000000000000000000000000000000000000000000000000 DUP2 MSTORE PUSH1 0x4 ADD PUSH2 0xE6D SWAP1 PUSH2 0x463F JUMP JUMPDEST PUSH1 0x14 SLOAD PUSH2 0x1F5F DUP3 DUP5 PUSH2 0x4971 JUMP JUMPDEST GT ISZERO PUSH2 0x1F97 JUMPI PUSH1 0x40 MLOAD PUSH32 0x8C379A000000000000000000000000000000000000000000000000000000000 DUP2 MSTORE PUSH1 0x4 ADD PUSH2 0xE6D SWAP1 PUSH2 0x470A JUMP JUMPDEST PUSH1 0x4 DUP1 SLOAD PUSH1 0x40 MLOAD PUSH32 0x23B872DD00000000000000000000000000000000000000000000000000000000 DUP2 MSTORE PUSH1 0x0 SWAP3 PUSH20 0xFFFFFFFFFFFFFFFFFFFFFFFFFFFFFFFFFFFFFFFF SWAP1 SWAP3 AND SWAP2 PUSH4 0x23B872DD SWAP2 PUSH2 0x1FF3 SWAP2 CALLER SWAP2 ADDRESS SWAP2 DUP15 SWAP2 ADD PUSH2 0x43FD JUMP JUMPDEST PUSH1 0x20 PUSH1 0x40 MLOAD DUP1 DUP4 SUB DUP2 PUSH1 0x0 DUP8 DUP1 EXTCODESIZE ISZERO DUP1 ISZERO PUSH2 0x200D JUMPI PUSH1 0x0 DUP1 REVERT JUMPDEST POP GAS CALL ISZERO DUP1 ISZERO PUSH2 0x2021 JUMPI RETURNDATASIZE PUSH1 0x0 DUP1 RETURNDATACOPY RETURNDATASIZE PUSH1 0x0 REVERT JUMPDEST POP POP POP POP PUSH1 0x40 MLOAD RETURNDATASIZE PUSH1 0x1F NOT PUSH1 0x1F DUP3 ADD AND DUP3 ADD DUP1 PUSH1 0x40 MSTORE POP DUP2 ADD SWAP1 PUSH2 0x2045 SWAP2 SWAP1 PUSH2 0x4198 JUMP JUMPDEST SWAP1 POP DUP1 PUSH2 0x207E JUMPI PUSH1 0x40 MLOAD PUSH32 0x8C379A000000000000000000000000000000000000000000000000000000000 DUP2 MSTORE PUSH1 0x4 ADD PUSH2 0xE6D SWAP1 PUSH2 0x48AD JUMP JUMPDEST PUSH1 0x4 DUP1 SLOAD PUSH1 0x7 SLOAD PUSH1 0x40 MLOAD PUSH32 0x95EA7B300000000000000000000000000000000000000000000000000000000 DUP2 MSTORE PUSH1 0x0 SWAP4 PUSH20 0xFFFFFFFFFFFFFFFFFFFFFFFFFFFFFFFFFFFFFFFF SWAP4 DUP5 AND SWAP4 PUSH4 0x95EA7B3 SWAP4 PUSH2 0x20DC SWAP4 SWAP2 AND SWAP2 DUP15 SWAP2 ADD PUSH2 0x442E JUMP JUMPDEST PUSH1 0x20 PUSH1 0x40 MLOAD DUP1 DUP4 SUB DUP2 PUSH1 0x0 DUP8 DUP1 EXTCODESIZE ISZERO DUP1 ISZERO PUSH2 0x20F6 JUMPI PUSH1 0x0 DUP1 REVERT JUMPDEST POP GAS CALL ISZERO DUP1 ISZERO PUSH2 0x210A JUMPI RETURNDATASIZE PUSH1 0x0 DUP1 RETURNDATACOPY RETURNDATASIZE PUSH1 0x0 REVERT JUMPDEST POP POP POP POP PUSH1 0x40 MLOAD RETURNDATASIZE PUSH1 0x1F NOT PUSH1 0x1F DUP3 ADD AND DUP3 ADD DUP1 PUSH1 0x40 MSTORE POP DUP2 ADD SWAP1 PUSH2 0x212E SWAP2 SWAP1 PUSH2 0x4198 JUMP JUMPDEST POP PUSH1 0x7 SLOAD PUSH1 0x4 SLOAD PUSH20 0xFFFFFFFFFFFFFFFFFFFFFFFFFFFFFFFFFFFFFFFF SWAP2 DUP3 AND SWAP2 PUSH4 0xF305D719 SWAP2 DUP11 SWAP2 AND DUP13 PUSH2 0x2164 PUSH2 0x2710 DUP3 PUSH2 0x4989 JUMP JUMPDEST PUSH2 0x2170 SWAP1 PUSH2 0x26AC PUSH2 0x499D JUMP JUMPDEST PUSH2 0x217C PUSH2 0x2710 DUP15 PUSH2 0x4989 JUMP JUMPDEST PUSH2 0x2188 SWAP1 PUSH2 0x26AC PUSH2 0x499D JUMP JUMPDEST ADDRESS PUSH2 0x2195 TIMESTAMP PUSH2 0x4B0 PUSH2 0x4971 JUMP JUMPDEST PUSH1 0x40 MLOAD DUP9 PUSH4 0xFFFFFFFF AND PUSH1 0xE0 SHL DUP2 MSTORE PUSH1 0x4 ADD PUSH2 0x21B6 SWAP7 SWAP6 SWAP5 SWAP4 SWAP3 SWAP2 SWAP1 PUSH2 0x4454 JUMP JUMPDEST PUSH1 0x60 PUSH1 0x40 MLOAD DUP1 DUP4 SUB DUP2 DUP6 DUP9 DUP1 EXTCODESIZE ISZERO DUP1 ISZERO PUSH2 0x21CF JUMPI PUSH1 0x0 DUP1 REVERT JUMPDEST POP GAS CALL ISZERO DUP1 ISZERO PUSH2 0x21E3 JUMPI RETURNDATASIZE PUSH1 0x0 DUP1 RETURNDATACOPY RETURNDATASIZE PUSH1 0x0 REVERT JUMPDEST POP POP POP POP POP PUSH1 0x40 MLOAD RETURNDATASIZE PUSH1 0x1F NOT PUSH1 0x1F DUP3 ADD AND DUP3 ADD DUP1 PUSH1 0x40 MSTORE POP DUP2 ADD SWAP1 PUSH2 0x2208 SWAP2 SWAP1 PUSH2 0x4294 JUMP JUMPDEST PUSH1 0x9 SLOAD PUSH1 0x8 SLOAD PUSH1 0x40 MLOAD PUSH32 0x95EA7B300000000000000000000000000000000000000000000000000000000 DUP2 MSTORE SWAP3 SWAP6 POP PUSH20 0xFFFFFFFFFFFFFFFFFFFFFFFFFFFFFFFFFFFFFFFF SWAP2 DUP3 AND SWAP5 POP PUSH4 0x95EA7B3 SWAP4 POP PUSH2 0x2269 SWAP3 SWAP2 AND SWAP1 DUP6 SWAP1 PUSH1 0x4 ADD PUSH2 0x442E JUMP JUMPDEST PUSH1 0x20 PUSH1 0x40 MLOAD DUP1 DUP4 SUB DUP2 PUSH1 0x0 DUP8 DUP1 EXTCODESIZE ISZERO DUP1 ISZERO PUSH2 0x2283 JUMPI PUSH1 0x0 DUP1 REVERT JUMPDEST POP GAS CALL ISZERO DUP1 ISZERO PUSH2 0x2297 JUMPI RETURNDATASIZE PUSH1 0x0 DUP1 RETURNDATACOPY RETURNDATASIZE PUSH1 0x0 REVERT JUMPDEST POP POP POP POP PUSH1 0x40 MLOAD RETURNDATASIZE PUSH1 0x1F NOT PUSH1 0x1F DUP3 ADD AND DUP3 ADD DUP1 PUSH1 0x40 MSTORE POP DUP2 ADD SWAP1 PUSH2 0x22BB SWAP2 SWAP1 PUSH2 0x4198 JUMP JUMPDEST POP PUSH1 0x8 SLOAD PUSH1 0xB SLOAD PUSH1 0x40 MLOAD PUSH32 0xE2BBB15800000000000000000000000000000000000000000000000000000000 DUP2 MSTORE PUSH20 0xFFFFFFFFFFFFFFFFFFFFFFFFFFFFFFFFFFFFFFFF SWAP1 SWAP3 AND SWAP2 PUSH4 0xE2BBB158 SWAP2 PUSH2 0x2315 SWAP2 DUP6 SWAP1 PUSH1 0x4 ADD PUSH2 0x4932 JUMP JUMPDEST PUSH1 0x0 PUSH1 0x40 MLOAD DUP1 DUP4 SUB DUP2 PUSH1 0x0 DUP8 DUP1 EXTCODESIZE ISZERO DUP1 ISZERO PUSH2 0x232F JUMPI PUSH1 0x0 DUP1 REVERT JUMPDEST POP GAS CALL ISZERO DUP1 ISZERO PUSH2 0x2343 JUMPI RETURNDATASIZE PUSH1 0x0 DUP1 RETURNDATACOPY RETURNDATASIZE PUSH1 0x0 REVERT JUMPDEST POP POP CALLER PUSH1 0x0 SWAP1 DUP2 MSTORE PUSH1 0xD PUSH1 0x20 MSTORE PUSH1 0x40 DUP2 KECCAK256 DUP1 SLOAD DUP6 SWAP5 POP SWAP1 SWAP3 POP PUSH2 0x2367 SWAP1 DUP5 SWAP1 PUSH2 0x4971 JUMP JUMPDEST SWAP1 SWAP2 SSTORE POP PUSH2 0x2376 SWAP1 POP CALLER PUSH2 0x19D2 JUMP JUMPDEST PUSH2 0x2431 JUMPI CALLER PUSH1 0x0 DUP2 DUP2 MSTORE PUSH1 0x12 PUSH1 0x20 MSTORE PUSH1 0x40 DUP1 DUP3 KECCAK256 DUP1 SLOAD PUSH32 0xFFFFFFFFFFFFFFFFFFFFFFFFFFFFFFFFFFFFFFFFFFFFFFFFFFFFFFFFFFFFFF00 AND PUSH1 0x1 SWAP1 DUP2 OR SWAP1 SWAP2 SSTORE PUSH1 0x11 DUP1 SLOAD SWAP2 DUP3 ADD DUP2 SSTORE DUP4 MSTORE PUSH32 0x31ECC21A745E3968A04E9570E4425BC18FA8019C68028196B546D1669C200C68 ADD DUP1 SLOAD PUSH32 0xFFFFFFFFFFFFFFFFFFFFFFFF0000000000000000000000000000000000000000 AND DUP5 OR SWAP1 SSTORE MLOAD PUSH32 0x79229B212FA3EA547FB5E5B66090CF250D442B12A51854A030F3B796D528134E SWAP2 SWAP1 LOG2 JUMPDEST POP PUSH1 0x1 SWAP9 SWAP8 POP POP POP POP POP POP POP POP JUMP JUMPDEST CALLER PUSH1 0x0 SWAP1 DUP2 MSTORE PUSH1 0x10 PUSH1 0x20 MSTORE PUSH1 0x40 SWAP1 KECCAK256 SLOAD PUSH2 0x2486 JUMPI PUSH1 0x40 MLOAD PUSH32 0x8C379A000000000000000000000000000000000000000000000000000000000 DUP2 MSTORE PUSH1 0x4 ADD PUSH2 0xE6D SWAP1 PUSH2 0x4808 JUMP JUMPDEST CALLER PUSH1 0x0 SWAP1 DUP2 MSTORE PUSH1 0x10 PUSH1 0x20 MSTORE PUSH1 0x40 SWAP1 DUP2 SWAP1 KECCAK256 SLOAD PUSH1 0x4 DUP1 SLOAD SWAP3 MLOAD PUSH32 0x70A0823100000000000000000000000000000000000000000000000000000000 DUP2 MSTORE SWAP2 SWAP3 PUSH20 0xFFFFFFFFFFFFFFFFFFFFFFFFFFFFFFFFFFFFFFFF AND SWAP2 PUSH4 0x70A08231 SWAP2 PUSH2 0x24EC SWAP2 ADDRESS SWAP2 ADD PUSH2 0x43B5 JUMP JUMPDEST PUSH1 0x20 PUSH1 0x40 MLOAD DUP1 DUP4 SUB DUP2 DUP7 DUP1 EXTCODESIZE ISZERO DUP1 ISZERO PUSH2 0x2504 JUMPI PUSH1 0x0 DUP1 REVERT JUMPDEST POP GAS STATICCALL ISZERO DUP1 ISZERO PUSH2 0x2518 JUMPI RETURNDATASIZE PUSH1 0x0 DUP1 RETURNDATACOPY RETURNDATASIZE PUSH1 0x0 REVERT JUMPDEST POP POP POP POP PUSH1 0x40 MLOAD RETURNDATASIZE PUSH1 0x1F NOT PUSH1 0x1F DUP3 ADD AND DUP3 ADD DUP1 PUSH1 0x40 MSTORE POP DUP2 ADD SWAP1 PUSH2 0x253C SWAP2 SWAP1 PUSH2 0x421E JUMP JUMPDEST LT ISZERO PUSH2 0x2574 JUMPI PUSH1 0x40 MLOAD PUSH32 0x8C379A000000000000000000000000000000000000000000000000000000000 DUP2 MSTORE PUSH1 0x4 ADD PUSH2 0xE6D SWAP1 PUSH2 0x454E JUMP JUMPDEST PUSH1 0x4 DUP1 SLOAD CALLER PUSH1 0x0 DUP2 DUP2 MSTORE PUSH1 0x10 PUSH1 0x20 MSTORE PUSH1 0x40 SWAP1 DUP2 SWAP1 KECCAK256 SLOAD SWAP1 MLOAD PUSH32 0xA9059CBB00000000000000000000000000000000000000000000000000000000 DUP2 MSTORE PUSH20 0xFFFFFFFFFFFFFFFFFFFFFFFFFFFFFFFFFFFFFFFF SWAP1 SWAP4 AND SWAP4 PUSH4 0xA9059CBB SWAP4 PUSH2 0x25DA SWAP4 SWAP3 SWAP2 ADD PUSH2 0x442E JUMP JUMPDEST PUSH1 0x20 PUSH1 0x40 MLOAD DUP1 DUP4 SUB DUP2 PUSH1 0x0 DUP8 DUP1 EXTCODESIZE ISZERO DUP1 ISZERO PUSH2 0x25F4 JUMPI PUSH1 0x0 DUP1 REVERT JUMPDEST POP GAS CALL ISZERO DUP1 ISZERO PUSH2 0x2608 JUMPI RETURNDATASIZE PUSH1 0x0 DUP1 RETURNDATACOPY RETURNDATASIZE PUSH1 0x0 REVERT JUMPDEST POP POP POP POP PUSH1 0x40 MLOAD RETURNDATASIZE PUSH1 0x1F NOT PUSH1 0x1F DUP3 ADD AND DUP3 ADD DUP1 PUSH1 0x40 MSTORE POP DUP2 ADD SWAP1 PUSH2 0x262C SWAP2 SWAP1 PUSH2 0x4198 JUMP JUMPDEST POP CALLER PUSH1 0x0 SWAP1 DUP2 MSTORE PUSH1 0x10 PUSH1 0x20 MSTORE PUSH1 0x40 DUP2 KECCAK256 SLOAD PUSH1 0x17 DUP1 SLOAD SWAP2 SWAP3 SWAP1 SWAP2 PUSH2 0x2650 SWAP1 DUP5 SWAP1 PUSH2 0x49DA JUMP JUMPDEST SWAP1 SWAP2 SSTORE POP POP CALLER PUSH1 0x0 SWAP1 DUP2 MSTORE PUSH1 0x10 PUSH1 0x20 MSTORE PUSH1 0x40 DUP2 KECCAK256 SSTORE JUMP JUMPDEST PUSH2 0x266F PUSH2 0x3B16 JUMP JUMPDEST PUSH1 0x13 SSTORE JUMP JUMPDEST PUSH1 0xF PUSH1 0x20 MSTORE PUSH1 0x0 SWAP1 DUP2 MSTORE PUSH1 0x40 SWAP1 KECCAK256 SLOAD DUP2 JUMP JUMPDEST CALLER PUSH1 0x0 SWAP1 DUP2 MSTORE PUSH1 0xF PUSH1 0x20 SWAP1 DUP2 MSTORE PUSH1 0x40 DUP1 DUP4 KECCAK256 DUP1 SLOAD SWAP1 DUP5 SWAP1 SSTORE PUSH1 0xD SWAP1 SWAP3 MSTORE DUP3 KECCAK256 DUP1 SLOAD SWAP2 SWAP3 DUP4 SWAP3 PUSH2 0x26B6 SWAP1 DUP5 SWAP1 PUSH2 0x4971 JUMP JUMPDEST SWAP1 SWAP2 SSTORE POP POP POP JUMP JUMPDEST PUSH1 0x4 DUP1 SLOAD PUSH32 0xFFFFFFFFFFFFFFFFFFFFFFFF0000000000000000000000000000000000000000 SWAP1 DUP2 AND PUSH20 0xFFFFFFFFFFFFFFFFFFFFFFFFFFFFFFFFFFFFFFFF SWAP9 DUP10 AND OR SWAP1 SWAP2 SSTORE PUSH1 0x5 DUP1 SLOAD DUP3 AND SWAP7 DUP9 AND SWAP7 SWAP1 SWAP7 OR SWAP1 SWAP6 SSTORE PUSH1 0x7 DUP1 SLOAD DUP7 AND SWAP4 DUP8 AND SWAP4 SWAP1 SWAP4 OR SWAP1 SWAP3 SSTORE PUSH1 0x8 DUP1 SLOAD DUP6 AND SWAP2 DUP7 AND SWAP2 SWAP1 SWAP2 OR SWAP1 SSTORE PUSH1 0x9 DUP1 SLOAD DUP5 AND SWAP2 DUP6 AND SWAP2 SWAP1 SWAP2 OR SWAP1 SSTORE PUSH1 0x6 DUP1 SLOAD SWAP1 SWAP3 AND SWAP3 AND SWAP2 SWAP1 SWAP2 OR SWAP1 SSTORE JUMP JUMPDEST PUSH1 0x2 SLOAD DUP2 JUMP JUMPDEST PUSH1 0x12 PUSH1 0x20 MSTORE PUSH1 0x0 SWAP1 DUP2 MSTORE PUSH1 0x40 SWAP1 KECCAK256 SLOAD PUSH1 0xFF AND DUP2 JUMP JUMPDEST PUSH2 0x2774 PUSH2 0x3B16 JUMP JUMPDEST PUSH1 0x4 DUP1 SLOAD PUSH32 0xFFFFFFFFFFFFFFFFFFFFFFFF0000000000000000000000000000000000000000 AND PUSH20 0xFFFFFFFFFFFFFFFFFFFFFFFFFFFFFFFFFFFFFFFF SWAP3 SWAP1 SWAP3 AND SWAP2 SWAP1 SWAP2 OR SWAP1 SSTORE JUMP JUMPDEST PUSH2 0x27C3 PUSH2 0x3B16 JUMP JUMPDEST PUSH1 0x6 DUP1 SLOAD PUSH32 0xFFFFFFFFFFFFFFFFFFFFFFFF0000000000000000000000000000000000000000 AND PUSH20 0xFFFFFFFFFFFFFFFFFFFFFFFFFFFFFFFFFFFFFFFF SWAP3 SWAP1 SWAP3 AND SWAP2 SWAP1 SWAP2 OR SWAP1 SSTORE JUMP JUMPDEST PUSH2 0x2812 PUSH2 0x3B16 JUMP JUMPDEST PUSH1 0x7 DUP1 SLOAD PUSH32 0xFFFFFFFFFFFFFFFFFFFFFFFF0000000000000000000000000000000000000000 AND PUSH20 0xFFFFFFFFFFFFFFFFFFFFFFFFFFFFFFFFFFFFFFFF SWAP3 SWAP1 SWAP3 AND SWAP2 SWAP1 SWAP2 OR SWAP1 SSTORE JUMP JUMPDEST PUSH2 0x2861 PUSH2 0x3B16 JUMP JUMPDEST PUSH20 0xFFFFFFFFFFFFFFFFFFFFFFFFFFFFFFFFFFFFFFFF DUP2 AND PUSH2 0x28AE JUMPI PUSH1 0x40 MLOAD PUSH32 0x8C379A000000000000000000000000000000000000000000000000000000000 DUP2 MSTORE PUSH1 0x4 ADD PUSH2 0xE6D SWAP1 PUSH2 0x45E2 JUMP JUMPDEST PUSH2 0x28B7 DUP2 PUSH2 0x3DE2 JUMP JUMPDEST POP JUMP JUMPDEST PUSH1 0x13 SLOAD DUP2 JUMP JUMPDEST PUSH1 0x40 DUP1 MLOAD PUSH1 0x2 DUP1 DUP3 MSTORE PUSH1 0x60 DUP1 DUP4 ADD DUP5 MSTORE PUSH1 0x0 SWAP4 SWAP1 SWAP3 SWAP2 SWAP1 PUSH1 0x20 DUP4 ADD SWAP1 DUP1 CALLDATASIZE DUP4 CALLDATACOPY ADD SWAP1 POP POP SWAP1 POP DUP4 DUP2 PUSH1 0x0 DUP2 MLOAD DUP2 LT PUSH2 0x2921 JUMPI PUSH32 0x4E487B7100000000000000000000000000000000000000000000000000000000 PUSH1 0x0 MSTORE PUSH1 0x32 PUSH1 0x4 MSTORE PUSH1 0x24 PUSH1 0x0 REVERT JUMPDEST PUSH1 0x20 MUL PUSH1 0x20 ADD ADD SWAP1 PUSH20 0xFFFFFFFFFFFFFFFFFFFFFFFFFFFFFFFFFFFFFFFF AND SWAP1 DUP2 PUSH20 0xFFFFFFFFFFFFFFFFFFFFFFFFFFFFFFFFFFFFFFFF AND DUP2 MSTORE POP POP DUP3 DUP2 PUSH1 0x1 DUP2 MLOAD DUP2 LT PUSH2 0x2996 JUMPI PUSH32 0x4E487B7100000000000000000000000000000000000000000000000000000000 PUSH1 0x0 MSTORE PUSH1 0x32 PUSH1 0x4 MSTORE PUSH1 0x24 PUSH1 0x0 REVERT JUMPDEST PUSH20 0xFFFFFFFFFFFFFFFFFFFFFFFFFFFFFFFFFFFFFFFF SWAP3 SWAP1 SWAP3 AND PUSH1 0x20 SWAP3 DUP4 MUL SWAP2 SWAP1 SWAP2 ADD SWAP1 SWAP2 ADD MSTORE PUSH1 0x40 DUP1 MLOAD PUSH1 0x2 DUP1 DUP3 MSTORE PUSH1 0x60 DUP3 DUP2 ADD SWAP1 SWAP4 MSTORE DUP2 PUSH1 0x20 ADD PUSH1 0x20 DUP3 MUL DUP1 CALLDATASIZE DUP4 CALLDATACOPY POP POP PUSH1 0x7 SLOAD PUSH1 0x40 MLOAD PUSH32 0xD06CA61F00000000000000000000000000000000000000000000000000000000 DUP2 MSTORE SWAP3 SWAP4 POP PUSH20 0xFFFFFFFFFFFFFFFFFFFFFFFFFFFFFFFFFFFFFFFF AND SWAP2 PUSH4 0xD06CA61F SWAP2 POP PUSH2 0x2A35 SWAP1 DUP10 SWAP1 DUP7 SWAP1 PUSH1 0x4 ADD PUSH2 0x4911 JUMP JUMPDEST PUSH1 0x0 PUSH1 0x40 MLOAD DUP1 DUP4 SUB DUP2 DUP7 DUP1 EXTCODESIZE ISZERO DUP1 ISZERO PUSH2 0x2A4D JUMPI PUSH1 0x0 DUP1 REVERT JUMPDEST POP GAS STATICCALL ISZERO DUP1 ISZERO PUSH2 0x2A61 JUMPI RETURNDATASIZE PUSH1 0x0 DUP1 RETURNDATACOPY RETURNDATASIZE PUSH1 0x0 REVERT JUMPDEST POP POP POP POP PUSH1 0x40 MLOAD RETURNDATASIZE PUSH1 0x0 DUP3 RETURNDATACOPY PUSH1 0x1F RETURNDATASIZE SWAP1 DUP2 ADD PUSH32 0xFFFFFFFFFFFFFFFFFFFFFFFFFFFFFFFFFFFFFFFFFFFFFFFFFFFFFFFFFFFFFFE0 AND DUP3 ADD PUSH1 0x40 MSTORE PUSH2 0x2AA7 SWAP2 SWAP1 DUP2 ADD SWAP1 PUSH2 0x40DE JUMP JUMPDEST SWAP1 POP PUSH2 0x2B2B PUSH1 0x40 MLOAD DUP1 PUSH1 0x40 ADD PUSH1 0x40 MSTORE DUP1 PUSH1 0x6 DUP2 MSTORE PUSH1 0x20 ADD PUSH32 0x72617465203A0000000000000000000000000000000000000000000000000000 DUP2 MSTORE POP DUP7 DUP7 DUP5 PUSH1 0x1 DUP2 MLOAD DUP2 LT PUSH2 0x2B1E JUMPI PUSH32 0x4E487B7100000000000000000000000000000000000000000000000000000000 PUSH1 0x0 MSTORE PUSH1 0x32 PUSH1 0x4 MSTORE PUSH1 0x24 PUSH1 0x0 REVERT JUMPDEST PUSH1 0x20 MUL PUSH1 0x20 ADD ADD MLOAD PUSH2 0x3EEE JUMP JUMPDEST DUP1 PUSH1 0x1 DUP2 MLOAD DUP2 LT PUSH2 0x2B65 JUMPI PUSH32 0x4E487B7100000000000000000000000000000000000000000000000000000000 PUSH1 0x0 MSTORE PUSH1 0x32 PUSH1 0x4 MSTORE PUSH1 0x24 PUSH1 0x0 REVERT JUMPDEST PUSH1 0x20 MUL PUSH1 0x20 ADD ADD MLOAD SWAP3 POP POP POP SWAP4 SWAP3 POP POP POP JUMP JUMPDEST PUSH2 0x2B80 PUSH2 0x3B16 JUMP JUMPDEST PUSH1 0x9 DUP1 SLOAD PUSH32 0xFFFFFFFFFFFFFFFFFFFFFFFF0000000000000000000000000000000000000000 AND PUSH20 0xFFFFFFFFFFFFFFFFFFFFFFFFFFFFFFFFFFFFFFFF SWAP3 SWAP1 SWAP3 AND SWAP2 SWAP1 SWAP2 OR SWAP1 SSTORE JUMP JUMPDEST PUSH1 0x60 DUP3 DUP3 GT ISZERO PUSH2 0x2C03 JUMPI PUSH1 0x40 MLOAD PUSH32 0x8C379A000000000000000000000000000000000000000000000000000000000 DUP2 MSTORE PUSH1 0x4 ADD PUSH2 0xE6D SWAP1 PUSH2 0x46AD JUMP JUMPDEST PUSH1 0x0 DUP3 PUSH8 0xFFFFFFFFFFFFFFFF DUP2 GT ISZERO PUSH2 0x2C45 JUMPI PUSH32 0x4E487B7100000000000000000000000000000000000000000000000000000000 PUSH1 0x0 MSTORE PUSH1 0x41 PUSH1 0x4 MSTORE PUSH1 0x24 PUSH1 0x0 REVERT JUMPDEST PUSH1 0x40 MLOAD SWAP1 DUP1 DUP3 MSTORE DUP1 PUSH1 0x20 MUL PUSH1 0x20 ADD DUP3 ADD PUSH1 0x40 MSTORE DUP1 ISZERO PUSH2 0x2C6E JUMPI DUP2 PUSH1 0x20 ADD PUSH1 0x20 DUP3 MUL DUP1 CALLDATASIZE DUP4 CALLDATACOPY ADD SWAP1 POP JUMPDEST POP SWAP2 POP JUMPDEST DUP3 DUP2 LT ISZERO PUSH2 0x2D5D JUMPI PUSH1 0x0 PUSH2 0x2C85 DUP6 PUSH2 0x3F83 JUMP JUMPDEST PUSH2 0x2C90 SWAP1 PUSH1 0x1 PUSH2 0x4971 JUMP JUMPDEST SWAP1 POP PUSH1 0x0 DUP1 JUMPDEST DUP6 DUP2 LT ISZERO PUSH2 0x2CFD JUMPI DUP3 DUP6 DUP3 DUP2 MLOAD DUP2 LT PUSH2 0x2CD8 JUMPI PUSH32 0x4E487B7100000000000000000000000000000000000000000000000000000000 PUSH1 0x0 MSTORE PUSH1 0x32 PUSH1 0x4 MSTORE PUSH1 0x24 PUSH1 0x0 REVERT JUMPDEST PUSH1 0x20 MUL PUSH1 0x20 ADD ADD MLOAD EQ ISZERO PUSH2 0x2CEB JUMPI PUSH1 0x1 SWAP2 POP JUMPDEST DUP1 PUSH2 0x2CF5 DUP2 PUSH2 0x4A26 JUMP JUMPDEST SWAP2 POP POP PUSH2 0x2C96 JUMP JUMPDEST POP DUP1 PUSH2 0x2D56 JUMPI DUP2 DUP5 DUP5 DUP2 MLOAD DUP2 LT PUSH2 0x2D3D JUMPI PUSH32 0x4E487B7100000000000000000000000000000000000000000000000000000000 PUSH1 0x0 MSTORE PUSH1 0x32 PUSH1 0x4 MSTORE PUSH1 0x24 PUSH1 0x0 REVERT JUMPDEST PUSH1 0x20 SWAP1 DUP2 MUL SWAP2 SWAP1 SWAP2 ADD ADD MSTORE DUP3 PUSH2 0x2D52 DUP2 PUSH2 0x4A26 JUMP JUMPDEST SWAP4 POP POP JUMPDEST POP POP PUSH2 0x2C72 JUMP JUMPDEST PUSH1 0x0 JUMPDEST DUP4 DUP2 LT ISZERO PUSH2 0x2DCB JUMPI DUP3 DUP2 DUP2 MLOAD DUP2 LT PUSH2 0x2DA1 JUMPI PUSH32 0x4E487B7100000000000000000000000000000000000000000000000000000000 PUSH1 0x0 MSTORE PUSH1 0x32 PUSH1 0x4 MSTORE PUSH1 0x24 PUSH1 0x0 REVERT JUMPDEST PUSH1 0x20 MUL PUSH1 0x20 ADD ADD DUP1 MLOAD DUP1 SWAP2 SWAP1 PUSH2 0x2DB6 SWAP1 PUSH2 0x49F1 JUMP JUMPDEST SWAP1 MSTORE POP DUP1 PUSH2 0x2DC3 DUP2 PUSH2 0x4A26 JUMP JUMPDEST SWAP2 POP POP PUSH2 0x2D60 JUMP JUMPDEST POP POP SWAP3 SWAP2 POP POP JUMP JUMPDEST PUSH1 0xA SLOAD PUSH1 0x40 MLOAD PUSH32 0x3D13738600000000000000000000000000000000000000000000000000000000 DUP2 MSTORE PUSH1 0x0 SWAP2 DUP3 SWAP2 PUSH20 0xFFFFFFFFFFFFFFFFFFFFFFFFFFFFFFFFFFFFFFFF SWAP1 SWAP2 AND SWAP1 PUSH4 0x3D137386 SWAP1 PUSH2 0x2E2E SWAP1 DUP9 SWAP1 PUSH1 0x4 ADD PUSH2 0x43B5 JUMP JUMPDEST PUSH1 0x20 PUSH1 0x40 MLOAD DUP1 DUP4 SUB DUP2 DUP7 DUP1 EXTCODESIZE ISZERO DUP1 ISZERO PUSH2 0x2E46 JUMPI PUSH1 0x0 DUP1 REVERT JUMPDEST POP GAS STATICCALL ISZERO DUP1 ISZERO PUSH2 0x2E5A JUMPI RETURNDATASIZE PUSH1 0x0 DUP1 RETURNDATACOPY RETURNDATASIZE PUSH1 0x0 REVERT JUMPDEST POP POP POP POP PUSH1 0x40 MLOAD RETURNDATASIZE PUSH1 0x1F NOT PUSH1 0x1F DUP3 ADD AND DUP3 ADD DUP1 PUSH1 0x40 MSTORE POP DUP2 ADD SWAP1 PUSH2 0x2E7E SWAP2 SWAP1 PUSH2 0x421E JUMP JUMPDEST SWAP1 POP PUSH1 0x0 PUSH2 0x2E8D PUSH1 0x64 DUP6 PUSH2 0x4989 JUMP JUMPDEST PUSH1 0x64 PUSH2 0x2E99 DUP5 DUP9 PUSH2 0x499D JUMP JUMPDEST PUSH2 0x2EA3 SWAP2 SWAP1 PUSH2 0x4989 JUMP JUMPDEST PUSH2 0x2EAD SWAP2 SWAP1 PUSH2 0x499D JUMP JUMPDEST PUSH1 0xA SLOAD PUSH1 0x40 MLOAD PUSH32 0x9108066800000000000000000000000000000000000000000000000000000000 DUP2 MSTORE SWAP2 SWAP3 POP PUSH20 0xFFFFFFFFFFFFFFFFFFFFFFFFFFFFFFFFFFFFFFFF AND SWAP1 PUSH4 0x91080668 SWAP1 PUSH2 0x2F06 SWAP1 DUP10 SWAP1 DUP6 SWAP1 PUSH1 0x4 ADD PUSH2 0x442E JUMP JUMPDEST PUSH1 0x0 PUSH1 0x40 MLOAD DUP1 DUP4 SUB DUP2 PUSH1 0x0 DUP8 DUP1 EXTCODESIZE ISZERO DUP1 ISZERO PUSH2 0x2F20 JUMPI PUSH1 0x0 DUP1 REVERT JUMPDEST POP GAS CALL ISZERO DUP1 ISZERO PUSH2 0x2F34 JUMPI RETURNDATASIZE PUSH1 0x0 DUP1 RETURNDATACOPY RETURNDATASIZE PUSH1 0x0 REVERT JUMPDEST POP SWAP3 SWAP9 SWAP8 POP POP POP POP POP POP POP POP JUMP JUMPDEST PUSH1 0x0 JUMPDEST PUSH1 0x11 SLOAD DUP2 LT ISZERO PUSH2 0x28B7 JUMPI PUSH1 0x0 PUSH1 0xD PUSH1 0x0 PUSH1 0x11 DUP5 DUP2 SLOAD DUP2 LT PUSH2 0x2F8F JUMPI PUSH32 0x4E487B7100000000000000000000000000000000000000000000000000000000 PUSH1 0x0 MSTORE PUSH1 0x32 PUSH1 0x4 MSTORE PUSH1 0x24 PUSH1 0x0 REVERT JUMPDEST PUSH1 0x0 SWAP2 DUP3 MSTORE PUSH1 0x20 DUP1 DUP4 KECCAK256 SWAP1 SWAP2 ADD SLOAD PUSH20 0xFFFFFFFFFFFFFFFFFFFFFFFFFFFFFFFFFFFFFFFF AND DUP4 MSTORE DUP3 ADD SWAP3 SWAP1 SWAP3 MSTORE PUSH1 0x40 ADD SWAP1 KECCAK256 SLOAD GT ISZERO PUSH2 0x3164 JUMPI PUSH1 0xD PUSH1 0x0 PUSH1 0x11 DUP4 DUP2 SLOAD DUP2 LT PUSH2 0x3005 JUMPI PUSH32 0x4E487B7100000000000000000000000000000000000000000000000000000000 PUSH1 0x0 MSTORE PUSH1 0x32 PUSH1 0x4 MSTORE PUSH1 0x24 PUSH1 0x0 REVERT JUMPDEST SWAP1 PUSH1 0x0 MSTORE PUSH1 0x20 PUSH1 0x0 KECCAK256 ADD PUSH1 0x0 SWAP1 SLOAD SWAP1 PUSH2 0x100 EXP SWAP1 DIV PUSH20 0xFFFFFFFFFFFFFFFFFFFFFFFFFFFFFFFFFFFFFFFF AND PUSH20 0xFFFFFFFFFFFFFFFFFFFFFFFFFFFFFFFFFFFFFFFF AND PUSH20 0xFFFFFFFFFFFFFFFFFFFFFFFFFFFFFFFFFFFFFFFF AND DUP2 MSTORE PUSH1 0x20 ADD SWAP1 DUP2 MSTORE PUSH1 0x20 ADD PUSH1 0x0 KECCAK256 SLOAD PUSH1 0xE PUSH1 0x0 PUSH1 0x11 DUP5 DUP2 SLOAD DUP2 LT PUSH2 0x30A9 JUMPI PUSH32 0x4E487B7100000000000000000000000000000000000000000000000000000000 PUSH1 0x0 MSTORE PUSH1 0x32 PUSH1 0x4 MSTORE PUSH1 0x24 PUSH1 0x0 REVERT JUMPDEST PUSH1 0x0 SWAP2 DUP3 MSTORE PUSH1 0x20 DUP1 DUP4 KECCAK256 SWAP1 SWAP2 ADD SLOAD PUSH20 0xFFFFFFFFFFFFFFFFFFFFFFFFFFFFFFFFFFFFFFFF AND DUP4 MSTORE DUP3 ADD SWAP3 SWAP1 SWAP3 MSTORE PUSH1 0x40 ADD DUP2 KECCAK256 DUP1 SLOAD SWAP1 SWAP2 SWAP1 PUSH2 0x30EA SWAP1 DUP5 SWAP1 PUSH2 0x4971 JUMP JUMPDEST SWAP3 POP POP DUP2 SWAP1 SSTORE POP PUSH1 0x0 PUSH1 0xD PUSH1 0x0 PUSH1 0x11 DUP5 DUP2 SLOAD DUP2 LT PUSH2 0x3131 JUMPI PUSH32 0x4E487B7100000000000000000000000000000000000000000000000000000000 PUSH1 0x0 MSTORE PUSH1 0x32 PUSH1 0x4 MSTORE PUSH1 0x24 PUSH1 0x0 REVERT JUMPDEST PUSH1 0x0 SWAP2 DUP3 MSTORE PUSH1 0x20 DUP1 DUP4 KECCAK256 SWAP1 SWAP2 ADD SLOAD PUSH20 0xFFFFFFFFFFFFFFFFFFFFFFFFFFFFFFFFFFFFFFFF AND DUP4 MSTORE DUP3 ADD SWAP3 SWAP1 SWAP3 MSTORE PUSH1 0x40 ADD SWAP1 KECCAK256 SSTORE JUMPDEST PUSH1 0x0 PUSH1 0xF PUSH1 0x0 PUSH1 0x11 DUP5 DUP2 SLOAD DUP2 LT PUSH2 0x31A4 JUMPI PUSH32 0x4E487B7100000000000000000000000000000000000000000000000000000000 PUSH1 0x0 MSTORE PUSH1 0x32 PUSH1 0x4 MSTORE PUSH1 0x24 PUSH1 0x0 REVERT JUMPDEST PUSH1 0x0 SWAP2 DUP3 MSTORE PUSH1 0x20 DUP1 DUP4 KECCAK256 SWAP1 SWAP2 ADD SLOAD PUSH20 0xFFFFFFFFFFFFFFFFFFFFFFFFFFFFFFFFFFFFFFFF AND DUP4 MSTORE DUP3 ADD SWAP3 SWAP1 SWAP3 MSTORE PUSH1 0x40 ADD SWAP1 KECCAK256 SLOAD GT ISZERO PUSH2 0x3B04 JUMPI PUSH1 0xE PUSH1 0x0 PUSH1 0x11 DUP4 DUP2 SLOAD DUP2 LT PUSH2 0x321A JUMPI PUSH32 0x4E487B7100000000000000000000000000000000000000000000000000000000 PUSH1 0x0 MSTORE PUSH1 0x32 PUSH1 0x4 MSTORE PUSH1 0x24 PUSH1 0x0 REVERT JUMPDEST SWAP1 PUSH1 0x0 MSTORE PUSH1 0x20 PUSH1 0x0 KECCAK256 ADD PUSH1 0x0 SWAP1 SLOAD SWAP1 PUSH2 0x100 EXP SWAP1 DIV PUSH20 0xFFFFFFFFFFFFFFFFFFFFFFFFFFFFFFFFFFFFFFFF AND PUSH20 0xFFFFFFFFFFFFFFFFFFFFFFFFFFFFFFFFFFFFFFFF AND PUSH20 0xFFFFFFFFFFFFFFFFFFFFFFFFFFFFFFFFFFFFFFFF AND DUP2 MSTORE PUSH1 0x20 ADD SWAP1 DUP2 MSTORE PUSH1 0x20 ADD PUSH1 0x0 KECCAK256 SLOAD PUSH1 0xF PUSH1 0x0 PUSH1 0x11 DUP5 DUP2 SLOAD DUP2 LT PUSH2 0x32BE JUMPI PUSH32 0x4E487B7100000000000000000000000000000000000000000000000000000000 PUSH1 0x0 MSTORE PUSH1 0x32 PUSH1 0x4 MSTORE PUSH1 0x24 PUSH1 0x0 REVERT JUMPDEST PUSH1 0x0 SWAP2 DUP3 MSTORE PUSH1 0x20 DUP1 DUP4 KECCAK256 SWAP1 SWAP2 ADD SLOAD PUSH20 0xFFFFFFFFFFFFFFFFFFFFFFFFFFFFFFFFFFFFFFFF AND DUP4 MSTORE DUP3 ADD SWAP3 SWAP1 SWAP3 MSTORE PUSH1 0x40 ADD SWAP1 KECCAK256 SLOAD GT PUSH2 0x3B04 JUMPI PUSH1 0xF PUSH1 0x0 PUSH1 0x11 DUP4 DUP2 SLOAD DUP2 LT PUSH2 0x3333 JUMPI PUSH32 0x4E487B7100000000000000000000000000000000000000000000000000000000 PUSH1 0x0 MSTORE PUSH1 0x32 PUSH1 0x4 MSTORE PUSH1 0x24 PUSH1 0x0 REVERT JUMPDEST SWAP1 PUSH1 0x0 MSTORE PUSH1 0x20 PUSH1 0x0 KECCAK256 ADD PUSH1 0x0 SWAP1 SLOAD SWAP1 PUSH2 0x100 EXP SWAP1 DIV PUSH20 0xFFFFFFFFFFFFFFFFFFFFFFFFFFFFFFFFFFFFFFFF AND PUSH20 0xFFFFFFFFFFFFFFFFFFFFFFFFFFFFFFFFFFFFFFFF AND PUSH20 0xFFFFFFFFFFFFFFFFFFFFFFFFFFFFFFFFFFFFFFFF AND DUP2 MSTORE PUSH1 0x20 ADD SWAP1 DUP2 MSTORE PUSH1 0x20 ADD PUSH1 0x0 KECCAK256 SLOAD PUSH1 0xE PUSH1 0x0 PUSH1 0x11 DUP5 DUP2 SLOAD DUP2 LT PUSH2 0x33D7 JUMPI PUSH32 0x4E487B7100000000000000000000000000000000000000000000000000000000 PUSH1 0x0 MSTORE PUSH1 0x32 PUSH1 0x4 MSTORE PUSH1 0x24 PUSH1 0x0 REVERT JUMPDEST PUSH1 0x0 SWAP2 DUP3 MSTORE PUSH1 0x20 DUP1 DUP4 KECCAK256 SWAP1 SWAP2 ADD SLOAD PUSH20 0xFFFFFFFFFFFFFFFFFFFFFFFFFFFFFFFFFFFFFFFF AND DUP4 MSTORE DUP3 ADD SWAP3 SWAP1 SWAP3 MSTORE PUSH1 0x40 ADD DUP2 KECCAK256 DUP1 SLOAD SWAP1 SWAP2 SWAP1 PUSH2 0x3418 SWAP1 DUP5 SWAP1 PUSH2 0x49DA JUMP JUMPDEST SWAP1 SWAP2 SSTORE POP POP PUSH1 0x8 SLOAD PUSH1 0xB SLOAD PUSH1 0x11 DUP1 SLOAD PUSH20 0xFFFFFFFFFFFFFFFFFFFFFFFFFFFFFFFFFFFFFFFF SWAP1 SWAP4 AND SWAP3 PUSH4 0x441A3E70 SWAP3 SWAP2 PUSH1 0xF SWAP2 PUSH1 0x0 SWAP2 SWAP1 DUP8 SWAP1 DUP2 LT PUSH2 0x3485 JUMPI PUSH32 0x4E487B7100000000000000000000000000000000000000000000000000000000 PUSH1 0x0 MSTORE PUSH1 0x32 PUSH1 0x4 MSTORE PUSH1 0x24 PUSH1 0x0 REVERT JUMPDEST PUSH1 0x0 SWAP2 DUP3 MSTORE PUSH1 0x20 DUP1 DUP4 KECCAK256 SWAP1 SWAP2 ADD SLOAD PUSH20 0xFFFFFFFFFFFFFFFFFFFFFFFFFFFFFFFFFFFFFFFF AND DUP4 MSTORE DUP3 ADD SWAP3 SWAP1 SWAP3 MSTORE PUSH1 0x40 SWAP1 DUP2 ADD SWAP1 SWAP2 KECCAK256 SLOAD SWAP1 MLOAD PUSH32 0xFFFFFFFF00000000000000000000000000000000000000000000000000000000 PUSH1 0xE0 DUP6 SWAP1 SHL AND DUP2 MSTORE PUSH2 0x34F3 SWAP3 SWAP2 SWAP1 PUSH1 0x4 ADD PUSH2 0x4932 JUMP JUMPDEST PUSH1 0x0 PUSH1 0x40 MLOAD DUP1 DUP4 SUB DUP2 PUSH1 0x0 DUP8 DUP1 EXTCODESIZE ISZERO DUP1 ISZERO PUSH2 0x350D JUMPI PUSH1 0x0 DUP1 REVERT JUMPDEST POP GAS CALL ISZERO DUP1 ISZERO PUSH2 0x3521 JUMPI RETURNDATASIZE PUSH1 0x0 DUP1 RETURNDATACOPY RETURNDATASIZE PUSH1 0x0 REVERT JUMPDEST POP POP PUSH1 0x9 SLOAD PUSH1 0x7 SLOAD PUSH1 0x11 DUP1 SLOAD PUSH20 0xFFFFFFFFFFFFFFFFFFFFFFFFFFFFFFFFFFFFFFFF SWAP4 DUP5 AND SWAP6 POP PUSH4 0x95EA7B3 SWAP5 POP SWAP3 SWAP1 SWAP2 AND SWAP2 PUSH1 0xF SWAP2 PUSH1 0x0 SWAP2 DUP8 SWAP1 DUP2 LT PUSH2 0x3590 JUMPI PUSH32 0x4E487B7100000000000000000000000000000000000000000000000000000000 PUSH1 0x0 MSTORE PUSH1 0x32 PUSH1 0x4 MSTORE PUSH1 0x24 PUSH1 0x0 REVERT JUMPDEST PUSH1 0x0 SWAP2 DUP3 MSTORE PUSH1 0x20 DUP1 DUP4 KECCAK256 SWAP1 SWAP2 ADD SLOAD PUSH20 0xFFFFFFFFFFFFFFFFFFFFFFFFFFFFFFFFFFFFFFFF AND DUP4 MSTORE DUP3 ADD SWAP3 SWAP1 SWAP3 MSTORE PUSH1 0x40 SWAP1 DUP2 ADD SWAP1 SWAP2 KECCAK256 SLOAD SWAP1 MLOAD PUSH32 0xFFFFFFFF00000000000000000000000000000000000000000000000000000000 PUSH1 0xE0 DUP6 SWAP1 SHL AND DUP2 MSTORE PUSH2 0x35FE SWAP3 SWAP2 SWAP1 PUSH1 0x4 ADD PUSH2 0x442E JUMP JUMPDEST PUSH1 0x20 PUSH1 0x40 MLOAD DUP1 DUP4 SUB DUP2 PUSH1 0x0 DUP8 DUP1 EXTCODESIZE ISZERO DUP1 ISZERO PUSH2 0x3618 JUMPI PUSH1 0x0 DUP1 REVERT JUMPDEST POP GAS CALL ISZERO DUP1 ISZERO PUSH2 0x362C JUMPI RETURNDATASIZE PUSH1 0x0 DUP1 RETURNDATACOPY RETURNDATASIZE PUSH1 0x0 REVERT JUMPDEST POP POP POP POP PUSH1 0x40 MLOAD RETURNDATASIZE PUSH1 0x1F NOT PUSH1 0x1F DUP3 ADD AND DUP3 ADD DUP1 PUSH1 0x40 MSTORE POP DUP2 ADD SWAP1 PUSH2 0x3650 SWAP2 SWAP1 PUSH2 0x4198 JUMP JUMPDEST POP PUSH1 0x0 DUP1 PUSH2 0x365C PUSH2 0x1076 JUMP JUMPDEST PUSH1 0x7 SLOAD PUSH1 0x4 SLOAD PUSH1 0x11 DUP1 SLOAD SWAP5 SWAP7 POP SWAP3 SWAP5 POP PUSH1 0x0 SWAP4 DUP5 SWAP4 PUSH20 0xFFFFFFFFFFFFFFFFFFFFFFFFFFFFFFFFFFFFFFFF SWAP4 DUP5 AND SWAP4 PUSH4 0x2751CEC SWAP4 AND SWAP2 PUSH1 0xF SWAP2 DUP7 SWAP2 DUP12 SWAP1 DUP2 LT PUSH2 0x36CE JUMPI PUSH32 0x4E487B7100000000000000000000000000000000000000000000000000000000 PUSH1 0x0 MSTORE PUSH1 0x32 PUSH1 0x4 MSTORE PUSH1 0x24 PUSH1 0x0 REVERT JUMPDEST SWAP1 PUSH1 0x0 MSTORE PUSH1 0x20 PUSH1 0x0 KECCAK256 ADD PUSH1 0x0 SWAP1 SLOAD SWAP1 PUSH2 0x100 EXP SWAP1 DIV PUSH20 0xFFFFFFFFFFFFFFFFFFFFFFFFFFFFFFFFFFFFFFFF AND PUSH20 0xFFFFFFFFFFFFFFFFFFFFFFFFFFFFFFFFFFFFFFFF AND PUSH20 0xFFFFFFFFFFFFFFFFFFFFFFFFFFFFFFFFFFFFFFFF AND DUP2 MSTORE PUSH1 0x20 ADD SWAP1 DUP2 MSTORE PUSH1 0x20 ADD PUSH1 0x0 KECCAK256 SLOAD PUSH1 0x3 SLOAD PUSH2 0x2710 PUSH1 0xF PUSH1 0x0 PUSH1 0x11 DUP14 DUP2 SLOAD DUP2 LT PUSH2 0x3778 JUMPI PUSH32 0x4E487B7100000000000000000000000000000000000000000000000000000000 PUSH1 0x0 MSTORE PUSH1 0x32 PUSH1 0x4 MSTORE PUSH1 0x24 PUSH1 0x0 REVERT JUMPDEST PUSH1 0x0 SWAP2 DUP3 MSTORE PUSH1 0x20 DUP1 DUP4 KECCAK256 SWAP1 SWAP2 ADD SLOAD PUSH20 0xFFFFFFFFFFFFFFFFFFFFFFFFFFFFFFFFFFFFFFFF AND DUP4 MSTORE DUP3 ADD SWAP3 SWAP1 SWAP3 MSTORE PUSH1 0x40 ADD SWAP1 KECCAK256 SLOAD PUSH2 0x37B4 SWAP1 DUP12 PUSH2 0x499D JUMP JUMPDEST PUSH2 0x37BE SWAP2 SWAP1 PUSH2 0x4989 JUMP JUMPDEST PUSH2 0x37CA SWAP1 PUSH2 0x26AC PUSH2 0x499D JUMP JUMPDEST PUSH2 0x37D4 SWAP2 SWAP1 PUSH2 0x4989 JUMP JUMPDEST PUSH1 0x3 SLOAD PUSH2 0x2710 PUSH1 0xF PUSH1 0x0 PUSH1 0x11 DUP15 DUP2 SLOAD DUP2 LT PUSH2 0x3818 JUMPI PUSH32 0x4E487B7100000000000000000000000000000000000000000000000000000000 PUSH1 0x0 MSTORE PUSH1 0x32 PUSH1 0x4 MSTORE PUSH1 0x24 PUSH1 0x0 REVERT JUMPDEST PUSH1 0x0 SWAP2 DUP3 MSTORE PUSH1 0x20 DUP1 DUP4 KECCAK256 SWAP1 SWAP2 ADD SLOAD PUSH20 0xFFFFFFFFFFFFFFFFFFFFFFFFFFFFFFFFFFFFFFFF AND DUP4 MSTORE DUP3 ADD SWAP3 SWAP1 SWAP3 MSTORE PUSH1 0x40 ADD SWAP1 KECCAK256 SLOAD PUSH2 0x3854 SWAP1 DUP12 PUSH2 0x499D JUMP JUMPDEST PUSH2 0x385E SWAP2 SWAP1 PUSH2 0x4989 JUMP JUMPDEST PUSH2 0x386A SWAP1 PUSH2 0x26AC PUSH2 0x499D JUMP JUMPDEST PUSH2 0x3874 SWAP2 SWAP1 PUSH2 0x4989 JUMP JUMPDEST ADDRESS PUSH2 0x3881 TIMESTAMP PUSH2 0x4B0 PUSH2 0x4971 JUMP JUMPDEST PUSH1 0x40 MLOAD DUP8 PUSH4 0xFFFFFFFF AND PUSH1 0xE0 SHL DUP2 MSTORE PUSH1 0x4 ADD PUSH2 0x38A2 SWAP7 SWAP6 SWAP5 SWAP4 SWAP3 SWAP2 SWAP1 PUSH2 0x4454 JUMP JUMPDEST PUSH1 0x40 DUP1 MLOAD DUP1 DUP4 SUB DUP2 PUSH1 0x0 DUP8 DUP1 EXTCODESIZE ISZERO DUP1 ISZERO PUSH2 0x38BB JUMPI PUSH1 0x0 DUP1 REVERT JUMPDEST POP GAS CALL ISZERO DUP1 ISZERO PUSH2 0x38CF JUMPI RETURNDATASIZE PUSH1 0x0 DUP1 RETURNDATACOPY RETURNDATASIZE PUSH1 0x0 REVERT JUMPDEST POP POP POP POP PUSH1 0x40 MLOAD RETURNDATASIZE PUSH1 0x1F NOT PUSH1 0x1F DUP3 ADD AND DUP3 ADD DUP1 PUSH1 0x40 MSTORE POP DUP2 ADD SWAP1 PUSH2 0x38F3 SWAP2 SWAP1 PUSH2 0x4271 JUMP JUMPDEST PUSH1 0x4 SLOAD PUSH1 0x11 DUP1 SLOAD SWAP4 SWAP6 POP SWAP2 SWAP4 POP PUSH20 0xFFFFFFFFFFFFFFFFFFFFFFFFFFFFFFFFFFFFFFFF AND SWAP2 PUSH4 0xA9059CBB SWAP2 SWAP1 DUP9 SWAP1 DUP2 LT PUSH2 0x3955 JUMPI PUSH32 0x4E487B7100000000000000000000000000000000000000000000000000000000 PUSH1 0x0 MSTORE PUSH1 0x32 PUSH1 0x4 MSTORE PUSH1 0x24 PUSH1 0x0 REVERT JUMPDEST PUSH1 0x0 SWAP2 DUP3 MSTORE PUSH1 0x20 SWAP1 SWAP2 KECCAK256 ADD SLOAD PUSH1 0x40 MLOAD PUSH32 0xFFFFFFFF00000000000000000000000000000000000000000000000000000000 PUSH1 0xE0 DUP5 SWAP1 SHL AND DUP2 MSTORE PUSH2 0x39B2 SWAP2 PUSH20 0xFFFFFFFFFFFFFFFFFFFFFFFFFFFFFFFFFFFFFFFF AND SWAP1 DUP7 SWAP1 PUSH1 0x4 ADD PUSH2 0x442E JUMP JUMPDEST PUSH1 0x20 PUSH1 0x40 MLOAD DUP1 DUP4 SUB DUP2 PUSH1 0x0 DUP8 DUP1 EXTCODESIZE ISZERO DUP1 ISZERO PUSH2 0x39CC JUMPI PUSH1 0x0 DUP1 REVERT JUMPDEST POP GAS CALL ISZERO DUP1 ISZERO PUSH2 0x39E0 JUMPI RETURNDATASIZE PUSH1 0x0 DUP1 RETURNDATACOPY RETURNDATASIZE PUSH1 0x0 REVERT JUMPDEST POP POP POP POP PUSH1 0x40 MLOAD RETURNDATASIZE PUSH1 0x1F NOT PUSH1 0x1F DUP3 ADD AND DUP3 ADD DUP1 PUSH1 0x40 MSTORE POP DUP2 ADD SWAP1 PUSH2 0x3A04 SWAP2 SWAP1 PUSH2 0x4198 JUMP JUMPDEST POP PUSH1 0x11 DUP6 DUP2 SLOAD DUP2 LT PUSH2 0x3A3F JUMPI PUSH32 0x4E487B7100000000000000000000000000000000000000000000000000000000 PUSH1 0x0 MSTORE PUSH1 0x32 PUSH1 0x4 MSTORE PUSH1 0x24 PUSH1 0x0 REVERT JUMPDEST PUSH1 0x0 SWAP2 DUP3 MSTORE PUSH1 0x20 DUP3 KECCAK256 ADD SLOAD PUSH1 0x40 MLOAD PUSH20 0xFFFFFFFFFFFFFFFFFFFFFFFFFFFFFFFFFFFFFFFF SWAP1 SWAP2 AND SWAP2 DUP4 ISZERO PUSH2 0x8FC MUL SWAP2 DUP5 SWAP2 DUP2 DUP2 DUP2 DUP6 DUP9 DUP9 CALL SWAP4 POP POP POP POP ISZERO DUP1 ISZERO PUSH2 0x3A8C JUMPI RETURNDATASIZE PUSH1 0x0 DUP1 RETURNDATACOPY RETURNDATASIZE PUSH1 0x0 REVERT JUMPDEST POP PUSH1 0x0 PUSH1 0xF PUSH1 0x0 PUSH1 0x11 DUP9 DUP2 SLOAD DUP2 LT PUSH2 0x3ACD JUMPI PUSH32 0x4E487B7100000000000000000000000000000000000000000000000000000000 PUSH1 0x0 MSTORE PUSH1 0x32 PUSH1 0x4 MSTORE PUSH1 0x24 PUSH1 0x0 REVERT JUMPDEST PUSH1 0x0 SWAP2 DUP3 MSTORE PUSH1 0x20 DUP1 DUP4 KECCAK256 SWAP1 SWAP2 ADD SLOAD PUSH20 0xFFFFFFFFFFFFFFFFFFFFFFFFFFFFFFFFFFFFFFFF AND DUP4 MSTORE DUP3 ADD SWAP3 SWAP1 SWAP3 MSTORE PUSH1 0x40 ADD SWAP1 KECCAK256 SSTORE POP POP POP POP JUMPDEST DUP1 PUSH2 0x3B0E DUP2 PUSH2 0x4A26 JUMP JUMPDEST SWAP2 POP POP PUSH2 0x2F45 JUMP JUMPDEST PUSH2 0x3B1E PUSH2 0x3F94 JUMP JUMPDEST PUSH20 0xFFFFFFFFFFFFFFFFFFFFFFFFFFFFFFFFFFFFFFFF AND PUSH2 0x3B3C PUSH2 0x19B6 JUMP JUMPDEST PUSH20 0xFFFFFFFFFFFFFFFFFFFFFFFFFFFFFFFFFFFFFFFF AND EQ PUSH2 0x18E7 JUMPI PUSH1 0x40 MLOAD PUSH32 0x8C379A000000000000000000000000000000000000000000000000000000000 DUP2 MSTORE PUSH1 0x4 ADD PUSH2 0xE6D SWAP1 PUSH2 0x47D3 JUMP JUMPDEST PUSH2 0x3C1E DUP5 DUP5 DUP5 DUP5 PUSH1 0x40 MLOAD PUSH1 0x24 ADD PUSH2 0x3BA3 SWAP5 SWAP4 SWAP3 SWAP2 SWAP1 PUSH2 0x451F JUMP JUMPDEST PUSH1 0x40 DUP1 MLOAD PUSH32 0xFFFFFFFFFFFFFFFFFFFFFFFFFFFFFFFFFFFFFFFFFFFFFFFFFFFFFFFFFFFFFFE0 DUP2 DUP5 SUB ADD DUP2 MSTORE SWAP2 SWAP1 MSTORE PUSH1 0x20 DUP2 ADD DUP1 MLOAD PUSH28 0xFFFFFFFFFFFFFFFFFFFFFFFFFFFFFFFFFFFFFFFFFFFFFFFFFFFFFFFF AND PUSH32 0xA7A8785300000000000000000000000000000000000000000000000000000000 OR SWAP1 MSTORE PUSH2 0x3F98 JUMP JUMPDEST POP POP POP POP JUMP JUMPDEST PUSH2 0x3CB5 DUP3 DUP3 PUSH1 0x40 MLOAD PUSH1 0x24 ADD PUSH2 0x3C3A SWAP3 SWAP2 SWAP1 PUSH2 0x4932 JUMP JUMPDEST PUSH1 0x40 DUP1 MLOAD PUSH32 0xFFFFFFFFFFFFFFFFFFFFFFFFFFFFFFFFFFFFFFFFFFFFFFFFFFFFFFFFFFFFFFE0 DUP2 DUP5 SUB ADD DUP2 MSTORE SWAP2 SWAP1 MSTORE PUSH1 0x20 DUP2 ADD DUP1 MLOAD PUSH28 0xFFFFFFFFFFFFFFFFFFFFFFFFFFFFFFFFFFFFFFFFFFFFFFFFFFFFFFFF AND PUSH32 0xF666715A00000000000000000000000000000000000000000000000000000000 OR SWAP1 MSTORE PUSH2 0x3F98 JUMP JUMPDEST POP POP JUMP JUMPDEST PUSH2 0x3CB5 DUP3 DUP3 PUSH1 0x40 MLOAD PUSH1 0x24 ADD PUSH2 0x3CCF SWAP3 SWAP2 SWAP1 PUSH2 0x450C JUMP JUMPDEST PUSH1 0x40 DUP1 MLOAD PUSH32 0xFFFFFFFFFFFFFFFFFFFFFFFFFFFFFFFFFFFFFFFFFFFFFFFFFFFFFFFFFFFFFFE0 DUP2 DUP5 SUB ADD DUP2 MSTORE SWAP2 SWAP1 MSTORE PUSH1 0x20 DUP2 ADD DUP1 MLOAD PUSH28 0xFFFFFFFFFFFFFFFFFFFFFFFFFFFFFFFFFFFFFFFFFFFFFFFFFFFFFFFF AND PUSH32 0xB60E72CC00000000000000000000000000000000000000000000000000000000 OR SWAP1 MSTORE PUSH2 0x3F98 JUMP JUMPDEST PUSH2 0x3DDD DUP4 DUP4 DUP4 PUSH1 0x40 MLOAD PUSH1 0x24 ADD PUSH2 0x3D62 SWAP4 SWAP3 SWAP2 SWAP1 PUSH2 0x4940 JUMP JUMPDEST PUSH1 0x40 DUP1 MLOAD PUSH32 0xFFFFFFFFFFFFFFFFFFFFFFFFFFFFFFFFFFFFFFFFFFFFFFFFFFFFFFFFFFFFFFE0 DUP2 DUP5 SUB ADD DUP2 MSTORE SWAP2 SWAP1 MSTORE PUSH1 0x20 DUP2 ADD DUP1 MLOAD PUSH28 0xFFFFFFFFFFFFFFFFFFFFFFFFFFFFFFFFFFFFFFFFFFFFFFFFFFFFFFFF AND PUSH32 0xD1ED7A3C00000000000000000000000000000000000000000000000000000000 OR SWAP1 MSTORE PUSH2 0x3F98 JUMP JUMPDEST POP POP POP JUMP JUMPDEST PUSH1 0x1 DUP1 SLOAD PUSH20 0xFFFFFFFFFFFFFFFFFFFFFFFFFFFFFFFFFFFFFFFF DUP4 DUP2 AND PUSH32 0xFFFFFFFFFFFFFFFFFFFFFFFF0000000000000000000000000000000000000000 DUP4 AND DUP2 OR SWAP1 SWAP4 SSTORE PUSH1 0x40 MLOAD SWAP2 AND SWAP2 SWAP1 DUP3 SWAP1 PUSH32 0x8BE0079C531659141344CD1FD0A4F28419497F9722A3DAAFE3B4186F6B6457E0 SWAP1 PUSH1 0x0 SWAP1 LOG3 POP POP JUMP JUMPDEST PUSH2 0x3C1E DUP5 DUP5 DUP5 DUP5 PUSH1 0x40 MLOAD PUSH1 0x24 ADD PUSH2 0x3E73 SWAP5 SWAP4 SWAP3 SWAP2 SWAP1 PUSH2 0x4956 JUMP JUMPDEST PUSH1 0x40 DUP1 MLOAD PUSH32 0xFFFFFFFFFFFFFFFFFFFFFFFFFFFFFFFFFFFFFFFFFFFFFFFFFFFFFFFFFFFFFFE0 DUP2 DUP5 SUB ADD DUP2 MSTORE SWAP2 SWAP1 MSTORE PUSH1 0x20 DUP2 ADD DUP1 MLOAD PUSH28 0xFFFFFFFFFFFFFFFFFFFFFFFFFFFFFFFFFFFFFFFFFFFFFFFFFFFFFFFF AND PUSH32 0x193FB80000000000000000000000000000000000000000000000000000000000 OR SWAP1 MSTORE PUSH2 0x3F98 JUMP JUMPDEST PUSH2 0x3C1E DUP5 DUP5 DUP5 DUP5 PUSH1 0x40 MLOAD PUSH1 0x24 ADD PUSH2 0x3F08 SWAP5 SWAP4 SWAP3 SWAP2 SWAP1 PUSH2 0x44C9 JUMP JUMPDEST PUSH1 0x40 DUP1 MLOAD PUSH32 0xFFFFFFFFFFFFFFFFFFFFFFFFFFFFFFFFFFFFFFFFFFFFFFFFFFFFFFFFFFFFFFE0 DUP2 DUP5 SUB ADD DUP2 MSTORE SWAP2 SWAP1 MSTORE PUSH1 0x20 DUP2 ADD DUP1 MLOAD PUSH28 0xFFFFFFFFFFFFFFFFFFFFFFFFFFFFFFFFFFFFFFFFFFFFFFFFFFFFFFFF AND PUSH32 0x8EF3F39900000000000000000000000000000000000000000000000000000000 OR SWAP1 MSTORE PUSH2 0x3F98 JUMP JUMPDEST PUSH1 0x0 PUSH2 0x3F8E DUP3 PUSH2 0x3FB9 JUMP JUMPDEST SWAP3 SWAP2 POP POP JUMP JUMPDEST CALLER SWAP1 JUMP JUMPDEST DUP1 MLOAD PUSH11 0x636F6E736F6C652E6C6F67 PUSH1 0x20 DUP4 ADD PUSH1 0x0 DUP1 DUP5 DUP4 DUP6 GAS STATICCALL POP POP POP POP POP JUMP JUMPDEST PUSH1 0x0 DUP1 SLOAD DUP2 DUP1 PUSH2 0x3FC8 DUP4 PUSH2 0x4A26 JUMP JUMPDEST SWAP2 SWAP1 POP SSTORE POP DUP2 TIMESTAMP CALLER PUSH1 0x0 SLOAD PUSH1 0x40 MLOAD PUSH1 0x20 ADD PUSH2 0x3FE5 SWAP4 SWAP3 SWAP2 SWAP1 PUSH2 0x437A JUMP JUMPDEST PUSH1 0x40 MLOAD PUSH1 0x20 DUP2 DUP4 SUB SUB DUP2 MSTORE SWAP1 PUSH1 0x40 MSTORE DUP1 MLOAD SWAP1 PUSH1 0x20 ADD KECCAK256 PUSH1 0x0 SHR PUSH2 0x3F8E SWAP2 SWAP1 PUSH2 0x4A5F JUMP JUMPDEST DUP1 CALLDATALOAD PUSH20 0xFFFFFFFFFFFFFFFFFFFFFFFFFFFFFFFFFFFFFFFF DUP2 AND DUP2 EQ PUSH2 0x1679 JUMPI PUSH1 0x0 DUP1 REVERT JUMPDEST DUP1 MLOAD PUSH14 0xFFFFFFFFFFFFFFFFFFFFFFFFFFFF DUP2 AND DUP2 EQ PUSH2 0x1679 JUMPI PUSH1 0x0 DUP1 REVERT JUMPDEST PUSH1 0x0 PUSH1 0x20 DUP3 DUP5 SUB SLT ISZERO PUSH2 0x405B JUMPI DUP1 DUP2 REVERT JUMPDEST PUSH2 0x4064 DUP3 PUSH2 0x4008 JUMP JUMPDEST SWAP4 SWAP3 POP POP POP JUMP JUMPDEST PUSH1 0x0 DUP1 PUSH1 0x0 DUP1 PUSH1 0x0 DUP1 PUSH1 0xC0 DUP8 DUP10 SUB SLT ISZERO PUSH2 0x4083 JUMPI DUP2 DUP3 REVERT JUMPDEST PUSH2 0x408C DUP8 PUSH2 0x4008 JUMP JUMPDEST SWAP6 POP PUSH2 0x409A PUSH1 0x20 DUP9 ADD PUSH2 0x4008 JUMP JUMPDEST SWAP5 POP PUSH2 0x40A8 PUSH1 0x40 DUP9 ADD PUSH2 0x4008 JUMP JUMPDEST SWAP4 POP PUSH2 0x40B6 PUSH1 0x60 DUP9 ADD PUSH2 0x4008 JUMP JUMPDEST SWAP3 POP PUSH2 0x40C4 PUSH1 0x80 DUP9 ADD PUSH2 0x4008 JUMP JUMPDEST SWAP2 POP PUSH2 0x40D2 PUSH1 0xA0 DUP9 ADD PUSH2 0x4008 JUMP JUMPDEST SWAP1 POP SWAP3 SWAP6 POP SWAP3 SWAP6 POP SWAP3 SWAP6 JUMP JUMPDEST PUSH1 0x0 PUSH1 0x20 DUP1 DUP4 DUP6 SUB SLT ISZERO PUSH2 0x40F0 JUMPI DUP2 DUP3 REVERT JUMPDEST DUP3 MLOAD PUSH8 0xFFFFFFFFFFFFFFFF DUP1 DUP3 GT ISZERO PUSH2 0x4107 JUMPI DUP4 DUP5 REVERT JUMPDEST DUP2 DUP6 ADD SWAP2 POP DUP6 PUSH1 0x1F DUP4 ADD SLT PUSH2 0x411A JUMPI DUP4 DUP5 REVERT JUMPDEST DUP2 MLOAD DUP2 DUP2 GT ISZERO PUSH2 0x412C JUMPI PUSH2 0x412C PUSH2 0x4AD1 JUMP JUMPDEST DUP4 DUP2 MUL PUSH1 0x40 MLOAD DUP6 DUP3 DUP3 ADD ADD DUP2 DUP2 LT DUP6 DUP3 GT OR ISZERO PUSH2 0x414B JUMPI PUSH2 0x414B PUSH2 0x4AD1 JUMP JUMPDEST PUSH1 0x40 MSTORE DUP3 DUP2 MSTORE DUP6 DUP2 ADD SWAP4 POP DUP5 DUP7 ADD DUP3 DUP7 ADD DUP8 ADD DUP11 LT ISZERO PUSH2 0x4169 JUMPI DUP8 DUP9 REVERT JUMPDEST DUP8 SWAP6 POP JUMPDEST DUP4 DUP7 LT ISZERO PUSH2 0x418B JUMPI DUP1 MLOAD DUP6 MSTORE PUSH1 0x1 SWAP6 SWAP1 SWAP6 ADD SWAP5 SWAP4 DUP7 ADD SWAP4 DUP7 ADD PUSH2 0x416D JUMP JUMPDEST POP SWAP9 SWAP8 POP POP POP POP POP POP POP POP JUMP JUMPDEST PUSH1 0x0 PUSH1 0x20 DUP3 DUP5 SUB SLT ISZERO PUSH2 0x41A9 JUMPI DUP1 DUP2 REVERT JUMPDEST DUP2 MLOAD DUP1 ISZERO ISZERO DUP2 EQ PUSH2 0x4064 JUMPI DUP2 DUP3 REVERT JUMPDEST PUSH1 0x0 DUP1 PUSH1 0x0 PUSH1 0x60 DUP5 DUP7 SUB SLT ISZERO PUSH2 0x41CC JUMPI DUP3 DUP4 REVERT JUMPDEST PUSH2 0x41D5 DUP5 PUSH2 0x402C JUMP JUMPDEST SWAP3 POP PUSH2 0x41E3 PUSH1 0x20 DUP6 ADD PUSH2 0x402C JUMP JUMPDEST SWAP2 POP PUSH1 0x40 DUP5 ADD MLOAD PUSH4 0xFFFFFFFF DUP2 AND DUP2 EQ PUSH2 0x41FB JUMPI DUP2 DUP3 REVERT JUMPDEST DUP1 SWAP2 POP POP SWAP3 POP SWAP3 POP SWAP3 JUMP JUMPDEST PUSH1 0x0 PUSH1 0x20 DUP3 DUP5 SUB SLT ISZERO PUSH2 0x4217 JUMPI DUP1 DUP2 REVERT JUMPDEST POP CALLDATALOAD SWAP2 SWAP1 POP JUMP JUMPDEST PUSH1 0x0 PUSH1 0x20 DUP3 DUP5 SUB SLT ISZERO PUSH2 0x422F JUMPI DUP1 DUP2 REVERT JUMPDEST POP MLOAD SWAP2 SWAP1 POP JUMP JUMPDEST PUSH1 0x0 DUP1 PUSH1 0x0 PUSH1 0x60 DUP5 DUP7 SUB SLT ISZERO PUSH2 0x424A JUMPI DUP3 DUP4 REVERT JUMPDEST DUP4 CALLDATALOAD SWAP3 POP PUSH2 0x425A PUSH1 0x20 DUP6 ADD PUSH2 0x4008 JUMP JUMPDEST SWAP2 POP PUSH2 0x4268 PUSH1 0x40 DUP6 ADD PUSH2 0x4008 JUMP JUMPDEST SWAP1 POP SWAP3 POP SWAP3 POP SWAP3 JUMP JUMPDEST PUSH1 0x0 DUP1 PUSH1 0x40 DUP4 DUP6 SUB SLT ISZERO PUSH2 0x4283 JUMPI DUP2 DUP3 REVERT JUMPDEST POP POP DUP1 MLOAD PUSH1 0x20 SWAP1 SWAP2 ADD MLOAD SWAP1 SWAP3 SWAP1 SWAP2 POP JUMP JUMPDEST PUSH1 0x0 DUP1 PUSH1 0x0 PUSH1 0x60 DUP5 DUP7 SUB SLT ISZERO PUSH2 0x42A8 JUMPI DUP3 DUP4 REVERT JUMPDEST DUP4 MLOAD SWAP3 POP PUSH1 0x20 DUP5 ADD MLOAD SWAP2 POP PUSH1 0x40 DUP5 ADD MLOAD SWAP1 POP SWAP3 POP SWAP3 POP SWAP3 JUMP JUMPDEST PUSH1 0x0 DUP2 MLOAD DUP1 DUP5 MSTORE PUSH1 0x20 DUP1 DUP6 ADD SWAP5 POP DUP1 DUP5 ADD DUP4 JUMPDEST DUP4 DUP2 LT ISZERO PUSH2 0x4306 JUMPI DUP2 MLOAD PUSH20 0xFFFFFFFFFFFFFFFFFFFFFFFFFFFFFFFFFFFFFFFF AND DUP8 MSTORE SWAP6 DUP3 ADD SWAP6 SWAP1 DUP3 ADD SWAP1 PUSH1 0x1 ADD PUSH2 0x42D4 JUMP JUMPDEST POP SWAP5 SWAP6 SWAP5 POP POP POP POP POP JUMP JUMPDEST PUSH1 0x0 DUP2 MLOAD DUP1 DUP5 MSTORE DUP2 JUMPDEST DUP2 DUP2 LT ISZERO PUSH2 0x4336 JUMPI PUSH1 0x20 DUP2 DUP6 ADD DUP2 ADD MLOAD DUP7 DUP4 ADD DUP3 ADD MSTORE ADD PUSH2 0x431A JUMP JUMPDEST DUP2 DUP2 GT ISZERO PUSH2 0x4347 JUMPI DUP3 PUSH1 0x20 DUP4 DUP8 ADD ADD MSTORE JUMPDEST POP PUSH1 0x1F ADD PUSH32 0xFFFFFFFFFFFFFFFFFFFFFFFFFFFFFFFFFFFFFFFFFFFFFFFFFFFFFFFFFFFFFFE0 AND SWAP3 SWAP1 SWAP3 ADD PUSH1 0x20 ADD SWAP3 SWAP2 POP POP JUMP JUMPDEST SWAP3 DUP4 MSTORE PUSH1 0x60 SWAP2 SWAP1 SWAP2 SHL PUSH32 0xFFFFFFFFFFFFFFFFFFFFFFFFFFFFFFFFFFFFFFFF000000000000000000000000 AND PUSH1 0x20 DUP4 ADD MSTORE PUSH1 0x34 DUP3 ADD MSTORE PUSH1 0x54 ADD SWAP1 JUMP JUMPDEST PUSH20 0xFFFFFFFFFFFFFFFFFFFFFFFFFFFFFFFFFFFFFFFF SWAP2 SWAP1 SWAP2 AND DUP2 MSTORE PUSH1 0x20 ADD SWAP1 JUMP JUMPDEST PUSH20 0xFFFFFFFFFFFFFFFFFFFFFFFFFFFFFFFFFFFFFFFF SWAP3 DUP4 AND DUP2 MSTORE SWAP2 AND PUSH1 0x20 DUP3 ADD MSTORE PUSH1 0x40 ADD SWAP1 JUMP JUMPDEST PUSH20 0xFFFFFFFFFFFFFFFFFFFFFFFFFFFFFFFFFFFFFFFF SWAP4 DUP5 AND DUP2 MSTORE SWAP2 SWAP1 SWAP3 AND PUSH1 0x20 DUP3 ADD MSTORE PUSH1 0x40 DUP2 ADD SWAP2 SWAP1 SWAP2 MSTORE PUSH1 0x60 ADD SWAP1 JUMP JUMPDEST PUSH20 0xFFFFFFFFFFFFFFFFFFFFFFFFFFFFFFFFFFFFFFFF SWAP3 SWAP1 SWAP3 AND DUP3 MSTORE PUSH1 0x20 DUP3 ADD MSTORE PUSH1 0x40 ADD SWAP1 JUMP JUMPDEST PUSH20 0xFFFFFFFFFFFFFFFFFFFFFFFFFFFFFFFFFFFFFFFF SWAP7 DUP8 AND DUP2 MSTORE PUSH1 0x20 DUP2 ADD SWAP6 SWAP1 SWAP6 MSTORE PUSH1 0x40 DUP6 ADD SWAP4 SWAP1 SWAP4 MSTORE PUSH1 0x60 DUP5 ADD SWAP2 SWAP1 SWAP2 MSTORE SWAP1 SWAP3 AND PUSH1 0x80 DUP3 ADD MSTORE PUSH1 0xA0 DUP2 ADD SWAP2 SWAP1 SWAP2 MSTORE PUSH1 0xC0 ADD SWAP1 JUMP JUMPDEST PUSH1 0x0 PUSH1 0x40 DUP3 MSTORE PUSH2 0x44AF PUSH1 0x40 DUP4 ADD DUP6 PUSH2 0x42C1 JUMP JUMPDEST SWAP1 POP DUP3 PUSH1 0x20 DUP4 ADD MSTORE SWAP4 SWAP3 POP POP POP JUMP JUMPDEST SWAP1 ISZERO ISZERO DUP2 MSTORE PUSH1 0x20 ADD SWAP1 JUMP JUMPDEST PUSH1 0x0 PUSH1 0x80 DUP3 MSTORE PUSH2 0x44DC PUSH1 0x80 DUP4 ADD DUP8 PUSH2 0x4311 JUMP JUMPDEST PUSH20 0xFFFFFFFFFFFFFFFFFFFFFFFFFFFFFFFFFFFFFFFF SWAP6 DUP7 AND PUSH1 0x20 DUP5 ADD MSTORE SWAP4 SWAP1 SWAP5 AND PUSH1 0x40 DUP3 ADD MSTORE PUSH1 0x60 ADD MSTORE SWAP3 SWAP2 POP POP JUMP JUMPDEST PUSH1 0x0 PUSH1 0x40 DUP3 MSTORE PUSH2 0x44AF PUSH1 0x40 DUP4 ADD DUP6 PUSH2 0x4311 JUMP JUMPDEST PUSH1 0x0 PUSH1 0x80 DUP3 MSTORE PUSH2 0x4532 PUSH1 0x80 DUP4 ADD DUP8 PUSH2 0x4311 JUMP JUMPDEST PUSH1 0x20 DUP4 ADD SWAP6 SWAP1 SWAP6 MSTORE POP PUSH1 0x40 DUP2 ADD SWAP3 SWAP1 SWAP3 MSTORE PUSH1 0x60 SWAP1 SWAP2 ADD MSTORE SWAP2 SWAP1 POP JUMP JUMPDEST PUSH1 0x20 DUP1 DUP3 MSTORE PUSH1 0x1C SWAP1 DUP3 ADD MSTORE PUSH32 0x4E6F7420656E6F756768742043414B4520666F72206120636C61696D00000000 PUSH1 0x40 DUP3 ADD MSTORE PUSH1 0x60 ADD SWAP1 JUMP JUMPDEST PUSH1 0x20 DUP1 DUP3 MSTORE PUSH1 0x2E SWAP1 DUP3 ADD MSTORE PUSH32 0x66656550657263656E742063616E206E6F74206265206772656174207468616E PUSH1 0x40 DUP3 ADD MSTORE PUSH32 0x206D617846656550657263656E74000000000000000000000000000000000000 PUSH1 0x60 DUP3 ADD MSTORE PUSH1 0x80 ADD SWAP1 JUMP JUMPDEST PUSH1 0x20 DUP1 DUP3 MSTORE PUSH1 0x26 SWAP1 DUP3 ADD MSTORE PUSH32 0x4F776E61626C653A206E6577206F776E657220697320746865207A65726F2061 PUSH1 0x40 DUP3 ADD MSTORE PUSH32 0x6464726573730000000000000000000000000000000000000000000000000000 PUSH1 0x60 DUP3 ADD MSTORE PUSH1 0x80 ADD SWAP1 JUMP JUMPDEST PUSH1 0x20 DUP1 DUP3 MSTORE PUSH1 0x1F SWAP1 DUP3 ADD MSTORE PUSH32 0x546F74616C2062616C616E6365206C657373207468616E206D696E5553445400 PUSH1 0x40 DUP3 ADD MSTORE PUSH1 0x60 ADD SWAP1 JUMP JUMPDEST PUSH1 0x20 DUP1 DUP3 MSTORE PUSH1 0x12 SWAP1 DUP3 ADD MSTORE PUSH32 0x4E6F7420656E6F7567687420546F6B656E300000000000000000000000000000 PUSH1 0x40 DUP3 ADD MSTORE PUSH1 0x60 ADD SWAP1 JUMP JUMPDEST PUSH1 0x20 DUP1 DUP3 MSTORE PUSH1 0x2E SWAP1 DUP3 ADD MSTORE PUSH32 0x436F756E74206F66206E756D626572206D757374206265206C65737320746861 PUSH1 0x40 DUP3 ADD MSTORE PUSH32 0x6E206D6178206F7220657175616C000000000000000000000000000000000000 PUSH1 0x60 DUP3 ADD MSTORE PUSH1 0x80 ADD SWAP1 JUMP JUMPDEST PUSH1 0x20 DUP1 DUP3 MSTORE DUP2 DUP2 ADD MSTORE PUSH32 0x546F74616C2062616C616E6365206772656174207468616E206D617855534454 PUSH1 0x40 DUP3 ADD MSTORE PUSH1 0x60 ADD SWAP1 JUMP JUMPDEST PUSH1 0x20 DUP1 DUP3 MSTORE PUSH1 0x22 SWAP1 DUP3 ADD MSTORE PUSH32 0x43616C6C6572206973206E6F742062656E6566696369617279206F72206F776E PUSH1 0x40 DUP3 ADD MSTORE PUSH32 0x6572000000000000000000000000000000000000000000000000000000000000 PUSH1 0x60 DUP3 ADD MSTORE PUSH1 0x80 ADD SWAP1 JUMP JUMPDEST PUSH1 0x20 DUP1 DUP3 MSTORE PUSH1 0x15 SWAP1 DUP3 ADD MSTORE PUSH32 0x4E6F7420656E6F75676874206C69717569646974790000000000000000000000 PUSH1 0x40 DUP3 ADD MSTORE PUSH1 0x60 ADD SWAP1 JUMP JUMPDEST PUSH1 0x20 DUP1 DUP3 MSTORE DUP2 DUP2 ADD MSTORE PUSH32 0x4F776E61626C653A2063616C6C6572206973206E6F7420746865206F776E6572 PUSH1 0x40 DUP3 ADD MSTORE PUSH1 0x60 ADD SWAP1 JUMP JUMPDEST PUSH1 0x20 DUP1 DUP3 MSTORE PUSH1 0xF SWAP1 DUP3 ADD MSTORE PUSH32 0x52657761726420697320656D7074790000000000000000000000000000000000 PUSH1 0x40 DUP3 ADD MSTORE PUSH1 0x60 ADD SWAP1 JUMP JUMPDEST PUSH1 0x20 DUP1 DUP3 MSTORE PUSH1 0x1C SWAP1 DUP3 ADD MSTORE PUSH32 0x4E6F7420656E6F7567687420616C6C6F77616E636520546F6B656E3000000000 PUSH1 0x40 DUP3 ADD MSTORE PUSH1 0x60 ADD SWAP1 JUMP JUMPDEST PUSH1 0x20 DUP1 DUP3 MSTORE PUSH1 0x11 SWAP1 DUP3 ADD MSTORE PUSH32 0x4E6F742061205061727469636970616E74000000000000000000000000000000 PUSH1 0x40 DUP3 ADD MSTORE PUSH1 0x60 ADD SWAP1 JUMP JUMPDEST PUSH1 0x20 DUP1 DUP3 MSTORE PUSH1 0x12 SWAP1 DUP3 ADD MSTORE PUSH32 0x7472616E73666572206973206661696C65640000000000000000000000000000 PUSH1 0x40 DUP3 ADD MSTORE PUSH1 0x60 ADD SWAP1 JUMP JUMPDEST SWAP1 DUP2 MSTORE PUSH1 0x20 ADD SWAP1 JUMP JUMPDEST SWAP2 DUP3 MSTORE PUSH20 0xFFFFFFFFFFFFFFFFFFFFFFFFFFFFFFFFFFFFFFFF AND PUSH1 0x20 DUP3 ADD MSTORE PUSH1 0x40 ADD SWAP1 JUMP JUMPDEST PUSH1 0x0 DUP4 DUP3 MSTORE PUSH1 0x40 PUSH1 0x20 DUP4 ADD MSTORE PUSH2 0x492A PUSH1 0x40 DUP4 ADD DUP5 PUSH2 0x42C1 JUMP JUMPDEST SWAP5 SWAP4 POP POP POP POP JUMP JUMPDEST SWAP2 DUP3 MSTORE PUSH1 0x20 DUP3 ADD MSTORE PUSH1 0x40 ADD SWAP1 JUMP JUMPDEST SWAP3 DUP4 MSTORE PUSH1 0x20 DUP4 ADD SWAP2 SWAP1 SWAP2 MSTORE PUSH1 0x40 DUP3 ADD MSTORE PUSH1 0x60 ADD SWAP1 JUMP JUMPDEST SWAP4 DUP5 MSTORE PUSH1 0x20 DUP5 ADD SWAP3 SWAP1 SWAP3 MSTORE PUSH1 0x40 DUP4 ADD MSTORE PUSH1 0x60 DUP3 ADD MSTORE PUSH1 0x80 ADD SWAP1 JUMP JUMPDEST PUSH1 0x0 DUP3 NOT DUP3 GT ISZERO PUSH2 0x4984 JUMPI PUSH2 0x4984 PUSH2 0x4A73 JUMP JUMPDEST POP ADD SWAP1 JUMP JUMPDEST PUSH1 0x0 DUP3 PUSH2 0x4998 JUMPI PUSH2 0x4998 PUSH2 0x4AA2 JUMP JUMPDEST POP DIV SWAP1 JUMP JUMPDEST PUSH1 0x0 DUP2 PUSH32 0xFFFFFFFFFFFFFFFFFFFFFFFFFFFFFFFFFFFFFFFFFFFFFFFFFFFFFFFFFFFFFFFF DIV DUP4 GT DUP3 ISZERO ISZERO AND ISZERO PUSH2 0x49D5 JUMPI PUSH2 0x49D5 PUSH2 0x4A73 JUMP JUMPDEST POP MUL SWAP1 JUMP JUMPDEST PUSH1 0x0 DUP3 DUP3 LT ISZERO PUSH2 0x49EC JUMPI PUSH2 0x49EC PUSH2 0x4A73 JUMP JUMPDEST POP SUB SWAP1 JUMP JUMPDEST PUSH1 0x0 DUP2 PUSH2 0x4A00 JUMPI PUSH2 0x4A00 PUSH2 0x4A73 JUMP JUMPDEST POP PUSH32 0xFFFFFFFFFFFFFFFFFFFFFFFFFFFFFFFFFFFFFFFFFFFFFFFFFFFFFFFFFFFFFFFF ADD SWAP1 JUMP JUMPDEST PUSH1 0x0 PUSH32 0xFFFFFFFFFFFFFFFFFFFFFFFFFFFFFFFFFFFFFFFFFFFFFFFFFFFFFFFFFFFFFFFF DUP3 EQ ISZERO PUSH2 0x4A58 JUMPI PUSH2 0x4A58 PUSH2 0x4A73 JUMP JUMPDEST POP PUSH1 0x1 ADD SWAP1 JUMP JUMPDEST PUSH1 0x0 DUP3 PUSH2 0x4A6E JUMPI PUSH2 0x4A6E PUSH2 0x4AA2 JUMP JUMPDEST POP MOD SWAP1 JUMP JUMPDEST PUSH32 0x4E487B7100000000000000000000000000000000000000000000000000000000 PUSH1 0x0 MSTORE PUSH1 0x11 PUSH1 0x4 MSTORE PUSH1 0x24 PUSH1 0x0 REVERT JUMPDEST PUSH32 0x4E487B7100000000000000000000000000000000000000000000000000000000 PUSH1 0x0 MSTORE PUSH1 0x12 PUSH1 0x4 MSTORE PUSH1 0x24 PUSH1 0x0 REVERT JUMPDEST PUSH32 0x4E487B7100000000000000000000000000000000000000000000000000000000 PUSH1 0x0 MSTORE PUSH1 0x41 PUSH1 0x4 MSTORE PUSH1 0x24 PUSH1 0x0 REVERT INVALID LOG2 PUSH5 0x6970667358 0x22 SLT KECCAK256 XOR 0xCC 0xB0 DUP7 RETURNDATASIZE SSTORE SMOD 0xCF CODECOPY 0x5F 0xBC REVERT CALLDATACOPY 0xAD INVALID PUSH28 0x9250D4E9781B9966206CECB9FEB649B464736F6C6343000800003300 "},"methodIdentifiers":{"alreadyParticipant(address)":"dde7cd51","balanceOf(address)":"70a08231","beneficiary()":"38af3eed","claimReward()":"b88a802f","deposit(uint256)":"b6b55f25","depositOf(address)":"23e3fbd5","draw()":"0eecae21","drawNumber()":"d80ffb20","farmTotal()":"1dc21194","getPSRate(uint256,address,address)":"f914958b","getParticipants()":"5aa68ac0","isParticipant(address)":"929066f5","lpDecimals()":"851ed85e","maxUsdt()":"b4410e9c","minUsdt()":"f550ed93","owner()":"8da5cb5b","participants(uint256)":"35c1d349","rateLPTokens()":"295f39b1","removeWithdraw()":"caa96a92","renounceOwnership()":"715018a6","rewardOf(address)":"1d62ebd9","setAll(address,address,address,address,address,address)":"d736f8a6","setBeneficiary(address)":"1c31f710","setBnbContractAddress(address)":"71defc9c","setCakeContractAddress(address)":"df890be7","setFeePercent(uint256)":"7ce3489b","setFrogReferalAddress(address)":"1c3b3902","setMaxUsdt(uint256)":"409af09a","setMinUsdt(uint256)":"ba0553ae","setPancakeMCAddress(address)":"23ce7fb8","setPancakePairAddress(address)":"fd0b2fec","setPancakeRouterAddress(address)":"eedbc056","setUsdtContractAddress(address)":"e4203183","transferOwnership(address)":"f2fde38b","withdraw(uint256)":"2e1a7d4d","withdrawOf(address)":"c0cb7c6a"}}}}}