{"contracts/FrogReferal.sol":{"FrogReferal":{"abi":[{"inputs":[{"internalType":"address","name":"_beneficiary","type":"address"}],"stateMutability":"nonpayable","type":"constructor"},{"anonymous":false,"inputs":[{"indexed":true,"internalType":"address","name":"_newParticipant","type":"address"},{"indexed":true,"internalType":"address","name":"_referer","type":"address"}],"name":"NewParticipant","type":"event"},{"anonymous":false,"inputs":[{"indexed":true,"internalType":"address","name":"previousOwner","type":"address"},{"indexed":true,"internalType":"address","name":"newOwner","type":"address"}],"name":"OwnershipTransferred","type":"event"},{"anonymous":false,"inputs":[{"indexed":true,"internalType":"uint256","name":"_oldFeePercent","type":"uint256"},{"indexed":true,"internalType":"uint256","name":"_newFeePercent","type":"uint256"}],"name":"PercentChanged","type":"event"},{"anonymous":false,"inputs":[{"indexed":false,"internalType":"address","name":"from","type":"address"},{"indexed":false,"internalType":"address","name":"to","type":"address"},{"indexed":false,"internalType":"address","name":"lotteryAddress","type":"address"},{"indexed":false,"internalType":"uint256","name":"reward","type":"uint256"}],"name":"ReferalReward","type":"event"},{"inputs":[{"internalType":"address","name":"_referer","type":"address"}],"name":"add","outputs":[],"stateMutability":"nonpayable","type":"function"},{"inputs":[{"internalType":"address","name":"","type":"address"}],"name":"alreadyParticipant","outputs":[{"internalType":"bool","name":"","type":"bool"}],"stateMutability":"view","type":"function"},{"inputs":[{"internalType":"address","name":"","type":"address"},{"internalType":"address","name":"","type":"address"}],"name":"balance","outputs":[{"internalType":"uint256","name":"","type":"uint256"}],"stateMutability":"view","type":"function"},{"inputs":[{"internalType":"address","name":"token","type":"address"}],"name":"claimReward","outputs":[],"stateMutability":"nonpayable","type":"function"},{"inputs":[{"internalType":"address","name":"referal","type":"address"}],"name":"getReferalPercent","outputs":[{"internalType":"uint256","name":"","type":"uint256"}],"stateMutability":"view","type":"function"},{"inputs":[{"internalType":"address","name":"","type":"address"}],"name":"isLottery","outputs":[{"internalType":"bool","name":"","type":"bool"}],"stateMutability":"view","type":"function"},{"inputs":[{"internalType":"address","name":"_participant","type":"address"}],"name":"isParticipant","outputs":[{"internalType":"bool","name":"","type":"bool"}],"stateMutability":"view","type":"function"},{"inputs":[],"name":"owner","outputs":[{"internalType":"address","name":"","type":"address"}],"stateMutability":"view","type":"function"},{"inputs":[{"internalType":"uint256","name":"","type":"uint256"}],"name":"participants","outputs":[{"internalType":"address","name":"","type":"address"}],"stateMutability":"view","type":"function"},{"inputs":[{"internalType":"address","name":"token","type":"address"},{"internalType":"address","name":"referal","type":"address"},{"internalType":"uint256","name":"reward","type":"uint256"}],"name":"recieveRewardFromReferalVictory","outputs":[],"stateMutability":"nonpayable","type":"function"},{"inputs":[{"internalType":"address","name":"","type":"address"},{"internalType":"uint256","name":"","type":"uint256"}],"name":"referalsOf","outputs":[{"internalType":"address","name":"participant","type":"address"},{"internalType":"uint256","name":"percent","type":"uint256"}],"stateMutability":"view","type":"function"},{"inputs":[{"internalType":"address","name":"","type":"address"}],"name":"refererOf","outputs":[{"internalType":"address","name":"participant","type":"address"},{"internalType":"uint256","name":"percent","type":"uint256"}],"stateMutability":"view","type":"function"},{"inputs":[{"internalType":"address","name":"newLotteryAddress","type":"address"}],"name":"registerNewLottery","outputs":[],"stateMutability":"nonpayable","type":"function"},{"inputs":[],"name":"renounceOwnership","outputs":[],"stateMutability":"nonpayable","type":"function"},{"inputs":[{"internalType":"address","name":"factory","type":"address"}],"name":"setFactoryAddress","outputs":[],"stateMutability":"nonpayable","type":"function"},{"inputs":[{"internalType":"uint256","name":"_percent","type":"uint256"}],"name":"setPercent","outputs":[],"stateMutability":"nonpayable","type":"function"},{"inputs":[{"internalType":"address","name":"newOwner","type":"address"}],"name":"transferOwnership","outputs":[],"stateMutability":"nonpayable","type":"function"}],"evm":{"bytecode":{"linkReferences":{},"object":"608060405234801561001057600080fd5b50604051610e20380380610e2083398101604081905261002f916101f3565b61003f61003a61005a565b61005e565b61004960036100ae565b6100548160006100e2565b50610221565b3390565b600080546001600160a01b038381166001600160a01b0319831681178455604051919092169283917f8be0079c531659141344cd1fd0a4f28419497f9722a3daafe3b4186f6b6457e09190a35050565b6001546040518291907f8db755431f830f14c9b08f25b8ea03bdc42a1fac02d653a068489c35a0b7ffc790600090a3600155565b6007805460018181019092557fa66cc928b5edb82af9bd49922954155ab7b0942694bea4ce44661d9a8736c6880180546001600160a01b038086166001600160a01b031992831681179093556000838152600860209081526040808320805460ff191688179055805180820182528885168082528854828501908152888652600280865284872093518454908916908a161784559051928a019290925580855260038452828520835180850185528981528a548187019081528254808d0184559288529587209051919093029092018054929096169190961617845590519290950191909155925190927fb1a51db29d2bc7ad3182bd9f7909094c0dfddf3b0fb5708039638f307e95903491a35050565b600060208284031215610204578081fd5b81516001600160a01b038116811461021a578182fd5b9392505050565b610bf0806102306000396000f3fe608060405234801561001057600080fd5b506004361061011b5760003560e01c806383c17c55116100b2578063be34545311610081578063d279c19111610066578063d279c19114610254578063dde7cd5114610267578063f2fde38b1461027a5761011b565b8063be3454531461022e578063cadafe14146102415761011b565b806383c17c55146101e05780638da5cb5b146101f3578063929066f5146101fb578063b203bb991461021b5761011b565b80633d137386116100ee5780633d137386146101925780635db4825b146101b2578063715018a6146101c55780637154b8b5146101cd5761011b565b806301e1db32146101205780630a3b0a4f1461013557806335c1d34914610148578063393319a814610171575b600080fd5b61013361012e36600461088f565b61028d565b005b61013361014336600461088f565b6102b1565b61015b610156366004610966565b610312565b604051610168919061097e565b60405180910390f35b61018461017f36600461088f565b61033c565b6040516101689291906109bc565b6101a56101a036600461088f565b610361565b6040516101689190610b74565b6101846101c036600461091d565b610383565b6101336103c9565b6101336101db366004610966565b6103dd565b6101336101ee36600461088f565b610411565b61015b610440565b61020e61020936600461088f565b61044f565b60405161016891906109d5565b6101a56102293660046108b0565b61046d565b61020e61023c36600461088f565b61048a565b61013361024f3660046108e2565b61049f565b61013361026236600461088f565b61057e565b61020e61027536600461088f565b61066e565b61013361028836600461088f565b610683565b6001600160a01b03166000908152600560205260409020805460ff19166001179055565b6102ba3361044f565b156102e05760405162461bcd60e51b81526004016102d790610b06565b60405180910390fd5b6102e98161044f565b6103055760405162461bcd60e51b81526004016102d790610b3d565b61030f33826106ba565b50565b6007818154811061032257600080fd5b6000918252602090912001546001600160a01b0316905081565b600260205260009081526040902080546001909101546001600160a01b039091169082565b6001600160a01b0381166000908152600260205260409020600101545b919050565b6003602052816000526040600020818154811061039f57600080fd5b6000918252602090912060029091020180546001909101546001600160a01b039091169250905082565b6103d16107d8565b6103db6000610817565b565b6001546040518291907f8db755431f830f14c9b08f25b8ea03bdc42a1fac02d653a068489c35a0b7ffc790600090a3600155565b6006805473ffffffffffffffffffffffffffffffffffffffff19166001600160a01b0392909216919091179055565b6000546001600160a01b031690565b6001600160a01b031660009081526008602052604090205460ff1690565b600460209081526000928352604080842090915290825290205481565b60056020526000908152604090205460ff1681565b6001600160a01b03808316600090815260026020908152604080832081518083018352815490951685526001015484830152338352600590915290205460ff166104fb5760405162461bcd60e51b81526004016102d790610a3d565b6001600160a01b038085166000908152600460209081526040808320855190941683529290529081208054849290610534908490610b7d565b909155505080516040517f92b13198d64dc2a4b4268851ed502dbfea927cbb10fb08fccefa0e43c7007f4d916105709186919033908790610992565b60405180910390a150505050565b6001600160a01b0381166000818152600460208181526040808420338086529252928390205492517fa9059cbb00000000000000000000000000000000000000000000000000000000815263a9059cbb936105db939091016109bc565b602060405180830381600087803b1580156105f557600080fd5b505af1158015610609573d6000803e3d6000fd5b505050506040513d601f19601f8201168201806040525081019061062d9190610946565b6106495760405162461bcd60e51b81526004016102d790610a9a565b6001600160a01b03166000908152600460209081526040808320338452909152812055565b60086020526000908152604090205460ff1681565b61068b6107d8565b6001600160a01b0381166106b15760405162461bcd60e51b81526004016102d7906109e0565b61030f81610817565b6007805460018181019092557fa66cc928b5edb82af9bd49922954155ab7b0942694bea4ce44661d9a8736c6880180546001600160a01b0380861673ffffffffffffffffffffffffffffffffffffffff1992831681179093556000838152600860209081526040808320805460ff191688179055805180820182528885168082528854828501908152888652600280865284872093518454908916908a161784559051928a019290925580855260038452828520835180850185528981528a548187019081528254808d0184559288529587209051919093029092018054929096169190961617845590519290950191909155925190927fb1a51db29d2bc7ad3182bd9f7909094c0dfddf3b0fb5708039638f307e95903491a35050565b6107e0610874565b6001600160a01b03166107f1610440565b6001600160a01b0316146103db5760405162461bcd60e51b81526004016102d790610ad1565b600080546001600160a01b0383811673ffffffffffffffffffffffffffffffffffffffff19831681178455604051919092169283917f8be0079c531659141344cd1fd0a4f28419497f9722a3daafe3b4186f6b6457e09190a35050565b3390565b80356001600160a01b038116811461037e57600080fd5b6000602082840312156108a0578081fd5b6108a982610878565b9392505050565b600080604083850312156108c2578081fd5b6108cb83610878565b91506108d960208401610878565b90509250929050565b6000806000606084860312156108f6578081fd5b6108ff84610878565b925061090d60208501610878565b9150604084013590509250925092565b6000806040838503121561092f578182fd5b61093883610878565b946020939093013593505050565b600060208284031215610957578081fd5b815180151581146108a9578182fd5b600060208284031215610977578081fd5b5035919050565b6001600160a01b0391909116815260200190565b6001600160a01b039485168152928416602084015292166040820152606081019190915260800190565b6001600160a01b03929092168252602082015260400190565b901515815260200190565b60208082526026908201527f4f776e61626c653a206e6577206f776e657220697320746865207a65726f206160408201527f6464726573730000000000000000000000000000000000000000000000000000606082015260800190565b60208082526036908201527f7265636965766552657761726446726f6d5265666572616c566963746f72793a60408201527f20796f7520617265206e6f742061206c6f747465727900000000000000000000606082015260800190565b6020808252601b908201527f636c61696d5265776172643a207472616e73666572206661696c640000000000604082015260600190565b6020808252818101527f4f776e61626c653a2063616c6c6572206973206e6f7420746865206f776e6572604082015260600190565b6020808252601a908201527f5061727469636970616e7420616c726561647920657869737421000000000000604082015260600190565b60208082526012908201527f52656665726572206e6f7420666f756e64210000000000000000000000000000604082015260600190565b90815260200190565b60008219821115610bb5577f4e487b710000000000000000000000000000000000000000000000000000000081526011600452602481fd5b50019056fea2646970667358221220ded74dc8c7e16f36e97f77512de9e1b1ab6f7d24ef5dcdca1576a54e74663ad564736f6c63430008000033","opcodes":"PUSH1 0x80 PUSH1 0x40 MSTORE CALLVALUE DUP1 ISZERO PUSH2 0x10 JUMPI PUSH1 0x0 DUP1 REVERT JUMPDEST POP PUSH1 0x40 MLOAD PUSH2 0xE20 CODESIZE SUB DUP1 PUSH2 0xE20 DUP4 CODECOPY DUP2 ADD PUSH1 0x40 DUP2 SWAP1 MSTORE PUSH2 0x2F SWAP2 PUSH2 0x1F3 JUMP JUMPDEST PUSH2 0x3F PUSH2 0x3A PUSH2 0x5A JUMP JUMPDEST PUSH2 0x5E JUMP JUMPDEST PUSH2 0x49 PUSH1 0x3 PUSH2 0xAE JUMP JUMPDEST PUSH2 0x54 DUP2 PUSH1 0x0 PUSH2 0xE2 JUMP JUMPDEST POP PUSH2 0x221 JUMP JUMPDEST CALLER SWAP1 JUMP JUMPDEST PUSH1 0x0 DUP1 SLOAD PUSH1 0x1 PUSH1 0x1 PUSH1 0xA0 SHL SUB DUP4 DUP2 AND PUSH1 0x1 PUSH1 0x1 PUSH1 0xA0 SHL SUB NOT DUP4 AND DUP2 OR DUP5 SSTORE PUSH1 0x40 MLOAD SWAP2 SWAP1 SWAP3 AND SWAP3 DUP4 SWAP2 PUSH32 0x8BE0079C531659141344CD1FD0A4F28419497F9722A3DAAFE3B4186F6B6457E0 SWAP2 SWAP1 LOG3 POP POP JUMP JUMPDEST PUSH1 0x1 SLOAD PUSH1 0x40 MLOAD DUP3 SWAP2 SWAP1 PUSH32 0x8DB755431F830F14C9B08F25B8EA03BDC42A1FAC02D653A068489C35A0B7FFC7 SWAP1 PUSH1 0x0 SWAP1 LOG3 PUSH1 0x1 SSTORE JUMP JUMPDEST PUSH1 0x7 DUP1 SLOAD PUSH1 0x1 DUP2 DUP2 ADD SWAP1 SWAP3 SSTORE PUSH32 0xA66CC928B5EDB82AF9BD49922954155AB7B0942694BEA4CE44661D9A8736C688 ADD DUP1 SLOAD PUSH1 0x1 PUSH1 0x1 PUSH1 0xA0 SHL SUB DUP1 DUP7 AND PUSH1 0x1 PUSH1 0x1 PUSH1 0xA0 SHL SUB NOT SWAP3 DUP4 AND DUP2 OR SWAP1 SWAP4 SSTORE PUSH1 0x0 DUP4 DUP2 MSTORE PUSH1 0x8 PUSH1 0x20 SWAP1 DUP2 MSTORE PUSH1 0x40 DUP1 DUP4 KECCAK256 DUP1 SLOAD PUSH1 0xFF NOT AND DUP9 OR SWAP1 SSTORE DUP1 MLOAD DUP1 DUP3 ADD DUP3 MSTORE DUP9 DUP6 AND DUP1 DUP3 MSTORE DUP9 SLOAD DUP3 DUP6 ADD SWAP1 DUP2 MSTORE DUP9 DUP7 MSTORE PUSH1 0x2 DUP1 DUP7 MSTORE DUP5 DUP8 KECCAK256 SWAP4 MLOAD DUP5 SLOAD SWAP1 DUP10 AND SWAP1 DUP11 AND OR DUP5 SSTORE SWAP1 MLOAD SWAP3 DUP11 ADD SWAP3 SWAP1 SWAP3 SSTORE DUP1 DUP6 MSTORE PUSH1 0x3 DUP5 MSTORE DUP3 DUP6 KECCAK256 DUP4 MLOAD DUP1 DUP6 ADD DUP6 MSTORE DUP10 DUP2 MSTORE DUP11 SLOAD DUP2 DUP8 ADD SWAP1 DUP2 MSTORE DUP3 SLOAD DUP1 DUP14 ADD DUP5 SSTORE SWAP3 DUP9 MSTORE SWAP6 DUP8 KECCAK256 SWAP1 MLOAD SWAP2 SWAP1 SWAP4 MUL SWAP1 SWAP3 ADD DUP1 SLOAD SWAP3 SWAP1 SWAP7 AND SWAP2 SWAP1 SWAP7 AND OR DUP5 SSTORE SWAP1 MLOAD SWAP3 SWAP1 SWAP6 ADD SWAP2 SWAP1 SWAP2 SSTORE SWAP3 MLOAD SWAP1 SWAP3 PUSH32 0xB1A51DB29D2BC7AD3182BD9F7909094C0DFDDF3B0FB5708039638F307E959034 SWAP2 LOG3 POP POP JUMP JUMPDEST PUSH1 0x0 PUSH1 0x20 DUP3 DUP5 SUB SLT ISZERO PUSH2 0x204 JUMPI DUP1 DUP2 REVERT JUMPDEST DUP2 MLOAD PUSH1 0x1 PUSH1 0x1 PUSH1 0xA0 SHL SUB DUP2 AND DUP2 EQ PUSH2 0x21A JUMPI DUP2 DUP3 REVERT JUMPDEST SWAP4 SWAP3 POP POP POP JUMP JUMPDEST PUSH2 0xBF0 DUP1 PUSH2 0x230 PUSH1 0x0 CODECOPY PUSH1 0x0 RETURN INVALID PUSH1 0x80 PUSH1 0x40 MSTORE CALLVALUE DUP1 ISZERO PUSH2 0x10 JUMPI PUSH1 0x0 DUP1 REVERT JUMPDEST POP PUSH1 0x4 CALLDATASIZE LT PUSH2 0x11B JUMPI PUSH1 0x0 CALLDATALOAD PUSH1 0xE0 SHR DUP1 PUSH4 0x83C17C55 GT PUSH2 0xB2 JUMPI DUP1 PUSH4 0xBE345453 GT PUSH2 0x81 JUMPI DUP1 PUSH4 0xD279C191 GT PUSH2 0x66 JUMPI DUP1 PUSH4 0xD279C191 EQ PUSH2 0x254 JUMPI DUP1 PUSH4 0xDDE7CD51 EQ PUSH2 0x267 JUMPI DUP1 PUSH4 0xF2FDE38B EQ PUSH2 0x27A JUMPI PUSH2 0x11B JUMP JUMPDEST DUP1 PUSH4 0xBE345453 EQ PUSH2 0x22E JUMPI DUP1 PUSH4 0xCADAFE14 EQ PUSH2 0x241 JUMPI PUSH2 0x11B JUMP JUMPDEST DUP1 PUSH4 0x83C17C55 EQ PUSH2 0x1E0 JUMPI DUP1 PUSH4 0x8DA5CB5B EQ PUSH2 0x1F3 JUMPI DUP1 PUSH4 0x929066F5 EQ PUSH2 0x1FB JUMPI DUP1 PUSH4 0xB203BB99 EQ PUSH2 0x21B JUMPI PUSH2 0x11B JUMP JUMPDEST DUP1 PUSH4 0x3D137386 GT PUSH2 0xEE JUMPI DUP1 PUSH4 0x3D137386 EQ PUSH2 0x192 JUMPI DUP1 PUSH4 0x5DB4825B EQ PUSH2 0x1B2 JUMPI DUP1 PUSH4 0x715018A6 EQ PUSH2 0x1C5 JUMPI DUP1 PUSH4 0x7154B8B5 EQ PUSH2 0x1CD JUMPI PUSH2 0x11B JUMP JUMPDEST DUP1 PUSH4 0x1E1DB32 EQ PUSH2 0x120 JUMPI DUP1 PUSH4 0xA3B0A4F EQ PUSH2 0x135 JUMPI DUP1 PUSH4 0x35C1D349 EQ PUSH2 0x148 JUMPI DUP1 PUSH4 0x393319A8 EQ PUSH2 0x171 JUMPI JUMPDEST PUSH1 0x0 DUP1 REVERT JUMPDEST PUSH2 0x133 PUSH2 0x12E CALLDATASIZE PUSH1 0x4 PUSH2 0x88F JUMP JUMPDEST PUSH2 0x28D JUMP JUMPDEST STOP JUMPDEST PUSH2 0x133 PUSH2 0x143 CALLDATASIZE PUSH1 0x4 PUSH2 0x88F JUMP JUMPDEST PUSH2 0x2B1 JUMP JUMPDEST PUSH2 0x15B PUSH2 0x156 CALLDATASIZE PUSH1 0x4 PUSH2 0x966 JUMP JUMPDEST PUSH2 0x312 JUMP JUMPDEST PUSH1 0x40 MLOAD PUSH2 0x168 SWAP2 SWAP1 PUSH2 0x97E JUMP JUMPDEST PUSH1 0x40 MLOAD DUP1 SWAP2 SUB SWAP1 RETURN JUMPDEST PUSH2 0x184 PUSH2 0x17F CALLDATASIZE PUSH1 0x4 PUSH2 0x88F JUMP JUMPDEST PUSH2 0x33C JUMP JUMPDEST PUSH1 0x40 MLOAD PUSH2 0x168 SWAP3 SWAP2 SWAP1 PUSH2 0x9BC JUMP JUMPDEST PUSH2 0x1A5 PUSH2 0x1A0 CALLDATASIZE PUSH1 0x4 PUSH2 0x88F JUMP JUMPDEST PUSH2 0x361 JUMP JUMPDEST PUSH1 0x40 MLOAD PUSH2 0x168 SWAP2 SWAP1 PUSH2 0xB74 JUMP JUMPDEST PUSH2 0x184 PUSH2 0x1C0 CALLDATASIZE PUSH1 0x4 PUSH2 0x91D JUMP JUMPDEST PUSH2 0x383 JUMP JUMPDEST PUSH2 0x133 PUSH2 0x3C9 JUMP JUMPDEST PUSH2 0x133 PUSH2 0x1DB CALLDATASIZE PUSH1 0x4 PUSH2 0x966 JUMP JUMPDEST PUSH2 0x3DD JUMP JUMPDEST PUSH2 0x133 PUSH2 0x1EE CALLDATASIZE PUSH1 0x4 PUSH2 0x88F JUMP JUMPDEST PUSH2 0x411 JUMP JUMPDEST PUSH2 0x15B PUSH2 0x440 JUMP JUMPDEST PUSH2 0x20E PUSH2 0x209 CALLDATASIZE PUSH1 0x4 PUSH2 0x88F JUMP JUMPDEST PUSH2 0x44F JUMP JUMPDEST PUSH1 0x40 MLOAD PUSH2 0x168 SWAP2 SWAP1 PUSH2 0x9D5 JUMP JUMPDEST PUSH2 0x1A5 PUSH2 0x229 CALLDATASIZE PUSH1 0x4 PUSH2 0x8B0 JUMP JUMPDEST PUSH2 0x46D JUMP JUMPDEST PUSH2 0x20E PUSH2 0x23C CALLDATASIZE PUSH1 0x4 PUSH2 0x88F JUMP JUMPDEST PUSH2 0x48A JUMP JUMPDEST PUSH2 0x133 PUSH2 0x24F CALLDATASIZE PUSH1 0x4 PUSH2 0x8E2 JUMP JUMPDEST PUSH2 0x49F JUMP JUMPDEST PUSH2 0x133 PUSH2 0x262 CALLDATASIZE PUSH1 0x4 PUSH2 0x88F JUMP JUMPDEST PUSH2 0x57E JUMP JUMPDEST PUSH2 0x20E PUSH2 0x275 CALLDATASIZE PUSH1 0x4 PUSH2 0x88F JUMP JUMPDEST PUSH2 0x66E JUMP JUMPDEST PUSH2 0x133 PUSH2 0x288 CALLDATASIZE PUSH1 0x4 PUSH2 0x88F JUMP JUMPDEST PUSH2 0x683 JUMP JUMPDEST PUSH1 0x1 PUSH1 0x1 PUSH1 0xA0 SHL SUB AND PUSH1 0x0 SWAP1 DUP2 MSTORE PUSH1 0x5 PUSH1 0x20 MSTORE PUSH1 0x40 SWAP1 KECCAK256 DUP1 SLOAD PUSH1 0xFF NOT AND PUSH1 0x1 OR SWAP1 SSTORE JUMP JUMPDEST PUSH2 0x2BA CALLER PUSH2 0x44F JUMP JUMPDEST ISZERO PUSH2 0x2E0 JUMPI PUSH1 0x40 MLOAD PUSH3 0x461BCD PUSH1 0xE5 SHL DUP2 MSTORE PUSH1 0x4 ADD PUSH2 0x2D7 SWAP1 PUSH2 0xB06 JUMP JUMPDEST PUSH1 0x40 MLOAD DUP1 SWAP2 SUB SWAP1 REVERT JUMPDEST PUSH2 0x2E9 DUP2 PUSH2 0x44F JUMP JUMPDEST PUSH2 0x305 JUMPI PUSH1 0x40 MLOAD PUSH3 0x461BCD PUSH1 0xE5 SHL DUP2 MSTORE PUSH1 0x4 ADD PUSH2 0x2D7 SWAP1 PUSH2 0xB3D JUMP JUMPDEST PUSH2 0x30F CALLER DUP3 PUSH2 0x6BA JUMP JUMPDEST POP JUMP JUMPDEST PUSH1 0x7 DUP2 DUP2 SLOAD DUP2 LT PUSH2 0x322 JUMPI PUSH1 0x0 DUP1 REVERT JUMPDEST PUSH1 0x0 SWAP2 DUP3 MSTORE PUSH1 0x20 SWAP1 SWAP2 KECCAK256 ADD SLOAD PUSH1 0x1 PUSH1 0x1 PUSH1 0xA0 SHL SUB AND SWAP1 POP DUP2 JUMP JUMPDEST PUSH1 0x2 PUSH1 0x20 MSTORE PUSH1 0x0 SWAP1 DUP2 MSTORE PUSH1 0x40 SWAP1 KECCAK256 DUP1 SLOAD PUSH1 0x1 SWAP1 SWAP2 ADD SLOAD PUSH1 0x1 PUSH1 0x1 PUSH1 0xA0 SHL SUB SWAP1 SWAP2 AND SWAP1 DUP3 JUMP JUMPDEST PUSH1 0x1 PUSH1 0x1 PUSH1 0xA0 SHL SUB DUP2 AND PUSH1 0x0 SWAP1 DUP2 MSTORE PUSH1 0x2 PUSH1 0x20 MSTORE PUSH1 0x40 SWAP1 KECCAK256 PUSH1 0x1 ADD SLOAD JUMPDEST SWAP2 SWAP1 POP JUMP JUMPDEST PUSH1 0x3 PUSH1 0x20 MSTORE DUP2 PUSH1 0x0 MSTORE PUSH1 0x40 PUSH1 0x0 KECCAK256 DUP2 DUP2 SLOAD DUP2 LT PUSH2 0x39F JUMPI PUSH1 0x0 DUP1 REVERT JUMPDEST PUSH1 0x0 SWAP2 DUP3 MSTORE PUSH1 0x20 SWAP1 SWAP2 KECCAK256 PUSH1 0x2 SWAP1 SWAP2 MUL ADD DUP1 SLOAD PUSH1 0x1 SWAP1 SWAP2 ADD SLOAD PUSH1 0x1 PUSH1 0x1 PUSH1 0xA0 SHL SUB SWAP1 SWAP2 AND SWAP3 POP SWAP1 POP DUP3 JUMP JUMPDEST PUSH2 0x3D1 PUSH2 0x7D8 JUMP JUMPDEST PUSH2 0x3DB PUSH1 0x0 PUSH2 0x817 JUMP JUMPDEST JUMP JUMPDEST PUSH1 0x1 SLOAD PUSH1 0x40 MLOAD DUP3 SWAP2 SWAP1 PUSH32 0x8DB755431F830F14C9B08F25B8EA03BDC42A1FAC02D653A068489C35A0B7FFC7 SWAP1 PUSH1 0x0 SWAP1 LOG3 PUSH1 0x1 SSTORE JUMP JUMPDEST PUSH1 0x6 DUP1 SLOAD PUSH20 0xFFFFFFFFFFFFFFFFFFFFFFFFFFFFFFFFFFFFFFFF NOT AND PUSH1 0x1 PUSH1 0x1 PUSH1 0xA0 SHL SUB SWAP3 SWAP1 SWAP3 AND SWAP2 SWAP1 SWAP2 OR SWAP1 SSTORE JUMP JUMPDEST PUSH1 0x0 SLOAD PUSH1 0x1 PUSH1 0x1 PUSH1 0xA0 SHL SUB AND SWAP1 JUMP JUMPDEST PUSH1 0x1 PUSH1 0x1 PUSH1 0xA0 SHL SUB AND PUSH1 0x0 SWAP1 DUP2 MSTORE PUSH1 0x8 PUSH1 0x20 MSTORE PUSH1 0x40 SWAP1 KECCAK256 SLOAD PUSH1 0xFF AND SWAP1 JUMP JUMPDEST PUSH1 0x4 PUSH1 0x20 SWAP1 DUP2 MSTORE PUSH1 0x0 SWAP3 DUP4 MSTORE PUSH1 0x40 DUP1 DUP5 KECCAK256 SWAP1 SWAP2 MSTORE SWAP1 DUP3 MSTORE SWAP1 KECCAK256 SLOAD DUP2 JUMP JUMPDEST PUSH1 0x5 PUSH1 0x20 MSTORE PUSH1 0x0 SWAP1 DUP2 MSTORE PUSH1 0x40 SWAP1 KECCAK256 SLOAD PUSH1 0xFF AND DUP2 JUMP JUMPDEST PUSH1 0x1 PUSH1 0x1 PUSH1 0xA0 SHL SUB DUP1 DUP4 AND PUSH1 0x0 SWAP1 DUP2 MSTORE PUSH1 0x2 PUSH1 0x20 SWAP1 DUP2 MSTORE PUSH1 0x40 DUP1 DUP4 KECCAK256 DUP2 MLOAD DUP1 DUP4 ADD DUP4 MSTORE DUP2 SLOAD SWAP1 SWAP6 AND DUP6 MSTORE PUSH1 0x1 ADD SLOAD DUP5 DUP4 ADD MSTORE CALLER DUP4 MSTORE PUSH1 0x5 SWAP1 SWAP2 MSTORE SWAP1 KECCAK256 SLOAD PUSH1 0xFF AND PUSH2 0x4FB JUMPI PUSH1 0x40 MLOAD PUSH3 0x461BCD PUSH1 0xE5 SHL DUP2 MSTORE PUSH1 0x4 ADD PUSH2 0x2D7 SWAP1 PUSH2 0xA3D JUMP JUMPDEST PUSH1 0x1 PUSH1 0x1 PUSH1 0xA0 SHL SUB DUP1 DUP6 AND PUSH1 0x0 SWAP1 DUP2 MSTORE PUSH1 0x4 PUSH1 0x20 SWAP1 DUP2 MSTORE PUSH1 0x40 DUP1 DUP4 KECCAK256 DUP6 MLOAD SWAP1 SWAP5 AND DUP4 MSTORE SWAP3 SWAP1 MSTORE SWAP1 DUP2 KECCAK256 DUP1 SLOAD DUP5 SWAP3 SWAP1 PUSH2 0x534 SWAP1 DUP5 SWAP1 PUSH2 0xB7D JUMP JUMPDEST SWAP1 SWAP2 SSTORE POP POP DUP1 MLOAD PUSH1 0x40 MLOAD PUSH32 0x92B13198D64DC2A4B4268851ED502DBFEA927CBB10FB08FCCEFA0E43C7007F4D SWAP2 PUSH2 0x570 SWAP2 DUP7 SWAP2 SWAP1 CALLER SWAP1 DUP8 SWAP1 PUSH2 0x992 JUMP JUMPDEST PUSH1 0x40 MLOAD DUP1 SWAP2 SUB SWAP1 LOG1 POP POP POP POP JUMP JUMPDEST PUSH1 0x1 PUSH1 0x1 PUSH1 0xA0 SHL SUB DUP2 AND PUSH1 0x0 DUP2 DUP2 MSTORE PUSH1 0x4 PUSH1 0x20 DUP2 DUP2 MSTORE PUSH1 0x40 DUP1 DUP5 KECCAK256 CALLER DUP1 DUP7 MSTORE SWAP3 MSTORE SWAP3 DUP4 SWAP1 KECCAK256 SLOAD SWAP3 MLOAD PUSH32 0xA9059CBB00000000000000000000000000000000000000000000000000000000 DUP2 MSTORE PUSH4 0xA9059CBB SWAP4 PUSH2 0x5DB SWAP4 SWAP1 SWAP2 ADD PUSH2 0x9BC JUMP JUMPDEST PUSH1 0x20 PUSH1 0x40 MLOAD DUP1 DUP4 SUB DUP2 PUSH1 0x0 DUP8 DUP1 EXTCODESIZE ISZERO DUP1 ISZERO PUSH2 0x5F5 JUMPI PUSH1 0x0 DUP1 REVERT JUMPDEST POP GAS CALL ISZERO DUP1 ISZERO PUSH2 0x609 JUMPI RETURNDATASIZE PUSH1 0x0 DUP1 RETURNDATACOPY RETURNDATASIZE PUSH1 0x0 REVERT JUMPDEST POP POP POP POP PUSH1 0x40 MLOAD RETURNDATASIZE PUSH1 0x1F NOT PUSH1 0x1F DUP3 ADD AND DUP3 ADD DUP1 PUSH1 0x40 MSTORE POP DUP2 ADD SWAP1 PUSH2 0x62D SWAP2 SWAP1 PUSH2 0x946 JUMP JUMPDEST PUSH2 0x649 JUMPI PUSH1 0x40 MLOAD PUSH3 0x461BCD PUSH1 0xE5 SHL DUP2 MSTORE PUSH1 0x4 ADD PUSH2 0x2D7 SWAP1 PUSH2 0xA9A JUMP JUMPDEST PUSH1 0x1 PUSH1 0x1 PUSH1 0xA0 SHL SUB AND PUSH1 0x0 SWAP1 DUP2 MSTORE PUSH1 0x4 PUSH1 0x20 SWAP1 DUP2 MSTORE PUSH1 0x40 DUP1 DUP4 KECCAK256 CALLER DUP5 MSTORE SWAP1 SWAP2 MSTORE DUP2 KECCAK256 SSTORE JUMP JUMPDEST PUSH1 0x8 PUSH1 0x20 MSTORE PUSH1 0x0 SWAP1 DUP2 MSTORE PUSH1 0x40 SWAP1 KECCAK256 SLOAD PUSH1 0xFF AND DUP2 JUMP JUMPDEST PUSH2 0x68B PUSH2 0x7D8 JUMP JUMPDEST PUSH1 0x1 PUSH1 0x1 PUSH1 0xA0 SHL SUB DUP2 AND PUSH2 0x6B1 JUMPI PUSH1 0x40 MLOAD PUSH3 0x461BCD PUSH1 0xE5 SHL DUP2 MSTORE PUSH1 0x4 ADD PUSH2 0x2D7 SWAP1 PUSH2 0x9E0 JUMP JUMPDEST PUSH2 0x30F DUP2 PUSH2 0x817 JUMP JUMPDEST PUSH1 0x7 DUP1 SLOAD PUSH1 0x1 DUP2 DUP2 ADD SWAP1 SWAP3 SSTORE PUSH32 0xA66CC928B5EDB82AF9BD49922954155AB7B0942694BEA4CE44661D9A8736C688 ADD DUP1 SLOAD PUSH1 0x1 PUSH1 0x1 PUSH1 0xA0 SHL SUB DUP1 DUP7 AND PUSH20 0xFFFFFFFFFFFFFFFFFFFFFFFFFFFFFFFFFFFFFFFF NOT SWAP3 DUP4 AND DUP2 OR SWAP1 SWAP4 SSTORE PUSH1 0x0 DUP4 DUP2 MSTORE PUSH1 0x8 PUSH1 0x20 SWAP1 DUP2 MSTORE PUSH1 0x40 DUP1 DUP4 KECCAK256 DUP1 SLOAD PUSH1 0xFF NOT AND DUP9 OR SWAP1 SSTORE DUP1 MLOAD DUP1 DUP3 ADD DUP3 MSTORE DUP9 DUP6 AND DUP1 DUP3 MSTORE DUP9 SLOAD DUP3 DUP6 ADD SWAP1 DUP2 MSTORE DUP9 DUP7 MSTORE PUSH1 0x2 DUP1 DUP7 MSTORE DUP5 DUP8 KECCAK256 SWAP4 MLOAD DUP5 SLOAD SWAP1 DUP10 AND SWAP1 DUP11 AND OR DUP5 SSTORE SWAP1 MLOAD SWAP3 DUP11 ADD SWAP3 SWAP1 SWAP3 SSTORE DUP1 DUP6 MSTORE PUSH1 0x3 DUP5 MSTORE DUP3 DUP6 KECCAK256 DUP4 MLOAD DUP1 DUP6 ADD DUP6 MSTORE DUP10 DUP2 MSTORE DUP11 SLOAD DUP2 DUP8 ADD SWAP1 DUP2 MSTORE DUP3 SLOAD DUP1 DUP14 ADD DUP5 SSTORE SWAP3 DUP9 MSTORE SWAP6 DUP8 KECCAK256 SWAP1 MLOAD SWAP2 SWAP1 SWAP4 MUL SWAP1 SWAP3 ADD DUP1 SLOAD SWAP3 SWAP1 SWAP7 AND SWAP2 SWAP1 SWAP7 AND OR DUP5 SSTORE SWAP1 MLOAD SWAP3 SWAP1 SWAP6 ADD SWAP2 SWAP1 SWAP2 SSTORE SWAP3 MLOAD SWAP1 SWAP3 PUSH32 0xB1A51DB29D2BC7AD3182BD9F7909094C0DFDDF3B0FB5708039638F307E959034 SWAP2 LOG3 POP POP JUMP JUMPDEST PUSH2 0x7E0 PUSH2 0x874 JUMP JUMPDEST PUSH1 0x1 PUSH1 0x1 PUSH1 0xA0 SHL SUB AND PUSH2 0x7F1 PUSH2 0x440 JUMP JUMPDEST PUSH1 0x1 PUSH1 0x1 PUSH1 0xA0 SHL SUB AND EQ PUSH2 0x3DB JUMPI PUSH1 0x40 MLOAD PUSH3 0x461BCD PUSH1 0xE5 SHL DUP2 MSTORE PUSH1 0x4 ADD PUSH2 0x2D7 SWAP1 PUSH2 0xAD1 JUMP JUMPDEST PUSH1 0x0 DUP1 SLOAD PUSH1 0x1 PUSH1 0x1 PUSH1 0xA0 SHL SUB DUP4 DUP2 AND PUSH20 0xFFFFFFFFFFFFFFFFFFFFFFFFFFFFFFFFFFFFFFFF NOT DUP4 AND DUP2 OR DUP5 SSTORE PUSH1 0x40 MLOAD SWAP2 SWAP1 SWAP3 AND SWAP3 DUP4 SWAP2 PUSH32 0x8BE0079C531659141344CD1FD0A4F28419497F9722A3DAAFE3B4186F6B6457E0 SWAP2 SWAP1 LOG3 POP POP JUMP JUMPDEST CALLER SWAP1 JUMP JUMPDEST DUP1 CALLDATALOAD PUSH1 0x1 PUSH1 0x1 PUSH1 0xA0 SHL SUB DUP2 AND DUP2 EQ PUSH2 0x37E JUMPI PUSH1 0x0 DUP1 REVERT JUMPDEST PUSH1 0x0 PUSH1 0x20 DUP3 DUP5 SUB SLT ISZERO PUSH2 0x8A0 JUMPI DUP1 DUP2 REVERT JUMPDEST PUSH2 0x8A9 DUP3 PUSH2 0x878 JUMP JUMPDEST SWAP4 SWAP3 POP POP POP JUMP JUMPDEST PUSH1 0x0 DUP1 PUSH1 0x40 DUP4 DUP6 SUB SLT ISZERO PUSH2 0x8C2 JUMPI DUP1 DUP2 REVERT JUMPDEST PUSH2 0x8CB DUP4 PUSH2 0x878 JUMP JUMPDEST SWAP2 POP PUSH2 0x8D9 PUSH1 0x20 DUP5 ADD PUSH2 0x878 JUMP JUMPDEST SWAP1 POP SWAP3 POP SWAP3 SWAP1 POP JUMP JUMPDEST PUSH1 0x0 DUP1 PUSH1 0x0 PUSH1 0x60 DUP5 DUP7 SUB SLT ISZERO PUSH2 0x8F6 JUMPI DUP1 DUP2 REVERT JUMPDEST PUSH2 0x8FF DUP5 PUSH2 0x878 JUMP JUMPDEST SWAP3 POP PUSH2 0x90D PUSH1 0x20 DUP6 ADD PUSH2 0x878 JUMP JUMPDEST SWAP2 POP PUSH1 0x40 DUP5 ADD CALLDATALOAD SWAP1 POP SWAP3 POP SWAP3 POP SWAP3 JUMP JUMPDEST PUSH1 0x0 DUP1 PUSH1 0x40 DUP4 DUP6 SUB SLT ISZERO PUSH2 0x92F JUMPI DUP2 DUP3 REVERT JUMPDEST PUSH2 0x938 DUP4 PUSH2 0x878 JUMP JUMPDEST SWAP5 PUSH1 0x20 SWAP4 SWAP1 SWAP4 ADD CALLDATALOAD SWAP4 POP POP POP JUMP JUMPDEST PUSH1 0x0 PUSH1 0x20 DUP3 DUP5 SUB SLT ISZERO PUSH2 0x957 JUMPI DUP1 DUP2 REVERT JUMPDEST DUP2 MLOAD DUP1 ISZERO ISZERO DUP2 EQ PUSH2 0x8A9 JUMPI DUP2 DUP3 REVERT JUMPDEST PUSH1 0x0 PUSH1 0x20 DUP3 DUP5 SUB SLT ISZERO PUSH2 0x977 JUMPI DUP1 DUP2 REVERT JUMPDEST POP CALLDATALOAD SWAP2 SWAP1 POP JUMP JUMPDEST PUSH1 0x1 PUSH1 0x1 PUSH1 0xA0 SHL SUB SWAP2 SWAP1 SWAP2 AND DUP2 MSTORE PUSH1 0x20 ADD SWAP1 JUMP JUMPDEST PUSH1 0x1 PUSH1 0x1 PUSH1 0xA0 SHL SUB SWAP5 DUP6 AND DUP2 MSTORE SWAP3 DUP5 AND PUSH1 0x20 DUP5 ADD MSTORE SWAP3 AND PUSH1 0x40 DUP3 ADD MSTORE PUSH1 0x60 DUP2 ADD SWAP2 SWAP1 SWAP2 MSTORE PUSH1 0x80 ADD SWAP1 JUMP JUMPDEST PUSH1 0x1 PUSH1 0x1 PUSH1 0xA0 SHL SUB SWAP3 SWAP1 SWAP3 AND DUP3 MSTORE PUSH1 0x20 DUP3 ADD MSTORE PUSH1 0x40 ADD SWAP1 JUMP JUMPDEST SWAP1 ISZERO ISZERO DUP2 MSTORE PUSH1 0x20 ADD SWAP1 JUMP JUMPDEST PUSH1 0x20 DUP1 DUP3 MSTORE PUSH1 0x26 SWAP1 DUP3 ADD MSTORE PUSH32 0x4F776E61626C653A206E6577206F776E657220697320746865207A65726F2061 PUSH1 0x40 DUP3 ADD MSTORE PUSH32 0x6464726573730000000000000000000000000000000000000000000000000000 PUSH1 0x60 DUP3 ADD MSTORE PUSH1 0x80 ADD SWAP1 JUMP JUMPDEST PUSH1 0x20 DUP1 DUP3 MSTORE PUSH1 0x36 SWAP1 DUP3 ADD MSTORE PUSH32 0x7265636965766552657761726446726F6D5265666572616C566963746F72793A PUSH1 0x40 DUP3 ADD MSTORE PUSH32 0x20796F7520617265206E6F742061206C6F747465727900000000000000000000 PUSH1 0x60 DUP3 ADD MSTORE PUSH1 0x80 ADD SWAP1 JUMP JUMPDEST PUSH1 0x20 DUP1 DUP3 MSTORE PUSH1 0x1B SWAP1 DUP3 ADD MSTORE PUSH32 0x636C61696D5265776172643A207472616E73666572206661696C640000000000 PUSH1 0x40 DUP3 ADD MSTORE PUSH1 0x60 ADD SWAP1 JUMP JUMPDEST PUSH1 0x20 DUP1 DUP3 MSTORE DUP2 DUP2 ADD MSTORE PUSH32 0x4F776E61626C653A2063616C6C6572206973206E6F7420746865206F776E6572 PUSH1 0x40 DUP3 ADD MSTORE PUSH1 0x60 ADD SWAP1 JUMP JUMPDEST PUSH1 0x20 DUP1 DUP3 MSTORE PUSH1 0x1A SWAP1 DUP3 ADD MSTORE PUSH32 0x5061727469636970616E7420616C726561647920657869737421000000000000 PUSH1 0x40 DUP3 ADD MSTORE PUSH1 0x60 ADD SWAP1 JUMP JUMPDEST PUSH1 0x20 DUP1 DUP3 MSTORE PUSH1 0x12 SWAP1 DUP3 ADD MSTORE PUSH32 0x52656665726572206E6F7420666F756E64210000000000000000000000000000 PUSH1 0x40 DUP3 ADD MSTORE PUSH1 0x60 ADD SWAP1 JUMP JUMPDEST SWAP1 DUP2 MSTORE PUSH1 0x20 ADD SWAP1 JUMP JUMPDEST PUSH1 0x0 DUP3 NOT DUP3 GT ISZERO PUSH2 0xBB5 JUMPI PUSH32 0x4E487B7100000000000000000000000000000000000000000000000000000000 DUP2 MSTORE PUSH1 0x11 PUSH1 0x4 MSTORE PUSH1 0x24 DUP2 REVERT JUMPDEST POP ADD SWAP1 JUMP INVALID LOG2 PUSH5 0x6970667358 0x22 SLT KECCAK256 0xDE 0xD7 0x4D 0xC8 0xC7 0xE1 PUSH16 0x36E97F77512DE9E1B1AB6F7D24EF5DCD 0xCA ISZERO PUSH23 0xA54E74663AD564736F6C63430008000033000000000000 "},"methodIdentifiers":{"add(address)":"0a3b0a4f","alreadyParticipant(address)":"dde7cd51","balance(address,address)":"b203bb99","claimReward(address)":"d279c191","getReferalPercent(address)":"3d137386","isLottery(address)":"be345453","isParticipant(address)":"929066f5","owner()":"8da5cb5b","participants(uint256)":"35c1d349","recieveRewardFromReferalVictory(address,address,uint256)":"cadafe14","referalsOf(address,uint256)":"5db4825b","refererOf(address)":"393319a8","registerNewLottery(address)":"01e1db32","renounceOwnership()":"715018a6","setFactoryAddress(address)":"83c17c55","setPercent(uint256)":"7154b8b5","transferOwnership(address)":"f2fde38b"}}}}}