{
  "_format": "hh-sol-artifact-1",
  "contractName": "ERC1820Implementer",
  "sourceName": "contracts/@openzeppelin/contracts/introspection/ERC1820Implementer.sol",
  "abi": [
    {
      "inputs": [
        {
          "internalType": "bytes32",
          "name": "interfaceHash",
          "type": "bytes32"
        },
        {
          "internalType": "address",
          "name": "account",
          "type": "address"
        }
      ],
      "name": "canImplementInterfaceForAddress",
      "outputs": [
        {
          "internalType": "bytes32",
          "name": "",
          "type": "bytes32"
        }
      ],
      "stateMutability": "view",
      "type": "function"
    }
  ],
  "bytecode": "0x608060405234801561001057600080fd5b50610134806100206000396000f3fe6080604052348015600f57600080fd5b506004361060285760003560e01c8063249cb3fa14602d575b600080fd5b606360048036036040811015604157600080fd5b508035906020013573ffffffffffffffffffffffffffffffffffffffff166075565b60408051918252519081900360200190f35b60008281526020818152604080832073ffffffffffffffffffffffffffffffffffffffff8516845290915281205460ff1660af57600060f7565b60405160200180807f455243313832305f4143434550545f4d414749430000000000000000000000008152506014019050604051602081830303815290604052805190602001205b939250505056fea264697066735822122090e56d35ae99e36bee3ca1c1148490638843dde365af8d4f4913d566adeaeeb564736f6c63430007060033",
  "linkReferences": {},
  "deployedLinkReferences": {}
}