{
  "_format": "hh-sol-artifact-1",
  "contractName": "FrogSponsor",
  "sourceName": "contracts/FrogSponsor.sol",
  "abi": [
    {
      "inputs": [
        {
          "internalType": "address",
          "name": "_token0",
          "type": "address"
        },
        {
          "internalType": "address",
          "name": "_token1",
          "type": "address"
        },
        {
          "internalType": "bool",
          "name": "_isEthLottery",
          "type": "bool"
        },
        {
          "internalType": "address",
          "name": "_beneficiary",
          "type": "address"
        },
        {
          "internalType": "uint256",
          "name": "_pancakePID",
          "type": "uint256"
        },
        {
          "internalType": "address",
          "name": "_FrogLotteryAddress",
          "type": "address"
        }
      ],
      "stateMutability": "nonpayable",
      "type": "constructor"
    },
    {
      "anonymous": false,
      "inputs": [
        {
          "indexed": true,
          "internalType": "address",
          "name": "_oldBeneficiary",
          "type": "address"
        },
        {
          "indexed": true,
          "internalType": "address",
          "name": "_newBeneficiary",
          "type": "address"
        }
      ],
      "name": "BeneficiaryChanged",
      "type": "event"
    },
    {
      "anonymous": false,
      "inputs": [
        {
          "indexed": true,
          "internalType": "address",
          "name": "_participant",
          "type": "address"
        },
        {
          "indexed": false,
          "internalType": "uint256",
          "name": "_amount",
          "type": "uint256"
        },
        {
          "indexed": false,
          "internalType": "uint256",
          "name": "_oldBalance",
          "type": "uint256"
        }
      ],
      "name": "Deposit",
      "type": "event"
    },
    {
      "anonymous": false,
      "inputs": [
        {
          "indexed": true,
          "internalType": "uint256",
          "name": "_drawNumber",
          "type": "uint256"
        },
        {
          "indexed": false,
          "internalType": "uint256",
          "name": "_fundTotal",
          "type": "uint256"
        },
        {
          "indexed": false,
          "internalType": "uint256",
          "name": "_rewardTotal",
          "type": "uint256"
        },
        {
          "indexed": false,
          "internalType": "uint256",
          "name": "_feeTotal",
          "type": "uint256"
        }
      ],
      "name": "Draw",
      "type": "event"
    },
    {
      "anonymous": false,
      "inputs": [
        {
          "indexed": true,
          "internalType": "uint256",
          "name": "_oldFeePercent",
          "type": "uint256"
        },
        {
          "indexed": true,
          "internalType": "uint256",
          "name": "_newFeePercent",
          "type": "uint256"
        }
      ],
      "name": "FeePercentChanged",
      "type": "event"
    },
    {
      "anonymous": false,
      "inputs": [
        {
          "indexed": true,
          "internalType": "address",
          "name": "_newParticipant",
          "type": "address"
        }
      ],
      "name": "NewParticipant",
      "type": "event"
    },
    {
      "anonymous": false,
      "inputs": [
        {
          "indexed": true,
          "internalType": "address",
          "name": "previousOwner",
          "type": "address"
        },
        {
          "indexed": true,
          "internalType": "address",
          "name": "newOwner",
          "type": "address"
        }
      ],
      "name": "OwnershipTransferred",
      "type": "event"
    },
    {
      "anonymous": false,
      "inputs": [
        {
          "indexed": true,
          "internalType": "uint256",
          "name": "_drawNumber",
          "type": "uint256"
        },
        {
          "indexed": true,
          "internalType": "address",
          "name": "_winner",
          "type": "address"
        },
        {
          "indexed": false,
          "internalType": "uint256",
          "name": "_amount",
          "type": "uint256"
        }
      ],
      "name": "Victory",
      "type": "event"
    },
    {
      "anonymous": false,
      "inputs": [
        {
          "indexed": true,
          "internalType": "address",
          "name": "_participant",
          "type": "address"
        },
        {
          "indexed": false,
          "internalType": "uint256",
          "name": "_amount",
          "type": "uint256"
        },
        {
          "indexed": false,
          "internalType": "uint256",
          "name": "_oldBalance",
          "type": "uint256"
        }
      ],
      "name": "Withdraw",
      "type": "event"
    },
    {
      "inputs": [
        {
          "internalType": "address",
          "name": "",
          "type": "address"
        }
      ],
      "name": "alreadyParticipant",
      "outputs": [
        {
          "internalType": "bool",
          "name": "",
          "type": "bool"
        }
      ],
      "stateMutability": "view",
      "type": "function"
    },
    {
      "inputs": [
        {
          "internalType": "address",
          "name": "",
          "type": "address"
        }
      ],
      "name": "balanceOf",
      "outputs": [
        {
          "internalType": "uint256",
          "name": "",
          "type": "uint256"
        }
      ],
      "stateMutability": "view",
      "type": "function"
    },
    {
      "inputs": [],
      "name": "beneficiary",
      "outputs": [
        {
          "internalType": "address",
          "name": "",
          "type": "address"
        }
      ],
      "stateMutability": "view",
      "type": "function"
    },
    {
      "inputs": [],
      "name": "claimReward",
      "outputs": [],
      "stateMutability": "nonpayable",
      "type": "function"
    },
    {
      "inputs": [
        {
          "internalType": "uint256",
          "name": "amountToken0",
          "type": "uint256"
        },
        {
          "internalType": "uint256",
          "name": "amountToken1",
          "type": "uint256"
        }
      ],
      "name": "deposit",
      "outputs": [
        {
          "internalType": "bool",
          "name": "success",
          "type": "bool"
        }
      ],
      "stateMutability": "payable",
      "type": "function"
    },
    {
      "inputs": [
        {
          "internalType": "address",
          "name": "",
          "type": "address"
        }
      ],
      "name": "depositOf",
      "outputs": [
        {
          "internalType": "uint256",
          "name": "",
          "type": "uint256"
        }
      ],
      "stateMutability": "view",
      "type": "function"
    },
    {
      "inputs": [],
      "name": "draw",
      "outputs": [],
      "stateMutability": "nonpayable",
      "type": "function"
    },
    {
      "inputs": [],
      "name": "drawNumber",
      "outputs": [
        {
          "internalType": "uint256",
          "name": "",
          "type": "uint256"
        }
      ],
      "stateMutability": "view",
      "type": "function"
    },
    {
      "inputs": [],
      "name": "farmTotal",
      "outputs": [
        {
          "internalType": "uint256",
          "name": "",
          "type": "uint256"
        }
      ],
      "stateMutability": "view",
      "type": "function"
    },
    {
      "inputs": [
        {
          "internalType": "uint256",
          "name": "_amount",
          "type": "uint256"
        },
        {
          "internalType": "address",
          "name": "_tokenIn",
          "type": "address"
        },
        {
          "internalType": "address",
          "name": "_tokenOut",
          "type": "address"
        }
      ],
      "name": "getPSRate",
      "outputs": [
        {
          "internalType": "uint256",
          "name": "",
          "type": "uint256"
        }
      ],
      "stateMutability": "view",
      "type": "function"
    },
    {
      "inputs": [],
      "name": "getParticipants",
      "outputs": [
        {
          "internalType": "address[]",
          "name": "result",
          "type": "address[]"
        },
        {
          "internalType": "uint256",
          "name": "counter",
          "type": "uint256"
        }
      ],
      "stateMutability": "view",
      "type": "function"
    },
    {
      "inputs": [
        {
          "internalType": "address",
          "name": "_participant",
          "type": "address"
        }
      ],
      "name": "isParticipant",
      "outputs": [
        {
          "internalType": "bool",
          "name": "",
          "type": "bool"
        }
      ],
      "stateMutability": "view",
      "type": "function"
    },
    {
      "inputs": [],
      "name": "lpDecimals",
      "outputs": [
        {
          "internalType": "uint256",
          "name": "",
          "type": "uint256"
        }
      ],
      "stateMutability": "view",
      "type": "function"
    },
    {
      "inputs": [],
      "name": "maxUsd",
      "outputs": [
        {
          "internalType": "uint256",
          "name": "",
          "type": "uint256"
        }
      ],
      "stateMutability": "view",
      "type": "function"
    },
    {
      "inputs": [],
      "name": "minUsd",
      "outputs": [
        {
          "internalType": "uint256",
          "name": "",
          "type": "uint256"
        }
      ],
      "stateMutability": "view",
      "type": "function"
    },
    {
      "inputs": [],
      "name": "owner",
      "outputs": [
        {
          "internalType": "address",
          "name": "",
          "type": "address"
        }
      ],
      "stateMutability": "view",
      "type": "function"
    },
    {
      "inputs": [
        {
          "internalType": "uint256",
          "name": "",
          "type": "uint256"
        }
      ],
      "name": "participants",
      "outputs": [
        {
          "internalType": "address",
          "name": "",
          "type": "address"
        }
      ],
      "stateMutability": "view",
      "type": "function"
    },
    {
      "inputs": [],
      "name": "rateLPTokens",
      "outputs": [
        {
          "internalType": "uint256",
          "name": "lpToken0",
          "type": "uint256"
        },
        {
          "internalType": "uint256",
          "name": "lpToken1",
          "type": "uint256"
        }
      ],
      "stateMutability": "view",
      "type": "function"
    },
    {
      "inputs": [],
      "name": "renounceOwnership",
      "outputs": [],
      "stateMutability": "nonpayable",
      "type": "function"
    },
    {
      "inputs": [
        {
          "internalType": "address",
          "name": "",
          "type": "address"
        }
      ],
      "name": "rewardOf",
      "outputs": [
        {
          "internalType": "uint256",
          "name": "",
          "type": "uint256"
        }
      ],
      "stateMutability": "view",
      "type": "function"
    },
    {
      "inputs": [
        {
          "internalType": "address",
          "name": "_token0",
          "type": "address"
        },
        {
          "internalType": "address",
          "name": "_token1",
          "type": "address"
        },
        {
          "internalType": "address",
          "name": "usd",
          "type": "address"
        },
        {
          "internalType": "address",
          "name": "router",
          "type": "address"
        },
        {
          "internalType": "address",
          "name": "masterChef",
          "type": "address"
        },
        {
          "internalType": "address",
          "name": "pair",
          "type": "address"
        }
      ],
      "name": "setAll",
      "outputs": [],
      "stateMutability": "nonpayable",
      "type": "function"
    },
    {
      "inputs": [
        {
          "internalType": "address",
          "name": "_newBeneficiary",
          "type": "address"
        }
      ],
      "name": "setBeneficiary",
      "outputs": [],
      "stateMutability": "nonpayable",
      "type": "function"
    },
    {
      "inputs": [
        {
          "internalType": "uint256",
          "name": "_newFeePercent",
          "type": "uint256"
        }
      ],
      "name": "setFeePercent",
      "outputs": [],
      "stateMutability": "nonpayable",
      "type": "function"
    },
    {
      "inputs": [
        {
          "internalType": "address",
          "name": "_address",
          "type": "address"
        }
      ],
      "name": "setFrogReferalAddress",
      "outputs": [],
      "stateMutability": "nonpayable",
      "type": "function"
    },
    {
      "inputs": [
        {
          "internalType": "uint256",
          "name": "_maxUsd",
          "type": "uint256"
        }
      ],
      "name": "setMaxUsd",
      "outputs": [],
      "stateMutability": "nonpayable",
      "type": "function"
    },
    {
      "inputs": [
        {
          "internalType": "uint256",
          "name": "_minUsd",
          "type": "uint256"
        }
      ],
      "name": "setMinUsd",
      "outputs": [],
      "stateMutability": "nonpayable",
      "type": "function"
    },
    {
      "inputs": [
        {
          "internalType": "address",
          "name": "_address",
          "type": "address"
        }
      ],
      "name": "setPancakeMCAddress",
      "outputs": [],
      "stateMutability": "nonpayable",
      "type": "function"
    },
    {
      "inputs": [
        {
          "internalType": "address",
          "name": "_address",
          "type": "address"
        }
      ],
      "name": "setPancakePairAddress",
      "outputs": [],
      "stateMutability": "nonpayable",
      "type": "function"
    },
    {
      "inputs": [
        {
          "internalType": "address",
          "name": "_address",
          "type": "address"
        }
      ],
      "name": "setPancakeRouterAddress",
      "outputs": [],
      "stateMutability": "nonpayable",
      "type": "function"
    },
    {
      "inputs": [
        {
          "internalType": "address",
          "name": "_cakeContractAddress",
          "type": "address"
        }
      ],
      "name": "setToken0ContractAddress",
      "outputs": [],
      "stateMutability": "nonpayable",
      "type": "function"
    },
    {
      "inputs": [
        {
          "internalType": "address",
          "name": "_address",
          "type": "address"
        }
      ],
      "name": "setToken1ContractAddress",
      "outputs": [],
      "stateMutability": "nonpayable",
      "type": "function"
    },
    {
      "inputs": [
        {
          "internalType": "address",
          "name": "_address",
          "type": "address"
        }
      ],
      "name": "setUsdContractAddress",
      "outputs": [],
      "stateMutability": "nonpayable",
      "type": "function"
    },
    {
      "inputs": [],
      "name": "token0",
      "outputs": [
        {
          "internalType": "address",
          "name": "",
          "type": "address"
        }
      ],
      "stateMutability": "view",
      "type": "function"
    },
    {
      "inputs": [],
      "name": "token1",
      "outputs": [
        {
          "internalType": "address",
          "name": "",
          "type": "address"
        }
      ],
      "stateMutability": "view",
      "type": "function"
    },
    {
      "inputs": [
        {
          "internalType": "address",
          "name": "newOwner",
          "type": "address"
        }
      ],
      "name": "transferOwnership",
      "outputs": [],
      "stateMutability": "nonpayable",
      "type": "function"
    },
    {
      "inputs": [
        {
          "internalType": "uint256",
          "name": "_amount",
          "type": "uint256"
        }
      ],
      "name": "withdraw",
      "outputs": [
        {
          "internalType": "bool",
          "name": "success",
          "type": "bool"
        }
      ],
      "stateMutability": "nonpayable",
      "type": "function"
    },
    {
      "inputs": [
        {
          "internalType": "address",
          "name": "",
          "type": "address"
        }
      ],
      "name": "withdrawOf",
      "outputs": [
        {
          "internalType": "uint256",
          "name": "",
          "type": "uint256"
        }
      ],
      "stateMutability": "view",
      "type": "function"
    },
    {
      "stateMutability": "payable",
      "type": "receive"
    }
  ],
  "bytecode": "0x60a060405260006001556127106002556402540be4006018553480156200002557600080fd5b50604051620069733803806200697383398181016040528101906200004b919062000b1a565b8585600086868662000072620000666200021560201b60201c565b6200021d60201b60201c565b81600b60006101000a81548173ffffffffffffffffffffffffffffffffffffffff021916908373ffffffffffffffffffffffffffffffffffffffff160217905550610bb860158190555060155460148190555067016345785d8a000060128190555068056bc75e2d6310000060138190555080600a8190555082601760006101000a81548160ff0219169083151502179055506200011686620002e160201b60201c565b6200012785620003fe60201b60201c565b6200014c7355d398326f99059ff775485246999027b31979556200051b60201b60201c565b620001717310ed43c718714eb63d5aa57b78b54704e256024e6200063860201b60201c565b6200019673a5f8c5dbd5f286960b9d90548680ae5ebff076526200075560201b60201c565b620001bb730ed7e52944161450477ee417de9cd3a859b14fd06200087260201b60201c565b620001cc846200098f60201b60201c565b5050505050508073ffffffffffffffffffffffffffffffffffffffff1660808173ffffffffffffffffffffffffffffffffffffffff1660601b8152505050505050505062000cf1565b600033905090565b60008060009054906101000a900473ffffffffffffffffffffffffffffffffffffffff169050816000806101000a81548173ffffffffffffffffffffffffffffffffffffffff021916908373ffffffffffffffffffffffffffffffffffffffff1602179055508173ffffffffffffffffffffffffffffffffffffffff168173ffffffffffffffffffffffffffffffffffffffff167f8be0079c531659141344cd1fd0a4f28419497f9722a3daafe3b4186f6b6457e060405160405180910390a35050565b620002f162000aac60201b60201c565b73ffffffffffffffffffffffffffffffffffffffff163373ffffffffffffffffffffffffffffffffffffffff161480620003785750600b60009054906101000a900473ffffffffffffffffffffffffffffffffffffffff1673ffffffffffffffffffffffffffffffffffffffff163373ffffffffffffffffffffffffffffffffffffffff16145b620003ba576040517f08c379a0000000000000000000000000000000000000000000000000000000008152600401620003b19062000bd7565b60405180910390fd5b80600360006101000a81548173ffffffffffffffffffffffffffffffffffffffff021916908373ffffffffffffffffffffffffffffffffffffffff16021790555050565b6200040e62000aac60201b60201c565b73ffffffffffffffffffffffffffffffffffffffff163373ffffffffffffffffffffffffffffffffffffffff161480620004955750600b60009054906101000a900473ffffffffffffffffffffffffffffffffffffffff1673ffffffffffffffffffffffffffffffffffffffff163373ffffffffffffffffffffffffffffffffffffffff16145b620004d7576040517f08c379a0000000000000000000000000000000000000000000000000000000008152600401620004ce9062000bd7565b60405180910390fd5b80600460006101000a81548173ffffffffffffffffffffffffffffffffffffffff021916908373ffffffffffffffffffffffffffffffffffffffff16021790555050565b6200052b62000aac60201b60201c565b73ffffffffffffffffffffffffffffffffffffffff163373ffffffffffffffffffffffffffffffffffffffff161480620005b25750600b60009054906101000a900473ffffffffffffffffffffffffffffffffffffffff1673ffffffffffffffffffffffffffffffffffffffff163373ffffffffffffffffffffffffffffffffffffffff16145b620005f4576040517f08c379a0000000000000000000000000000000000000000000000000000000008152600401620005eb9062000bd7565b60405180910390fd5b80600560006101000a81548173ffffffffffffffffffffffffffffffffffffffff021916908373ffffffffffffffffffffffffffffffffffffffff16021790555050565b6200064862000aac60201b60201c565b73ffffffffffffffffffffffffffffffffffffffff163373ffffffffffffffffffffffffffffffffffffffff161480620006cf5750600b60009054906101000a900473ffffffffffffffffffffffffffffffffffffffff1673ffffffffffffffffffffffffffffffffffffffff163373ffffffffffffffffffffffffffffffffffffffff16145b62000711576040517f08c379a0000000000000000000000000000000000000000000000000000000008152600401620007089062000bd7565b60405180910390fd5b80600660006101000a81548173ffffffffffffffffffffffffffffffffffffffff021916908373ffffffffffffffffffffffffffffffffffffffff16021790555050565b6200076562000aac60201b60201c565b73ffffffffffffffffffffffffffffffffffffffff163373ffffffffffffffffffffffffffffffffffffffff161480620007ec5750600b60009054906101000a900473ffffffffffffffffffffffffffffffffffffffff1673ffffffffffffffffffffffffffffffffffffffff163373ffffffffffffffffffffffffffffffffffffffff16145b6200082e576040517f08c379a0000000000000000000000000000000000000000000000000000000008152600401620008259062000bd7565b60405180910390fd5b80600760006101000a81548173ffffffffffffffffffffffffffffffffffffffff021916908373ffffffffffffffffffffffffffffffffffffffff16021790555050565b6200088262000aac60201b60201c565b73ffffffffffffffffffffffffffffffffffffffff163373ffffffffffffffffffffffffffffffffffffffff161480620009095750600b60009054906101000a900473ffffffffffffffffffffffffffffffffffffffff1673ffffffffffffffffffffffffffffffffffffffff163373ffffffffffffffffffffffffffffffffffffffff16145b6200094b576040517f08c379a0000000000000000000000000000000000000000000000000000000008152600401620009429062000bd7565b60405180910390fd5b80600860006101000a81548173ffffffffffffffffffffffffffffffffffffffff021916908373ffffffffffffffffffffffffffffffffffffffff16021790555050565b6200099f62000aac60201b60201c565b73ffffffffffffffffffffffffffffffffffffffff163373ffffffffffffffffffffffffffffffffffffffff16148062000a265750600b60009054906101000a900473ffffffffffffffffffffffffffffffffffffffff1673ffffffffffffffffffffffffffffffffffffffff163373ffffffffffffffffffffffffffffffffffffffff16145b62000a68576040517f08c379a000000000000000000000000000000000000000000000000000000000815260040162000a5f9062000bd7565b60405180910390fd5b80600960006101000a81548173ffffffffffffffffffffffffffffffffffffffff021916908373ffffffffffffffffffffffffffffffffffffffff16021790555050565b60008060009054906101000a900473ffffffffffffffffffffffffffffffffffffffff16905090565b60008151905062000ae68162000ca3565b92915050565b60008151905062000afd8162000cbd565b92915050565b60008151905062000b148162000cd7565b92915050565b60008060008060008060c0878903121562000b3457600080fd5b600062000b4489828a0162000ad5565b965050602062000b5789828a0162000ad5565b955050604062000b6a89828a0162000aec565b945050606062000b7d89828a0162000ad5565b935050608062000b9089828a0162000b03565b92505060a062000ba389828a0162000ad5565b9150509295509295509295565b600062000bbf60228362000bf9565b915062000bcc8262000c54565b604082019050919050565b6000602082019050818103600083015262000bf28162000bb0565b9050919050565b600082825260208201905092915050565b600062000c178262000c2a565b9050919050565b60008115159050919050565b600073ffffffffffffffffffffffffffffffffffffffff82169050919050565b6000819050919050565b7f43616c6c6572206973206e6f742062656e6566696369617279206f72206f776e60008201527f6572000000000000000000000000000000000000000000000000000000000000602082015250565b62000cae8162000c0a565b811462000cba57600080fd5b50565b62000cc88162000c1e565b811462000cd457600080fd5b50565b62000ce28162000c4a565b811462000cee57600080fd5b50565b60805160601c615c6362000d106000396000610a5b0152615c636000f3fe60806040526004361061021e5760003560e01c8063715018a611610123578063cb0a14eb116100ab578063e2bbb1581161006f578063e2bbb158146107cc578063eedbc056146107fc578063f2fde38b14610825578063f914958b1461084e578063fd0b2fec1461088b57610225565b8063cb0a14eb146106e7578063d21220a714610710578063d736f8a61461073b578063d80ffb2014610764578063dde7cd511461078f57610225565b80638da5cb5b116100f25780638da5cb5b14610602578063929066f51461062d578063b88a802f1461066a578063bf4f000414610681578063c0cb7c6a146106aa57610225565b8063715018a61461056e5780637a6620d1146105855780637ce3489b146105ae578063851ed85e146105d757610225565b806323e3fbd5116101a657806338af3eed1161017557806338af3eed14610486578063457aa181146104b157806351b80e41146104da5780635aa68ac01461050557806370a082311461053157610225565b806323e3fbd5146103a3578063295f39b1146103e05780632e1a7d4d1461040c57806335c1d3491461044957610225565b80631c3b3902116101ed5780631c3b3902146102c05780631d62ebd9146102e95780631d6ca518146103265780631dc211941461034f57806323ce7fb81461037a57610225565b80630dfe16811461022a5780630eecae2114610255578063158f3fe81461026c5780631c31f7101461029757610225565b3661022557005b600080fd5b34801561023657600080fd5b5061023f6108b4565b60405161024c9190615058565b60405180910390f35b34801561026157600080fd5b5061026a6108da565b005b34801561027857600080fd5b50610281610d9a565b60405161028e9190615495565b60405180910390f35b3480156102a357600080fd5b506102be60048036038101906102b99190614a28565b610da0565b005b3480156102cc57600080fd5b506102e760048036038101906102e29190614a28565b610f2d565b005b3480156102f557600080fd5b50610310600480360381019061030b9190614a28565b61103e565b60405161031d9190615495565b60405180910390f35b34801561033257600080fd5b5061034d60048036038101906103489190614bff565b611056565b005b34801561035b57600080fd5b5061036461112d565b6040516103719190615495565b60405180910390f35b34801561038657600080fd5b506103a1600480360381019061039c9190614a28565b611132565b005b3480156103af57600080fd5b506103ca60048036038101906103c59190614a28565b611243565b6040516103d79190615495565b60405180910390f35b3480156103ec57600080fd5b506103f561125b565b604051610403929190615517565b60405180910390f35b34801561041857600080fd5b50610433600480360381019061042e9190614bff565b611407565b604051610440919061527a565b60405180910390f35b34801561045557600080fd5b50610470600480360381019061046b9190614bff565b6117c7565b60405161047d9190615058565b60405180910390f35b34801561049257600080fd5b5061049b611806565b6040516104a89190615058565b60405180910390f35b3480156104bd57600080fd5b506104d860048036038101906104d39190614bff565b61182c565b005b3480156104e657600080fd5b506104ef611903565b6040516104fc9190615495565b60405180910390f35b34801561051157600080fd5b5061051a611909565b60405161052892919061524a565b60405180910390f35b34801561053d57600080fd5b5061055860048036038101906105539190614a28565b611b42565b6040516105659190615495565b60405180910390f35b34801561057a57600080fd5b50610583611b5a565b005b34801561059157600080fd5b506105ac60048036038101906105a79190614a28565b611b6e565b005b3480156105ba57600080fd5b506105d560048036038101906105d09190614bff565b611c7f565b005b3480156105e357600080fd5b506105ec611dcb565b6040516105f99190615495565b60405180910390f35b34801561060e57600080fd5b50610617611dd1565b6040516106249190615058565b60405180910390f35b34801561063957600080fd5b50610654600480360381019061064f9190614a28565b611dfa565b604051610661919061527a565b60405180910390f35b34801561067657600080fd5b5061067f611e50565b005b34801561068d57600080fd5b506106a860048036038101906106a39190614a28565b612046565b005b3480156106b657600080fd5b506106d160048036038101906106cc9190614a28565b612157565b6040516106de9190615495565b60405180910390f35b3480156106f357600080fd5b5061070e60048036038101906107099190614a28565b61216f565b005b34801561071c57600080fd5b50610725612280565b6040516107329190615058565b60405180910390f35b34801561074757600080fd5b50610762600480360381019061075d9190614a51565b6122a6565b005b34801561077057600080fd5b50610779612501565b6040516107869190615495565b60405180910390f35b34801561079b57600080fd5b506107b660048036038101906107b19190614a28565b612507565b6040516107c3919061527a565b60405180910390f35b6107e660048036038101906107e19190614ca0565b612527565b6040516107f3919061527a565b60405180910390f35b34801561080857600080fd5b50610823600480360381019061081e9190614a28565b612950565b005b34801561083157600080fd5b5061084c60048036038101906108479190614a28565b612a61565b005b34801561085a57600080fd5b5061087560048036038101906108709190614c51565b612ae5565b6040516108829190615495565b60405180910390f35b34801561089757600080fd5b506108b260048036038101906108ad9190614a28565b612dba565b005b600360009054906101000a900473ffffffffffffffffffffffffffffffffffffffff1681565b6108e2611dd1565b73ffffffffffffffffffffffffffffffffffffffff163373ffffffffffffffffffffffffffffffffffffffff1614806109685750600b60009054906101000a900473ffffffffffffffffffffffffffffffffffffffff1673ffffffffffffffffffffffffffffffffffffffff163373ffffffffffffffffffffffffffffffffffffffff16145b6109a7576040517f08c379a000000000000000000000000000000000000000000000000000000000815260040161099e90615335565b60405180910390fd5b6000600360009054906101000a900473ffffffffffffffffffffffffffffffffffffffff1673ffffffffffffffffffffffffffffffffffffffff166370a08231306040518263ffffffff1660e01b8152600401610a049190615058565b60206040518083038186803b158015610a1c57600080fd5b505afa158015610a30573d6000803e3d6000fd5b505050506040513d601f19601f82011682018060405250810190610a549190614c28565b90506000807f000000000000000000000000000000000000000000000000000000000000000073ffffffffffffffffffffffffffffffffffffffff1663db39d6396040518163ffffffff1660e01b815260040160006040518083038186803b158015610abf57600080fd5b505afa158015610ad3573d6000803e3d6000fd5b505050506040513d6000823e3d601f19601f82011682018060405250810190610afc9190614ada565b915091506000815190506000811115610d8b576000849050600080600090505b83811015610b8557848181518110610b5d577f4e487b7100000000000000000000000000000000000000000000000000000000600052603260045260246000fd5b602002602001015182610b709190615607565b91508080610b7d906157d1565b915050610b1c565b5060016000815480929190610b99906157d1565b919050555060005b83811015610d3c576000868281518110610be4577f4e487b7100000000000000000000000000000000000000000000000000000000600052603260045260246000fd5b602002602001015190506000836064888581518110610c2c577f4e487b7100000000000000000000000000000000000000000000000000000000600052603260045260246000fd5b6020026020010151610c3e919061568e565b610c48919061565d565b9050600060648287610c5a919061568e565b610c64919061565d565b905080600f60008573ffffffffffffffffffffffffffffffffffffffff1673ffffffffffffffffffffffffffffffffffffffff1681526020019081526020016000206000828254610cb59190615607565b925050819055508060166000828254610cce9190615607565b925050819055508273ffffffffffffffffffffffffffffffffffffffff166001547f9515c6f2bffb313099bcee0fbec701e0d75b3e20ca6032804286cb49bb4af2b483604051610d1e9190615495565b60405180910390a35050508080610d34906157d1565b915050610ba1565b506001547f7499611827a1dc9f9fc8242a819e0ba432979cec101754acb79aa4f8d85ad5a587600080604051610d74939291906154e0565b60405180910390a2610d84612ecb565b5050610d94565b610d93612ecb565b5b50505050565b60135481565b610da8611dd1565b73ffffffffffffffffffffffffffffffffffffffff163373ffffffffffffffffffffffffffffffffffffffff161480610e2e5750600b60009054906101000a900473ffffffffffffffffffffffffffffffffffffffff1673ffffffffffffffffffffffffffffffffffffffff163373ffffffffffffffffffffffffffffffffffffffff16145b610e6d576040517f08c379a0000000000000000000000000000000000000000000000000000000008152600401610e6490615335565b60405180910390fd5b8073ffffffffffffffffffffffffffffffffffffffff16600b60009054906101000a900473ffffffffffffffffffffffffffffffffffffffff1673ffffffffffffffffffffffffffffffffffffffff167f768099735d1c322a05a5b9d7b76d99682a1833d3f7055e5ede25e0f2eeaa8c6d60405160405180910390a380600b60006101000a81548173ffffffffffffffffffffffffffffffffffffffff021916908373ffffffffffffffffffffffffffffffffffffffff16021790555050565b610f35611dd1565b73ffffffffffffffffffffffffffffffffffffffff163373ffffffffffffffffffffffffffffffffffffffff161480610fbb5750600b60009054906101000a900473ffffffffffffffffffffffffffffffffffffffff1673ffffffffffffffffffffffffffffffffffffffff163373ffffffffffffffffffffffffffffffffffffffff16145b610ffa576040517f08c379a0000000000000000000000000000000000000000000000000000000008152600401610ff190615335565b60405180910390fd5b80600960006101000a81548173ffffffffffffffffffffffffffffffffffffffff021916908373ffffffffffffffffffffffffffffffffffffffff16021790555050565b600f6020528060005260406000206000915090505481565b61105e611dd1565b73ffffffffffffffffffffffffffffffffffffffff163373ffffffffffffffffffffffffffffffffffffffff1614806110e45750600b60009054906101000a900473ffffffffffffffffffffffffffffffffffffffff1673ffffffffffffffffffffffffffffffffffffffff163373ffffffffffffffffffffffffffffffffffffffff16145b611123576040517f08c379a000000000000000000000000000000000000000000000000000000000815260040161111a90615335565b60405180910390fd5b8060138190555050565b600090565b61113a611dd1565b73ffffffffffffffffffffffffffffffffffffffff163373ffffffffffffffffffffffffffffffffffffffff1614806111c05750600b60009054906101000a900473ffffffffffffffffffffffffffffffffffffffff1673ffffffffffffffffffffffffffffffffffffffff163373ffffffffffffffffffffffffffffffffffffffff16145b6111ff576040517f08c379a00000000000000000000000000000000000000000000000000000000081526004016111f690615335565b60405180910390fd5b80600760006101000a81548173ffffffffffffffffffffffffffffffffffffffff021916908373ffffffffffffffffffffffffffffffffffffffff16021790555050565b600c6020528060005260406000206000915090505481565b600080600080600860009054906101000a900473ffffffffffffffffffffffffffffffffffffffff1673ffffffffffffffffffffffffffffffffffffffff16630902f1ac6040518163ffffffff1660e01b815260040160606040518083038186803b1580156112c957600080fd5b505afa1580156112dd573d6000803e3d6000fd5b505050506040513d601f19601f820116820180604052508101906113019190614bb0565b50915091506000600860009054906101000a900473ffffffffffffffffffffffffffffffffffffffff1673ffffffffffffffffffffffffffffffffffffffff166318160ddd6040518163ffffffff1660e01b815260040160206040518083038186803b15801561137057600080fd5b505afa158015611384573d6000803e3d6000fd5b505050506040513d601f19601f820116820180604052508101906113a89190614c28565b905080600254846dffffffffffffffffffffffffffff166113c9919061568e565b6113d3919061565d565b945080600254836dffffffffffffffffffffffffffff166113f4919061568e565b6113fe919061565d565b93505050509091565b600081600e60003373ffffffffffffffffffffffffffffffffffffffff1673ffffffffffffffffffffffffffffffffffffffff16815260200190815260200160002054600c60003373ffffffffffffffffffffffffffffffffffffffff1673ffffffffffffffffffffffffffffffffffffffff16815260200190815260200160002054600d60003373ffffffffffffffffffffffffffffffffffffffff1673ffffffffffffffffffffffffffffffffffffffff168152602001908152602001600020546114d49190615607565b6114de91906156e8565b101561151f576040517f08c379a000000000000000000000000000000000000000000000000000000000815260040161151690615355565b60405180910390fd5b60008061152a61125b565b91509150600060025461158283600460009054906101000a900473ffffffffffffffffffffffffffffffffffffffff16600560009054906101000a900473ffffffffffffffffffffffffffffffffffffffff16612ae5565b6115d185600360009054906101000a900473ffffffffffffffffffffffffffffffffffffffff16600560009054906101000a900473ffffffffffffffffffffffffffffffffffffffff16612ae5565b6115db9190615607565b86600e60003373ffffffffffffffffffffffffffffffffffffffff1673ffffffffffffffffffffffffffffffffffffffff16815260200190815260200160002054600c60003373ffffffffffffffffffffffffffffffffffffffff1673ffffffffffffffffffffffffffffffffffffffff16815260200190815260200160002054600d60003373ffffffffffffffffffffffffffffffffffffffff1673ffffffffffffffffffffffffffffffffffffffff168152602001908152602001600020546116a69190615607565b6116b091906156e8565b6116ba91906156e8565b6116c4919061568e565b6116ce919061565d565b905060008114806116e157506012548110155b611720576040517f08c379a0000000000000000000000000000000000000000000000000000000008152600401611717906153f5565b60405180910390fd5b601354811115611765576040517f08c379a000000000000000000000000000000000000000000000000000000000815260040161175c906153b5565b60405180910390fd5b84600e60003373ffffffffffffffffffffffffffffffffffffffff1673ffffffffffffffffffffffffffffffffffffffff16815260200190815260200160002060008282546117b49190615607565b9250508190555060019350505050919050565b601081815481106117d757600080fd5b906000526020600020016000915054906101000a900473ffffffffffffffffffffffffffffffffffffffff1681565b600b60009054906101000a900473ffffffffffffffffffffffffffffffffffffffff1681565b611834611dd1565b73ffffffffffffffffffffffffffffffffffffffff163373ffffffffffffffffffffffffffffffffffffffff1614806118ba5750600b60009054906101000a900473ffffffffffffffffffffffffffffffffffffffff1673ffffffffffffffffffffffffffffffffffffffff163373ffffffffffffffffffffffffffffffffffffffff16145b6118f9576040517f08c379a00000000000000000000000000000000000000000000000000000000081526004016118f090615335565b60405180910390fd5b8060128190555050565b60125481565b6060600060108054905067ffffffffffffffff811115611952577f4e487b7100000000000000000000000000000000000000000000000000000000600052604160045260246000fd5b6040519080825280602002602001820160405280156119805781602001602082028036833780820191505090505b5091506000905060005b601080549050811015611b3d576000600d6000601084815481106119d7577f4e487b7100000000000000000000000000000000000000000000000000000000600052603260045260246000fd5b9060005260206000200160009054906101000a900473ffffffffffffffffffffffffffffffffffffffff1673ffffffffffffffffffffffffffffffffffffffff1673ffffffffffffffffffffffffffffffffffffffff168152602001908152602001600020541115611b2a5760108181548110611a7d577f4e487b7100000000000000000000000000000000000000000000000000000000600052603260045260246000fd5b9060005260206000200160009054906101000a900473ffffffffffffffffffffffffffffffffffffffff16838381518110611ae1577f4e487b7100000000000000000000000000000000000000000000000000000000600052603260045260246000fd5b602002602001019073ffffffffffffffffffffffffffffffffffffffff16908173ffffffffffffffffffffffffffffffffffffffff16815250508180611b26906157d1565b9250505b8080611b35906157d1565b91505061198a565b509091565b600d6020528060005260406000206000915090505481565b611b62613ade565b611b6c6000613b5c565b565b611b76611dd1565b73ffffffffffffffffffffffffffffffffffffffff163373ffffffffffffffffffffffffffffffffffffffff161480611bfc5750600b60009054906101000a900473ffffffffffffffffffffffffffffffffffffffff1673ffffffffffffffffffffffffffffffffffffffff163373ffffffffffffffffffffffffffffffffffffffff16145b611c3b576040517f08c379a0000000000000000000000000000000000000000000000000000000008152600401611c3290615335565b60405180910390fd5b80600360006101000a81548173ffffffffffffffffffffffffffffffffffffffff021916908373ffffffffffffffffffffffffffffffffffffffff16021790555050565b611c87611dd1565b73ffffffffffffffffffffffffffffffffffffffff163373ffffffffffffffffffffffffffffffffffffffff161480611d0d5750600b60009054906101000a900473ffffffffffffffffffffffffffffffffffffffff1673ffffffffffffffffffffffffffffffffffffffff163373ffffffffffffffffffffffffffffffffffffffff16145b611d4c576040517f08c379a0000000000000000000000000000000000000000000000000000000008152600401611d4390615335565b60405180910390fd5b601554811115611d91576040517f08c379a0000000000000000000000000000000000000000000000000000000008152600401611d88906152b5565b60405180910390fd5b806014547f44cb215a0ee4011e0802aea4220545b8f823c5041bb303a4ae1219f99f91e65b60405160405180910390a38060148190555050565b60025481565b60008060009054906101000a900473ffffffffffffffffffffffffffffffffffffffff16905090565b6000601160008373ffffffffffffffffffffffffffffffffffffffff1673ffffffffffffffffffffffffffffffffffffffff16815260200190815260200160002060009054906101000a900460ff169050919050565b6000600f60003373ffffffffffffffffffffffffffffffffffffffff1673ffffffffffffffffffffffffffffffffffffffff1681526020019081526020016000205411611ed2576040517f08c379a0000000000000000000000000000000000000000000000000000000008152600401611ec990615395565b60405180910390fd5b600360009054906101000a900473ffffffffffffffffffffffffffffffffffffffff1673ffffffffffffffffffffffffffffffffffffffff1663a9059cbb33600f60003373ffffffffffffffffffffffffffffffffffffffff1673ffffffffffffffffffffffffffffffffffffffff168152602001908152602001600020546040518363ffffffff1660e01b8152600401611f6e9291906151c0565b602060405180830381600087803b158015611f8857600080fd5b505af1158015611f9c573d6000803e3d6000fd5b505050506040513d601f19601f82011682018060405250810190611fc09190614b87565b611fff576040517f08c379a0000000000000000000000000000000000000000000000000000000008152600401611ff690615455565b60405180910390fd5b6000600f60003373ffffffffffffffffffffffffffffffffffffffff1673ffffffffffffffffffffffffffffffffffffffff16815260200190815260200160002081905550565b61204e611dd1565b73ffffffffffffffffffffffffffffffffffffffff163373ffffffffffffffffffffffffffffffffffffffff1614806120d45750600b60009054906101000a900473ffffffffffffffffffffffffffffffffffffffff1673ffffffffffffffffffffffffffffffffffffffff163373ffffffffffffffffffffffffffffffffffffffff16145b612113576040517f08c379a000000000000000000000000000000000000000000000000000000000815260040161210a90615335565b60405180910390fd5b80600560006101000a81548173ffffffffffffffffffffffffffffffffffffffff021916908373ffffffffffffffffffffffffffffffffffffffff16021790555050565b600e6020528060005260406000206000915090505481565b612177611dd1565b73ffffffffffffffffffffffffffffffffffffffff163373ffffffffffffffffffffffffffffffffffffffff1614806121fd5750600b60009054906101000a900473ffffffffffffffffffffffffffffffffffffffff1673ffffffffffffffffffffffffffffffffffffffff163373ffffffffffffffffffffffffffffffffffffffff16145b61223c576040517f08c379a000000000000000000000000000000000000000000000000000000000815260040161223390615335565b60405180910390fd5b80600460006101000a81548173ffffffffffffffffffffffffffffffffffffffff021916908373ffffffffffffffffffffffffffffffffffffffff16021790555050565b600460009054906101000a900473ffffffffffffffffffffffffffffffffffffffff1681565b6122ae611dd1565b73ffffffffffffffffffffffffffffffffffffffff163373ffffffffffffffffffffffffffffffffffffffff1614806123345750600b60009054906101000a900473ffffffffffffffffffffffffffffffffffffffff1673ffffffffffffffffffffffffffffffffffffffff163373ffffffffffffffffffffffffffffffffffffffff16145b612373576040517f08c379a000000000000000000000000000000000000000000000000000000000815260040161236a90615335565b60405180910390fd5b85600360006101000a81548173ffffffffffffffffffffffffffffffffffffffff021916908373ffffffffffffffffffffffffffffffffffffffff16021790555084600460006101000a81548173ffffffffffffffffffffffffffffffffffffffff021916908373ffffffffffffffffffffffffffffffffffffffff16021790555082600660006101000a81548173ffffffffffffffffffffffffffffffffffffffff021916908373ffffffffffffffffffffffffffffffffffffffff16021790555081600760006101000a81548173ffffffffffffffffffffffffffffffffffffffff021916908373ffffffffffffffffffffffffffffffffffffffff16021790555080600860006101000a81548173ffffffffffffffffffffffffffffffffffffffff021916908373ffffffffffffffffffffffffffffffffffffffff16021790555083600560006101000a81548173ffffffffffffffffffffffffffffffffffffffff021916908373ffffffffffffffffffffffffffffffffffffffff160217905550505050505050565b60015481565b60116020528060005260406000206000915054906101000a900460ff1681565b6000601760009054906101000a900460ff161561258557348214612580576040517f08c379a0000000000000000000000000000000000000000000000000000000008152600401612577906152f5565b60405180910390fd5b612762565b81600460009054906101000a900473ffffffffffffffffffffffffffffffffffffffff1673ffffffffffffffffffffffffffffffffffffffff166370a08231336040518263ffffffff1660e01b81526004016125e19190615058565b60206040518083038186803b1580156125f957600080fd5b505afa15801561260d573d6000803e3d6000fd5b505050506040513d601f19601f820116820180604052508101906126319190614c28565b1015612672576040517f08c379a000000000000000000000000000000000000000000000000000000000815260040161266990615415565b60405180910390fd5b81600460009054906101000a900473ffffffffffffffffffffffffffffffffffffffff1673ffffffffffffffffffffffffffffffffffffffff1663dd62ed3e33306040518363ffffffff1660e01b81526004016126d0929190615073565b60206040518083038186803b1580156126e857600080fd5b505afa1580156126fc573d6000803e3d6000fd5b505050506040513d601f19601f820116820180604052508101906127209190614c28565b1015612761576040517f08c379a000000000000000000000000000000000000000000000000000000000815260040161275890615295565b60405180910390fd5b5b82600360009054906101000a900473ffffffffffffffffffffffffffffffffffffffff1673ffffffffffffffffffffffffffffffffffffffff166370a08231336040518263ffffffff1660e01b81526004016127be9190615058565b60206040518083038186803b1580156127d657600080fd5b505afa1580156127ea573d6000803e3d6000fd5b505050506040513d601f19601f8201168201806040525081019061280e9190614c28565b101561284f576040517f08c379a000000000000000000000000000000000000000000000000000000000815260040161284690615315565b60405180910390fd5b82600360009054906101000a900473ffffffffffffffffffffffffffffffffffffffff1673ffffffffffffffffffffffffffffffffffffffff1663dd62ed3e33306040518363ffffffff1660e01b81526004016128ad929190615073565b60206040518083038186803b1580156128c557600080fd5b505afa1580156128d9573d6000803e3d6000fd5b505050506040513d601f19601f820116820180604052508101906128fd9190614c28565b101561293e576040517f08c379a0000000000000000000000000000000000000000000000000000000008152600401612935906153d5565b60405180910390fd5b6129488383613c20565b905092915050565b612958611dd1565b73ffffffffffffffffffffffffffffffffffffffff163373ffffffffffffffffffffffffffffffffffffffff1614806129de5750600b60009054906101000a900473ffffffffffffffffffffffffffffffffffffffff1673ffffffffffffffffffffffffffffffffffffffff163373ffffffffffffffffffffffffffffffffffffffff16145b612a1d576040517f08c379a0000000000000000000000000000000000000000000000000000000008152600401612a1490615335565b60405180910390fd5b80600660006101000a81548173ffffffffffffffffffffffffffffffffffffffff021916908373ffffffffffffffffffffffffffffffffffffffff16021790555050565b612a69613ade565b600073ffffffffffffffffffffffffffffffffffffffff168173ffffffffffffffffffffffffffffffffffffffff161415612ad9576040517f08c379a0000000000000000000000000000000000000000000000000000000008152600401612ad0906152d5565b60405180910390fd5b612ae281613b5c565b50565b60006060600267ffffffffffffffff811115612b2a577f4e487b7100000000000000000000000000000000000000000000000000000000600052604160045260246000fd5b604051908082528060200260200182016040528015612b585781602001602082028036833780820191505090505b5090508381600081518110612b96577f4e487b7100000000000000000000000000000000000000000000000000000000600052603260045260246000fd5b602002602001019073ffffffffffffffffffffffffffffffffffffffff16908173ffffffffffffffffffffffffffffffffffffffff16815250508281600181518110612c0b577f4e487b7100000000000000000000000000000000000000000000000000000000600052603260045260246000fd5b602002602001019073ffffffffffffffffffffffffffffffffffffffff16908173ffffffffffffffffffffffffffffffffffffffff16815250506060600267ffffffffffffffff811115612c88577f4e487b7100000000000000000000000000000000000000000000000000000000600052604160045260246000fd5b604051908082528060200260200182016040528015612cb65781602001602082028036833780820191505090505b509050600660009054906101000a900473ffffffffffffffffffffffffffffffffffffffff1673ffffffffffffffffffffffffffffffffffffffff1663d06ca61f87846040518363ffffffff1660e01b8152600401612d169291906154b0565b60006040518083038186803b158015612d2e57600080fd5b505afa158015612d42573d6000803e3d6000fd5b505050506040513d6000823e3d601f19601f82011682018060405250810190612d6b9190614b46565b905080600181518110612da7577f4e487b7100000000000000000000000000000000000000000000000000000000600052603260045260246000fd5b6020026020010151925050509392505050565b612dc2611dd1565b73ffffffffffffffffffffffffffffffffffffffff163373ffffffffffffffffffffffffffffffffffffffff161480612e485750600b60009054906101000a900473ffffffffffffffffffffffffffffffffffffffff1673ffffffffffffffffffffffffffffffffffffffff163373ffffffffffffffffffffffffffffffffffffffff16145b612e87576040517f08c379a0000000000000000000000000000000000000000000000000000000008152600401612e7e90615335565b60405180910390fd5b80600860006101000a81548173ffffffffffffffffffffffffffffffffffffffff021916908373ffffffffffffffffffffffffffffffffffffffff16021790555050565b60005b601080549050811015613adb57600060108281548110612f17577f4e487b7100000000000000000000000000000000000000000000000000000000600052603260045260246000fd5b9060005260206000200160009054906101000a900473ffffffffffffffffffffffffffffffffffffffff1690506000600c60008373ffffffffffffffffffffffffffffffffffffffff1673ffffffffffffffffffffffffffffffffffffffff16815260200190815260200160002054111561306757600c60008273ffffffffffffffffffffffffffffffffffffffff1673ffffffffffffffffffffffffffffffffffffffff16815260200190815260200160002054600d60008373ffffffffffffffffffffffffffffffffffffffff1673ffffffffffffffffffffffffffffffffffffffff168152602001908152602001600020600082825461301a9190615607565b925050819055506000600c60008373ffffffffffffffffffffffffffffffffffffffff1673ffffffffffffffffffffffffffffffffffffffff168152602001908152602001600020819055505b6000600e60008373ffffffffffffffffffffffffffffffffffffffff1673ffffffffffffffffffffffffffffffffffffffff168152602001908152602001600020541180156131345750600d60008273ffffffffffffffffffffffffffffffffffffffff1673ffffffffffffffffffffffffffffffffffffffff16815260200190815260200160002054600e60008373ffffffffffffffffffffffffffffffffffffffff1673ffffffffffffffffffffffffffffffffffffffff1681526020019081526020016000205411155b15613ac757600e60008273ffffffffffffffffffffffffffffffffffffffff1673ffffffffffffffffffffffffffffffffffffffff16815260200190815260200160002054600d60008373ffffffffffffffffffffffffffffffffffffffff1673ffffffffffffffffffffffffffffffffffffffff16815260200190815260200160002060008282546131c791906156e8565b92505081905550600760009054906101000a900473ffffffffffffffffffffffffffffffffffffffff1673ffffffffffffffffffffffffffffffffffffffff1663441a3e70600a54600e60008573ffffffffffffffffffffffffffffffffffffffff1673ffffffffffffffffffffffffffffffffffffffff168152602001908152602001600020546040518363ffffffff1660e01b815260040161326c929190615517565b600060405180830381600087803b15801561328657600080fd5b505af115801561329a573d6000803e3d6000fd5b50505050600860009054906101000a900473ffffffffffffffffffffffffffffffffffffffff1673ffffffffffffffffffffffffffffffffffffffff1663095ea7b3600660009054906101000a900473ffffffffffffffffffffffffffffffffffffffff16600e60008573ffffffffffffffffffffffffffffffffffffffff1673ffffffffffffffffffffffffffffffffffffffff168152602001908152602001600020546040518363ffffffff1660e01b815260040161335c9291906151c0565b602060405180830381600087803b15801561337657600080fd5b505af115801561338a573d6000803e3d6000fd5b505050506040513d601f19601f820116820180604052508101906133ae9190614b87565b506000806133ba61125b565b91509150601760009054906101000a900460ff16156136eb57600080600660009054906101000a900473ffffffffffffffffffffffffffffffffffffffff1673ffffffffffffffffffffffffffffffffffffffff166302751cec600360009054906101000a900473ffffffffffffffffffffffffffffffffffffffff16600e60008973ffffffffffffffffffffffffffffffffffffffff1673ffffffffffffffffffffffffffffffffffffffff168152602001908152602001600020546002546126ac612710600e60008d73ffffffffffffffffffffffffffffffffffffffff1673ffffffffffffffffffffffffffffffffffffffff168152602001908152602001600020548b6134cb919061568e565b6134d5919061565d565b6134df919061568e565b6134e9919061565d565b6002546126ac612710600e60008e73ffffffffffffffffffffffffffffffffffffffff1673ffffffffffffffffffffffffffffffffffffffff168152602001908152602001600020548b61353d919061568e565b613547919061565d565b613551919061568e565b61355b919061565d565b306104b04261356a9190615607565b6040518763ffffffff1660e01b815260040161358b969594939291906151e9565b6040805180830381600087803b1580156135a457600080fd5b505af11580156135b8573d6000803e3d6000fd5b505050506040513d601f19601f820116820180604052508101906135dc9190614cdc565b91509150600360009054906101000a900473ffffffffffffffffffffffffffffffffffffffff1673ffffffffffffffffffffffffffffffffffffffff1663a9059cbb86846040518363ffffffff1660e01b815260040161363d9291906151c0565b602060405180830381600087803b15801561365757600080fd5b505af115801561366b573d6000803e3d6000fd5b505050506040513d601f19601f8201168201806040525081019061368f9190614b87565b508473ffffffffffffffffffffffffffffffffffffffff166108fc601854836136b8919061565d565b9081150290604051600060405180830381858888f193505050501580156136e3573d6000803e3d6000fd5b505050613a7f565b600080600660009054906101000a900473ffffffffffffffffffffffffffffffffffffffff1673ffffffffffffffffffffffffffffffffffffffff1663baa2abde600360009054906101000a900473ffffffffffffffffffffffffffffffffffffffff16600460009054906101000a900473ffffffffffffffffffffffffffffffffffffffff16600e60008a73ffffffffffffffffffffffffffffffffffffffff1673ffffffffffffffffffffffffffffffffffffffff168152602001908152602001600020546002546126ac612710600e60008e73ffffffffffffffffffffffffffffffffffffffff1673ffffffffffffffffffffffffffffffffffffffff168152602001908152602001600020548c613806919061568e565b613810919061565d565b61381a919061568e565b613824919061565d565b6002546126ac612710600e60008f73ffffffffffffffffffffffffffffffffffffffff1673ffffffffffffffffffffffffffffffffffffffff168152602001908152602001600020548c613878919061568e565b613882919061565d565b61388c919061568e565b613896919061565d565b306104b0426138a59190615607565b6040518863ffffffff1660e01b81526004016138c797969594939291906150d3565b6040805180830381600087803b1580156138e057600080fd5b505af11580156138f4573d6000803e3d6000fd5b505050506040513d601f19601f820116820180604052508101906139189190614cdc565b91509150600360009054906101000a900473ffffffffffffffffffffffffffffffffffffffff1673ffffffffffffffffffffffffffffffffffffffff1663a9059cbb86846040518363ffffffff1660e01b81526004016139799291906151c0565b602060405180830381600087803b15801561399357600080fd5b505af11580156139a7573d6000803e3d6000fd5b505050506040513d601f19601f820116820180604052508101906139cb9190614b87565b50600460009054906101000a900473ffffffffffffffffffffffffffffffffffffffff1673ffffffffffffffffffffffffffffffffffffffff1663a9059cbb86836040518363ffffffff1660e01b8152600401613a299291906151c0565b602060405180830381600087803b158015613a4357600080fd5b505af1158015613a57573d6000803e3d6000fd5b505050506040513d601f19601f82011682018060405250810190613a7b9190614b87565b5050505b6000600e60008573ffffffffffffffffffffffffffffffffffffffff1673ffffffffffffffffffffffffffffffffffffffff1681526020019081526020016000208190555050505b508080613ad3906157d1565b915050612ece565b50565b613ae6614861565b73ffffffffffffffffffffffffffffffffffffffff16613b04611dd1565b73ffffffffffffffffffffffffffffffffffffffff1614613b5a576040517f08c379a0000000000000000000000000000000000000000000000000000000008152600401613b5190615375565b60405180910390fd5b565b60008060009054906101000a900473ffffffffffffffffffffffffffffffffffffffff169050816000806101000a81548173ffffffffffffffffffffffffffffffffffffffff021916908373ffffffffffffffffffffffffffffffffffffffff1602179055508173ffffffffffffffffffffffffffffffffffffffff168173ffffffffffffffffffffffffffffffffffffffff167f8be0079c531659141344cd1fd0a4f28419497f9722a3daafe3b4186f6b6457e060405160405180910390a35050565b6000600960009054906101000a900473ffffffffffffffffffffffffffffffffffffffff1673ffffffffffffffffffffffffffffffffffffffff1663929066f5336040518263ffffffff1660e01b8152600401613c7d9190615058565b60206040518083038186803b158015613c9557600080fd5b505afa158015613ca9573d6000803e3d6000fd5b505050506040513d601f19601f82011682018060405250810190613ccd9190614b87565b613d0c576040517f08c379a0000000000000000000000000000000000000000000000000000000008152600401613d0390615435565b60405180910390fd5b600080613d1761125b565b915091506000600254613d6f83600460009054906101000a900473ffffffffffffffffffffffffffffffffffffffff16600560009054906101000a900473ffffffffffffffffffffffffffffffffffffffff16612ae5565b613dbe85600360009054906101000a900473ffffffffffffffffffffffffffffffffffffffff16600560009054906101000a900473ffffffffffffffffffffffffffffffffffffffff16612ae5565b613dc89190615607565b600e60003373ffffffffffffffffffffffffffffffffffffffff1673ffffffffffffffffffffffffffffffffffffffff16815260200190815260200160002054600c60003373ffffffffffffffffffffffffffffffffffffffff1673ffffffffffffffffffffffffffffffffffffffff16815260200190815260200160002054600d60003373ffffffffffffffffffffffffffffffffffffffff1673ffffffffffffffffffffffffffffffffffffffff16815260200190815260200160002054613e929190615607565b613e9c91906156e8565b613ea6919061568e565b613eb0919061565d565b90506000613f0386600460009054906101000a900473ffffffffffffffffffffffffffffffffffffffff16600560009054906101000a900473ffffffffffffffffffffffffffffffffffffffff16612ae5565b613f5288600360009054906101000a900473ffffffffffffffffffffffffffffffffffffffff16600560009054906101000a900473ffffffffffffffffffffffffffffffffffffffff16612ae5565b613f5c9190615607565b90506012548183613f6d9190615607565b1015613fae576040517f08c379a0000000000000000000000000000000000000000000000000000000008152600401613fa5906153f5565b60405180910390fd5b6013548183613fbd9190615607565b1115613ffe576040517f08c379a0000000000000000000000000000000000000000000000000000000008152600401613ff5906153b5565b60405180910390fd5b6000600360009054906101000a900473ffffffffffffffffffffffffffffffffffffffff1673ffffffffffffffffffffffffffffffffffffffff166323b872dd33308b6040518463ffffffff1660e01b815260040161405f9392919061509c565b602060405180830381600087803b15801561407957600080fd5b505af115801561408d573d6000803e3d6000fd5b505050506040513d601f19601f820116820180604052508101906140b19190614b87565b9050806140f3576040517f08c379a00000000000000000000000000000000000000000000000000000000081526004016140ea90615475565b60405180910390fd5b6000600360009054906101000a900473ffffffffffffffffffffffffffffffffffffffff1673ffffffffffffffffffffffffffffffffffffffff1663095ea7b3600660009054906101000a900473ffffffffffffffffffffffffffffffffffffffff168b6040518363ffffffff1660e01b81526004016141749291906151c0565b602060405180830381600087803b15801561418e57600080fd5b505af11580156141a2573d6000803e3d6000fd5b505050506040513d601f19601f820116820180604052508101906141c69190614b87565b50601760009054906101000a900460ff161561430557600660009054906101000a900473ffffffffffffffffffffffffffffffffffffffff1673ffffffffffffffffffffffffffffffffffffffff1663f305d71989600360009054906101000a900473ffffffffffffffffffffffffffffffffffffffff168c6126ac6127108f614250919061565d565b61425a919061568e565b6126ac6127108f61426b919061565d565b614275919061568e565b306104b0426142849190615607565b6040518863ffffffff1660e01b81526004016142a5969594939291906151e9565b6060604051808303818588803b1580156142be57600080fd5b505af11580156142d2573d6000803e3d6000fd5b50505050506040513d601f19601f820116820180604052508101906142f79190614d18565b90915090508091505061461d565b600460009054906101000a900473ffffffffffffffffffffffffffffffffffffffff1673ffffffffffffffffffffffffffffffffffffffff166323b872dd33308b6040518463ffffffff1660e01b81526004016143649392919061509c565b602060405180830381600087803b15801561437e57600080fd5b505af1158015614392573d6000803e3d6000fd5b505050506040513d601f19601f820116820180604052508101906143b69190614b87565b6143f5576040517f08c379a00000000000000000000000000000000000000000000000000000000081526004016143ec90615475565b60405180910390fd5b600460009054906101000a900473ffffffffffffffffffffffffffffffffffffffff1673ffffffffffffffffffffffffffffffffffffffff1663095ea7b3600660009054906101000a900473ffffffffffffffffffffffffffffffffffffffff168a6040518363ffffffff1660e01b81526004016144749291906151c0565b602060405180830381600087803b15801561448e57600080fd5b505af11580156144a2573d6000803e3d6000fd5b505050506040513d601f19601f820116820180604052508101906144c69190614b87565b5060006126ac6127108b6144da919061565d565b6144e4919061568e565b905060006126ac6127108b6144f9919061565d565b614503919061568e565b9050600660009054906101000a900473ffffffffffffffffffffffffffffffffffffffff1673ffffffffffffffffffffffffffffffffffffffff1663e8e33700600360009054906101000a900473ffffffffffffffffffffffffffffffffffffffff16600460009054906101000a900473ffffffffffffffffffffffffffffffffffffffff168e8e8787306104b04261459c9190615607565b6040518963ffffffff1660e01b81526004016145bf989796959493929190615142565b606060405180830381600087803b1580156145d957600080fd5b505af11580156145ed573d6000803e3d6000fd5b505050506040513d601f19601f820116820180604052508101906146119190614d18565b90915090508093505050505b600860009054906101000a900473ffffffffffffffffffffffffffffffffffffffff1673ffffffffffffffffffffffffffffffffffffffff1663095ea7b3600760009054906101000a900473ffffffffffffffffffffffffffffffffffffffff16836040518363ffffffff1660e01b815260040161469c9291906151c0565b602060405180830381600087803b1580156146b657600080fd5b505af11580156146ca573d6000803e3d6000fd5b505050506040513d601f19601f820116820180604052508101906146ee9190614b87565b5080600c60003373ffffffffffffffffffffffffffffffffffffffff1673ffffffffffffffffffffffffffffffffffffffff168152602001908152602001600020600082825461473e9190615607565b9250508190555061474e33611dfa565b614851576001601160003373ffffffffffffffffffffffffffffffffffffffff1673ffffffffffffffffffffffffffffffffffffffff16815260200190815260200160002060006101000a81548160ff0219169083151502179055506010339080600181540180825580915050600190039060005260206000200160009091909190916101000a81548173ffffffffffffffffffffffffffffffffffffffff021916908373ffffffffffffffffffffffffffffffffffffffff1602179055503373ffffffffffffffffffffffffffffffffffffffff167f79229b212fa3ea547fb5e5b66090cf250d442b12a51854a030f3b796d528134e60405160405180910390a25b6001965050505050505092915050565b600033905090565b600061487c61487784615565565b615540565b9050808382526020820190508285602086028201111561489b57600080fd5b60005b858110156148cb57816148b18882614956565b84526020840193506020830192505060018101905061489e565b5050509392505050565b60006148e86148e384615591565b615540565b9050808382526020820190508285602086028201111561490757600080fd5b60005b85811015614937578161491d88826149fe565b84526020840193506020830192505060018101905061490a565b5050509392505050565b60008135905061495081615bba565b92915050565b60008151905061496581615bba565b92915050565b600082601f83011261497c57600080fd5b815161498c848260208601614869565b91505092915050565b600082601f8301126149a657600080fd5b81516149b68482602086016148d5565b91505092915050565b6000815190506149ce81615bd1565b92915050565b6000815190506149e381615be8565b92915050565b6000813590506149f881615bff565b92915050565b600081519050614a0d81615bff565b92915050565b600081519050614a2281615c16565b92915050565b600060208284031215614a3a57600080fd5b6000614a4884828501614941565b91505092915050565b60008060008060008060c08789031215614a6a57600080fd5b6000614a7889828a01614941565b9650506020614a8989828a01614941565b9550506040614a9a89828a01614941565b9450506060614aab89828a01614941565b9350506080614abc89828a01614941565b92505060a0614acd89828a01614941565b9150509295509295509295565b60008060408385031215614aed57600080fd5b600083015167ffffffffffffffff811115614b0757600080fd5b614b138582860161496b565b925050602083015167ffffffffffffffff811115614b3057600080fd5b614b3c85828601614995565b9150509250929050565b600060208284031215614b5857600080fd5b600082015167ffffffffffffffff811115614b7257600080fd5b614b7e84828501614995565b91505092915050565b600060208284031215614b9957600080fd5b6000614ba7848285016149bf565b91505092915050565b600080600060608486031215614bc557600080fd5b6000614bd3868287016149d4565b9350506020614be4868287016149d4565b9250506040614bf586828701614a13565b9150509250925092565b600060208284031215614c1157600080fd5b6000614c1f848285016149e9565b91505092915050565b600060208284031215614c3a57600080fd5b6000614c48848285016149fe565b91505092915050565b600080600060608486031215614c6657600080fd5b6000614c74868287016149e9565b9350506020614c8586828701614941565b9250506040614c9686828701614941565b9150509250925092565b60008060408385031215614cb357600080fd5b6000614cc1858286016149e9565b9250506020614cd2858286016149e9565b9150509250929050565b60008060408385031215614cef57600080fd5b6000614cfd858286016149fe565b9250506020614d0e858286016149fe565b9150509250929050565b600080600060608486031215614d2d57600080fd5b6000614d3b868287016149fe565b9350506020614d4c868287016149fe565b9250506040614d5d868287016149fe565b9150509250925092565b6000614d738383614d7f565b60208301905092915050565b614d888161571c565b82525050565b614d978161571c565b82525050565b6000614da8826155cd565b614db281856155e5565b9350614dbd836155bd565b8060005b83811015614dee578151614dd58882614d67565b9750614de0836155d8565b925050600181019050614dc1565b5085935050505092915050565b614e048161572e565b82525050565b614e138161578e565b82525050565b6000614e26601c836155f6565b9150614e31826158b8565b602082019050919050565b6000614e49602e836155f6565b9150614e54826158e1565b604082019050919050565b6000614e6c6026836155f6565b9150614e7782615930565b604082019050919050565b6000614e8f601d836155f6565b9150614e9a8261597f565b602082019050919050565b6000614eb26012836155f6565b9150614ebd826159a8565b602082019050919050565b6000614ed56022836155f6565b9150614ee0826159d1565b604082019050919050565b6000614ef86015836155f6565b9150614f0382615a20565b602082019050919050565b6000614f1b6020836155f6565b9150614f2682615a49565b602082019050919050565b6000614f3e600f836155f6565b9150614f4982615a72565b602082019050919050565b6000614f61601f836155f6565b9150614f6c82615a9b565b602082019050919050565b6000614f84601c836155f6565b9150614f8f82615ac4565b602082019050919050565b6000614fa7601e836155f6565b9150614fb282615aed565b602082019050919050565b6000614fca6012836155f6565b9150614fd582615b16565b602082019050919050565b6000614fed6011836155f6565b9150614ff882615b3f565b602082019050919050565b6000615010600e836155f6565b915061501b82615b68565b602082019050919050565b60006150336012836155f6565b915061503e82615b91565b602082019050919050565b61505281615774565b82525050565b600060208201905061506d6000830184614d8e565b92915050565b60006040820190506150886000830185614d8e565b6150956020830184614d8e565b9392505050565b60006060820190506150b16000830186614d8e565b6150be6020830185614d8e565b6150cb6040830184615049565b949350505050565b600060e0820190506150e8600083018a614d8e565b6150f56020830189614d8e565b6151026040830188615049565b61510f6060830187615049565b61511c6080830186615049565b61512960a0830185614d8e565b61513660c0830184615049565b98975050505050505050565b600061010082019050615158600083018b614d8e565b615165602083018a614d8e565b6151726040830189615049565b61517f6060830188615049565b61518c6080830187615049565b61519960a0830186615049565b6151a660c0830185614d8e565b6151b360e0830184615049565b9998505050505050505050565b60006040820190506151d56000830185614d8e565b6151e26020830184615049565b9392505050565b600060c0820190506151fe6000830189614d8e565b61520b6020830188615049565b6152186040830187615049565b6152256060830186615049565b6152326080830185614d8e565b61523f60a0830184615049565b979650505050505050565b600060408201905081810360008301526152648185614d9d565b90506152736020830184615049565b9392505050565b600060208201905061528f6000830184614dfb565b92915050565b600060208201905081810360008301526152ae81614e19565b9050919050565b600060208201905081810360008301526152ce81614e3c565b9050919050565b600060208201905081810360008301526152ee81614e5f565b9050919050565b6000602082019050818103600083015261530e81614e82565b9050919050565b6000602082019050818103600083015261532e81614ea5565b9050919050565b6000602082019050818103600083015261534e81614ec8565b9050919050565b6000602082019050818103600083015261536e81614eeb565b9050919050565b6000602082019050818103600083015261538e81614f0e565b9050919050565b600060208201905081810360008301526153ae81614f31565b9050919050565b600060208201905081810360008301526153ce81614f54565b9050919050565b600060208201905081810360008301526153ee81614f77565b9050919050565b6000602082019050818103600083015261540e81614f9a565b9050919050565b6000602082019050818103600083015261542e81614fbd565b9050919050565b6000602082019050818103600083015261544e81614fe0565b9050919050565b6000602082019050818103600083015261546e81615003565b9050919050565b6000602082019050818103600083015261548e81615026565b9050919050565b60006020820190506154aa6000830184615049565b92915050565b60006040820190506154c56000830185615049565b81810360208301526154d78184614d9d565b90509392505050565b60006060820190506154f56000830186615049565b6155026020830185614e0a565b61550f6040830184614e0a565b949350505050565b600060408201905061552c6000830185615049565b6155396020830184615049565b9392505050565b600061554a61555b565b905061555682826157a0565b919050565b6000604051905090565b600067ffffffffffffffff8211156155805761557f615878565b5b602082029050602081019050919050565b600067ffffffffffffffff8211156155ac576155ab615878565b5b602082029050602081019050919050565b6000819050602082019050919050565b600081519050919050565b6000602082019050919050565b600082825260208201905092915050565b600082825260208201905092915050565b600061561282615774565b915061561d83615774565b9250827fffffffffffffffffffffffffffffffffffffffffffffffffffffffffffffffff038211156156525761565161581a565b5b828201905092915050565b600061566882615774565b915061567383615774565b92508261568357615682615849565b5b828204905092915050565b600061569982615774565b91506156a483615774565b9250817fffffffffffffffffffffffffffffffffffffffffffffffffffffffffffffffff04831182151516156156dd576156dc61581a565b5b828202905092915050565b60006156f382615774565b91506156fe83615774565b9250828210156157115761571061581a565b5b828203905092915050565b600061572782615754565b9050919050565b60008115159050919050565b60006dffffffffffffffffffffffffffff82169050919050565b600073ffffffffffffffffffffffffffffffffffffffff82169050919050565b6000819050919050565b600063ffffffff82169050919050565b600061579982615774565b9050919050565b6157a9826158a7565b810181811067ffffffffffffffff821117156157c8576157c7615878565b5b80604052505050565b60006157dc82615774565b91507fffffffffffffffffffffffffffffffffffffffffffffffffffffffffffffffff82141561580f5761580e61581a565b5b600182019050919050565b7f4e487b7100000000000000000000000000000000000000000000000000000000600052601160045260246000fd5b7f4e487b7100000000000000000000000000000000000000000000000000000000600052601260045260246000fd5b7f4e487b7100000000000000000000000000000000000000000000000000000000600052604160045260246000fd5b6000601f19601f8301169050919050565b7f4e6f7420656e6f7567687420616c6c6f77616e636520546f6b656e3100000000600082015250565b7f66656550657263656e742063616e206e6f74206265206772656174207468616e60008201527f206d617846656550657263656e74000000000000000000000000000000000000602082015250565b7f4f776e61626c653a206e6577206f776e657220697320746865207a65726f206160008201527f6464726573730000000000000000000000000000000000000000000000000000602082015250565b7f6d73672e76616c756520616e6420616d6f756e74206d69736d61746368000000600082015250565b7f4e6f7420656e6f7567687420546f6b656e300000000000000000000000000000600082015250565b7f43616c6c6572206973206e6f742062656e6566696369617279206f72206f776e60008201527f6572000000000000000000000000000000000000000000000000000000000000602082015250565b7f4e6f7420656e6f75676874206c69717569646974790000000000000000000000600082015250565b7f4f776e61626c653a2063616c6c6572206973206e6f7420746865206f776e6572600082015250565b7f52657761726420697320656d7074790000000000000000000000000000000000600082015250565b7f546f74616c2062616c616e6365206772656174207468616e206d617855534400600082015250565b7f4e6f7420656e6f7567687420616c6c6f77616e636520546f6b656e3000000000600082015250565b7f546f74616c2062616c616e6365206c657373207468616e206d696e5553440000600082015250565b7f4e6f7420656e6f7567687420546f6b656e310000000000000000000000000000600082015250565b7f4e6f742061205061727469636970616e74000000000000000000000000000000600082015250565b7f5472616e73666572206661696c64000000000000000000000000000000000000600082015250565b7f7472616e73666572206973206661696c65640000000000000000000000000000600082015250565b615bc38161571c565b8114615bce57600080fd5b50565b615bda8161572e565b8114615be557600080fd5b50565b615bf18161573a565b8114615bfc57600080fd5b50565b615c0881615774565b8114615c1357600080fd5b50565b615c1f8161577e565b8114615c2a57600080fd5b5056fea264697066735822122064524fd36d642bbff27d93940ef90926c6ef5fc4fcfb6da480a4b6144fbf198364736f6c63430008010033",
  "linkReferences": {},
  "deployedLinkReferences": {}
}