{
  "_format": "hh-sol-artifact-1",
  "contractName": "NonfungiblePositionManager",
  "sourceName": "contracts/periphery/NonfungiblePositionManager.sol",
  "abi": [
    {
      "inputs": [
        {
          "internalType": "address",
          "name": "_factory",
          "type": "address"
        },
        {
          "internalType": "address",
          "name": "_WETH9",
          "type": "address"
        },
        {
          "internalType": "address",
          "name": "_tokenDescriptor_",
          "type": "address"
        }
      ],
      "stateMutability": "nonpayable",
      "type": "constructor"
    },
    {
      "anonymous": false,
      "inputs": [
        {
          "indexed": true,
          "internalType": "address",
          "name": "owner",
          "type": "address"
        },
        {
          "indexed": true,
          "internalType": "address",
          "name": "approved",
          "type": "address"
        },
        {
          "indexed": true,
          "internalType": "uint256",
          "name": "tokenId",
          "type": "uint256"
        }
      ],
      "name": "Approval",
      "type": "event"
    },
    {
      "anonymous": false,
      "inputs": [
        {
          "indexed": true,
          "internalType": "address",
          "name": "owner",
          "type": "address"
        },
        {
          "indexed": true,
          "internalType": "address",
          "name": "operator",
          "type": "address"
        },
        {
          "indexed": false,
          "internalType": "bool",
          "name": "approved",
          "type": "bool"
        }
      ],
      "name": "ApprovalForAll",
      "type": "event"
    },
    {
      "anonymous": false,
      "inputs": [
        {
          "indexed": true,
          "internalType": "uint256",
          "name": "tokenId",
          "type": "uint256"
        },
        {
          "indexed": false,
          "internalType": "address",
          "name": "recipient",
          "type": "address"
        },
        {
          "indexed": false,
          "internalType": "uint256",
          "name": "amount0",
          "type": "uint256"
        },
        {
          "indexed": false,
          "internalType": "uint256",
          "name": "amount1",
          "type": "uint256"
        }
      ],
      "name": "Collect",
      "type": "event"
    },
    {
      "anonymous": false,
      "inputs": [
        {
          "indexed": true,
          "internalType": "uint256",
          "name": "tokenId",
          "type": "uint256"
        },
        {
          "indexed": false,
          "internalType": "uint128",
          "name": "liquidity",
          "type": "uint128"
        },
        {
          "indexed": false,
          "internalType": "uint256",
          "name": "amount0",
          "type": "uint256"
        },
        {
          "indexed": false,
          "internalType": "uint256",
          "name": "amount1",
          "type": "uint256"
        }
      ],
      "name": "DecreaseLiquidity",
      "type": "event"
    },
    {
      "anonymous": false,
      "inputs": [
        {
          "indexed": true,
          "internalType": "uint256",
          "name": "tokenId",
          "type": "uint256"
        },
        {
          "indexed": false,
          "internalType": "uint128",
          "name": "liquidity",
          "type": "uint128"
        },
        {
          "indexed": false,
          "internalType": "uint256",
          "name": "amount0",
          "type": "uint256"
        },
        {
          "indexed": false,
          "internalType": "uint256",
          "name": "amount1",
          "type": "uint256"
        }
      ],
      "name": "IncreaseLiquidity",
      "type": "event"
    },
    {
      "anonymous": false,
      "inputs": [
        {
          "indexed": true,
          "internalType": "address",
          "name": "from",
          "type": "address"
        },
        {
          "indexed": true,
          "internalType": "address",
          "name": "to",
          "type": "address"
        },
        {
          "indexed": true,
          "internalType": "uint256",
          "name": "tokenId",
          "type": "uint256"
        }
      ],
      "name": "Transfer",
      "type": "event"
    },
    {
      "inputs": [],
      "name": "DOMAIN_SEPARATOR",
      "outputs": [
        {
          "internalType": "bytes32",
          "name": "",
          "type": "bytes32"
        }
      ],
      "stateMutability": "view",
      "type": "function"
    },
    {
      "inputs": [],
      "name": "PERMIT_TYPEHASH",
      "outputs": [
        {
          "internalType": "bytes32",
          "name": "",
          "type": "bytes32"
        }
      ],
      "stateMutability": "view",
      "type": "function"
    },
    {
      "inputs": [],
      "name": "WETH9",
      "outputs": [
        {
          "internalType": "address",
          "name": "",
          "type": "address"
        }
      ],
      "stateMutability": "view",
      "type": "function"
    },
    {
      "inputs": [
        {
          "internalType": "address",
          "name": "to",
          "type": "address"
        },
        {
          "internalType": "uint256",
          "name": "tokenId",
          "type": "uint256"
        }
      ],
      "name": "approve",
      "outputs": [],
      "stateMutability": "nonpayable",
      "type": "function"
    },
    {
      "inputs": [
        {
          "internalType": "address",
          "name": "owner",
          "type": "address"
        }
      ],
      "name": "balanceOf",
      "outputs": [
        {
          "internalType": "uint256",
          "name": "",
          "type": "uint256"
        }
      ],
      "stateMutability": "view",
      "type": "function"
    },
    {
      "inputs": [],
      "name": "baseURI",
      "outputs": [
        {
          "internalType": "string",
          "name": "",
          "type": "string"
        }
      ],
      "stateMutability": "pure",
      "type": "function"
    },
    {
      "inputs": [
        {
          "internalType": "uint256",
          "name": "tokenId",
          "type": "uint256"
        }
      ],
      "name": "burn",
      "outputs": [],
      "stateMutability": "payable",
      "type": "function"
    },
    {
      "inputs": [
        {
          "components": [
            {
              "internalType": "uint256",
              "name": "tokenId",
              "type": "uint256"
            },
            {
              "internalType": "address",
              "name": "recipient",
              "type": "address"
            },
            {
              "internalType": "uint128",
              "name": "amount0Max",
              "type": "uint128"
            },
            {
              "internalType": "uint128",
              "name": "amount1Max",
              "type": "uint128"
            }
          ],
          "internalType": "struct INonfungiblePositionManager.CollectParams",
          "name": "params",
          "type": "tuple"
        }
      ],
      "name": "collect",
      "outputs": [
        {
          "internalType": "uint256",
          "name": "amount0",
          "type": "uint256"
        },
        {
          "internalType": "uint256",
          "name": "amount1",
          "type": "uint256"
        }
      ],
      "stateMutability": "payable",
      "type": "function"
    },
    {
      "inputs": [
        {
          "internalType": "address",
          "name": "token0",
          "type": "address"
        },
        {
          "internalType": "address",
          "name": "token1",
          "type": "address"
        },
        {
          "internalType": "uint24",
          "name": "fee",
          "type": "uint24"
        },
        {
          "internalType": "uint160",
          "name": "sqrtPriceX96",
          "type": "uint160"
        }
      ],
      "name": "createAndInitializePoolIfNecessary",
      "outputs": [
        {
          "internalType": "address",
          "name": "pool",
          "type": "address"
        }
      ],
      "stateMutability": "payable",
      "type": "function"
    },
    {
      "inputs": [
        {
          "components": [
            {
              "internalType": "uint256",
              "name": "tokenId",
              "type": "uint256"
            },
            {
              "internalType": "uint128",
              "name": "liquidity",
              "type": "uint128"
            },
            {
              "internalType": "uint256",
              "name": "amount0Min",
              "type": "uint256"
            },
            {
              "internalType": "uint256",
              "name": "amount1Min",
              "type": "uint256"
            },
            {
              "internalType": "uint256",
              "name": "deadline",
              "type": "uint256"
            }
          ],
          "internalType": "struct INonfungiblePositionManager.DecreaseLiquidityParams",
          "name": "params",
          "type": "tuple"
        }
      ],
      "name": "decreaseLiquidity",
      "outputs": [
        {
          "internalType": "uint256",
          "name": "amount0",
          "type": "uint256"
        },
        {
          "internalType": "uint256",
          "name": "amount1",
          "type": "uint256"
        }
      ],
      "stateMutability": "payable",
      "type": "function"
    },
    {
      "inputs": [],
      "name": "factory",
      "outputs": [
        {
          "internalType": "address",
          "name": "",
          "type": "address"
        }
      ],
      "stateMutability": "view",
      "type": "function"
    },
    {
      "inputs": [
        {
          "internalType": "uint256",
          "name": "tokenId",
          "type": "uint256"
        }
      ],
      "name": "getApproved",
      "outputs": [
        {
          "internalType": "address",
          "name": "",
          "type": "address"
        }
      ],
      "stateMutability": "view",
      "type": "function"
    },
    {
      "inputs": [
        {
          "components": [
            {
              "internalType": "uint256",
              "name": "tokenId",
              "type": "uint256"
            },
            {
              "internalType": "uint256",
              "name": "amount0Desired",
              "type": "uint256"
            },
            {
              "internalType": "uint256",
              "name": "amount1Desired",
              "type": "uint256"
            },
            {
              "internalType": "uint256",
              "name": "amount0Min",
              "type": "uint256"
            },
            {
              "internalType": "uint256",
              "name": "amount1Min",
              "type": "uint256"
            },
            {
              "internalType": "uint256",
              "name": "deadline",
              "type": "uint256"
            }
          ],
          "internalType": "struct INonfungiblePositionManager.IncreaseLiquidityParams",
          "name": "params",
          "type": "tuple"
        }
      ],
      "name": "increaseLiquidity",
      "outputs": [
        {
          "internalType": "uint128",
          "name": "liquidity",
          "type": "uint128"
        },
        {
          "internalType": "uint256",
          "name": "amount0",
          "type": "uint256"
        },
        {
          "internalType": "uint256",
          "name": "amount1",
          "type": "uint256"
        }
      ],
      "stateMutability": "payable",
      "type": "function"
    },
    {
      "inputs": [
        {
          "internalType": "address",
          "name": "owner",
          "type": "address"
        },
        {
          "internalType": "address",
          "name": "operator",
          "type": "address"
        }
      ],
      "name": "isApprovedForAll",
      "outputs": [
        {
          "internalType": "bool",
          "name": "",
          "type": "bool"
        }
      ],
      "stateMutability": "view",
      "type": "function"
    },
    {
      "inputs": [
        {
          "components": [
            {
              "internalType": "address",
              "name": "token0",
              "type": "address"
            },
            {
              "internalType": "address",
              "name": "token1",
              "type": "address"
            },
            {
              "internalType": "uint24",
              "name": "fee",
              "type": "uint24"
            },
            {
              "internalType": "int24",
              "name": "tickLower",
              "type": "int24"
            },
            {
              "internalType": "int24",
              "name": "tickUpper",
              "type": "int24"
            },
            {
              "internalType": "uint256",
              "name": "amount0Desired",
              "type": "uint256"
            },
            {
              "internalType": "uint256",
              "name": "amount1Desired",
              "type": "uint256"
            },
            {
              "internalType": "uint256",
              "name": "amount0Min",
              "type": "uint256"
            },
            {
              "internalType": "uint256",
              "name": "amount1Min",
              "type": "uint256"
            },
            {
              "internalType": "address",
              "name": "recipient",
              "type": "address"
            },
            {
              "internalType": "uint256",
              "name": "deadline",
              "type": "uint256"
            }
          ],
          "internalType": "struct INonfungiblePositionManager.MintParams",
          "name": "params",
          "type": "tuple"
        }
      ],
      "name": "mint",
      "outputs": [
        {
          "internalType": "uint256",
          "name": "tokenId",
          "type": "uint256"
        },
        {
          "internalType": "uint128",
          "name": "liquidity",
          "type": "uint128"
        },
        {
          "internalType": "uint256",
          "name": "amount0",
          "type": "uint256"
        },
        {
          "internalType": "uint256",
          "name": "amount1",
          "type": "uint256"
        }
      ],
      "stateMutability": "payable",
      "type": "function"
    },
    {
      "inputs": [
        {
          "internalType": "bytes[]",
          "name": "data",
          "type": "bytes[]"
        }
      ],
      "name": "multicall",
      "outputs": [
        {
          "internalType": "bytes[]",
          "name": "results",
          "type": "bytes[]"
        }
      ],
      "stateMutability": "payable",
      "type": "function"
    },
    {
      "inputs": [],
      "name": "name",
      "outputs": [
        {
          "internalType": "string",
          "name": "",
          "type": "string"
        }
      ],
      "stateMutability": "view",
      "type": "function"
    },
    {
      "inputs": [
        {
          "internalType": "uint256",
          "name": "tokenId",
          "type": "uint256"
        }
      ],
      "name": "ownerOf",
      "outputs": [
        {
          "internalType": "address",
          "name": "",
          "type": "address"
        }
      ],
      "stateMutability": "view",
      "type": "function"
    },
    {
      "inputs": [
        {
          "internalType": "address",
          "name": "spender",
          "type": "address"
        },
        {
          "internalType": "uint256",
          "name": "tokenId",
          "type": "uint256"
        },
        {
          "internalType": "uint256",
          "name": "deadline",
          "type": "uint256"
        },
        {
          "internalType": "uint8",
          "name": "v",
          "type": "uint8"
        },
        {
          "internalType": "bytes32",
          "name": "r",
          "type": "bytes32"
        },
        {
          "internalType": "bytes32",
          "name": "s",
          "type": "bytes32"
        }
      ],
      "name": "permit",
      "outputs": [],
      "stateMutability": "payable",
      "type": "function"
    },
    {
      "inputs": [
        {
          "internalType": "uint256",
          "name": "tokenId",
          "type": "uint256"
        }
      ],
      "name": "positions",
      "outputs": [
        {
          "internalType": "uint96",
          "name": "nonce",
          "type": "uint96"
        },
        {
          "internalType": "address",
          "name": "operator",
          "type": "address"
        },
        {
          "internalType": "address",
          "name": "token0",
          "type": "address"
        },
        {
          "internalType": "address",
          "name": "token1",
          "type": "address"
        },
        {
          "internalType": "uint24",
          "name": "fee",
          "type": "uint24"
        },
        {
          "internalType": "int24",
          "name": "tickLower",
          "type": "int24"
        },
        {
          "internalType": "int24",
          "name": "tickUpper",
          "type": "int24"
        },
        {
          "internalType": "uint128",
          "name": "liquidity",
          "type": "uint128"
        },
        {
          "internalType": "uint256",
          "name": "feeGrowthInside0LastX128",
          "type": "uint256"
        },
        {
          "internalType": "uint256",
          "name": "feeGrowthInside1LastX128",
          "type": "uint256"
        },
        {
          "internalType": "uint128",
          "name": "tokensOwed0",
          "type": "uint128"
        },
        {
          "internalType": "uint128",
          "name": "tokensOwed1",
          "type": "uint128"
        }
      ],
      "stateMutability": "view",
      "type": "function"
    },
    {
      "inputs": [],
      "name": "refundETH",
      "outputs": [],
      "stateMutability": "payable",
      "type": "function"
    },
    {
      "inputs": [
        {
          "internalType": "address",
          "name": "from",
          "type": "address"
        },
        {
          "internalType": "address",
          "name": "to",
          "type": "address"
        },
        {
          "internalType": "uint256",
          "name": "tokenId",
          "type": "uint256"
        }
      ],
      "name": "safeTransferFrom",
      "outputs": [],
      "stateMutability": "nonpayable",
      "type": "function"
    },
    {
      "inputs": [
        {
          "internalType": "address",
          "name": "from",
          "type": "address"
        },
        {
          "internalType": "address",
          "name": "to",
          "type": "address"
        },
        {
          "internalType": "uint256",
          "name": "tokenId",
          "type": "uint256"
        },
        {
          "internalType": "bytes",
          "name": "_data",
          "type": "bytes"
        }
      ],
      "name": "safeTransferFrom",
      "outputs": [],
      "stateMutability": "nonpayable",
      "type": "function"
    },
    {
      "inputs": [
        {
          "internalType": "address",
          "name": "token",
          "type": "address"
        },
        {
          "internalType": "uint256",
          "name": "value",
          "type": "uint256"
        },
        {
          "internalType": "uint256",
          "name": "deadline",
          "type": "uint256"
        },
        {
          "internalType": "uint8",
          "name": "v",
          "type": "uint8"
        },
        {
          "internalType": "bytes32",
          "name": "r",
          "type": "bytes32"
        },
        {
          "internalType": "bytes32",
          "name": "s",
          "type": "bytes32"
        }
      ],
      "name": "selfPermit",
      "outputs": [],
      "stateMutability": "payable",
      "type": "function"
    },
    {
      "inputs": [
        {
          "internalType": "address",
          "name": "token",
          "type": "address"
        },
        {
          "internalType": "uint256",
          "name": "nonce",
          "type": "uint256"
        },
        {
          "internalType": "uint256",
          "name": "expiry",
          "type": "uint256"
        },
        {
          "internalType": "uint8",
          "name": "v",
          "type": "uint8"
        },
        {
          "internalType": "bytes32",
          "name": "r",
          "type": "bytes32"
        },
        {
          "internalType": "bytes32",
          "name": "s",
          "type": "bytes32"
        }
      ],
      "name": "selfPermitAllowed",
      "outputs": [],
      "stateMutability": "payable",
      "type": "function"
    },
    {
      "inputs": [
        {
          "internalType": "address",
          "name": "token",
          "type": "address"
        },
        {
          "internalType": "uint256",
          "name": "nonce",
          "type": "uint256"
        },
        {
          "internalType": "uint256",
          "name": "expiry",
          "type": "uint256"
        },
        {
          "internalType": "uint8",
          "name": "v",
          "type": "uint8"
        },
        {
          "internalType": "bytes32",
          "name": "r",
          "type": "bytes32"
        },
        {
          "internalType": "bytes32",
          "name": "s",
          "type": "bytes32"
        }
      ],
      "name": "selfPermitAllowedIfNecessary",
      "outputs": [],
      "stateMutability": "payable",
      "type": "function"
    },
    {
      "inputs": [
        {
          "internalType": "address",
          "name": "token",
          "type": "address"
        },
        {
          "internalType": "uint256",
          "name": "value",
          "type": "uint256"
        },
        {
          "internalType": "uint256",
          "name": "deadline",
          "type": "uint256"
        },
        {
          "internalType": "uint8",
          "name": "v",
          "type": "uint8"
        },
        {
          "internalType": "bytes32",
          "name": "r",
          "type": "bytes32"
        },
        {
          "internalType": "bytes32",
          "name": "s",
          "type": "bytes32"
        }
      ],
      "name": "selfPermitIfNecessary",
      "outputs": [],
      "stateMutability": "payable",
      "type": "function"
    },
    {
      "inputs": [
        {
          "internalType": "address",
          "name": "operator",
          "type": "address"
        },
        {
          "internalType": "bool",
          "name": "approved",
          "type": "bool"
        }
      ],
      "name": "setApprovalForAll",
      "outputs": [],
      "stateMutability": "nonpayable",
      "type": "function"
    },
    {
      "inputs": [
        {
          "internalType": "bytes4",
          "name": "interfaceId",
          "type": "bytes4"
        }
      ],
      "name": "supportsInterface",
      "outputs": [
        {
          "internalType": "bool",
          "name": "",
          "type": "bool"
        }
      ],
      "stateMutability": "view",
      "type": "function"
    },
    {
      "inputs": [
        {
          "internalType": "address",
          "name": "token",
          "type": "address"
        },
        {
          "internalType": "uint256",
          "name": "amountMinimum",
          "type": "uint256"
        },
        {
          "internalType": "address",
          "name": "recipient",
          "type": "address"
        }
      ],
      "name": "sweepToken",
      "outputs": [],
      "stateMutability": "payable",
      "type": "function"
    },
    {
      "inputs": [],
      "name": "symbol",
      "outputs": [
        {
          "internalType": "string",
          "name": "",
          "type": "string"
        }
      ],
      "stateMutability": "view",
      "type": "function"
    },
    {
      "inputs": [
        {
          "internalType": "uint256",
          "name": "index",
          "type": "uint256"
        }
      ],
      "name": "tokenByIndex",
      "outputs": [
        {
          "internalType": "uint256",
          "name": "",
          "type": "uint256"
        }
      ],
      "stateMutability": "view",
      "type": "function"
    },
    {
      "inputs": [
        {
          "internalType": "address",
          "name": "owner",
          "type": "address"
        },
        {
          "internalType": "uint256",
          "name": "index",
          "type": "uint256"
        }
      ],
      "name": "tokenOfOwnerByIndex",
      "outputs": [
        {
          "internalType": "uint256",
          "name": "",
          "type": "uint256"
        }
      ],
      "stateMutability": "view",
      "type": "function"
    },
    {
      "inputs": [
        {
          "internalType": "uint256",
          "name": "tokenId",
          "type": "uint256"
        }
      ],
      "name": "tokenURI",
      "outputs": [
        {
          "internalType": "string",
          "name": "",
          "type": "string"
        }
      ],
      "stateMutability": "view",
      "type": "function"
    },
    {
      "inputs": [],
      "name": "totalSupply",
      "outputs": [
        {
          "internalType": "uint256",
          "name": "",
          "type": "uint256"
        }
      ],
      "stateMutability": "view",
      "type": "function"
    },
    {
      "inputs": [
        {
          "internalType": "address",
          "name": "from",
          "type": "address"
        },
        {
          "internalType": "address",
          "name": "to",
          "type": "address"
        },
        {
          "internalType": "uint256",
          "name": "tokenId",
          "type": "uint256"
        }
      ],
      "name": "transferFrom",
      "outputs": [],
      "stateMutability": "nonpayable",
      "type": "function"
    },
    {
      "inputs": [
        {
          "internalType": "uint256",
          "name": "amount0Owed",
          "type": "uint256"
        },
        {
          "internalType": "uint256",
          "name": "amount1Owed",
          "type": "uint256"
        },
        {
          "internalType": "bytes",
          "name": "data",
          "type": "bytes"
        }
      ],
      "name": "uniswapV3MintCallback",
      "outputs": [],
      "stateMutability": "nonpayable",
      "type": "function"
    },
    {
      "inputs": [
        {
          "internalType": "uint256",
          "name": "amountMinimum",
          "type": "uint256"
        },
        {
          "internalType": "address",
          "name": "recipient",
          "type": "address"
        }
      ],
      "name": "unwrapWETH9",
      "outputs": [],
      "stateMutability": "payable",
      "type": "function"
    },
    {
      "stateMutability": "payable",
      "type": "receive"
    }
  ],
  "bytecode": "0x610120604052600d80546001600160b01b0319166001176001600160b01b0316600160b01b1790553480156200003457600080fd5b50604051620062c5380380620062c58339810160408190526200005791620002db565b82826040518060400160405280601b81526020017f556e697377617020563320506f736974696f6e73204e46542d563100000000008152506040518060400160405280600a815260200169554e492d56332d504f5360b01b815250604051806040016040528060018152602001603160f81b8152508282620000e66301ffc9a760e01b6200018d60201b60201c565b8151620000fb90600690602085019062000212565b5080516200011190600790602084019062000212565b50620001246380ac58cd60e01b6200018d565b62000136635b5e139f60e01b6200018d565b6200014863780e9d6360e01b6200018d565b50508251602093840120608052805192019190912060a052506001600160601b0319606092831b811660c05290821b811660e05291901b166101005250620003249050565b6001600160e01b03198082161415620001ed576040805162461bcd60e51b815260206004820152601c60248201527f4552433136353a20696e76616c696420696e7465726661636520696400000000604482015290519081900360640190fd5b6001600160e01b0319166000908152602081905260409020805460ff19166001179055565b828054600181600116156101000203166002900490600052602060002090601f0160209004810192826200024a576000855562000295565b82601f106200026557805160ff191683800117855562000295565b8280016001018555821562000295579182015b828111156200029557825182559160200191906001019062000278565b50620002a3929150620002a7565b5090565b5b80821115620002a35760008155600101620002a8565b80516001600160a01b0381168114620002d657600080fd5b919050565b600080600060608486031215620002f0578283fd5b620002fb84620002be565b92506200030b60208501620002be565b91506200031b60408501620002be565b90509250925092565b60805160a05160c05160601c60e05160601c6101005160601c615f1c620003a9600039806129d95250806102995280611674528061176a52806117f25280613dd65280613e1c5280613e90525080610aa75280610dde5280610ea552806129735280612a795280612d9a52806135eb5250806114ff5250806114de5250615f1c6000f3fe6080604052600436106102895760003560e01c80636352211e11610153578063ac9650d8116100cb578063d34879971161007f578063e985e9c511610064578063e985e9c5146106f5578063f3995c6714610715578063fc6f7865146107285761030d565b8063d3487997146106c2578063df2ab5bb146106e25761030d565b8063c2e3140a116100b0578063c2e3140a1461067a578063c45a01551461068d578063c87b56dd146106a25761030d565b8063ac9650d81461063a578063b88d4fde1461065a5761030d565b8063883164561161012257806399fbab881161010757806399fbab88146105cf578063a22cb46514610607578063a4a78f0c146106275761030d565b8063883164561461059757806395d89b41146105ba5761030d565b80636352211e1461052f5780636c0360eb1461054f57806370a08231146105645780637ac2ff7b146105845761030d565b806323b872dd1161020157806342966c68116101b557806349404b7c1161019a57806349404b7c146104e75780634aa4a4fc146104fa5780634f6ccce71461050f5761030d565b806342966c68146104c15780634659a494146104d45761030d565b806330adf81f116101e657806330adf81f146104775780633644e5151461048c57806342842e0e146104a15761030d565b806323b872dd146104375780632f745c59146104575761030d565b80630c49ccbe1161025857806313ead5621161023d57806313ead562146103e057806318160ddd146103f3578063219f5d17146104155761030d565b80630c49ccbe146103b757806312210e8a146103d85761030d565b806301ffc9a71461031257806306fdde0314610348578063081812fc1461036a578063095ea7b3146103975761030d565b3661030d57336001600160a01b037f0000000000000000000000000000000000000000000000000000000000000000161461030b576040805162461bcd60e51b815260206004820152600960248201527f4e6f742057455448390000000000000000000000000000000000000000000000604482015290519081900360640190fd5b005b600080fd5b34801561031e57600080fd5b5061033261032d36600461538d565b61073b565b60405161033f9190615905565b60405180910390f35b34801561035457600080fd5b5061035d610776565b60405161033f9190615958565b34801561037657600080fd5b5061038a61038536600461569f565b61080c565b60405161033f91906157c9565b3480156103a357600080fd5b5061030b6103b2366004615257565b610868565b6103ca6103c536600461546a565b61093e565b60405161033f929190615af2565b61030b610daa565b61038a6103ee3660046150ea565b610dbc565b3480156103ff57600080fd5b506104086110c9565b60405161033f9190615910565b61042861042336600461547b565b6110da565b60405161033f93929190615aad565b34801561044357600080fd5b5061030b610452366004615143565b611413565b34801561046357600080fd5b50610408610472366004615257565b61146a565b34801561048357600080fd5b50610408611495565b34801561049857600080fd5b506104086114b9565b3480156104ad57600080fd5b5061030b6104bc366004615143565b611577565b61030b6104cf36600461569f565b611592565b61030b6104e23660046152c3565b6115bd565b61030b6104f53660046156b7565b611670565b34801561050657600080fd5b5061038a6117f0565b34801561051b57600080fd5b5061040861052a36600461569f565b611814565b34801561053b57600080fd5b5061038a61054a36600461569f565b61182a565b34801561055b57600080fd5b5061035d611852565b34801561057057600080fd5b5061040861057f366004615096565b611857565b61030b6105923660046152c3565b6118bf565b6105aa6105a5366004615537565b611d6b565b60405161033f9493929190615ace565b3480156105c657600080fd5b5061035d6122cc565b3480156105db57600080fd5b506105ef6105ea36600461569f565b61232d565b60405161033f9c9b9a99989796959493929190615b00565b34801561061357600080fd5b5061030b61062236600461522a565b61255c565b61030b6106353660046152c3565b61267f565b61064d61064836600461531e565b612731565b60405161033f9190615887565b34801561066657600080fd5b5061030b610675366004615183565b61286b565b61030b6106883660046152c3565b6128c9565b34801561069957600080fd5b5061038a612971565b3480156106ae57600080fd5b5061035d6106bd36600461569f565b612995565b3480156106ce57600080fd5b5061030b6106dd3660046156fe565b612a64565b61030b6106f0366004615282565b612ae2565b34801561070157600080fd5b506103326107103660046150b2565b612bc5565b61030b6107233660046152c3565b612bf3565b6103ca610736366004615453565b612c7e565b7fffffffff00000000000000000000000000000000000000000000000000000000811660009081526020819052604090205460ff165b919050565b60068054604080516020601f60026000196101006001881615020190951694909404938401819004810282018101909252828152606093909290918301828280156108025780601f106107d757610100808354040283529160200191610802565b820191906000526020600020905b8154815290600101906020018083116107e557829003601f168201915b5050505050905090565b60006108178261319c565b61083c5760405162461bcd60e51b8152600401610833906159a2565b60405180910390fd5b506000908152600c60205260409020546c0100000000000000000000000090046001600160a01b031690565b60006108738261182a565b9050806001600160a01b0316836001600160a01b031614156108c65760405162461bcd60e51b8152600401808060200182810382526021815260200180615e956021913960400191505060405180910390fd5b806001600160a01b03166108d86131a9565b6001600160a01b031614806108f457506108f4816107106131a9565b61092f5760405162461bcd60e51b8152600401808060200182810382526038815260200180615dbf6038913960400191505060405180910390fd5b61093983836131ad565b505050565b600080823561094d3382613231565b6109695760405162461bcd60e51b81526004016108339061596b565b8360800135806109776132cd565b11156109ca576040805162461bcd60e51b815260206004820152601360248201527f5472616e73616374696f6e20746f6f206f6c6400000000000000000000000000604482015290519081900360640190fd5b60006109dc6040870160208801615549565b6001600160801b0316116109ef57600080fd5b84356000908152600c602090815260409182902060018101549092600160801b9091046001600160801b031691610a2a918901908901615549565b6001600160801b0316816001600160801b03161015610a4857600080fd5b60018281015469ffffffffffffffffffff166000908152600b60209081526040808320815160608101835281546001600160a01b039081168252919095015490811692850192909252600160a01b90910462ffffff1690830152610acc7f0000000000000000000000000000000000000000000000000000000000000000836132d1565b60018501549091506001600160a01b0382169063a34123a7906a01000000000000000000008104600290810b91600160681b9004900b610b1260408e0160208f01615549565b6040518463ffffffff1660e01b8152600401610b3093929190615932565b6040805180830381600087803b158015610b4957600080fd5b505af1158015610b5d573d6000803e3d6000fd5b505050506040513d601f19601f82011682018060405250810190610b8191906156db565b909850965060408901358810801590610b9e575088606001358710155b610bba5760405162461bcd60e51b8152600401610833906159ff565b6001840154600090610bea9030906a01000000000000000000008104600290810b91600160681b9004900b613381565b9050600080836001600160a01b031663514ea4bf846040518263ffffffff1660e01b8152600401610c1b9190615910565b60a06040518083038186803b158015610c3357600080fd5b505afa158015610c47573d6000803e3d6000fd5b505050506040513d601f19601f82011682018060405250810190610c6b9190615593565b50509250925050610c9087600201548303876001600160801b0316600160801b6133db565b6004880180546fffffffffffffffffffffffffffffffff198116928e016001600160801b039182160181169290921790556003880154610cda91908303908816600160801b6133db565b6004880180546001600160801b03808216938e01600160801b9283900482160116029190911790556002870182905560038701819055610d2060408d0160208e01615549565b86038760010160106101000a8154816001600160801b0302191690836001600160801b031602179055508b600001357f26f6a048ee9138f2c0ce266f322cb99228e8d619ae2bff30c67f8dcf9d2377b48d6020016020810190610d839190615549565b8d8d604051610d9493929190615aad565b60405180910390a2505050505050505050915091565b4715610dba57610dba334761348a565b565b6000836001600160a01b0316856001600160a01b031610610ddc57600080fd5b7f00000000000000000000000000000000000000000000000000000000000000006001600160a01b0316631698ee828686866040518463ffffffff1660e01b815260040180846001600160a01b03168152602001836001600160a01b031681526020018262ffffff168152602001935050505060206040518083038186803b158015610e6757600080fd5b505afa158015610e7b573d6000803e3d6000fd5b505050506040513d6020811015610e9157600080fd5b505190506001600160a01b038116610fe0577f00000000000000000000000000000000000000000000000000000000000000006001600160a01b031663a16712958686866040518463ffffffff1660e01b815260040180846001600160a01b03168152602001836001600160a01b031681526020018262ffffff1681526020019350505050602060405180830381600087803b158015610f3057600080fd5b505af1158015610f44573d6000803e3d6000fd5b505050506040513d6020811015610f5a57600080fd5b5051604080517ff637731d0000000000000000000000000000000000000000000000000000000081526001600160a01b03858116600483015291519293509083169163f637731d9160248082019260009290919082900301818387803b158015610fc357600080fd5b505af1158015610fd7573d6000803e3d6000fd5b505050506110c1565b6000816001600160a01b0316633850c7bd6040518163ffffffff1660e01b815260040160e06040518083038186803b15801561101b57600080fd5b505afa15801561102f573d6000803e3d6000fd5b505050506040513d60e081101561104557600080fd5b505190506001600160a01b0381166110bf57816001600160a01b031663f637731d846040518263ffffffff1660e01b815260040180826001600160a01b03168152602001915050600060405180830381600087803b1580156110a657600080fd5b505af11580156110ba573d6000803e3d6000fd5b505050505b505b949350505050565b60006110d56002613593565b905090565b60008060008360a00135806110ed6132cd565b1115611140576040805162461bcd60e51b815260206004820152601360248201527f5472616e73616374696f6e20746f6f206f6c6400000000000000000000000000604482015290519081900360640190fd5b84356000908152600c6020908152604080832060018082015469ffffffffffffffffffff81168652600b855283862084516060808201875282546001600160a01b039081168352929094015480831682890190815262ffffff600160a01b9092048216838901908152885161014081018a528451861681529151909416818a01529251168287015230828501526a01000000000000000000008304600290810b810b608080850191909152600160681b909404810b900b60a0830152958c013560c0820152938b013560e0850152908a0135610100840152890135610120830152929061122c9061359e565b6001870154939a50919850965091506000906112669030906a01000000000000000000008104600290810b91600160681b9004900b613381565b9050600080836001600160a01b031663514ea4bf846040518263ffffffff1660e01b81526004016112979190615910565b60a06040518083038186803b1580156112af57600080fd5b505afa1580156112c3573d6000803e3d6000fd5b505050506040513d601f19601f820116820180604052508101906112e79190615593565b50509250925050611323866002015483038760010160109054906101000a90046001600160801b03166001600160801b0316600160801b6133db565b6004870180546001600160801b0380821690930183166fffffffffffffffffffffffffffffffff19909116179055600387015460018801546113739291840391600160801b9182900416906133db565b6004870180546001600160801b03600160801b80830482169094018116840291811691909117909155600288018490556003880183905560018801805483810483168e018316909302929091169190911790556040518b35907f3067048beee31b25b2f1681f88dac838c8bba36af25bfb2b7cf7473a5847e35f906113fd908d908d908d90615aad565b60405180910390a2505050505050509193909250565b61142461141e6131a9565b82613231565b61145f5760405162461bcd60e51b8152600401808060200182810382526031815260200180615eb66031913960400191505060405180910390fd5b610939838383613886565b6001600160a01b038216600090815260016020526040812061148c90836139d2565b90505b92915050565b7f49ecf333e5b8c95c40fdafc95c1ad136e8914a8fb55e9dc8bb01eaa83a2df9ad81565b60007f8b73c3c69bb8fe3d512ecc4cf759cc79239f7b179b0ffacaa9a75d522b39400f7f00000000000000000000000000000000000000000000000000000000000000007f00000000000000000000000000000000000000000000000000000000000000006115266139de565b3060405160200180868152602001858152602001848152602001838152602001826001600160a01b031681526020019550505050505060405160208183030381529060405280519060200120905090565b6109398383836040518060200160405280600081525061286b565b8061159d3382613231565b6115b95760405162461bcd60e51b81526004016108339061596b565b5050565b604080517f8fcbaf0c00000000000000000000000000000000000000000000000000000000815233600482015230602482015260448101879052606481018690526001608482015260ff851660a482015260c4810184905260e4810183905290516001600160a01b03881691638fcbaf0c9161010480830192600092919082900301818387803b15801561165057600080fd5b505af1158015611664573d6000803e3d6000fd5b50505050505050505050565b60007f00000000000000000000000000000000000000000000000000000000000000006001600160a01b03166370a08231306040518263ffffffff1660e01b815260040180826001600160a01b0316815260200191505060206040518083038186803b1580156116df57600080fd5b505afa1580156116f3573d6000803e3d6000fd5b505050506040513d602081101561170957600080fd5b5051905082811015611762576040805162461bcd60e51b815260206004820152601260248201527f496e73756666696369656e742057455448390000000000000000000000000000604482015290519081900360640190fd5b8015610939577f00000000000000000000000000000000000000000000000000000000000000006001600160a01b0316632e1a7d4d826040518263ffffffff1660e01b815260040180828152602001915050600060405180830381600087803b1580156117ce57600080fd5b505af11580156117e2573d6000803e3d6000fd5b50505050610939828261348a565b7f000000000000000000000000000000000000000000000000000000000000000081565b6000806118226002846139e3565b509392505050565b600061148f82604051806060016040528060298152602001615e216029913960029190613a01565b606090565b60006001600160a01b03821661189e5760405162461bcd60e51b815260040180806020018281038252602a815260200180615df7602a913960400191505060405180910390fd5b6001600160a01b038216600090815260016020526040902061148f90613593565b836118c86132cd565b111561191b576040805162461bcd60e51b815260206004820152600e60248201527f5065726d69742065787069726564000000000000000000000000000000000000604482015290519081900360640190fd5b60006119256114b9565b7f49ecf333e5b8c95c40fdafc95c1ad136e8914a8fb55e9dc8bb01eaa83a2df9ad888861195181613a0e565b604080516020808201969096526001600160a01b03909416848201526060840192909252608083015260a08083018a90528151808403909101815260c0830182528051908401207f190100000000000000000000000000000000000000000000000000000000000060e084015260e2830194909452610102808301949094528051808303909401845261012290910190528151910120905060006119f48761182a565b9050806001600160a01b0316886001600160a01b03161415611a475760405162461bcd60e51b8152600401808060200182810382526027815260200180615d226027913960400191505060405180910390fd5b611a5081613a4d565b15611c2b576040805160208082018790528183018690527fff0000000000000000000000000000000000000000000000000000000000000060f889901b16606083015282516041818403018152606183018085527f1626ba7e0000000000000000000000000000000000000000000000000000000090526065830186815260858401948552815160a585015281516001600160a01b03871695631626ba7e958995919260c59091019185019080838360005b83811015611b1a578181015183820152602001611b02565b50505050905090810190601f168015611b475780820380516001836020036101000a031916815260200191505b50935050505060206040518083038186803b158015611b6557600080fd5b505afa158015611b79573d6000803e3d6000fd5b505050506040513d6020811015611b8f57600080fd5b50517fffffffff00000000000000000000000000000000000000000000000000000000167f1626ba7e0000000000000000000000000000000000000000000000000000000014611c26576040805162461bcd60e51b815260206004820152600c60248201527f556e617574686f72697a65640000000000000000000000000000000000000000604482015290519081900360640190fd5b611d57565b600060018387878760405160008152602001604052604051808581526020018460ff1681526020018381526020018281526020019450505050506020604051602081039080840390855afa158015611c87573d6000803e3d6000fd5b5050604051601f1901519150506001600160a01b038116611cef576040805162461bcd60e51b815260206004820152601160248201527f496e76616c6964207369676e6174757265000000000000000000000000000000604482015290519081900360640190fd5b816001600160a01b0316816001600160a01b031614611d55576040805162461bcd60e51b815260206004820152600c60248201527f556e617574686f72697a65640000000000000000000000000000000000000000604482015290519081900360640190fd5b505b611d6188886131ad565b5050505050505050565b60008060008084610140013580611d806132cd565b1115611dd3576040805162461bcd60e51b815260206004820152601360248201527f5472616e73616374696f6e20746f6f206f6c6400000000000000000000000000604482015290519081900360640190fd5b604080516101408101909152600090611e9f9080611df460208b018b615096565b6001600160a01b03168152602001896020016020810190611e159190615096565b6001600160a01b03168152602001611e3360608b0160408c01615685565b62ffffff168152306020820152604001611e5360808b0160608c016153cd565b60020b8152602001611e6b60a08b0160808c016153cd565b60020b81526020018960a0013581526020018960c0013581526020018960e00135815260200189610100013581525061359e565b92975090955093509050611f13611ebe61014089016101208a01615096565b600d80547fffffffffffffffffffff000000000000000000000000000000000000000000008116600175ffffffffffffffffffffffffffffffffffffffffffff92831690810190921617909155975087613a53565b6000611f3e30611f2960808b0160608c016153cd565b611f3960a08c0160808d016153cd565b613381565b9050600080836001600160a01b031663514ea4bf846040518263ffffffff1660e01b8152600401611f6f9190615910565b60a06040518083038186803b158015611f8757600080fd5b505afa158015611f9b573d6000803e3d6000fd5b505050506040513d601f19601f82011682018060405250810190611fbf9190615593565b5050925092505060006120388560405180606001604052808e6000016020810190611fea9190615096565b6001600160a01b031681526020018e602001602081019061200b9190615096565b6001600160a01b031681526020018e604001602081019061202c9190615685565b62ffffff169052613b81565b905060405180610140016040528060006bffffffffffffffffffffffff16815260200160006001600160a01b031681526020018269ffffffffffffffffffff1681526020018c606001602081019061209091906153cd565b60020b81526020016120a860a08e0160808f016153cd565b60020b81526020018a6001600160801b0316815260200184815260200183815260200160006001600160801b0316815260200160006001600160801b0316815250600c60008c815260200190815260200160002060008201518160000160006101000a8154816bffffffffffffffffffffffff02191690836bffffffffffffffffffffffff160217905550602082015181600001600c6101000a8154816001600160a01b0302191690836001600160a01b0316021790555060408201518160010160006101000a81548169ffffffffffffffffffff021916908369ffffffffffffffffffff160217905550606082015181600101600a6101000a81548162ffffff021916908360020b62ffffff160217905550608082015181600101600d6101000a81548162ffffff021916908360020b62ffffff16021790555060a08201518160010160106101000a8154816001600160801b0302191690836001600160801b0316021790555060c0820151816002015560e082015181600301556101008201518160040160006101000a8154816001600160801b0302191690836001600160801b031602179055506101208201518160040160106101000a8154816001600160801b0302191690836001600160801b03160217905550905050897f3067048beee31b25b2f1681f88dac838c8bba36af25bfb2b7cf7473a5847e35f8a8a8a6040516122b793929190615aad565b60405180910390a25050505050509193509193565b60078054604080516020601f60026000196101006001881615020190951694909404938401819004810282018101909252828152606093909290918301828280156108025780601f106107d757610100808354040283529160200191610802565b6000818152600c6020908152604080832081516101408101835281546bffffffffffffffffffffffff811682526001600160a01b036c010000000000000000000000009091041693810193909352600181015469ffffffffffffffffffff81169284018390526a01000000000000000000008104600290810b810b810b6060860152600160681b8204810b810b810b60808601526001600160801b03600160801b92839004811660a08701529083015460c0860152600383015460e0860152600490920154808316610100860152041661012083015282918291829182918291829182918291829182918291906124365760405162461bcd60e51b815260040161083390615a36565b6000600b6000836040015169ffffffffffffffffffff1669ffffffffffffffffffff1681526020019081526020016000206040518060600160405290816000820160009054906101000a90046001600160a01b03166001600160a01b03166001600160a01b031681526020016001820160009054906101000a90046001600160a01b03166001600160a01b03166001600160a01b031681526020016001820160149054906101000a900462ffffff1662ffffff1662ffffff1681525050905081600001518260200151826000015183602001518460400151866060015187608001518860a001518960c001518a60e001518b61010001518c61012001519d509d509d509d509d509d509d509d509d509d509d509d50505091939597999b5091939597999b565b6125646131a9565b6001600160a01b0316826001600160a01b031614156125ca576040805162461bcd60e51b815260206004820152601960248201527f4552433732313a20617070726f766520746f2063616c6c657200000000000000604482015290519081900360640190fd5b80600560006125d76131a9565b6001600160a01b0390811682526020808301939093526040918201600090812091871680825291909352912080547fffffffffffffffffffffffffffffffffffffffffffffffffffffffffffffff0016921515929092179091556126396131a9565b6001600160a01b03167f17307eab39ab6107e8899845ad3d59bd9653f200f220920489ca2b5937696c318360405180821515815260200191505060405180910390a35050565b604080517fdd62ed3e0000000000000000000000000000000000000000000000000000000081523360048201523060248201529051600019916001600160a01b0389169163dd62ed3e91604480820192602092909190829003018186803b1580156126e957600080fd5b505afa1580156126fd573d6000803e3d6000fd5b505050506040513d602081101561271357600080fd5b50511015612729576127298686868686866115bd565b505050505050565b60608167ffffffffffffffff8111801561274a57600080fd5b5060405190808252806020026020018201604052801561277e57816020015b60608152602001906001900390816127695790505b50905060005b82811015612864576000803086868581811061279c57fe5b90506020028101906127ae9190615b9f565b6040516127bc9291906157b9565b600060405180830381855af49150503d80600081146127f7576040519150601f19603f3d011682016040523d82523d6000602084013e6127fc565b606091505b5091509150816128425760448151101561281557600080fd5b8080602001905181019061282991906153e9565b60405162461bcd60e51b81526004016108339190615958565b8084848151811061284f57fe5b60209081029190910101525050600101612784565b5092915050565b61287c6128766131a9565b83613231565b6128b75760405162461bcd60e51b8152600401808060200182810382526031815260200180615eb66031913960400191505060405180910390fd5b6128c384848484613cd1565b50505050565b604080517fdd62ed3e000000000000000000000000000000000000000000000000000000008152336004820152306024820152905186916001600160a01b0389169163dd62ed3e91604480820192602092909190829003018186803b15801561293157600080fd5b505afa158015612945573d6000803e3d6000fd5b505050506040513d602081101561295b57600080fd5b5051101561272957612729868686868686612bf3565b7f000000000000000000000000000000000000000000000000000000000000000081565b60606129a08261319c565b6129a957600080fd5b6040517fe9dc63750000000000000000000000000000000000000000000000000000000081526001600160a01b037f0000000000000000000000000000000000000000000000000000000000000000169063e9dc637590612a109030908690600401615919565b60006040518083038186803b158015612a2857600080fd5b505afa158015612a3c573d6000803e3d6000fd5b505050506040513d6000823e601f3d908101601f1916820160405261148f91908101906153e9565b6000612a728284018461548c565b9050612aa27f00000000000000000000000000000000000000000000000000000000000000008260000151613d23565b508415612abd578051516020820151612abd91903388613d46565b8315612adb57612adb81600001516020015182602001513387613d46565b5050505050565b6000836001600160a01b03166370a08231306040518263ffffffff1660e01b815260040180826001600160a01b0316815260200191505060206040518083038186803b158015612b3157600080fd5b505afa158015612b45573d6000803e3d6000fd5b505050506040513d6020811015612b5b57600080fd5b5051905082811015612bb4576040805162461bcd60e51b815260206004820152601260248201527f496e73756666696369656e7420746f6b656e0000000000000000000000000000604482015290519081900360640190fd5b80156128c3576128c3848383613f64565b6001600160a01b03918216600090815260056020908152604080832093909416825291909152205460ff1690565b604080517fd505accf000000000000000000000000000000000000000000000000000000008152336004820152306024820152604481018790526064810186905260ff8516608482015260a4810184905260c4810183905290516001600160a01b0388169163d505accf9160e480830192600092919082900301818387803b15801561165057600080fd5b6000808235612c8d3382613231565b612ca95760405162461bcd60e51b81526004016108339061596b565b6000612cbb6060860160408701615549565b6001600160801b03161180612ce857506000612cdd6080860160608701615549565b6001600160801b0316115b612cf157600080fd5b600080612d046040870160208801615096565b6001600160a01b031614612d2757612d226040860160208701615096565b612d29565b305b85356000908152600c6020908152604080832060018082015469ffffffffffffffffffff168552600b8452828520835160608101855281546001600160a01b039081168252919092015490811694820194909452600160a01b90930462ffffff169183019190915292935090612dbf7f0000000000000000000000000000000000000000000000000000000000000000836132d1565b600484015460018501549192506001600160801b0380821692600160801b9283900482169290041615612fdc5760018501546040517fa34123a70000000000000000000000000000000000000000000000000000000081526001600160a01b0385169163a34123a791612e56916a01000000000000000000008104600290810b92600160681b909204900b90600090600401615932565b6040805180830381600087803b158015612e6f57600080fd5b505af1158015612e83573d6000803e3d6000fd5b505050506040513d601f19601f82011682018060405250810190612ea791906156db565b5050600185015460009081906001600160a01b0386169063514ea4bf90612eec9030906a01000000000000000000008104600290810b91600160681b9004900b613381565b6040518263ffffffff1660e01b8152600401612f089190615910565b60a06040518083038186803b158015612f2057600080fd5b505afa158015612f34573d6000803e3d6000fd5b505050506040513d601f19601f82011682018060405250810190612f589190615593565b50509250925050612f94876002015483038860010160109054906101000a90046001600160801b03166001600160801b0316600160801b6133db565b84019350612fcd876003015482038860010160109054906101000a90046001600160801b03166001600160801b0316600160801b6133db565b60028801929092556003870155015b6000806001600160801b038416612ff960608e0160408f01615549565b6001600160801b03161161301c5761301760608d0160408e01615549565b61301e565b835b836001600160801b03168d606001602081019061303b9190615549565b6001600160801b03161161305e5761305960808e0160608f01615549565b613060565b835b60018901546040517f4f1eb3d80000000000000000000000000000000000000000000000000000000081529294509092506001600160a01b03871691634f1eb3d8916130d3918c916a01000000000000000000008104600290810b92600160681b909204900b9088908890600401615820565b6040805180830381600087803b1580156130ec57600080fd5b505af1158015613100573d6000803e3d6000fd5b505050506040513d601f19601f820116820180604052508101906131249190615565565b6004890180546fffffffffffffffffffffffffffffffff196001600160801b03918216600160801b878a0384160217168689038216179091556040519281169d50169a508c35907f40d0efd1a53d60ecbf40971b9daf7dc90178c3aadc7aab1765632738fa8b8f0190610d94908b908690869061585d565b600061148f6002836140df565b3390565b6000818152600c6020526040902080546bffffffffffffffffffffffff166c010000000000000000000000006001600160a01b0385169081029190911790915581906131f88261182a565b6001600160a01b03167f8c5be1e5ebec7d5bd14f71427d1e84f3dd0314c0f7b2291e5b200ac8c7c3b92560405160405180910390a45050565b600061323c8261319c565b6132775760405162461bcd60e51b815260040180806020018281038252602c815260200180615d93602c913960400191505060405180910390fd5b60006132828361182a565b9050806001600160a01b0316846001600160a01b031614806132bd5750836001600160a01b03166132b28461080c565b6001600160a01b0316145b806110c157506110c18185612bc5565b4290565b805160208083015160408085015181517f1698ee820000000000000000000000000000000000000000000000000000000081526001600160a01b039586166004820152928516602484015262ffffff16604483015251600093861692631698ee829260648082019391829003018186803b15801561334e57600080fd5b505afa158015613362573d6000803e3d6000fd5b505050506040513d602081101561337857600080fd5b50519392505050565b604080516bffffffffffffffffffffffff19606086901b16602080830191909152600285810b60e890811b60348501529085900b901b60378301528251601a818403018152603a90920190925280519101205b9392505050565b6000808060001985870986860292508281109083900303905080613411576000841161340657600080fd5b5082900490506133d4565b80841161341d57600080fd5b6000848688096000868103871696879004966002600389028118808a02820302808a02820302808a02820302808a02820302808a02820302808a02909103029181900381900460010186841190950394909402919094039290920491909117919091029150509392505050565b604080516000808252602082019092526001600160a01b0384169083906040518082805190602001908083835b602083106134d65780518252601f1990920191602091820191016134b7565b6001836020036101000a03801982511681845116808217855250505050505090500191505060006040518083038185875af1925050503d8060008114613538576040519150601f19603f3d011682016040523d82523d6000602084013e61353d565b606091505b5050905080610939576040805162461bcd60e51b815260206004820152600360248201527f5354450000000000000000000000000000000000000000000000000000000000604482015290519081900360640190fd5b600061148f826140eb565b6000806000806000604051806060016040528087600001516001600160a01b0316815260200187602001516001600160a01b03168152602001876040015162ffffff1681525090506136107f0000000000000000000000000000000000000000000000000000000000000000826132d1565b91506000826001600160a01b0316633850c7bd6040518163ffffffff1660e01b815260040160e06040518083038186803b15801561364d57600080fd5b505afa158015613661573d6000803e3d6000fd5b505050506040513d601f19601f8201168201806040525081019061368591906155f4565b5050505050509050600061369c88608001516140ef565b905060006136ad8960a001516140ef565b90506136c48383838c60c001518d60e0015161443d565b97505050506137116040518060400160405280600381526020017f6c69710000000000000000000000000000000000000000000000000000000000815250866001600160801b0316614501565b816001600160a01b0316633c8a7d8d876060015188608001518960a00151896040518060400160405280888152602001336001600160a01b031681525060405160200161375e9190615a6d565b6040516020818303038152906040526040518663ffffffff1660e01b815260040161378d9594939291906157dd565b6040805180830381600087803b1580156137a657600080fd5b505af11580156137ba573d6000803e3d6000fd5b505050506040513d601f19601f820116820180604052508101906137de91906156db565b60408051808201909152600d81527f6d696e74656420616d6f756e7400000000000000000000000000000000000000602082015291955093506138229085856145c8565b6138348660c001518760e00151614697565b613848866101000151876101200151614697565b856101000151841015801561386257508561012001518310155b61387e5760405162461bcd60e51b8152600401610833906159ff565b509193509193565b826001600160a01b03166138998261182a565b6001600160a01b0316146138de5760405162461bcd60e51b8152600401808060200182810382526029815260200180615e6c6029913960400191505060405180910390fd5b6001600160a01b0382166139235760405162461bcd60e51b8152600401808060200182810382526024815260200180615d496024913960400191505060405180910390fd5b61392e838383610939565b6139396000826131ad565b6001600160a01b038316600090815260016020526040902061395b90826146f8565b506001600160a01b038216600090815260016020526040902061397e9082614704565b5061398b60028284614710565b5080826001600160a01b0316846001600160a01b03167fddf252ad1be2c89b69c2b068fc378daa952ba7f163c4a11628f55a4df523b3ef60405160405180910390a4505050565b600061148c8383614726565b600090565b60008080806139f2868661478a565b909450925050505b9250929050565b60006110c1848484614805565b6000908152600c6020526040902080546bffffffffffffffffffffffff19811660016bffffffffffffffffffffffff9283169081019092161790915590565b3b151590565b6001600160a01b038216613aae576040805162461bcd60e51b815260206004820181905260248201527f4552433732313a206d696e7420746f20746865207a65726f2061646472657373604482015290519081900360640190fd5b613ab78161319c565b15613b09576040805162461bcd60e51b815260206004820152601c60248201527f4552433732313a20746f6b656e20616c7265616479206d696e74656400000000604482015290519081900360640190fd5b613b1560008383610939565b6001600160a01b0382166000908152600160205260409020613b379082614704565b50613b4460028284614710565b5060405181906001600160a01b038416906000907fddf252ad1be2c89b69c2b068fc378daa952ba7f163c4a11628f55a4df523b3ef908290a45050565b6001600160a01b0382166000908152600a602052604090205469ffffffffffffffffffff168061148f5750600d8054600169ffffffffffffffffffff76010000000000000000000000000000000000000000000080840482168381019092160275ffffffffffffffffffffffffffffffffffffffffffff909316929092179092556001600160a01b038085166000908152600a6020908152604080832080547fffffffffffffffffffffffffffffffffffffffffffff000000000000000000001686179055848352600b825291829020865181549085167fffffffffffffffffffffffff000000000000000000000000000000000000000091821617825591870151950180549287015162ffffff16600160a01b027fffffffffffffffffff000000ffffffffffffffffffffffffffffffffffffffff969094169290911691909117939093161790915592915050565b613cdc848484613886565b613ce8848484846148cf565b6128c35760405162461bcd60e51b8152600401808060200182810382526032815260200180615cf06032913960400191505060405180910390fd5b6000613d2f83836132d1565b9050336001600160a01b0382161461148f57600080fd5b613d5284848484614a81565b613dd4846001600160a01b03166370a08231856040518263ffffffff1660e01b815260040180826001600160a01b0316815260200191505060206040518083038186803b158015613da257600080fd5b505afa158015613db6573d6000803e3d6000fd5b505050506040513d6020811015613dcc57600080fd5b505182614697565b7f00000000000000000000000000000000000000000000000000000000000000006001600160a01b0316846001600160a01b0316148015613e155750804710155b15613f37577f00000000000000000000000000000000000000000000000000000000000000006001600160a01b031663d0e30db0826040518263ffffffff1660e01b81526004016000604051808303818588803b158015613e7557600080fd5b505af1158015613e89573d6000803e3d6000fd5b50505050507f00000000000000000000000000000000000000000000000000000000000000006001600160a01b031663a9059cbb83836040518363ffffffff1660e01b815260040180836001600160a01b0316815260200182815260200192505050602060405180830381600087803b158015613f0557600080fd5b505af1158015613f19573d6000803e3d6000fd5b505050506040513d6020811015613f2f57600080fd5b506128c39050565b6001600160a01b038316301415613f5857613f53848383613f64565b6128c3565b6128c384848484614afa565b604080516001600160a01b038481166024830152604480830185905283518084039091018152606490920183526020820180516001600160e01b03167fa9059cbb000000000000000000000000000000000000000000000000000000001781529251825160009485949389169392918291908083835b60208310613ff95780518252601f199092019160209182019101613fda565b6001836020036101000a0380198251168184511680821785525050505050509050019150506000604051808303816000865af19150503d806000811461405b576040519150601f19603f3d011682016040523d82523d6000602084013e614060565b606091505b509150915081801561408e57508051158061408e575080806020019051602081101561408b57600080fd5b50515b612adb576040805162461bcd60e51b815260206004820152600260248201527f5354000000000000000000000000000000000000000000000000000000000000604482015290519081900360640190fd5b600061148c8383614bee565b5490565b60008060008360020b12614106578260020b61410e565b8260020b6000035b9050620d89e8811115614168576040805162461bcd60e51b815260206004820152600160248201527f5400000000000000000000000000000000000000000000000000000000000000604482015290519081900360640190fd5b60006001821661417c57600160801b61418e565b6ffffcb933bd6fad37aa2d162d1a5940015b70ffffffffffffffffffffffffffffffffff16905060028216156141c2576ffff97272373d413259a46990580e213a0260801c5b60048216156141e1576ffff2e50f5f656932ef12357cf3c7fdcc0260801c5b6008821615614200576fffe5caca7e10e4e61c3624eaa0941cd00260801c5b601082161561421f576fffcb9843d60f6159c9db58835c9266440260801c5b602082161561423e576fff973b41fa98c081472e6896dfb254c00260801c5b604082161561425d576fff2ea16466c96a3843ec78b326b528610260801c5b608082161561427c576ffe5dee046a99a2a811c461f1969c30530260801c5b61010082161561429c576ffcbe86c7900a88aedcffc83b479aa3a40260801c5b6102008216156142bc576ff987a7253ac413176f2b074cf7815e540260801c5b6104008216156142dc576ff3392b0822b70005940c7a398e4b70f30260801c5b6108008216156142fc576fe7159475a2c29b7443b29c7fa6e889d90260801c5b61100082161561431c576fd097f3bdfd2022b8845ad8f792aa58250260801c5b61200082161561433c576fa9f746462d870fdf8a65dc1f90e061e50260801c5b61400082161561435c576f70d869a156d2a1b890bb3df62baf32f70260801c5b61800082161561437c576f31be135f97d08fd981231505542fcfa60260801c5b6201000082161561439d576f09aa508b5b7a84e1c677de54f3e99bc90260801c5b620200008216156143bd576e5d6af8dedb81196699c329225ee6040260801c5b620400008216156143dc576d2216e584f5fa1ea926041bedfe980260801c5b620800008216156143f9576b048a170391f7dc42444e8fa20260801c5b60008460020b131561441457806000198161441057fe5b0490505b64010000000081061561442857600161442b565b60005b60ff16602082901c0192505050919050565b6000836001600160a01b0316856001600160a01b0316111561445d579293925b846001600160a01b0316866001600160a01b03161161448857614481858585614c06565b90506144f8565b836001600160a01b0316866001600160a01b031610156144ea5760006144af878686614c06565b905060006144be878986614c72565b9050806001600160801b0316826001600160801b0316106144df57806144e1565b815b925050506144f8565b6144f5858584614c72565b90505b95945050505050565b6115b982826040516024018080602001838152602001828103825284818151815260200191508051906020019080838360005b8381101561454c578181015183820152602001614534565b50505050905090810190601f1680156145795780820380516001836020036101000a031916815260200191505b5060408051601f198184030181529190526020810180516001600160e01b03167fb60e72cc000000000000000000000000000000000000000000000000000000001790529350614cb892505050565b6109398383836040516024018080602001848152602001838152602001828103825285818151815260200191508051906020019080838360005b8381101561461a578181015183820152602001614602565b50505050905090810190601f1680156146475780820380516001836020036101000a031916815260200191505b5060408051601f198184030181529190526020810180516001600160e01b03167fca47c4eb000000000000000000000000000000000000000000000000000000001790529450614cb89350505050565b604080516024810184905260448082018490528251808303909101815260649091019091526020810180516001600160e01b03167ff666715a000000000000000000000000000000000000000000000000000000001790526115b990614cb8565b600061148c8383614cd9565b600061148c8383614d9f565b60006110c184846001600160a01b038516614de9565b815460009082106147685760405162461bcd60e51b8152600401808060200182810382526022815260200180615cce6022913960400191505060405180910390fd5b82600001828154811061477757fe5b9060005260206000200154905092915050565b8154600090819083106147ce5760405162461bcd60e51b8152600401808060200182810382526022815260200180615e4a6022913960400191505060405180910390fd5b60008460000184815481106147df57fe5b906000526020600020906002020190508060000154816001015492509250509250929050565b600082815260018401602052604081205482816148a05760405162461bcd60e51b81526004018080602001828103825283818151815260200191508051906020019080838360005b8381101561486557818101518382015260200161484d565b50505050905090810190601f1680156148925780820380516001836020036101000a031916815260200191505b509250505060405180910390fd5b508460000160018203815481106148b357fe5b9060005260206000209060020201600101549150509392505050565b60006148e3846001600160a01b0316613a4d565b6148ef575060016110c1565b6000614a167f150b7a020000000000000000000000000000000000000000000000000000000061491d6131a9565b88878760405160240180856001600160a01b03168152602001846001600160a01b0316815260200183815260200180602001828103825283818151815260200191508051906020019080838360005b8381101561498457818101518382015260200161496c565b50505050905090810190601f1680156149b15780820380516001836020036101000a031916815260200191505b5095505050505050604051602081830303815290604052906001600160e01b0319166020820180516001600160e01b038381831617835250505050604051806060016040528060328152602001615cf0603291396001600160a01b0388169190614e80565b90506000818060200190516020811015614a2f57600080fd5b50517fffffffff00000000000000000000000000000000000000000000000000000000167f150b7a02000000000000000000000000000000000000000000000000000000001492505050949350505050565b604080516001600160a01b03808716602483015280861660448301528416606482015260848082018490528251808303909101815260a49091019091526020810180516001600160e01b03167f94250d77000000000000000000000000000000000000000000000000000000001790526128c390614cb8565b604080517f23b872dd0000000000000000000000000000000000000000000000000000000081526001600160a01b03858116600483015284811660248301526044820184905291516000928716916323b872dd91606480830192602092919082900301818787803b158015614b6e57600080fd5b505af1158015614b82573d6000803e3d6000fd5b505050506040513d6020811015614b9857600080fd5b5051905080612adb576040805162461bcd60e51b815260206004820152600360248201527f5354460000000000000000000000000000000000000000000000000000000000604482015290519081900360640190fd5b60009081526001919091016020526040902054151590565b6000826001600160a01b0316846001600160a01b03161115614c26579192915b6000614c52856001600160a01b0316856001600160a01b03166c010000000000000000000000006133db565b90506144f8614c6d84838888036001600160a01b03166133db565b614e8f565b6000826001600160a01b0316846001600160a01b03161115614c92579192915b6110c1614c6d836c010000000000000000000000008787036001600160a01b03166133db565b80516a636f6e736f6c652e6c6f67602083016000808483855afa5050505050565b60008181526001830160205260408120548015614d955783546000198083019190810190600090879083908110614d0c57fe5b9060005260206000200154905080876000018481548110614d2957fe5b600091825260208083209091019290925582815260018981019092526040902090840190558654879080614d5957fe5b6001900381819060005260206000200160009055905586600101600087815260200190815260200160002060009055600194505050505061148f565b600091505061148f565b6000614dab8383614bee565b614de15750815460018181018455600084815260208082209093018490558454848252828601909352604090209190915561148f565b50600061148f565b600082815260018401602052604081205480614e4e5750506040805180820182528381526020808201848152865460018181018955600089815284812095516002909302909501918255915190820155865486845281880190925292909120556133d4565b82856000016001830381548110614e6157fe5b90600052602060002090600202016001018190555060009150506133d4565b60606110c18484600085614ea5565b806001600160801b038116811461077157600080fd5b606082471015614ee65760405162461bcd60e51b8152600401808060200182810382526026815260200180615d6d6026913960400191505060405180910390fd5b614eef85613a4d565b614f40576040805162461bcd60e51b815260206004820152601d60248201527f416464726573733a2063616c6c20746f206e6f6e2d636f6e7472616374000000604482015290519081900360640190fd5b600080866001600160a01b031685876040518082805190602001908083835b60208310614f7e5780518252601f199092019160209182019101614f5f565b6001836020036101000a03801982511681845116808217855250505050505090500191505060006040518083038185875af1925050503d8060008114614fe0576040519150601f19603f3d011682016040523d82523d6000602084013e614fe5565b606091505b5091509150614ff5828286615000565b979650505050505050565b6060831561500f5750816133d4565b82511561501f5782518084602001fd5b60405162461bcd60e51b815260206004820181815284516024840152845185939192839260440191908501908083836000831561486557818101518382015260200161484d565b803561077181615c74565b805161ffff8116811461077157600080fd5b803562ffffff8116811461077157600080fd5b6000602082840312156150a7578081fd5b81356133d481615c74565b600080604083850312156150c4578081fd5b82356150cf81615c74565b915060208301356150df81615c74565b809150509250929050565b600080600080608085870312156150ff578182fd5b843561510a81615c74565b9350602085013561511a81615c74565b925061512860408601615083565b9150606085013561513881615c74565b939692955090935050565b600080600060608486031215615157578081fd5b833561516281615c74565b9250602084013561517281615c74565b929592945050506040919091013590565b60008060008060808587031215615198578182fd5b84356151a381615c74565b935060208501356151b381615c74565b925060408501359150606085013567ffffffffffffffff8111156151d5578182fd5b8501601f810187136151e5578182fd5b80356151f86151f382615c26565b615c02565b81815288602083850101111561520c578384fd5b81602084016020830137908101602001929092525092959194509250565b6000806040838503121561523c578182fd5b823561524781615c74565b915060208301356150df81615c8c565b60008060408385031215615269578182fd5b823561527481615c74565b946020939093013593505050565b600080600060608486031215615296578081fd5b83356152a181615c74565b92506020840135915060408401356152b881615c74565b809150509250925092565b60008060008060008060c087890312156152db578384fd5b86356152e681615c74565b95506020870135945060408701359350606087013561530481615cbe565b9598949750929560808101359460a0909101359350915050565b60008060208385031215615330578182fd5b823567ffffffffffffffff80821115615347578384fd5b818501915085601f83011261535a578384fd5b813581811115615368578485fd5b866020808302850101111561537b578485fd5b60209290920196919550909350505050565b60006020828403121561539e578081fd5b81357fffffffff00000000000000000000000000000000000000000000000000000000811681146133d4578182fd5b6000602082840312156153de578081fd5b81356133d481615c9a565b6000602082840312156153fa578081fd5b815167ffffffffffffffff811115615410578182fd5b8201601f81018413615420578182fd5b805161542e6151f382615c26565b818152856020838501011115615442578384fd5b6144f8826020830160208601615c48565b600060808284031215615464578081fd5b50919050565b600060a08284031215615464578081fd5b600060c08284031215615464578081fd5b6000818303608081121561549e578182fd5b6040516040810167ffffffffffffffff82821081831117156154bc57fe5b8160405260608412156154cd578485fd5b60a08301935081841081851117156154e157fe5b5082604052843592506154f383615c74565b91825260208401359161550583615c74565b82606083015261551760408601615083565b6080830152815261552a60608501615066565b6020820152949350505050565b60006101608284031215615464578081fd5b60006020828403121561555a578081fd5b81356133d481615ca9565b60008060408385031215615577578182fd5b825161558281615ca9565b60208401519092506150df81615ca9565b600080600080600060a086880312156155aa578283fd5b85516155b581615ca9565b80955050602086015193506040860151925060608601516155d581615ca9565b60808701519092506155e681615ca9565b809150509295509295909350565b600080600080600080600060e0888a03121561560e578485fd5b875161561981615c74565b602089015190975061562a81615c9a565b955061563860408901615071565b945061564660608901615071565b935061565460808901615071565b925060a088015161566481615cbe565b60c089015190925061567581615c8c565b8091505092959891949750929550565b600060208284031215615696578081fd5b61148c82615083565b6000602082840312156156b0578081fd5b5035919050565b600080604083850312156156c9578182fd5b8235915060208301356150df81615c74565b600080604083850312156156ed578182fd5b505080516020909101519092909150565b60008060008060608587031215615713578182fd5b8435935060208501359250604085013567ffffffffffffffff80821115615738578384fd5b818701915087601f83011261574b578384fd5b813581811115615759578485fd5b88602082850101111561576a578485fd5b95989497505060200194505050565b60008151808452615791816020860160208601615c48565b601f01601f19169290920160200192915050565b60020b9052565b6001600160801b03169052565b6000828483379101908152919050565b6001600160a01b0391909116815260200190565b60006001600160a01b03871682528560020b60208301528460020b60408301526001600160801b038416606083015260a06080830152614ff560a0830184615779565b6001600160a01b03959095168552600293840b60208601529190920b60408401526001600160801b03918216606084015216608082015260a00190565b6001600160a01b039390931683526001600160801b03918216602084015216604082015260600190565b6000602080830181845280855180835260408601915060408482028701019250838701855b828110156158f8577fffffffffffffffffffffffffffffffffffffffffffffffffffffffffffffffc08886030184526158e6858351615779565b945092850192908501906001016158ac565b5092979650505050505050565b901515815260200190565b90815260200190565b6001600160a01b03929092168252602082015260400190565b600293840b81529190920b60208201526001600160801b03909116604082015260600190565b60006020825261148c6020830184615779565b6020808252600c908201527f4e6f7420617070726f7665640000000000000000000000000000000000000000604082015260600190565b6020808252602c908201527f4552433732313a20617070726f76656420717565727920666f72206e6f6e657860408201527f697374656e7420746f6b656e0000000000000000000000000000000000000000606082015260800190565b60208082526014908201527f507269636520736c69707061676520636865636b000000000000000000000000604082015260600190565b60208082526010908201527f496e76616c696420746f6b656e20494400000000000000000000000000000000604082015260600190565b815180516001600160a01b03908116835260208083015182168185015260409283015162ffffff1692840192909252920151909116606082015260800190565b6001600160801b039390931683526020830191909152604082015260600190565b9384526001600160801b039290921660208401526040830152606082015260800190565b918252602082015260400190565b6bffffffffffffffffffffffff8d1681526001600160a01b038c811660208301528b811660408301528a16606082015262ffffff89166080820152600288900b60a08201526101808101615b5760c08301896157a5565b615b6460e08301886157ac565b8561010083015284610120830152615b806101408301856157ac565b615b8e6101608301846157ac565b9d9c50505050505050505050505050565b60008083357fffffffffffffffffffffffffffffffffffffffffffffffffffffffffffffffe1843603018112615bd3578283fd5b83018035915067ffffffffffffffff821115615bed578283fd5b6020019150368190038213156139fa57600080fd5b60405181810167ffffffffffffffff81118282101715615c1e57fe5b604052919050565b600067ffffffffffffffff821115615c3a57fe5b50601f01601f191660200190565b60005b83811015615c63578181015183820152602001615c4b565b838111156128c35750506000910152565b6001600160a01b0381168114615c8957600080fd5b50565b8015158114615c8957600080fd5b8060020b8114615c8957600080fd5b6001600160801b0381168114615c8957600080fd5b60ff81168114615c8957600080fdfe456e756d657261626c655365743a20696e646578206f7574206f6620626f756e64734552433732313a207472616e7366657220746f206e6f6e20455243373231526563656976657220696d706c656d656e7465724552433732315065726d69743a20617070726f76616c20746f2063757272656e74206f776e65724552433732313a207472616e7366657220746f20746865207a65726f2061646472657373416464726573733a20696e73756666696369656e742062616c616e636520666f722063616c6c4552433732313a206f70657261746f7220717565727920666f72206e6f6e6578697374656e7420746f6b656e4552433732313a20617070726f76652063616c6c6572206973206e6f74206f776e6572206e6f7220617070726f76656420666f7220616c6c4552433732313a2062616c616e636520717565727920666f7220746865207a65726f20616464726573734552433732313a206f776e657220717565727920666f72206e6f6e6578697374656e7420746f6b656e456e756d657261626c654d61703a20696e646578206f7574206f6620626f756e64734552433732313a207472616e73666572206f6620746f6b656e2074686174206973206e6f74206f776e4552433732313a20617070726f76616c20746f2063757272656e74206f776e65724552433732313a207472616e736665722063616c6c6572206973206e6f74206f776e6572206e6f7220617070726f766564a2646970667358221220fa68edd7b96817aee863ea00c49bd1f10bb187a3addfcc823c01289bb43a6c8f64736f6c63430007060033",
  "linkReferences": {},
  "deployedLinkReferences": {}
}