{
  "_format": "hh-sol-artifact-1",
  "contractName": "FrogLottery",
  "sourceName": "contracts/frogs/FrogLottery.sol",
  "abi": [
    {
      "inputs": [
        {
          "components": [
            {
              "internalType": "address",
              "name": "token0",
              "type": "address"
            },
            {
              "internalType": "address",
              "name": "token1",
              "type": "address"
            },
            {
              "internalType": "uint24",
              "name": "poolFee",
              "type": "uint24"
            },
            {
              "internalType": "address",
              "name": "frogReferalAddress",
              "type": "address"
            },
            {
              "internalType": "bool",
              "name": "isEthLottery",
              "type": "bool"
            },
            {
              "internalType": "address",
              "name": "beneficiary",
              "type": "address"
            },
            {
              "internalType": "address",
              "name": "pool",
              "type": "address"
            },
            {
              "internalType": "address",
              "name": "nonfungiblePositionManager",
              "type": "address"
            },
            {
              "internalType": "address",
              "name": "swapRouter",
              "type": "address"
            },
            {
              "internalType": "address",
              "name": "pancakeFactory",
              "type": "address"
            },
            {
              "internalType": "address",
              "name": "stable",
              "type": "address"
            },
            {
              "internalType": "bool",
              "name": "isReversed",
              "type": "bool"
            }
          ],
          "internalType": "struct IFrog.DeployLotteryParams",
          "name": "params",
          "type": "tuple"
        }
      ],
      "stateMutability": "nonpayable",
      "type": "constructor"
    },
    {
      "anonymous": false,
      "inputs": [
        {
          "indexed": true,
          "internalType": "address",
          "name": "_oldBeneficiary",
          "type": "address"
        },
        {
          "indexed": true,
          "internalType": "address",
          "name": "_newBeneficiary",
          "type": "address"
        }
      ],
      "name": "BeneficiaryChanged",
      "type": "event"
    },
    {
      "anonymous": false,
      "inputs": [
        {
          "indexed": true,
          "internalType": "address",
          "name": "_participant",
          "type": "address"
        },
        {
          "indexed": false,
          "internalType": "uint256",
          "name": "_amount",
          "type": "uint256"
        },
        {
          "indexed": false,
          "internalType": "uint256",
          "name": "_oldBalance",
          "type": "uint256"
        }
      ],
      "name": "Deposit",
      "type": "event"
    },
    {
      "anonymous": false,
      "inputs": [
        {
          "indexed": true,
          "internalType": "uint256",
          "name": "_drawNumber",
          "type": "uint256"
        },
        {
          "indexed": false,
          "internalType": "uint256",
          "name": "_rewardToken0",
          "type": "uint256"
        },
        {
          "indexed": false,
          "internalType": "uint256",
          "name": "_rewardToken1",
          "type": "uint256"
        },
        {
          "indexed": false,
          "internalType": "uint256",
          "name": "_prticipantsRewardToken0",
          "type": "uint256"
        },
        {
          "indexed": false,
          "internalType": "uint256",
          "name": "_prticipantsRewardToken1",
          "type": "uint256"
        }
      ],
      "name": "Draw",
      "type": "event"
    },
    {
      "anonymous": false,
      "inputs": [
        {
          "indexed": true,
          "internalType": "uint256",
          "name": "_oldFeePercent",
          "type": "uint256"
        },
        {
          "indexed": true,
          "internalType": "uint256",
          "name": "_newFeePercent",
          "type": "uint256"
        }
      ],
      "name": "FeePercentChanged",
      "type": "event"
    },
    {
      "anonymous": false,
      "inputs": [
        {
          "indexed": true,
          "internalType": "address",
          "name": "_newParticipant",
          "type": "address"
        }
      ],
      "name": "NewParticipant",
      "type": "event"
    },
    {
      "anonymous": false,
      "inputs": [
        {
          "indexed": true,
          "internalType": "uint256",
          "name": "_drawNumber",
          "type": "uint256"
        },
        {
          "indexed": true,
          "internalType": "address",
          "name": "_winner",
          "type": "address"
        },
        {
          "indexed": false,
          "internalType": "uint256",
          "name": "_amountToken0",
          "type": "uint256"
        },
        {
          "indexed": false,
          "internalType": "uint256",
          "name": "_amountToken1",
          "type": "uint256"
        }
      ],
      "name": "Victory",
      "type": "event"
    },
    {
      "anonymous": false,
      "inputs": [
        {
          "indexed": true,
          "internalType": "address",
          "name": "_participant",
          "type": "address"
        },
        {
          "indexed": false,
          "internalType": "uint256",
          "name": "_amount",
          "type": "uint256"
        },
        {
          "indexed": false,
          "internalType": "uint256",
          "name": "_oldBalance",
          "type": "uint256"
        }
      ],
      "name": "Withdraw",
      "type": "event"
    },
    {
      "inputs": [
        {
          "components": [
            {
              "internalType": "address",
              "name": "wallet",
              "type": "address"
            },
            {
              "internalType": "uint256",
              "name": "reward0",
              "type": "uint256"
            },
            {
              "internalType": "uint256",
              "name": "reward1",
              "type": "uint256"
            }
          ],
          "internalType": "struct IFrogReferal.ReferersRewardInfo[]",
          "name": "data",
          "type": "tuple[]"
        },
        {
          "internalType": "uint256",
          "name": "referersReward0",
          "type": "uint256"
        },
        {
          "internalType": "uint256",
          "name": "referersReward1",
          "type": "uint256"
        }
      ],
      "name": "afterDraw",
      "outputs": [],
      "stateMutability": "nonpayable",
      "type": "function"
    },
    {
      "inputs": [
        {
          "internalType": "address",
          "name": "",
          "type": "address"
        }
      ],
      "name": "alreadyParticipant",
      "outputs": [
        {
          "internalType": "bool",
          "name": "",
          "type": "bool"
        }
      ],
      "stateMutability": "view",
      "type": "function"
    },
    {
      "inputs": [
        {
          "internalType": "address",
          "name": "",
          "type": "address"
        }
      ],
      "name": "balanceOf",
      "outputs": [
        {
          "internalType": "uint256",
          "name": "",
          "type": "uint256"
        }
      ],
      "stateMutability": "view",
      "type": "function"
    },
    {
      "inputs": [],
      "name": "beneficiary",
      "outputs": [
        {
          "internalType": "address",
          "name": "",
          "type": "address"
        }
      ],
      "stateMutability": "view",
      "type": "function"
    },
    {
      "inputs": [
        {
          "internalType": "uint160",
          "name": "sqrtPriceX96",
          "type": "uint160"
        },
        {
          "internalType": "int24",
          "name": "currentTick",
          "type": "int24"
        },
        {
          "internalType": "int24",
          "name": "tickLower",
          "type": "int24"
        },
        {
          "internalType": "int24",
          "name": "tickUpper",
          "type": "int24"
        },
        {
          "internalType": "int256",
          "name": "liquidity",
          "type": "int256"
        },
        {
          "internalType": "bool",
          "name": "isMinus",
          "type": "bool"
        }
      ],
      "name": "calculateAmountsForLiquidity",
      "outputs": [
        {
          "internalType": "uint256",
          "name": "amount0",
          "type": "uint256"
        },
        {
          "internalType": "uint256",
          "name": "amount1",
          "type": "uint256"
        }
      ],
      "stateMutability": "pure",
      "type": "function"
    },
    {
      "inputs": [],
      "name": "claimReward",
      "outputs": [],
      "stateMutability": "nonpayable",
      "type": "function"
    },
    {
      "inputs": [
        {
          "internalType": "int24",
          "name": "_tickLower",
          "type": "int24"
        },
        {
          "internalType": "int24",
          "name": "_tickUpper",
          "type": "int24"
        }
      ],
      "name": "createPosition",
      "outputs": [],
      "stateMutability": "nonpayable",
      "type": "function"
    },
    {
      "inputs": [
        {
          "internalType": "address",
          "name": "token",
          "type": "address"
        },
        {
          "internalType": "uint256",
          "name": "amount",
          "type": "uint256"
        }
      ],
      "name": "deposit",
      "outputs": [
        {
          "internalType": "bool",
          "name": "success",
          "type": "bool"
        }
      ],
      "stateMutability": "payable",
      "type": "function"
    },
    {
      "inputs": [
        {
          "internalType": "address",
          "name": "",
          "type": "address"
        }
      ],
      "name": "depositOf",
      "outputs": [
        {
          "internalType": "uint256",
          "name": "",
          "type": "uint256"
        }
      ],
      "stateMutability": "view",
      "type": "function"
    },
    {
      "inputs": [],
      "name": "draw",
      "outputs": [],
      "stateMutability": "nonpayable",
      "type": "function"
    },
    {
      "inputs": [],
      "name": "drawNumber",
      "outputs": [
        {
          "internalType": "uint256",
          "name": "",
          "type": "uint256"
        }
      ],
      "stateMutability": "view",
      "type": "function"
    },
    {
      "inputs": [],
      "name": "farmTotal",
      "outputs": [
        {
          "internalType": "uint256",
          "name": "",
          "type": "uint256"
        }
      ],
      "stateMutability": "view",
      "type": "function"
    },
    {
      "inputs": [],
      "name": "getParticipants",
      "outputs": [
        {
          "internalType": "address[]",
          "name": "result",
          "type": "address[]"
        },
        {
          "internalType": "uint256",
          "name": "counter",
          "type": "uint256"
        }
      ],
      "stateMutability": "view",
      "type": "function"
    },
    {
      "inputs": [
        {
          "internalType": "address",
          "name": "tokenIn",
          "type": "address"
        },
        {
          "internalType": "uint128",
          "name": "amount",
          "type": "uint128"
        }
      ],
      "name": "getPriceWithDecimalsContoller",
      "outputs": [
        {
          "internalType": "uint256",
          "name": "amountOut",
          "type": "uint256"
        }
      ],
      "stateMutability": "view",
      "type": "function"
    },
    {
      "inputs": [],
      "name": "getRandomParticipantForSponsor",
      "outputs": [
        {
          "internalType": "address[]",
          "name": "",
          "type": "address[]"
        },
        {
          "internalType": "uint256[]",
          "name": "",
          "type": "uint256[]"
        }
      ],
      "stateMutability": "view",
      "type": "function"
    },
    {
      "inputs": [
        {
          "internalType": "address",
          "name": "_participant",
          "type": "address"
        }
      ],
      "name": "isParticipant",
      "outputs": [
        {
          "internalType": "bool",
          "name": "",
          "type": "bool"
        }
      ],
      "stateMutability": "view",
      "type": "function"
    },
    {
      "inputs": [],
      "name": "maxUsd",
      "outputs": [
        {
          "internalType": "uint256",
          "name": "",
          "type": "uint256"
        }
      ],
      "stateMutability": "view",
      "type": "function"
    },
    {
      "inputs": [],
      "name": "minUsd",
      "outputs": [
        {
          "internalType": "uint256",
          "name": "",
          "type": "uint256"
        }
      ],
      "stateMutability": "view",
      "type": "function"
    },
    {
      "inputs": [],
      "name": "nonfungiblePositionManager",
      "outputs": [
        {
          "internalType": "address",
          "name": "",
          "type": "address"
        }
      ],
      "stateMutability": "view",
      "type": "function"
    },
    {
      "inputs": [],
      "name": "pancakeFactory",
      "outputs": [
        {
          "internalType": "address",
          "name": "",
          "type": "address"
        }
      ],
      "stateMutability": "view",
      "type": "function"
    },
    {
      "inputs": [
        {
          "internalType": "uint256",
          "name": "",
          "type": "uint256"
        }
      ],
      "name": "participants",
      "outputs": [
        {
          "internalType": "address",
          "name": "",
          "type": "address"
        }
      ],
      "stateMutability": "view",
      "type": "function"
    },
    {
      "inputs": [],
      "name": "pool",
      "outputs": [
        {
          "internalType": "address",
          "name": "",
          "type": "address"
        }
      ],
      "stateMutability": "view",
      "type": "function"
    },
    {
      "inputs": [],
      "name": "poolFee",
      "outputs": [
        {
          "internalType": "uint24",
          "name": "",
          "type": "uint24"
        }
      ],
      "stateMutability": "view",
      "type": "function"
    },
    {
      "inputs": [
        {
          "internalType": "bytes",
          "name": "message",
          "type": "bytes"
        },
        {
          "internalType": "uint8",
          "name": "v",
          "type": "uint8"
        },
        {
          "internalType": "bytes32",
          "name": "r",
          "type": "bytes32"
        },
        {
          "internalType": "bytes32",
          "name": "s",
          "type": "bytes32"
        },
        {
          "internalType": "address",
          "name": "token",
          "type": "address"
        },
        {
          "internalType": "uint256",
          "name": "amount",
          "type": "uint256"
        }
      ],
      "name": "registerBeforeDeposit",
      "outputs": [
        {
          "internalType": "bool",
          "name": "success",
          "type": "bool"
        }
      ],
      "stateMutability": "payable",
      "type": "function"
    },
    {
      "inputs": [
        {
          "internalType": "address",
          "name": "",
          "type": "address"
        }
      ],
      "name": "rewardOfToken0",
      "outputs": [
        {
          "internalType": "uint256",
          "name": "",
          "type": "uint256"
        }
      ],
      "stateMutability": "view",
      "type": "function"
    },
    {
      "inputs": [
        {
          "internalType": "address",
          "name": "",
          "type": "address"
        }
      ],
      "name": "rewardOfToken1",
      "outputs": [
        {
          "internalType": "uint256",
          "name": "",
          "type": "uint256"
        }
      ],
      "stateMutability": "view",
      "type": "function"
    },
    {
      "inputs": [
        {
          "internalType": "address",
          "name": "_newBeneficiary",
          "type": "address"
        }
      ],
      "name": "setBeneficiary",
      "outputs": [],
      "stateMutability": "nonpayable",
      "type": "function"
    },
    {
      "inputs": [
        {
          "internalType": "uint256",
          "name": "_newFeePercent",
          "type": "uint256"
        }
      ],
      "name": "setFeePercent",
      "outputs": [],
      "stateMutability": "nonpayable",
      "type": "function"
    },
    {
      "inputs": [
        {
          "internalType": "address",
          "name": "_address",
          "type": "address"
        }
      ],
      "name": "setFrogReferalAddress",
      "outputs": [],
      "stateMutability": "nonpayable",
      "type": "function"
    },
    {
      "inputs": [
        {
          "internalType": "uint256",
          "name": "_maxUsd",
          "type": "uint256"
        }
      ],
      "name": "setMaxUsd",
      "outputs": [],
      "stateMutability": "nonpayable",
      "type": "function"
    },
    {
      "inputs": [
        {
          "internalType": "uint256",
          "name": "_minUsd",
          "type": "uint256"
        }
      ],
      "name": "setMinUsd",
      "outputs": [],
      "stateMutability": "nonpayable",
      "type": "function"
    },
    {
      "inputs": [
        {
          "internalType": "address",
          "name": "_address",
          "type": "address"
        }
      ],
      "name": "setStableCoinAddress",
      "outputs": [],
      "stateMutability": "nonpayable",
      "type": "function"
    },
    {
      "inputs": [
        {
          "internalType": "address",
          "name": "_cakeContractAddress",
          "type": "address"
        }
      ],
      "name": "setToken0ContractAddress",
      "outputs": [],
      "stateMutability": "nonpayable",
      "type": "function"
    },
    {
      "inputs": [
        {
          "internalType": "address",
          "name": "_address",
          "type": "address"
        }
      ],
      "name": "setToken1ContractAddress",
      "outputs": [],
      "stateMutability": "nonpayable",
      "type": "function"
    },
    {
      "inputs": [],
      "name": "swapRouter",
      "outputs": [
        {
          "internalType": "address",
          "name": "",
          "type": "address"
        }
      ],
      "stateMutability": "view",
      "type": "function"
    },
    {
      "inputs": [],
      "name": "token0",
      "outputs": [
        {
          "internalType": "address",
          "name": "",
          "type": "address"
        }
      ],
      "stateMutability": "view",
      "type": "function"
    },
    {
      "inputs": [],
      "name": "token1",
      "outputs": [
        {
          "internalType": "address",
          "name": "",
          "type": "address"
        }
      ],
      "stateMutability": "view",
      "type": "function"
    },
    {
      "inputs": [],
      "name": "tokenId",
      "outputs": [
        {
          "internalType": "uint256",
          "name": "",
          "type": "uint256"
        }
      ],
      "stateMutability": "view",
      "type": "function"
    },
    {
      "inputs": [
        {
          "internalType": "uint256",
          "name": "_amount",
          "type": "uint256"
        }
      ],
      "name": "withdraw",
      "outputs": [],
      "stateMutability": "nonpayable",
      "type": "function"
    },
    {
      "inputs": [
        {
          "internalType": "address",
          "name": "",
          "type": "address"
        }
      ],
      "name": "withdrawOf",
      "outputs": [
        {
          "internalType": "uint256",
          "name": "",
          "type": "uint256"
        }
      ],
      "stateMutability": "view",
      "type": "function"
    },
    {
      "stateMutability": "payable",
      "type": "receive"
    }
  ],
  "bytecode": "0x608060405260008055670de0b6b3a76400006018556402540be4006019553480156200002a57600080fd5b50604051620052ff380380620052ff8339810160408190526200004d9162000297565b60a0810151600580546001600160a01b0319166001600160a01b03909216919091178155610bb86010819055600f55601854662386f26fc1000091620000949190620003e0565b620000a0919062000402565b600d55601854620000b3906032620003e0565b600e5560808101516011805460ff19169115159190911790558051620000d990620001cd565b6020810151620000e990620001ef565b6060810151620000f99062000211565b60e0810151601180546001600160a01b03928316610100908102610100600160a81b03199092169190911790915560c0830151601280549184166001600160a01b03199283161790559083015160138054918416919092161790556040820151601580546101208501519093166301000000026301000000600160b81b031962ffffff90931662ffffff199094169390931791909116919091179055610140810151620001a69062000233565b610160015160158054911515600160b81b0260ff60b81b1990921691909117905562000432565b600180546001600160a01b0319166001600160a01b0392909216919091179055565b600280546001600160a01b0319166001600160a01b0392909216919091179055565b600480546001600160a01b0319166001600160a01b0392909216919091179055565b600380546001600160a01b0319166001600160a01b0392909216919091179055565b80516001600160a01b03811681146200026d57600080fd5b919050565b805180151581146200026d57600080fd5b805162ffffff811681146200026d57600080fd5b6000610180808385031215620002ab578182fd5b620002b681620003a1565b9050620002c38362000255565b8152620002d36020840162000255565b6020820152620002e66040840162000283565b6040820152620002f96060840162000255565b60608201526200030c6080840162000272565b60808201526200031f60a0840162000255565b60a08201526200033260c0840162000255565b60c08201526200034560e0840162000255565b60e08201526101006200035a81850162000255565b908201526101206200036e84820162000255565b908201526101406200038284820162000255565b908201526101606200039684820162000272565b908201529392505050565b604051601f8201601f191681016001600160401b0381118282101715620003d857634e487b7160e01b600052604160045260246000fd5b604052919050565b6000816000190483118215151615620003fd57620003fd6200041c565b500290565b6000828210156200041757620004176200041c565b500390565b634e487b7160e01b600052601160045260246000fd5b614ebd80620004426000396000f3fe6080604052600436106102bf5760003560e01c806355a621761161016e578063b44a2722116100cb578063d21220a71161007f578063db39d63911610064578063db39d63914610707578063dde7cd511461072a578063e0f1c9c51461074a576102c6565b8063d21220a7146106dd578063d80ffb20146106f2576102c6565b8063c0cb7c6a116100b0578063c0cb7c6a14610688578063c31c9c07146106a8578063cb0a14eb146106bd576102c6565b8063b44a27221461065e578063b88a802f14610673576102c6565b80637557fbcd116101225780637ce3489b116101075780637ce3489b146105fe578063929066f51461061e578063b2b3a5f11461063e576102c6565b80637557fbcd146105be5780637a6620d1146105de576102c6565b80635aa68ac0116101535780635aa68ac01461055b5780635dff93201461057e57806370a082311461059e576102c6565b806355a621761461050d57806359977a561461052d576102c6565b80631dc211941161021c57806338af3eed116101d0578063457aa181116101b5578063457aa181146104c557806347e7ef24146104e557806351b80e41146104f8576102c6565b806338af3eed1461049057806344879b3b146104a5576102c6565b806324f5bc9d1161020157806324f5bc9d146104305780632e1a7d4d1461045057806335c1d34914610470576102c6565b80631dc21194146103fb57806323e3fbd514610410576102c6565b806316f0115b116102735780631c31f710116102585780631c31f7101461039b5780631c3b3902146103bb5780631d6ca518146103db576102c6565b806316f0115b1461037157806317d70f7c14610386576102c6565b80630eecae21116102a45780630eecae21146103185780630f406cdb1461032f578063158f3fe81461034f576102c6565b8063089fe6aa146102cb5780630dfe1681146102f6576102c6565b366102c657005b600080fd5b3480156102d757600080fd5b506102e061075f565b6040516102ed9190614b22565b60405180910390f35b34801561030257600080fd5b5061030b61076a565b6040516102ed9190614485565b34801561032457600080fd5b5061032d610779565b005b34801561033b57600080fd5b5061032d61034a366004613f10565b610cb5565b34801561035b57600080fd5b506103646110d0565b6040516102ed9190614b32565b34801561037d57600080fd5b5061030b6110d6565b34801561039257600080fd5b506103646110e5565b3480156103a757600080fd5b5061032d6103b6366004613e75565b6110eb565b3480156103c757600080fd5b5061032d6103d6366004613e75565b611154565b3480156103e757600080fd5b5061032d6103f636600461422e565b611183565b34801561040757600080fd5b50610364611188565b34801561041c57600080fd5b5061036461042b366004613e75565b61118d565b61044361043e366004614018565b61119f565b6040516102ed91906145f6565b34801561045c57600080fd5b5061032d61046b36600461422e565b6112b8565b34801561047c57600080fd5b5061030b61048b36600461422e565b6115aa565b34801561049c57600080fd5b5061030b6115d4565b3480156104b157600080fd5b5061032d6104c0366004613e75565b6115e3565b3480156104d157600080fd5b5061032d6104e036600461422e565b611612565b6104436104f3366004613ee5565b611617565b34801561050457600080fd5b50610364611d71565b34801561051957600080fd5b50610364610528366004613ead565b611d77565b34801561053957600080fd5b5061054d610548366004614125565b611f81565b6040516102ed929190614b3b565b34801561056757600080fd5b5061057061207a565b6040516102ed929190614554565b34801561058a57600080fd5b50610364610599366004613e75565b6121d4565b3480156105aa57600080fd5b506103646105b9366004613e75565b6121e6565b3480156105ca57600080fd5b506103646105d9366004613e75565b6121f8565b3480156105ea57600080fd5b5061032d6105f9366004613e75565b61220a565b34801561060a57600080fd5b5061032d61061936600461422e565b612239565b34801561062a57600080fd5b50610443610639366004613e75565b61228f565b34801561064a57600080fd5b5061032d6106593660046140c2565b6122b1565b34801561066a57600080fd5b5061030b61256e565b34801561067f57600080fd5b5061032d612582565b34801561069457600080fd5b506103646106a3366004613e75565b6127c5565b3480156106b457600080fd5b5061030b6127d7565b3480156106c957600080fd5b5061032d6106d8366004613e75565b6127e6565b3480156106e957600080fd5b5061030b612815565b3480156106fe57600080fd5b50610364612824565b34801561071357600080fd5b5061071c61282a565b6040516102ed9291906144fe565b34801561073657600080fd5b50610443610745366004613e75565b612b14565b34801561075657600080fd5b5061030b612b29565b60155462ffffff1681565b6001546001600160a01b031681565b6040805160808101825260145481523060208201526001600160801b03818301819052606082015260115491517ffc6f78650000000000000000000000000000000000000000000000000000000081529091600091829161010090046001600160a01b03169063fc6f7865906107f390869060040161493b565b6040805180830381600087803b15801561080c57600080fd5b505af1158015610820573d6000803e3d6000fd5b505050506040513d601f19601f82011682018060405250810190610844919061429b565b600b54919350915060009067ffffffffffffffff81111561087557634e487b7160e01b600052604160045260246000fd5b60405190808252806020026020018201604052801561089e578160200160208202803683370190505b5090506000606060006108af61207a565b90945092508215610ca457600086156108ee57612710600f546127106108d59190614d1f565b6108df9089614cd8565b6108e99190614bad565b6108f1565b60005b90506000861561092757612710600f5461271061090e9190614d1f565b6109189089614cd8565b6109229190614bad565b61092a565b60005b90506000610939609687614bad565b610944906001614b95565b90508067ffffffffffffffff81111561096d57634e487b7160e01b600052604160045260246000fd5b604051908082528060200260200182016040528015610996578160200160208202803683370190505b5094506109a38682612b3f565b945060005b81811015610a4a5760008682815181106109d257634e487b7160e01b600052603260045260246000fd5b60200260200101519050600760008a8381518110610a0057634e487b7160e01b600052603260045260246000fd5b60200260200101516001600160a01b03166001600160a01b031681526020019081526020016000205486610a349190614b95565b9550508080610a4290614d4d565b9150506109a8565b50600080549080610a5a83614d4d565b919050555060008060005b83811015610c515760008a898381518110610a9057634e487b7160e01b600052603260045260246000fd5b602002602001015181518110610ab657634e487b7160e01b600052603260045260246000fd5b6020026020010151905060008860076000846001600160a01b03166001600160a01b03168152602001908152602001600020546064610af59190614cd8565b610aff9190614bad565b905060008815610b24576064610b15838b614cd8565b610b1f9190614bad565b610b27565b60005b905060008815610b4c576064610b3d848b614cd8565b610b479190614bad565b610b4f565b60005b90508160166000828254610b639190614b95565b925050819055508060176000828254610b7c9190614b95565b90915550506001600160a01b03841660009081526009602052604081208054849290610ba9908490614b95565b90915550506001600160a01b0384166000908152600a602052604081208054839290610bd6908490614b95565b90915550610be690508288614b95565b9650610bf28187614b95565b9550836001600160a01b03166000547f2a6d14c1969e72d0a727d230f1a4620414181fee7338c8b8d1ca396a370422e98484604051610c32929190614b3b565b60405180910390a3505050508080610c4990614d4d565b915050610a65565b506000547fd7dae4f08ff46240349a54ad46f4931970bcde73a4d2813ea2e58d639a4794438c8c8585604051610c8a9493929190614b49565b60405180910390a25050610c9c612cad565b505050610cac565b610cac612cad565b50505050505050565b6016546001546040517f70a08231000000000000000000000000000000000000000000000000000000008152600092916001600160a01b0316906370a0823190610d03903090600401614485565b60206040518083038186803b158015610d1b57600080fd5b505afa158015610d2f573d6000803e3d6000fd5b505050506040513d601f19601f82011682018060405250810190610d539190614246565b610d5d9190614d1f565b6017546002546040517f70a082310000000000000000000000000000000000000000000000000000000081529293506000926001600160a01b03909116906370a0823190610daf903090600401614485565b60206040518083038186803b158015610dc757600080fd5b505afa158015610ddb573d6000803e3d6000fd5b505050506040513d601f19601f82011682018060405250810190610dff9190614246565b610e099190614d1f565b600480546001546002546040517f6b27b5de0000000000000000000000000000000000000000000000000000000081529495506001600160a01b0392831694636b27b5de94610e5f948c94811693169101614576565b600060405180830381600087803b158015610e7957600080fd5b505af1158015610e8d573d6000803e3d6000fd5b50506001546004805460405163a9059cbb60e01b81526001600160a01b03938416955063a9059cbb9450610ec793909116918991016144e5565b602060405180830381600087803b158015610ee157600080fd5b505af1158015610ef5573d6000803e3d6000fd5b505050506040513d601f19601f82011682018060405250810190610f199190613ffc565b506002546004805460405163a9059cbb60e01b81526001600160a01b039384169363a9059cbb93610f5093909116918891016144e5565b602060405180830381600087803b158015610f6a57600080fd5b505af1158015610f7e573d6000803e3d6000fd5b505050506040513d601f19601f82011682018060405250810190610fa29190613ffc565b506001546005546001600160a01b039182169163a9059cbb9116610fc68786614d1f565b6040518363ffffffff1660e01b8152600401610fe39291906144e5565b602060405180830381600087803b158015610ffd57600080fd5b505af1158015611011573d6000803e3d6000fd5b505050506040513d601f19601f820116820180604052508101906110359190613ffc565b506002546005546001600160a01b039182169163a9059cbb91166110598685614d1f565b6040518363ffffffff1660e01b81526004016110769291906144e5565b602060405180830381600087803b15801561109057600080fd5b505af11580156110a4573d6000803e3d6000fd5b505050506040513d601f19601f820116820180604052508101906110c89190613ffc565b505050505050565b600e5481565b6012546001600160a01b031681565b60145481565b6005546040516001600160a01b038084169216907f768099735d1c322a05a5b9d7b76d99682a1833d3f7055e5ede25e0f2eeaa8c6d90600090a36005805473ffffffffffffffffffffffffffffffffffffffff19166001600160a01b0392909216919091179055565b6004805473ffffffffffffffffffffffffffffffffffffffff19166001600160a01b0392909216919091179055565b600e55565b600090565b60066020526000908152604090205481565b600480546040517f94dbed5a0000000000000000000000000000000000000000000000000000000081526000926001600160a01b03909216916394dbed5a916111f2918c918c918c918c918c9101614601565b602060405180830381600087803b15801561120c57600080fd5b505af1158015611220573d6000803e3d6000fd5b505050506040513d601f19601f820116820180604052508101906112449190613ffc565b6112695760405162461bcd60e51b815260040161126090614783565b60405180910390fd5b6000611277888a018a613e75565b90506001600160a01b03811633146112a15760405162461bcd60e51b8152600401611260906146b8565b6112ab8484611617565b9998505050505050505050565b33600090815260086020908152604080832054600683528184205460079093529083205490916112e791614b95565b6112f19190614d1f565b9050818110156113135760405162461bcd60e51b815260040161126090614828565b80821461158257600080600080600080600080601160019054906101000a90046001600160a01b03166001600160a01b03166399fbab886014546040518263ffffffff1660e01b81526004016113699190614b32565b6101806040518083038186803b15801561138257600080fd5b505afa158015611396573d6000803e3d6000fd5b505050506040513d601f19601f820116820180604052508101906113ba91906142da565b5050601254604080517f3850c7bd0000000000000000000000000000000000000000000000000000000081529051969f50949d506001600160a01b03169950633850c7bd9850506004808401975060e096509394505050829003018186803b15801561142557600080fd5b505afa158015611439573d6000803e3d6000fd5b505050506040513d601f19601f8201168201806040525081019061145d919061419d565b5093965093945061147b9350849250859150879050868d6001611f81565b909850965061148f818386868e6001611f81565b60155491975095506000908190600160b81b900460ff166114c2576001546002546001600160a01b0391821691166114d6565b6002546001546001600160a01b0391821691165b9150915060006114e6828b611d77565b6114f0848d611d77565b6114fa9190614b95565b90506000611508838a611d77565b611512858c611d77565b61151c9190614b95565b600d5490915061152c8284614d1f565b101561154a5760405162461bcd60e51b8152600401611260906148cd565b600e546115578284614d1f565b11156115755760405162461bcd60e51b815260040161126090614896565b5050505050505050505050505b33600090815260086020526040812080548492906115a1908490614b95565b90915550505050565b600b81815481106115ba57600080fd5b6000918252602090912001546001600160a01b0316905081565b6005546001600160a01b031681565b6003805473ffffffffffffffffffffffffffffffffffffffff19166001600160a01b0392909216919091179055565b600d55565b600480546040517fdde7cd510000000000000000000000000000000000000000000000000000000081526000926001600160a01b039092169163dde7cd519161166291339101614485565b60206040518083038186803b15801561167a57600080fd5b505afa15801561168e573d6000803e3d6000fd5b505050506040513d601f19601f820116820180604052508101906116b29190613ffc565b6116ce5760405162461bcd60e51b815260040161126090614904565b60015460009081906001600160a01b038681169116141561171b576116f4600285614bad565b600154600254919350611714916001600160a01b039182169116846130e3565b90506117ab565b6002546001600160a01b03868116911614156117635761173c600285614bad565b60025460015491925061175c916001600160a01b039182169116836130e3565b91506117ab565b6001546117859086906001600160a01b0316611780600288614bad565b6130e3565b600280549193506117a89187916001600160a01b03909116906117809088614bad565b90505b6015546000908190600160b81b900460ff166117c85783836117cb565b82845b6001549193509150600090819081906117ef906001600160a01b03163330886131f1565b600254611807906001600160a01b03163330876131f1565b60115460ff16156118175761199a565b60006040518060c001604052806014548152602001601560179054906101000a900460ff166118465787611848565b865b8152602001601560179054906101000a900460ff166118675786611869565b875b8152602001612710601560179054906101000a900460ff1661188b578861188d565b875b6118979190614bad565b6118a390612134614cd8565b8152602001612710601560179054906101000a900460ff166118c557876118c7565b885b6118d19190614bad565b6118dd90612134614cd8565b8152426020909101526011546040517f219f5d1700000000000000000000000000000000000000000000000000000000815291925061010090046001600160a01b03169063219f5d1790611935908490600401614a30565b606060405180830381600087803b15801561194f57600080fd5b505af1158015611963573d6000803e3d6000fd5b505050506040513d601f19601f8201168201806040525081019061198791906140ef565b6001600160801b03909216955093509150505b6015546000908190600160b81b900460ff166119b75783836119ba565b82845b91509150600080600080601160019054906101000a90046001600160a01b03166001600160a01b03166399fbab886014546040518263ffffffff1660e01b8152600401611a079190614b32565b6101806040518083038186803b158015611a2057600080fd5b505afa158015611a34573d6000803e3d6000fd5b505050506040513d601f19601f82011682018060405250810190611a5891906142da565b5050505050965096505050505050600080601260009054906101000a90046001600160a01b03166001600160a01b0316633850c7bd6040518163ffffffff1660e01b815260040160e06040518083038186803b158015611ab757600080fd5b505afa158015611acb573d6000803e3d6000fd5b505050506040513d601f19601f82011682018060405250810190611aef919061419d565b50503360009081526008602090815260408083205460068352818420546007909352922054969850949650611b439588958895508b94508a9350611b3291614b95565b611b3c9190614d1f565b6000611f81565b601554919750955060009450849350600160b81b900460ff169150611b7c9050576001546002546001600160a01b039182169116611b90565b6002546001546001600160a01b0391821691165b915091506000611ba08285611d77565b611baa8487611d77565b611bb49190614b95565b90506000611bc28388611d77565b611bcc858a611d77565b611bd69190614b95565b600d54909150611be68284614b95565b1015611c045760405162461bcd60e51b8152600401611260906148cd565b600e54611c118284614b95565b1115611c2f5760405162461bcd60e51b815260040161126090614896565b505033600090815260066020526040812080548b9450909250611c53908490614b95565b90915550611c6290503361228f565b611d1257336000818152600c602052604080822080547fffffffffffffffffffffffffffffffffffffffffffffffffffffffffffffff00166001908117909155600b8054918201815583527f0175b7a638427703f0dbe7bb9bbf987a2551717b34e79f33b5b1008d1fa01db901805473ffffffffffffffffffffffffffffffffffffffff191684179055517f79229b212fa3ea547fb5e5b66090cf250d442b12a51854a030f3b796d528134e9190a25b83891115611d3a57600154611d3a906001600160a01b031633611d35878d614d1f565b613293565b82881115611d5d57600254611d5d906001600160a01b031633611d35868c614d1f565b5060019d9c50505050505050505050505050565b600d5481565b6015546003546040517f1698ee8200000000000000000000000000000000000000000000000000000000815260009283926001600160a01b0363010000008304811693631698ee8293611dd8938a93169162ffffff90911690600401614499565b60206040518083038186803b158015611df057600080fd5b505afa158015611e04573d6000803e3d6000fd5b505050506040513d601f19601f82011682018060405250810190611e289190613e91565b90506000816001600160a01b0316633850c7bd6040518163ffffffff1660e01b815260040160e06040518083038186803b158015611e6557600080fd5b505afa158015611e79573d6000803e3d6000fd5b505050506040513d601f19601f82011682018060405250810190611e9d919061419d565b50505050509150506000600360009054906101000a90046001600160a01b03166001600160a01b031663313ce5676040518163ffffffff1660e01b815260040160206040518083038186803b158015611ef557600080fd5b505afa158015611f09573d6000803e3d6000fd5b505050506040513d601f19601f82011682018060405250810190611f2d91906142be565b90506000611f5f83601854886001600160801b0316611f4c9190614cd8565b6003548a906001600160a01b03166133ae565b9050611f6c82600a614c07565b611f769082614bad565b979650505050505050565b60008060008315611fa557611f9585613500565b611f9e90614d7c565b9050611fb1565b611fae85613500565b90505b60008082600f0b60001461206c578860020b8a60020b1215611fef57611fe8611fd98a613511565b611fe28a613511565b856138f8565b9150612044565b8760020b8a60020b12156120265761200a8b611fe28a613511565b915061201f6120188a613511565b8c85613949565b9050612044565b6120416120328a613511565b61203b8a613511565b85613949565b90505b85156120655761205382614db9565b945061205e81614db9565b935061206c565b8194508093505b505050965096945050505050565b600b5460609060009067ffffffffffffffff8111156120a957634e487b7160e01b600052604160045260246000fd5b6040519080825280602002602001820160405280156120d2578160200160208202803683370190505b5091506000905060005b600b548110156121cf57600060076000600b848154811061210d57634e487b7160e01b600052603260045260246000fd5b60009182526020808320909101546001600160a01b0316835282019290925260400190205411156121bd57600b818154811061215957634e487b7160e01b600052603260045260246000fd5b9060005260206000200160009054906101000a90046001600160a01b031683838151811061219757634e487b7160e01b600052603260045260246000fd5b6001600160a01b0390921660209283029190910190910152816121b981614d4d565b9250505b806121c781614d4d565b9150506120dc565b509091565b60096020526000908152604090205481565b60076020526000908152604090205481565b600a6020526000908152604090205481565b6001805473ffffffffffffffffffffffffffffffffffffffff19166001600160a01b0392909216919091179055565b60105481111561225b5760405162461bcd60e51b815260040161126090614726565b600f546040518291907f44cb215a0ee4011e0802aea4220545b8f823c5041bb303a4ae1219f99f91e65b90600090a3600f55565b6001600160a01b0381166000908152600c602052604090205460ff165b919050565b601454156122d15760405162461bcd60e51b8152600401611260906146ef565b600180546122ee916001600160a01b0390911690339030906131f1565b600254612307906001600160a01b0316333060016131f1565b6001546011546040517f095ea7b30000000000000000000000000000000000000000000000000000000081526001600160a01b039283169263095ea7b39261235f9261010090910490911690600019906004016144e5565b602060405180830381600087803b15801561237957600080fd5b505af115801561238d573d6000803e3d6000fd5b505050506040513d601f19601f820116820180604052508101906123b19190613ffc565b506002546011546040517f095ea7b30000000000000000000000000000000000000000000000000000000081526001600160a01b039283169263095ea7b39261240a9261010090910490911690600019906004016144e5565b602060405180830381600087803b15801561242457600080fd5b505af1158015612438573d6000803e3d6000fd5b505050506040513d601f19601f8201168201806040525081019061245c9190613ffc565b506040805161016081018252600180546001600160a01b039081168352600280548216602085015260155462ffffff168486015286810b606085015285900b608084015260a0830182905260c0830191909152600060e0830181905261010080840191909152306101208401524261014084015260115493517f883164560000000000000000000000000000000000000000000000000000000081529293041690638831645690612511908490600401614a74565b608060405180830381600087803b15801561252b57600080fd5b505af115801561253f573d6000803e3d6000fd5b505050506040513d601f19601f82011682018060405250810190612563919061425e565b505050601455505050565b60115461010090046001600160a01b031681565b336000908152600960205260409020541515806125ad5750336000908152600a602052604090205415155b6125c95760405162461bcd60e51b81526004016112609061485f565b33600090815260096020526040902054156126c657600154336000818152600960205260409081902054905163a9059cbb60e01b81526001600160a01b039093169263a9059cbb9261261f9290916004016144e5565b602060405180830381600087803b15801561263957600080fd5b505af115801561264d573d6000803e3d6000fd5b505050506040513d601f19601f820116820180604052508101906126719190613ffc565b61268d5760405162461bcd60e51b815260040161126090614681565b3360009081526009602052604081205460168054919290916126b0908490614d1f565b9091555050336000908152600960205260408120555b336000908152600a6020526040902054156127c357600254336000818152600a60205260409081902054905163a9059cbb60e01b81526001600160a01b039093169263a9059cbb9261271c9290916004016144e5565b602060405180830381600087803b15801561273657600080fd5b505af115801561274a573d6000803e3d6000fd5b505050506040513d601f19601f8201168201806040525081019061276e9190613ffc565b61278a5760405162461bcd60e51b8152600401611260906147ba565b336000908152600a602052604081205460178054919290916127ad908490614d1f565b9091555050336000908152600a60205260408120555b565b60086020526000908152604090205481565b6013546001600160a01b031681565b6002805473ffffffffffffffffffffffffffffffffffffffff19166001600160a01b0392909216919091179055565b6002546001600160a01b031681565b60005481565b6060806000600b8054905067ffffffffffffffff81111561285b57634e487b7160e01b600052604160045260246000fd5b604051908082528060200260200182016040528015612884578160200160208202803683370190505b509050600061289161207a565b9092509050606060006128a5609684614bad565b6128b0906001614b95565b90508067ffffffffffffffff8111156128d957634e487b7160e01b600052604160045260246000fd5b604051908082528060200260200182016040528015612902578160200160208202803683370190505b50915061290f8382612b3f565b915060008167ffffffffffffffff81111561293a57634e487b7160e01b600052604160045260246000fd5b604051908082528060200260200182016040528015612963578160200160208202803683370190505b50905060008267ffffffffffffffff81111561298f57634e487b7160e01b600052604160045260246000fd5b6040519080825280602002602001820160405280156129b8578160200160208202803683370190505b50905060005b83811015612b0657868582815181106129e757634e487b7160e01b600052603260045260246000fd5b602002602001015181518110612a0d57634e487b7160e01b600052603260045260246000fd5b6020026020010151838281518110612a3557634e487b7160e01b600052603260045260246000fd5b60200260200101906001600160a01b031690816001600160a01b0316815250506007600088878481518110612a7a57634e487b7160e01b600052603260045260246000fd5b602002602001015181518110612aa057634e487b7160e01b600052603260045260246000fd5b60200260200101516001600160a01b03166001600160a01b0316815260200190815260200160002054828281518110612ae957634e487b7160e01b600052603260045260246000fd5b602090810291909101015280612afe81614d4d565b9150506129be565b509096509450505050509091565b600c6020526000908152604090205460ff1681565b601554630100000090046001600160a01b031681565b606060008267ffffffffffffffff811115612b6a57634e487b7160e01b600052604160045260246000fd5b604051908082528060200260200182016040528015612b93578160200160208202803683370190505b5091505b82811015612c50576000612baa8561397d565b612bb5906001614b95565b90506000805b85811015612c095782858281518110612be457634e487b7160e01b600052603260045260246000fd5b60200260200101511415612bf757600191505b80612c0181614d4d565b915050612bbb565b5080612c495781848481518110612c3057634e487b7160e01b600052603260045260246000fd5b602090810291909101015282612c4581614d4d565b9350505b5050612b97565b60005b83811015612ca557828181518110612c7b57634e487b7160e01b600052603260045260246000fd5b602002602001018051809190612c9090614d36565b90525080612c9d81614d4d565b915050612c53565b505092915050565b60005b600b548110156130e0576000600b8281548110612cdd57634e487b7160e01b600052603260045260246000fd5b60009182526020808320909101546001600160a01b0316808352600690915260409091205490915015612d5d576001600160a01b03811660009081526006602090815260408083205460079092528220805491929091612d3e908490614b95565b90915550506001600160a01b0381166000908152600660205260408120555b6001600160a01b03811660009081526008602052604090205415801590612da757506001600160a01b03811660009081526007602090815260408083205460089092529091205411155b156130cd576001600160a01b03811660009081526008602090815260408083205460079092528220805491929091612de0908490614d1f565b909155505060115460ff1615612df5576130b3565b6040805160a08101825260145481526001600160a01b03808416600090815260086020908152848220546001600160801b031690840152828401819052606083015242608083015260115492517f0c49ccbe000000000000000000000000000000000000000000000000000000008152919261010090041690630c49ccbe90612e8290849060040161497e565b6040805180830381600087803b158015612e9b57600080fd5b505af1158015612eaf573d6000803e3d6000fd5b505050506040513d601f19601f82011682018060405250810190612ed3919061429b565b50506040805160808101825260145481523060208201526001600160801b03818301819052606082015260115491517ffc6f78650000000000000000000000000000000000000000000000000000000081529091600091829161010090046001600160a01b03169063fc6f786590612f4f90869060040161493b565b6040805180830381600087803b158015612f6857600080fd5b505af1158015612f7c573d6000803e3d6000fd5b505050506040513d601f19601f82011682018060405250810190612fa0919061429b565b60015460405163a9059cbb60e01b81529294509092506001600160a01b03169063a9059cbb90612fd690889086906004016144e5565b602060405180830381600087803b158015612ff057600080fd5b505af1158015613004573d6000803e3d6000fd5b505050506040513d601f19601f820116820180604052508101906130289190613ffc565b5060025460405163a9059cbb60e01b81526001600160a01b039091169063a9059cbb9061305b90889085906004016144e5565b602060405180830381600087803b15801561307557600080fd5b505af1158015613089573d6000803e3d6000fd5b505050506040513d601f19601f820116820180604052508101906130ad9190613ffc565b50505050505b6001600160a01b0381166000908152600860205260408120555b50806130d881614d4d565b915050612cb0565b50565b60006130f1843330856131f1565b6013546131099085906001600160a01b03168461398e565b60408051610100810182526001600160a01b038087168252858116602083015260155462ffffff168284015233606083015242608083015260a08201859052600060c0830181905260e083015260135492517f414bf3890000000000000000000000000000000000000000000000000000000081529192169063414bf389906131969084906004016149c1565b602060405180830381600087803b1580156131b057600080fd5b505af11580156131c4573d6000803e3d6000fd5b505050506040513d601f19601f820116820180604052508101906131e89190614246565b95945050505050565b6040517f23b872dd0000000000000000000000000000000000000000000000000000000081526001600160a01b038516906323b872dd9061323a908690869086906004016144c1565b602060405180830381600087803b15801561325457600080fd5b505af1158015613268573d6000803e3d6000fd5b505050506040513d601f19601f8201168201806040525081019061328c9190613ffc565b5050505050565b600080846001600160a01b031663a9059cbb60e01b85856040516024016132bb9291906144e5565b60408051601f198184030181529181526020820180517bffffffffffffffffffffffffffffffffffffffffffffffffffffffff167fffffffff000000000000000000000000000000000000000000000000000000009094169390931790925290516133269190614419565b6000604051808303816000865af19150503d8060008114613363576040519150601f19603f3d011682016040523d82523d6000602084013e613368565b606091505b50915091508180156133925750805115806133925750808060200190518101906133929190613ffc565b61328c5760405162461bcd60e51b8152600401611260906147f1565b6000806133ba86613511565b90506001600160801b036001600160a01b0382161161346a5760006133e86001600160a01b03831680614cd8565b9050836001600160a01b0316856001600160a01b031610613435576134307801000000000000000000000000000000000000000000000000876001600160801b031683613aa9565b613462565b61346281876001600160801b03167801000000000000000000000000000000000000000000000000613aa9565b9250506134f7565b60006134896001600160a01b0383168068010000000000000000613aa9565b9050836001600160a01b0316856001600160a01b0316106134ce576134c9700100000000000000000000000000000000876001600160801b031683613aa9565b6134f3565b6134f381876001600160801b0316700100000000000000000000000000000000613aa9565b9250505b50949350505050565b80600f81900b81146122ac57600080fd5b60008060008360020b12613528578260020b613535565b8260020b61353590614db9565b90506000600182166135585770010000000000000000000000000000000061356a565b6ffffcb933bd6fad37aa2d162d1a5940015b70ffffffffffffffffffffffffffffffffff16905060028216156135a95760806135a4826ffff97272373d413259a46990580e213a614cd8565b901c90505b60048216156135d35760806135ce826ffff2e50f5f656932ef12357cf3c7fdcc614cd8565b901c90505b60088216156135fd5760806135f8826fffe5caca7e10e4e61c3624eaa0941cd0614cd8565b901c90505b6010821615613627576080613622826fffcb9843d60f6159c9db58835c926644614cd8565b901c90505b602082161561365157608061364c826fff973b41fa98c081472e6896dfb254c0614cd8565b901c90505b604082161561367b576080613676826fff2ea16466c96a3843ec78b326b52861614cd8565b901c90505b60808216156136a55760806136a0826ffe5dee046a99a2a811c461f1969c3053614cd8565b901c90505b6101008216156136d05760806136cb826ffcbe86c7900a88aedcffc83b479aa3a4614cd8565b901c90505b6102008216156136fb5760806136f6826ff987a7253ac413176f2b074cf7815e54614cd8565b901c90505b610400821615613726576080613721826ff3392b0822b70005940c7a398e4b70f3614cd8565b901c90505b61080082161561375157608061374c826fe7159475a2c29b7443b29c7fa6e889d9614cd8565b901c90505b61100082161561377c576080613777826fd097f3bdfd2022b8845ad8f792aa5825614cd8565b901c90505b6120008216156137a75760806137a2826fa9f746462d870fdf8a65dc1f90e061e5614cd8565b901c90505b6140008216156137d25760806137cd826f70d869a156d2a1b890bb3df62baf32f7614cd8565b901c90505b6180008216156137fd5760806137f8826f31be135f97d08fd981231505542fcfa6614cd8565b901c90505b62010000821615613829576080613824826f09aa508b5b7a84e1c677de54f3e99bc9614cd8565b901c90505b6202000082161561385457608061384f826e5d6af8dedb81196699c329225ee604614cd8565b901c90505b6204000082161561387e576080613879826d2216e584f5fa1ea926041bedfe98614cd8565b901c90505b620800008216156138a65760806138a1826b048a170391f7dc42444e8fa2614cd8565b901c90505b60008460020b13156138c1576138be81600019614bad565b90505b6138d064010000000082614d68565b156138dc5760016138df565b60005b6138f09060ff16602083901c614b95565b949350505050565b60008082600f0b1261391e576139196139148585856001613c02565b613cc5565b61393f565b613936613914858561392f86614d7c565b6000613c02565b61393f90614db9565b90505b9392505050565b60008082600f0b12613965576139196139148585856001613cf7565b613936613914858561397686614d7c565b6000613cf7565b600061398882613d87565b92915050565b600080846001600160a01b031663095ea7b360e01b85856040516024016139b69291906144e5565b60408051601f198184030181529181526020820180517bffffffffffffffffffffffffffffffffffffffffffffffffffffffff167fffffffff00000000000000000000000000000000000000000000000000000000909416939093179092529051613a219190614419565b6000604051808303816000865af19150503d8060008114613a5e576040519150601f19603f3d011682016040523d82523d6000602084013e613a63565b606091505b5091509150818015613a8d575080511580613a8d575080806020019051810190613a8d9190613ffc565b61328c5760405162461bcd60e51b81526004016112609061464a565b600080806000198587098587029250828110838203039150508060001415613ae35760008411613ad857600080fd5b508290049050613942565b808411613aef57600080fd5b6000848688098580049581850381900494821190930392909150600081900304600101613b1c8184614cd8565b909317926000613b2d876003614cd8565b6002189050613b3c8188614cd8565b613b47906002614d1f565b613b519082614cd8565b9050613b5d8188614cd8565b613b68906002614d1f565b613b729082614cd8565b9050613b7e8188614cd8565b613b89906002614d1f565b613b939082614cd8565b9050613b9f8188614cd8565b613baa906002614d1f565b613bb49082614cd8565b9050613bc08188614cd8565b613bcb906002614d1f565b613bd59082614cd8565b9050613be18188614cd8565b613bec906002614d1f565b613bf69082614cd8565b90506112ab8186614cd8565b6000836001600160a01b0316856001600160a01b03161115613c22579293925b7bffffffffffffffffffffffffffffffff000000000000000000000000606084901b166000613c518787614cf7565b6001600160a01b031690506000876001600160a01b031611613c7257600080fd5b83613c9f57866001600160a01b0316613c958383896001600160a01b0316613aa9565b6134c99190614bad565b6134f3613cb68383896001600160a01b0316613dc0565b886001600160a01b0316613e0e565b60007f80000000000000000000000000000000000000000000000000000000000000008210613cf357600080fd5b5090565b6000836001600160a01b0316856001600160a01b03161115613d17579293925b81613d5457613d4f6001600160801b038416613d338787614cf7565b6001600160a01b03166c01000000000000000000000000613aa9565b6131e8565b6131e86001600160801b038416613d6b8787614cf7565b6001600160a01b03166c01000000000000000000000000613dc0565b6000814233604051602001613d9d929190614452565b6040516020818303038152906040528051906020012060001c6139889190614d68565b6000613dcd848484613aa9565b905060008280613ded57634e487b7160e01b600052601260045260246000fd5b8486091115613942576000198110613e0457600080fd5b806131e881614d4d565b808204910615150190565b80356122ac81614e31565b80516122ac81614e31565b80516122ac81614e54565b80516122ac81614e63565b805161ffff811681146122ac57600080fd5b805162ffffff811681146122ac57600080fd5b80356122ac81614e78565b600060208284031215613e86578081fd5b813561394281614e31565b600060208284031215613ea2578081fd5b815161394281614e31565b60008060408385031215613ebf578081fd5b8235613eca81614e31565b91506020830135613eda81614e63565b809150509250929050565b60008060408385031215613ef7578182fd5b8235613f0281614e31565b946020939093013593505050565b60008060006060808587031215613f25578182fd5b843567ffffffffffffffff80821115613f3c578384fd5b818701915087601f830112613f4f578384fd5b8135602082821115613f6357613f63614e1b565b613f708182840201614b64565b8281528181019350848201868402860183018c1015613f8d578788fd5b8795505b83861015613fe35786818d031215613fa7578788fd5b613fb087614b64565b8135613fbb81614e31565b8152818401358482015260408083013590820152855260019590950194938201938601613f91565b509a908901359950604090980135979650505050505050565b60006020828403121561400d578081fd5b815161394281614e46565b600080600080600080600060c0888a031215614032578485fd5b873567ffffffffffffffff80821115614049578687fd5b818a0191508a601f83011261405c578687fd5b81358181111561406a578788fd5b8b602082850101111561407b578788fd5b602092830199509750614091918a019050613e6a565b945060408801359350606088013592506140ad60808901613e19565b915060a0880135905092959891949750929550565b600080604083850312156140d4578182fd5b82356140df81614e54565b91506020830135613eda81614e54565b600080600060608486031215614103578081fd5b835161410e81614e63565b602085015160409095015190969495509392505050565b60008060008060008060c0878903121561413d578384fd5b863561414881614e31565b9550602087013561415881614e54565b9450604087013561416881614e54565b9350606087013561417881614e54565b92506080870135915060a087013561418f81614e46565b809150509295509295509295565b600080600080600080600060e0888a0312156141b7578081fd5b87516141c281614e31565b60208901519097506141d381614e54565b95506141e160408901613e45565b94506141ef60608901613e45565b93506141fd60808901613e45565b925060a088015161420d81614e78565b60c089015190925061421e81614e46565b8091505092959891949750929550565b60006020828403121561423f578081fd5b5035919050565b600060208284031215614257578081fd5b5051919050565b60008060008060808587031215614273578182fd5b84519350602085015161428581614e63565b6040860151606090960151949790965092505050565b600080604083850312156142ad578182fd5b505080516020909101519092909150565b6000602082840312156142cf578081fd5b815161394281614e78565b6000806000806000806000806000806000806101808d8f0312156142fc578586fd5b8c516bffffffffffffffffffffffff81168114614317578687fd5b9b5061432560208e01613e24565b9a5061433360408e01613e24565b995061434160608e01613e24565b985061434f60808e01613e57565b975061435d60a08e01613e2f565b965061436b60c08e01613e2f565b955061437960e08e01613e3a565b94506101008d015193506101208d015192506143986101408e01613e3a565b91506143a76101608e01613e3a565b90509295989b509295989b509295989b565b6001600160a01b03169052565b6000815180845260208085019450808401835b838110156143fe5781516001600160a01b0316875295820195908201906001016143d9565b509495945050505050565b60020b9052565b62ffffff169052565b60008251815b81811015614439576020818601810151858301520161441f565b818111156144475782828501525b509190910192915050565b91825260601b7fffffffffffffffffffffffffffffffffffffffff00000000000000000000000016602082015260340190565b6001600160a01b0391909116815260200190565b6001600160a01b03938416815291909216602082015262ffffff909116604082015260600190565b6001600160a01b039384168152919092166020820152604081019190915260600190565b6001600160a01b03929092168252602082015260400190565b60006040825261451160408301856143c6565b828103602084810191909152845180835285820192820190845b818110156145475784518352938301939183019160010161452b565b5090979650505050505050565b60006040825261456760408301856143c6565b90508260208301529392505050565b60608082528451828201819052600091906020906080850190828901855b828110156145cd57815180516001600160a01b031685528581015186860152604090810151908501529285019290840190600101614594565b5050506001600160a01b0396871691850191909152939094166040909201919091525092915050565b901515815260200190565b600060808252856080830152858760a08401378060a0878401015260a0601f19601f880116830101905060ff851660208301528360408301528260608301529695505050505050565b60208082526002908201527f5341000000000000000000000000000000000000000000000000000000000000604082015260600190565b6020808252600f908201527f5472616e73666572206661696c64300000000000000000000000000000000000604082015260600190565b6020808252601f908201527f73656e64657220616e64207369676e65642075736572206d69736d6174636800604082015260600190565b60208082526004908201527f6e6f6e6f00000000000000000000000000000000000000000000000000000000604082015260600190565b6020808252602e908201527f66656550657263656e742063616e206e6f74206265206772656174207468616e60408201527f206d617846656550657263656e74000000000000000000000000000000000000606082015260800190565b6020808252600b908201527f696e76616c696420736967000000000000000000000000000000000000000000604082015260600190565b6020808252600f908201527f5472616e73666572206661696c64310000000000000000000000000000000000604082015260600190565b60208082526002908201527f5354000000000000000000000000000000000000000000000000000000000000604082015260600190565b60208082526015908201527f4e6f7420656e6f75676874206c69717569646974790000000000000000000000604082015260600190565b6020808252600f908201527f52657761726420697320656d7074790000000000000000000000000000000000604082015260600190565b6020808252601f908201527f546f74616c2062616c616e6365206772656174207468616e206d617855534400604082015260600190565b6020808252601e908201527f546f74616c2062616c616e6365206c657373207468616e206d696e5553440000604082015260600190565b60208082526011908201527f4e6f742061205061727469636970616e74000000000000000000000000000000604082015260600190565b815181526020808301516001600160a01b0316908201526040808301516001600160801b0390811691830191909152606092830151169181019190915260800190565b600060a082019050825182526001600160801b03602084015116602083015260408301516040830152606083015160608301526080830151608083015292915050565b6000610100820190506001600160a01b0380845116835280602085015116602084015262ffffff60408501511660408401528060608501511660608401526080840151608084015260a084015160a084015260c084015160c08401528060e08501511660e08401525092915050565b600060c082019050825182526020830151602083015260408301516040830152606083015160608301526080830151608083015260a083015160a083015292915050565b600061016082019050614a888284516143b9565b6020830151614a9a60208401826143b9565b506040830151614aad6040840182614410565b506060830151614ac06060840182614409565b506080830151614ad36080840182614409565b5060a083015160a083015260c083015160c083015260e083015160e083015261010080840151818401525061012080840151614b11828501826143b9565b505061014092830151919092015290565b62ffffff91909116815260200190565b90815260200190565b918252602082015260400190565b93845260208401929092526040830152606082015260800190565b604051601f8201601f1916810167ffffffffffffffff81118282101715614b8d57614b8d614e1b565b604052919050565b60008219821115614ba857614ba8614def565b500190565b600082614bbc57614bbc614e05565b500490565b80825b6001808611614bd35750614bfe565b818704821115614be557614be5614def565b80861615614bf257918102915b9490941c938002614bc4565b94509492505050565b600061394260001960ff851684600082614c2357506001613942565b81614c3057506000613942565b8160018114614c465760028114614c5057614c7d565b6001915050613942565b60ff841115614c6157614c61614def565b6001841b915084821115614c7757614c77614def565b50613942565b5060208310610133831016604e8410600b8410161715614cb0575081810a83811115614cab57614cab614def565b613942565b614cbd8484846001614bc1565b808604821115614ccf57614ccf614def565b02949350505050565b6000816000190483118215151615614cf257614cf2614def565b500290565b60006001600160a01b0383811690831681811015614d1757614d17614def565b039392505050565b600082821015614d3157614d31614def565b500390565b600081614d4557614d45614def565b506000190190565b6000600019821415614d6157614d61614def565b5060010190565b600082614d7757614d77614e05565b500690565b600081600f0b7fffffffffffffffffffffffffffffffff80000000000000000000000000000000811415614db257614db2614def565b9003919050565b60007f8000000000000000000000000000000000000000000000000000000000000000821415614deb57614deb614def565b0390565b634e487b7160e01b600052601160045260246000fd5b634e487b7160e01b600052601260045260246000fd5b634e487b7160e01b600052604160045260246000fd5b6001600160a01b03811681146130e057600080fd5b80151581146130e057600080fd5b8060020b81146130e057600080fd5b6001600160801b03811681146130e057600080fd5b60ff811681146130e057600080fdfea264697066735822122000bb466fe3c48277f1af8a69e9a32b3e907d9002b5bba912b2168a68f4a2c68064736f6c63430008010033",
  "linkReferences": {},
  "deployedLinkReferences": {}
}