{
  "_format": "hh-sol-artifact-1",
  "contractName": "TCake",
  "sourceName": "contracts/frogs/TCake.sol",
  "abi": [
    {
      "inputs": [],
      "stateMutability": "nonpayable",
      "type": "constructor"
    },
    {
      "anonymous": false,
      "inputs": [
        {
          "indexed": true,
          "internalType": "address",
          "name": "_owner",
          "type": "address"
        },
        {
          "indexed": true,
          "internalType": "address",
          "name": "_spender",
          "type": "address"
        },
        {
          "indexed": false,
          "internalType": "uint256",
          "name": "_value",
          "type": "uint256"
        }
      ],
      "name": "Approval",
      "type": "event"
    },
    {
      "anonymous": false,
      "inputs": [
        {
          "indexed": true,
          "internalType": "address",
          "name": "_sender",
          "type": "address"
        },
        {
          "indexed": false,
          "internalType": "uint256",
          "name": "_value",
          "type": "uint256"
        }
      ],
      "name": "Deposit",
      "type": "event"
    },
    {
      "anonymous": false,
      "inputs": [
        {
          "indexed": true,
          "internalType": "address",
          "name": "_from",
          "type": "address"
        },
        {
          "indexed": true,
          "internalType": "address",
          "name": "_to",
          "type": "address"
        },
        {
          "indexed": false,
          "internalType": "uint256",
          "name": "_value",
          "type": "uint256"
        }
      ],
      "name": "Transfer",
      "type": "event"
    },
    {
      "anonymous": false,
      "inputs": [
        {
          "indexed": true,
          "internalType": "address",
          "name": "_sender",
          "type": "address"
        },
        {
          "indexed": false,
          "internalType": "uint256",
          "name": "_value",
          "type": "uint256"
        }
      ],
      "name": "Withdrawal",
      "type": "event"
    },
    {
      "inputs": [
        {
          "internalType": "address",
          "name": "",
          "type": "address"
        },
        {
          "internalType": "address",
          "name": "",
          "type": "address"
        }
      ],
      "name": "allowance",
      "outputs": [
        {
          "internalType": "uint256",
          "name": "",
          "type": "uint256"
        }
      ],
      "stateMutability": "view",
      "type": "function"
    },
    {
      "inputs": [
        {
          "internalType": "address",
          "name": "_spender",
          "type": "address"
        },
        {
          "internalType": "uint256",
          "name": "_value",
          "type": "uint256"
        }
      ],
      "name": "approve",
      "outputs": [
        {
          "internalType": "bool",
          "name": "success",
          "type": "bool"
        }
      ],
      "stateMutability": "nonpayable",
      "type": "function"
    },
    {
      "inputs": [
        {
          "internalType": "address",
          "name": "",
          "type": "address"
        }
      ],
      "name": "balanceOf",
      "outputs": [
        {
          "internalType": "uint256",
          "name": "",
          "type": "uint256"
        }
      ],
      "stateMutability": "view",
      "type": "function"
    },
    {
      "inputs": [
        {
          "internalType": "address",
          "name": "",
          "type": "address"
        }
      ],
      "name": "balanceOfBNB",
      "outputs": [
        {
          "internalType": "uint256",
          "name": "",
          "type": "uint256"
        }
      ],
      "stateMutability": "view",
      "type": "function"
    },
    {
      "inputs": [],
      "name": "decimals",
      "outputs": [
        {
          "internalType": "uint8",
          "name": "",
          "type": "uint8"
        }
      ],
      "stateMutability": "view",
      "type": "function"
    },
    {
      "inputs": [],
      "name": "deposit",
      "outputs": [],
      "stateMutability": "payable",
      "type": "function"
    },
    {
      "inputs": [],
      "name": "name",
      "outputs": [
        {
          "internalType": "string",
          "name": "",
          "type": "string"
        }
      ],
      "stateMutability": "view",
      "type": "function"
    },
    {
      "inputs": [],
      "name": "symbol",
      "outputs": [
        {
          "internalType": "string",
          "name": "",
          "type": "string"
        }
      ],
      "stateMutability": "view",
      "type": "function"
    },
    {
      "inputs": [],
      "name": "totalSupply",
      "outputs": [
        {
          "internalType": "uint256",
          "name": "",
          "type": "uint256"
        }
      ],
      "stateMutability": "view",
      "type": "function"
    },
    {
      "inputs": [
        {
          "internalType": "address",
          "name": "_to",
          "type": "address"
        },
        {
          "internalType": "uint256",
          "name": "_value",
          "type": "uint256"
        }
      ],
      "name": "transfer",
      "outputs": [
        {
          "internalType": "bool",
          "name": "success",
          "type": "bool"
        }
      ],
      "stateMutability": "nonpayable",
      "type": "function"
    },
    {
      "inputs": [
        {
          "internalType": "address",
          "name": "_from",
          "type": "address"
        },
        {
          "internalType": "address",
          "name": "_to",
          "type": "address"
        },
        {
          "internalType": "uint256",
          "name": "_value",
          "type": "uint256"
        }
      ],
      "name": "transferFrom",
      "outputs": [
        {
          "internalType": "bool",
          "name": "success",
          "type": "bool"
        }
      ],
      "stateMutability": "nonpayable",
      "type": "function"
    },
    {
      "inputs": [
        {
          "internalType": "uint256",
          "name": "_value",
          "type": "uint256"
        }
      ],
      "name": "withdraw",
      "outputs": [],
      "stateMutability": "nonpayable",
      "type": "function"
    }
  ],
  "bytecode": "0x60c0604052600f60808190526e2a32b9ba1021a0a5a2902a37b5b2b760891b60a0908152610030916000919061009e565b50604080518082019091526005808252645443616b6560d81b602090920191825261005d9160019161009e565b5069d3c21bcecceda10000006002556003805460ff1916601217905534801561008557600080fd5b5060025433600090815260046020526040902055610172565b8280546100aa90610137565b90600052602060002090601f0160209004810192826100cc5760008555610112565b82601f106100e557805160ff1916838001178555610112565b82800160010185558215610112579182015b828111156101125782518255916020019190600101906100f7565b5061011e929150610122565b5090565b5b8082111561011e5760008155600101610123565b60028104600182168061014b57607f821691505b6020821081141561016c57634e487b7160e01b600052602260045260246000fd5b50919050565b610a2d806101816000396000f3fe6080604052600436106100c75760003560e01c806370a0823111610074578063a9059cbb1161004e578063a9059cbb146101ff578063d0e30db01461021f578063dd62ed3e14610227576100c7565b806370a08231146101aa57806395d89b41146101ca578063a5734896146101df576100c7565b806323b872dd116100a557806323b872dd146101465780632e1a7d4d14610166578063313ce56714610188576100c7565b806306fdde03146100cc578063095ea7b3146100f757806318160ddd14610124575b600080fd5b3480156100d857600080fd5b506100e1610247565b6040516100ee91906107e1565b60405180910390f35b34801561010357600080fd5b50610117610112366004610795565b6102d5565b6040516100ee91906107d6565b34801561013057600080fd5b5061013961033f565b6040516100ee919061092e565b34801561015257600080fd5b5061011761016136600461075a565b610345565b34801561017257600080fd5b506101866101813660046107be565b6104b2565b005b34801561019457600080fd5b5061019d610577565b6040516100ee9190610937565b3480156101b657600080fd5b506101396101c5366004610707565b610580565b3480156101d657600080fd5b506100e1610592565b3480156101eb57600080fd5b506101396101fa366004610707565b61059f565b34801561020b57600080fd5b5061011761021a366004610795565b6105b1565b61018661066e565b34801561023357600080fd5b50610139610242366004610728565b6106ce565b6000805461025490610974565b80601f016020809104026020016040519081016040528092919081815260200182805461028090610974565b80156102cd5780601f106102a2576101008083540402835291602001916102cd565b820191906000526020600020905b8154815290600101906020018083116102b057829003601f168201915b505050505081565b3360008181526005602090815260408083206001600160a01b038716808552925280832085905551919290917f8c5be1e5ebec7d5bd14f71427d1e84f3dd0314c0f7b2291e5b200ac8c7c3b9259061032e90869061092e565b60405180910390a350600192915050565b60025481565b6001600160a01b0383166000908152600460205260408120548211156103865760405162461bcd60e51b815260040161037d906108c0565b60405180910390fd5b6001600160a01b03841660009081526005602090815260408083203384529091529020548211156103c95760405162461bcd60e51b815260040161037d90610889565b6001600160a01b038416600090815260046020526040812080548492906103f190849061095d565b90915550506001600160a01b0383166000908152600460205260408120805484929061041e908490610945565b90915550506001600160a01b03841660009081526005602090815260408083203384529091528120805484929061045690849061095d565b92505081905550826001600160a01b0316846001600160a01b03167fddf252ad1be2c89b69c2b068fc378daa952ba7f163c4a11628f55a4df523b3ef846040516104a0919061092e565b60405180910390a35060019392505050565b336000908152600660205260409020548111156104e15760405162461bcd60e51b815260040161037d906108f7565b336000908152600660205260408120805483929061050090849061095d565b9091555050604051339082156108fc029083906000818181858888f19350505050158015610532573d6000803e3d6000fd5b50336001600160a01b03167f7fcf532c15f0a6db0bd6d0e038bea71d30d808c7d98cb3bf7268a95bf5081b658260405161056c919061092e565b60405180910390a250565b60035460ff1681565b60046020526000908152604090205481565b6001805461025490610974565b60066020526000908152604090205481565b336000908152600460205260408120548211156105e05760405162461bcd60e51b815260040161037d90610852565b33600090815260046020526040812080548492906105ff90849061095d565b90915550506001600160a01b0383166000908152600460205260408120805484929061062c908490610945565b90915550506040516001600160a01b0384169033907fddf252ad1be2c89b69c2b068fc378daa952ba7f163c4a11628f55a4df523b3ef9061032e90869061092e565b336000908152600660205260408120805434929061068d908490610945565b909155505060405133907fe1fffcc4923d04b559f4d29a8bfc6cda04eb5b0d3c460751c2402c5c5cc9109c906106c490349061092e565b60405180910390a2565b600560209081526000928352604080842090915290825290205481565b80356001600160a01b038116811461070257600080fd5b919050565b600060208284031215610718578081fd5b610721826106eb565b9392505050565b6000806040838503121561073a578081fd5b610743836106eb565b9150610751602084016106eb565b90509250929050565b60008060006060848603121561076e578081fd5b610777846106eb565b9250610785602085016106eb565b9150604084013590509250925092565b600080604083850312156107a7578182fd5b6107b0836106eb565b946020939093013593505050565b6000602082840312156107cf578081fd5b5035919050565b901515815260200190565b6000602080835283518082850152825b8181101561080d578581018301518582016040015282016107f1565b8181111561081e5783604083870101525b50601f017fffffffffffffffffffffffffffffffffffffffffffffffffffffffffffffffe016929092016040019392505050565b6020808252600b908201527f3434343434343434343434000000000000000000000000000000000000000000604082015260600190565b60208082526009908201527f3131313131313131310000000000000000000000000000000000000000000000604082015260600190565b6020808252600a908201527f3232323232323232323200000000000000000000000000000000000000000000604082015260600190565b6020808252600b908201527f3333333333333333333333000000000000000000000000000000000000000000604082015260600190565b90815260200190565b60ff91909116815260200190565b60008219821115610958576109586109c8565b500190565b60008282101561096f5761096f6109c8565b500390565b60028104600182168061098857607f821691505b602082108114156109c2577f4e487b7100000000000000000000000000000000000000000000000000000000600052602260045260246000fd5b50919050565b7f4e487b7100000000000000000000000000000000000000000000000000000000600052601160045260246000fdfea2646970667358221220c06415ad9f4fb2b4d79c25f6b640881af2d4fa66948ab33a2cbdfcd1f56cbffb64736f6c63430008010033",
  "linkReferences": {},
  "deployedLinkReferences": {}
}